:020000041000EA
:10000000002008205D0100101B010010AD800110D0
:100010001101001011010010110100101101001058
:100020001901001019010010190100101F01001022
:10003000318001101901001021010010230100106E
:100040001101001011010010110100101101001028
:100050001101001011010010110100101101001018
:100060001101001011010010110100101101001008
:1000700011010010110100101101001011010010F8
:1000800011010010110100101101001011010010E8
:1000900011010010110100101101001011010010D8
:1000A00011010010110100101101001011010010C8
:1000B00011010010110100101101001011010010B8
:1000C00011010010110100101101001011010010A8
:1000D0001101001011010010110100101101001098
:1000E0001101001011010010110100101101001088
:1000F0001101001011010010110100101101001078
:100100001101001011010010110100101101001067
:10011000EFF30580103800BE00BE00BE00BE00BE7A
:1001200000BE00BEF2EB8871F0BA031020BB0310D2
:10013000A001001090A31AE7D3DEFFFF42012110B7
:10014000FF01000020F60300793512AB4FF00000EC
:100150001E49086006C881F3088810474FF05040D8
:10016000006810B14FF00000F2E70DA40ECC00299A
:1001700002D000F012F8F9E71549164A002000E015
:1001800001C19142FCD11449884714498847144958
:10019000884700BEFDE701C901C29A42FBD3704700
:1001A00020BB031088010020C03D002058F7031039
:1001B000000008200000082058F703100010082055
:1001C00000100820000000007047000008ED00E06B
:1001D000C03D0020709100204DCB00106503001041
:1001E00011CB0010F8B500BF064B0749C91A89109A
:1001F00048BF0131491003D0044B0BB101481847E7
:10020000704700BFC03D0020C03D0020000000003E
:1002100008B5054B1BB105490548AFF30080BDE8A3
:100220000840FFF7E1BF00BF00000000BC900020C5
:1002300068F6011070B584B005460C4601AB02AA01
:1002400003A90AF0FBFC18B954B9204604B070BDEC
:100250000646019A029903980AF0BEFC3446F4E778
:100260002946014809F0ECF968F60110002203E084
:10027000002120F8121001325D2AF9DD44F241021A
:10028000A0F8B8200022C2830284428402808280C7
:10029000A0F8A020A0F8A220A0F8A420A0F8A620F2
:1002A000A0F8A820A0F8782001228287C287A0F8B1
:1002B0004620A0F85020A0F8522041F28832A0F841
:1002C00054202022A0F856204FF05042526812F4D9
:1002D000003F01D00020704700B583B0FE2200929D
:1002E00003464FF4E832052103481FF071F901205D
:1002F00003B05DF804FB00BF000008404FF050431E
:100300005B6813F4003F01D00020704700B583B054
:10031000FE23009303464FF4E832052103481FF003
:1003200057F9012003B05DF804FB00BF000008404E
:100330004FF050435B6813F4003F01D0002070473A
:1003400000B583B0FE23009303464FF4E832052145
:1003500003481FF015F9012003B05DF804FB00BF4E
:100360000000084000B583B001214348FFF762FF59
:100370000CF038FD07F014FF00F0D4FE07F030FF5A
:100380004FF47A700AF00CF9192007F0FDFE4FF4D3
:100390007A700AF005F9192007F0F6FE01231C46D1
:1003A0008DF8043000208DF8050001A90DF06EFFD6
:1003B00007F080F91C2344EC403005F055F908F0B3
:1003C000DFFB08F025F900F0ADFE2C4C2046FFF7CE
:1003D000AFFFB4F8B82044F241039A4244D107F089
:1003E000BFF907F0C7FF07F07BFF24480123C38351
:1003F00003848380FFF782FF06F0DAF800F0DCFE6A
:1004000019234FF0000242EC403005F089F808F063
:1004100067FE0DF0B5FA1A480DF04EFB04F0F6FC3D
:1004200004F0C8FB0DF074FA164B02221A60A3F513
:1004300000531B6883F4804303F47043124A136033
:1004400000F070FE05F076F800214FF0FF300EF05E
:100450000BFB06F08DF804F021FB07F0EFF907F035
:1004600093FF08F04BFAEDE72046FFF7FFFE20462A
:10047000FFF744FFB3E700BF48E80100988B002076
:100480003D06002000200A4000100A4070B50446D6
:100490000D4616460023DB8A002242E800F212F4E1
:1004A000800F0BD1102144F24F10984703460D4A9C
:1004B000D2F8142842B96FF0120070BD042144F242
:1004C0004F1098470346F2E7BFF35F8F3246294645
:1004D00020469847BFF35F8F024B0022C3F81428D1
:1004E000EBE700BF00000E4010B588B004464FF4A3
:1004F000806220216846FFF7C9FF41B251B900234D
:100500001F2B13DC03F120026A4412F8202C2AB9B5
:100510000133F5E7214805F08DF9F0E74FF48261EA
:100520001F4805F087F9002008B010BD002305E042
:1005300003F12001694401F8202C01331F2B09DC51
:10054000E25C002AF4D1002103F120026A4402F89F
:10055000201CF2E74FF4413220216846FFF796FF56
:1005600041B289B921460F4805F064F94FF40132D0
:1005700020216846FFF78AFF41B251B969460A480F
:1005800005F058F90120CFE7084805F053F900209D
:10059000CAE7074805F04EF90020C5E79CF60110B0
:1005A000DCF6011050F70110A0F7011018F7011048
:1005B00078F7011010B5A0B004464FF480624021D6
:1005C0000DEB0100FFF762FF41B209B9002319E00A
:1005D000144805F02FF9002022E05A0020A901EB71
:1005E000430111F8400C03F18001694401F8800CCB
:1005F00081326A4412F8400C03F181026A4402F825
:10060000800C02331E2BE8DD002306E003F180029C
:100610006A4412F8802CE25401331F2BF6DD0120CE
:1006200020B010BDB8F7011010B54FF4FA740BE00C
:10063000022009F0B5FF013C002006F06FFF002109
:100640004FF0FF300EF010FA002CF1DC10BD00006E
:1006500070B5FFF7E9FF00244FF4801516E02A4635
:1006600021460C4805F0E6F8FFF7DEFFEFF31083B4
:1006700072B6094E33604FF4801128461EF09CFF7D
:10068000336883F3108805F580150134022CE6DD0C
:1006900070BD00BFF0F701108C52002003460144EA
:1006A000B1F5401F0ED80A48006810F803C018467C
:1006B0001344994202D9BCF1FF0FF4D0BCF1FF0FF3
:1006C00002D07047002070474FF0FF30F9E700BFBD
:1006D0005C31002030B5C1B0012219490020FFF77C
:1006E000DDFFB0F1FF3F25D1164805F0A3F84FF428
:1006F0008072FF21684619F04FFA41258DF80050AD
:100700001E2211490DF1010019F042FB00238DF862
:100710001F30022308934FF48072099240238DF812
:1007200028308DF8295069464FF480101EF0FCFEE9
:1007300041B030BD0146054805F07CF8F8E700BF40
:1007400000FF2F0028F8011050F8011068F8011080
:10075000034B1B78412B01D00020704701207047CC
:1007600000001010F0B5C1B0054600F58057B7F590
:10077000401F39D94FF4401736E0204B1B685A5DB3
:100780001F4901A820440CF02FF90334013501362C
:100790000F2EF2DD103D01AB19191A4A108892781C
:1007A00018538A700234002607E0174901A8204434
:1007B0000CF01AF90134013501360F2E09DC0F4B0C
:1007C0001B685A5DA2F12003DBB25E2BEDD92E220D
:1007D000EBE700214FF0FF300EF046F901A90B487E
:1007E00005F028F8BD4207D22A46094901A80CF0B5
:1007F000FBF800260A24CBE741B0F0BD5C310020B5
:10080000E412021090110210B4F80110E811021065
:10081000ACF801102DE9F843044601F128074FF028
:100820000008C146B4F5401F19D204F1805505F502
:1008300080152E7800214FF0FF300EF015F97F2E35
:1008400010D0FF2E02D06EB16C6AEBE7C4F54013F6
:10085000BB421CD943451DD3B9F1000F1CD04846FB
:10086000BDE8F8836B6A1A1B974206D8B8F1000FEF
:1008700005D0904507D81C46D4E71C46D2E79046E1
:10088000A1461C46CEE79046A1461C46CAE74FF05B
:10089000FF39E4E7A146E2E7A146E0E700E0586A55
:1008A000B0F5401F0BD200F1805303F580131A7886
:1008B000FF2A04D0412AF2D94FF0FF307047B0F53B
:1008C000401F00D870474FF0FF307047F8B507461B
:1008D000002500E0656AB5F5401F0FD205F1805490
:1008E00004F580142678FF2E0CD03946601C19F0D0
:1008F000A1F90028EED1002EECD001E04FF0FF3539
:100900002846F8BD4FF0FF35FAE700002DE9F04723
:10091000C0B004460D46154F396820F0FF094FF46A
:10092000807A52464944684619F09CFEE3B20DF8BD
:100930000350FFF779FEEFF3108372B6DFF83080D3
:10094000C8F800305246694609F580101EF0ECFDEB
:10095000D8F8003083F310883B68185DA84214BFB4
:100960000020012040B0BDE8F08700BF5C310020CE
:100970008C5200202DE9F04FADF5005D83B020F0E2
:10098000FF0404F5801421F0FF0505F5801824F418
:100990007F6626F00F0628F47F6727F00F0707F51C
:1009A000805704F47064A7EB080B06F180530193A1
:1009B00005F1805505F580150DF5805A0AF1080AF4
:1009C0004FF48052FF21504619F0E6F80DF1080966
:1009D0004FF48052FF21484619F0DEF82246019973
:1009E000504619F03FFE5A462946484619F03AFE4D
:1009F000FFF71AFEEFF3108372B60C4D2B60B91B94
:100A000030461EF0D9FD2246514630461EF08CFD80
:100A10005A46494640461EF087FD2B6883F31088EE
:100A20000DF5005D03B0BDE8F08F00BF8C520020D3
:100A300038B520F47F6424F00F04FFF7F5FDEFF3E1
:100A4000108372B6054D2B604FF4805120461EF086
:100A5000B3FD2B6883F3108838BD00BF8C52002093
:100A6000F8B50D46164620F0FF04FFF7DDFDEFF365
:100A7000108372B6054F3B603246294620461EF071
:100A800053FD3B6883F31088F8BD00BF8C520020F3
:100A900003460144B1F5800F0ED80A48006810F8EB
:100AA00003C018461344994202D9BCF1FF0FF4D099
:100AB000BCF1FF0F02D07047002070474FF0FF30AD
:100AC000F9E700BF5831002008B504F0A7FC08BDC5
:100AD00008B503480CF0F2F9024B04221A7008BD65
:100AE000B8F801106B91002008B54FF050435B68D7
:100AF00013F0807F04D0034903480CF0DFF908BDF0
:100B00000249F9E7A8360210C4F80110C0F8011034
:100B100008B506480CF0D2F94FF47A7009F040FDA0
:100B2000012108460AF088F908BD00BFF0F801105D
:100B300008B506480CF0C2F94FF47A7009F030FDA0
:100B400000214FF000700AF0C0F900BF10F9011049
:100B500008B502480CF083F908BD00BF40F9011048
:100B600008B503480CF07BF904F09CFC08BD00BFFD
:100B700050F9011008B504F01DF808BD70B5B2B009
:100B80000A200CF05DF9002407E0144B53F82420F0
:100B9000214613480CF092F90134042C1BDC20464A
:100BA00006F0C1FC0028F0D00C4E56F82420214657
:100BB0000C480CF083F956F8243022460A4968465E
:100BC0000BF012FF02466946204606F01DFD204646
:100BD00006F0A4FCE0E732B070BD00BF3848031057
:100BE000CCF9011084F90110A8F9011010B50E48D4
:100BF0000CF035F90D480CF061F90D480CF05EF978
:100C000000240AE00B4904EB44029300CA189268DE
:100C1000C95C09480CF052F901340B2CF2DD0A20B2
:100C20000CF00EF910BD00BFF0F90110FCF9011035
:100C300010FA01107831002028FA011010B50E4882
:100C40000CF00DF90D480CF039F90D480CF036F99F
:100C500000240AE00B4904EB44029300CA1892688E
:100C6000C95C09480CF02AF90134012CF2DD0A2094
:100C70000CF0E6F810BD00BF34FA011054FA011070
:100C800080FA01106031002028FA01102DE9F041AE
:100C900007464FF47462002118F07EFF002623E01F
:100CA000F42406FB04F407EB04080025A8F83850E8
:100CB000C8F83050C8F83450C8F85C5088F83A503A
:100CC00088F8F05038343C4402342022294620462B
:100CD00018F062FF1F220E4B53F82610204619F021
:100CE00057F888F8595001360F2ED9DD80233B8103
:100CF000A7F8FC30A7F8F031A7F8E4323B87A7F853
:100D00002C31A7F82032A7F81433BDE8F08100BFDA
:100D100058580310F8B5044616461A46069B770045
:100D200006EB4600F42501FB05F505EB0010211844
:100D30000A81235062194FF0010C82F8F0C0094A71
:100D40001A444A60083020441F22074919440230DF
:100D500019F01EF8374405EB07152C44002384F8DE
:100D60002930F8BD280010100100101038B5049C7F
:100D700002EB420E4FF0F40C0CFB01FC0CEB0E1ED0
:100D800000EB0E052B81002340F80E308444012334
:100D90008CF8F0306C60062902D007291FD038BDCE
:100DA00063881B2B11D0192BF7D102EB4202F423DD
:100DB00001FB03F303EB0213083318441F22104B0B
:100DC0009968023018F0E4FFE9E7734608331844E5
:100DD0001F220B4B5968023018F0DAFFDFE702EBF5
:100DE0004202F42303FB01F101EB02110831084434
:100DF0001F22034B1968023018F0CAFFCFE700BF6B
:100E00004C580310032900D870472DE9F8430446D5
:100E1000164602EB4203F42701FB07F707EB031327
:100E200000EB03094FF0000840F80380A9F80880A0
:100E300007F1380020441F22094B53F821100230DB
:100E400018F0A6FF274487F85980C9F82C80C9F804
:100E50000480012E01D0BDE8F88387F8F080FAE71E
:100E600058580310F8B506460C461546B3B1194656
:100E7000570002EB4200F42303FB04F404EB0010E0
:100E8000083030441F22023018F082FF2F4404EB58
:100E900007142644002386F82930F8BD02EB4205EA
:100EA000F42303FB04F404EB0512104400238372C3
:100EB000F3E7F42303FB01031B8913F0800F20D118
:100EC000F42303FB01031B8F13F0800F1BD1F423CA
:100ED00003FB0103B3F8683013F0800F15D1F4233E
:100EE00003FB0103B3F8983013F0800F0FD1F42304
:100EF00003FB0100B0F8C83013F0800F09D00120C7
:100F00007047012070470120704701207047012081
:100F100070470020704708B502EB4202F42301FB42
:100F200003F303EB021303441B8913F0010F08D1F1
:100F300013F0100F07D113F4807F06D1FFF7B9FF2C
:100F400000E0012008BD0120FCE70120FAE70000D5
:100F500030B585B0044644F24103ADF80E30FFF7DA
:100F600095FE0A4D4FF47463009323461022052129
:100F700028461EF02DFB022300930DF10E030022E4
:100F8000052128461EF024FB05B030BD00000840B6
:100F90004FF050435B6813F4003F00D0704700B53A
:100FA00083B04FF474630093034610220521034875
:100FB0001EF00EFB03B05DF804FB00BF000008400C
:100FC0002DE9F0411F464B1E0E2B3FD80646531EFF
:100FD000032B3DD88DB22D03ADB2D4B205F6FE7110
:100FE00089B222461EF0D8FA00F03F00DFF8648094
:100FF00018F800303B7005F6FD71224689B2304684
:101000001EF0CAFA00F03F0018F800307B702D2364
:10101000BB7005F6FC7189B2224630461EF0BCFA60
:1010200000F03F0018F80030FB7005F6FB71224617
:1010300089B230461EF0B0FA00F03F0018F80030D8
:101040003B7100237B710120BDE8F0810020FBE7AC
:101050000020F9E7985803100F2900D9704770B5A0
:1010600082B005460E46F42201FB02F238320244F9
:101070000232114804F0DEFB002418E004EB4403C4
:101080004FF0F40C0CFB06FC0CEB031C0CF10802FB
:101090002A4405EB0C010B894968019155F80C10A5
:1010A000009102322146054804F0C4FB0134042CAF
:1010B000E4DD02B070BD00BFACFA0110B8FA011057
:1010C0000148024BC01A70470000082070910020B0
:1010D00000B58BB0684617F051FDFFF7F1FF079B95
:1010E000C01A0BB05DF804FB10B500EBD0704410D3
:1010F00000214FF0FF300DF0B7FC022009F050FA4C
:10110000002006F076FA18B9013CF1D5002006E07F
:10111000002006F073FA024804F08CFB012010BD99
:10112000F4FA01102DE9F047012009F027FD82466D
:10113000022009F023FD8146032009F01FFD8046AF
:10114000092009F01BFD07460A2009F017FD064695
:101150000B2009F013FD05460C2009F00FFD044695
:1011600051460E480BF0AAFE49460D480BF0A6FE6C
:1011700041460C480BF0A2FE39460B480BF09EFE90
:1011800031460A480BF09AFE294609480BF096FEB4
:10119000214608480BF092FEBDE8F08714FB0110D1
:1011A00028FB01103CFB011050FB011064FB0110F7
:1011B00078FB01108CFB011010B5114C20460BF090
:1011C0007DFE10480BF07AFEFFF77AFF01460E48CD
:1011D0000BF074FEFFF77CFF01460C480BF06EFE2F
:1011E000052009F0C5FC0A4BA3FB00318909094819
:1011F0000BF064FE20460BF032FEFFF793FF10BDAC
:10120000A0FB0110F0FB011040FC01105CFC011080
:10121000D34D621078FC01102DE9F04F2DED068BB7
:1012200095B0FFF77FFF012009F0A8FC824602205D
:1012300009F0A4FC8146032009F0A0FC80460920A7
:1012400009F09CFC07460A2009F098FC06460B2092
:1012500009F094FC05460C2009F090FC0390914B9A
:1012600004221A60904B1B6813F4807FFAD08E4BD7
:101270005B689BB207EE903AF8EE677A9FED8B7A47
:1012800067EE877A9FED8A7A77EEC77ADFED896A13
:1012900087EEA67AB3EE0BAA3AEE47AA052009F02C
:1012A00067FC854BA3FB0030800C07EE900AB8EE7C
:1012B000678AFFF705FF800A07EE900AF8EE679A43
:1012C000FFF706FF800A07EE900AB8EE679A7B4B9D
:1012D000B3F854B02C2303FB0BF39B0A07EE903AB0
:1012E000F8EE678A12A80BF06FFF00240BE004F100
:1012F00050036B4413F8082C71490DA800EB44000F
:101300000BF072FB0134072CF1D96E4804F092FA0D
:101310006D4804F08FFA6D4804F08CFA6C4804F0C4
:1013200089FA6C4804F086FA6B4804F083FA6B4B38
:101330006B4A6C496C4804F07DFA05AC2022002110
:10134000204618F029FC2046FFF734F9002800F069
:101350009F809DF81430002B40F09580634804F086
:1013600069FA634B1B78203BDBB25E2B40F2948022
:101370005A4B5B4A5B495C4804F05CFA5D4804F0F8
:1013800059FA5D4C204604F055FA5C4804F052FAD4
:1013900018EE100A1EF0E4F802460B46584804F016
:1013A00049FA5146574804F045FA4946564804F070
:1013B00041FA4146554804F03DFA3946544804F094
:1013C00039FA3146534804F035FA2946524804F0B8
:1013D00031FA0399514804F02DFAF2EE027A6AEEDE
:1013E000277AB1EE047A87EE878ADFED4D7A38EE00
:1013F000278A1AEE100A1EF0B3F806460F4618EEBA
:10140000100A1EF0ADF8CDE9000132463B464548D2
:1014100004F010FA0DA9444804F00CFA204604F038
:1014200009FA424804F006FA0022414B414804F010
:1014300001FA19EE900A1EF093F802460B463E4858
:1014400004F0F8F919EE100A1EF08AF802460B466D
:101450003A4804F0EFF918EE900A1EF081F80246BF
:101460000B462C210191CDF800B0354804F0E2F98B
:10147000204604F0DFF9134804F0DCF915B0BDECA8
:10148000068BBDE8F08F05A92E4804F0D3F968E774
:101490002D4804F0CFF964E715492C4804F0CAF947
:1014A0006FE700BF00200A4000000A403333533A80
:1014B0006ABC343F2D93E13A83DE1B43988B0020B6
:1014C000D82F021094FC0110E4FC0110F8FC01106C
:1014D00028FD011074FD0110B4FD0110F0FD011094
:1014E000FCFD011008FE011014FE011038FE011071
:1014F00000F00F1088FE0110ECFB0110C0FE01107F
:10150000D4FE0110F4FE011010FF01102CFF011099
:1015100048FF011064FF011080FF01109CFF0110C3
:1015200000000042B8FF0110E0FF01101800021097
:10153000004080402800021048000210680002109D
:101540008800021058FE011068FE0110B0FE011064
:1015500008B503F0EBFB08BD08B5002005F0E3FF7C
:1015600020B31749174804F065F9012005F0DBFFA7
:10157000F0B11349144804F05DF9022005F0D3FFDF
:10158000C0B10F49114804F055F9032005F0CBFF15
:1015900090B10B490E4804F04DF9042005F0C3FF4B
:1015A00060B107490B4804F045F908BD0A49D9E77D
:1015B0000949DFE70849E5E70749EBE70649F1E7AD
:1015C000CC000210D4000210FC0002102401021012
:1015D0004C01021074010210D000021070B5B2B0BC
:1015E000164804F027F9002407E0154B53F824208F
:1015F0002146144804F01EF90134042C1BDC20465B
:1016000005F091FF0028F0D00D4E56F82420214619
:101610000D4804F00FF956F8243022460B4968466D
:101620000BF0E2F902466946204605F0EDFF204640
:1016300005F074FFE0E732B070BD00BF44890210CE
:1016400038480310E40102109C010210BC01021092
:1016500008B50E4804F0EEF801214FF4FA6009F0E5
:10166000EBFB00214FF0FF300DF0FEF9002005F0FC
:10167000C0FF0028F5D0064B4FF080421A600020D2
:1016800005F0BCFF034804F0D5F808BD04020210C1
:1016900000B00D404802021010B50F4804F0CAF81F
:1016A0004FF4FA7400214FF0FF300DF0DDF9022005
:1016B00008F076FF002005F09CFF30B9013CF1D125
:1016C00000214FF0007009F000FC002005F096FFAB
:1016D000024804F0AFF810BD5C020210480202108C
:1016E00010B50446B8B90F4804F0A4F8192006F064
:1016F0004BFD16E021460C4804F0FAFE192006F0D6
:1017000043FDFA2008F04CFF192006F03DFDFA20B9
:1017100008F046FF013C631E082BEBD9034804F098
:1017200089F810BDB0020210C40202103C31021050
:1017300008B54FF050435B6813F4003F01D101201E
:1017400008BD024804F076F80020F9E7C80202104C
:1017500008B5034804F06EF803F0A4FE08BD00BF0E
:101760000C03021008B5FFF7E3FF00B908BD0348FA
:1017700004F060F803F052FEF8E700BF30030210F7
:1017800008B5FFF7D5FF00B908BD034804F052F8CB
:101790000248FEF76BFDF7E754030210988B002018
:1017A00010B5FFF7C5FF70B910BD084B53F82430D2
:1017B000074A32F814202146064804F03BF8013469
:1017C0005F2CF2DDF0E70024FAE700BF54B9031004
:1017D000988B00208003021070B5C0B00446FFF75C
:1017E000A7FFB0B3BCB301224FF480714FF47F2048
:1017F000FFF74EF9B0F1FF3F4CD1204618F0A8FF9B
:1018000006464FF48072FF21684618F0C5F932464B
:101810002146684618F0BCFA00230DF806306A46E7
:101820002146214804F006F84FF47F211F4804F0B8
:1018300001F84FF4807269464FF47F20FFF710F9EA
:101840001B4C21461B4803F0F5FF21461A4803F0C4
:10185000F1FF40B070BD164B1B78203BDBB25E2B16
:1018600004D81349154803F0E5FFF2E7104914487E
:1018700003F0E0FF08E004F1805303F57F231978BB
:10188000104804F035FE01341F2CF4DD0E4803F03F
:10189000D1FFDEE74FF47F210C4803F0CBFF4FF47C
:1018A0007F20FFF7C5F8A8E71004021034040210E7
:1018B00000F00F107004021090040210DC030210FC
:1018C000A0030210D40302103C310210EC030210FA
:1018D00030B589B00546EC463C4C0FCCACE80F0067
:1018E00094E80F00ACE807002CF8023B1B0C8CF8C6
:1018F000003000238DF81F307DB12C46284618F0AB
:1019000027FF042820D10022032A26DCA35C303BD9
:10191000DBB2092B1DD80132F6E72D4803F08AFF10
:101920006846FEF747FE58B19DF800301BB92948BC
:1019300003F080FF0BE06946274803F07BFF06E0D9
:10194000264803F077FF02E0254803F073FF09B053
:1019500030BD244803F06EFFF9E72349684618F0CC
:10196000C7FB054610B30422214618F011FA0023E4
:101970002B7169461D4803F05DFF1D4803F05AFFB7
:1019800041F28830FFF7B0FBA0B96846FEF7ACFD26
:10199000A0B16946174803F04DFF6846FEF70AFEFE
:1019A00080B169460C4803F045FFD0E7124803F0C8
:1019B00041FFCCE7114803F03DFFC8E7104803F0B2
:1019C00039FFEAE70F4803F035FFC0E78CB102109A
:1019D000B0040210E40402101C05021030050210CD
:1019E000580502108C050210B40502100006021002
:1019F0002006021084060210BC0502105C060210CC
:101A0000A4060210D006021010B50D4803F012FF14
:101A1000002408E00B4A0C4B53F8243021460B48B5
:101A200003F008FF01341D2C08DC4FF050435A68C6
:101A30000123A3401A42EDD0054AECE710BD00BFD8
:101A4000F8060210F4060210DCB8031008070210B2
:101A5000F006021008B507F047F908BD08B507F011
:101A6000E5F908BD08B507F0A9F808BD08B507F005
:101A70000FF908BD08B507F087F808BD08B507F0ED
:101A800045FB08BD08B507F047FB08BD2DE9F04749
:101A9000ADF5805D82B0066901F1805303F58013D6
:101AA0001B6AB34205D004200DF5805D02B0BDE88D
:101AB000F08707461E4D0D440024019400220023A8
:101AC00012F0A0F8A1464FF4805819E016F0DAFBA6
:101AD00001465246174803F0ADFE0020E4E701330B
:101AE000019A93420AD202AAD25C1919695C8A420D
:101AF000F5D08A431AD14FF00109F0E7B61A144421
:101B00006EB1464500D2B04602A90B1F4246384688
:101B100011F012FE82460028D8D10023E0E7B9F187
:101B2000000F01D10120BFE70220BDE70320BBE782
:101B300028001010200702102DE9F047ADF5955D43
:101B400086B006460F46012201460EA811F04EFC53
:101B500028B93146A6A818F0E7FC002518E004468D
:101B600016F090FB024623463146BA4803F062FE67
:101B7000002420460DF5955D06B0BDE8F087AEACBB
:101B80002C4414F8200C17F0B7FA04F8200C013597
:101B9000A6A818F0DDFDA842F1D82E21A6A818F0BD
:101BA00029F90446129D03462A463146AA4804F004
:101BB0009FFC2F21304618F01DF900B1461CA749A3
:101BC000204618F0D3FB002800F0BE804FF000093B
:101BD000A349204618F0CAFB08B94FF00309A149F0
:101BE000204618F0C3FB08B94FF004099E4920466F
:101BF00018F0BCFB08B94FF005099C49204618F0C5
:101C0000B5FB08B94FF006099949204618F0AEFB1C
:101C100008B94FF007099749204618F0A7FB08B903
:101C20004FF008099449204618F0A0FB002800F066
:101C30009680B9F1000F00F08A803046FEF746FE2C
:101C40008046B0F1FF3F40F08D80032F00F0D4803C
:101C50000024022F03D1B8F1FF3F40F0D5800020CF
:101C6000FEF71CFEB0F1FF3F00F01E812946002068
:101C7000FEF7D0FD8046B0F1FF3F00F01D81C0F5BA
:101C8000401305F580729342C0F01E8104AC8DF8BC
:101C9000109031460DF1110018F046FC0C9508F13A
:101CA000805303F580135A6A1B78FF2B00F01481D0
:101CB0000D92012205F128014046FEF7EFFCB0F13C
:101CC000FF3F40F01081AEAC04AECDF80080336A27
:101CD00032780DF11101694803F0ACFD4FF48052E8
:101CE000FF21204617F058FF0FCE0FC40FCE0FC4B0
:101CF00096E8030084E803000EAC0022002320468F
:101D000011F080FF03AB40F6D872B8A9204611F05D
:101D100013FD0446002840F0F480FEF785FCAEA9D0
:101D2000A1F52B76346804F2271424F0FF04EFF3B6
:101D3000108772B6224608F580101DF0F5FB87F378
:101D400010883668AE1BFBE04FF0010940E74C48B5
:101D500003F070FD0EA811F0ABFE012409E74FF06F
:101D600009096AE70146474803F064FDBB1E012BE1
:101D70003AD841460EA8FFF789FE044604282AD81F
:101D8000DFE800F00B03291A13003F4803F052FD6F
:101D90000EA811F08DFE0224EBE63C4803F04AFD4C
:101DA0000EA811F085FE0324E3E6394803F042FD56
:101DB0000EA811F07DFEDCE6364803F03BFD4FF047
:101DC000050A022C0AD0032F7FF443AF0EA811F0AE
:101DD0006FFE5446CDE64FF0000AF2E72E4803F0BE
:101DE00029FD4FF0060AEEE72C4803F023FD0EA86C
:101DF00011F05EFE0724BCE6294803F01BFD0EA887
:101E000011F056FE3C46B4E608F1805303F580130A
:101E10001E460DF1100E03F12007F446306871687C
:101E2000B268F368ACE80F001036E646BE42F4D163
:101E300030687168AEE80300032C7FF444AF0D9A5C
:101E40004146184803F0F6FC0D994046FEF792FD16
:101E500039E700BF5807021034090210A407021026
:101E6000AC070210B4070210BC070210C40702102E
:101E7000CC070210D4070210DC070210A40B0210DA
:101E8000E40702106C0902108C090210BC09021050
:101E9000D8090210140A0210540A0210900A021003
:101EA000C00A0210EC0A0210324803F0C3FC0EA86C
:101EB00011F0FEFD09245CE62F4803F0BBFC0EA8E0
:101EC00011F0F6FD0A2454E62C4803F0B3FC0EA8EA
:101ED00011F0EEFD0A244CE605F2271323F0FF0370
:101EE00043446362E5E60146254803F0A3FC0D9AEE
:101EF0004146244803F09EFC0D994046FEF73AFD0A
:101F0000E1E616F0BFF9014622461F4803F092FCB5
:101F10000EA811F0CDFD00242BE6FF3424F0FF04C1
:101F2000EFF3108772B6AEAD2246294608F5801051
:101F30001DF0FAFA87F31088A5F52B752B68F61AB1
:101F4000002E12DDAEAD4FF48052FF21284617F06F
:101F500023FE03AB4FF4805229460EA811F0ECFB90
:101F6000A04403AD2C68002CD7D10EA811F0A0FD21
:101F70000824FEE5140B0210300B0210580B02105F
:101F8000840B0210EC0A02102007021070B5ADF5A8
:101F90003E7D05460E462C220021B3A817F0FCFD1D
:101FA000FEF7D6FB68B3FF22002173A817F0F4FDFB
:101FB0002B7833B9FF2173A811F08FFD044648BB7D
:101FC00073AD2946514803F035FC582200215CA826
:101FD00017F0E2FD4FF49072002114A817F0DCFD19
:101FE00005B34B4B2A4614A95CA812F010F804461E
:101FF00098B316F047F901462246464803F01AFC0A
:1020000081E0454803F016FC4FF44061434803F07B
:1020100011FC78E016F036F901462246404803F0FC
:1020200009FC70E03F4B404A4FF4B4613F480AF06E
:1020300073FD31466846FFF77FFDBEAB03EB8003BF
:1020400053F82C2C013243F82C2C394803F0F2FBC6
:1020500014A95CA811F0C4FF044614BB9DF86A30B3
:10206000FBB100214FF0FF300CF0FEFC2946684622
:1020700018F05AFA684618F06BFB2E4B1B882DF8A7
:1020800000300DF16A01684617F0FAFD9DF85C30EA
:1020900013F0100FCDD00DF16A01274803F0CAFBF1
:1020A000D6E75CA811F053FF244803F0C3FBBB99AB
:1020B000234803F0BFFBBA99224803F0BBFBB59954
:1020C000214803F0B7FBB999204803F0B3FBB89956
:1020D0001F4803F0AFFBB7991E4803F0ABFBB6995E
:1020E0001D4803F0A7FBB4991C4803F0A3FBB39968
:1020F0001B4803F09FFBBD991A4803F09BFBBC995A
:10210000194803F097FB0DF53E7D70BD680C021079
:10211000ECFB0110F80C0210DC0B0210180C021082
:10212000440C0210880C0210900C0210B80C021023
:102130003C3102101C0D0210200D02103C0D02104B
:102140005C0D02108C0D0210BC0D0210EC0D021083
:102150001C0E02104C0E02107C0E0210AC0E02106F
:10216000DC0E02100C0F02103C0F021070B5054679
:102170000C461646FFF7DCFA30B1012C08D0214698
:102180002846FFF7D9FC70BD044803F053FBFAE77B
:1021900031462846FFF7FAFEF5E700BF6C0F021044
:1021A00030B583B0044645886DBAADB2018849BAEE
:1021B00089B2374803F03EFB2946364803F03AFB24
:1021C000E188A38803F47F4202EB11225BBA9BB241
:1021D000FF2B2BD892B2B2F5805F2FD355BB2E4880
:1021E00003F028FB04F58054B4F8FC0FC0F305207D
:1021F0002A49B4F8FA2FC2F30522B4F8F83FC3F322
:102200000523B4F8F65FC5F305254D5D0095CB5C5D
:102210008A5C095C224803F00DFBB4F8FE1F49BA42
:1022200089B2204803F006FB03B030BD1E4803F01E
:1022300001FBD7E71D4803F0FDFAD3E7002DCED010
:1022400002F10043013B34F813305BBADBB20020EB
:102250003F2B0FD80F280DDC03F03F030F49C95C5B
:10226000134B19540130531E1B1A34F813305BBA48
:10227000DBB2EDE703F03F030849CB5C0C490B549C
:10228000013000230B540B4803F0D4FAAAE700BF37
:10229000A40F0210B80F021008100210C446031059
:1022A0006810021084100210CC0F0210E80F021008
:1022B000EC40002030100210F0B5C1B007462948AC
:1022C00003F0B8FA284803F0B5FA284803F0B2FA48
:1022D000002428E0103CA4B201AB5919244A10880C
:1022E000927858538A700235002608E0214901A8E7
:1022F00028440AF079FB01350134A4B201360F2ECF
:102300000ADC37F8142052BAD2B2A2F12003DBB2B1
:102310005E2BEBD92E22E9E701A9174803F08AFAD0
:10232000B4F5805F1BD200214FF0FF300CF09CFB16
:102330002246124901A80AF057FB00260A250F2E53
:10234000C8DC37F8142052BA92B20D4901A82844CB
:102350000AF04AFB05350134A4B20136EFE741B07B
:10236000F0BD00BF9C100210B41002101C1102102E
:1023700090110210B4F80110E81102108811021037
:102380009411021010B501EB810C01F0030149001A
:10239000C1F1080EFF2303FA01F2C1F10604234143
:1023A000CCF38F0C10F80C4022400A416044417875
:1023B0000B4003FA0EF39BB213FA82F080B210BD09
:1023C0002DE9F04782B0804690F8B89201465C480B
:1023D00003F030FA08F105015A4803F02BFA98F897
:1023E000B812594803F026FA002739E0574803F09D
:1023F00021FA04E0002E76D1554803F01BFA04F5CB
:10240000805494F8213494F8225405F03F052D01AE
:1024100005EB131505F03F054E4994F8202492086A
:1024200094F81F0400F03F0094F81D6494F81E34E3
:102430009B0003EB961303F03F03CB5C00930B5C14
:102440008A5C495D444803F0F5F994F8221494F845
:1024500023349B0003EB9111404803F0EBF9013763
:102460004F4569DA41F2444A0AFB078A0AF2D92445
:10247000224639463A4803F0DDF90AF2FD2A94F87B
:10248000253094F8266006F00F06B60106EB930699
:1024900094F8241003F0030301EB0321314803F007
:1024A000C9F93146304803F0C5F994F8273094F85B
:1024B0002850AD0005EB931594F8262003F03F0358
:1024C0001B0103EB1213DAB2120252FA85F5ADB218
:1024D000FF2B8BD8B5F5805F8CD3002E8CD0234892
:1024E00003F0A8F98BE7691E89B25046FFF74AFF4F
:1024F000C0B200260EE000F03F00164B1A5C1C4BE9
:102500009A550136A91B89B2013989B25046FFF7A5
:1025100039FFC0B23F2801D80F2EECDD00F03F009C
:102520000C4B1B5C12498B55013600238B552A46F8
:10253000104803F07FF962E702B0BDE8F08700BF02
:102540009C110210B0110210C4110210CC0F021025
:1025500008100210C4460310681002108410021004
:10256000D8110210A40F0210B80F0210E80F0210C9
:10257000EC400020EC1102102DE9F043C1B0804680
:10258000354917F0F3FE002861D1344803F052F9C1
:1025900041B0BDE8F08321463846FFF7F3FE02461E
:1025A0002F4901A828440AF01FFA05350134A4B2C6
:1025B00001360F2EEFDD103CA4B201AB5919294AA8
:1025C0001088927858538A700235002608E0264910
:1025D00001A828440AF008FA01350134A4B20136F2
:1025E0000F2E0BDC21463846FFF7CCFEC2B2A2F11B
:1025F0002003DBB25E2BEAD92E22E8E701A91B48B3
:1026000003F018F9B4F5805F0CD200214FF0FF30D1
:102610000CF02AFA2246164901A80AF0E5F900262C
:102620000A25C6E709F10109B9F1000FB0DC41F252
:10263000444707FB098707F2FD270E4803F0FAF825
:102640000D4803F0F7F80D4803F0F4F8DDE74FF01C
:1026500000094C46E8E700BF241202102C120210B9
:102660009411021090110210B4F80110E811021038
:10267000881102109C100210B41002101C110210DC
:1026800010B588B00138052806D8DFE800F0030748
:102690005D9194BA06F00AFE08B010BD0C460846DB
:1026A00018F056F80C2803D0584803F0C3F8F3E7A5
:1026B00003238DF80C302378303BDBB21B01DBB2F7
:1026C00062781344303B8DF81330A378303BDBB293
:1026D0001B01DBB2E2781344303B8DF812302379D2
:1026E000303BDBB21B01DBB262791344303B8DF827
:1026F000103000228DF81120A379303BDBB21B0192
:10270000DBB2E1790B44303B8DF80F30237A303B5C
:10271000DBB21B01DBB2617A0B44303B8DF80E302B
:10272000A37A303BDBB21B01DBB2E17A0B44303BD6
:102730008DF80D300092082303AA682134480BF06D
:10274000B0F8344803F076F803A806F039FE9DF897
:1027500012309DF814209DF815102F4803F06AF8E8
:102760009DF80F3003F07F039DF810209DF81110A5
:102770002A4803F05FF89DF80E10294803F05AF834
:102780009DF80E3013F0040F0AD1264803F052F8DA
:102790009DF90F30002B07DB234803F04BF87BE754
:1027A000224803F047F8F3E7214803F043F873E7C2
:1027B00006F0D8FD70E703A806F002FE0024132CF3
:1027C0000ADC04F120036B4413F8142C2146194849
:1027D00003F030F80134F2E79DF812309DF8142030
:1027E0009DF815100C4803F025F89DF80F3003F004
:1027F0007F039DF810209DF81110084803F01AF887
:102800004AE70D4803F016F846E700BF4C120210E5
:10281000943600208812021094120210B81202108E
:10282000DC120210EC120210181302100013021036
:102830004013021080130210941302102DE9F0418E
:1028400098B007460C46FDF783FF70B3002C54D0B8
:102850002046FEF73BF80546B0F1FF3F30D000F1CF
:10286000805404F580145A4802F0E4FF594802F0FD
:10287000E1FF214611F8012B236A606A019000955F
:10288000554803F035FE2378FBB17F2B21D0534808
:1028900002F0D0FF2378032B1FD0013BDBB2012BCA
:1028A00023D94F4802F0C6FF07E04E4802F0C2FFAE
:1028B0004FF440614C4802F0BDFF18B0BDE8F08114
:1028C00021464A4802F0B6FFF7E7494802F0B2FF56
:1028D000F3E7484802F0AEFFEFE7474C6019FFF717
:1028E0005FFC6019FFF7E8FCE7E7434C6019FFF76E
:1028F00067FD6019FFF740FEDFE7354802F09AFFF9
:10290000344802F097FF4FF00008454619E0C5F53E
:1029100040144146394802F08DFF2946384802F0FC
:1029200089FFA20A4FF44011364802F083FFC4E742
:102930002F4803F0DDFD294802F07CFF022F2AD04A
:10294000656AB5F5401FB8D200214FF0FF300CF09A
:102950008BF805F1805404F580142378FF2BD6D032
:1029600004AE626A02920195226A0092621C1A49C0
:1029700030460AF039F8304603F0BAFD08F101029A
:102980002378002BD4D07F2B01D09046D3E7194871
:1029900003F0AEFDCFE72278531EDBB2012B06D940
:1029A000032ACDD114482844FFF7FAFBC8E7124E9A
:1029B0002E443146144802F03DFF711D134802F0C9
:1029C00039FF96F8B812124802F034FFB8E700BF9A
:1029D000D01302107C080210C8080210186D0210F3
:1029E000E4070210DC0B0210180C0210B8130210DE
:1029F0001C14021034140210280010104814021085
:102A000080140210BC1402109C110210B0110210AC
:102A1000C41102102DE9F04FADB00378012B40F046
:102A2000CE82064690F8DB92B9F10A0F07D840F241
:102A30005C7323FA09F313F0010F40F0C6822024DF
:102A40002246002124A817F0A7F8224600211CA83E
:102A500017F0A2F82246002114A817F09DF822468C
:102A600000210CA817F098F82246002104A817F0BE
:102A700093F84FF00108B8F1030F00F3A28200258C
:102A800035E22F2A0CD03F2A40F03082013B2CAA9D
:102A900002EB830353F8402C013A43F8402C25E223
:102AA000013B2CAA02EB830353F8202C013A43F894
:102AB000202C1BE2013B2CAA02EB830353F8602C71
:102AC000013A43F8602C11E2013B2CAA02EB83038C
:102AD00053F8802C013A43F8802C07E2A37F002BA7
:102AE00000F0048294F81DA0BAF12F0F67D0BAF15C
:102AF0002F0F6ED0BAF13F0F75D0BAF13F0F7CD0D7
:102B0000BAF15F0F00F08380BAF15F0F00F08A80A6
:102B1000BAF14F0F00F09080BAF14F0F00F097809C
:102B2000BAF16F0F00F09D8003F1FF3B2CAB03EB7C
:102B30008B0353F8203C3BB12CAA02EB8B0252F8DA
:102B4000402C002A40F09A80002B40F0B2802CAB41
:102B500003EB8B0353F8403C002B40F0B6802CABCA
:102B600003EB8B0353F8803C3BB12CAA02EB8B02A6
:102B700052F8602C002A40F0B480002B40F0CB804B
:102B80002CAB03EB8B0353F8603C002B40F0CF8061
:102B90002CAB03EB8B0353F8A02C002A00F0F6803B
:102BA00053420827CDF800A0CDF804B09346CDF8E5
:102BB000088003951D4633463E461F46C5E05A1E13
:102BC0002CA901EB820252F8407C002F8FDD013FDF
:102BD00033E15A1E2CA901EB820252F8207C002F0F
:102BE00000F32B8186E75A1E2CA901EB820252F8D2
:102BF000207C002F81DD01371FE15A1E2CA901EB3B
:102C0000820252F8407C002F00F3178178E75A1EA9
:102C10002CA901EB820252F8807C002F7FF774AF61
:102C200001370AE15A1E2CA901EB820252F8607C9E
:102C3000002F00F302816BE75A1E2CA901EB8202E0
:102C400052F8607C002F7FF767AF013FF5E05A1E16
:102C50002CA901EB820252F8807C002F00F3ED805A
:102C60005EE7591E2CAA02EB810252F8A07C002FCD
:102C70007FF75AAF013742F8A07CDEE00827CDF895
:102C800000A000E001370E2F00F28D8094F81FA005
:102C9000524639466448FEF73EF90028F2D15246C2
:102CA000791C6148FEF737F90028EBD1DDF800A068
:102CB0007BE008270F2F78D8E27F39465A48FEF785
:102CC0002AF9002871D00137F4E708270F2F6CD8B4
:102CD000E27F39465448FEF71EF9002865D00137D7
:102CE000F4E70827CDF800A000E002370E2F6DD8DA
:102CF00094F81FA0524639464B48FEF70CF90028BD
:102D0000F3D15246791C4848FEF705F90028ECD16A
:102D1000DDF800A049E008270E2F46D8E27F3946AB
:102D20004148FEF7F8F800283FD00237F4E70827BB
:102D30000E2F3AD8E27F791C3B48FEF7ECF8A0B39F
:102D40000237F5E7AA4544D201360BF1100296424C
:102D500011D8B0464FF0000AB8F10F0FF2D8E27F59
:102D600041463148FEF7D7F80028EBD10AF1010AB5
:102D700008F10108F0E7DDF800A0DDF804B0DDF8A7
:102D80000880039D3B4637461E460EE0082700E0BC
:102D900001370F2F09D8E27F39462348FEF7BBF8E9
:102DA0000028F5D101E0DDF800A0BAF14F0F2DD0D9
:102DB0001AD8BAF12F0F23D0BAF13F0F3DD1013706
:102DC0002CAB03EB8B0343F8407C36E0DDF800A02E
:102DD000EBE7DDF800A0DDF804B0DDF80880039D26
:102DE0003B4637461E46E0E7BAF15F0F14D0BAF112
:102DF0006F0F22D12CAB03EB8B0343F8A07C1CE0BC
:102E00002CAB03EB8B0343F8207C16E02CAB03EBDD
:102E10008B0343F8807C10E001372CAB03EB8B0372
:102E200043F8607C09E000BFCC410020A37F002B69
:102E30005CD1677F1F2F00F0AB80032F40F2E98049
:102E400094F82130002B40F0B1804FF0130A94F831
:102E500022300BB14FF0000A3378012B00F0A9802B
:102E60000F2F00F2D98094F81FB05A4639466D48AA
:102E7000FEF751F8002840F0D28004F12401694A9D
:102E80000BEB4B0BF42307FB03F303EB0B1B9344FC
:102E9000CBF80410E17F06F16F4000F5700001EB04
:102EA000410103EB01115050E17F01EB410103EBC4
:102EB00001111144A1F808A0E17F01EB410103EBEE
:102EC0000111114400278F72E17F01EB410103EBF7
:102ED00001111144C862E17F01EB410103EB0110D4
:102EE00008301044711C023017F01EFB013596F8B3
:102EF000E032AB4260DD41F2444405FB04F404F2ED
:102F000001343444B8F1020F3FF4E8ADB8F1030FD7
:102F10008CD0B8F1010FE9D1627FA2F11003DBB2CE
:102F20000E2B55D96F2A56D8A37F082B56D8E17F90
:102F3000002956D0042957D894F82010082956D8CB
:102F400094F82110012955D894F82210012954D859
:102F500094F82310012953D80BB11F2A53D90BB968
:102F60001F2A53D8002BC1D04F2A3FF4ADAD7FF6B6
:102F700088AD5F2A3FF49EAD6F2AB7D1013B2CAAE2
:102F800002EB830353F8A02C013A43F8A02CADE7E1
:102F9000082700E001370F2F3FF64FAFE27F394699
:102FA0002048FDF7B8FF0028F4D146E74FF0000AAB
:102FB0004DE74AF0080A53E708F101085BE54FF0D6
:102FC000670948462DB0BDE8F08F4FF06909F8E772
:102FD0004FF06709F5E74FF06709F2E74FF067092F
:102FE000EFE74FF06709ECE74FF06709E9E74FF0CB
:102FF0006709E6E74FF06709E3E74FF06709E0E7A5
:103000004FF06709DDE74FF06709DAE74FF067092E
:10301000D7E74FF06A09D4E74FF06809D1E74FF0DE
:103020006809CEE7CC4100202DE9F04383B0064685
:103030000C4615461F46FEF77BFB002800F0078173
:103040008046731F012B40F2DF8005EB4502F4231D
:1030500004FB03F303EB0213AF4A13441B8913F081
:10306000010F0DD12146AC48FDF723FF70B9731E47
:10307000052B00F2EC80DFE803F00E395A7BC7C75E
:103080002A462146A54802F0D5FBE0E02146A448A7
:1030900002F0D0FBDBE0A04BF42202FB04331B8FD9
:1030A00013F0010F1DD19F4802F0C4FB9A4C40F26F
:1030B0001713A4F8E4360023C4F8DC36012584F89D
:1030C0009C57994BC4F8E0361F22984B196804F2BC
:1030D000E66016F05DFE2046FDF75AFF944B9D809A
:1030E000B5E02146934802F0A5FBB0E08A4BF422FC
:1030F00002FB04331B8F13F0010F13D18E4802F033
:1031000099FB854C8D4B009340F217130122062149
:103110002046FDF72BFE2046FDF73AFF844B0022A8
:103120001A8094E02146834802F084FB8FE07A4BBA
:10313000F42202FB04331B8F13F0010F13D18048DC
:1031400002F078FB744C7F4B009340F2171301227E
:1031500006212046FDF70AFE2046FDF719FF744BB5
:1031600001221A8073E02146724802F063FB6EE090
:103170003846FDF7ABFB8046B0F1FF3F26D02B462B
:1031800022463946704802F055FB08F1805606F594
:1031900080166E4802F04EFB6D4802F04BFB314644
:1031A00011F8012B336A706A0190CDF800806948EC
:1031B00002F040FB3378032B0DD03378013BDBB2B8
:1031C000012B44D8644802F035FB40E0394663489F
:1031D00002F030FB3BE0624F07EB0800FEF7E0FF38
:1031E00007EB080208F128015E4802F023FB4A4F72
:1031F000CDF8008017232A4621463846FDF78AFD80
:103200003846FDF7C5FED8E73846FDF75FFB0446B4
:10321000B0F1FF3F1ED000F1805505F580154B48F9
:1032200002F008FB4A4802F005FB294611F8012B81
:103230002B6A686A01900094464802F0FBFA2B78EA
:10324000032B0CD0012B4CD0022B00F0E28003B0FA
:10325000BDE8F0833946414802F0ECFAF7E7404D0B
:103260002819FEF79DFF2A1904F128013E4802F0B3
:10327000E1FA4FF00009082500E001350F2D12DCBE
:10328000B9F1000F0FD1244BF42202FB05331B8F41
:1032900013F0010FF1D129461F48FDF70AFE00285F
:1032A000EBD1C146EAE7B9F1000F12D03A46294600
:1032B0002E4802F0BFFA062E0FD0174E00941723A7
:1032C000012229463046FDF725FD3046FDF760FE18
:1032D000BDE7274802F0AEFAB9E7264802F0AAFA9D
:1032E000B5E7254802F0A6FA2846FFF793FB044607
:1032F00063285CDDA0F16503052B53D8DFE803F0FC
:10330000030742464A4E1D4802F094FA9FE71C48C4
:1033100002F090FA9BE700BFCC4100200C15021090
:1033200048150210B4150210DC9803104C58031015
:10333000988B002080150210DC150210DC78031039
:103340000C160210DC58031038160210D0130210AD
:103350007C080210C808021090160210B813021060
:103360002800101060160210E816021064170210F0
:103370002C17021080170210AC170210C017021091
:10338000E4170210254802F055FA60E7244802F0DD
:1033900051FA5CE7234802F04DFA58E7224802F060
:1033A00049FA54E70146214802F044FA4FE7204821
:1033B00002F040FA1F48FDF7EBFD072C24D801A3CB
:1033C00053F824F04F320010E53300100934001098
:1033D0000934001009340010FB33001009340010C8
:1033E000F3330010144802F025FA144B01221A801E
:1033F0002DE7134802F01EFA29E7124802F01AFAE4
:103400000E4B01229A8022E721460F4802F012FA61
:103410001DE70E4802F00EFA19E700BF0818021067
:10342000241802105418021074180210A418021064
:10343000C0180210CC410020E0180210988B002028
:10344000101902105C19021090190210CC19021008
:1034500070B506460C46FEF76BF9002800F0A78011
:10346000012E44D0022E4FD031465848FDF721FDA1
:10347000002874D1002C00F08D8004EB4402F4236A
:1034800006FB03F303EB0213504A13441B8913F0AA
:10349000010F00F08D80224631464C48FDF7B2FC0A
:1034A000224631464A4802F0C5F979E022462946CB
:1034B0004648FDF7A7FC0134042C13DC04EB44025E
:1034C000F42305FB03F303EB0213404A13441B8967
:1034D00013F0010FEFD029461046FDF7EAFC002853
:1034E000E9D1E3E701350F2D03DC3446E4E7042599
:1034F000F9E7384B00221A809A803448FDF748FDDE
:10350000354802F097F952E0344802F093F9042567
:1035100016E00134042C12DC04EB4402F42305FB16
:1035200003F303EB0213294A13441B8913F0010F21
:10353000EFD0224629462548FDF764FCE9E701352E
:103540000F2D01DC0124E5E7224B00221A809A802E
:103550001E48FDF71DFD224802F06CF927E03146B8
:10356000204802F067F922E00134042C14DC04EB5B
:103570004402F42306FB03F303EB0213134A134440
:103580001B8913F0010FEFD0224631460F48FDF79B
:1035900039FCE9E70124E8E73146134802F04AF92B
:1035A000062E0BD0072E0DD00848FDF7F1FC70BD9C
:1035B000224631460D4802F03DF9F8E7054B00225E
:1035C0001A80F1E7034B00229A80EDE7CC410020FE
:1035D000041B0210988B0020081A02103C1A0210DB
:1035E000741A0210A81A0210E41A0210201B02100A
:1035F0002DE9F041ACB006460F46904620AC934D05
:103600000FCD0FC40FCD0FC495E80F0007C4238062
:1036100018AC8F4D0FCD0FC495E80F0084E80F0054
:103620000DF1280C8B4C0FCCACE80F000FCCACE8A4
:103630000F000FCCACE80F0094E803004CF8040B2B
:103640008CF8001003AC844D0FCD0FC495E8070033
:1036500003C42270FEF76CF8002849D0062E10D063
:103660007E4BF42202FB07331B8F13F0010F0FD1A7
:10367000013E052E00F2E680DFE806F00F0F426BF8
:1036800094CA3B1F0B2BEBD9754802F0D3F82FE0FF
:103690003946744802F0CEF82AE005216F48FDF75C
:1036A00008FC40BB6D4C8023A4F8FC340026C4F811
:1036B000F464012384F8B4356B4BC4F8F83404F295
:1036C000FE451F226949284616F062FB84F81D65F5
:1036D0000DF160081F224146284616F059FB0527C8
:1036E0005E48FDF755FC42463946614802F0A2F8B3
:1036F0002CB0BDE8F08139465E4802F09BF8D1E776
:1037000005215648FDF7D5FBF0B9544C8023A4F8A9
:10371000F0350026C4F8E865012384F8A836524B3A
:10372000C4F8EC3504F2F2551F225049284616F031
:103730002FFB84F811660DF128081F224146284608
:1037400016F026FB0627CBE739464B4802F072F805
:10375000DBE707214148FDF7ACFBF0B93F4C802384
:10376000A4F8E4360026C4F8DC66012384F89C370C
:103770003D4BC4F8E03604F2E6651F223B4928467B
:1037800016F006FB84F805670DF10C081F22414670
:10379000284616F0FDFA0727A2E73946374802F017
:1037A00049F8DBE74FB339462C48FDF782FB50B3AD
:1037B0002A4C012239462046FDF724FB00223946D7
:1037C0002046FDF71FFB39462D4802F033F88FE7FE
:1037D00001340F2C13DC21462048FDF76AFB00283A
:1037E000F6D01E4D012221462846FDF70BFB002294
:1037F00021462846FDF706FBEAE70424E9E72148CD
:1038000002F018F874E739461F4802F013F86FE722
:1038100039461248FDF74DFB78B9104C0023009350
:103820008023012239462046FDF774FA43460122DF
:1038300039462046FDF716FB52E73946134801F09A
:10384000F9FF55E7124801F0F5FF51E75C1D021042
:103850008C1D0210AC1D0210E41D0210CC41002092
:10386000441B0210681B02102800101001001010E9
:10387000401D02109C1B0210E01B0210241C0210B1
:103880008C1C0210681C0210B01C0210DC1C021000
:10389000201D02102DE9F047D0B00546E0B10F46DB
:1038A00001EB4102F42300FB03F303EB0213BC4AD8
:1038B00013441B8913F0010F00F04F810146B848F3
:1038C000FDF7CAFBB74801F0B5FF2D03AEB206F510
:1038D00080581FFA88F8A0E1B34801F0ABFFB34865
:1038E00001F0A8FFB24801F0A5FF2E461FE004EB4F
:1038F0004403F42206FB02F202EB0312A84B13442A
:103900000B449A7A46AB5A5401311F29EFDD04EB80
:103910004404F42306FB03F303EB0413A04A1A4404
:1039200046AB12893146A34801F084FF01360F2EC1
:1039300000F318810124042CF8DC31469848FDF787
:10394000B8FA18B1012C01D12946DEE704EB440294
:10395000F42306FB03F303EB0213914A13441B8980
:1039600013F0010F2FD013F4807F2ED040F0918000
:1039700022463146904801F05DFF0134DBE704EB5D
:103980004403F42206FB02F202EB0312844B1344BD
:103990000B449A7A46AB5A5401311F29EFDD012CB2
:1039A000EBD104EB4402F42306FB03F303EB021315
:1039B0007B4A13441B8946AA0092224631467F481F
:1039C00001F038FFD9E72946E7E74EAB22463146FA
:1039D0007348FDF7F5FA4FEA0639012C2BD01FFA90
:1039E00089F9E3B2DFF8B8811F461A4649464046D6
:1039F0001BF0D2FD824609F101013A4689B24046E8
:103A00001BF0CAFD04EB4402F42306FB03F303EBB3
:103A1000021308EB0302118908334344023352684E
:103A200003920293019100904EAB524621466448A6
:103A300001F000FFA1E71FFA89F9E3B2DFF8608126
:103A40001F461A46494640461BF0A6FD824609F12C
:103A500001013A4689B240461BF09EFD04EB440248
:103A6000F42306FB03F303EB021308EB03021189B3
:103A70000833434402335268049203930291019045
:103A80004EAB00935346224631464E4801F0D2FEDB
:103A900073E74FEA06394EAB224631464048FDF700
:103AA0008FFA012C2BD01FFA89F9E3B2DFF8F080EE
:103AB0001F461A46494640461BF06EFD824609F1F4
:103AC00001013A4689B240461BF066FD04EB440210
:103AD000F42306FB03F303EB021308EB0302118943
:103AE00008334344023352680392029301910090D9
:103AF0004EAB52462146344801F09CFE3DE71FFA8A
:103B000089F9E3B2DFF898801F461A4649464046D5
:103B10001BF042FD824609F101013A4689B2404656
:103B20001BF03AFD04EB4402F42306FB03F303EB22
:103B3000021308EB0302118908334344023352682D
:103B400004920393029101904EAB00935346224698
:103B500031461E4801F06EFE0FE70A4601461C483A
:103B600001F068FE50B0BDE8F0877119FAB289B271
:103B70000B481BF011FD0246164907A8204408F027
:103B800033FF044401350F2DEFDD07AB1919124A3D
:103B90001088927818538A700234002525E000BFFF
:103BA000CC4100203C310210001E0210141E0210F5
:103BB0004C1E0210941E0210941F0210D41E0210FC
:103BC000541F0210141F021020200210E01F0210C8
:103BD000602002108420021090110210134907A8DF
:103BE000204408F001FF013401350F2D0DDC71195F
:103BF000FAB289B20E481BF0CFFCC2B2A2F1200388
:103C0000DBB25E2BEAD92E22E8E71036B6B207A95E
:103C1000084801F00FFEB045A4D93246064907A86E
:103C200008F0E2FE00250A24ADE700BFB4F8011059
:103C3000CC410020E81102108811021070B5044632
:103C40000E46FDF775FD00283BD00546601E032893
:103C500034D8DFE800F0023B4C5D554801F0EAFD46
:103C6000544B9B880BB1544900E05449544801F02F
:103C7000E1FD504B1B880BB14F4900E04F495148C3
:103C800001F0D8FD0424002100E001340F2C14DCE5
:103C90004D4BF42202FB04331B8F13F0010FF4D0C1
:103CA000494B02FB043393F9F030002BEDDA214647
:103CB000464801F0BFFD2946E7E719B13D48FCF74A
:103CC0001DFB70BD424801F0B5FDF7E7394B9B88FD
:103CD00033B9384B01229A803E4801F0ABFDEDE745
:103CE000344B00229A803C4801F0A4FDE6E7314BBA
:103CF0001B8833B92F4B01221A80384801F09AFDF6
:103D0000DCE72C4B00221A80354801F093FDD5E703
:103D10002D4BF42202FB06331B8F13F0010F24D02E
:103D2000294BF42202FB063393F9F030002B21DB00
:103D300006F0FE01244CF42303FB014090F8F02030
:103D400062F07F0280F8F02001FB0333234493F8F4
:103D5000F02062F07F0283F8F0204A1C214801F035
:103D600069FD2046FDF714F9A8E731461E4801F029
:103D700061FDA6E706F0FE01134C134602FB01406D
:103D800090F8F02002F07F0280F8F02001FB03336E
:103D9000234493F8F02002F07F0283F8F0204A1CBD
:103DA000124801F047FD2046FDF7F2F886E700BF14
:103DB0008C200210988B0020AC370210C02102101A
:103DC000A0200210BC200210CC410020D8200210FC
:103DD00010210210482102106421021080210210DB
:103DE000A42102104C220210CC2102100822021041
:103DF00070B582B00546FCF769FDB0F1FF3F28D0F1
:103E00000446FDF795FC48B304F1805606F580168C
:103E10002946184801F00EFD174801F00BFD174820
:103E200001F008FD164801F005FD314611F8012B9F
:103E3000336A706A01900094124801F0FBFC002183
:103E40002046FCF763FD78B129460F4801F0F2FCEB
:103E500008E029460D4801F0EDFC03E029460C4836
:103E600001F0E8FC02B070BD29460A4801F0E2FC0E
:103E7000F8E700BFB8220210D8220210D0130210B7
:103E80007C080210C80802100C230210B81302109C
:103E9000902202102C23021010B509281FD00446CE
:103EA0000A281ED0A44B1B8873B3013C072C15D8DD
:103EB000DFE814F02E00C400DC00EB00FA0007017C
:103EC00024013901E0B204F0ABFA01345A2CF9DDD7
:103ED000002004F0A5FAE02004F0A2FA10BD41246D
:103EE000F4E701F075FA0A2006F05AFB4FF0504350
:103EF0005B6813F0080F05D0904A0321904801F049
:103F000099FCEBE78F4AF8E78F4801F093FCCCE788
:103F1000894BB3F8A6306BB188498C4801F08AFC14
:103F2000854BB3F8A030032B00F28280DFE803F06A
:103F30000474787C8349F0E7854801F07BFC854B6D
:103F40001B78002B78D08449844801F073FC844CA2
:103F50002188844801F06EFC2188C90B824801F059
:103F600069FC2188C1F38031804801F063FC21881D
:103F7000C1F340317E4801F05DFC2188C1F300317E
:103F80007C4801F057FC2188C1F3C0217A4801F038
:103F900051FC2188C1F38021784801F04BFC218835
:103FA000C1F34021764801F045FC2188C1F300218E
:103FB000744801F03FFC2188C1F3C011724801F040
:103FC00039FC2188C1F38011704801F033FC21884D
:103FD000C1F340116E4801F02DFC2188C1F300119E
:103FE0006C4801F027FC2188C1F3C0016A4801F048
:103FF00021FC2188C1F38001684801F01BFC218865
:10400000C1F34001664801F015FC218801F001016F
:10401000644801F00FFC61E7634801F00BFC8EE798
:10402000624801F007FC8AE7614801F003FC86E77B
:10403000604801F0FFFB82E75F4985E73E4BB3F83C
:10404000A63063B13C4B0022A3F8A6203A4BB3F84C
:10405000A6304BB139493D4801F0ECFB3EE7364B09
:104060000122A3F8A620F1E73649F4E73C4A138879
:104070006FEA43436FEA534313802F4B0222A3F8A6
:10408000A0204E4801F0D6FB28E7354A1388C3F339
:104090000D0343F480431380274B0122A3F8A02093
:1040A000474801F0C7FB19E72D4A1388C3F30D03F6
:1040B0001380214B0022A3F8A020424801F0BAFB54
:1040C0000CE7274A138883F400639BB213801A4AD3
:1040D000B2F8A4205AB1184A0021A2F8A41013F48F
:1040E000006F09D01C49384801F0A4FBF6E6124ADB
:1040F0000121A2F8A410F2E72F49F4E70E4B1B8828
:104100001BB9324801F096FBE8E6154A138843F4E0
:10411000005313802E4B02221A6001F07FF92D48C4
:1041200001F088FBDAE6044B1B88002B54D12748AA
:1041300001F080FBD2E600BF988B002050230210D4
:10414000582302105423021074230210D0230210AB
:10415000E42302105A910020A836021060240210B5
:1041600060320020742402108C240210C02402103B
:10417000102502104025021078250210A4250210F7
:10418000D0250210F425021020260210502602101D
:1041900094260210C4260210F826021028270210C6
:1041A000582702108C270210FC230210142402103E
:1041B0002C24021044240210C0F80110C027021061
:1041C000DC270210F82702101428021038280210E9
:1041D000A890002068280210064A138843F48053F0
:1041E0001380054B02221A6001F018F9034801F010
:1041F00021FB73E660320020A89000208428021082
:1042000010B584B00446FDF793FA80B1601E0B2808
:104210000DD8DFE800F0060E32560C0C0C0C0C6EBC
:10422000757C414BB3F87810404801F003FB04B0B3
:1042300010BD3F4801F0FEFA3B4BB3F878103B4805
:1042400001F0F8FA002400E00134B4F5007FEEDA62
:1042500004F57052082300936B44D20005213548C1
:104260001BF08EF9029A039B52EA0301ECD004F58D
:104270000071314801F0DEFAE6E729A3D3E9002313
:10428000CDE90223002412E0029B13F10133039ACB
:1042900042F101320293039204F570520823009315
:1042A0006B44D200052123481BF092F90134B4F588
:1042B000007FE9DB214801F0BDFA214801F0BAFA9C
:1042C000B5E700220023CDE9022300240AE004F52B
:1042D0007052082300936B44D200052115481BF04F
:1042E00077F90134B4F5007FF1DB164801F0A2FA4A
:1042F0009DE70D480023A0F87830FBF7FFFF96E715
:1043000009480123A0F87830FBF7F8FF8FE706484B
:104310000223A0F87830FBF7F1FF88E7AFF30080C5
:104320004140414041404140988B0020A02802106C
:10433000BC28021000000840F028021004290210D6
:10434000382902105429021038B50C4601380A28C1
:1043500055D8DFE810F00B0063008A00AC00BA000B
:10436000CA00DA00EA00FA000A0118018C4DB5F81B
:1043700054102C2404FB01F2920A8A4801F05AFAE4
:10438000B5F8561004FB01F2920A874801F052FA80
:10439000AB8F002B34D08549854801F04BFA804B18
:1043A000B3F85030002B2DD08049824801F042FAFA
:1043B0007B4BB3F846303BB37C497F4801F03AFA77
:1043C000774BB3F852300BB378497C4801F032FA9E
:1043D000734BB3F86630DBB17449794801F02AFABF
:1043E0006F4BB3F86830ABB17049764801F022FAF0
:1043F0006B4BDB8F83B16D49734801F01BFA38BDFD
:104400007249C9E77149D0E77049D6E76F49DCE7DF
:104410006E49E2E76D49E8E76C49EDE7FDF788F999
:10442000D8B15F4BB3F854102C2201FB02F268485C
:1044300001F000FA002CE2DDA4F57A7242F2283392
:104440009A420ED8564DA5F854402146614801F0D5
:10445000F1F92846FBF752FFD1E75F4801F0EAF98E
:10446000CDE75E4801F0E6F9C9E7FDF761F9B0B1C3
:104470004B4BB3F856102C2201FB02F2584801F0C6
:10448000D9F9002CBBDDA4F12003E02B0BD8444B61
:10449000A3F856402146534801F0CCF9AFE74E4807
:1044A00001F0C8F9ABE7504801F0C4F9A7E73C4A6E
:1044B000938FB3FA83F35B09938723B13B494B484E
:1044C00001F0B8F99BE74149F9E7354AB2F85030B5
:1044D000B3FA83F35B09A2F8503023B1334944485F
:1044E00001F0A8F98BE73949F9E72D4AB2F84630CF
:1044F000B3FA83F35B09A2F8463023B12B493D4858
:1045000001F098F97BE73149F9E7254AB2F85230D2
:10451000B3FA83F35B09A2F8523023B1234936483A
:1045200001F088F96BE72949F9E71D4AB2F86630CE
:10453000B3FA83F35B09A2F8663023B11B492F4815
:1045400001F078F95BE72149F9E7154AB2F86830DC
:10455000B3FA83F35B09A2F8683023B11349284802
:1045600001F068F94BE71949F9E70D4AD38FB3FA1F
:1045700083F35B09D38723B10C49224801F05AF930
:104580003DE71249F9E7FDF7D3F800283FF437AFCC
:104590000348FBF7B3FE1C4801F04CF92FE700BFBE
:1045A000988B002080290210B4290210B834021020
:1045B000E8290210082A02104C2A0210782A021058
:1045C000A02A0210C02A0210E02A0210C021021004
:1045D0003C2B0210A02B0210002B0210682B0210A3
:1045E000F42B02105C2C0210242C0210842C0210DC
:1045F000A02C0210E02C0210082D02102C2D02100D
:10460000482D0210642D0210802D02102DE9F0417A
:10461000BAB004460D4600201AF0E2FF06469F237A
:104620001F936022002120A815F0B6FA06AF4FF0C4
:10463000640842460021384615F0AEFA4246394633
:104640001FA81AF079FF9DF81B30012101FA03F72A
:10465000FDF76EF8002832D0631E042B2FD8DFE858
:1046600003F003364D50760038A808F0B5FD9DF8EC
:10467000E3309DF8E4209DF8E5109DF8E6009DF8F4
:10468000E740049403900291019200939DF8E23078
:104690009DF8E1209DF8E010384801F0CBF8314654
:1046A000374801F0C7F80421364801F0C3F83A460C
:1046B000002F07DB12153946334801F0BBF83AB03A
:1046C000BDE8F08107F57F2202F6FF72F2E72F4B7B
:1046D0009D420DD005F580532D4A13602C4B1A686E
:1046E00029462C4801F0A6F82846FCF73BF8E6E7F7
:1046F000274B1D6805F580521A60EFE7FBF7EAFFCC
:10470000DDE7254801F096F84FF47A7400214FF068
:10471000FF300AF0A9F9022005F042FF002002F064
:1047200068FF68B9013CF1D11C4801F083F8FBF740
:104730008FFF1B4801F07EF81A4801F07BF8BEE7B6
:10474000002002F05BFF184801F074F8B7E70F4B48
:104750009D420DD005F58053144A1360134B1A681F
:104760002946134801F066F8284600F0C1FFA6E785
:104770000E4B1D6805F580521A60EFE7A02D021060
:10478000D42D0210FC2D0210302E02104342414065
:104790008C8B00206C2E0210A82E0210042F021009
:1047A0001C2F0210382F0210F02E0210908B0020C8
:1047B0007C2F021030B585B004460D46FCF7B8FFDB
:1047C000E8B1601E03281AD8DFE800F0021B324B64
:1047D00002A800F0DFFF9DF80B3000939DF80A302F
:1047E0009DF809209DF808102F4801F023F89DF846
:1047F0000A10C1F38201CA012C4801F01BF805B070
:1048000030BD2B4B9D420DD005F58053294A1360D6
:10481000284B1A682946284801F00CF8284600F071
:1048200067FFECE7234B1D6805F580521A60EFE740
:10483000224800F0FFFF002000F036FF014620482C
:1048400000F0F8FF002000F02FFF44F241039842EF
:1048500003D01C48FCF77CFBD1E71B4800F0EAFFC3
:10486000CDE71A4800F0E6FF4FF47A7400214FF0CC
:10487000FF300AF0F9F8022005F092FE002002F065
:10488000B8FE50B9013CF1D1114800F0D3FF00F05F
:1048900091FF104800F0CEFFB1E7002002F0AEFE1D
:1048A0000D4800F0C7FFAAE7B82F0210E02F021052
:1048B00043424140908B00207C2F021004300210B4
:1048C00028300210CC410020403002106C30021021
:1048D000C0300210D8300210A830021010B50446C3
:1048E0000146084808F0EAFAA4F13003092B02D87F
:1048F0001C46054B1C60044B1968044808F0DEFA9E
:1049000010BD00BFE8300210083200201431021040
:1049100070B582B004465E4808F0D0FA5D4B0922BB
:104920001A70032C00F2AF80DFE804F002182E7436
:104930000026ADF806600DF10605574C29462046C5
:1049400005F0F2FFADF806602946204605F0ECFFC1
:1049500000F0D8FD00F062FD02B070BDE023ADF8BC
:1049600006300DF106054C4C2946204605F0DCFFCB
:104970008623ADF806302946204605F0D5FF00F025
:10498000C1FD00F04BFDE7E7B623ADF806300DF1B1
:104990000605414C2946204605F0C6FF1023ADF818
:1049A00006302946204605F0BFFF0123ADF806304A
:1049B0002946204605F0B8FFC623ADF80630294643
:1049C000204605F0B1FF0026ADF8066029462046D6
:1049D00005F0AAFFF223ADF806302946204605F07F
:1049E000A3FFADF806602946204605F09DFF5A2337
:1049F000ADF806302946204605F096FF9123ADF824
:104A000006302946204605F08FFF00F07BFD00F0C0
:104A100005FDA1E73E23ADF806300DF106051E4C5D
:104A20002946204605F080FF1123ADF806302946BF
:104A3000204605F079FF1023ADF8063029462046C0
:104A400005F072FF7523ADF806302946204605F0C3
:104A50006BFFC023ADF806302946204605F064FF01
:104A60000123ADF806302946204605F05DFF2F23CF
:104A7000ADF806302946204605F056FF00F042FD0D
:104A800000F0CCFC68E700F03DFD00F0C7FC63E7F8
:104A9000383102106B9100207452002038B500208C
:104AA00008F0A6F910F1020F4ED004462D4B1B78EA
:104AB000002B4AD01B2807D0043B052B44D8DFE845
:104AC00003F01F432C2E4321264B00221A70264848
:104AD00008F0C5F938E00135012D35DC05EB45035B
:104AE000224A12F82330A342F5D105EB45021F4BB1
:104AF00003EB82035B6898471A4B00221A70EAE7BF
:104B00000025E9E7A0F13003082B1DD81846FFF770
:104B1000FFFE144B00221A7016E046280AD0A4F1BA
:104B20003003092B10D82046FFF7D8FE0D4B00228A
:104B30001A7009E00B4B00221A70F0E703EB4303F5
:104B400001EB83035B68984738BD00230B2BFBDC2C
:104B500003EB4302064911F82220A242EED00133B2
:104B6000F4E700BF6B91002040310210603100205B
:104B70007831002003460268EFF3108172B6D2E864
:104B8000CFCF0120BCF1000FF9D1C2E84C0FBCF12E
:104B9000000FF4D1BFF35F8F18895A89801A02D5AC
:104BA000DA890132104400221B68C3E88F2F81F399
:104BB0001088704708B53C4808F051F93B4B3C4A17
:104BC000196812683B4808F079F93B4B3B4A196871
:104BD00012683B4808F072F93A4B3B4A1968126870
:104BE0003A4808F06BF93A4B3A4A196812683A4861
:104BF00008F064F90A2008F023F9384B384A19689C
:104C00001268384808F05AF9374B384A1968126860
:104C1000374808F053F9374B374A19681268374854
:104C200008F04CF9364B374A19681268364808F0D4
:104C300045F9364808F013F9002002F074FC28B357
:104C40003349344808F03AF9042002F06CFC48B3C8
:104C50002F49314808F032F9022002F064FCF8B123
:104C60002B492E4808F02AF9012002F05CFCA8B17B
:104C700027492B4808F022F9032002F054FC38B1F0
:104C8000BDE808402249274808F018B92649D8E766
:104C900025492448BDE8084008F010B92249E8E752
:104CA0002149DEE72049D4E7A03A02104C32002027
:104CB00050320020D43A0210443200204832002002
:104CC000FC3A02101432002018320020243B02105B
:104CD0003C320020403200204C3B02103432002095
:104CE00038320020743B02102C3200203032002079
:104CF0009C3B02101C32002020320020C43B0210DA
:104D00002432002028320020EC3B0210448902109B
:104D1000CC000210143C0210303C02104C3C02103B
:104D2000683C0210843C0210D000021008B51E48F6
:104D300000F080FD1D4B1E4A196812681D4800F0E6
:104D400079FD1D4B1D4A196812681D4800F072FD5F
:104D50001C4B1D4A196812681C4800F06BFD1C4B67
:104D60001C4A196812681C4800F064FD1B4B1C4A61
:104D7000196812681B4800F05DFD1B4B1B4A19683F
:104D800012681B4800F056FD1A4B1B4A196812683E
:104D90001A4800F04FFD1A4B1A4A196812681A484F
:104DA000BDE8084000F046BDA03C02104C32002097
:104DB00050320020D43C02104432002048320020FF
:104DC000F83C021014320020183200201C3D021062
:104DD0003C32002040320020403D0210343200209E
:104DE00038320020643D02102C3200203032002086
:104DF000883D02101C32002020320020AC3D021001
:104E00002432002028320020D03D02102DE9F04F3E
:104E1000CC4E89B00121306808F0BEFA0346CA4F73
:104E2000CA4930683B6008F0D3FADFF88483012177
:104E3000C8F80000306808F0AFFADFF878B3C4496A
:104E4000CBF80000306808F0C3FADFF86C9301215A
:104E5000C9F80000306808F09FFABE4BD9F800206E
:104E60001860BD4B012130681A6008F095FABB4A02
:104E7000BB491060306808F0ABFABA4DBA49BB4C78
:104E800008600121286808F087FAB949206028687D
:104E900008F09EFAB74A01211060286808F07CFAF1
:104EA000B549B64C0860B649286808F091FA012166
:104EB0002060286808F070FAB24AB3491060286888
:104EC00008F086FAB149B24C08600121286808F060
:104ED00063FAB0492060286808F07AFA4FF480330A
:104EE0000124D8F800A0AC4A04930AF1140310601E
:104EF0001B030AEB040243EAC2133F6823F0C043DA
:104F00000094D6F800800593A44AA54B3946CDE914
:104F10000632404602231A2208F08EFA08F12F4189
:104F200001F56001090D0631C9B21A20039104F0A0
:104F3000C3FA03991B2004F0BFFA0DF1100C52467E
:104F400063463946404608F0C6FA4FF4502A4FF4FB
:104F500000234FF42020D8F80010D9F8002004FADC
:104F600007F70F43DBF800B0C8F80070CDE906A3DF
:104F7000131D11191B0343EAC113376823F0F853BB
:104F80000DF1100C43F0D053594604900593384668
:104F9000634608F0A0FA396804FA0BFB6D4B4BEA44
:104FA0000101D9F80020D3F8008039604FF4803136
:104FB0004FF42020131D07911B03111943EAC1135D
:104FC000D6F800B023F0F8530DF1100C43F0D05395
:104FD00041460490059358466346CDF818A0624FA9
:104FE00008F079FAD6F800A05C4ED7F80090376840
:104FF0000026DBF8003004FA08F848EA03034FF40F
:105000008031CBF8003007964FF440264FEA093341
:1050100043EAC9131C2200940491059339462346A0
:105020005046069608F008FA1C205E4E069B0AF1D0
:105030002F41334043F0005343F420230693079B52
:1050400001F5600123F07C7323F01F03090D43F485
:10505000801306310343C9B2079304F02DFA4FF4CD
:1050600020200DF1100C63464A4639460490504604
:1050700008F031FA3D4B3F48D3F80090DAF80030A1
:1050800004FA07F71F43D0F800804FF48031CAF8C4
:1050900000704FF440234FF000570094CDE90637DD
:1050A00004914FEAC81308F10B01D5F800A043EAB8
:1050B000013323F0C043494605931222234650464C
:1050C00008F0BAF92346494600941322504608F0E6
:1050D000B3F94FF420220492069A0AF12F4132408C
:1050E00001F5600142F400222F4F06924FEA115B56
:1050F000079A2E4B0BF1060B3A405FFA8BFB1343DA
:1051000059461220079304F0D7F95946132004F0AA
:10511000D3F90DF1100C634642464946504608F05B
:10512000DAF9164B04FA09F9D3F800B0DAF80030CE
:10513000114849EA0303D0F800804FF48031CAF8DF
:1051400000303BE0583200204C32002030B20210D8
:105150001CB2021014320020183200203C32002011
:1051600010B20210543200204032002034320020AD
:10517000F0B10210383200202C32002030320020F2
:10518000DCB102101C320020B0B10210203200202D
:1051900024320020C8B102102832002000680740E5
:1051A0000000DD01FFFFF5C1E0830FFC124C100091
:1051B0005032002044320020483200204FF000508E
:1051C0004FF440230094CDE9063004914FEACB130D
:1051D0000BF10401D5F8009043EA013323F0C043FA
:1051E0004146059314222346484608F025F92346F4
:1051F000414600941522484608F01EF94FF420223B
:1052000014200492079A6A4B3A4013430793059B74
:1052100009F12F4123F0F85301F5600143F0D05319
:1052200021FA00FA0593069B0AF1060A5FFA8AFA48
:10523000334043F420235146069304F03DF9514690
:10524000152004F039F90DF1100C63465A46414619
:105250004846584F08F03FF9D9F80030D7F800A079
:1052600004FA08F8544F48EA03033F68C9F80030CD
:105270004FF440234FF480314FF0005006930AF171
:105280000703009404911B030AF10201D5F8008082
:1052900043EAC11323F0C043032239460790059324
:1052A0004046234608F0C8F8444B08F12F410493C8
:1052B000069B01F56001334043F0705343F4003323
:1052C0000693079B090D063123F4F84343F440632A
:1052D0000320C9B2079304F0EFF80DF1100C6346F8
:1052E00039460AF10302404608F0F5F8D8F80030D4
:1052F000334804FA07F71F434FF480314FF440233B
:10530000D0F800902F482D68D0F800A0C8F80070A1
:1053100000270491069309F104014FEAC91343EAF7
:1053200001330094514605931622234628460797D9
:1053300008F082F84FF42022079B05F12F4123F05B
:105340007C7323F01F0343F4801343F01603079389
:10535000059B01F5600123F0F85343F0D05305930A
:10536000069B090D3340063113431620C9B204923F
:10537000069304F0A1F84A46514604AB284608F0CB
:10538000AAF843F2FF73104A1049108804FA0AF48D
:10539000034028680443B1F8A000B1F8A41043EA20
:1053A000803343EA81232C60138009B0BDE8F08F7D
:1053B00014541000203200201C3200200000AC07E2
:1053C000283200202432002060320020988B0020F8
:1053D0004FF050400B4A0C4B40680C491B68126858
:1053E0000007096848BF033302EB420203F01F03C2
:1053F00001EBC201C1F8D8304FF050435868C0F3F8
:10540000C00070471C32002020320020543200209F
:10541000014B1868704700BF408B0020F8B54FF073
:1054200050435B689B0336D401211B4E1B4C1C4D23
:10543000376820682A6800F1050C07EB47030CF079
:105440001F0C02EBC303C3F8D8C007F11003994047
:105450004FEA470C53680B42FCD1012108300CEB9A
:10546000070300F01F0002EBC30340F48050043731
:1054700042F82710C3F8D8000021142005F084F961
:1054800033682A68216803EB430301F01F0102EB34
:10549000C303C3F8D810F8BD3432002038320020DE
:1054A000543200204EF220000849094B094A09688D
:1054B0001B68126801EB4101063302EBC10203F0E5
:1054C0001F03C2F8D800C2F8D83070471C32002041
:1054D000203200205432002001220849084B10B429
:1054E0000C68196804F110039A404B681342FCD110
:1054F000043441F824005DF8044B70471C3200204E
:10550000543200200120044A04491368087043F013
:1055100007031360704700BF808B00206A91002052
:105520000022034BC3E90022C3E90222704700BFF7
:10553000048400202DE9F0474FF050463D4B86B0E3
:1055400093E8070006AB03E9070073683A4C9A0337
:1055500025780BD4736813F4004F14BF0123022382
:105560009D42237006D106B0BDE8F08700239D421E
:105570002370F8D005F000F903460A462F4F304E4D
:105580003968D7F804C0581AC7E9003262EB0C0139
:105590003360726000232B4A19F0EEFF4FF00009D0
:1055A00019462378284E0DEB8303D3F80CA00DEB9E
:1055B0008503DB680746C6F80090104601934FF458
:1055C0007A72002319F0D8FFDFF88C803B460090F8
:1055D000524640461D4907F007FA336803443360DA
:1055E00003EB080015BB1A4B1A491A6807F0FCF9BF
:1055F000336803441848336007F031FC2378002BEC
:10560000B1D0164B1A78002AADD000214FF050428D
:10561000197053689B03A6D44FF4746410220521BB
:105620000F4B1048009419F0D3FF9CE708F8039043
:105630003368DFE764B2021054910020683F002015
:10564000603F002040420F00C8410020243E02106D
:10565000408B00205C3E021000410020529100204F
:10566000CC4100200000084008B50D490D4807F066
:10567000DFFF0121042003F01FFF0121062003F0BA
:105680001BFF0121072003F017FF052003F0C7FFD0
:1056900005234FF0010242EC403042EC443008BD9B
:1056A000005A62020000084000B585B0024600239F
:1056B000ADF80E30022300930DF10E0305210448CE
:1056C00019F05EFFBDF80E0005B05DF804FB00BFE9
:1056D0000000084000B583B00B4600920246052149
:1056E000024819F075FF03B05DF804FB00000840A4
:1056F000F0B5C7B0064600F5805722E007AB591950
:105700001E4A1088927858538A700235002406E0A9
:105710001B4907A8284407F067F9013501340F2C0D
:1057200008DC03AB1A5DA2F12003DBB25E2BEFD9DC
:105730002E22EDE7103607A9124800F07BF8B74299
:105740001AD93246104907A807F04EF9054610232A
:10575000009303AB324605210C4819F011FF0024D9
:105760000F2CCBDC03AB1A5D094907A8284407F0CE
:105770003BF903350134F3E747B0F0BD9011021057
:10578000B4F80110E81102106C3E0210000008404D
:10579000E412021000B583B00346042200920022F6
:1057A0000521034819F0D8FE03B05DF804FB00BFE3
:1057B0000000084010B5C0B04FF480720021684668
:1057C00014F0EAF9002407E04FF48072694620469D
:1057D000FFF780FF04F58074B4F5802FF4D30248FE
:1057E00000F028F840B010BD743E021008B508461D
:1057F000012101F0BDFB10B1FCF72CF908BD0248F6
:10580000FCF728F9FAE700BFB46C021008B50020D5
:1058100001F0ABFE002001F081FE00214FF0FF30CF
:1058200009F022F908BD0000014B1868704700BF5D
:10583000348500200FB400B5FFB080AB53F8042BC3
:1058400000934FF4FA7101A807F0F8F800280FDB75
:10585000FFF7EAFF01A901F0FDFA00214FF0FF3048
:1058600009F002F900207FB05DF804EB04B0704746
:10587000054B1B68DB681D220121044813F0D8FF8B
:105880004FF0FF30EFE700BF583C0020903E021081
:1058900070B50C460121204601F06AFB0546022145
:1058A000204601F065FB25B1064600244FF0FF308D
:1058B0000CE02548FFF7BEFFFBF7AEFC43E0234BAF
:1058C00053F82410284614F051FD013408B10B2C74
:1058D000F5DDA0BB013C0C2C31D8DFE804F0070A51
:1058E0000D101316191C1F22292C2500FBF794FC00
:1058F00029E0FBF72DFE26E0FBF72EFE23E0FBF769
:105900006DFE20E0FBF7A4FE1DE0FBF7C5FE1AE0EC
:10591000FBF728FF17E0FBF71BFF14E0FBF730FF56
:1059200011E0FBF73DFF0EE03046FBF7D1FF0AE048
:10593000FCF76AF807E03046FBF74EFF03E0294624
:105940000348FFF777FF70BDB03E02100848031010
:10595000C83E021038B50C460121204601F008FB74
:1059600005460221204601F003FB1DB100244FF043
:10597000FF300CE01748FFF75DFFFCF76FF828E0F9
:10598000154B53F82410284614F0F0FC013408B1EC
:10599000052CF5DDC8B9013C052C16D8DFE804F06C
:1059A0000306090C0F12FCF759F812E0FCF75AF83D
:1059B0000FE0FCF75BF80CE0FCF75CF809E0FCF7A3
:1059C00061F806E0FCF75AF803E029460348FFF7C0
:1059D00031FF38BDB03E0210F0470310E43E021024
:1059E0002DE9F0410C460121204601F0C1FA07469D
:1059F0000221204601F0BCFA06460321204601F0B0
:105A0000B7FA2FB180463EB100254FF0FF3411E0C8
:105A10003948FFF70FFF1EE0002211463846FCF719
:105A2000A5FB18E0354B53F82510304614F09EFCCA
:105A3000044601350CB1022DF4DD44B9B5F1FF3F48
:105A400005D0B8F1000F13D04FF0FF300CE0314615
:105A50002B48FFF7EFFEBDE8F081284B53F82410E8
:105A6000404614F083FC013408B1022CF5DD98B9EE
:105A7000012D16D0022D1CD0032D22D0012D28D0AF
:105A8000022D2ED0012D2FD0032D01D1012C2DD090
:105A90001C48FFF7CFFEDEE741461B48FFF7CAFE72
:105AA000D9E7002CE6D1002201213846FCF75EFB45
:105AB000D1E7002CE0D1002202213846FCF756FB4A
:105AC000C9E7002CDAD1002203213846FCF74EFB4F
:105AD000C1E7022CD4D1022201213846FCF746FB53
