:020000041000EA
:10000000002008205D0100101B010010BD960110AA
:100010001101001011010010110100101101001058
:100020001901001019010010190100101F01001022
:100030004196011019010010210100102301001048
:100040001101001011010010110100101101001028
:100050001101001011010010110100101101001018
:100060001101001011010010110100101101001008
:1000700011010010110100101101001011010010F8
:1000800011010010110100101101001011010010E8
:1000900011010010110100101101001011010010D8
:1000A00011010010110100101101001011010010C8
:1000B00011010010110100101101001011010010B8
:1000C00011010010110100101101001011010010A8
:1000D0001101001011010010110100101101001098
:1000E0001101001011010010110100101101001088
:1000F0001101001011010010110100101101001078
:100100001101001011010010110100101101001067
:10011000EFF30580103800BE00BE00BE00BE00BE7A
:1001200000BE00BEF2EB8871E4E7031014E8031090
:10013000A001001090A31AE7D3DEFFFF42012110B7
:10014000FF010000BC220400793512AB4FF0000023
:100150001E49086006C881F3088810474FF05040D8
:10016000006810B14FF00000F2E70DA40ECC00299A
:1001700002D000F012F8F9E71549164A002000E015
:1001800001C19142FCD11449884714498847144958
:10019000884700BEFDE701C901C29A42FBD3704700
:1001A00014E8031088010020683D0020F4230410A7
:1001B0000000082000000820F4230410001008208C
:1001C00000100820000000007047000008ED00E06B
:1001D000683D002018D1002005E0001065030010E4
:1001E000C9DF0010F8B500BF064B0749C91A8910CE
:1001F00048BF0131491003D0044B0BB101481847E7
:10020000704700BF683D0020683D002000000000EE
:1002100008B5054B1BB105490548AFF30080BDE8A3
:100220000840FFF7E1BF00BF0000000064D00020DD
:10023000640D021070B584B005460C4601AB02AAED
:1002400003A90BF057FF18B954B9204604B070BD8C
:100250000646019A029903980BF01AFF3446F4E718
:10026000294601480AF010FC680D0210002203E044
:10027000002120F8121001325D2AF9DD44F241021A
:10028000A0F8B8200022C2830284428402808280C7
:10029000A0F8A020A0F8A220A0F8A420A0F8A620F2
:1002A000A0F8A820A0F8782001228287C287A0F8B1
:1002B0004620A0F85020A0F8522041F28832A0F841
:1002C00054202022A0F856204FF05042526812F4D9
:1002D000003F01D00020704700B583B0FE2200929D
:1002E00003464FF4E8320521034820F0F1FC0120D9
:1002F00003B05DF804FB00BF000008404FF050431E
:100300005B6813F4003F01D00020704700B583B054
:10031000FE23009303464FF4E8320521034820F002
:10032000D7FC012003B05DF804FB00BF00000840CB
:100330004FF050435B6813F4003F01D0002070473A
:1003400000B583B0FE23009303464FF4E832052145
:10035000034820F099FC012003B05DF804FB00BFC6
:100360000000084010B584B001214E48FFF762FF3D
:100370004D4B00930122002106200BF017FE0520B3
:100380000BF052FE0DF08AFF09F000F900F030FF8B
:1003900009F01CF94FF47A700BF026FB192009F0D4
:1003A000E9F84FF47A700BF01FFB192009F0E2F81E
:1003B00001231C468DF80C3000208DF80D0003A998
:1003C0000FF0C0F908F058FB1C2344EC403006F055
:1003D00043FA4FF050435B6803F08073002B14BF67
:1003E00001220022314B1A704BD009F0BFFD09F0F9
:1003F00005FB00F0FDFE2E4C2046FFF799FFB4F8F8
:10040000B82044F241039A4244D108F09BFB09F022
:10041000A7F909F05BF907F087FA00F033FF192319
:100420004FF0000242EC403006F04AF90AF056F86C
:100430000EF002FD1F480EF09BFD05F0CBFD05F010
:100440009DFC0EF0C1FC1C4B02221A60A3F5005368
:100450001B6883F4804303F47043184A136006F06A
:1004600039F900214FF0FF300FF05AFD07F03CFA48
:1004700005F0F8FB08F0D4FB09F07CF909F034FC36
:10048000EDE70F4B0093084B0022012105200BF0F4
:100490008DFDAAE72046FFF7E9FE2046FFF72EFF75
:1004A000B3E700BFF049020080D1F00803D100207B
:1004B00040CB00203D06002000200A4000100A40EA
:1004C000C068780470B504460D4616460023DB8AE2
:1004D000002242E800F212F4800F0BD1102144F206
:1004E0004F10984703460D4AD2F8142842B96FF0CE
:1004F000120070BD042144F24F1098470346F2E702
:10050000BFF35F8F3246294620469847BFF35F8F7F
:10051000024B0022C3F81428EBE700BF00000E4096
:1005200010B588B004464FF4806220216846FFF77A
:10053000C9FF41B251B900231F2B13DC03F1200284
:100540006A4412F8202C2AB90133F5E7214806F055
:100550008BFAF0E74FF482611F4806F085FA00201D
:1005600008B010BD002305E003F12001694401F843
:10057000202C01331F2B09DCE25C002AF4D100217E
:1005800003F120026A4402F8201CF2E74FF44132E2
:1005900020216846FFF796FF41B289B921460F48EE
:1005A00006F062FA4FF4013220216846FFF78AFF15
:1005B00041B251B969460A4806F056FA0120CFE720
:1005C000084806F051FA0020CAE7074806F04CFA3E
:1005D0000020C5E79C0D0210DC0D0210500E021029
:1005E000A00E0210180E0210780E021010B5A0B066
:1005F00004464FF4806240210DEB0100FFF762FFDB
:1006000041B209B9002319E0144806F02DFA002080
:1006100022E05A0020A901EB430111F8400C03F13C
:100620008001694401F8800C81326A4412F8400C60
:1006300003F181026A4402F8800C02331E2BE8DDCC
:10064000002306E003F180026A4412F8802CE25491
:1006500001331F2BF6DD012020B010BDB80E0210B3
:1006600010B54FF4FA740BE002200BF0BDF9013C19
:10067000002008F035F900214FF0FF300FF050FC5A
:10068000002CF1DC10BD10B504460BE002200BF08D
:10069000ABF9023C002008F023F900214FF0FF30B5
:1006A0000FF03EFC002CF1DC10BD000070B5FFF730
:1006B000D7FF00244FF4801516E02A4621460C4847
:1006C00006F0D2F9FFF7CCFFEFF3108372B6094EB4
:1006D00033604FF48011284620F0EAFA336883F340
:1006E000108805F580150134022CE6DD70BD00BFD1
:1006F000F00E02103492002003460144B1F5401F71
:100700000ED80A48006810F803C0184613449942EE
:1007100002D9BCF1FF0FF4D0BCF1FF0F02D070473B
:10072000002070474FF0FF30F9E700BFF4300020A1
:1007300030B5C1B01E4807F097F8C820FFF7A3FFF7
:1007400001221C490020FFF7D7FFB0F1FF3F2AD15B
:10075000194806F089F9FFF783FF4FF48072FF21F3
:1007600068461AF03FFD41258DF800501E221349BE
:100770000DF101001AF08AFE00238DF81F300223CC
:1007800008934FF48072099240238DF828308DF839
:10079000295069464FF4801020F042FA084806F0CC
:1007A00063F941B030BD0146064806F05DF9F8E74F
:1007B000280F021000FF2F00540F0210800F0210AC
:1007C000980F0210D00F0210034B1B78412B01D061
:1007D000002070470120704700001010F0B5C1B034
:1007E000054600F58057B7F5401F39D94FF440173B
:1007F00036E0204B1B685A5D1F4901A820440DF0CC
:100800004FFB0334013501360F2EF2DD103D01ABF5
:1008100019191A4A1088927818538A7002340026DF
:1008200007E0174901A820440DF03AFB01340135D7
:1008300001360F2E09DC0F4B1B685A5DA2F1200315
:10084000DBB25E2BEDD92E22EBE700214FF0FF301B
:100850000FF066FB01A90B4806F006F9BD4207D26E
:100860002A46094901A80DF01BFB00260A24CBE704
:1008700041B0F0BDF4300020D42A021080290210CB
:1008800044100210D82902103C1002102DE9F84340
:10089000044601F128074FF00008C146B4F5401F97
:1008A00019D204F1805505F580152E7800214FF0FE
:1008B000FF300FF035FB7F2E10D0FF2E02D06EB12F
:1008C0006C6AEBE7C4F54013BB421CD943451DD30A
:1008D000B9F1000F1CD04846BDE8F8836B6A1A1BBB
:1008E000974206D8B8F1000F05D0904507D81C46AE
:1008F000D4E71C46D2E79046A1461C46CEE7904678
:10090000A1461C46CAE74FF0FF39E4E7A146E2E7FB
:10091000A146E0E700E0586AB0F5401F0BD200F1B5
:10092000805303F580131A78FF2A04D0412AF2D9A4
:100930004FF0FF307047B0F5401F00D870474FF0C0
:10094000FF307047F8B50746002500E0656AB5F549
:10095000401F0FD205F1805404F580142678FF2E35
:100960000CD03946601C1AF08BFC0028EED1002E0A
:10097000ECD001E04FF0FF352846F8BD4FF0FF35D1
:10098000FAE700002DE9F047C0B004460D46154FC8
:10099000396820F0FF094FF4807A5246494468468E
:1009A0001BF018FAE3B20DF80350FFF759FEEFF30E
:1009B000108372B6DFF83080C8F8003052466946BE
:1009C00009F5801020F02CF9D8F8003083F3108856
:1009D0003B68185DA84214BF0020012040B0BDE86C
:1009E000F08700BFF4300020349200202DE9F04F52
:1009F000ADF5005D83B020F0FF0404F5801421F014
:100A0000FF0505F5801824F47F6626F00F0628F40C
:100A10007F6727F00F0707F5805704F47064A7EB92
:100A2000080B06F18053019305F1805505F58015FB
:100A30000DF5805A0AF1080A4FF48052FF21504602
:100A40001AF0D0FB0DF108094FF48052FF214846FF
:100A50001AF0C8FB2246019950461BF0BBF95A46D2
:100A6000294648461BF0B6F9FFF7FAFDEFF310836D
:100A700072B60C4D2B60B91B304620F019F9224696
:100A80005146304620F0CCF85A464946404620F0C0
:100A9000C7F82B6883F310880DF5005D03B0BDE83F
:100AA000F08F00BF3492002038B520F47F6424F02A
:100AB0000F04FFF7D5FDEFF3108372B6054D2B60E1
:100AC0004FF48051204620F0F3F82B6883F3108810
:100AD00038BD00BF34920020F8B50D46164620F010
:100AE000FF04FFF7BDFDEFF3108372B6054F3B60C7
:100AF00032462946204620F093F83B6883F310885D
:100B0000F8BD00BF3492002003460144B1F5800FC8
:100B10000ED80A48006810F803C0184613449942DA
:100B200002D9BCF1FF0FF4D0BCF1FF0F02D0704727
:100B3000002070474FF0FF30F9E700BFF030002091
:100B400008B505F049FD08BD08B503480DF012FCD5
:100B5000024B04221A7008BD4810021013D1002065
:100B600008B54FF050435B6813F0807F04D0034911
:100B700003480DF0FFFB08BD0249F9E7B854021025
:100B8000541002105010021008B506480DF0F2FB88
:100B90004FF47A700AF028FF012108460BF0A8FBF9
:100BA00008BD00BF8010021008B506480DF0E2FB3A
:100BB0004FF47A700AF018FF00214FF000700BF02C
:100BC000E0FB00BFA010021008B502480DF0A3FB27
:100BD00008BD00BFD010021008B503480DF09BFB04
:100BE00005F030FD08BD00BFE010021008B505F0AB
:100BF000C5F808BD70B5B2B00A200DF07DFB002429
:100C000007E0144B53F82420214613480DF0B2FBA3
:100C10000134042C1BDC204607F067FE0028F0D0CE
:100C20000C4E56F8242021460C480DF0A3FB56F834
:100C3000243022460A4968460DF032F902466946D8
:100C4000204607F0C3FE204607F04AFEE0E732B038
:100C500070BD00BF106D03105C1102101411021062
:100C60003811021010B50E480DF055FB0D480DF06F
:100C700081FB0D480DF07EFB00240AE00B4904EBDC
:100C800044029300CA189268C95C09480DF072FBCF
:100C900001340C2CF2DD0A200DF02EFB10BD00BF3C
:100CA000801102108C110210A011021010310020CE
:100CB000B811021010B50E480DF02DFB0D480DF0C7
:100CC00059FB0D480DF056FB00240AE00B4904EBDC
:100CD00044029300CA189268C95C09480DF04AFBA7
:100CE0000134012CF2DD0A200DF006FB10BD00BF1F
:100CF000C4110210E411021010120210F83000208A
:100D0000B811021010B5A0B010480DF004FB40223D
:100D10006946002005F0C0FD0D480DF0FCFA0024E6
:100D200000E001343F2C0FDC04F180036B4413F826
:100D3000801C08480DF01EFB04F00F030F2BF0D1B0
:100D40000A200DF0D9FAECE720B010BD3C120210D9
:100D50004C120210D42A02102DE9F04107464FF43C
:100D6000746200211AF03EFA002623E0F42406FB08
:100D700004F407EB04080025A8F83850C8F83050F0
:100D8000C8F83450C8F85C5088F83A5088F8F050E9
:100D900038343C4402342022294620461AF022FAF4
:100DA0001F220E4B53F8261020461AF06FFB88F8CE
:100DB000595001360F2ED9DD80233B81A7F8FC3036
:100DC000A7F8F031A7F8E4323B87A7F82C31A7F851
:100DD0002032A7F81433BDE8F08100BF307D031046
:100DE000F8B5044616461A46069B770006EB460001
:100DF000F42501FB05F505EB001021180A812350AD
:100E000062194FF0010C82F8F0C0094A1A444A6096
:100E1000083020441F220749194402301AF036FBDB
:100E2000374405EB07152C44002384F82930F8BD1E
:100E3000280010100100101038B5049C02EB420E7F
:100E40004FF0F40C0CFB01FC0CEB0E1E00EB0E053E
:100E50002B81002340F80E30844401238CF8F030BD
:100E60006C60062902D007291FD038BD63881B2B70
:100E700011D0192BF7D102EB4202F42301FB03F34B
:100E800003EB0213083318441F22104B99680230F9
:100E90001AF0FCFAE9E77346083318441F220B4B9B
:100EA000596802301AF0F2FADFE702EB4202F4234B
:100EB00003FB01F101EB0211083108441F22034B2F
:100EC000196802301AF0E2FACFE700BF247D031060
:100ED000032900D870472DE9F8430446164602EB73
:100EE0004203F42701FB07F707EB031300EB0309A9
:100EF0004FF0000840F80380A9F8088007F1380097
:100F000020441F22094B53F8211002301AF0BEFA78
:100F1000274487F85980C9F82C80C9F80480012E2D
:100F200001D0BDE8F88387F8F080FAE7307D031040
:100F3000F8B506460C461546B3B11946570002EB04
:100F40004200F42303FB04F404EB001008303044A7
:100F50001F2202301AF09AFA2F4404EB0714264499
:100F6000002386F82930F8BD02EB4205F42303FB89
:100F700004F404EB0512104400238372F3E7F42316
:100F800003FB01031B8913F0800F20D1F42303FB23
:100F900001031B8F13F0800F1BD1F42303FB01030C
:100FA000B3F8683013F0800F15D1F42303FB01036D
:100FB000B3F8983013F0800F0FD1F42303FB010036
:100FC000B0F8C83013F0800F09D00120704701201D
:100FD00070470120704701207047012070470020B2
:100FE000704708B502EB4202F42301FB03F303EB65
:100FF000021303441B8913F0010F08D113F0100FE3
:1010000007D113F4807F06D1FFF7B9FF00E001207C
:1010100008BD0120FCE70120FAE7000030B585B0EB
:10102000044644F24103ADF80E30FFF795FE0A4D39
:101030004FF47463009323461022052128461FF0C5
:1010400047FE022300930DF10E03002205212846DE
:101050001FF03EFE05B030BD000008404FF0504389
:101060005B6813F4003F00D0704700B583B04FF4C5
:101070007463009303461022052103481FF028FEE5
:1010800003B05DF804FB00BF000008402DE9F0410B
:101090001F464B1E0E2B3FD80646531E032B3DD832
:1010A0008DB22D03ADB2D4B205F6FE7189B22246DF
:1010B0001FF0F2FD00F03F00DFF8648018F8003008
:1010C0003B7005F6FD71224689B230461FF0E4FD03
:1010D00000F03F0018F800307B702D23BB7005F640
:1010E000FC7189B2224630461FF0D6FD00F03F0069
:1010F00018F80030FB7005F6FB71224689B23046C5
:101100001FF0CAFD00F03F0018F800303B710023CB
:101110007B710120BDE8F0810020FBE70020F9E7AA
:10112000707D03100F2900D9704770B582B0054655
:101130000E46F42201FB02F2383202440232114818
:1011400005F092FC002418E004EB44034FF0F40C8B
:101150000CFB06FC0CEB031C0CF108022A4405EB0B
:101160000C010B894968019155F80C10009102326D
:101170002146054805F078FC0134042CE4DD02B07A
:1011800070BD00BF64120210701202100148024BC1
:10119000C01A70470000082018D1002000B58BB09D
:1011A000684618F0F3FFFFF7F1FF079BC01A0BB07A
:1011B0005DF804FB10B500EBD070441000214FF037
:1011C000FF300EF0ADFE02200AF00EFC002007F00A
:1011D000F2FB18B9013CF1D5002006E0002007F031
:1011E000EFFB024805F040FC012010BDAC120210DC
:1011F0002DE9F04701200AF01DFF824602200AF087
:1012000019FF814603200AF015FF804609200AF0E5
:1012100011FF07460A200AF00DFF06460B200AF0D0
:1012200009FF05460C200AF005FF044651460E480A
:101230000DF0A0F849460D480DF09CF841460C48C9
:101240000DF098F839460B480DF094F831460A48ED
:101250000DF090F8294609480DF08CF82146084811
:101260000DF088F8BDE8F087CC120210E0120210F1
:10127000F4120210081302101C1302103013021093
:101280004413021010B5114C20460DF073F81048AD
:101290000DF070F8FFF77AFF01460E480DF06AF87E
:1012A000FFF77CFF01460C480DF064F805200AF0BA
:1012B000BBFE0A4BA3FB0031890909480DF05AF81F
:1012C00020460DF028F8FFF793FF10BD58130210C9
:1012D000A8130210F813021014140210D34D621058
:1012E000301402102DE9F04F2DED068B95B0FFF76D
:1012F0007FFF01200AF09EFE824602200AF09AFE3D
:10130000814603200AF096FE804609200AF092FEEC
:1013100007460A200AF08EFE06460B200AF08AFED7
:1013200005460C200AF086FE03908E4B04221A60BC
:101330008D4B1B6813F4807FFAD08B4B5B689BB29C
:1013400007EE903AF8EE677A9FED887A67EE877A33
:101350009FED877A77EEC77ADFED866A87EEA67A09
:10136000B3EE0BAA3AEE47AA05200AF05DFE824BC7
:10137000A3FB0030800C07EE900AB8EE678AFFF7F7
:1013800005FF800A07EE900AF8EE679AFFF706FF5E
:10139000800A07EE900AB8EE679A784BB3F854B01B
:1013A0002C2303FB0BF39B0A07EE903AF8EE678AB7
:1013B00012A80DF065F900240BE004F150036B4412
:1013C00013F8082C6E490DA800EB44000CF068FDE2
:1013D0000134072CF1D96B4805F046FB6A4805F04B
:1013E00043FB6A4805F040FB694805F03DFB69484E
:1013F00005F03AFB684805F037FB684B684A6949D5
:10140000694805F031FB05AC20220021204619F087
:10141000E9FE2046FFF7EAF8002800F099809DF8E1
:101420001430002B40F08F80604805F01DFB604BAE
:101430001B78203BDBB25E2B40F28E805D4805F0CE
:1014400013FB5D4C204605F00FFB5C4805F00CFBE0
:1014500018EE100A1FF004FC02460B46584805F02F
:1014600003FB5146574805F0FFFA4946564805F038
:10147000FBFA4146554805F0F7FA3946544805F05D
:10148000F3FA3146534805F0EFFA2946524805F081
:10149000EBFA0399514805F0E7FAF2EE027A6AEEA8
:1014A000277AB1EE047A87EE878ADFED4D7A38EE3F
:1014B000278A1AEE100A1FF0D3FB06460F4618EED5
:1014C000100A1FF0CDFBCDE9000132463B464548EE
:1014D00005F0CAFA0DA9444805F0C6FA204605F001
:1014E000C3FA424805F0C0FA0022414B414805F0DA
:1014F000BBFA19EE900A1FF0B3FB02460B463E48BA
:1015000005F0B2FA19EE100A1FF0AAFB02460B46CC
:101510003A4805F0A9FA18EE900A1FF0A1FB02461E
:101520000B462C210191CDF800B0354805F09CFA0E
:10153000204605F099FA134805F096FA15B0BDEC6F
:10154000068BBDE8F08F05A92E4805F08DFA6EE7F1
:101550002D4805F089FA6AE715492C4805F084FA08
:101560006FE700BF00200A4000000A403333533ABF
:101570006ABC343F2D93E13A83DE1B4340CB00200D
:10158000344902104C1402109C140210B0140210C2
:10159000E01402102C1502106C150210A815021090
:1015A000B4150210C0150210CC150210F01502106F
:1015B00000F00F1040160210A4130210781602104B
:1015C0008C160210AC160210C8160210E416021097
:1015D000001702101C1702103817021054170210BF
:1015E000000000427017021098170210D017021066
:1015F00000408040E017021000180210201802106E
:101600004018021010160210201602106816021060
:1016100008B504F06FFC08BD08B5002007F065F9B7
:1016200020B31749174805F01FFA012007F05DF9AC
:10163000F0B11349144805F017FA022007F055F9E4
:10164000C0B10F49114805F00FFA032007F04DF91A
:1016500090B10B490E4805F007FA042007F045F950
:1016600060B107490B4805F0FFF908BD0A49D9E701
:101670000949DFE70849E5E70749EBE70649F1E7EC
:10168000841802108C180210B4180210DC18021012
:10169000041902102C1902108818021070B5B2B08B
:1016A000164805F0E1F9002407E0154B53F8242013
:1016B0002146144805F0D8F90134042C1BDC2046DF
:1016C00007F013F90028F0D00D4E56F824202146DB
:1016D0000D4805F0C9F956F8243022460B496846F2
:1016E0000CF0DEFB02466946204607F06FF9204603
:1016F00007F0F6F8E0E732B070BD00BFDC6C021016
:10170000106D03109C190210541902107419021064
:1017100008B50E4805F0A8F901214FF4FA600AF067
:10172000E7FD00214FF0FF300EF0FAFB002007F03C
:1017300042F90028F5D0064B4FF080421A60002095
:1017400007F03EF9034805F08FF908BDBC190210F7
:1017500000B00D40001A021038B52C4805F084F98D
:101760002B4805F081F94FF4FA7400214FF0FF3057
:101770000EF0D6FB02200AF037F9002007F01BF923
:1017800018B9013CF1D1042410E0002007F018F949
:10179000204805F069F938BD1F4B00221A801E4809
:1017A000FEF7ACFD1D48FFF759FC01340F2C27DC78
:1017B0001A4BF42202FB04331B8F13F0010FF4D0F9
:1017C00013F4807FF1D0154D012221462846FFF702
:1017D0007FFB022221462846FFF77AFB032221469F
:1017E0002846FFF775FB042221462846FFF770FBC9
:1017F000062CD1D0072CD2D1074B00229A80CEE7FD
:1018000000214FF000700AF0BCFD00BF141A021056
:10181000681A0210001A021040CB00207441002008
:1018200010B50446B8B90F4805F01EF9192007F0A5
:10183000A1FE16E021460C4806F016F8192007F024
:1018400099FEFA200AF0D0F8192007F093FEFA204A
:101850000AF0CAF8013C631E082BEBD9034805F0D7
:1018600003F910BDA01A0210B41A0210404F021062
:1018700008B54FF050435B6813F4003F01D10120DD
:1018800008BD024805F0F0F80020F9E7B81A021088
:1018900008B5034805F0E8F804F0D4FE08BD00BF21
:1018A000FC1A021008B5FFF7E3FF00B908BD0348B2
:1018B00005F0DAF804F090FEF8E700BF201B0210F4
:1018C00008B5FFF7D5FF00B908BD034805F0CCF80F
:1018D0000248FEF7CBFCF7E7441B021040CB002088
:1018E00010B5FFF7C5FF70B910BD084B53F8243091
:1018F000074A32F814202146064805F0B5F80134AD
:101900005F2CF2DDF0E70024FAE700BF2CDE0310C5
:1019100040CB0020701B021070B5C0B00446FFF72A
:10192000A7FFB0B3BCB301224FF480714FF47F2006
:10193000FFF7EAF8B0F1FF3F4CD120461AF0C0FAA9
:1019400006464FF48072FF21684619F04BFC324680
:101950002146684619F09AFD00230DF806306A46C4
:101960002146214805F080F84FF47F211F4805F0FB
:101970007BF84FF4807269464FF47F20FFF7ACF894
:101980001B4C21461B4805F06FF821461A4805F00C
:101990006BF840B070BD164B1B78203BDBB25E2B62
:1019A00004D81349154805F05FF8F2E710491448C8
:1019B00005F05AF808E004F1805303F57F23197805
:1019C000104805F051FF01341F2CF4DD0E4805F0DE
:1019D0004BF8DEE74FF47F210C4805F045F84FF453
:1019E0007F20FFF761F8A8E7001C0210241C0210FA
:1019F00000F00F10601C0210801C0210CC1B0210A3
:101A0000901B0210C41B0210404F0210DC1B02107E
:101A100030B589B00546EC463C4C0FCCACE80F0025
:101A200094E80F00ACE807002CF8023B1B0C8CF884
:101A3000003000238DF81F307DB12C4628461AF067
:101A40003FFA042820D10022032A26DCA35C303B85
:101A5000DBB2092B1DD80132F6E72D4805F004F85A
:101A60006846FEF7C3FD58B19DF800301BB9294800
:101A700004F0FAFF0BE06946274804F0F5FF06E0A2
:101A8000264804F0F1FF02E0254804F0EDFF09B01C
:101A900030BD244804F0E8FFF9E72349684619F00F
:101AA000DFFE054610B30422214619F0EFFC0023A7
:101AB0002B7169461D4804F0D7FF1D4804F0D4FF80
:101AC00041F28830FFF776FBA0B96846FEF728FDA3
:101AD000A0B16946174804F0C7FF6846FEF786FDC7
:101AE00080B169460C4804F0BFFFD0E7124804F00B
:101AF000BBFFCCE7114804F0B7FFC8E7104804F07B
:101B0000B3FFEAE70F4804F0AFFFC0E714D60210B6
:101B1000A01C0210D41C02100C1D0210201D02106B
:101B2000481D02107C1D0210A41D0210F01D0210A1
:101B3000101E0210741E0210AC1D02104C1E02106A
:101B4000941E0210C01E021010B50D4804F08CFF48
:101B5000002408E00B4A0C4B53F8243021460B4874
:101B600004F082FF01341D2C08DC4FF050435A680A
:101B70000123A3401A42EDD0054AECE710BD00BF97
:101B8000E81E0210E41E0210B4DD0310F81E02105D
:101B9000E01E021008B508F09DFA08BD08B508F06F
:101BA00033FB08BD08B508F0FFF908BD08B508F01B
:101BB00065FA08BD08B508F0DDF908BD08B508F0FC
:101BC000A3FC08BD08B508F0A5FC08BD2DE9F04749
:101BD000ADF5805D82B0066901F1805303F5801395
:101BE0001B6AB34205D004200DF5805D02B0BDE84C
:101BF000F08707461E4D0D44002401940022002367
:101C000013F05CFAA1464FF4805819E017F042FE39
:101C100001465246174804F027FF0020E4E701334D
:101C2000019A93420AD202AAD25C1919695C8A42CB
:101C3000F5D08A431AD14FF00109F0E7B61A1444DF
:101C40006EB1464500D2B04602A90B1F4246384647
:101C500012F0CEFF82460028D8D10023E0E7B9F188
:101C6000000F01D10120BFE70220BDE70320BBE741
:101C700028001010101F02102DE9F047ADF5955DFA
:101C800086B006460F46012201460EA812F00AFE53
:101C900028B93146A6A819F0FFFF002518E0044630
:101CA00017F0F8FD024623463146BA4804F0DCFE40
:101CB000002420460DF5955D06B0BDE8F087AEAC7A
:101CC0002C4414F8200C18F03DFD04F8200C0135CC
:101CD000A6A81AF0F5F8A842F1D82E21A6A819F066
:101CE00007FC0446129D03462A463146AA4805F0E1
:101CF000BBFD2F21304619F0FBFB00B1461CA74964
:101D0000204619F0EBFE002800F0BE804FF00009DD
:101D1000A349204619F0E2FE08B94FF00309A14992
:101D2000204619F0DBFE08B94FF004099E49204611
:101D300019F0D4FE08B94FF005099C49204619F066
:101D4000CDFE08B94FF006099949204619F0C6FEA4
:101D500008B94FF007099749204619F0BFFE08B9A6
:101D60004FF008099449204619F0B8FE002800F009
:101D70009680B9F1000F00F08A803046FEF7E2FD50
:101D80008046B0F1FF3F40F08D80032F00F0D480FB
:101D90000024022F03D1B8F1FF3F40F0D58000208E
:101DA000FEF7B8FDB0F1FF3F00F01E81294600208C
:101DB000FEF76CFD8046B0F1FF3F00F01D81C0F5DD
:101DC000401305F580729342C0F01E8104AC8DF87B
:101DD000109031460DF1110019F05EFF0C9508F1DD
:101DE000805303F580135A6A1B78FF2B00F014818F
:101DF0000D92012205F128014046FEF77DFCB0F16D
:101E0000FF3F40F01081AEAC04AECDF80080336AE5
:101E100032780DF11101694804F026FE4FF480522A
:101E2000FF21204619F0DEF90FCE0FC40FCE0FC4EC
:101E300096E8030084E803000EAC0022002320464D
:101E400013F03CF903AB40F6D872B8A9204612F063
:101E5000CFFE0446002840F0F480FEF701FCAEA956
:101E6000A1F52B76346804F2271424F0FF04EFF375
:101E7000108772B6224608F580101EF0D1FE87F357
:101E800010883668AE1BFBE04FF0010940E74C4874
:101E900004F0EAFD0EA813F067F8012409E74FF0FB
:101EA00009096AE70146474804F0DEFDBB1E012B25
:101EB0003AD841460EA8FFF789FE044604282AD8DE
:101EC000DFE800F00B03291A13003F4804F0CCFDB3
:101ED0000EA813F049F80224EBE63C4804F0C4FDD8
:101EE0000EA813F041F80324E3E6394804F0BCFDE2
:101EF0000EA813F039F8DCE6364804F0B5FD4FF0D3
:101F0000050A022C0AD0032F7FF443AF0EA813F06A
:101F10002BF85446CDE64FF0000AF2E72E4804F0C5
:101F2000A3FD4FF0060AEEE72C4804F09DFD0EA835
:101F300013F01AF80724BCE6294804F095FD0EA812
:101F400013F012F83C46B4E608F1805303F5801311
:101F50001E460DF1100E03F12007F446306871683B
:101F6000B268F368ACE80F001036E646BE42F4D122
:101F700030687168AEE80300032C7FF444AF0D9A1B
:101F80004146184804F070FD0D994046FEF72EFDBD
:101F900039E700BF481F021024210210941F0210CD
:101FA0009C1F0210A41F0210AC1F0210B41F0210CD
:101FB000BC1F0210C41F0210CC1F02109423021079
:101FC000D41F02105C2102107C210210AC210210EF
:101FD000C8210210042202104422021080220210A2
:101FE000B0220210DC220210324804F03DFD0EA89F
:101FF00012F0BAFF09245CE62F4804F035FD0EA864
:1020000012F0B2FF0A2454E62C4804F02DFD0EA86D
:1020100012F0AAFF0A244CE605F2271323F0FF036F
:1020200043446362E5E60146254804F01DFD0D9A30
:102030004146244804F018FD0D994046FEF7D6FCB1
:10204000E1E617F027FC014622461F4804F00CFD8C
:102050000EA812F089FF00242BE6FF3424F0FF04C1
:10206000EFF3108772B6AEAD2246294608F5801010
:102070001EF0D6FD87F31088A5F52B752B68F61A90
:10208000002E12DDAEAD4FF48052FF21284619F02C
:10209000A9F803AB4FF4805229460EA812F0A8FD10
:1020A000A04403AD2C68002CD7D10EA812F05CFF21
:1020B0000824FEE504230210202302104823021006
:1020C00074230210DC220210101F021070B5ADF54F
:1020D0003E7D05460E462C220021B3A819F082F859
:1020E000FEF772FB68B3FF22002173A819F07AF89B
:1020F0002B7833B9FF2173A812F04BFF044648BB7D
:1021000073AD2946514804F0AFFC582200215CA869
:1021100019F068F84FF49072002114A819F062F8D1
:1021200005B34B4B2A4614A95CA813F0CCF904461E
:1021300098B317F0AFFB01462246464804F094FCE2
:1021400081E0454804F090FC4FF44061434804F0BE
:102150008BFC78E017F09EFB01462246404804F0D5
:1021600083FC70E03F4B404A40F2E6613F480BF091
:102170002FFF31466846FFF77FFDBEAB03EB8003C0
:1021800053F82C2C013243F82C2C394804F06CFC09
:1021900014A95CA813F080F9044614BB9DF86A30BA
:1021A000FBB100214FF0FF300DF0BAFE2946684622
:1021B00019F072FD684619F083FE2E4B1B882DF82E
:1021C00000300DF16A01684619F080F89DF85C3026
:1021D00013F0100FCDD00DF16A01274804F044FC34
:1021E000D6E75CA813F00FF9244804F03DFCBB9936
:1021F000234804F039FCBA99224804F035FCB5991B
:10220000214804F031FCB999204804F02DFCB8991C
:102210001F4804F029FCB7991E4804F025FCB69924
:102220001D4804F021FCB4991C4804F01DFCB3992E
:102230001B4804F019FCBD991A4804F015FCBC9920
:10224000194804F011FC0DF53E7D70BD58240210B4
:10225000A4130210E8240210CC2302100824021058
:10226000342402107824021080240210A8240210C2
:10227000404F02100C250210102502102C250210D0
:102280004C2502107C250210AC250210DC25021022
:102290000C2602103C2602106C2602109C2602100E
:1022A000CC260210FC2602102C27021070B5054621
:1022B0000C461646FFF7DCFA30B1012C08D0214657
:1022C0002846FFF7D9FC70BD044804F0CDFBFAE7BF
:1022D00031462846FFF7FAFEF5E700BF5C270210FB
:1022E00030B583B0044645886DBAADB2018849BAAD
:1022F00089B2374804F0B8FB2946364804F0B4FBED
:10230000E188A38803F47F4202EB11225BBA9BB2FF
:10231000FF2B2BD892B2B2F5805F2FD355BB2E483E
:1023200004F0A2FB04F58054B4F8FC0FC0F30520C0
:102330002A49B4F8FA2FC2F30522B4F8F83FC3F3E0
:102340000523B4F8F65FC5F305254D5D0095CB5C1C
:102350008A5C095C224804F087FBB4F8FE1F49BA86
:1023600089B2204804F080FB03B030BD1E4804F061
:102370007BFBD7E71D4804F077FBD3E7002DCED0D9
:1023800002F10043013B34F813305BBADBB20020AA
:102390003F2B0FD80F280DDC03F03F030F49C95C1A
:1023A000134B19540130531E1B1A34F813305BBA07
:1023B000DBB2EDE703F03F030849CB5C0C490B545B
:1023C000013000230B540B4804F04EFBAAE700BF7A
:1023D00094270210A8270210F8270210846B03101C
:1023E0005828021074280210BC270210D8270210A7
:1023F0009440002020280210F0B5C1B007462948BB
:1024000004F032FB284804F02FFB284804F02CFB92
:10241000002428E0103CA4B201AB5919244A1088CA
:10242000927858538A700235002608E0214901A8A5
:1024300028440BF035FD01350134A4B201360F2ECE
:102440000ADC37F8142052BAD2B2A2F12003DBB270
:102450005E2BEBD92E22E9E701A9174804F004FB13
:10246000B4F5805F1BD200214FF0FF300DF058FD16
:102470002246124901A80BF013FD00260A250F2E53
:10248000C8DC37F8142052BA92B20D4901A828448A
:102490000BF006FD05350134A4B20136EFE741B07B
:1024A000F0BD00BF8C280210A42802100C290210D5
:1024B0008029021044100210D82902107829021035
:1024C0008429021010B501EB810C01F003014900D1
:1024D000C1F1080EFF2303FA01F2C1F10604234102
:1024E000CCF38F0C10F80C4022400A416044417834
:1024F0000B4003FA0EF39BB213FA82F080B210BDC8
:102500002DE9F04782B0804690F8B89201465C48C9
:1025100004F0AAFA08F105015A4804F0A5FA98F85F
:10252000B812594804F0A0FA002739E0574804F0DF
:102530009BFA04E0002E76D1554804F095FA04F594
:10254000805494F8213494F8225405F03F052D016D
:1025500005EB131505F03F054E4994F82024920829
:1025600094F81F0400F03F0094F81D6494F81E34A2
:102570009B0003EB961303F03F03CB5C00930B5CD3
:102580008A5C495D444804F06FFA94F8221494F888
:1025900023349B0003EB9111404804F065FA0137A6
:1025A0004F4569DA41F2444A0AFB078A0AF2D92404
:1025B000224639463A4804F057FA0AF2FD2A94F8BE
:1025C000253094F8266006F00F06B60106EB930658
:1025D00094F8241003F0030301EB0321314804F0C5
:1025E00043FA3146304804F03FFA94F8273094F823
:1025F0002850AD0005EB931594F8262003F03F0317
:102600001B0103EB1213DAB2120252FA85F5ADB2D6
:10261000FF2B8BD8B5F5805F8CD3002E8CD0234850
:1026200004F022FA8BE7691E89B25046FFF74AFF91
:10263000C0B200260EE000F03F00164B1A5C1C4BA7
:102640009A550136A91B89B2013989B25046FFF764
:1026500039FFC0B23F2801D80F2EECDD00F03F005B
:102660000C4B1B5C12498B55013600238B552A46B7
:10267000104804F0F9F962E702B0BDE8F08700BF46
:102680008C290210A0290210B4290210BC270210C4
:10269000F8270210846B03105828021074280210C7
:1026A000C829021094270210A8270210D827021068
:1026B00094400020DC2902102DE9F043C1B080468F
:1026C000354919F00BFA002861D1344804F0CCF9EF
:1026D00041B0BDE8F08321463846FFF7F3FE0246DD
:1026E0002F4901A828440BF0DBFB05350134A4B2C7
:1026F00001360F2EEFDD103CA4B201AB5919294A67
:102700001088927858538A700235002608E02649CE
:1027100001A828440BF0C4FB01350134A4B20136F2
:102720000F2E0BDC21463846FFF7CCFEC2B2A2F1D9
:102730002003DBB25E2BEAD92E22E8E701A91B4871
:1027400004F092F9B4F5805F0CD200214FF0FF3015
:102750000DF0E6FB2246164901A80BF0A1FB00266E
:102760000A25C6E709F10109B9F1000FB0DC41F211
:10277000444707FB098707F2FD270E4804F074F968
:102780000D4804F071F90D4804F06EF9DDE74FF0E3
:1027900000094C46E8E700BF142A02101C2A021068
:1027A000842902108029021044100210D829021036
:1027B000782902108C280210A42802100C2902107B
:1027C00010B588B00138052806D8DFE800F0030707
:1027D0005D9194BA07F082FF08B010BD0C46084620
:1027E00019F06EFB0C2803D0584804F03DF9F3E7CC
:1027F00003238DF80C302378303BDBB21B01DBB2B6
:1028000062781344303B8DF81330A378303BDBB251
:102810001B01DBB2E2781344303B8DF81230237990
:10282000303BDBB21B01DBB262791344303B8DF8E5
:10283000103000228DF81120A379303BDBB21B0150
:10284000DBB2E1790B44303B8DF80F30237A303B1B
:10285000DBB21B01DBB2617A0B44303B8DF80E30EA
:10286000A37A303BDBB21B01DBB2E17A0B44303B95
:102870008DF80D300092082303AA682134480CF02B
:102880006CFA344804F0F0F803A807F0BDFF9DF897
:1028900012309DF814209DF815102F4804F0E4F82C
:1028A0009DF80F3003F07F039DF810209DF8111064
:1028B0002A4804F0D9F89DF80E10294804F0D4F8FD
:1028C0009DF80E3013F0040F0AD1264804F0CCF81E
:1028D0009DF90F30002B07DB234804F0C5F87BE798
:1028E000224804F0C1F8F3E7214804F0BDF873E78B
:1028F00007F050FF70E703A807F086FF0024132CB1
:102900000ADC04F120036B4413F8142C2146194807
:1029100004F0AAF80134F2E79DF812309DF8142073
:102920009DF815100C4804F09FF89DF80F3003F047
:102930007F039DF810209DF81110084804F094F8CA
:102940004AE70D4804F090F846E700BF3C2A021021
:102950003C360020782A0210842A0210A82A02108D
:10296000CC2A0210DC2A0210082B0210F02A0210D6
:10297000302B0210702B0210842B02102DE9F04135
:1029800098B007460C46FDF71FFF70B3002C54D0DB
:102990002046FDF7D7FF0546B0F1FF3F30D000F1EC
:1029A000805404F580145A4804F05EF8594804F045
:1029B0005BF8214611F8012B236A606A01900095AB
:1029C000554804F051FF2378FBB17F2B21D05348A9
:1029D00004F04AF82378032B1FD0013BDBB2012B14
:1029E00023D94F4804F040F807E04E4804F03CF883
:1029F0004FF440614C4804F037F818B0BDE8F0815E
:102A000021464A4804F030F8F7E7494804F02CF82A
:102A1000F3E7484804F028F8EFE7474C6019FFF760
:102A20005FFC6019FFF7E8FCE7E7434C6019FFF72C
:102A300067FD6019FFF740FEDFE7354804F014F842
:102A4000344804F011F84FF00008454619E0C5F588
:102A500040144146394804F007F82946384804F044
:102A600003F8A20A4FF44011364803F0FDFFC4E713
:102A70002F4804F0F9FE294803F0F6FF022F2AD070
:102A8000656AB5F5401FB8D200214FF0FF300DF058
:102A900047FA05F1805404F580142378FF2BD6D033
:102AA00004AE626A02920195226A0092621C1A497F
:102AB00030460BF0F5F9304604F0D6FE08F101027D
:102AC0002378002BD4D07F2B01D09046D3E7194830
:102AD00004F0CAFECFE72278531EDBB2012B06D9E1
:102AE000032ACDD114482844FFF7FAFBC8E7124E59
:102AF0002E443146144803F0B7FF711D134803F00C
:102B0000B3FF96F8B812124803F0AEFFB8E700BF63
:102B1000C02B02106C200210B82002101891021075
:102B2000D41F0210CC23021008240210A82B02107C
:102B30000C2C0210242C021028001010382C02102B
:102B4000702C0210AC2C02108C290210A02902104B
:102B5000B42902102DE9F04FADB00378012B40F0FD
:102B6000CE82064690F8DB92B9F10A0F07D840F200
:102B70004C7323FA09F313F0010F40F0C6822024AE
:102B80002246002124A818F02DFB224600211CA873
:102B900018F028FB2246002114A818F023FB224637
:102BA00000210CA818F01EFB2246002104A818F0F2
:102BB00019FB4FF00108B8F1030F00F3A2820025C2
:102BC00035E22F2A0CD03F2A40F03082013B2CAA5C
:102BD00002EB830353F8402C013A43F8402C25E2E2
:102BE000013B2CAA02EB830353F8202C013A43F853
:102BF000202C1BE2013B2CAA02EB830353F8602C30
:102C0000013A43F8602C11E2013B2CAA02EB83034A
:102C100053F8802C013A43F8802C07E2A37F002B65
:102C200000F0048294F81DA0BAF12F0F67D0BAF11A
:102C30002F0F6ED0BAF13F0F75D0BAF13F0F7CD095
:102C4000BAF15F0F00F08380BAF15F0F00F08A8065
:102C5000BAF14F0F00F09080BAF14F0F00F097805B
:102C6000BAF16F0F00F09D8003F1FF3B2CAB03EB3B
:102C70008B0353F8203C3BB12CAA02EB8B0252F899
:102C8000402C002A40F09A80002B40F0B2802CAB00
:102C900003EB8B0353F8403C002B40F0B6802CAB89
:102CA00003EB8B0353F8803C3BB12CAA02EB8B0265
:102CB00052F8602C002A40F0B480002B40F0CB800A
:102CC0002CAB03EB8B0353F8603C002B40F0CF8020
:102CD0002CAB03EB8B0353F8A02C002A00F0F680FA
:102CE00053420827CDF800A0CDF804B09346CDF8A4
:102CF000088003951D4633463E461F46C5E05A1ED2
:102D00002CA901EB820252F8407C002F8FDD013F9D
:102D100033E15A1E2CA901EB820252F8207C002FCD
:102D200000F32B8186E75A1E2CA901EB820252F890
:102D3000207C002F81DD01371FE15A1E2CA901EBF9
:102D4000820252F8407C002F00F3178178E75A1E68
:102D50002CA901EB820252F8807C002F7FF774AF20
:102D600001370AE15A1E2CA901EB820252F8607C5D
:102D7000002F00F302816BE75A1E2CA901EB82029F
:102D800052F8607C002F7FF767AF013FF5E05A1ED5
:102D90002CA901EB820252F8807C002F00F3ED8019
:102DA0005EE7591E2CAA02EB810252F8A07C002F8C
:102DB0007FF75AAF013742F8A07CDEE00827CDF854
:102DC00000A000E001370E2F00F28D8094F81FA0C4
:102DD000524639466448FEF704F90028F2D15246BB
:102DE000791C6148FEF7FDF80028EBD1DDF800A062
:102DF0007BE008270F2F78D8E27F39465A48FEF744
:102E0000F0F8002871D00137F4E708270F2F6CD8AD
:102E1000E27F39465448FEF7E4F8002865D00137D0
:102E2000F4E70827CDF800A000E002370E2F6DD898
:102E300094F81FA0524639464B48FEF7D2F80028B6
:102E4000F3D15246791C4848FEF7CBF80028ECD164
:102E5000DDF800A049E008270E2F46D8E27F39466A
:102E60004148FEF7BEF800283FD00237F4E70827B4
:102E70000E2F3AD8E27F791C3B48FEF7B2F8A0B398
:102E80000237F5E7AA4544D201360BF1100296420B
:102E900011D8B0464FF0000AB8F10F0FF2D8E27F18
:102EA00041463148FEF79DF80028EBD10AF1010AAE
:102EB00008F10108F0E7DDF800A0DDF804B0DDF866
:102EC0000880039D3B4637461E460EE0082700E07B
:102ED00001370F2F09D8E27F39462348FEF781F8E2
:102EE0000028F5D101E0DDF800A0BAF14F0F2DD098
:102EF0001AD8BAF12F0F23D0BAF13F0F3DD10137C5
:102F00002CAB03EB8B0343F8407C36E0DDF800A0EC
:102F1000EBE7DDF800A0DDF804B0DDF80880039DE4
:102F20003B4637461E46E0E7BAF15F0F14D0BAF1D0
:102F30006F0F22D12CAB03EB8B0343F8A07C1CE07A
:102F40002CAB03EB8B0343F8207C16E02CAB03EB9C
:102F50008B0343F8807C10E001372CAB03EB8B0331
:102F600043F8607C09E000BF74410020A37F002B80
:102F70005CD1677F1F2F00F0AB80032F40F2E98008
:102F800094F82130002B40F0B1804FF0130A94F8F0
:102F900022300BB14FF0000A3378012B00F0A980EA
:102FA0000F2F00F2D98094F81FB05A4639466D4869
:102FB000FEF717F8002840F0D28004F12401694A96
:102FC0000BEB4B0BF42307FB03F303EB0B1B9344BB
:102FD000CBF80410E17F06F16F4000F5700001EBC3
:102FE000410103EB01115050E17F01EB410103EB83
:102FF00001111144A1F808A0E17F01EB410103EBAD
:103000000111114400278F72E17F01EB410103EBB5
:1030100001111144C862E17F01EB410103EB011092
:1030200008301044711C023018F036FE013596F855
:10303000E032AB4260DD41F2444405FB04F404F2AB
:1030400001343444B8F1020F3FF4E8ADB8F1030F96
:103050008CD0B8F1010FE9D1627FA2F11003DBB28D
:103060000E2B55D96F2A56D8A37F082B56D8E17F4F
:10307000002956D0042957D894F82010082956D88A
:1030800094F82110012955D894F82210012954D818
:1030900094F82310012953D80BB11F2A53D90BB927
:1030A0001F2A53D8002BC1D04F2A3FF4ADAD7FF675
:1030B00088AD5F2A3FF49EAD6F2AB7D1013B2CAAA1
:1030C00002EB830353F8A02C013A43F8A02CADE7A0
:1030D000082700E001370F2F3FF64FAFE27F394658
:1030E0002048FDF77EFF0028F4D146E74FF0000AA4
:1030F0004DE74AF0080A53E708F101085BE54FF095
:10310000670948462DB0BDE8F08F4FF06909F8E730
:103110004FF06709F5E74FF06709F2E74FF06709ED
:10312000EFE74FF06709ECE74FF06709E9E74FF089
:103130006709E6E74FF06709E3E74FF06709E0E763
:103140004FF06709DDE74FF06709DAE74FF06709ED
:10315000D7E74FF06A09D4E74FF06809D1E74FF09D
:103160006809CEE7744100202DE9F04383B006469C
:103170000C4615461F46FEF77BFB002800F0108129
:103180008046731F012B40F2E58005EB4502F423D6
:1031900004FB03F303EB0213B14A13441B8913F03E
:1031A000010F0DD12146AE48FDF7E9FE70B9731E3F
:1031B000052B00F2F280DFE803F00E3B5E81CDCDFF
:1031C0002A462146A74803F04FFCE9E02146A648DD
:1031D00003F04AFCE4E0A24BF42202FB04331B8F11
:1031E00013F0010F1FD1A14803F03EFC9C4C40F2AC
:1031F0001713A4F8E4360023C4F8DC36012584F85C
:103200009C579B4BC4F8E0361F229A4B196804F276
:10321000E66018F03BF92046FDF720FF96488580D0
:10322000FDF76CF8B9E02146944803F01DFCB7E0C7
:103230008B4BF42202FB04331B8F13F0010F15D1CB
:103240008F4803F011FC864C8E4B009340F217130D
:10325000012206212046FDF7EFFD2046FDF7FEFE88
:10326000854800230380FDF749F896E0214683480E
:1032700003F0FAFB94E07A4BF42202FB04331B8F39
:1032800013F0010F15D1804803F0EEFB744C7F4B17
:10329000009340F21713012206212046FDF7CCFDD2
:1032A0002046FDF7DBFE744801230380FDF726F876
:1032B00073E02146714803F0D7FB71E03846FDF713
:1032C00041FB8046B0F1FF3F26D02B4622463946CF
:1032D0006F4803F0C9FB08F1805606F580166D486B
:1032E00003F0C2FB6C4803F0BFFB314611F8012B21
:1032F000336A706A0190CDF80080684803F0B4FB2F
:103300003378032B0DD03378013BDBB2012B44D84B
:10331000634803F0A9FB43E03946624803F0A4FB8D
:103320003EE0614F07EB0800FEF7DAFF07EB08020B
:1033300008F128015D4803F097FB494FCDF8008064
:1033400017232A4621463846FDF74AFD3846FDF741
:1033500085FED8E73846FDF7F5FA0446B0F1FF3FA1
:1033600021D000F1805505F580154A4803F07CFB1B
:10337000494803F079FB294611F8012B2B6A686A4A
:1033800001900094454803F06FFB2B78032B0FD07E
:10339000012B4FD0022B00F0EF803748FCF7AEFF37
:1033A00003B0BDE8F08339463E4803F05DFBF7E724
:1033B0003D4D2819FEF794FF2A1904F128013C48D5
:1033C00003F052FB4FF00009082500E001350F2DF6
:1033D00012DCB9F1000F0FD1214BF42202FB0533AF
:1033E0001B8F13F0010FF1D129461D48FDF7C7FDD2
:1033F0000028EBD1C146EAE7B9F1000F12D03A46F6
:1034000029462C4803F030FB062E0FD0144E0094B2
:103410001723012229463046FDF7E2FC3046FDF72E
:103420001DFEBAE7244803F01FFBB9E7234803F069
:103430001BFBB5E7224803F017FB2846FFF78AFB82
:103440000446632859DDA0F16503052B50D8DFE859
:1034500003F0033B3F43474B1A4803F005FB9FE74C
:1034600074410020FC2C0210382D0210A42D0210F3
:10347000B4BD0310247D031040CB0020702D02103A
:10348000CC2D0210B49D0310FC2D0210B47D03104E
:10349000302E0210C02B02106C200210B820021037
:1034A000882E0210A82B021028001010582E02108F
:1034B000E02E02105C2F0210242F0210782F021031
:1034C000A42F0210B82F02102D4803F0CDFA67E7A1
:1034D0002C4803F0C9FA63E72B4803F0C5FA5FE70D
:1034E0002A4803F0C1FA5BE7294803F0BDFA57E721
:1034F0000146284803F0B8FA52E7274803F0B4FA27
:103500002648FDF7ABFD072C31D801A353F824F072
:10351000A1330010313500106F3500106F350010E9
:103520005D3500104B3500106F350010433500102D
:103530001B4803F099FA1B4801230380FCF7DEFEC9
:103540002EE7194803F090FA2AE7184803F08CFA9E
:10355000144801238380FCF7D1FE21E7144803F0CF
:1035600083FA104801234380FCF7C8FE18E7214680
:10357000104803F079FA13E70F4803F075FA0FE7E4
:10358000DC2F0210003002101C3002104C300210F0
:103590006C3002109C300210B830021074410020D0
:1035A000D830021040CB00200831021054310210F4
:1035B00088310210C43102100032021070B5064684
:1035C0000C46FEF755F9002800F0B180012E44D0DA
:1035D000022E72D031465D48FDF7D1FC00287BD128
:1035E000002C00F0948004EB4402F42306FB03F368
:1035F00003EB0213554A13441B8913F0010F00F02B
:103600009780224631465148FDF762FC22463146FA
:103610004F4803F029FA80E0224629464B48FDF73F
:1036200057FC0134042C13DC04EB4402F42305FBA7
:1036300003F303EB0213454A13441B8913F0010FF4
:10364000EFD029461046FDF79AFC0028E9D1E3E7C0
:1036500001350F2D03DC3446E4E70425F9E73D4846
:10366000002303808380FCF749FE3848FDF7F6FC11
:10367000394803F0F9F95AE0224629463348FDF764
:1036800027FC0134042C13DC04EB4402F42305FB77
:1036900003F303EB02132D4A13441B8913F0010FAC
:1036A000EAD129461046FDF76AFC0028E9D0E3E795
:1036B00001350F2D03DC0124E4E70425F9E7254853
:1036C000002303808380FCF719FE2048FDF7C6FC29
:1036D000224803F0C9F92AE03146214803F0C4F931
:1036E00025E00134042C14DC04EB4402F42306FB33
:1036F00003F303EB0213154A13441B8913F0010F64
:10370000EFD0224631461148FDF7E2FBE9E70124FC
:10371000E8E73146134803F0A7F9062E0ED0072E2E
:1037200010D00C48FCF7EAFD0848FDF797FC70BD87
:10373000224631460C4803F097F9F8E7054B002282
:103740001A80EEE7034B00229A80EAE774410020DA
:103750000033021040CB00203C32021070320210C5
:10376000A4320210E03202101C3302102DE9F041A5
:10377000ACB006460F46904620AC934D0FCD0FC41B
:103780000FCD0FC495E80F0007C4238018AC8F4DF0
:103790000FCD0FC495E80F0084E80F000DF1280C41
:1037A0008B4C0FCCACE80F000FCCACE80F000FCC6B
:1037B000ACE80F0094E803004CF8040B8CF8001000
:1037C00003AC844D0FCD0FC495E8070003C42270ED
:1037D000FEF74EF8002849D0062E10D07E4BF4227A
:1037E00002FB07331B8F13F0010F0FD1013E052E93
:1037F00000F2E680DFE806F00F0F426B94CA3B1F31
:103800000B2BEBD9754803F02FF92FE0394674489C
:1038100003F02AF92AE005216F48FDF7B0FB40BB11
:103820006D4C8023A4F8FC340026C4F8F464012312
:1038300084F8B4356B4BC4F8F83404F2FE451F220B
:103840006949284617F022FE84F81D650DF16008CD
:103850001F224146284617F019FE05275E48FDF74E
:10386000FDFB42463946614803F0FEF82CB0BDE846
:10387000F08139465E4803F0F7F8D1E70521564854
:10388000FDF77DFBF0B9544C8023A4F8F0350026F9
:10389000C4F8E865012384F8A836524BC4F8EC3527
:1038A00004F2F2551F225049284617F0EFFD84F824
:1038B00011660DF128081F224146284617F0E6FD43
:1038C0000627CBE739464B4803F0CEF8DBE7072164
:1038D0004148FDF754FBF0B93F4C8023A4F8E4368F
:1038E0000026C4F8DC66012384F89C373D4BC4F8FD
:1038F000E03604F2E6651F223B49284617F0C6FD74
:1039000084F805670DF10C081F224146284617F080
:10391000BDFD0727A2E73946374803F0A5F8DBE7E6
:103920004FB339462C48FDF72AFB50B32A4C0122ED
:1039300039462046FDF7CCFA002239462046FDF7ED
:10394000C7FA39462D4803F08FF88FE701340F2C62
:1039500013DC21462048FDF712FB0028F6D01E4D4F
:10396000012221462846FDF7B3FA002221462846C7
:10397000FDF7AEFAEAE70424E9E7214803F074F81A
:1039800074E739461F4803F06FF86FE7394612486D
:10399000FDF7F5FA78B9104C00230093802301223B
:1039A00039462046FDF71CFA434601223946204697
:1039B000FDF7BEFA52E73946134803F055F855E7CC
:1039C000124803F051F851E75835021088350210BB
:1039D000A8350210E0350210744100204033021077
:1039E0006433021028001010010010103C35021042
:1039F00098330210DC330210203402108834021095
:103A000064340210AC340210D83402101C35021099
:103A10002DE9F047D0B00546E0B10F4601EB410279
:103A2000F42300FB03F303EB0213BC4A13441B898A
:103A300013F0010F00F04F810146B848FDF772FB0B
:103A4000B74803F011F82D03AEB206F580581FFAFF
:103A500088F8A0E1B34803F007F8B34803F004F88E
:103A6000B24803F001F82E461FE004EB4403F422B1
:103A700006FB02F202EB0312A84B13440B449A7AA2
:103A800046AB5A5401311F29EFDD04EB4404F42303
:103A900006FB03F303EB0413A04A1A4446AB128956
:103AA0003146A34802F0E0FF01360F2E00F31881E3
:103AB0000124042CF8DC31469848FDF760FA18B16F
:103AC000012C01D12946DEE704EB4402F42306FB76
:103AD00003F303EB0213914A13441B8913F0010F04
:103AE0002FD013F4807F2ED040F0918022463146B3
:103AF000904802F0B9FF0134DBE704EB4403F42201
:103B000006FB02F202EB0312844B13440B449A7A35
:103B100046AB5A5401311F29EFDD012CEBD104EBE8
:103B20004402F42306FB03F303EB02137B4A134422
:103B30001B8946AA0092224631467F4802F094FF34
:103B4000D9E72946E7E74EAB224631467348FDF7F1
:103B50009DFA4FEA0639012C2BD01FFA89F9E3B2FE
:103B6000DFF8B8811F461A46494640461DF094F8D2
:103B7000824609F101013A4689B240461DF08CF8AF
:103B800004EB4402F42306FB03F303EB021308EBFC
:103B900003021189083343440233526803920293AB
:103BA000019100904EAB52462146644802F05CFF02
:103BB000A1E71FFA89F9E3B2DFF860811F461A46D0
:103BC000494640461DF068F8824609F101013A462F
:103BD00089B240461DF060F804EB4402F42306FB72
:103BE00003F303EB021308EB030211890833434488
:103BF0000233526804920393029101904EAB0093FA
:103C00005346224631464E4802F02EFF73E74FEAF4
:103C100006394EAB224631464048FDF737FA012CB3
:103C20002BD01FFA89F9E3B2DFF8F0801F461A465D
:103C3000494640461DF030F8824609F101013A46F6
:103C400089B240461DF028F804EB4402F42306FB39
:103C500003F303EB021308EB030211890833434417
:103C60000233526803920293019100904EAB524688
:103C70002146344802F0F8FE3DE71FFA89F9E3B225
:103C8000DFF898801F461A46494640461DF004F862
:103C9000824609F101013A4689B240461CF0FCFF18
:103CA00004EB4402F42306FB03F303EB021308EBDB
:103CB0000302118908334344023352680492039388
:103CC000029101904EAB00935346224631461E4866
:103CD00002F0CAFE0FE70A4601461C4802F0C4FE85
:103CE00050B0BDE8F0877119FAB289B20B481CF0E8
:103CF000D3FF0246164907A820440AF0D1F804442D
:103D000001350F2DEFDD07AB1919124A1088927893
:103D100018538A700234002525E000BF744100204A
:103D2000404F0210FC3502101036021048360210C7
:103D30009036021090370210D03602105037021021
:103D4000103702101C380210DC3702105C380210E9
:103D50008038021080290210134907A820440AF075
:103D60009FF8013401350F2D0DDC7119FAB289B2BB
:103D70000E481CF091FFC2B2A2F12003DBB25E2B11
:103D8000EAD92E22E8E71036B6B207A9084802F0B1
:103D90006BFEB045A4D93246064907A80AF080F860
:103DA00000250A24ADE700BF441002107441002032
:103DB000D82902107829021070B504460E46FDF786
:103DC00057FD002845D00546601E04283ED8DFE890
:103DD00000F003455667B600614802F045FE614BAE
:103DE0009B88A3B16049614802F03EFE5D4B1B8891
:103DF0007BB15D495E4802F037FE5A4B5B8853B198
:103E000059495C4802F030FE0424002106E05A497A
:103E1000E9E75949EEE75849F3E701340F2C14DC80
:103E2000564BF42202FB04331B8F13F0010FF4D026
:103E3000524B02FB043393F9F030002BEDDA2146AC
:103E40004F4802F011FE2946E7E719B14548FCF753
:103E500055FA70BD4B4802F007FEF7E7414B9B88CF
:103E600033B9404B01229A80474802F0FDFDEDE74F
:103E70003C4B00229A80454802F0F6FDE6E7394BBC
:103E80001B8833B9374B01221A80414802F0ECFD00
:103E9000DCE7344B00221A803E4802F0E5FDD5E70E
:103EA000364BF42202FB06331B8F13F0010F24D094
:103EB000324BF42202FB063393F9F030002B21DB66
:103EC00006F0FE012D4CF42303FB014090F8F02096
:103ED00062F07F0280F8F02001FB0333234493F863
:103EE000F02062F07F0283F8F0204A1C2A4802F09A
:103EF000BBFD2046FDF7B2F8A8E73146274802F09F
:103F0000B3FDA6E706F0FE011C4C134602FB014080
:103F100090F8F02002F07F0280F8F02001FB0333DC
:103F2000234493F8F02002F07F0283F8F0204A1C2B
:103F30001B4802F099FD2046FDF790F886E7094BF3
:103F40005B8833B9074B01225A80164802F08CFD7A
:103F50007CE7044B00225A80134802F085FD75E788
:103F60008838021040CB0020BC5502109C3802104B
:103F7000B8380210D4380210D83902107441002029
:103F8000F038021028390210603902107C39021012
:103F900098390210BC390210643A0210E439021058
:103FA000203A0210A83A0210CC3A021070B582B042
:103FB0000546FCF7C7FCB0F1FF3F28D00446FDF7EB
:103FC00057FC48B304F1805606F580162946184878
:103FD00002F04AFD174802F047FD174802F044FD81
:103FE000164802F041FD314611F8012B336A706A20
:103FF00001900094124802F037FD00212046FCF7A2
:10400000C1FC78B129460F4802F02EFD08E0294690
:104010000D4802F029FD03E029460C4802F024FD7A
:1040200002B070BD29460A4802F01EFDF8E700BF45
:10403000183B0210383B0210C02B02106C200210FB
:10404000B82002106C3B0210A82B0210F03A0210AC
:104050008C3B021010B509281FD004460A281ED038
:10406000A44B1B8873B3013C072C15D8DFE814F070
:104070002E00C400DC00EB00FA0007012401390126
:10408000E0B205F0C3FB01345A2CF9DD002005F045
:10409000BDFBE02005F0BAFB10BD4124F4E702F0BF
:1040A00075FA0A2007F0A0FC4FF050435B6813F04C
:1040B000080F05D0904A0321904802F0D5FCEBE7A9
:1040C0008F4AF8E78F4802F0CFFCCCE7894BB3F872
:1040D000A6306BB188498C4802F0C6FC854BB3F81A
:1040E000A030032B00F28280DFE803F00474787CB8
:1040F0008349F0E7854802F0B7FC854B1B78002B1D
:1041000078D08449844802F0AFFC844C21888448EC
:1041100002F0AAFC2188C90B824802F0A5FC218884
:10412000C1F38031804802F09FFC2188C1F3403107
:104130007E4802F099FC2188C1F300317C4802F0EE
:1041400093FC2188C1F3C0217A4802F08DFC2188BC
:10415000C1F38021784802F087FC2188C1F3402117
:10416000764802F081FC2188C1F30021744802F0F6
:104170007BFC2188C1F3C011724802F075FC2188D4
:10418000C1F38011704802F06FFC2188C1F3401127
:104190006E4802F069FC2188C1F300116C4802F0FE
:1041A00063FC2188C1F3C0016A4802F05DFC2188EC
:1041B000C1F38001684802F057FC2188C1F3400137
:1041C000664802F051FC218801F00101644802F0C8
:1041D0004BFC61E7634802F047FC8EE7624802F05F
:1041E00043FC8AE7614802F03FFC86E7604802F042
:1041F0003BFC82E75F4985E73E4BB3F8A63063B1ED
:104200003C4B0022A3F8A6203A4BB3F8A6304BB1A2
:1042100039493D4802F028FC3EE7364B0122A3F81D
:10422000A620F1E73649F4E73C4A13886FEA434396
:104230006FEA534313802F4B0222A3F8A0204E486D
:1042400002F012FC28E7354A1388C3F30D0343F448
:1042500080431380274B0122A3F8A020474802F097
:1042600003FC19E72D4A1388C3F30D031380214B78
:104270000022A3F8A020424802F0F6FB0CE7274AF0
:10428000138883F400639BB213801A4AB2F8A42007
:104290005AB1184A0021A2F8A41013F4006F09D0F3
:1042A0001C49384802F0E0FBF6E6124A0121A2F868
:1042B000A410F2E72F49F4E70E4B1B881BB93248D4
:1042C00002F0D2FBE8E6154A138843F4005313804A
:1042D0002E4B02221A6002F07FF92D4802F0C4FB37
:1042E000DAE6044B1B88002B54D1274802F0BCFBB4
:1042F000D2E600BF40CB0020B03B0210B83B02101A
:10430000B43B0210D43B0210303C0210443C02107B
:1043100001D10020B8540210C03C02100432002029
:10432000D43C0210EC3C0210203D0210703D021003
:10433000A03D0210D83D0210043E0210303E021093
:10434000543E0210803E0210B03E0210F43E0210B5
:10435000243F0210583F0210883F0210B83F02105D
:10436000EC3F02105C3C0210743C02108C3C0210CA
:10437000A43C021050100210204002103C400210D9
:1043800058400210744002109840021050D0002093
:10439000C8400210064A138843F480531380054B2B
:1043A00002221A6002F018F9034802F05DFB73E67E
:1043B0000432002050D00020E44002100000000031
:1043C00010B584B00446FDF753FA80B1601E0B2887
:1043D0000DD8DFE800F0060E32560C0C0C0C0C6EFB
:1043E000757C414BB3F87810404802F03DFB04B0B7
:1043F00010BD3F4802F038FB3B4BB3F878103B4808
:1044000002F032FB002400E00134B4F5007FEEDA64
:1044100004F57052082300936B44D20005213548FF
:104420001CF032FC029A039B52EA0301ECD004F523
:104430000071314802F018FBE6E729A3D3E9002315
:10444000CDE90223002412E0029B13F10133039A09
:1044500042F101320293039204F570520823009353
:104460006B44D200052123481CF032FC0134B4F522
:10447000007FE9DB214802F0F7FA214802F0F4FA64
:10448000B5E700220023CDE9022300240AE004F569
:104490007052082300936B44D200052115481CF08C
:1044A00017FC0134B4F5007FF1DB164802F0DCFAAA
:1044B0009DE70D480023A0F87830FBF71FFF96E733
:1044C00009480123A0F87830FBF718FF8FE706486A
:1044D0000223A0F87830FBF711FF88E7AFF30080E4
:1044E000414041404140414040CB0020004102104A
:1044F0001C410210000008405041021064410210AB
:1045000098410210B441021038B50C4601380A280F
:1045100055D8DFE810F00B0063008A00AC00BA0049
:10452000CA00DA00EA00FA000A0118018C4DB5F859
:1045300054102C2404FB01F2920A8A4802F094FAE7
:10454000B5F8561004FB01F2920A874802F08CFA83
:10455000AB8F002B34D08549854802F085FA804B1B
:10456000B3F85030002B2DD08049824802F07CFAFD
:104570007B4BB3F846303BB37C497F4802F074FA7A
:10458000774BB3F852300BB378497C4802F06CFAA1
:10459000734BB3F86630DBB17449794802F064FAC2
:1045A0006F4BB3F86830ABB17049764802F05CFAF3
:1045B0006B4BDB8F83B16D49734802F055FA38BD00
:1045C0007249C9E77149D0E77049D6E76F49DCE71E
:1045D0006E49E2E76D49E8E76C49EDE7FDF748F918
:1045E000D8B15F4BB3F854102C2201FB02F268489B
:1045F00002F03AFA002CE2DDA4F57A7242F2283396
:104600009A420ED8564DA5F854402146614802F012
:104610002BFA2846FBF772FED1E75F4802F024FA36
:10462000CDE75E4802F020FAC9E7FDF721F9B0B105
:104630004B4BB3F856102C2201FB02F2584802F003
:1046400013FA002CBBDDA4F12003E02B0BD8444B64
:10465000A3F856402146534802F006FAAFE74E4809
:1046600002F002FAABE7504802F0FEF9A7E73C4A35
:10467000938FB3FA83F35B09938723B13B494B488C
:1046800002F0F2F99BE74149F9E7354AB2F85030B8
:10469000B3FA83F35B09A2F8503023B1334944489D
:1046A00002F0E2F98BE73949F9E72D4AB2F84630D2
:1046B000B3FA83F35B09A2F8463023B12B493D4896
:1046C00002F0D2F97BE73149F9E7254AB2F85230D6
:1046D000B3FA83F35B09A2F8523023B12349364879
:1046E00002F0C2F96BE72949F9E71D4AB2F86630D2
:1046F000B3FA83F35B09A2F8663023B11B492F4854
:1047000002F0B2F95BE72149F9E7154AB2F86830DF
:10471000B3FA83F35B09A2F8683023B11349284840
:1047200002F0A2F94BE71949F9E70D4AD38FB3FA22
:1047300083F35B09D38723B10C49224802F094F933
:104740003DE71249F9E7FDF793F800283FF437AF4A
:104750000348FBF7D3FD1C4802F086F92FE700BFA2
:1047600040CB0020E041021014420210C852021057
:104770004842021068420210AC420210D8420210B5
:10478000004302102043021040430210D8390210A7
:104790009C4302100044021060430210C843021000
:1047A00054440210BC44021084440210E444021039
:1047B0000045021040450210684502108C45021069
:1047C000A8450210C4450210E04502102DE9F04151
:1047D000BAB004460D4600201CF082FA06469F231C
:1047E0001F936022002120A816F0FCFC06AF4FF0BA
:1047F000640842460021384616F0F4FC4246394629
:104800001FA81CF019FA9DF81B30012101FA03F7CB
:10481000FDF72EF8002832D0631E042B2FD8DFE8D6
:1048200003F003364D50760038A809F031FF9DF8AB
:10483000E3309DF8E4209DF8E5109DF8E6009DF832
:10484000E740049403900291019200939DF8E230B6
:104850009DF8E1209DF8E010384802F005F9314656
:10486000374802F001F90421364802F0FDF83A46D3
:10487000002F07DB12153946334802F0F5F83AB03D
:10488000BDE8F08107F57F2202F6FF72F2E72F4BB9
:104890009D420DD005F580532D4A13602C4B1A68AC
:1048A00029462C4802F0E0F82846FBF797FFE6E798
:1048B000274B1D6805F580521A60EFE7FBF738FFBC
:1048C000DDE7254802F0D0F84FF47A7400214FF06C
:1048D000FF300BF025FB022007F086F8002004F0E3
:1048E0006AF868B9013CF1D11C4802F0BDF8FBF749
:1048F000DDFE1B4802F0B8F81A4802F0B5F8BEE732
:10490000002004F05DF8184802F0AEF8B7E70F4B4E
:104910009D420DD005F58053144A1360134B1A685D
:104920002946134802F0A0F8284601F0D9FFA6E76F
:104930000E4B1D6805F580521A60EFE70046021025
:10494000344602105C460210904602104342414039
:1049500034CB0020CC4602100847021064470210F6
:104960007C470210984702105047021038CB0020B5
:10497000DC4702102DE9F04F95B05F4802F074F863
:1049800041238DF828300AAF5C4D0FCDCDF82900BA
:10499000CDF82D10CDF83120CDF835302868CDF880
:1049A0003900AB88ADF83D304FF01F09CDF8489085
:1049B00002AE534A334607CA03C31A804FF4807AC3
:1049C000CDF84CA04F4D4FF02808CDF800803B4665
:1049D0000022052128461CF07BF9CDF800903346D3
:1049E0004246052128461CF073F930238DF8283003
:1049F0004FF0FE09CDF84890434E0FCECDF8290078
:104A0000CDF82D10CDF83120CDF8353033788DF834
:104A100039304FF4D37BCDF84CB0CDF800803B4615
:104A20005246052128461CF053F9CDF80090374B2B
:104A30004FF49472052128461CF04AF920238DF882
:104A40002830334E0FCECDF82900CDF82D10CDF8FB
:104A50003120CDF8353033788DF839304FF4746625
:104A6000129641F20E19CDF84C90CDF800803B46DD
:104A70005A46052128461CF02BF90096254B4FF489
:104A8000E772052128461CF023F940238DF82830D1
:104A9000214E0FCECDF82900CDF82D10CDF83120C4
:104AA000CDF8353033788DF839304FF48046129692
:104AB00045F236141394CDF800803B464A46052152
:104AC00028461CF005F90096144B41F236120521D8
:104AD00028461CF0FDF8FF238DF8283001230093B1
:104AE0003B462246052128461CF0F2F80C4801F00E
:104AF000BBFF15B0BDE8F08F18480210384802100F
:104B0000C0150210000008405048021040CB0020A1
:104B1000644802107441002078480210C4500020FC
:104B20008C48021070B5A2B001F05EFF40B12D4874
:104B300001F09AFF2C4801F097FF0026344621E04F
:104B40002A4801F091FF4FF48071294801F08CFF51
:104B500022B070BDC4F580253146264801F084FF9F
:104B60002146254801F080FFAA0A4FF480212348FE
:104B700001F07AFFECE7224802F076FE214801F0CE
:104B800073FF219CB4F5802FE2D200214FF0FF305B
:104B90000BF0C6F92823009318AB224605211A48CA
:104BA0001CF072F89DF86030FF2BD3D004AD219A31
:104BB00002920194209A00920DF161021349284655
:104BC00009F06EF9284602F04FFE721C9DF8603025
:104BD000002BD0D07F2B01D01646CFE70C4802F037
:104BE00043FECBE7C02B02106C200210AC48021031
:104BF000E8480210382C0210702C0210AC2C021065
:104C00000C2C02101891021000000840B82002106D
:104C1000242C021030B585B004460D46FCF728FE62
:104C2000F0B1601E05281BD8DFE800F0031C334CF0
:104C3000727802A801F0A6FE9DF80B3000939DF853
:104C40000A309DF809209DF80810374801F00CFF44
:104C50009DF80A10C1F38201CA01344801F004FF33
:104C600005B030BD324B9D420DD005F58053314A21
:104C70001360304B1A6829462F4801F0F5FE28468C
:104C800001F02EFEECE72B4B1D6805F580521A60F3
:104C9000EFE72A4801F0E8FE002001F00BFE014694
:104CA000274801F0E1FE002001F004FE44F2410338
:104CB000984203D02348FCF7B1F9D1E7224801F02C
:104CC000D3FECDE7214801F0CFFE214801F0CCFE14
:104CD0004FF47A7400214FF0FF300BF021F90220DD
:104CE00006F082FE002003F066FE50B9013CF1D1CF
:104CF000184801F0B9FE01F055FE174801F0B4FE66
:104D0000AEE7002003F05CFE144801F0ADFEA7E71B
:104D1000134801F0A9FEFFF72DFEA1E7114801F0AD
:104D2000A3FEFFF7FFFE9BE7144902103C49021067
:104D30004342414038CB0020DC470210604902105A
:104D400084490210744100209C490210C849021095
:104D5000044A0210684A0210804A0210504A0210A7
:104D6000904A0210B04A0210F0B5ADF20C4D064662
:104D70000122014602A80FF095FD074628B93146E9
:104D8000BAA816F089FF00240EE014F083FD024655
:104D90003B463146684801F067FE41E0BAAD285D08
:104DA00015F0D0FC28550134BAA817F089F8A042B4
:104DB000F4D8069A3146614802F056FD2F2130465C
:104DC00016F096FB00B1461CC2AC02AA4FF48071EB
:104DD000204610F0D4FC204617F072F8012808D9BC
:104DE0002146574801F040FE3146564801F03CFE4E
:104DF00028E0554801F038FEF6E7384614F04AFD41
:104E000002463B463146514801F02EFE204610F046
:104E1000ABF802A810F0A8F831464D4801F024FE86
:104E20000DF20C4DF0BD70280CD072282BD1C2AC05
:104E30004849204616F0D2FA00232354214646481A
:104E400002F012FD1098119A0699079B9A4208BF2A
:104E50008842DED000214FF0FF300BF061F802AC49
:104E600022464FF48071C2A810F089FC9DF83930B9
:104E7000002BC2D19DF808035228D8D0D3D80028DF
:104E8000E0D05028DED015F055FC0028DAD0C2ADB5
:104E9000002409E0023501A843701022002115F01A
:104EA00033FC9AAB185501342B78A3B10D2B12D0DB
:104EB0000A2B10D00022ADF804208DF806202A78A5
:104EC0008DF804206B780D2BE4D842F20142DA40D1
:104ED00012F0010FDED0002505E09AA929441F48F1
:104EE00006F050FF0135AC42F7DC01F0DBFB01F0CE
:104EF00073FB21461A4802F0B7FC002505E09AAB87
:104F0000595D184802F0B0FC0135AC42F7DC164898
:104F100001F0AAFD00214FF0FF300BF001F8002056
:104F200003F036FD582801D078288BD131460F4840
:104F300001F09AFD6DE700BF481F0210C84A021039
:104F4000EC4A0210284B0210004B02105C4B02107E
:104F5000D44B021080C50210804B02101C9200201E
:104F60008C4B0210A44B0210404F0210AC4B0210AD
:104F70002DE9F04393B006460023ADF844308DF898
:104F8000463016F09DFF07463378222B07D0272B9B
:104F900040F04282012800F00C810124D5E1002379
:104FA0008DF8243070238DF8253001250224C5E0CA
:104FB00005F10108474540F2BF8016F808904846C1
:104FC00015F0B8FB002861D0A9F13003DBB2A9F1DC
:104FD0004102D2B2052A02D8A9F13703DBB2A9F106
:104FE0006102D2B2052A02D8A9F15703DBB21B0134
:104FF0005FFA83F804F148036B4403F8248C02350C
:10500000AF4240F29A8016F80590484615F092FBA0
:10501000002800F09280A9F13003DBB2A9F141022F
:10502000D2B2052A02D8A9F13703DBB2A9F1610295
:10503000D2B2052A03D8A9F157095FFA89F303F020
:105040000F0348EA030804F148036B4403F8248C77
:10505000631C1F2B0ED91C46102C00DD10249DF85C
:105060002530A21E02F00F0213438DF825300122D5
:10507000002377E0B8F10F0F06D804F148020DEBDA
:105080000204202204F8242C1C4656E0B9F1530FE8
:1050900026D013D8B9F1270F45D0B9F12B0F28D05E
:1050A000B9F1230F08D104F148036B441D2203F822
:1050B000242C0134454640E045463EE0B9F1730FEB
:1050C00028D0B9F1740F1CD0B9F15C0F47D104F1AD
:1050D00048036B445C2203F8242C013445462CE041
:1050E00004F148036B447E2203F8242C0134454626
:1050F00023E0802204F148036B4403F8242C454646
:105100001BE004F148036B44602203F8242C0134B3
:10511000454612E004F148036B44202203F8242C96
:105120000134454609E004F148036B44272203F8A3
:10513000242C0134454600E045460135BD428BD262
:10514000735D5C2B3FF434AF222B85D004F1480211
:105150006A4402F8243C01341F2CEED97CE7454612
:10516000EBE7013294420BDD02F14801694411F88A
:10517000241C0B449BB2FF2BF3D9DBB20133F0E7C5
:105180008DF8243000250CE005F148036B4413F83A
:10519000243C8DF847300DF14701B94806F0F2FD87
:1051A0000135AC42F0DC01F07DFA01F015FA012086
:1051B000AFE014238DF824300C238DF825304FF008
:1051C00050435B6813F4003F14D000214FF0FF30D0
:1051D0000AF0A6FE002003F0EEFB18B9142006F03A
:1051E00003FCECE7002003F0D3FBA64801F03CFCF5
:1051F00000208EE014238DF847300DF14705A04CB8
:105200002946204606F0BEFD0C238DF8473029467E
:10521000204606F0B7FD01F045FA01F0DDF9012066
:1052200077E0B8F1220F1AD3A8F12203092B16D880
:10523000DFE803F0133015151511151515075C225D
:105240002BE07F2229E0602227E0202225E00C22AB
:1052500023E00D2221E027221FE022221DE040460C
:1052600015F068FA0246C0B1A51CAF4214D9745DAE
:10527000204615F05FFA024678B18DF844808DF82B
:1052800045401022002111A815F03EFAC2B204E0F8
:105290007E2202E01D2200E000227B4B13F8121058
:1052A0008DF8241003EB42035B788DF825302C46F3
:1052B0000EE0202B00F08F82272B1CD0724A12F8B0
:1052C00013108DF8241002EB430253788DF825302B
:1052D0004FF050435B6813F4003F1DD000214FF0A6
:1052E000FF300AF01DFE002003F065FB50B91420CA
:1052F00006F07AFBECE714238DF824300C238DF8AC
:105300002530E5E7002003F043FB5E4801F0ACFBED
:10531000002013B0BDE8F0839DF824308DF84730AD
:105320000DF14708564D4146284606F02BFD9DF8E5
:1053300025308DF847304146284606F023FD01F020
:10534000B1F901F049F925466C1CBC4262D2335DCB
:105350005C2BAED1651CAF42F6D916F80580B8F1CA
:105360002B0F7FF65EAFB8F1750F3FF678AFB8F14F
:10537000530FFFF474AFA8F15303222B3FF66FAF26
:1053800001A252F823F000BF915200105F520010AA
:105390005F5200105F5200105F5200105F52001009
:1053A0005F5200105F5200105F5200103F52001019
:1053B0005F5200105F5200105F5200105F520010E9
:1053C000535200105F5200105F5200105F520010E5
:1053D0005F5200105F5200105F5200105F520010C9
:1053E0005F5200105F5200105F5200105F520010B9
:1053F0005F5200105F5200105F5200105F520010A9
:105400005F5200105F5200104B52001047520010C4
:105410004F52001001207CE72022314601A816F0EF
:1054200035F8002407E015F08DF904F148036B44CA
:1054300003F8440C013404F148036B4413F8440CA2
:105440000028F0D1002435E03146104801F00CFB73
:1054500000205EE704EB440304EB830408340C4BA8
:105460001C44074DA11C284606F08CFCE11C284674
:1054700006F088FC01F016F901F0AEF8012048E7CB
:105480001C920020E84B0210C0DF0310184C0210E1
:10549000C0E0031004EB440104EB81010831D04B60
:1054A00019440231CF4806F06DFC01F0FBF801F021
:1054B00093F801348B2C6DDC04EB440304EB830381
:1054C000C749194401A816F009FB0028F1D104EBE3
:1054D000440204EB8202C24B13441B7B062B54D8BC
:1054E00001A252F823F000BF495400105554001097
:1054F0009554001005550010315500105D550010F1
:105500006955001004EB440304EB83040834B44BE6
:105510001C44B44DA11C284606F034FCE11C28466E
:1055200006F030FC01F0BEF801F056F80120F0E67C
:1055300004EB440304EB83040834A94B1C44A94D39
:10554000A11C284606F01EFCE11C284606F01AFCA9
:1055500001F0A8F801F040F80120DAE63146A2484F
:1055600001F082FA0020D4E604EB440304EB83014B
:1055700008319B4B194402319A4806F003FC01F0B4
:1055800091F801F029F80120C3E63146974801F06F
:105590006BFA8EE73378452B0DD82D2BC0F01D818B
:1055A0002D3BDBB29248D84010F001003FF4B1AE81
:1055B0000024254667E0652B02D10024254662E0E1
:1055C0000020A6E600238DF847304FF050435B687B
:1055D00013F4003F47D000214FF0FF300AF0A0FC49
:1055E000002003F0E8F9B0BB142006F0FDF9ECE769
:1055F00081238DF84730E8E742238DF84730E4E710
:10560000C3238DF84730E0E724238DF84730DCE7EB
:10561000A5238DF84730D8E766238DF84730D4E7C7
:10562000E7238DF84730D0E718238DF84730CCE7D3
:1056300099238DF84730C8E75A238DF84730C4E7DF
:10564000DB238DF84730C0E7DB238DF84730BCE71C
:105650000134012517E0002003F09AF9654801F0B4
:1056600003FA002055E60DF147015E4806F08AFB7B
:1056700001F018F800F0B0FF012300E000230BB1A7
:10568000002D7DD10134BC4280F0A380335D2D3BE1
:10569000382BF3D801A252F823F000BF5156001066
:1056A000395600107D560010C5550010F1550010F8
:1056B000F95500100156001009560010115600103F
:1056C00019560010215600102956001031560010AE
:1056D0007D5600107D5600107D5600107D5600103E
:1056E0007D5600107D5600107D5600107D5600102E
:1056F0007D5600107D5600107D560010415600105A
:105700007D5600107D5600107D5600107D5600100D
:105710007D5600107D5600107D5600107D560010FD
:105720007D5600107D5600107D5600107D560010ED
:105730007D5600107D5600107D5600107D560010DD
:105740007D5600107D5600107D5600107D560010CD
:105750007D5600107D5600107D5600107D560010BD
:105760007D5600107D5600107D5600107D560010AD
:105770007D5600107D5600107D56001049560010D1
:105780003C238DF847304FF050435B6813F4003FE3
:1057900014D000214FF0FF300AF0C2FB002003F0CC
:1057A0000AF918B9142006F01FF9ECE7002003F0FD
:1057B000EFF8104801F058F90020AAE50DF1470173
:1057C000084806F0DFFA00F06DFF00F005FF002545
:1057D00058E701209DE501209BE5002099E500BFE9
:1057E000C0E003101C920020184C0210384C02102C
:1057F000FB1F0001E84B021010B5B0B0394B5B88BD
:105800005BB1014610AC8022204615F03FFE00231C
:105810008DF8BF3023782BB958E0334801F024F9D4
:1058200054E001342378202BFBD0222B01D000231D
:105830003EE001348DF80030012306E0013403F12D
:10584000C001694401F8C02C013322781AB1222A20
:1058500001D03E2BF2D9222A1BD0C0336B44002248
:1058600003F8C02C6946214801F0FEF84FF0504380
:105870005B6813F4003F2BD000214FF0FF300AF09B
:105880004FFB002003F097F8D0B9142006F0ACF8D5
:10589000ECE7013403F1C001694401F8C02C013385
:1058A000DBE7013403F1C001694401F8C02C013386
:1058B0002278002AD1D0202ACFD03E2BF1D9CCE7B4
:1058C000002003F065F80A4801F0CEF830B010BDB2
:1058D0006846FFF74DFB00289CD16946054801F05A
:1058E000C3F8F3E740CB0020584C0210A44C021040
:1058F000E84B0210C84C021030B585B0544B5B88A1
:1059000043B11446431E042B07D8DFE803F0081008
:10591000292D75004F4801F0A7F805B030BD4E495C
:105920004E4801F0A1FF4E4801F09EF8F5E74D48C2
:1059300001F09AF8E023ADF80E300DF10E054A4C57
:105940002946204606F014FA8623ADF80E30294683
:10595000204606F00DFA00F0A5FE00F03DFEDCE763
:105960000846FFF701FAD8E7404801F07DF8002427
:1059700003E03F4801F078F801348B2CCDD804EBDC
:10598000440104EB81013B4B19440D7BCB7A00931E
:105990008B7A2A46384801F067FF062D28D801A3E4
:1059A00053F825F073590010C1590010C95900105F
:1059B000D1590010D9590010E1590010E9590010CF
:1059C0002E4801F051F8D7E72D4801F04DF8D3E704
:1059D0002C4801F049F8CFE72B4801F045F8CBE718
:1059E0002A4801F041F8C7E7294801F03DF8C3E72C
:1059F000284801F039F8BFE70CB123781BB92648D5
:105A000001F032F889E7ECB12378DBB12349204675
:105A100015F084FD0546A8B10022114614F074FE6D
:105A20008DF80D00C1B20A461D4801F01DF80DF1B8
:105A30000D010D4806F0A6F9284616F041FA01308E
:105A40000444E0E700F02EFE00F0C6FD65E700BF6D
:105A500040CB0020584C0210BC550210F04C0210F4
:105A6000104D02103C4D02101C920020604D02109F
:105A7000A84D0210C0E00310844D0210BC4D02106E
:105A8000E04D0210FC4D0210144E02103C4E02106C
:105A9000604E0210804E02109C4E021018910210AF
:105AA000B44E021010B504460146084808F062FCE6
:105AB000A4F13003092B02D81C46054B1C60044B93
:105AC0001968044808F056FC10BD00BFEC4E0210E7
:105AD000AC310020184F021070B582B004465E4809
