:020000041000EA
:10000000002008205D0100101B010010E581011097
:100010001101001011010010110100101101001058
:100020001901001019010010190100101F01001022
:100030006981011019010010210100102301001035
:100040001101001011010010110100101101001028
:100050001101001011010010110100101101001018
:100060001101001011010010110100101101001008
:1000700011010010110100101101001011010010F8
:1000800011010010110100101101001011010010E8
:1000900011010010110100101101001011010010D8
:1000A00011010010110100101101001011010010C8
:1000B00011010010110100101101001011010010B8
:1000C00011010010110100101101001011010010A8
:1000D0001101001011010010110100101101001098
:1000E0001101001011010010110100101101001088
:1000F0001101001011010010110100101101001078
:100100001101001011010010110100101101001067
:10011000EFF30580103800BE00BE00BE00BE00BE7A
:1001200000BE00BEF2EB8871CCC30310FCC3031009
:10013000A001001090A31AE7D3DEFFFF42012110B7
:10014000FF0100006C000400793512AB4FF0000095
:100150001E49086006C881F3088810474FF05040D8
:10016000006810B14FF00000F2E70DA40ECC00299A
:1001700002D000F012F8F9E71549164A002000E015
:1001800001C19142FCD11449884714498847144958
:10019000884700BEFDE701C901C29A42FBD3704700
:1001A000FCC3031088010020303F0020A40104108C
:1001B0000000082000000820A401041000100820FE
:1001C00000100820000000007047000008ED00E06B
:1001D000303F00200CB3002085CC001065030010D8
:1001E00049CC0010F8B500BF064B0749C91A891061
:1001F00048BF0131491003D0044B0BB101481847E7
:10020000704700BF303F0020303F0020000000005A
:1002100008B5054B1BB105490548AFF30080BDE8A3
:100220000840FFF7E1BF00BF0000000034B200202B
:10023000A0F7011070B584B005460C4601AB02AAC8
:1002400003A90AF095FD18B954B9204604B070BD51
:100250000646019A029903980AF058FD3446F4E7DD
:100260002946014809F086FAA0F70110002203E0B0
:10027000002120F8121001325D2AF9DD44F241021A
:10028000A0F8B8200022C2830284428402808280C7
:10029000A0F8A020A0F8A220A0F8A420A0F8A620F2
:1002A000A0F8A820A0F8782001228287C287A0F8B1
:1002B0004620A0F85020A0F8522041F28832A0F841
:1002C00054202022A0F856204FF05042526812F4D9
:1002D000003F01D00020704700B583B0FE2200929D
:1002E00003464FF4E832052103481FF011FA0120BC
:1002F00003B05DF804FB00BF000008404FF050431E
:100300005B6813F4003F01D00020704700B583B054
:10031000FE23009303464FF4E832052103481FF003
:10032000F7F9012003B05DF804FB00BF00000840AE
:100330004FF050435B6813F4003F01D0002070473A
:1003400000B583B0FE23009303464FF4E832052145
:1003500003481FF0B9F9012003B05DF804FB00BFAA
:100360000000084000B583B001214348FFF762FF59
:100370000CF0D4FD07F0B2FF01F034FB07F0CEFF24
:100380004FF47A700AF0A6F9192007F09BFF4FF49A
:100390007A700AF09FF9192007F094FF01231C4698
:1003A0008DF8043000208DF8050001A90EF00AF840
:1003B00007F01EFA1C2344EC403005F021FA08F047
:1003C00079FC08F0BFF901F00DFB2C4C2046FFF73B
:1003D000AFFFB4F8B82044F241039A4244D107F089
:1003E0005DFA08F061F808F015F824480123C3838A
:1003F00003848380FFF782FF06F078F901F03CFB6D
:1004000019234FF0000242EC403005F055F908F096
:1004100001FF0DF051FB1A480DF0EAFB04F0C2FD9C
:1004200004F094FC0DF010FB164B02221A60A3F5A9
:1004300000531B6883F4804303F47043124A136033
:1004400001F0D0FA05F042F900214FF0FF300EF034
:10045000A7FB06F02BF904F0D3FB07F08DFA08F0A8
:100460002DF808F0E5FAEDE72046FFF7FFFE2046FD
:10047000FFF744FFB3E700BF48E8010010AD0020DC
:100480003D06002000200A4000100A4070B50446D6
:100490000D4616460023DB8A002242E800F212F4E1
:1004A000800F0BD1102144F24F10984703460D4A9C
:1004B000D2F8142842B96FF0120070BD042144F242
:1004C0004F1098470346F2E7BFF35F8F3246294645
:1004D00020469847BFF35F8F024B0022C3F81428D1
:1004E000EBE700BF00000E4010B588B004464FF4A3
:1004F000806220216846FFF7C9FF41B251B900234D
:100500001F2B13DC03F120026A4412F8202C2AB9B5
:100510000133F5E7214805F059FAF0E74FF482611D
:100520001F4805F053FA002008B010BD002305E075
:1005300003F12001694401F8202C01331F2B09DC51
:10054000E25C002AF4D1002103F120026A4402F89F
:10055000201CF2E74FF4413220216846FFF796FF56
:1005600041B289B921460F4805F030FA4FF4013203
:1005700020216846FFF78AFF41B251B969460A480F
:1005800005F024FA0120CFE7084805F01FFA002003
:10059000CAE7074805F01AFA0020C5E7D4F70110AA
:1005A00014F8011088F80110D8F8011050F8011063
:1005B000B0F8011010B5A0B004464FF4806240219D
:1005C0000DEB0100FFF762FF41B209B9002319E00A
:1005D000144805F0FBF9002022E05A0020A901EBA5
:1005E000430111F8400C03F18001694401F8800CCB
:1005F00081326A4412F8400C03F181026A4402F825
:10060000800C02331E2BE8DD002306E003F180029C
:100610006A4412F8802CE25401331F2BF6DD0120CE
:1006200020B010BDF0F8011010B54FF4FA740BE0D3
:1006300002200AF04FF8013C002007F00DF80021DD
:100640004FF0FF300EF0ACFA002CF1DC10BD0000D2
:1006500070B5FFF7E9FF00244FF4801516E02A4635
:1006600021460C4805F0B2F9FFF7DEFFEFF31083E7
:1006700072B6094E33604FF4801128461FF03CF8E3
:10068000336883F3108805F580150134022CE6DD0C
:1006900070BD00BF28F90110047400200346014416
:1006A000B1F5401F0ED80A48006810F803C018467C
:1006B0001344994202D9BCF1FF0FF4D0BCF1FF0FF3
:1006C00002D07047002070474FF0FF30F9E700BFBD
:1006D0003031002030B5C1B0012219490020FFF7A8
:1006E000DDFFB0F1FF3F25D1164805F06FF94FF45B
:1006F0008072FF21684619F0EBFA41258DF8005011
:100700001E2211490DF1010019F0DEFB00238DF8C6
:100710001F30022308934FF48072099240238DF812
:1007200028308DF8295069464FF480101EF098FF4C
:1007300041B030BD0146054805F048F9F8E700BF73
:1007400000FF2F0060F9011088F90110A0F90110D5
:10075000034B1B78412B01D00020704701207047CC
:1007600000001010F0B5C1B0054600F58057B7F590
:10077000401F34D94FF4401731E01E4B1B685A5DBF
:100780001D4901A820440CF0CBF903340135013692
:100790000F2EF2DD103D01AB1919184A108892781E
:1007A00018538A700234002607E0154901A8204436
:1007B0000CF0B6F90134013501360F2E09DC0D4B72
:1007C0001B685A5DA2F12003DBB25E2BEDD92E220D
:1007D000EBE701A90B4805F0F9F8BD4207D22A461C
:1007E000094901A80CF09CF900260A24D0E741B081
:1007F000F0BD00BF30310020941B0210F81A021027
:10080000ECF90110C8190210E4F901102DE9F843C0
:10081000044601F128074FF00008C146B4F5401F17
:1008200019D204F1805505F580152E7800214FF07E
:10083000FF300EF0B5F97F2E10D0FF2E02D06EB132
:100840006C6AEBE7C4F54013BB421CD943451DD38A
:10085000B9F1000F1CD04846BDE8F8836B6A1A1B3B
:10086000974206D8B8F1000F05D0904507D81C462E
:10087000D4E71C46D2E79046A1461C46CEE79046F8
:10088000A1461C46CAE74FF0FF39E4E7A146E2E77C
:10089000A146E0E700E0586AB0F5401F0BD200F136
:1008A000805303F580131A78FF2A04D0412AF2D925
:1008B0004FF0FF307047B0F5401F00D870474FF041
:1008C000FF307047F8B50746002500E0656AB5F5CA
:1008D000401F0FD205F1805404F580142678FF2EB6
:1008E0000CD03946601C19F041FA0028EED1002ED8
:1008F000ECD001E04FF0FF352846F8BD4FF0FF3552
:10090000FAE700002DE9F047C0B004460D46154F48
:10091000396820F0FF094FF4807A5246494468460E
:1009200019F03CFFE3B20DF80350FFF77DFEEFF343
:10093000108372B6DFF83080C8F80030524669463E
:1009400009F580101EF08CFED8F8003083F3108873
:100950003B68185DA84214BF0020012040B0BDE8EC
:10096000F08700BF30310020047400202DE9F04FE3
:10097000ADF5005D83B020F0FF0404F5801421F094
:10098000FF0505F5801824F47F6626F00F0628F48D
:100990007F6727F00F0707F5805704F47064A7EB13
:1009A000080B06F18053019305F1805505F580157C
:1009B0000DF5805A0AF1080A4FF48052FF21504683
:1009C00019F086F90DF108094FF48052FF214846CD
:1009D00019F07EF922460199504619F0DFFE5A4679
:1009E0002946484619F0DAFEFFF71EFEEFF31083A2
:1009F00072B60C4D2B60B91B30461EF07DFE2246B0
:100A0000514630461EF02CFE5A46494640461EF0DE
:100A100027FE2B6883F310880DF5005D03B0BDE859
:100A2000F08F00BF047400200022134600E0013262
:100A300040F6FE718A420BDC0749096831F8121052
:100A40000B44B3F5806FF2DBC3F309030133EEE728
:100A50005B42C3F3090070476C33002008B504F013
:100A6000A9FD08BD08B5074A1368B3FA83F35B090B
:100A7000136023B1044905480CF0BCFA08BD0449D1
:100A8000F9E700BF78330020D4410210F4F90110D7
:100A9000F0F9011008B5074A1368B3FA83F35B094C
:100AA000136023B1044905480CF0A4FA08BD0449B9
:100AB000F9E700BF74330020D441021004FA01109A
:100AC000F0F9011008B5074A1368B3FA83F35B091C
:100AD000136023B1044905480CF08CFA08BD0449A1
:100AE000F9E700BF70330020D44102101CFA011056
:100AF000F0F9011008B5094A136803F59C5308334F
:100B00001360074A934202DD044B00221A60034B34
:100B1000196804480CF06EFA08BD00BFA4B20020AA
:100B2000A086010030FA011008B503480CF062FA03
:100B3000024B04221A7008BD50FA011007B30020BE
:100B400008B5064A137883F00103137023B10449F2
:100B500004480CF04FFA08BD0349F9E7F2B200204F
:100B6000D441021058FA0110F0F9011008B5084AF2
:100B7000138883F400739BB2138013F4007F04D0B6
:100B8000044905480CF036FA08BD0449F9E700BFEE
:100B9000CC330020D441021078FA0110F0F9011092
:100BA00008B5084A138883F480739BB2138013F44A
:100BB000807F04D0044905480CF01CFA08BD0449A4
:100BC000F9E700BFCC330020D441021098FA01109D
:100BD000F0F9011008B5084A138883F480639BB2CA
:100BE000138013F4806F04D0044905480CF002FA16
:100BF00008BD0449F9E700BFCC330020D4410210FE
:100C0000C0FA0110F0F9011008B5084A138883F4FE
:100C100000639BB2138013F4006F04D004490548AD
:100C20000CF0E8F908BD0449F9E700BFCC33002017
:100C3000D4410210E4FA0110F0F9011008B503489C
:100C40000CF0D8F9024B07221A7008BD08FB0110FE
:100C500007B3002008B505480CF0CCF904480CF0A7
:100C6000C9F9044B06221A7008BD00BF10FB011021
:100C70003CFB011007B3002008B54FF050435B6800
:100C800013F0807F04D0034903480CF0B3F908BD8A
:100C90000249F9E7D441021068FB0110F0F9011094
:100CA00008B506480CF0A6F94FF47A7009F012FD69
:100CB000012108460AF05AF908BD00BF94FB011053
:100CC00008B506480CF096F94FF47A7009F002FD69
:100CD00000214FF000700AF092F900BFB4FB011040
:100CE00008B508F03DF908BD08B5044A1388C3F3F8
:100CF0000D03138002480CF04EF908BDCC330020E0
:100D0000E4FB011008B5054A13886FEA43436FEA14
:100D10005343138002480CF03EF908BDCC33002049
:100D200000FC011008B5054A1388C3F30D0343F412
:100D30008043138002480CF02EF908BDCC3300200C
:100D400020FC011008B5074A138843F48053138030
:100D5000054B02221A6004F02DFC04480CF01BF92C
:100D600008BD00BFCC33002020B2002040FC0110A1
:100D700008B5074A138843F400531380054B022239
:100D80001A6004F017FC04480CF005F908BD00BF18
:100D9000CC33002020B200205CFC011008B50448D0
:100DA0000CF0F9F8034904480CF024F908BD00BF21
:100DB0007CFC0110290A001094FC011008B50A48B7
:100DC0000CF0E9F8094B01221A7009480CF012F9ED
:100DD000084B1968002903DB07480CF00BF908BD24
:100DE00006480CF007F9FAE7B4FC011003B3002041
:100DF000E0FC0110683300202CFD011004FD0110FF
:100E000008B50A480CF0C7F8094B02221A700948C5
:100E10000CF0F0F8084B1968002903DB07480CF0C8
:100E2000E9F808BD06480CF0E5F8FAE748FD0110BE
:100E300003B3002074FD0110683300202CFD011065
:100E400004FD011008B514480CF0A5F813480CF087
:100E5000A2F8134B1B7873B1124A116800290ADB00
:100E6000012B12D0022B0CD10F4B01221A700F480C
:100E70000CF0C0F805E00C4B00221A700C480CF086
:100E8000B9F80C480CF087F808BD074B01221A701E
:100E900009480CF0AFF8F4E798FD0110C4FD01100B
:100EA00003B3002068330020FFB20020A8FE011029
:100EB000FCFD0110F8FE011054FE011010B50B48A6
:100EC0000CF069F80A4C237883F001032370094B76
:100ED000196809480CF08EF8237823B107490848AF
:100EE0000CF088F810BD0749F9E700BF54FF011066
:100EF000FAB200206833002074FF0110D4410210C0
:100F000098FF0110F0F9011010B50B480CF043F8F0
:100F10000A4C237883F001032370094B19680948B0
:100F20000CF068F8237823B1074908480CF062F800
:100F300010BD0749F9E700BFB0FF0110FBB2002068
:100F40006833002074FF0110D8420210D0FF011056
:100F5000AC27021008B502480CF01DF808BD00BF10
:100F6000E0FF011008B503480CF015F804F066FB2B
:100F700008BD00BFF0FF011010B539480CF00BF8A8
:100F8000384B1B78002B68D0374938480CF032F8C2
:100F9000374C218837480CF02DF82188C90B36488A
:100FA0000CF028F82188C1F3803134480CF022F885
:100FB0002188C1F3403132480CF01CF82188C1F37C
:100FC000003130480CF016F82188C1F3C0212E48BA
:100FD0000CF010F82188C1F380212C480CF00AF89D
:100FE0002188C1F340212A480CF004F82188C1F37C
:100FF000002128480BF0FEFF2188C1F3C0112648CC
:101000000BF0F8FF2188C1F3801124480BF0F2FFA8
:101010002188C1F3401122480BF0ECFF2188C1F375
:10102000001120480BF0E6FF2188C1F3C0011E48E3
:101030000BF0E0FF2188C1F380011C480BF0DAFFC0
:101040002188C1F340011A480BF0D4FF218801F038
:10105000010118480BF0CEFF10BD174995E700BFFE
:1010600068120210F2B20020D441021024000210D3
:10107000CC330020380002104C0002107C0002101B
:10108000C8000210F40002102801021054010210DE
:101090007C010210A0010210CC010210FC01021020
:1010A0004002021070020210A0020210D0020210D0
:1010B000FC02021030030210F0F9011010B50E48C6
:1010C0000BF069FF0D480BF095FF0D480BF092FFF8
:1010D00000240AE00B4904EB44029300CA1892680A
:1010E000C95C09480BF086FF01340E2CF2DD07487D
:1010F0000BF051FF10BD00BF640302108403021007
:10110000AC03021034310020D8030210E4030210B3
:1011100008B503F01BFE08BD70B51C480BF03BFF83
:1011200000260BE02A191A4B1B6833F812101948D5
:101130000BF060FF01340F2CF4DD0136072E06DCC6
:101140003501294614480BF055FF0024F3E70A2027
:101150000BF012FFF8260BE02A190D4B1B6833F831
:1011600012100C480BF046FF01340F2CF4DD013651
:10117000FF2E06DC3501294607480BF03BFF002413
:10118000F3E70A200BF0F8FE70BD00BF2C0402103C
:101190006C330020500402104004021070B50F4858
:1011A0000BF0F9FE00260BE02A190D4B1B6833F8F3
:1011B00012100C480BF01EFF01340F2CF4DD013629
:1011C000FF2E06DC3501294607480BF013FF0024EB
:1011D000F3E70A200BF0D0FE70BD00BF58040210E8
:1011E0006C330020500402104004021000B583B09C
:1011F0001E480BF0D0FE1E4B1B78BBB11D4A116878
:10120000002913DB012B1AD0022B12D11A480BF044
:10121000F1FE184B1A684FF400530093174B1B68EC
:101220005203052116481EF04FFA02E015480BF054
:10123000B2FE0A200BF0A0FE03B05DF804FB1248DA
:101240000BF0D8FE00230CE00A4A126803EB0232CE
:101250000A4909680D48006830F8122021F8132067
:101260000133B3F5805FEFDBE3E700BF74040210E6
:1012700003B3002068330020040502106C33002003
:101280000000084098040210E0040210C43300205B
:1012900070B5B2B00A200BF06FFE002407E0144BCB
:1012A00053F82420214613480BF0A4FE0134042CEB
:1012B0001BDC204606F0D5F90028F0D00C4E56F87D
:1012C000242021460C480BF095FE56F82430224687
:1012D0000A4968460BF024FC02466946204606F09F
:1012E00031FA204606F0B8F9E0E732B070BD00BF31
:1012F0001451031070050210280502104C0502104D
:1013000010B50E480BF047FE0D480BF073FE0D486C
:101310000BF070FE00240AE00B4904EB440293003A
:10132000CA189268C95C09480BF064FE0134122C9B
:10133000F2DD0A200BF020FE10BD00BF9405021064
:10134000A0050210B405021084320020D803021058
:1013500010B50E480BF01FFE0D480BF04BFE0D486C
:101360000BF048FE00240AE00B4904EB4402930012
:10137000CA189268C95C09480BF03CFE01340C2C79
:10138000F2DD0A200BF0F8FD10BD00BFCC05021005
:10139000EC050210AC030210E8310020D803021063
:1013A00010B582B028480BF0F6FD284B1B781BB116
:1013B000274B1B68002B02DA264B1B78D3B126483B
:1013C0000BF018FE214B1B78012B1AD0022B36D1C3
:1013D0001F4C21684A0321480BF00CFE22684FF491
:1013E000005300931E4B1B68520305211D481EF03D
:1013F0008FF924E0174B00221A701B480BF0CBFD2D
:101400001DE0134C21684A0302F1805202F50022CC
:1014100016480BF0EFFD4FF4FA6009F05BF9206815
:1014200040304FF4005140031EF066F92068403010
:101430004FF400520A4B196840031EF011F90C4892
:101440000BF0A9FD02B010BD1806021003B3002076
:1014500068330020FFB2002090060210CC06021074
:101460006C330020000008403C060210A406021065
:10147000F40602102DE9F04107464FF47462002192
:1014800018F026FC002623E0F42406FB04F407EB06
:1014900004080025A8F83850C8F83050C8F834506F
:1014A000C8F85C5088F83A5088F8F05038343C441A
:1014B000023420222946204618F00AFC1F220E4B37
:1014C00053F82610204618F0FFFC88F859500136D2
:1014D0000F2ED9DD80233B81A7F8FC30A7F8F0312F
:1014E000A7F8E4323B87A7F82C31A7F82032A7F8F9
:1014F0001433BDE8F08100BF34610310F8B5044631
:1015000016461A46069B770006EB4600F42501FBBB
:1015100005F505EB001021180A81235062194FF0E0
:10152000010C82F8F0C0094A1A444A60083020448D
:101530001F2207491944023018F0C6FC374405EB56
:1015400007152C44002384F82930F8BD280010101A
:101550000100101038B5049C02EB420E4FF0F40C61
:101560000CFB01FC0CEB0E1E00EB0E052B81002387
:1015700040F80E30844401238CF8F0306C6006296A
:1015800002D007291FD038BD63881B2B11D0192B1F
:10159000F7D102EB4202F42301FB03F303EB021346
:1015A000083318441F22104B9968023018F08CFC45
:1015B000E9E77346083318441F220B4B5968023081
:1015C00018F082FCDFE702EB4202F42303FB01F197
:1015D00001EB0211083108441F22034B1968023045
:1015E00018F072FCCFE700BF28610310032900D870
:1015F00070472DE9F8430446164602EB4203F427F0
:1016000001FB07F707EB031300EB03094FF000089A
:1016100040F80380A9F8088007F1380020441F2211
:10162000094B53F82110023018F04EFC274487F87C
:101630005980C9F82C80C9F80480012E01D0BDE87A
:10164000F88387F8F080FAE734610310F8B50646AE
:101650000C461546B3B11946570002EB4200F4237D
:1016600003FB04F404EB0010083030441F22023066
:1016700018F02AFC2F4404EB07142644002386F8B4
:101680002930F8BD02EB4205F42303FB04F404EB1C
:101690000512104400238372F3E7F42303FB0103D4
:1016A0001B8913F0800F20D1F42303FB01031B8F50
:1016B00013F0800F1BD1F42303FB0103B3F8683050
:1016C00013F0800F15D1F42303FB0103B3F8983016
:1016D00013F0800F0FD1F42303FB0100B0F8C830E2
:1016E00013F0800F09D001207047012070470120BE
:1016F00070470120704701207047002070470000AC
:1017000030B585B0044644F24103ADF80E30FFF722
:10171000B1FE0A4D4FF47463009323461022052155
:1017200028461DF0F5FF022300930DF10E03002261
:10173000052128461DF0ECFF05B030BD0000084033
:101740004FF050435B6813F4003F00D0704700B582
:1017500083B04FF4746300930346102205210348BD
:101760001DF0D6FF03B05DF804FB00BF0000084089
:101770004B1E0E2B16D8531E032B15D802EB420C12
:10178000F42301FB03F303EB0C13C35873B1F423ED
:1017900003FB01F101EB0C1108444368188840BABF
:1017A00080B27047002070470020704700207047CB
:1017B00001F1FF3CBCF10E0F00F2888002F1FF3C0A
:1017C000BCF1030F00F2848030B502EB420E4FF003
:1017D000F40C0CFB01FC0CEB0E1C8444BCF8084020
:1017E00014F4807F37D0F42404FB01F101EB0E1CCC
:1017F0008444DCF8044004F58054B4F8FC5F05F040
:101800003F05344C655D1D70DCF8045005F58055CE
:10181000B5F8FA5F05F03F05655D5D702D259D709B
:10182000DCF8045005F5805CBCF8F8CF0CF03F0CF8
:1018300014F80C50DD7001EB0E1101444A6802F5FA
:101840008052B2F8F62F02F03F02A25C1A71002219
:101850005A71012030BD02EB42044FF0F40C0CFB36
:1018600001FC0CEB041101444C6804F58054B4F8FD
:10187000FCEFCEF3052E174C14F80E501D704D687A
:1018800005F5805EBEF8FAEFCEF3052E14F80E5083
:101890005D702D259D70496801F58051B1F8F81FE4
:1018A000C1F30521615CD97002EB42020CEB021C12
:1018B0006044426802F58052B2F8F62FC2F3052266
:1018C000A25C1A7100225A710120C3E70020704700
:1018D00000207047746103104B1E0E2B16D8531E48
:1018E000032B15D802EB420CF42301FB03F303EBAB
:1018F0000C13C35873B1F42303FB01F101EB0C117A
:1019000008444368588840BA80B270470020704746
:1019100000207047002070470F2900D9704770B52C
:1019200082B005460E46F42201FB02F23832024430
:101930000232114804F04AF8002418E004EB440392
:101940004FF0F40C0CFB06FC0CEB031C0CF1080232
:101950002A4405EB0C010B894968019155F80C10DC
:10196000009102322146054804F030F80134042C7D
:10197000E4DD02B070BD00BF400702104C0702104A
:101980000148024BC01A7047000008200CB3002029
:1019900000B58BB0684617F08DF9FFF7F1FF079B94
:1019A000C01A0BB05DF804FB10B500EBD07044100A
:1019B00000214FF0FF300DF0F3F8022008F08AFE0E
:1019C000002005F0B4FE18B9013CF1D5002006E076
:1019D000002005F0B1FE024803F0F8FF012010BD21
:1019E000880702102DE9F047012009F061F98246CD
:1019F000022009F05DF98146032009F059F980467B
:101A0000092009F055F907460A2009F051F9064660
:101A10000B2009F04DF905460C2009F049F9044660
:101A200051460E480BF0E6FA49460D480BF0E2FA33
:101A300041460C480BF0DEFA39460B480BF0DAFA57
:101A400031460A480BF0D6FA294609480BF0D2FA7B
:101A5000214608480BF0CEFABDE8F087A80702102F
:101A6000BC070210D0070210E4070210F8070210AA
:101A70000C0802102008021010B5114C20460BF083
:101A8000B9FA10480BF0B6FAFFF77AFF01460E4894
:101A90000BF0B0FAFFF77CFF01460C480BF0AAFAF6
:101AA000052009F0FFF80A4BA3FB0031890909481A
:101AB0000BF0A0FA20460BF06EFAFFF793FF10BD73
:101AC0003408021084080210D4080210F008021032
:101AD000D34D62100C0902102DE9F04F2DED068B4D
:101AE00095B0FFF77FFF012009F0E2F8824602205F
:101AF00009F0DEF88146032009F0DAF88046092073
:101B000009F0D6F807460A2009F0D2F806460B205D
:101B100009F0CEF805460C2009F0CAF80390864B70
:101B200004221A60854B1B6813F4807FFAD0834B24
:101B30005B689BB207EE903AF8EE677A9FED807A89
:101B400067EE877A9FED7F7A77EEC77ADFED7E6A60
:101B500087EEA67AB3EE0BAA3AEE47AA052009F063
:101B6000A1F87A4BA3FB0030800C07EE900AB8EE88
:101B7000678AFFF705FF800A07EE900AF8EE679A7A
:101B8000FFF706FF800A07EE900AB8EE679A704BDF
:101B9000B3F854B02C2303FB0BF39B0A07EE903AE7
:101BA000F8EE678A12A80BF0ABFB00240BE004F1FF
:101BB00050036B4413F8082C66490DA800EB440051
:101BC0000AF0AEFF0134072CF1D9634803F0FEFEA2
:101BD000624803F0FBFE624803F0F8FE614803F040
:101BE000F5FE614803F0F2FE604803F0EFFE604B43
:101BF000604A6149614803F0E9FE05AC20220021FA
:101C0000204618F065F82046FEF7D4FC002800F0C6
:101C10008F809DF81430002B40F08580584803F0E9
:101C2000D5FE584C204603F0D1FE574803F0CEFEB7
:101C300018EE100A1DF038FD02460B46534803F01B
:101C4000C5FE5146524803F0C1FE4946514803F0D3
:101C5000BDFE4146504803F0B9FE39464F4803F0F7
:101C6000B5FE31464E4803F0B1FE29464D4803F01B
:101C7000ADFE03994C4803F0A9FEF2EE027A6AEE3B
:101C8000277AB1EE047A87EE878ADFED487A38EE5C
:101C9000278A1AEE100A1DF007FD06460F4618EEB9
:101CA000100A1DF001FDCDE9000132463B464048D7
:101CB00003F08CFE0DA93F4803F088FE204603F098
:101CC00085FE3D4803F082FE00223C4B3C4803F079
:101CD0007DFE19EE900A1DF0E7FC02460B463948DE
:101CE00003F074FE19EE100A1DF0DEFC02460B46EE
:101CF000354803F06BFE18EE900A1DF0D5FC024645
:101D00000B462C210191CDF800B0304803F05EFE67
:101D1000204603F05BFE104803F058FE15B0BDEC02
:101D2000068BBDE8F08F05A9294803F04FFE78E740
:101D3000284803F04BFE74E700200A4000000A40E8
:101D40003333533A6ABC343F2D93E13A83DE1B436D
:101D500010AD0020C43502102809021078090210C5
:101D60008C090210BC090210080A0210480A02106D
:101D7000840A0210900A02109C0A0210A80A02109B
:101D8000CC0A0210800802101C0B0210300B02104B
:101D9000500B02106C0B0210880B0210A40B0210E7
:101DA000C00B0210DC0B0210F80B02100000004206
:101DB000140C02103C0C0210740C02100040804005
:101DC000840C0210A40C0210C40C0210E40C0210CB
:101DD000EC0A0210FC0A021008B503F073F808BD03
:101DE00008B5002005F03DFC20B31749174803F063
:101DF000EDFD012005F035FCF0B11349144803F066
:101E0000E5FD022005F02DFCC0B10F49114803F09B
:101E1000DDFD032005F025FC90B10B490E4803F0D1
:101E2000D5FD042005F01DFC60B107490B4803F007
:101E3000CDFD08BD0A49D9E70949DFE70849E5E7CB
:101E40000749EBE70649F1E7280D0210300D0210B3
:101E5000580D0210800D0210A80D0210D00D0210B6
:101E60002C0D021070B5B2B0164803F0AFFD00247F
:101E700007E0154B53F824202146144803F0A6FD33
:101E80000134042C1BDC204605F0EBFB0028F0D0CD
:101E90000D4E56F8242021460D4803F097FD56F8C4
:101EA000243022460B4968460AF03AFE024669464B
:101EB000204605F047FC204605F0CEFBE0E732B0B7
:101EC00070BD00BFD857021014510310400E02100D
:101ED000F80D0210180E021008B50E4803F076FD3A
:101EE00001214FF4FA6009F041F800214FF0FF3072
:101EF0000CF056FE002005F01AFC0028F5D0064B29
:101F00004FF080421A60002005F016FC034803F0F1
:101F10005DFD08BD600E021000B00D40A40E021061
:101F200010B50F4803F052FD4FF4FA7400214FF042
:101F3000FF300CF035FE022008F0CCFB002005F04D
:101F4000F6FB30B9013CF1D100214FF0007009F0EF
:101F500056F8002005F0F0FB024803F037FD10BDF5
:101F6000B80E0210A40E021010B50446B8B90F48FE
:101F700003F02CFD192006F0A5F916E021460C48C7
:101F800004F04EFB192006F09DF9FA2008F0A2FBA0
:101F9000192006F097F9FA2008F09CFB013C631E1B
:101FA000082BEBD9034803F011FD10BD0C0F0210F4
:101FB000200F0210E038021008B54FF050435B6864
:101FC00013F4003F01D1012008BD024803F0FEFCDC
:101FD0000020F9E7240F021008B5034803F0F6FCCF
:101FE00003F02CFB08BD00BF680F021008B5FFF717
:101FF000E3FF00B908BD034803F0E8FC03F0DAFA98
:10200000F8E700BF8C0F021008B5FFF7D5FF00B945
:1020100008BD034803F0DAFC0248FEF727F9F7E7AA
:10202000B00F021010AD002010B5FFF7C5FF70B95A
:1020300010BD084B53F82430074A32F814202146CB
:10204000064803F0C3FC01345F2CF2DDF0E7002406
:10205000FAE700BF30C2031010AD0020DC0F021001
:1020600030B589B00546EC463C4C0FCCACE80F00CF
:1020700094E80F00ACE807002CF8023B1B0C8CF82E
:10208000003000238DF81F307DB12C46284618F013
:10209000FBFB042820D10022032A26DCA35C303B72
:1020A000DBB2092B1DD80132F6E72D4803F08EFC78
:1020B0006846FEF77FFA58B19DF800301BB92948F1
:1020C00003F084FC0BE06946274803F07FFC06E040
:1020D000264803F07BFC02E0254803F077FC09B0BA
:1020E00030BD244803F072FCF9E72349684618F034
:1020F0009BF8054610B30422214617F0E5FE0023A5
:102100002B7169461D4803F061FC1D4803F05EFC1D
:1021100041F28830FFF748FCA0B96846FEF7E4F9C1
:10212000A0B16946174803F051FC6846FEF742FA31
:1021300080B169460C4803F049FCD0E7124803F02F
:1021400045FCCCE7114803F041FCC8E7104803F018
:102150003DFCEAE70F4803F039FCC0E774BA02100F
:10216000FC0F021030100210681002107C100210D8
:10217000A4100210D8100210001102104C1102100D
:102180006C110210D011021008110210A8110210D7
:10219000F01102101C12021010B50D4803F016FCCD
:1021A000002408E00B4A0C4B53F8243021460B481E
:1021B00003F00CFC01341D2C08DC4FF050435A682E
:1021C0000123A3401A42EDD0054AECE710BD00BF41
:1021D0004412021040120210B8C10310541202102F
:1021E0003C12021008B506F019FE08BD08B506F04D
:1021F000B7FE08BD08B506F07BFD08BD08B506F0C2
:10220000E1FD08BD08B506F059FD08BD08B507F0A9
:1022100017F808BD08B507F019F808BD2DE9F04119
:10222000ADF5805D84B080460F46046901F18055AC
:1022300005F58015284803F0C9FB284803F0C6FBC4
:1022400029466B6A019300972B6A11F8012B2448E9
:1022500003F0BCFB296AA1420CD1224E3E4400226D
:10226000039200220023404611F068FD01204FF444
:1022700080571CE01C4803F0A9FB04200DF5805D8D
:1022800004B0BDE8F08104A90B1F3A46404611F0A6
:10229000EFFA054688B904A951F8045C2A4630468D
:1022A00017F06AFCB0FA80F04009641B2E446CB150
:1022B00060B1BC42E7D22746E5E716F07FF8014659
:1022C0002A460A4803F082FB0020D7E708B902201B
:1022D000D4E70120D2E700BF6C120210B81202103E
:1022E00004130210280010102C130210781302108F
:1022F0002DE9F041ADF5955D86B006460F46012209
:1023000001460EA811F00EF928B93146A6A818F01A
:10231000A7F9002516E0044616F050F802462346B9
:102320003146A24803F052FB0DF5955D06B0BDE8BD
:10233000F081AEAC2C4414F8200C16F079FF04F8B0
:10234000200C0135A6A818F09FFAA842F1D82E213A
:10235000A6A817F0EBFD0446129D03462A46314617
:10236000934804F05DF92F21304617F0DFFD00B1EE
:10237000461C9049204618F095F800284BD04FF0A5
:1023800000088D49204618F08DF808B94FF0030871
:102390008A49204618F086F808B94FF004088849A1
:1023A000204618F07FF808B94FF005088549204607
:1023B00018F078F808B94FF006088349204618F05D
:1023C00071F808B94FF007088049204618F06AF8FC
:1023D00008B94FF008087E49204618F063F820B38A
:1023E000B8F1000F1AD03046FEF76CFA0446B0F18F
:1023F000FF3F40D00146774803F0E8FA022F33D17F
:1024000021460EA8FFF70AFF042830D8DFE800F0C5
:1024100017102F251E004FF00108B2E76E4803F099
:10242000D5FA0EA811F0E0FB7EE74FF00908DAE7D5
:102430006A4803F0CBFA0EA811F0D6FB74E768489F
:1024400003F0C4FA0EA811F0CFFB6DE7654803F066
:10245000BDFA0EA811F0C8FB66E7634803F0B6FAB0
:102460000EA811F0C1FB5FE7604803F0AFFA0EA8B9
:1024700011F0BAFB58E70020FEF70CFAB0F1FF3F6D
:1024800060D029460020FEF7C1F90746B0F1FF3FB2
:102490005FD0C0F5401305F58072934260D304AC61
:1024A0008DF8108031460DF1110018F0D9F80C9517
:1024B00007F1805303F580135A6A1B78FF2B56D01F
:1024C0000D92012205F128013846FEF7E7F8014692
:1024D000B0F1FF3F52D1AEAC04AE0097336A327810
:1024E0000DF11101424803F071FA4FF48052FF21BF
:1024F000204617F0EDFB0FCE0FC40FCE0FC496E8A9
:10250000030084E8030003AB40F6D872B8A90EA814
:1025100011F0AEF9044600283DD1AEA9A1F52B7605
:10252000336803F2271323F0FF04EFF3108872B629
:10253000224607F580101DF093F888F3108836685E
:10254000AE1B76E02B4803F041FA0EA811F04CFBCD
:10255000EAE6294803F03AFA0EA811F045FBE3E653
:10256000264803F033FA0EA811F03EFBDCE605F234
:10257000271323F0FF033B446362A2E7204803F0E4
:1025800025FA0D9A39461F4803F020FA0D9938466E
:10259000FEF7ECF99FE715F011FF014622461A48B5
:1025A00003F014FA0EA811F01FFBBDE6B0130210E1
:1025B000CC140210FC130210041402100C140210AC
:1025C000141402101C140210241402102C140210F3
:1025D00034140210041502103C14021028150210C5
:1025E00050150210881402106C150210AC15021060
:1025F00094160210DC150210F815021020160210B5
:102600004C1602106C16021078130210FF3424F0DE
:10261000FF04EFF3108872B6AEAD2246294607F5E7
:1026200080101DF01DF888F31088A5F52B752B6818
:10263000F61A002E12DDAEAD4FF48052FF2128466F
:1026400017F046FB03AB4FF4805229460EA811F059
:102650000FF9274403AD2C68002CD7D10EA811F038
:10266000C3FA61E630B5ADF5337D0546FEF770F887
:1026700068B3FF22002172A817F02AFB2B7833B928
:10268000FF2172A811F0C5FA044648BB72AD294675
:10269000344803F09BF9582200215CA817F018FB7E
:1026A0004FF49072002114A817F012FB05B32E4BC3
:1026B0002A4614A95CA811F046FD044640B315F063
:1026C0007DFE01462246294803F080F947E028486C
:1026D00003F07CF94FF44061264803F077F93EE0BF
:1026E00015F06CFE01462246234803F06FF936E0F0
:1026F000224B234A40F2E14122480AF0A9FA002184
:102700006846FFF7F5FD14A95CA811F005FD044625
:1027100014BB9DF86A30FBB100214FF0FF300CF084
:102720003FFA2946684617F09BFF684618F0ACF858
:10273000154B1B882DF800300DF16A01684617F023
:102740003BFB9DF85C3013F0100FD8D00DF16A01FF
:102750000E4803F03BF9D6E75CA811F094FC0DF5A8
:10276000337D30BD5817021080080210E8170210A0
:10277000CC16021008170210341702107817021036
:1027800080170210A81702100C180210101802105F
:1027900070B506460C461546FFF70EFC88B1012CB5
:1027A00013D0012D12D0042C15D0042D13D0022CDF
:1027B00018D0022D15D0032C14D0032D0FD00024D7
:1027C00010E00B4803F002F910E02C462146304699
:1027D000FFF748FF0AE0074803F0F8F806E02C4648
:1027E00000E02C4621463046FFF782FD70BD00BF59
:1027F0002C1802106418021030B583B004464588C6
:102800006DBAADB2018849BA89B2374803F0DEF833
:102810002946364803F0DAF8E188A38803F47F42BA
:1028200002EB11225BBA9BB2FF2B2BD892B2B2F50E
:10283000805F2FD355BB2E4803F0C8F804F58054B1
:10284000B4F8FC0FC0F305202A49B4F8FA2FC2F3FC
:102850000522B4F8F83FC3F30523B4F8F65FC5F3D7
:1028600005254D5D0095CB5C8A5C095C224803F030
:10287000ADF8B4F8FE1F49BA89B2204803F0A6F8B3
:1028800003B030BD1E4803F0A1F8D7E71D4803F0A0
:102890009DF8D3E7002DCED002F10043013B34F880
:1028A00013305BBADBB200203F2B0FD80F280DDCB2
:1028B00003F03F030F49C95C134B19540130531EF9
:1028C0001B1A34F813305BBADBB2EDE703F03F03B9
:1028D0000849CB5C0C490B54013000230B540B48C6
:1028E00003F074F8AAE700BF8418021098180210C9
:1028F000E8180210AC4F03104819021064190210B6
:10290000AC180210C81802105C62002010190210E6
:1029100010B501EB810C01F003014900C1F1080E73
:10292000FF2303FA01F2C1F106042341CCF38F0C1B
:1029300010F80C4022400A41604441780B4003FAF1
:102940000EF39BB213FA82F080B210BD2DE9F04372
:1029500083B0074690F8B88201465E4803F036F827
:10296000791D5D4803F032F897F8B8125B4803F020
:102970002DF800263AE05A4803F028F805E0B9F1AE
:10298000000F73D1574803F021F804F5805494F8F0
:10299000FD3394F8FE5305F03F052D0105EB1315AB
:1029A00005F03F05504994F8FC23920894F8FB0386
:1029B00000F03F0094F8F9C394F8FA339B0003EB5E
:1029C0009C1303F03F03CB5C00930B5C8A5C495D76
:1029D000464802F0FBFF94F8FE1394F8FF339B0087
:1029E00003EB9111424802F0F1FF013646456EDAE1
:1029F00042F6640505FB067505F2D92231463D48CD
:102A000002F0E4FF41F21D72AC18637894F8029072
:102A100009F00F094FEA891909EB9309A95C03F042
:102A2000030301EB0321344802F0D0FF4946334849
:102A300002F0CCFFE3782579AD0005EB9315A27881
:102A400003F03F031B0103EB1213DAB2120252FA36
:102A500085F5ADB2FF2B8ED8B5F5805F8FD3B9F178
:102A6000000F8FD0264802F0B1FF8EE7691E89B2B1
:102A70002046FFF74DFFC0B24FF0000911E000F013
:102A80003F00194B1A5C1F4B03F8092009F101099B
:102A9000A5EB090189B2013989B22046FFF738FF59
:102AA000C0B23F2802D8B9F10F0FE8DD00F03F00B7
:102AB0000D4B1B5C134901F8093009F10109002392
:102AC00001F809302A46104802F080FF5DE703B0A4
:102AD000BDE8F0837C19021090190210A4190210AD
:102AE000AC180210E8180210AC4F0310481902107D
:102AF00064190210B81902108418021098180210F4
:102B0000C81802105C620020CC1902102DE9F043B5
:102B1000C1B081460146384802F058FF09F105016D
:102B2000364802F053FF99F8B812354802F04EFFCC
:102B30004FF000084446B8F1000F02DD41B0BDE897
:102B4000F08342F6640707FB089707F5B8571D376F
:102B50002C4802F03BFF2C4802F038FF2B4802F0D3
:102B600035FF39E021463846FFF7D2FE02462849B4
:102B700001A8284409F0D4FF05350134A4B2013678
:102B80000F2EEFDD103CA4B201AB5919214A108879
:102B9000927858538A700235002608E01E4901A831
:102BA000284409F0BDFF01350134A4B201360F2ECF
:102BB0000BDC21463846FFF7ABFEC2B2A2F1200380
:102BC000DBB25E2BEAD92E22E8E701A9134802F016
:102BD000FDFEB4F5805F0CD200214FF0FF300BF00A
:102BE000DFFF22460E4901A809F09AFF00260A25B8
:102BF000C6E708F101089EE77C190210901902103F
:102C0000A4190210041A02101C1A0210841A0210CD
:102C100050040210F81A0210ECF90110C819021041
:102C2000F01A021010B588B00138052806D8DFE880
:102C300000F003075D9194BA06F0D2FB08B010BD16
:102C40000C46084617F020FE0C2803D0584802F026
:102C5000BDFEF3E703238DF80C302378303BDBB265
:102C60001B01DBB262781344303B8DF81330A3783C
:102C7000303BDBB21B01DBB2E2781344303B8DF812
:102C800012302379303BDBB21B01DBB26279134493
:102C9000303B8DF8103000228DF81120A379303BA5
:102CA000DBB21B01DBB2E1790B44303B8DF80F3016
:102CB000237A303BDBB21B01DBB2617A0B44303B41
:102CC0008DF80E30A37A303BDBB21B01DBB2E17A28
:102CD0000B44303B8DF80D300092082303AA682185
:102CE00034480AF07AFE344802F070FE03A806F079
:102CF00001FC9DF812309DF814209DF815102F4806
:102D000002F064FE9DF80F3003F07F039DF8102061
:102D10009DF811102A4802F059FE9DF80E1029481E
:102D200002F054FE9DF80E3013F0040F0AD126482D
:102D300002F04CFE9DF90F30002B07DB234802F018
:102D400045FE7BE7224802F041FEF3E7214802F00E
:102D50003DFE73E706F0A0FB70E703A806F0CAFB90
:102D60000024132C0ADC04F120036B4413F8142C08
:102D70002146194802F02AFE0134F2E79DF812308C
:102D80009DF814209DF815100C4802F01FFE9DF8C8
:102D90000F3003F07F039DF810209DF811100848B4
:102DA00002F014FE4AE70D4802F010FE46E700BFAD
:102DB000FC1A021004380020381B0210441B0210B9
:102DC000681B02108C1B02109C1B0210C81B0210F7
:102DD000B01B0210F01B0210301C0210441C021029
:102DE0002DE9F04198B007460C46FDF7B1FC70B3F1
:102DF000002C51D02046FDF765FD0546B0F1FF3FA0
:102E000030D000F1805404F58014584802F0DEFD03
:102E1000574802F0DBFD214611F8012B236A606A56
:102E200001900095534803F0FBFB2378FBB17F2B07
:102E300021D0514802F0CAFD2378032B1FD0013B5B
:102E4000DBB2012B20D94D4802F0C0FD07E04C4811
:102E500002F0BCFD4FF440614A4802F0B7FD18B0E3
:102E6000BDE8F0812146484802F0B0FDF7E7474849
:102E700002F0ACFDF3E7464802F0A8FDEFE7454855
:102E80002844FFF7B9FCEAE7424C6019FFF75EFD02
:102E90006019FFF73BFEE2E7344802F097FD344843
:102EA00002F094FD4FF00008454619E0C5F54014C6
:102EB0004146394802F08AFD2946384802F086FD2D
:102EC000A20A4FF44011364802F080FDC7E72F48B0
:102ED00003F0A6FB284802F079FD022F2AD0656A8C
:102EE000B5F5401FBBD200214FF0FF300BF058FE6C
:102EF00005F1805404F580142378FF2BD6D004AE5E
:102F0000626A02920195226A0092621C1949304657
:102F100009F006FE304603F083FB08F10102237836
:102F2000002BD4D07F2B01D09046D3E7184803F074
:102F300077FBCFE72278531EDBB2012B06D9032A99
:102F4000CDD114482844FFF757FCC8E7114E2E4452
:102F50003146144802F03AFD711D134802F036FD67
:102F600096F8B812114802F031FDB8E7801C021043
:102F7000B812021004130210007602103C14021062
:102F8000CC16021008170210681C0210CC1C02108C
:102F9000E41C021028001010F81C0210301D021052
:102FA0006C1D02107C19021090190210A419021055
:102FB0002DE9F04383B006460C4615461F46FEF742
:102FC000FBFF002800F006818046731F012B40F2B2
:102FD000DF8005EB4502F42304FB03F303EB02134C
:102FE000A34A13441B8913F0010F0DD12146A048B9
:102FF000FEF753FB70B9731E052B00F2EB80DFE880
:1030000003F00E395A7BC7C72A462146994802F079
:10301000DDFCDFE02146984802F0D8FCDAE0944B72
:10302000F42202FB04331B8F13F0010F1DD19348D0
:1030300002F0CCFC8E4C40F21713A4F8E4360023C7
:10304000C4F8DC36012584F89C578D4BC4F8E03673
:103050001F228C4B196804F2E66016F035FF2046FB
:10306000FEF76EFB884B9D80B4E02146874802F056
:10307000ADFCAFE07E4BF42202FB04331B8F13F058
:10308000010F13D1824802F0A1FC794C814B0093CF
:1030900040F21713012206212046FEF75BFA204674
:1030A000FEF74EFB784B00221A8093E021467748CA
:1030B00002F08CFC8EE06E4BF42202FB04331B8F7B
:1030C00013F0010F13D1744802F080FC684C734B6D
:1030D000009340F21713012206212046FEF73AFA28
:1030E0002046FEF72DFB684B01221A8072E0214634
:1030F000664802F06BFC6DE03846FDF7E3FB804666
:10310000B0F1FF3F26D02B4622463946644802F0F4
:103110005DFC08F1805606F58016624802F056FC08
:10312000614802F053FC314611F8012B336A706A92
:103130000190CDF800805D4802F048FC3378032B05
:103140000DD03378013BDBB2012B43D8584802F055
:103150003DFC3FE03946574802F038FC3AE0564F14
:1031600007EB0800FFF748FB07EB080208F128010E
:10317000524802F02BFC3E4FCDF8008017232A4620
:1031800021463846FEF7BAF93846FEF7D9FAD8E7AD
:103190003846FDF797FB0446B0F1FF3F1DD000F124
:1031A000805505F580153F4802F010FC3E4802F0BE
:1031B0000DFC294611F8012B2B6A686A01900094D6
:1031C0003A4802F003FC2B78032B0BD0013BDBB217
:1031D000012B49D903B0BDE8F0833946354802F0E8
:1031E000F5FBF7E7344D2819FFF706FB2A1904F120
:1031F0002801334802F0EAFB4FF00009082500E0FF
:1032000001350F2D12DCB9F1000F0FD1184BF4224C
:1032100002FB05331B8F13F0010FF1D1294614482F
:10322000FEF73BFA0028EBD1C146EAE7B9F1000FFF
:1032300012D03A462946234802F0C8FB062E0FD08A
:103240000B4E00941723012229463046FEF756F90B
:103250003046FEF775FABDE71B4802F0B7FBB9E749
:103260001A4802F0B3FBB5E7114802F0AFFBB1E733
:1032700044630020BC1D0210F81D0210641E0210E1
:10328000B8A103102861031010AD0020301E0210F9
:103290008C1E0210B8810310BC1E0210B86103100E
:1032A000E81E0210801C0210B81202100413021053
:1032B000401F0210681C021028001010101F02107E
:1032C000681F0210E41F0210AC1F02100020021041
:1032D00070B506460C46FEF76FFE002800F0A7808A
:1032E000012E44D0022E4FD031465848FEF7D5F972
:1032F000002874D1002C00F08D8004EB4402F423EC
:1033000006FB03F303EB0213504A13441B8913F02B
:10331000010F00F08D80224631464C48FEF766F9D9
:10332000224631464A4802F051FB79E022462946BE
:103330004648FEF75BF90134042C13DC04EB44022D
:10334000F42305FB03F303EB0213404A13441B89E8
:1033500013F0010FEFD029461046FEF79EF9002822
:10336000E9D1E3E701350F2D03DC3446E4E704251A
:10337000F9E7384B00221A809A803448FEF7E0F9CA
:10338000354802F023FB52E0344802F01FFB0425CD
:1033900016E00134042C12DC04EB4402F42305FB98
:1033A00003F303EB0213294A13441B8913F0010FA3
:1033B000EFD0224629462548FEF718F9E9E70135FE
:1033C0000F2D01DC0124E5E7224B00221A809A80B0
:1033D0001E48FEF7B5F9224802F0F8FA27E0314618
:1033E000204802F0F3FA22E00134042C14DC04EB50
:1033F0004402F42306FB03F303EB0213134A1344C2
:103400001B8913F0010FEFD0224631460F48FEF71B
:10341000EDF8E9E70124E8E73146134802F0D6FA6F
:10342000062E0BD0072E0DD00848FEF789F970BD87
:10343000224631460D4802F0C9FAF8E7054B002252
:103440001A80F1E7034B00229A80EDE744630020E5
:103450002821021010AD00202C2002106020021044
:1034600098200210CC2002100821021044210210E2
:103470002DE9F041ACB006460F46904620AC8F4D8A
:103480000FCD0FC40FCD0FC495E80F0007C42380E4
:1034900018AC8B4D0FCD0FC495E80F0084E80F00DA
:1034A0000DF1280C874C0FCCACE80F000FCCACE82A
:1034B0000F000FCCACE80F0094E803004CF8040BAD
:1034C0008CF8001003AC804D0FCD0FC495E80700B9
:1034D00003C42270FEF770FD002846D0062E10D0DF
:1034E0007A4BF42202FB07331B8F13F0010F0FD12D
:1034F000013E052E00F2DD80DFE806F00F0F3F658C
:103500008BC13B1F0B2BEBD9714802F05FFA2CE00B
:103510003946704802F05AFA27E005216B48FEF759
:10352000BCF828BB694C8023A4F8FC340026C4F8FE
:10353000F464012384F8B435674BC4F8F83404F21A
:10354000FE451F226549284616F0BEFC84F81D651D
:103550001F2218A9284616F0B7FC5C48FEF7F0F8C1
:10356000424639465E4802F031FA2CB0BDE8F0819F
:1035700039465C4802F02AFAD4E705215348FEF7A1
:103580008CF8D8B9514C8023A4F8F0350026C4F843
:10359000E865012384F8A8364F4BC4F8EC3504F2F3
:1035A000F2551F224D49284616F08EFC84F811660C
:1035B0001F220AA9284616F087FCCEE739464A485A
:1035C00002F004FADEE707214048FEF766F8D8B9B2
:1035D0003E4C8023A4F8E4360026C4F8DC660123C0
:1035E00084F89C373C4BC4F8E03604F2E6651F22B1
:1035F0003A49284616F068FC84F805671F2203A99B
:10360000284616F061FCA8E73946384802F0DEF992
:10361000DEE74FB339462D48FEF73FF850B32B4C49
:10362000012239462046FDF7E1FF002239462046B7
:10363000FDF7DCFF39462E4802F0C8F995E7013462
:103640000F2C13DC21462148FEF727F80028F6D07E
:103650001E4D012221462846FDF7C8FF00222146C3
:103660002846FDF7C3FFEAE70424E9E7214802F012
:10367000ADF97AE73946204802F0A8F975E73946EE
:103680001248FEF70AF878B9104C00230093802303
:10369000012239462046FDF731FF434601223946D3
:1036A0002046FDF7D3FF58E73946144802F08EF95B
:1036B0005BE7134802F08AF957E700BF8023021046
:1036C000B0230210D023021008240210446300200B
:1036D000682102108C210210280010100100101027
:1036E00064230210C021021004220210482202109A
:1036F000B02202108C220210D422021000230210E9
:10370000442302102DE9F047D0B00546E0B10F4642
:1037100001EB4102F42300FB03F303EB0213B94A6C
:1037200013441B8913F0010F00F063810146B54873
:10373000FEF7F2F8B44802F049F92D03AEB206F5EF
:1037400080581FFA88F8B0E1B04802F03FF9B0485D
:1037500002F03CF9AF4802F039F92E461FE004EBC5
:103760004403F42206FB02F202EB0312A54B1344BE
:103770000B449A7A46AB5A5401311F29EFDD04EB12
:103780004404F42306FB03F303EB04139D4A1A4499
:1037900046AB12893146A04802F018F901360F2EC7
:1037A00000F32C810124042CF8DC31469548FDF708
:1037B00074FF18B1012C01D12946DEE704EB440265
:1037C000F42306FB03F303EB02138E4A13441B8915
:1037D00013F0010F2FD013F4807F2ED040F0A5807E
:1037E000224631468D4802F0F1F80134DBE704EB64
:1037F0004403F42206FB02F202EB0312814B134452
:103800000B449A7A46AB5A5401311F29EFDD012C43
:10381000EBD104EB4402F42306FB03F303EB0213A6
:10382000784A13441B8946AA0092224631467C48B6
:1038300002F0CCF8D9E72946E7E74EAB22463146FD
:103840007048FDF7B5FF012C32D0DFF8B881224671
:1038500031464046FDF78CFF07462246314640463A
:10386000FEF73AF8014604EB4402F42306FB03F3A7
:1038700003EB021308EB03021089083343440233BD
:103880000F2E4ED8042C4ED804EB440CF42206FB29
:1038900002F202EB0C1258F80220039202930190FC
:1038A00000914EAB3A4621465E4802F08FF89CE705
:1038B000DFF85081224631464046FDF759FF074662
:1038C000224631464046FEF707F8014604EB440223
:1038D000F42306FB03F303EB021308EB0302108946
:1038E0000833434402330F2E17D8042C17D804EBA7
:1038F000440CF42206FB02F202EB0C1258F80220F0
:1039000004920393029001914EAB00933B462246F2
:103910003146454802F05AF867E70022F0E70022F6
:10392000EEE70022B9E70022B7E74FEA06394EABCF
:10393000224631463348FDF73BFF012C2BD01FFABE
:1039400089F9E3B2DFF8BC801F461A464946404673
:103950001BF0C2FE824609F101013A4689B2404697
:103960001BF0BAFE04EB4402F42306FB03F303EB63
:10397000021308EB030211890833434402335268EF
:1039800003920293019100904EAB52462146274884
:1039900002F01CF829E71FFA89F9E3B2DFF8648026
:1039A0001F461A46494640461BF096FE824609F1DC
:1039B00001013A4689B240461BF08EFE04EB4402F8
:1039C000F42306FB03F303EB021308EB0302118954
:1039D00008334344023352680492039302910190E6
:1039E0004EAB0093534622463146114801F0EEFF9C
:1039F000FBE60A4601460F4801F0E8FF50B0BDE87B
:103A0000F08700BF44630020E03802102424021035
:103A10003824021070240210B8240210B8250210B5
:103A2000F8240210782502103825021044260210CE
:103A300004260210842602107119FAB289B21F48B6
:103A40001BF04AFE02461E4907A8204409F068F808
:103A5000044401350F2DEFDD07AB1919194A108801
:103A6000927818538A700234002506E0164907A898
:103A7000204409F055F8013401350F2D0DDC711982
:103A8000FAB289B20D481BF027FEC2B2A2F12003A0
:103A9000DBB25E2BEAD92E22E8E71036B6B207A9D0
:103AA0000A4801F093FFB045A8D93246084907A853
:103AB00009F036F800250A24CCE700BF4463002053
:103AC000A8260210F81A0210ECF90110C819021009
:103AD000F01A021038B504460D46FEF76DFA0028BC
:103AE00040D0601E03283AD8DFE800F00230445589
:103AF000504801F06BFF504B9B880BB14F4900E0E1
:103B00004F49504801F062FF4B4B1B880BB14B49AA
:103B100000E04B494C4801F059FF042400E0013417
:103B20000F2C1CDC494BF42202FB04331B8F13F0D7
:103B3000010FF4D0454B02FB043393F9F030002B16
:103B4000EDDA2146424801F041FFE8E73A4B9B8815
:103B50004BB9394B01229A803E4801F037FF364875
:103B6000FCF7CCFB38BD344B00229A803A4801F078
:103B70002DFFF4E7304B1B8833B92F4B01221A80FD
:103B8000364801F023FFEAE72B4B00221A80344825
:103B900001F01CFFE3E72D4BF42202FB05331B8FE2
:103BA00013F0010F24D0294BF42202FB053393F9C3
:103BB000F030002B21DB05F0FE01244CF42303FB45
:103BC000014090F8F02062F07F0280F8F02001FBC5
:103BD0000333234493F8F02062F07F0283F8F0204F
:103BE0004A1C204801F0F2FE2046FDF7A9FDB6E789
:103BF00029461D4801F0EAFEB4E705F0FE01134C2A
:103C0000134602FB014090F8F02002F07F0280F89A
:103C1000F02001FB0333234493F8F02002F07F02ED
:103C200083F8F0204A1C114801F0D0FE2046FDF731
:103C300087FD94E7B026021010AD0020D842021094
:103C4000AC270210C4260210E026021044630020B4
:103C5000FC26021034270210502702106C27021095
:103C60009027021038280210B8270210F4270210FB
:103C700070B582B00546FCF725FEB0F1FF3F28D0B5
:103C80000446FEF799F948B304F1805606F580160C
:103C90002946184801F09AFE174801F097FE174888
:103CA00001F094FE164801F091FE314611F8012B07
:103CB000336A706A01900094124801F087FE002177
:103CC0002046FCF71FFE78B129460F4801F07EFE22
:103CD00008E029460D4801F079FE03E029460C482A
:103CE00001F074FE02B070BD29460A4801F06EFE74
:103CF000F8E700BFA4280210C4280210801C02109C
:103D0000B812021004130210F8280210681C0210E6
:103D10007C2802101829021010B509281FD004466B
:103D20000A281ED0A44B1B8873B3013C072C15D85E
:103D3000DFE814F02E00C400DC00EB00FA000701FD
:103D400024013901E0B204F005FC0D2004F002FC6E
:103D50000A2004F0FFFB0134592CF3DD10BD41248F
:103D6000FAE701F001FC0A2006F0B4FC4FF05043E2
:103D70005B6813F0080F05D0904A0321904801F0CA
:103D800025FEEBE78F4AF8E78F4801F01FFECCE7EE
:103D9000894BB3F8A6306BB188498C4801F016FE08
:103DA000854BB3F8A030032B00F28280DFE803F0EC
:103DB0000474787C8349F0E7854801F007FE854B61
:103DC0001B78002B78D08449844801F0FFFD844C97
:103DD0002188844801F0FAFD2188C90B824801F04E
:103DE000F5FD2188C1F38031804801F0EFFD218885
:103DF000C1F340317E4801F0E9FD2188C1F3003173
:103E00007C4801F0E3FD2188C1F3C0217A4801F02C
:103E1000DDFD2188C1F38021784801F0D7FD21889C
:103E2000C1F34021764801F0D1FD2188C1F3002182
:103E3000744801F0CBFD2188C1F3C011724801F034
:103E4000C5FD2188C1F38011704801F0BFFD2188B4
:103E5000C1F340116E4801F0B9FD2188C1F3001192
:103E60006C4801F0B3FD2188C1F3C0016A4801F03C
:103E7000ADFD2188C1F38001684801F0A7FD2188CC
:103E8000C1F34001664801F0A1FD218801F0010164
:103E9000644801F09BFD61E7634801F097FD8EE700
:103EA000624801F093FD8AE7614801F08FFD86E7E3
:103EB000604801F08BFD82E75F4985E73E4BB3F830
:103EC000A63063B13C4B0022A3F8A6203A4BB3F8CE
:103ED000A6304BB139493D4801F078FD3EE7364BFD
:103EE0000122A3F8A620F1E73649F4E73C4A1388FB
:103EF0006FEA43436FEA534313802F4B0222A3F828
:103F0000A0204E4801F062FD28E7354A1388C3F32C
:103F10000D0343F480431380274B0122A3F8A02014
:103F2000474801F053FD19E72D4A1388C3F30D03E9
:103F30001380214B0022A3F8A020424801F046FD47
:103F40000CE7274A138883F400639BB213801A4A54
:103F5000B2F8A4205AB1184A0021A2F8A41013F410
:103F6000006F09D01C49384801F030FDF6E6124ACE
:103F70000121A2F8A410F2E72F49F4E70E4B1B88A9
:103F80001BB9324801F022FDE8E6154A138843F4D4
:103F9000005313802E4B02221A6001F00BFB2D48B8
:103FA00001F014FDDAE6044B1B88002B54D127489E
:103FB00001F00CFDD2E600BF10AD00203C2902103C
:103FC000442902104029021060290210BC29021065
:103FD000D0290210F2B20020D44102104C2A021063
:103FE000CC330020602A0210782A0210AC2A02107A
:103FF000FC2A02102C2B0210642B0210902B0210B2
:10400000BC2B0210E02B02100C2C02103C2C0210D6
:10401000802C0210B02C0210E42C0210142D02107F
:10402000442D0210782D0210E8290210002A0210F7
:10403000182A0210302A0210F0F90110AC2D0210DB
:10404000C82D0210E42D0210002E0210242E0210A2
:1040500020B20020542E0210064A138843F48053E5
:104060001380054B02221A6001F0A4FA034801F004
:10407000ADFC73E6CC33002020B20020702E02107D
:1040800010B584B00446FDF797FF80B1601E0B2881
:104090000DD8DFE800F0060E32560C0C0C0C0C6E3E
:1040A000757C414BB3F87810404801F08FFC04B0A8
:1040B00010BD3F4801F08AFC3B4BB3F878103B48F9
:1040C00001F084FC002400E00134B4F5007FEEDA56
:1040D00004F57052082300936B44D2000521354843
:1040E0001BF0F2FA029A039B52EA0301ECD004F5AA
:1040F0000071314801F06AFCE6E729A3D3E9002307
:10410000CDE90223002412E0029B13F10133039A4C
:1041100042F101320293039204F570520823009396
:104120006B44D200052123481BF0F2FA0134B4F5A8
:10413000007FE9DB214801F049FC214801F046FC01
:10414000B5E700220023CDE9022300240AE004F5AC
:104150007052082300936B44D200052115481BF0D0
:10416000D7FA0134B4F5007FF1DB164801F02EFCDC
:104170009DE70D480023A0F87830FCF7BFF896E7DC
:1041800009480123A0F87830FCF7B8F88FE7064813
:104190000223A0F87830FCF7B1F888E7AFF300808D
:1041A000414041404140414010AD00208C2E021062
:1041B000A82E021000000840DC2E0210F02E021083
:1041C000242F0210402F021038B50C4601380A285F
:1041D00055D8DFE810F00B0063008A00AC00BA008D
:1041E000CA00DA00EA00FA000A0118018C4DB5F89D
:1041F00054102C2404FB01F2920A8A4801F0E6FBD9
:10420000B5F8561004FB01F2920A874801F0DEFB74
:10421000AB8F002B34D08549854801F0D7FB804B0C
:10422000B3F85030002B2DD08049824801F0CEFBEE
:104230007B4BB3F846303BB37C497F4801F0C6FB6B
:10424000774BB3F852300BB378497C4801F0BEFB92
:10425000734BB3F86630DBB17449794801F0B6FBB3
:104260006F4BB3F86830ABB17049764801F0AEFBE4
:104270006B4BDB8F83B16D49734801F0A7FB38BDF1
:104280007249C9E77149D0E77049D6E76F49DCE761
:104290006E49E2E76D49E8E76C49EDE7FDF78CFE12
:1042A000D8B15F4BB3F854102C2201FB02F26848DE
:1042B00001F08CFB002CE2DDA4F57A7242F2283387
:1042C0009A420ED8564DA5F854402146614801F057
:1042D0007DFB2846FCF712F8D1E75F4801F076FB3A
:1042E000CDE75E4801F072FBC9E7FDF765FEB0B1AE
:1042F0004B4BB3F856102C2201FB02F2584801F048
:1043000065FB002CBBDDA4F12003E02B0BD8444B54
:10431000A3F856402146534801F058FBAFE74E48FA
:1043200001F054FBABE7504801F050FBA7E73C4AD3
:10433000938FB3FA83F35B09938723B13B494B48CF
:1043400001F044FB9BE74149F9E7354AB2F85030A8
:10435000B3FA83F35B09A2F8503023B133494448E0
:1043600001F034FB8BE73949F9E72D4AB2F84630C2
:10437000B3FA83F35B09A2F8463023B12B493D48D9
:1043800001F024FB7BE73149F9E7254AB2F85230C6
:10439000B3FA83F35B09A2F8523023B123493648BC
:1043A00001F014FB6BE72949F9E71D4AB2F86630C2
:1043B000B3FA83F35B09A2F8663023B11B492F4897
:1043C00001F004FB5BE72149F9E7154AB2F86830D0
:1043D000B3FA83F35B09A2F8683023B11349284884
:1043E00001F0F4FA4BE71949F9E70D4AD38FB3FA14
:1043F00083F35B09D38723B10C49224801F0E6FA25
:104400003DE71249F9E7FDF7D7FD00283FF437AF44
:104410000348FBF773FF1C4801F0D8FA2FE700BFF1
:1044200010AD00206C2F0210A02F0210E43F0210EC
:10443000D42F0210F42F0210383002106430021012
:104440008C300210AC300210CC300210AC270210BD
:10445000283102108C310210EC300210543102105D
:10446000E031021048320210103202107032021095
:104470008C320210CC320210F432021018330210C7
:1044800034330210503302106C3302102DE9F04126
:10449000BAB004460D4600201BF042F906469F23A1
:1044A0001F936022002120A815F012FC06AF4FF0E8
:1044B000640842460021384615F00AFC4246394657
:1044C0001FA81BF0D5F89DF81B30012101FA03F756
:1044D000FDF772FD002832D0631E042B2FD8DFE8D1
:1044E00003F003364D50760038A808F011FF9DF810
:1044F000E3309DF8E4209DF8E5109DF8E6009DF876
:10450000E740049403900291019200939DF8E230F9
:104510009DF8E1209DF8E010384801F057FA314647
:10452000374801F053FA0421364801F04FFA3A4671
:10453000002F07DB12153946334801F047FA3AB02D
:10454000BDE8F08107F57F2202F6FF72F2E72F4BFC
:104550009D420DD005F580532D4A13602C4B1A68EF
:1045600029462C4801F032FA2846FCF7FBF8E6E72A
:10457000274B1D6805F580521A60EFE7FCF7AAF893
:10458000DDE7254801F022FA4FF47A7400214FF05C
:10459000FF300AF005FB022006F09CF8002003F033
:1045A000C6F868B9013CF1D11C4801F00FFAFCF7DC
:1045B0004FF81B4801F00AFA1A4801F007FABEE763
:1045C000002003F0B9F8184801F000FAB7E70F4BE4
:1045D0009D420DD005F58053144A1360134B1A68A1
:1045E0002946134801F0F2F9284601F04DF9A6E7F3
:1045F0000E4B1D6805F580521A60EFE78C330210F0
:10460000C0330210E83302101C3402104342414010
:1046100004AD00205834021094340210F03402101B
:104620000835021024350210DC34021008AD0020D9
:104630006835021030B585B004460D46FDF7BCFC68
:10464000E8B1601E03281AD8DFE800F0021B324BE5
:1046500002A801F06BF99DF80B3000939DF80A3029
:104660009DF809209DF808102F4801F0AFF99DF83A
:104670000A10C1F38201CA012C4801F0A7F905B064
:1046800030BD2B4B9D420DD005F58053294A136058
:10469000284B1A682946284801F098F9284601F065
:1046A000F3F8ECE7234B1D6805F580521A60EFE73D
:1046B000224801F08BF9002001F0C2F801462048A1
:1046C00001F084F9002001F0BBF844F24103984264
:1046D00003D01C48FDF714F8D1E71B4801F076F928
:1046E000CDE71A4801F072F94FF47A7400214FF0C7
:1046F000FF300AF055FA022005F0ECFF002003F02D
:1047000016F850B9013CF1D1114801F05FF901F000
:104710001DF9104801F05AF9B1E7002003F00CF838
:104720000D4801F053F9AAE7A4350210CC35021068
:104730004342414008AD002068350210F0350210B8
:1047400014360210446300202C3602105836021032
:10475000AC360210C43602109436021070B52248EE
:1047600008F019FC0025B5F5005F10DA002C0EDB0F
:10477000642008F0D9FB041EFADB1C4B5C550135A4
:1047800015F03F0FEFD12E2008F0F6FBEBE729469E
:10479000174808F02FFC002307E0164A116831F88B
:1047A000132052BA21F813200133B3F5805FF4DBF4
:1047B00000260BE02A190F4B1B6833F812100E4825
:1047C00008F018FC01340F2CF4DD01361E2E06DC37
:1047D00035012946094808F00DFC0024F3E70A20BA
:1047E00008F0CAFB70BD00BFD43602105C42002046
:1047F000043702106C3300205004021040040210F1
:1048000038B5314B1C682388304D2B6063886B6052
:1048100004F58053B3F8FE3F6B61FCF705F9A8611E
:10482000A079A3881B029BB21844A860A388FF2B21
:1048300015D800F10043013B14F8132000233F2A50
:1048400016D80F2B14DC02F03F022149895C214A63
:10485000D1540133421ED21A14F81220EFE71E4A37
:104860001C4B07CA03C323F8022B120C1A7008E072
:1048700002F03F021649895C164AD15401330021E7
:10488000D154114B1A6802F58052B2F8FC3F03F084
:104890003F030F49C85C114B1870B2F8FA0F00F0D3
:1048A0003F00085C58702D209870B2F8F80F00F0A7
:1048B0003F00085CD870B2F8F62F02F03F028A5C25
:1048C0001A7100225A7138BD6C33002074B2002076
:1048D000AC4F03105C620020303702106C62002085
:1048E00010B5FFF78DFF104808F055FB0F4C2168FD
:1048F0000A460F4808F07EFB61680A460D4808F03A
:1049000079FBA2680C490D4808F074FB0C490D486E
:1049100008F070FBA26961690B4808F06BFB0A2084
:1049200008F02AFB10BD00BF3C37021074B2002013
:1049300068370210843702105C620020A037021032
:104940006C620020C0370210D437021030B583B03B
:104950002F4808F020FB2F4808F04CFB00240DE006
:104960002D4808F047FB08E0FFF74AFF2B4B2C4A85
:104970002C4909682C4808F03DFB0134092C1BDC4C
:1049800021462A4808F036FB294B1A686303D25A9D
:104990004FF6FF739A42E3D00023B3F5805FE3DA6A
:1049A00003EB0430234A12682149096831F81010DA
:1049B00022F813100133F0E7002403E0164808F052
:1049C00019FB0134092C1DDC21461B4808F012FBA1
:1049D000184D4FF4005300932B68620305211748CC
:1049E0001AF072FE2B681A884FF6FF739A42E5D0D0
:1049F000FFF706FF094B0A4A0A4909680A4808F006
:104A0000F9FADEE70A2008F0B7FA03B030BD00BFBC
:104A1000FC3702102C3802106C3802105C62002047
:104A20006C62002074B200208438021054380210E6
:104A3000C43300206C330020983802100000084076
:104A400010B504460146084808F0D4FAA4F1300332
:104A5000092B02D81C46054B1C60044B19680448FE
:104A600008F0C8FA10BD00BFB0380210683300204B
:104A700074FF011070B582B004465E4808F0BAFABF
:104A80005D4B09221A70032C00F2AF80DFE804F0BE
:104A900002182E740026ADF806600DF10605574C7D
:104AA0002946204605F0DAFFADF806602946204683
:104AB00005F0D4FF00F0F2FD00F07CFD02B070BD07
:104AC000E023ADF806300DF106054C4C2946204692
:104AD00005F0C4FF8623ADF806302946204605F0D0
:104AE000BDFF00F0DBFD00F065FDE7E7B623ADF8A4
:104AF00006300DF10605414C2946204605F0AEFF73
:104B00001023ADF806302946204605F0A7FF012303
:104B1000ADF806302946204605F0A0FFC623ADF8C3
:104B200006302946204605F099FF0026ADF80660BC
:104B30002946204605F092FFF223ADF806302946BB
:104B4000204605F08BFFADF806602946204605F0AB
:104B500085FF5A23ADF806302946204605F07EFF32
:104B60009123ADF806302946204605F077FF00F086
:104B700095FD00F01FFDA1E73E23ADF806300DF1D5
:104B800006051E4C2946204605F068FF1123ADF8A6
:104B900006302946204605F061FF1023ADF80630A7
:104BA0002946204605F05AFF7523ADF80630294600
:104BB000204605F053FFC023ADF8063029462046B5
:104BC00005F04CFF0123ADF806302946204605F0DC
:104BD00045FF2F23ADF806302946204605F03EFF5D
:104BE00000F05CFD00F0E6FC68E700F057FD00F027
:104BF000E1FC63E7DC38021007B30020EC7300200F
:104C000038B5002008F090F910F1020F67D0044683
:104C1000394B1B78002B63D01B2807D0043B052B96
:104C20005DD8DFE803F01F5C2C2E5C21324B0022A4
:104C30001A70324808F0AFF951E001350C2D4EDC06
:104C400005EB45032E4A12F82330A342F5D105EBBC
:104C500045022B4B03EB82035B689847264B0022EF
:104C60001A70EAE70025E9E7A0F13003082B36D8EF
:104C70001846FFF7FFFE204B00221A702FE046284F
:104C800005D0A4F13003092B07D900250DE0FFF76B
:104C900065FD194B00221A70F3E72046FFF7D0FE9E
:104CA000154B00221A701AE001350E2D17DC05EBAA
:104CB0004503144A12F82330A342F5D105EB45020F
:104CC000104B03EB82035B6898470B4B00221A7072
:104CD000EAE703EB430301EB83035B68984738BDC6
:104CE0000023122BFBDC03EB4302074911F82220BF
:104CF000A242EED00133F4E707B30020E4380210FB
:104D0000E83100203431002084320020034602685C
:104D1000EFF3108172B6D2E8CFCF0120BCF1000FC3
:104D2000F9D1C2E84C0FBCF1000FF4D1BFF35F8F93
:104D300018895A89801A02D5DA8901321044002272
:104D40001B68C3E88F2F81F31088704708B53C4873
:104D500008F021F93B4B3C4A196812683B4808F0BF
:104D600049F93B4B3B4A196812683B4808F042F945
:104D70003A4B3B4A196812683A4808F03BF93A4BFB
:104D80003A4A196812683A4808F034F90A2008F0DB
:104D9000F3F8384B384A19681268384808F02AF98D
:104DA000374B384A19681268374808F023F9374BEF
:104DB000374A19681268374808F01CF9364B374AE9
:104DC00019681268364808F015F9364808F0E3F813
:104DD000002002F046FC28B33349344808F00AF9B1
:104DE000042002F03EFC48B32F49314808F002F994
:104DF000022002F036FCF8B12B492E4808F0FAF8F0
:104E0000012002F02EFCA8B127492B4808F0F2F847
:104E1000032002F026FC38B1BDE8084022492748AB
:104E200008F0E8B82649D8E725492448BDE80840F5
:104E300008F0E0B82249E8E72149DEE72049D4E755
:104E4000CC450210B4330020B833002000460210D5
:104E5000AC330020B0330020284602107C33002001
:104E60008033002050460210A4330020A8330020D5
:104E7000784602109C330020A0330020A046021088
:104E80009433002098330020C84602108433002059
:104E900088330020F04602108C330020903300202D
:104EA00018470210D8570210280D02104047021070
:104EB0005C4702107847021094470210B047021076
:104EC0002C0D021008B51E4800F080FD1D4B1E4A37
:104ED000196812681D4800F079FD1D4B1D4A1968BC
:104EE00012681D4800F072FD1C4B1D4A19681268BB
:104EF0001C4800F06BFD1C4B1C4A196812681C48CA
:104F000000F064FD1B4B1C4A196812681B4800F036
:104F10005DFD1B4B1B4A196812681B4800F056FDCB
:104F20001A4B1B4A196812681A4800F04FFD1A4BB9
:104F30001A4A196812681A48BDE8084000F046BDD0
:104F4000CC470210B4330020B833002000480210D0
:104F5000AC330020B0330020244802107C33002002
:104F60008033002048480210A4330020A8330020DA
:104F70006C4802109C330020A0330020904802109F
:104F80009433002098330020B4480210843300206A
:104F900088330020D84802108C3300209033002042
:104FA000FC4802102DE9F04FCC4E89B00121306849
:104FB00008F08EFA0346CA4FCA4930683B6008F0D1
:104FC000A3FADFF884830121C8F80000306808F0F4
:104FD0007FFADFF878B3C449CBF80000306808F0F6
:104FE00093FADFF86C930121C9F80000306808F0EB
:104FF0006FFABE4BD9F800201860BD4B0121306814
:105000001A6008F065FABB4ABB491060306808F0C6
:105010007BFABA4DBA49BB4C08600121286808F0F8
:1050200057FAB9492060286808F06EFAB74A01219A
:105030001060286808F04CFAB549B64C0860B649CB
:10504000286808F061FA01212060286808F040FA19
:10505000B24AB3491060286808F056FAB149B24C18
:1050600008600121286808F033FAB04920602868F8
:1050700008F04AFA4FF480330124D8F800A0AC4A73
:1050800004930AF1140310601B030AEB040243EAC1
:10509000C2133F6823F0C0430094D6F80080059304
:1050A000A44AA54B3946CDE90632404602231A22CE
:1050B00008F05EFA08F12F4101F56001090D063193
:1050C000C9B21A20039104F091FA03991B2004F04D
:1050D0008DFA0DF1100C524663463946404608F0F1
:1050E00096FA4FF4502A4FF400234FF42020D8F8BA
:1050F0000010D9F8002004FA07F70F43DBF800B0DE
:10510000C8F80070CDE906A3131D11191B0343EA6B
:10511000C113376823F0F8530DF1100C43F0D0534E
:105120005946049005933846634608F070FA39688A
:1051300004FA0BFB6D4B4BEA0101D9F80020D3F8C0
:10514000008039604FF480314FF42020131D079107
:105150001B03111943EAC113D6F800B023F0F8532A
:105160000DF1100C43F0D05341460490059358467E
:105170006346CDF818A0624F08F049FAD6F800A0AF
:105180005C4ED7F8009037680026DBF8003004FA50
:1051900008F848EA03034FF48031CBF80030079653
:1051A0004FF440264FEA093343EAC9131C22009406
:1051B00004910593394623465046069608F0D8F9DF
:1051C0001C205E4E069B0AF12F41334043F00053F2
:1051D00043F420230693079B01F5600123F07C73C1
:1051E00023F01F03090D43F4801306310343C9B2B2
:1051F000079304F0FBF94FF420200DF1100C6346E7
:105200004A4639460490504608F001FA3D4B3F4863
:10521000D3F80090DAF8003004FA07F71F43D0F80B
:1052200000804FF48031CAF800704FF440234FF0F3
:1052300000570094CDE9063704914FEAC81308F1EE
:105240000B01D5F800A043EA013323F0C0434946DF
:10525000059312222346504608F08AF92346494610
:1052600000941322504608F083F94FF42022049250
:10527000069A0AF12F41324001F5600142F4002202
:105280002F4F06924FEA115B079A2E4B0BF1060B3C
:105290003A405FFA8BFB134359461220079304F000
:1052A000A5F95946132004F0A1F90DF1100C63463D
:1052B00042464946504608F0AAF9164B04FA09F945
:1052C000D3F800B0DAF80030114849EA0303D0F807
:1052D00000804FF48031CAF800303BE0C03300203A
:1052E000B433002018BB021004BB02107C33002032
:1052F00080330020A4330020F8BA0210BC33002011
:10530000A83300209C330020D8BA0210A03300201C
:105310009433002098330020C4BA02108433002054
:1053200098BA0210883300208C330020B0BA0210E3
:1053300090330020006807400000DD01FFFFF5C149
:10534000E0830FFC124C1000B8330020AC33002077
:10535000B03300204FF000504FF440230094CDE9CB
:10536000063004914FEACB130BF10401D5F80090FD
:1053700043EA013323F0C0434146059314222346F8
:10538000484608F0F5F82346414600941522484661
:1053900008F0EEF84FF4202214200492079A6A4B8A
:1053A0003A4013430793059B09F12F4123F0F8532B
:1053B00001F5600143F0D05321FA00FA0593069BF2
:1053C0000AF1060A5FFA8AFA334043F42023514671
:1053D000069304F00BF95146152004F007F90DF17E
:1053E000100C63465A4641464846584F08F00FF99C
:1053F000D9F80030D7F800A004FA08F8544F48EA6A
:1054000003033F68C9F800304FF440234FF4803164
:105410004FF0005006930AF10703009404911B0318
:105420000AF10201D5F8008043EAC11323F0C0431A
:1054300003223946079005934046234608F098F822
:10544000444B08F12F410493069B01F56001334062
:1054500043F0705343F400330693079B090D063164
:1054600023F4F84343F440630320C9B2079304F0E4
:10547000BDF80DF1100C634639460AF103024046AF
:1054800008F0C5F8D8F80030334804FA07F71F438E
:105490004FF480314FF44023D0F800902F482D680E
:1054A000D0F800A0C8F8007000270491069309F115
:1054B00004014FEAC91343EA0133009451460593AE
:1054C000162223462846079708F052F84FF4202268
:1054D000079B05F12F4123F07C7323F01F0343F456
:1054E000801343F016030793059B01F5600123F039
:1054F000F85343F0D0530593069B090D3340063112
:1055000013431620C9B20492069304F06FF84A467A
:10551000514604AB284608F07AF843F2FF73104A6C
:105520001049108804FA0AF4034028680443B1F8CB
:10553000A000B1F8A41043EA803343EA81232C6031
:10554000138009B0BDE8F08F145410008833002098
:10555000843300200000AC07903300208C330020FF
:10556000CC33002010AD00204FF050400B4A0C4BC4
:1055700040680C491B6812680007096848BF03337C
:1055800002EB420203F01F0301EBC201C1F8D83065
:105590004FF050435868C0F3C00070478433002078
:1055A00088330020BC330020014B1868704700BFCF
:1055B000B8AC0020F8B54FF050435B689B0336D47D
:1055C00001211B4E1B4C1C4D376820682A6800F1D6
:1055D000050C07EB47030CF01F0C02EBC303C3F8E9
:1055E000D8C007F1100399404FEA470C53680B42AB
:1055F000FCD1012108300CEB070300F01F0002EB87
:10560000C30340F48050043742F82710C3F8D80091
:105610000021142005F052F933682A68216803EB51
:10562000430301F01F0102EBC303C3F8D810F8BD18
:105630009C330020A0330020BC3300204EF2200019
:105640000849094B094A09681B68126801EB4101C6
:10565000063302EBC10203F01F03C2F8D800C2F800
:10566000D83070478433002088330020BC330020BA
:1056700001220849084B10B40C68196804F11003A2
:105680009A404B681342FCD1043441F824005DF881
:10569000044B704784330020BC3300200120044AAF
:1056A00004491368087043F007031360704700BF94
:1056B000F8AC002006B300200022034BC3E900220F
:1056C000C3E90222704700BF7CA500202DE9F04706
:1056D0004FF050463D4B86B093E8070006AB03E918
:1056E000070073683A4C9A0325780BD4736813F457
:1056F000004F14BF012302239D42237006D106B040
:10570000BDE8F08700239D422370F8D005F0CEF865
:1057100003460A462F4F304E3968D7F804C0581A4E
:10572000C7E9003262EB0C013360726000232B4A40
:1057300019F0C6FF4FF0000919462378284E0DEBEB
:105740008303D3F80CA00DEB8503DB680746C6F88E
:105750000090104601934FF47A72002319F0B0FFC5
:10576000DFF88C803B460090524640461D4907F0CA
:10577000D7F933680344336003EB080015BB1A4BB9
:105780001A491A6807F0CCF93368034418483360A3
:1057900007F001FC2378002BB1D0164B1A78002AB1
:1057A000ADD000214FF05042197053689B03A6D42E
:1057B0004FF47464102205210F4B1048009419F027
:1057C000A7FF9CE708F803903368DFE74CBB0210A3
:1057D000ECB20020D8400020D040002040420F0012
:1057E0004063002050490210B8AC002088490210E4
:1057F00078620020EAB200204463002000000840E4
:1058000008B50D490D4807F0AFFF0121042003F052
:10581000EDFE0121062003F0E9FE0121072003F03F
:10582000E5FE052003F095FF05234FF0010242EC51
:10583000403042EC443008BD005A6202000008408B
:1058400000B585B002460023ADF80E300223009368
:105850000DF10E030521044819F036FFBDF80E00C6
:1058600005B05DF804FB00BF0000084000B583B040
:105870000B46009202460521024819F049FF03B089
:105880005DF804FB00000840F0B5C7B0064600F51F
:10589000805722E007AB59191E4A10889278585356
:1058A0008A700235002406E01B4907A8284407F047
:1058B00037F9013501340F2C08DC03AB1A5DA2F176
:1058C0002003DBB25E2BEFD92E22EDE7103607A9BD
:1058D000124800F07BF8B7421AD93246104907A89F
:1058E00007F01EF905461023009303AB324605214D
:1058F0000C4819F0E9FE00240F2CCBDC03AB1A5D39
:10590000094907A8284407F00BF903350134F3E7E8
:1059100047B0F0BDF81A0210ECF90110C8190210D6
:105920009849021000000840941B021000B583B093
:1059300003460422009200220521034819F0B0FE1C
:1059400003B05DF804FB00BF0000084010B5C0B014
:105950004FF480720021684614F0BAF9002407E081
:105960004FF4807269462046FFF780FF04F580748B
:10597000B4F5802FF4D3024800F028F840B010BDF1
:10598000A049021008B50846012101F08FFB10B1B3
:10599000FCF728FC08BD0248FCF724FCFAE700BF2E
:1059A0009C75021008B5002001F07DFE002001F07A
:1059B00053FE00214FF0FF3009F0F2F808BD00005F
:1059C000014B1868704700BFACA600200FB400B5AB
:1059D000FFB080AB53F8042B00934FF4FA7101A889
:1059E00007F0C8F800280FDB00214FF0FF3009F066
:1059F000D7F8FFF7E5FF01A901F0CAFA00207FB050
:105A00005DF804EB04B07047054B1B68DB681D2292
:105A10000121044813F0A8FF4FF0FF30EFE700BF6B
:105A2000C83D0020BC49021070B50C46012120463B
:105A300001F03CFB05460221204601F037FB25B171
:105A4000064600244FF0FF300CE02348FFF7BEFF6E
:105A5000FCF742F83EE0214B53F82410284614F09E
:105A600021FD013408B10A2CF5DD78BB013C0B2C7B
:105A70002CD8DFE804F006090C0F1215181B1E21A4
:105A80002824FCF729F825E0FCF7A6F922E0FCF72A
:105A9000A7F91FE0FCF7E6F91CE0FCF71DFA19E096
:105AA000FCF73EFA16E0FCF7A1FA13E0FCF794FAD3
:105AB00010E0FCF7A9FA0DE0FCF7B6FA0AE0304670
:105AC000FCF7CEFA06E0FCF767FB03E02946044842
:105AD000FFF77CFF70BD00BFDC490210E8500310E7
