:020000041000EA
:10000000002008205D0100101B0100105D8201101E
:100010001101001011010010110100101101001058
:100020001901001019010010190100101F01001022
:10003000E1810110190100102101001023010010BD
:100040001101001011010010110100101101001028
:100050001101001011010010110100101101001018
:100060001101001011010010110100101101001008
:1000700011010010110100101101001011010010F8
:1000800011010010110100101101001011010010E8
:1000900011010010110100101101001011010010D8
:1000A00011010010110100101101001011010010C8
:1000B00011010010110100101101001011010010B8
:1000C00011010010110100101101001011010010A8
:1000D0001101001011010010110100101101001098
:1000E0001101001011010010110100101101001088
:1000F0001101001011010010110100101101001078
:100100001101001011010010110100101101001067
:10011000EFF30580103800BE00BE00BE00BE00BE7A
:1001200000BE00BEF2EB8871BCBE0310ECBE031033
:10013000A001001090A31AE7D3DEFFFF42012110B7
:10014000FF01000004F90300793512AB4FF0000005
:100150001E49086006C881F3088810474FF05040D8
:10016000006810B14FF00000F2E70DA40ECC00299A
:1001700002D000F012F8F9E71549164A002000E015
:1001800001C19142FCD11449884714498847144958
:10019000884700BEFDE701C901C29A42FBD3704700
:1001A000ECBE031088010020D83C00203CFA03106C
:1001B00000000820000008203CFA0310001008206E
:1001C00000100820000000007047000008ED00E06B
:1001D000D83C002088900020B5CB001065030010AB
:1001E00079CB0010F8B500BF064B0749C91A891032
:1001F00048BF0131491003D0044B0BB101481847E7
:10020000704700BFD83C0020D83C00200000000010
:1002100008B5054B1BB105490548AFF30080BDE8A3
:100220000840FFF7E1BF00BF00000000D48F0020AE
:1002300018F8011070B584B005460C4601AB02AA4F
:1002400003A90AF02DFD18B954B9204604B070BDB9
:100250000646019A029903980AF0F0FC3446F4E746
:100260002946014809F01EFA18F80110002203E09F
:10027000002120F8121001325D2AF9DD44F241021A
:10028000A0F8B8200022C2830284428402808280C7
:10029000A0F8A020A0F8A220A0F8A420A0F8A620F2
:1002A000A0F8A820A0F8782001228287C287A0F8B1
:1002B0004620A0F85020A0F8522041F28832A0F841
:1002C00054202022A0F856204FF05042526812F4D9
:1002D000003F01D00020704700B583B0FE2200929D
:1002E00003464FF4E832052103481FF049FA012084
:1002F00003B05DF804FB00BF000008404FF050431E
:100300005B6813F4003F01D00020704700B583B054
:10031000FE23009303464FF4E832052103481FF003
:100320002FFA012003B05DF804FB00BF0000084075
:100330004FF050435B6813F4003F01D0002070473A
:1003400000B583B0FE23009303464FF4E832052145
:1003500003481FF0F1F9012003B05DF804FB00BF72
:100360000000084000B583B001214148FFF762FF5B
:100370000CF06CFD07F0FEFE00F0DCFE07F01AFF4B
:100380004FF47A700AF03EF9192007F0E7FE4FF4B7
:100390007A700AF037F9192007F0E0FE01231C46B5
:1003A0008DF8043000208DF8050001A90EF046F804
:1003B00007F06EF91C2344EC403005F037F908F0E3
:1003C0008BFF09F001F808F0CFFB08F015F900F0F9
:1003D000B1FE284C2046FFF7ABFFB4F8B82044F23A
:1003E00041039A423DD107F0A9F907F0B7FF07F0A2
:1003F0006BFF06F0BFF800F0E7FE19234FF0000294
:1004000042EC403005F06EF808F066FE0DF090FB0F
:1004100019480DF029FC04F02DFD04F0FFFB0DF050
:100420004FFB164B02221A60A3F500531B6883F49E
:10043000804303F47043124A136000F07BFE05F022
:100440005BF800214FF0FF300EF0E6FB06F072F88B
:1004500004F058FB07F0E0F907F08AFF08F042FAD1
:10046000EDE72046FFF702FF2046FFF747FFBAE718
:1004700048E80100B08A0020F905002000200A4069
:1004800000100A4070B504460D4616460023DB8A6C
:10049000002242E800F212F4800F0BD1102144F246
:1004A0004F10984703460D4AD2F8142842B96FF00E
:1004B000120070BD042144F24F1098470346F2E742
:1004C000BFF35F8F3246294620469847BFF35F8FC0
:1004D000024B0022C3F81428EBE700BF00000E40D7
:1004E00010B588B004464FF4806220216846FFF7BB
:1004F000C9FF41B251B900231F2B13DC03F12002C5
:100500006A4412F8202C2AB90133F5E7214805F096
:1005100073F9F0E74FF482611F4805F06DF9002090
:1005200008B010BD002305E003F12001694401F883
:10053000202C01331F2B09DCE25C002AF4D10021BE
:1005400003F120026A4402F8201CF2E74FF4413222
:1005500020216846FFF796FF41B289B921460F482E
:1005600005F04AF94FF4013220216846FFF78AFF6F
:1005700041B251B969460A4805F03EF90120CFE77A
:10058000084805F039F90020CAE7074805F034F9B2
:100590000020C5E74CF801108CF8011000F901109B
:1005A00050F90110C8F8011028F9011010B5A0B0D9
:1005B00004464FF4806240210DEB0100FFF762FF1B
:1005C00041B209B9002319E0144805F015F90020DB
:1005D00022E05A0020A901EB430111F8400C03F17D
:1005E0008001694401F8800C81326A4412F8400CA1
:1005F00003F181026A4402F8800C02331E2BE8DD0D
:10060000002306E003F180026A4412F8802CE254D1
:1006100001331F2BF6DD012020B010BD68F9011059
:1006200010B54FF4FA740BE0022009F0EBFF013C27
:10063000002006F061FF00214FF0FF300EF0ECFAD1
:10064000002CF1DC10BD000070B5FFF7E9FF0024BD
:100650004FF4801516E02A4621460C4805F0CCF8E8
:10066000FFF7DEFFEFF3108372B6094E33604FF4ED
:10067000801128461FF078F8336883F3108805F559
:10068000801501340E2CE6DD70BD00BFA0F901100D
:10069000A451002003460144B1F5700F0ED80A485A
:1006A000006810F803C018461344994202D9BCF1FF
:1006B000FF0FF4D0BCF1FF0F02D07047002070474D
:1006C0004FF0FF30F9E700BF6C30002030B5C1B00B
:1006D0001D4805F0EFFE01221C490020FFF7DAFF5C
:1006E000B0F1FF3F2AD11A4805F086F8FFF798FFCE
:1006F0004FF48072FF21684619F026FB41258DF8E2
:1007000000501E2213490DF1010019F019FC0023BD
:100710008DF81F30022308934FF480720992402312
:100720008DF828308DF8295069464FF480101EF05E
:10073000D3FF094805F060F841B030BD01460748D5
:1007400005F05AF8F8E700BFD8F9011000FFEF00F4
:1007500004FA011030FA011048FA011080FA011071
:10076000034B1B78412B01D00020704701207047BC
:1007700000001010F0B5C1B0054600F58057B7F580
:10078000700F39D94FF4700736E0204B1B685A5D63
:100790001F4901A820440CF05BF9033401350136F0
:1007A0000F2EF2DD103D01AB19191A4A108892780C
:1007B00018538A700234002607E0174901A8204424
:1007C0000CF046F90134013501360F2E09DC0F4BD0
:1007D0001B685A5DA2F12003DBB25E2BEDD92E22FD
:1007E000EBE700214FF0FF300EF016FA01A90B489D
:1007F00005F002F8BD4207D22A46094901A80CF0CB
:1008000027F900260A24CBE741B0F0BD6C30002068
:1008100030150210DC130210CCFA0110341402104F
:10082000C4FA01102DE9F843044601F128074FF0FE
:100830000008C146B4F5700F19D204F1805505F5D2
:1008400080152E7800214FF0FF300EF0E5F97F2E55
:1008500010D0FF2E02D06EB16C6AEBE7C4F57003C6
:10086000BB421CD943451DD3B9F1000F1CD04846EB
:10087000BDE8F8836B6A1A1B974206D8B8F1000FDF
:1008800005D0904507D81C46D4E71C46D2E79046D1
:10089000A1461C46CEE79046A1461C46CAE74FF04B
:1008A000FF39E4E7A146E2E7A146E0E700E0586A45
:1008B000B0F5700F0BD200F1805303F580131A7856
:1008C000FF2A04D0412AF2D94FF0FF307047B0F52B
:1008D000700F00D870474FF0FF307047F8B50746EB
:1008E000002500E0656AB5F5700F0FD205F1805460
:1008F00004F580142678FF2E0CD03946601C19F0C0
:1009000071FA0028EED1002EECD001E04FF0FF3557
:100910002846F8BD4FF0FF35FAE700002DE9F04713
:10092000C0B004460D46154F396820F0FF094FF45A
:10093000807A52464944684619F06CFFE3B20DF8DC
:100940000350FFF76DFEEFF3108372B6DFF83080CF
:10095000C8F800305246694609F580101EF0BCFE0A
:10096000D8F8003083F310883B68185DA84214BFA4
:100970000020012040B0BDE8F08700BF6C300020AF
:10098000A45100202DE9F04FADF5005D83B020F0BB
:10099000FF0404F5801421F0FF0505F5801824F408
:1009A0007F6626F00F0628F47F6727F00F0707F50C
:1009B000805704F47064A7EB080B06F18053019391
:1009C00005F1805505F580150DF5805A0AF1080AE4
:1009D0004FF48052FF21504619F0B6F90DF1080985
:1009E0004FF48052FF21484619F0AEF92246019992
:1009F000504619F00FFF5A462946484619F00AFF9B
:100A0000FFF70EFEEFF3108372B60C4D2B60B91B8F
:100A100030461EF0A9FE2246514630461EF05CFECE
:100A20005A46494640461EF057FE2B6883F310880D
:100A30000DF5005D03B0BDE8F08F00BFA4510020AC
:100A400038B520F47F6424F00F04FFF7E9FDEFF3DD
:100A5000108372B6054D2B604FF4805120461EF076
:100A600083FE2B6883F3108838BD00BFA45100209B
:100A7000F8B50D46164620F0FF04FFF7D1FDEFF361
:100A8000108372B6054F3B603246294620461EF061
:100A900023FE3B6883F31088F8BD00BFA4510020FB
:100AA00003460144B1F1807F0ED80A48006810F86F
:100AB00003C018461344994202D9BCF1FF0FF4D089
:100AC000BCF1FF0F02D07047002070474FF0FF309D
:100AD000F9E700BF6830002008B504F099FC08BDB4
:100AE00008B503480CF01EFA024B04221A7008BD28
:100AF000D0FA01108390002008B54FF050435B6896
:100B000013F0807F04D0034903480CF00BFA08BDB2
:100B10000249F9E7C4380210DCFA0110D8FA0110D2
:100B200008B506480CF0FEF94FF47A7009F06AFD3A
:100B3000012108460AF0B2F908BD00BF08FB011008
:100B400008B506480CF0EEF94FF47A7009F05AFD3A
:100B500000214FF000700AF0EAF900BF28FB0110F5
:100B600008B502480CF0AFF908BD00BF58FB0110F2
:100B700008B503480CF0A7F904F080FC08BD00BFDD
:100B800068FB011008B504F049F808BD70B5B2B0B3
:100B90000A200CF089F9002407E0144B53F82420B4
:100BA000214613480CF0BEF90134042C1BDC20460E
:100BB00006F0A7FC0028F0D00C4E56F82420214661
:100BC0000C480CF0AFF956F8243022460A49684622
:100BD0000BF03EFF02466946204606F003FD204624
:100BE00006F08AFCE0E732B070BD00BF044C031091
:100BF000E4FB01109CFB0110C0FB011010B50E4876
:100C00000CF061F90D480CF08DF90D480CF08AF9E3
:100C100000240AE00B4904EB44029300CA189268CE
:100C2000C95C09480CF07EF901340B2CF2DD0A2076
:100C30000CF03AF910BD00BF08FC011014FC0110C3
:100C400028FC01108830002040FC011010B50E482F
:100C50000CF039F90D480CF065F90D480CF062F90B
:100C600000240AE00B4904EB44029300CA1892687E
:100C7000C95C09480CF056F90134012CF2DD0A2058
:100C80000CF012F910BD00BF4CFC01106CFC0110FF
:100C900098FC01107030002040FC01102DE9F0415B
:100CA00007464FF47462002119F04EF8002623E045
:100CB000F42406FB04F407EB04080025A8F83850D8
:100CC000C8F83050C8F83450C8F85C5088F83A502A
:100CD00088F8F05038343C4402342022294620461B
:100CE00019F032F81F220E4B53F82610204619F047
:100CF00027F988F8595001360F2ED9DD80233B8122
:100D0000A7F8FC30A7F8F031A7F8E4323B87A7F842
:100D10002C31A7F82032A7F81433BDE8F08100BFCA
:100D2000245C0310F8B5044616461A46069B770065
:100D300006EB4600F42501FB05F505EB0010211834
:100D40000A81235062194FF0010C82F8F0C0094A61
:100D50001A444A60083020441F22074919440230CF
:100D600019F0EEF8374405EB07152C44002384F8FE
:100D70002930F8BD280010100100101038B5049C6F
:100D800002EB420E4FF0F40C0CFB01FC0CEB0E1EC0
:100D900000EB0E052B81002340F80E308444012324
:100DA0008CF8F0306C60062902D007291FD038BDBE
:100DB00063881B2B11D0192BF7D102EB4202F423CD
:100DC00001FB03F303EB0213083318441F22104BFB
:100DD0009968023019F0B4F8E9E77346083318440B
:100DE0001F220B4B5968023019F0AAF8DFE702EB1B
:100DF0004202F42303FB01F101EB02110831084424
:100E00001F22034B1968023019F09AF8CFE700BF90
:100E1000185C0310032900D870472DE9F8430446F5
:100E2000164602EB4203F42701FB07F707EB031317
:100E300000EB03094FF0000840F80380A9F8088090
:100E400007F1380020441F22094B53F821100230CB
:100E500019F076F8274487F85980C9F82C80C9F82A
:100E60000480012E01D0BDE8F88387F8F080FAE70E
:100E7000245C0310F8B506460C461546B3B1194676
:100E8000570002EB4200F42303FB04F404EB0010D0
:100E9000083030441F22023019F052F82F4404EB7E
:100EA00007142644002386F82930F8BD02EB4205DA
:100EB000F42303FB04F404EB0512104400238372B3
:100EC000F3E7F42303FB01031B8913F0800F20D108
:100ED000F42303FB01031B8F13F0800F1BD1F423BA
:100EE00003FB0103B3F8683013F0800F15D1F4232E
:100EF00003FB0103B3F8983013F0800F0FD1F423F4
:100F000003FB0100B0F8C83013F0800F09D00120B6
:100F10007047012070470120704701207047012071
:100F200070470020704708B502EB4202F42301FB32
:100F300003F303EB021303441B8913F0010F08D1E1
:100F400013F0100F07D113F4807F06D1FFF7B9FF1C
:100F500000E0012008BD0120FCE70120FAE70000C5
:100F600030B585B0044644F24103ADF80E30FFF7CA
:100F700095FE0A4D4FF47463009323461022052119
:100F800028461EF0FDFB022300930DF10E03002204
:100F9000052128461EF0F4FB05B030BD00000840D6
:100FA0004FF050435B6813F4003F00D0704700B52A
:100FB00083B04FF474630093034610220521034865
:100FC0001EF0DEFB03B05DF804FB00BF000008402C
:100FD0002DE9F0411F464B1E0E2B3FD80646531EEF
:100FE000032B3DD88DB22D03ADB2D4B205F6FE7100
:100FF00089B222461EF0A8FB00F03F00DFF86480B3
:1010000018F800303B7005F6FD71224689B2304673
:101010001EF09AFB00F03F0018F800307B702D2383
:10102000BB7005F6FC7189B2224630461EF08CFB7F
:1010300000F03F0018F80030FB7005F6FB71224607
:1010400089B230461EF080FB00F03F0018F80030F7
:101050003B7100237B710120BDE8F0810020FBE79C
:101060000020F9E7645C03100F2900D9704770B5C0
:1010700082B005460E46F42201FB02F238320244E9
:101080000232114804F0B8FB002418E004EB4403DA
:101090004FF0F40C0CFB06FC0CEB031C0CF10802EB
:1010A0002A4405EB0C010B894968019155F80C1095
:1010B000009102322146054804F09EFB0134042CC5
:1010C000E4DD02B070BD00BFC4FC0110D0FC011013
:1010D0000148024BC01A7047000008208890002089
:1010E00000B58BB0684617F021FEFFF7F1FF079BB4
:1010F000C01A0BB05DF804FB10B500EBD0704410C3
:1011000000214FF0FF300DF087FD022009F07AFA40
:10111000002006F05CFA18B9013CF1D5002006E089
:10112000002006F059FA024804F066FB012010BDC9
:101130000CFD01102DE9F047012009F051FD824618
:10114000022009F04DFD8146032009F049FD80464B
:10115000092009F045FD07460A2009F041FD064631
:101160000B2009F03DFD05460C2009F039FD044631
:1011700051460E480BF0D6FE49460D480BF0D2FE04
:1011800041460C480BF0CEFE39460B480BF0CAFE28
:1011900031460A480BF0C6FE294609480BF0C2FE4C
:1011A000214608480BF0BEFEBDE8F0872CFD01107B
:1011B00040FD011054FD011068FD01107CFD01107F
:1011C00090FD0110A4FD011010B5114C20460BF04C
:1011D000A9FE10480BF0A6FEFFF77AFF01460E4865
:1011E0000BF0A0FEFFF77CFF01460C480BF09AFEC7
:1011F000052009F0EFFC0A4BA3FB003189090948DF
:101200000BF090FE20460BF05EFEFFF793FF10BD43
:10121000B8FD011008FE011058FE011074FE011007
:10122000D34D621090FE01102DE9F04F2DED068B8D
:1012300095B0FFF77FFF012009F0D2FC8246022023
:1012400009F0CEFC8146032009F0CAFC8046092043
:1012500009F0C6FC07460A2009F0C2FC06460B202E
:1012600009F0BEFC05460C2009F0BAFC03908E4B39
:1012700004221A608D4B1B6813F4807FFAD08B4BCD
:101280005B689BB207EE903AF8EE677A9FED887A3A
:1012900067EE877A9FED877A77EEC77ADFED866A09
:1012A00087EEA67AB3EE0BAA3AEE47AA052009F01C
:1012B00091FC824BA3FB0030800C07EE900AB8EE45
:1012C000678AFFF705FF800A07EE900AF8EE679A33
:1012D000FFF706FF800A07EE900AB8EE679A784B90
:1012E000B3F854B02C2303FB0BF39B0A07EE903AA0
:1012F000F8EE678A12A80BF09BFF00240BE004F1C4
:1013000050036B4413F8082C6E490DA800EB440001
:101310000BF09EFB0134072CF1D96B4804F06CFAFA
:101320006A4804F069FA6A4804F066FA694804F009
:1013300063FA694804F060FA684804F05DFA684BA3
:10134000684A6949694804F057FA05AC202200212F
:10135000204618F0F9FC2046FFF728F9002800F095
:1013600099809DF81430002B40F08F80604804F085
:1013700043FA604B1B78203BDBB25E2B40F28E8041
:101380005D4804F039FA5D4C204604F035FA5C48BB
:1013900004F032FA18EE100A1EF0BEF902460B46AF
:1013A000584804F029FA5146574804F025FA4946AE
:1013B000564804F021FA4146554804F01DFA3946D2
:1013C000544804F019FA3146534804F015FA2946F6
:1013D000524804F011FA0399514804F00DFAF2EE64
:1013E000027A6AEE277AB1EE047A87EE878ADFED19
:1013F0004D7A38EE278A1AEE100A1EF08DF906464D
:101400000F4618EE100A1EF087F9CDE900013246AA
:101410003B46454804F0F0F90DA9444804F0ECF9C6
:10142000204604F0E9F9424804F0E6F90022414B75
:10143000414804F0E1F919EE900A1EF06DF90246F8
:101440000B463E4804F0D8F919EE100A1EF064F974
:1014500002460B463A4804F0CFF918EE900A1EF007
:101460005BF902460B462C210191CDF800B03548BE
:1014700004F0C2F9204604F0BFF9134804F0BCF9A7
:1014800015B0BDEC068BBDE8F08F05A92E4804F021
:10149000B3F96EE72D4804F0AFF96AE715492C4817
:1014A00004F0AAF96FE700BF00200A4000000A40DC
:1014B0003333533A6ABC343F2D93E13A83DE1B4306
:1014C000B08A0020EC310210ACFE0110FCFE0110CD
:1014D00010FF011040FF01108CFF0110CCFF011024
:1014E0000800021014000210200002102C0002104C
:1014F0005000021000F00F10A000021004FE0110B6
:10150000D8000210EC0002100C0102102801021099
:1015100044010210600102107C01021098010210C7
:10152000B401021000000042D0010210F8010210C4
:10153000300202100040804040020210600202109F
:1015400080020210A002021070000210800002103F
:10155000C800021008B503F01DFC08BD08B5002046
:1015600005F0CFFF20B31749174804F045F90120D3
:1015700005F0C7FFF0B11349144804F03DF902200B
:1015800005F0BFFFC0B10F49114804F035F9032041
:1015900005F0B7FF90B10B490E4804F02DF9042077
:1015A00005F0AFFF60B107490B4804F025F908BD0D
:1015B0000A49D9E70949DFE70849E5E70749EBE7C1
:1015C0000649F1E7E4020210EC02021014030210D3
:1015D0003C030210640302108C030210E8020210A4
:1015E00070B5B2B0164804F007F9002407E0154BB7
:1015F00053F824202146144804F0FEF80134042C4A
:101600001BDC204605F07DFF0028F0D00D4E56F87B
:10161000242021460D4804F0EFF856F824302246E5
:101620000B4968460BF014FA02466946204605F05D
:10163000D9FF204605F060FFE0E732B070BD00BF83
:10164000508C0210044C0310FC030210B40302106F
:10165000D403021008B50E4804F0CEF801214FF46F
:10166000FA6009F01BFC00214FF0FF300DF0D4FAB6
:10167000002005F0ACFF0028F5D0064B4FF080426B
:101680001A60002005F0A8FF034804F0B5F808BD73
:101690001C04021000B00D406004021038B525484B
:1016A00004F0AAF8244804F0A7F84FF4FA740021D3
:1016B0004FF0FF300DF0B0FA022008F0A3FF002039
:1016C00005F085FF18B9013CF1D1042407E00020A2
:1016D00005F082FF194804F08FF838BD01340F2C53
:1016E00023DC174BF42202FB04331B8F13F0010F92
:1016F000F4D013F4807FF1D0114D01222146284609
:10170000FFF788FB022221462846FFF783FB0322CE
:1017100021462846FFF77EFB042221462846FFF794
:1017200079FB2846FFF73CFCD8E700214FF000701A
:1017300009F0FDFB74040210C804021060040210DA
:10174000E440002010B50446B8B90F4804F054F83E
:10175000192006F003FD16E021460C4804F0AAFE0D
:10176000192006F0FBFCFA2008F04CFF192006F0C7
:10177000F5FCFA2008F046FF013C631E082BEBD96C
:10178000034804F039F810BDFC04021010050210E3
:101790005033021008B54FF050435B6813F4003F1C
:1017A00001D1012008BD024804F026F80020F9E725
:1017B0001405021008B5034804F01EF803F05EFE9D
:1017C00008BD00BF5805021008B5FFF7E3FF00B9D8
:1017D00008BD034804F010F803F01AFEF8E700BF54
:1017E0007C05021008B5FFF7D5FF00B908BD034816
:1017F00004F002F80248FEF739FDF7E7A0050210F1
:10180000B08A002010B5FFF7C5FF70B910BD084BB6
:1018100053F82430074A32F814202146064803F0D2
:10182000EBFF01345F2CF2DDF0E70024FAE700BFA4
:1018300020BD0310B08A0020CC05021070B5C0B0E6
:101840000446FFF7A7FFB0B3BCB301224FF4807189
:101850004FF47F20FFF724F9B0F1FF3F4CD1204631
:1018600019F04EF806464FF48072FF21684618F0D2
:101870006BFA32462146684618F062FB00230DF8E9
:1018800006306A462146214803F0B6FF4FF47F2117
:101890001F4803F0B1FF4FF4807269464FF47F2078
:1018A000FFF7E6F81B4C21461B4803F0A5FF214635
:1018B0001A4803F0A1FF40B070BD164B1B78203BC7
:1018C000DBB25E2B04D81349154803F095FFF2E70D
:1018D0001049144803F090FF08E004F1805303F529
:1018E0007F231978104804F0E5FD01341F2CF4DD46
:1018F0000E4803F081FFDEE74FF47F210C4803F030
:101900007BFF4FF47F20FFF79BF8A8E75C060210EF
:101910008006021000F00F10BC060210DC06021058
:1019200028060210EC0502102006021050330210A7
:101930003806021030B589B00546EC463C4C0FCC59
:10194000ACE80F0094E80F00ACE807002CF8023B6D
:101950001B0C8CF8003000238DF81F307DB12C4615
:10196000284618F0CDFF042820D10022032A26DCC7
:10197000A35C303BDBB2092B1DD80132F6E72D48C2
:1019800003F03AFF6846FEF711FE58B19DF80030AB
:101990001BB9294803F030FF0BE06946274803F0E4
:1019A0002BFF06E0264803F027FF02E0254803F05E
:1019B00023FF09B030BD244803F01EFFF9E7234997
:1019C000684618F06DFC054610B30422214618F055
:1019D000B7FA00232B7169461D4803F00DFF1D481F
:1019E00003F00AFF41F28830FFF786FBA0B9684692
:1019F000FEF776FDA0B16946174803F0FDFE684684
:101A0000FEF7D4FD80B169460C4803F0F5FED0E73F
:101A1000124803F0F1FECCE7114803F0EDFEC8E7F1
:101A2000104803F0E9FEEAE70F4803F0E5FEC0E7DF
:101A300038B50210FC0602103007021068070210C9
:101A40007C070210A4070210D80702100008021039
:101A50004C0802106C080210D0080210080802108E
:101A6000A8080210F00802101C09021010B50D4859
:101A700003F0C2FE002408E00B4A0C4B53F824305C
:101A800021460B4803F0B8FE01341D2C08DC4FF052
:101A900050435A680123A3401A42EDD0054AECE7AF
:101AA00010BD00BF4409021040090210A8BC031079
:101AB000540902103C09021008B507F009F908BDE5
:101AC00008B507F09FF908BD08B507F06BF808BD29
:101AD00008B507F0D1F808BD08B507F049F808BD0A
:101AE00008B507F00FFB08BD08B507F011FB08BDEE
:101AF0002DE9F047ADF5805D82B0066901F18053B4
:101B000003F580131B6AB34205D004200DF5805DF8
:101B100002B0BDE8F08707461E4D0D440024019435
:101B20000022002312F046F9A1464FF4805819E034
:101B300016F080FC01465246174803F05DFE002077
:101B4000E4E70133019A93420AD202AAD25C19193E
:101B5000695C8A42F5D08A431AD14FF00109F0E757
:101B6000B61A14446EB1464500D2B04602A90B1F06
:101B70004246384611F0B8FE82460028D8D10023EC
:101B8000E0E7B9F1000F01D10120BFE70220BDE776
:101B90000320BBE7280010106C0902102DE9F04764
:101BA000ADF5955D86B006460F46012201460EA8AA
:101BB00011F0F4FC28B93146A6A818F08DFD0025D7
:101BC00018E0044616F036FC024623463146BA4871
:101BD00003F012FE002420460DF5955D06B0BDE829
:101BE000F087AEAC2C4414F8200C17F05DFB04F821
:101BF000200C0135A6A818F083FEA842F1D82E21AA
:101C0000A6A818F0CFF90446129D03462A4631468D
:101C1000AA4804F04FFC2F21304618F0C3F900B158
:101C2000461CA749204618F079FC002800F0BE8029
:101C30004FF00009A349204618F070FC08B94FF096
:101C40000309A149204618F069FC08B94FF00409BE
:101C50009E49204618F062FC08B94FF005099C49DE
:101C6000204618F05BFC08B94FF006099949204658
:101C700018F054FC08B94FF007099749204618F0AE
:101C80004DFC08B94FF008099449204618F046FC6D
:101C9000002800F09680B9F1000F00F08A803046ED
:101CA000FEF71CFE8046B0F1FF3F40F08D80032F11
:101CB00000F0D4800024022F03D1B8F1FF3F40F0A0
:101CC000D5800020FEF7F2FDB0F1FF3F00F01E814D
:101CD00029460020FEF7A6FD8046B0F1FF3F00F048
:101CE0001D81C0F5700305F580729342C0F01E811E
:101CF00004AC8DF8109031460DF1110018F0ECFC99
:101D00000C9508F1805303F580135A6A1B78FF2B5A
:101D100000F014810D92012205F128014046FEF7E2
:101D2000B9FCB0F1FF3F40F01081AEAC04AECDF88D
:101D30000080336A32780DF11101694803F05CFDCF
:101D40004FF48052FF21204617F0FEFF0FCE0FC444
:101D50000FCE0FC496E8030084E803000EAC002207
:101D60000023204612F026F803AB40F6D872B8A93B
:101D7000204611F0B9FD0446002840F0F480FEF73B
:101D80004FFCAEA9A1F52B76346804F2271424F099
:101D9000FF04EFF3108772B6224608F580101DF09D
:101DA0009BFC87F310883668AE1BFBE04FF00109FF
:101DB00040E74C4803F020FD0EA811F051FF01242C
:101DC00009E74FF009096AE70146474803F014FDA7
:101DD000BB1E012B3AD841460EA8FFF789FE0446E8
:101DE00004282AD8DFE800F00B03291A13003F4823
:101DF00003F002FD0EA811F033FF0224EBE63C488D
:101E000003F0FAFC0EA811F02BFF0324E3E6394897
:101E100003F0F2FC0EA811F023FFDCE6364803F0D5
:101E2000EBFC4FF0050A022C0AD0032F7FF443AFDE
:101E30000EA811F015FF5446CDE64FF0000AF2E768
:101E40002E4803F0D9FC4FF0060AEEE72C4803F0C9
:101E5000D3FC0EA811F004FF0724BCE6294803F0C8
:101E6000CBFC0EA811F0FCFE3C46B4E608F1805312
:101E700003F580131E460DF1100E03F12007F44602
:101E800030687168B268F368ACE80F001036E64657
:101E9000BE42F4D130687168AEE80300032C7FF4D1
:101EA00044AF0D9A4146184803F0A6FC0D994046F0
:101EB000FEF768FD39E700BFA4090210800B02108D
:101EC000F0090210F8090210000A0210080A0210B4
:101ED000100A0210180A0210200A0210280A021022
:101EE000F00D0210300A0210B80B0210D80B0210CD
:101EF000080C0210240C0210600C0210A00C02103E
:101F0000DC0C02100C0D0210380D0210324803F0E8
:101F100073FC0EA811F0A4FE09245CE62F4803F020
:101F20006BFC0EA811F09CFE0A2454E62C4803F02A
:101F300063FC0EA811F094FE0A244CE605F2271368
:101F400023F0FF0343446362E5E60146254803F0BE
:101F500053FC0D9A4146244803F04EFC0D9940462F
:101F6000FEF710FDE1E616F065FA014622461F482D
:101F700003F042FC0EA811F073FE00242BE6FF34A0
:101F800024F0FF04EFF3108772B6AEAD2246294667
:101F900008F580101DF0A0FB87F31088A5F52B75C0
:101FA0002B68F61A002E12DDAEAD4FF48052FF21E1
:101FB000284617F0C9FE03AB4FF4805229460EA8FD
:101FC00011F092FCA04403AD2C68002CD7D10EA8D0
:101FD00011F046FE0824FEE5600D02107C0D021093
:101FE000A40D0210D00D0210380D02106C09021061
:101FF00070B5ADF53E7D05460E462C220021B3A8F6
:1020000017F0A2FEFEF7ACFB68B3FF22002173A815
:1020100017F09AFE2B7833B9FF2173A811F035FE23
:10202000044648BB73AD2946514803F0E5FB5822EE
:1020300000215CA817F088FE4FF49072002114A8CC
:1020400017F082FE05B34B4B2A4614A95CA812F088
:10205000B6F8044698B316F0EDF901462246464814
:1020600003F0CAFB81E0454803F0C6FB4FF4705112
:10207000434803F0C1FB78E016F0DCF90146224644
:10208000404803F0B9FB70E03F4B404A40F2A95191
:102090003F480AF075FD31466846FFF77FFDBEAB4D
:1020A00003EB800353F82C2C013243F82C2C3948D5
:1020B00003F0A2FB14A95CA812F06AF8044614BB52
:1020C0009DF86A30FBB100214FF0FF300CF0A4FD09
:1020D0002946684618F000FB684618F011FC2E4BA4
:1020E0001B882DF800300DF16A01684617F0A0FE3C
:1020F0009DF85C3013F0100FCDD00DF16A01274828
:1021000003F07AFBD6E75CA811F0F9FF244803F04E
:1021100073FBBB99234803F06FFBBA99224803F085
:102120006BFBB599214803F067FBB999204803F090
:1021300063FBB8991F4803F05FFBB7991E4803F093
:102140005BFBB6991D4803F057FBB4991C4803F09C
:1021500053FBB3991B4803F04FFBBD991A4803F09A
:102160004BFBBC99194803F047FB0DF53E7D70BD54
:10217000B40E021004FE0110440F0210280E0210CB
:10218000640E0210900E0210D40E0210DC0E02102B
:10219000040F021050330210680F02106C0F02106F
:1021A000880F0210A80F0210D80F0210081002109A
:1021B000381002106810021098100210C810021097
:1021C000F810021028110210581102108811021084
:1021D00070B505460C461646FFF7DCFA30B1012C07
:1021E00008D021462846FFF7D9FC70BD044803F00B
:1021F00003FBFAE731462846FFF7FAFEF5E700BF92
:10220000B811021030B583B0044645886DBAADB23E
:10221000018849BA89B2374803F0EEFA29463648B0
:1022200003F0EAFAE188A38803F47F4202EB11226B
:102230005BBA9BB2FF2B2BD892B2B2F5805F2FD343
:1022400055BB2E4803F0D8FA04F58054B4F8FC0FBF
:10225000C0F305202A49B4F8FA2FC2F30522B4F8D6
:10226000F83FC3F30523B4F8F65FC5F305254D5DCC
:102270000095CB5C8A5C095C224803F0BDFAB4F897
:10228000FE1F49BA89B2204803F0B6FA03B030BD48
:102290001E4803F0B1FAD7E71D4803F0ADFAD3E7C3
:1022A000002DCED002F10043013B34F813305BBA6D
:1022B000DBB200203F2B0FD80F280DDC03F03F03CB
:1022C0000F49C95C134B19540130531E1B1A34F8C3
:1022D00013305BBADBB2EDE703F03F030849CB5C98
:1022E0000C490B54013000230B540B4803F084FAC3
:1022F000AAE700BFF01102100412021054120210DB
:102300008C4A0310B4120210D012021018120210DC
:1023100034120210044000207C120210F0B5C1B04B
:102320000746294803F068FA284803F065FA284868
:1023300003F062FA002428E0103CA4B201AB591962
:10234000244A1088927858538A700235002608E093
:10235000214901A828440AF07BFB01350134A4B2CD
:1023600001360F2E0ADC37F8142052BAD2B2A2F18D
:102370002003DBB25E2BEBD92E22E9E701A9174837
:1023800003F03AFAB4F5805F1BD200214FF0FF3022
:102390000CF042FC2246124901A80AF059FB002623
:1023A0000A250F2EC8DC37F8142052BA92B20D4914
:1023B00001A828440AF04CFB05350134A4B20136CB
:1023C000EFE741B0F0BD00BFE812021000130210A9
:1023D00068130210DC130210CCFA0110341402103E
:1023E000D4130210E013021010B501EB810C01F0C0
:1023F00003014900C1F1080EFF2303FA01F2C1F104
:1024000006042341CCF38F0C10F80C4022400A4103
:10241000604441780B4003FA0EF39BB213FA82F04A
:1024200080B210BD2DE9F04782B0804690F8B89296
:1024300001465C4803F0E0F908F105015A4803F051
:10244000DBF998F8B812594803F0D6F9002739E0BB
:10245000574803F0D1F904E0002E76D1554803F037
:10246000CBF904F5805494F8213494F8225405F003
:102470003F052D0105EB131505F03F054E4994F876
:102480002024920894F81F0400F03F0094F81D6483
:1024900094F81E349B0003EB961303F03F03CB5CD0
:1024A00000930B5C8A5C495D444803F0A5F994F8FD
:1024B000221494F823349B0003EB9111404803F05D
:1024C0009BF901374F4569DA41F2444A0AFB078A12
:1024D0000AF2D924224639463A4803F08DF90AF225
:1024E000FD2A94F8253094F8266006F00F06B60110
:1024F00006EB930694F8241003F0030301EB032189
:10250000314803F079F93146304803F075F994F811
:10251000273094F82850AD0005EB931594F8262049
:1025200003F03F031B0103EB1213DAB2120252FA5B
:1025300085F5ADB2FF2B8BD8B5F5805F8CD3002E1F
:102540008CD0234803F058F98BE7691E89B25046B6
:10255000FFF74AFFC0B200260EE000F03F00164B26
:102560001A5C1C4B9A550136A91B89B2013989B2F4
:102570005046FFF739FFC0B23F2801D80F2EECDDDF
:1025800000F03F000C4B1B5C12498B5501360023B9
:102590008B552A46104803F02FF962E702B0BDE8D8
:1025A000F08700BFE8130210FC1302101014021091
:1025B00018120210541202108C4A0310B4120210A6
:1025C000D012021024140210F01102100412021092
:1025D0003412021004400020381402102DE9F04398
:1025E000C1B08046354917F099FF002861D13448C1
:1025F00003F002F941B0BDE8F08321463846FFF709
:10260000F3FE02462F4901A828440AF021FA0535B5
:102610000134A4B201360F2EEFDD103CA4B201ABA1
:102620005919294A1088927858538A700235002621
:1026300008E0264901A828440AF00AFA01350134C5
:10264000A4B201360F2E0BDC21463846FFF7CCFE34
:10265000C2B2A2F12003DBB25E2BEAD92E22E8E758
:1026600001A91B4803F0C8F8B4F5805F0CD2002123
:102670004FF0FF300CF0D0FA2246164901A80AF0BC
:10268000E7F900260A25C6E709F10109B9F1000FAB
:10269000B0DC41F2444707FB098707F2FD270E48EB
:1026A00003F0AAF80D4803F0A7F80D4803F0A4F8CA
:1026B000DDE74FF000094C46E8E700BF7014021058
:1026C00078140210E0130210DC130210CCFA01108F
:1026D00034140210D4130210E81202100013021076
:1026E0006813021010B588B00138052806D8DFE855
:1026F00000F003075D9194BA06F00AFE08B010BD21
:102700000C46084618F0FCF80C2803D0584803F093
:1027100073F8F3E703238DF80C302378303BDBB2FA
:102720001B01DBB262781344303B8DF81330A37881
:10273000303BDBB21B01DBB2E2781344303B8DF857
:1027400012302379303BDBB21B01DBB262791344D8
:10275000303B8DF8103000228DF81120A379303BEA
:10276000DBB21B01DBB2E1790B44303B8DF80F305B
:10277000237A303BDBB21B01DBB2617A0B44303B86
:102780008DF80E30A37A303BDBB21B01DBB2E17A6D
:102790000B44303B8DF80D300092082303AA6821CA
:1027A00034480BF057F9344803F026F803A806F034
:1027B00039FE9DF812309DF814209DF815102F4811
:1027C00003F01AF89DF80F3003F07F039DF81020F6
:1027D0009DF811102A4803F00FF89DF80E102948B3
:1027E00003F00AF89DF80E3013F0040F0AD12648C2
:1027F00003F002F89DF90F30002B07DB234802F0AD
:10280000FBFF7BE7224802F0F7FFF3E7214802F0E5
:10281000F3FF73E706F0D8FD70E703A806F002FEA9
:102820000024132C0ADC04F120036B4413F8142C4D
:102830002146194802F0E0FF0134F2E79DF812301A
:102840009DF814209DF815100C4802F0D5FF9DF856
:102850000F3003F07F039DF810209DF811100848F9
:1028600002F0CAFF4AE70D4802F0C6FF46E700BF84
:1028700098140210A4350020D4140210E0140210A1
:1028800004150210281502103815021064150210E4
:102890004C1502108C150210CC150210E015021018
:1028A0002DE9F04198B007460C46FDF759FF70B38B
:1028B000002C54D02046FEF711F80546B0F1FF3F3A
:1028C00030D000F1805404F580145A4802F094FF8F
:1028D000594802F091FF214611F8012B236A606AE2
:1028E00001900095554803F0E5FD2378FBB17F2B5F
:1028F00021D0534802F080FF2378032B1FD0013BE7
:10290000DBB2012B23D94F4802F076FF07E04E4897
:1029100002F072FF4FF470514C4802F06DFF18B096
:10292000BDE8F08121464A4802F066FFF7E74948D2
:1029300002F062FFF3E7484802F05EFFEFE7474C22
:102940006019FFF75FFC6019FFF7E8FCE7E7434C0D
:102950006019FFF767FD6019FFF740FEDFE73548B4
:1029600002F04AFF344802F047FF4FF000084546A6
:1029700019E0C5F570044146394802F03DFF29468B
:10298000384802F039FFA20A4FF47001364802F0CD
:1029900033FFC4E72F4803F08DFD294802F02CFFD8
:1029A000022F2AD0656AB5F5700FB8D200214FF01A
:1029B000FF300CF031F905F1805404F580142378D0
:1029C000FF2BD6D004AE626A02920195226A009271
:1029D000621C1A4930460AF03BF8304603F06AFDA3
:1029E00008F101022378002BD4D07F2B01D0904630
:1029F000D3E7194803F05EFDCFE72278531EDBB220
:102A0000012B06D9032ACDD114482844FFF7FAFB3D
:102A1000C8E7124E2E443146144802F0EDFE711DF7
:102A2000134802F0E9FE96F8B812124802F0E4FEEC
:102A3000B8E700BF1C160210C80A0210140B0210DF
:102A400028700210300A0210280E0210640E0210C4
:102A500004160210681602108016021028001010CA
:102A600094160210CC16021008170210E813021078
:102A7000FC130210101402102DE9F04FADB00378D2
:102A8000012B40F0CE82064690F8DB92B9F10A0F96
:102A900007D840F25C7323FA09F313F0010F40F0FA
:102AA000C68220242246002124A817F04DF9224690
:102AB00000211CA817F048F92246002114A817F09D
:102AC00043F9224600210CA817F03EF922460021C6
:102AD00004A817F039F94FF00108B8F1030F00F31B
:102AE000A282002535E22F2A0CD03F2A40F0308206
:102AF000013B2CAA02EB830353F8402C013A43F824
:102B0000402C25E2013B2CAA02EB830353F8202C36
:102B1000013A43F8202C1BE2013B2CAA02EB830371
:102B200053F8602C013A43F8602C11E2013B2CAAC7
:102B300002EB830353F8802C013A43F8802C07E220
:102B4000A37F002B00F0048294F81DA0BAF12F0F90
:102B500067D0BAF12F0F6ED0BAF13F0F75D0BAF12E
:102B60003F0F7CD0BAF15F0F00F08380BAF15F0FA6
:102B700000F08A80BAF14F0F00F09080BAF14F0F49
:102B800000F09780BAF16F0F00F09D8003F1FF3BDA
:102B90002CAB03EB8B0353F8203C3BB12CAA02EB8C
:102BA0008B0252F8402C002A40F09A80002B40F013
:102BB000B2802CAB03EB8B0353F8403C002B40F06E
:102BC000B6802CAB03EB8B0353F8803C3BB12CAAB3
:102BD00002EB8B0252F8602C002A40F0B480002BEC
:102BE00040F0CB802CAB03EB8B0353F8603C002B05
:102BF00040F0CF802CAB03EB8B0353F8A02C002AC2
:102C000000F0F68053420827CDF800A0CDF804B0BC
:102C10009346CDF8088003951D4633463E461F4631
:102C2000C5E05A1E2CA901EB820252F8407C002F0D
:102C30008FDD013F33E15A1E2CA901EB820252F8CD
:102C4000207C002F00F32B8186E75A1E2CA901EB74
:102C5000820252F8207C002F81DD01371FE15A1ECD
:102C60002CA901EB820252F8407C002F00F317815F
:102C700078E75A1E2CA901EB820252F8807C002FC3
:102C80007FF774AF01370AE15A1E2CA901EB8202CB
:102C900052F8607C002F00F302816BE75A1E2CA9CA
:102CA00001EB820252F8607C002F7FF767AF013F93
:102CB000F5E05A1E2CA901EB820252F8807C002F0D
:102CC00000F3ED805EE7591E2CAA02EB810252F858
:102CD000A07C002F7FF75AAF013742F8A07CDEE0DE
:102CE0000827CDF800A000E001370E2F00F28D80FC
:102CF00094F81FA0524639466448FEF714F900289C
:102D0000F2D15246791C6148FEF70DF90028EBD14B
:102D1000DDF800A07BE008270F2F78D8E27F394646
:102D20005A48FEF700F9002871D00137F4E7082768
:102D30000F2F6CD8E27F39465448FEF7F4F800288C
:102D400065D00137F4E70827CDF800A000E002378E
:102D50000E2F6DD894F81FA0524639464B48FEF707
:102D6000E2F80028F3D15246791C4848FEF7DBF818
:102D70000028ECD1DDF800A049E008270E2F46D846
:102D8000E27F39464148FEF7CEF800283FD00237AF
:102D9000F4E708270E2F3AD8E27F791C3B48FEF76C
:102DA000C2F8A0B30237F5E7AA4544D201360BF1C9
:102DB0001002964211D8B0464FF0000AB8F10F0F3A
:102DC000F2D8E27F41463148FEF7ADF80028EBD15A
:102DD0000AF1010A08F10108F0E7DDF800A0DDF8CA
:102DE00004B0DDF80880039D3B4637461E460EE0E2
:102DF000082700E001370F2F09D8E27F3946234822
:102E0000FEF791F80028F5D101E0DDF800A0BAF155
:102E10004F0F2DD01AD8BAF12F0F23D0BAF13F0F90
:102E20003DD101372CAB03EB8B0343F8407C36E0FC
:102E3000DDF800A0EBE7DDF800A0DDF804B0DDF878
:102E40000880039D3B4637461E46E0E7BAF15F0F18
:102E500014D0BAF16F0F22D12CAB03EB8B0343F8E4
:102E6000A07C1CE02CAB03EB8B0343F8207C16E02A
:102E70002CAB03EB8B0343F8807C10E001372CABC9
:102E800003EB8B0343F8607C09E000BFE4400020C3
:102E9000A37F002B5CD1677F1F2F00F0AB80032F37
:102EA00040F2E98094F82130002B40F0B1804FF0DF
:102EB000130A94F822300BB14FF0000A3378012B3B
:102EC00000F0A9800F2F00F2D98094F81FB05A4665
:102ED00039466D48FEF727F8002840F0D28004F10B
:102EE0002401694A0BEB4B0BF42307FB03F303EBC1
:102EF0000B1B9344CBF80410E17F06F16F4000F503
:102F0000700001EB410103EB01115050E17F01EB37
:102F1000410103EB01111144A1F808A0E17F01EB8D
:102F2000410103EB0111114400278F72E17F01EB96
:102F3000410103EB01111144C862E17F01EB410142
:102F400003EB011008301044711C023017F0C4FB71
:102F5000013596F8E032AB4260DD41F2444405FBB6
:102F600004F404F201343444B8F1020F3FF4E8AD44
:102F7000B8F1030F8CD0B8F1010FE9D1627FA2F153
:102F80001003DBB20E2B55D96F2A56D8A37F082B1E
:102F900056D8E17F002956D0042957D894F820103C
:102FA000082956D894F82110012955D894F82210F0
:102FB000012954D894F82310012953D80BB11F2AA2
:102FC00053D90BB91F2A53D8002BC1D04F2A3FF435
:102FD000ADAD7FF688AD5F2A3FF49EAD6F2AB7D1C5
:102FE000013B2CAA02EB830353F8A02C013A43F8CF
:102FF000A02CADE7082700E001370F2F3FF64FAFB9
:10300000E27F39462048FDF78EFF0028F4D146E7DD
:103010004FF0000A4DE74AF0080A53E708F10108AB
:103020005BE54FF0670948462DB0BDE8F08F4FF0E3
:103030006909F8E74FF06709F5E74FF06709F2E72C
:103040004FF06709EFE74FF06709ECE74FF06709CA
:10305000E9E74FF06709E6E74FF06709E3E74FF06C
:103060006709E0E74FF06709DDE74FF06709DAE746
:103070004FF06709D7E74FF06A09D4E74FF06809C6
:10308000D1E74FF06809CEE7E44000202DE9F04396
:1030900083B006460C4615461F46FEF77BFB00280C
:1030A00000F007818046731F012B40F2DF8005EBA3
:1030B0004502F42304FB03F303EB0213AF4A13446A
:1030C0001B8913F0010F0DD12146AC48FDF7F9FE25
:1030D00070B9731E052B00F2EC80DFE803F00E39A7
:1030E0005A7BC7C72A462146A54802F085FBE0E087
:1030F0002146A44802F080FBDBE0A04BF42202FB57
:1031000004331B8F13F0010F1DD19F4802F074FB95
:103110009A4C40F21713A4F8E4360023C4F8DC36C6
:10312000012584F89C57994BC4F8E0361F22984B30
:10313000196804F2E66016F003FF2046FDF730FF41
:10314000944B9D80B5E02146934802F055FBB0E0DA
:103150008A4BF42202FB04331B8F13F0010F13D1AF
:103160008E4802F049FB854C8D4B009340F21713BB
:10317000012206212046FDF701FE2046FDF710FF43
:10318000844B00221A8094E02146834802F034FBED
:103190008FE07A4BF42202FB04331B8F13F0010FF4
:1031A00013D1804802F028FB744C7F4B009340F20F
:1031B0001713012206212046FDF7E0FD2046FDF70A
:1031C000EFFE744B01221A8073E02146724802F030
:1031D00013FB6EE03846FDF781FB8046B0F1FF3F00
:1031E00026D02B4622463946704802F005FB08F1EE
:1031F000805606F580166E4802F0FEFA6D4802F021
:10320000FBFA314611F8012B336A706A0190CDF850
:103210000080694802F0F0FA3378032B0DD0337840
:10322000013BDBB2012B44D8644802F0E5FA40E0F0
:103230003946634802F0E0FA3BE0624F07EB0800D2
:10324000FEF7E0FF07EB080208F128015E4802F0F4
:10325000D3FA4A4FCDF8008017232A462146384634
:10326000FDF760FD3846FDF79BFED8E73846FDF7D1
:1032700035FB0446B0F1FF3F1ED000F1805505F547
:1032800080154B4802F0B8FA4A4802F0B5FA2946D0
:1032900011F8012B2B6A686A01900094464802F0ED
:1032A000ABFA2B78032B0CD0012B4CD0022B00F067
:1032B000E28003B0BDE8F0833946414802F09CFA51
:1032C000F7E7404D2819FEF79DFF2A1904F1280160
:1032D0003E4802F091FA4FF00009082500E0013560
:1032E0000F2D12DCB9F1000F0FD1244BF42202FB99
:1032F00005331B8F13F0010FF1D129461F48FDF74D
:10330000E0FD0028EBD1C146EAE7B9F1000F12D089
:103310003A4629462E4802F06FFA062E0FD0174E75
:1033200000941723012229463046FDF7FBFC304666
:10333000FDF736FEBDE7274802F05EFAB9E72648FA
:1033400002F05AFAB5E7254802F056FA2846FFF788
:1033500093FB044663285CDDA0F16503052B53D87D
:10336000DFE803F0030742464A4E1D4802F044FAE4
:103370009FE71C4802F040FA9BE700BFE4400020B2
:10338000581702109417021000180210A89C03107E
:10339000185C0310B08A0020CC1702102818021005
:1033A000A87C031058180210A85C0310841802109F
:1033B0001C160210C80A0210140B0210DC180210AE
:1033C0000416021028001010AC1802103419021054
:1033D000B019021078190210CC190210F819021055
:1033E0000C1A0210301A0210254802F005FA60E7A4
:1033F000244802F001FA5CE7234802F0FDF958E79F
:10340000224802F0F9F954E70146214802F0F4F9A4
:103410004FE7204802F0F0F91F48FDF7C1FD072CE7
:1034200024D801A353F824F0B3320010493400101B
:103430006D3400106D3400106D3400105F340010D6
:103440006D34001057340010144802F0D5F9144BB5
:1034500001221A802DE7134802F0CEF929E712481D
:1034600002F0CAF90E4B01229A8022E721460F484A
:1034700002F0C2F91DE70E4802F0BEF919E700BFDD
:10348000541A0210701A0210A01A0210C01A021068
:10349000F01A02100C1B0210E44000202C1B02103A
:1034A000B08A00205C1B0210A81B0210DC1B02105B
:1034B000181C021070B506460C46FEF76BF9002882
:1034C00000F0AA80012E44D0022E70D031465A4816
:1034D000FDF7F7FC002877D1002C00F0908004EB7A
:1034E0004402F42306FB03F303EB0213524A134492
:1034F0001B8913F0010F00F09080224631464E48A0
:10350000FDF788FC224631464C4802F075F97CE014
:10351000224629464848FDF77DFC0134042C13DC83
:1035200004EB4402F42305FB03F303EB0213424ACA
:1035300013441B8913F0010FEFD029461046FDF705
:10354000C0FC0028E9D1E3E701350F2D03DC344648
:10355000E4E70425F9E73A4B00221A809A803648BE
:10356000FDF71EFD374802F047F955E0224629468F
:103570003148FDF74FFC0134042C13DC04EB44020A
:10358000F42305FB03F303EB02132B4A13441B89BB
:1035900013F0010FEAD129461046FDF792FC0028EE
:1035A000E9D0E3E701350F2D03DC0124E4E704252E
:1035B000F9E7234B00221A809A801F48FDF7F0FCA0
:1035C000214802F019F927E03146204802F014F9A9
:1035D00022E00134042C14DC04EB4402F42306FB47
:1035E00003F303EB0213144A13441B8913F0010F76
:1035F000EFD0224631461048FDF70CFCE9E70124E4
:10360000E8E73146124802F0F7F8062E0BD0072EF5
:103610000DD00948FDF7C4FC70BD224631460D4867
:1036200002F0EAF8F8E7064B00221A80F1E7044BB3
:1036300000229A80EDE700BFE4400020181D021030
:10364000B08A0020541C0210881C0210BC1C0210FE
:10365000F81C0210341D02102DE9F041ACB00646F2
:103660000F46904620AC934D0FCD0FC40FCD0FC425
:1036700095E80F0007C4238018AC8F4D0FCD0FC401
:1036800095E80F0084E80F000DF1280C8B4C0FCC4F
:10369000ACE80F000FCCACE80F000FCCACE80F008B
:1036A00094E803004CF8040B8CF8001003AC844D34
:1036B0000FCD0FC495E8070003C42270FEF76AF827
:1036C000002849D0062E10D07E4BF42202FB07338F
:1036D0001B8F13F0010F0FD1013E052E00F2E68083
:1036E000DFE806F00F0F426B94CA3B1F0B2BEBD9A0
:1036F000754802F081F82FE03946744802F07CF8F2
:103700002AE005216F48FDF7DCFB40BB6D4C8023B0
:10371000A4F8FC340026C4F8F464012384F8B4351A
:103720006B4BC4F8F83404F2FE451F226949284661
:1037300016F006FC84F81D650DF160081F22414655
:10374000284616F0FDFB05275E48FDF729FC42469A
:103750003946614802F050F82CB0BDE8F081394696
:103760005E4802F049F8D1E705215648FDF7A9FB6C
:10377000F0B9544C8023A4F8F0350026C4F8E8656D
:10378000012384F8A836524BC4F8EC3504F2F25504
:103790001F225049284616F0D3FB84F811660DF11C
:1037A00028081F224146284616F0CAFB0627CBE709
:1037B00039464B4802F020F8DBE707214148FDF786
:1037C00080FBF0B93F4C8023A4F8E4360026C4F80F
:1037D000DC66012384F89C373D4BC4F8E03604F2E4
:1037E000E6651F223B49284616F0AAFB84F80567C8
:1037F0000DF10C081F224146284616F0A1FB0727B1
:10380000A2E73946374801F0F7FFDBE74FB3394607
:103810002C48FDF756FB50B32A4C0122394620466E
:10382000FDF7F8FA002239462046FDF7F3FA39464B
:103830002D4801F0E1FF8FE701340F2C13DC214606
:103840002048FDF73EFB0028F6D01E4D0122214600
:103850002846FDF7DFFA002221462846FDF7DAFA6E
:10386000EAE70424E9E7214801F0C6FF74E7394696
:103870001F4801F0C1FF6FE739461248FDF721FBF1
:1038800078B9104C0023009380230122394620464A
:10389000FDF748FA4346012239462046FDF7EAFA89
:1038A00052E73946134801F0A7FF55E7124801F0E7
:1038B000A3FF51E7701F0210A01F0210C01F0210CB
:1038C000F81F0210E4400020581D02107C1D021059
:1038D0002800101001001010541F0210B01D02101B
:1038E000F41D0210381E0210A01E02107C1E0210D1
:1038F000C41E0210F01E0210341F02102DE9F04702
:10390000D0B00546E0B10F4601EB4102F42300FBC5
:1039100003F303EB0213BC4A13441B8913F0010F9A
:1039200000F04F810146B848FDF79EFBB74801F013
:1039300063FF2D03AEB206F580581FFA88F8A0E1A8
:10394000B34801F059FFB34801F056FFB24801F007
:1039500053FF2E461FE004EB4403F42206FB02F261
:1039600002EB0312A84B13440B449A7A46AB5A5409
:1039700001311F29EFDD04EB4404F42306FB03F3BC
:1039800003EB0413A04A1A4446AB12893146A348FC
:1039900001F032FF01360F2E00F318810124042CB0
:1039A000F8DC31469848FDF78CFA18B1012C01D1AA
:1039B0002946DEE704EB4402F42306FB03F303EBA2
:1039C0000213914A13441B8913F0010F2FD013F4F3
:1039D000807F2ED040F0918022463146904801F001
:1039E0000BFF0134DBE704EB4403F42206FB02F295
:1039F00002EB0312844B13440B449A7A46AB5A549D
:103A000001311F29EFDD012CEBD104EB4402F4233B
:103A100006FB03F303EB02137B4A13441B8946AAFC
:103A20000092224631467F4801F0E6FED9E729465A
:103A3000E7E74EAB224631467348FDF7C9FA4FEA35
:103A40000639012C2BD01FFA89F9E3B2DFF8B881CF
:103A50001F461A46494640461BF076FE824609F14B
:103A600001013A4689B240461BF06EFE04EB440267
:103A7000F42306FB03F303EB021308EB03021189A3
:103A80000833434402335268039202930191009039
:103A90004EAB52462146644801F0AEFEA1E71FFA44
:103AA00089F9E3B2DFF860811F461A46494640466D
:103AB0001BF04AFE824609F101013A4689B24046AE
:103AC0001BF042FE04EB4402F42306FB03F303EB7A
:103AD000021308EB0302118908334344023352688E
:103AE00004920393029101904EAB009353462246F9
:103AF00031464E4801F080FE73E74FEA06394EAB7F
:103B0000224631464048FDF763FA012C2BD01FFABC
:103B100089F9E3B2DFF8F0801F461A46494640466D
:103B20001BF012FE824609F101013A4689B2404675
:103B30001BF00AFE04EB4402F42306FB03F303EB41
:103B4000021308EB0302118908334344023352681D
:103B500003920293019100904EAB524621463448A5
:103B600001F04AFE3DE71FFA89F9E3B2DFF89880D9
:103B70001F461A46494640461BF0E6FD824609F1BB
:103B800001013A4689B240461BF0DEFD04EB4402D7
:103B9000F42306FB03F303EB021308EB0302118982
:103BA0000833434402335268049203930291019014
:103BB0004EAB00935346224631461E4801F01CFE90
:103BC0000FE70A4601461C4801F016FE50B0BDE85A
:103BD000F0877119FAB289B20B481BF0B5FD0246A5
:103BE000164907A8204408F033FF044401350F2D7F
:103BF000EFDD07AB1919124A1088927818538A70B2
:103C00000234002525E000BFE440002050330210BC
:103C1000142002102820021060200210A820021098
:103C2000A8210210E82002106821021028210210A9
:103C300034220210F4210210742202109822021081
:103C4000DC130210134907A8204408F001FF0134D7
:103C500001350F2D0DDC7119FAB289B20E481BF037
:103C600073FDC2B2A2F12003DBB25E2BEAD92E2291
:103C7000E8E71036B6B207A9084801F0BDFDB04527
:103C8000A4D93246064907A808F0E2FE00250A2416
:103C9000ADE700BFCCFA0110E4400020341402105C
:103CA000D413021070B504460E46FDF773FD0028CC
:103CB0003BD00546601E032834D8DFE800F0023B05
:103CC0004C5D554801F098FD544B9B880BB154490D
:103CD00000E05449544801F08FFD504B1B880BB154
:103CE0004F4900E04F49514801F086FD042400216E
:103CF00000E001340F2C14DC4D4BF42202FB0433A2
:103D00001B8F13F0010FF4D0494B02FB043393F9DE
:103D1000F030002BEDDA2146464801F06DFD2946D2
:103D2000E7E719B13D48FCF7E9FA70BD424801F0F8
:103D300063FDF7E7394B9B8833B9384B01229A80F2
:103D40003E4801F059FDEDE7344B00229A803C4893
:103D500001F052FDE6E7314B1B8833B92F4B0122AE
:103D60001A80384801F048FDDCE72C4B00221A800D
:103D7000354801F041FDD5E72D4BF42202FB063317
:103D80001B8F13F0010F24D0294BF42202FB0633C2
:103D900093F9F030002B21DB06F0FE01244CF423D4
:103DA00003FB014090F8F02062F07F0280F8F020E1
:103DB00001FB0333234493F8F02062F07F0283F881
:103DC000F0204A1C214801F017FD2046FDF7E8F8D5
:103DD000A8E731461E4801F00FFDA6E706F0FE01F8
:103DE000134C134602FB014090F8F02002F07F02D2
:103DF00080F8F02001FB0333234493F8F02002F015
:103E00007F0283F8F0204A1C124801F0F5FC20469E
:103E1000FDF7C6F886E700BFA0220210B08A002096
:103E2000C8390210D4230210B4220210D02202108A
:103E3000E4400020EC220210242302105C23021034
:103E40007823021094230210B82302106024021079
:103E5000E02302101C24021070B582B00546FCF766
:103E60003DFDB0F1FF3F28D00446FDF793FC48B379
:103E700004F1805606F580162946184801F0BCFC6E
:103E8000174801F0B9FC174801F0B6FC164801F0DC
:103E9000B3FC314611F8012B336A706A019000942B
:103EA000124801F0A9FC00212046FCF737FD78B14B
:103EB00029460F4801F0A0FC08E029460D4801F012
:103EC0009BFC03E029460C4801F096FC02B070BD53
:103ED00029460A4801F090FCF8E700BFCC24021004
:103EE000EC2402101C160210C80A0210140B021057
:103EF0002025021004160210A424021040250210EE
:103F000010B509281FD004460A281ED0A44B1B88D0
:103F100073B3013C072C15D8DFE814F02E00C40061
:103F2000DC00EB00FA00070124013901E0B204F0E3
:103F30006BFA01345A2CF9DD002004F065FAE02018
:103F400004F062FA10BD4124F4E701F03BFA0A20C4
:103F500006F058FB4FF050435B6813F0005F05D04C
:103F6000904A1D21904801F047FCEBE78F4AF8E7A3
:103F70008F4801F041FCCCE7894BB3F8A6306BB118
:103F800088498C4801F038FC854BB3F8A030032BEE
:103F900000F28280DFE803F00474787C8349F0E764
:103FA000854801F029FC854B1B78002B78D084498B
:103FB000844801F021FC844C2188844801F01CFCD9
:103FC0002188C90B824801F017FC2188C1F3803198
:103FD000804801F011FC2188C1F340317E4801F096
:103FE0000BFC2188C1F300317C4801F005FC2188DD
:103FF000C1F3C0217A4801F0FFFB2188C1F3802181
:10400000784801F0F9FB2188C1F34021764801F09E
:10401000F3FB2188C1F30021744801F0EDFB2188F6
:10402000C1F3C011724801F0E7FB2188C1F3801190
:10403000704801F0E1FB2188C1F340116E4801F0A6
:10404000DBFB2188C1F300116C4801F0D5FB21880E
:10405000C1F3C0016A4801F0CFFB2188C1F38001A0
:10406000684801F0C9FB2188C1F34001664801F0AE
:10407000C3FB218801F00101644801F0BDFB61E749
:10408000634801F0B9FB8EE7624801F0B5FB8AE7AF
:10409000614801F0B1FB86E7604801F0ADFB82E7C3
:1040A0005F4985E73E4BB3F8A63063B13C4B002235
:1040B000A3F8A6203A4BB3F8A6304BB139493D4896
:1040C00001F09AFB3EE7364B0122A3F8A620F1E768
:1040D0003649F4E73C4A13886FEA43436FEA534397
:1040E00013802F4B0222A3F8A0204E4801F084FB3E
:1040F00028E7354A1388C3F30D0343F48043138044
:10410000274B0122A3F8A020474801F075FB19E7CF
:104110002D4A1388C3F30D031380214B0022A3F80B
:10412000A020424801F068FB0CE7274A138883F47B
:1041300000639BB213801A4AB2F8A4205AB1184AFD
:104140000021A2F8A41013F4006F09D01C493848CC
:1041500001F052FBF6E6124A0121A2F8A410F2E7A0
:104160002F49F4E70E4B1B881BB9324801F044FB82
:10417000E8E6154A138843F4005313802E4B0222BD
:104180001A6001F045F92D4801F036FBDAE6044BE0
:104190001B88002B54D1274801F02EFBD2E600BF2C
:1041A000B08A0020642502106C25021068250210D8
:1041B00088250210E4250210F825021072900020D4
:1041C000C4380210742602107031002088260210B4
:1041D000A0260210D4260210242702105427021011
:1041E0008C270210B8270210E427021008280210BA
:1041F0003428021064280210A8280210D8280210BF
:104200000C2902103C2902106C290210A02902106E
:1042100010260210282602104026021058260210EE
:10422000D8FA0110D4290210F02902100C2A021029
:10423000282A02104C2A0210C08F00207C2A02106B
:10424000064A138843F480531380054B02221A60F8
:1042500001F0DEF8034801F0CFFA73E67031002078
:10426000C08F0020982A021010B584B00446FDF7D4
:1042700091FA80B1601E0B280DD8DFE800F0060E21
:1042800032560C0C0C0C0C6E757C414BB3F878104C
:10429000404801F0B1FA04B010BD3F4801F0ACFA5B
:1042A0003B4BB3F878103B4801F0A6FA002400E03D
:1042B0000134B4F5007FEEDA04F570520823009360
:1042C0006B44D200052135481BF036FA029A039B55
:1042D00052EA0301ECD004F50071314801F08CFA88
:1042E000E6E729A3D3E90023CDE90223002412E065
:1042F000029B13F10133039A42F1013202930392BC
:1043000004F57052082300936B44D2000521234822
:104310001BF036FA0134B4F5007FE9DB214801F0E7
:104320006BFA214801F068FAB5E700220023CDE9D5
:10433000022300240AE004F57052082300936B4422
:10434000D200052115481BF01BFA0134B4F5007F9B
:10435000F1DB164801F050FA9DE70D480023A0F864
:104360007830FBF7CBFF96E709480123A0F87830B7
:10437000FBF7C4FF8FE706480223A0F87830FBF76D
:10438000BDFF88E7AFF300804140414041404140DC
:10439000B08A0020B42A0210D02A0210000008407F
:1043A000042B0210182B02104C2B0210682B021049
:1043B00038B50C4601380A2855D8DFE810F00B0054
:1043C00063008A00AC00BA00CA00DA00EA00FA0012
:1043D0000A0118018C4DB5F854102C2404FB01F28D
:1043E000920A8A4801F008FAB5F8561004FB01F267
:1043F000920A874801F000FAAB8F002B34D0854930
:10440000854801F0F9F9804BB3F85030002B2DD0DE
:104410008049824801F0F0F97B4BB3F846303BB35A
:104420007C497F4801F0E8F9774BB3F852300BB381
:1044300078497C4801F0E0F9734BB3F86630DBB1A2
:104440007449794801F0D8F96F4BB3F86830ABB1D3
:104450007049764801F0D0F96B4BDB8F83B16D4921
:10446000734801F0C9F938BD7249C9E77149D0E70D
:104470007049D6E76F49DCE76E49E2E76D49E8E746
:104480006C49EDE7FDF786F9D8B15F4BB3F85410EE
:104490002C2201FB02F2684801F0AEF9002CE2DDAB
:1044A000A4F57A7242F228339A420ED8564DA5F8F6
:1044B00054402146614801F09FF92846FBF71EFF52
:1044C000D1E75F4801F098F9CDE75E4801F094F933
:1044D000C9E7FDF75FF9B0B14B4BB3F856102C228A
:1044E00001FB02F2584801F087F9002CBBDDA4F172
:1044F0002003E02B0BD8444BA3F8564021465348E9
:1045000001F07AF9AFE74E4801F076F9ABE7504891
:1045100001F072F9A7E73C4A938FB3FA83F35B0982
:10452000938723B13B494B4801F066F99BE741492A
:10453000F9E7354AB2F85030B3FA83F35B09A2F8D1
:10454000503023B13349444801F056F98BE73949DB
:10455000F9E72D4AB2F84630B3FA83F35B09A2F8C3
:10456000463023B12B493D4801F046F97BE73149FC
:10457000F9E7254AB2F85230B3FA83F35B09A2F89F
:10458000523023B12349364801F036F96BE7294907
:10459000F9E71D4AB2F86630B3FA83F35B09A2F873
:1045A000663023B11B492F4801F026F95BE721490A
:1045B000F9E7154AB2F86830B3FA83F35B09A2F859
:1045C000683023B11349284801F016F94BE719491F
:1045D000F9E70D4AD38FB3FA83F35B09D38723B18D
:1045E0000C49224801F008F93DE71249F9E7FDF7C7
:1045F000D1F800283FF437AF0348FBF77FFE1C4893
:1046000001F0FAF82FE700BFB08A0020942B0210C7
:10461000C82B0210D4360210FC2B02101C2C0210E6
:10462000602C02108C2C0210B42C0210D42C02101E
:10463000F42C0210D4230210502D0210B42D0210BD
:10464000142D02107C2D0210082E0210702E021064
:10465000382E0210982E0210B42E0210F42E0210E2
:104660001C2F0210402F02105C2F0210782F021016
:10467000942F02102DE9F041BAB004460D460020F7
:104680001BF08AF806469F231F936022002120A872
:1046900015F05AFB06AF4FF0640842460021384639
:1046A00015F052FB424639461FA81BF01DF89DF835
:1046B0001B30012101FA03F7FDF76CF8002832D016
:1046C000631E042B2FD8DFE803F003364D5076002D
:1046D00038A808F0B5FD9DF8E3309DF8E4209DF87A
:1046E000E5109DF8E6009DF8E740049403900291E0
:1046F000019200939DF8E2309DF8E1209DF8E010D2
:10470000384801F079F83146374801F075F8102142
:10471000364801F071F83A46002F07DB121539468A
:10472000334801F069F83AB0BDE8F08107F57F221F
:1047300002F6FF72F2E72F4B9D420DD005F5805334
:104740002D4A13602C4B1A6829462C4801F054F866
:104750002846FCF70FF8E6E7274B1D6805F5805261
:104760001A60EFE7FBF7B2FFDDE7254801F044F8F8
:104770004FF47A7400214FF0FF300AF04DFA022016
:1047800005F040FF002002F022FF68B9013CF1D1A2
:104790001C4801F031F8FBF757FF1B4801F02CF8DB
:1047A0001A4801F029F8BEE7002002F015FF18486A
:1047B00001F022F8B7E70F4B9D420DD005F580536D
:1047C000144A1360134B1A682946134801F014F871
:1047D000284600F06FFFA6E70E4B1D6805F58052D6
:1047E0001A60EFE7B42F0210E82F02101030021009
:1047F0004430021043424140A48A0020803002101D
:10480000BC30021018310210303102104C3102104D
:1048100004310210A88A00209031021030B585B012
:1048200004460D46FCF7B6FFE8B1601E03281AD80F
:10483000DFE800F0021B324B02A800F08DFF9DF86C
:104840000B3000939DF80A309DF809209DF8081060
:104850002F4800F0D1FF9DF80A10C1F38201CA0170
:104860002C4800F0C9FF05B030BD2B4B9D420DD048
:1048700005F58053294A1360284B1A6829462848B1
:1048800000F0BAFF284600F015FFECE7234B1D6847
:1048900005F580521A60EFE7224800F0ADFF0020D6
:1048A00000F0E4FE0146204800F0A6FF002000F0E2
:1048B000DDFE44F24103984203D01C48FCF750FB54
:1048C000D1E71B4800F098FFCDE71A4800F094FFAD
:1048D0004FF47A7400214FF0FF300AF09DF9022066
:1048E00005F090FE002002F072FE50B9013CF1D1BB
:1048F000114800F081FF00F03FFF104800F07CFFFE
:10490000B1E7002002F068FE0D4800F075FFAAE74D
:10491000CC310210F431021043424140A88A0020F9
:1049200090310210183202103C320210E440002094
:104930005432021080320210D4320210EC320210D3
:10494000BC32021010B504460146084808F0EAFAE5
:10495000A4F13003092B02D81C46054B1C60044B04
:104960001968044808F0DEFA10BD00BFFC320210DE
:10497000183100202833021070B582B004465E481A
:1049800008F0D0FA5D4B09221A70032C00F2AF80B8
:10499000DFE804F002182E740026ADF806600DF171
:1049A0000605574C2946204605F0F0FFADF8066095
:1049B0002946204605F0EAFF00F086FD00F028FDBC
:1049C00002B070BDE023ADF806300DF106054C4C89
:1049D0002946204605F0DAFF8623ADF80630294641
:1049E000204605F0D3FF00F06FFD00F011FDE7E772
:1049F000B623ADF806300DF10605414C2946204698
:104A000005F0C4FF1023ADF806302946204605F016
:104A1000BDFF0123ADF806302946204605F0B6FF5C
:104A2000C623ADF806302946204605F0AFFF002624
:104A3000ADF806602946204605F0A8FFF223ADF840
:104A400006302946204605F0A1FFADF8066029464C
:104A5000204605F09BFF5A23ADF806302946204634
:104A600005F094FF9123ADF806302946204605F065
:104A70008DFF00F029FD00F0CBFCA1E73E23ADF84F
:104A800006300DF106051E4C2946204605F07EFF36
:104A90001123ADF806302946204605F077FF102394
:104AA000ADF806302946204605F070FF7523ADF8B5
:104AB00006302946204605F069FFC023ADF80630D0
:104AC0002946204605F062FF0123ADF8063029464D
:104AD000204605F05BFF2F23ADF80630294620461F
:104AE00005F054FF00F0F0FC00F092FC68E700F0E5
:104AF000EBFC00F08DFC63E74C3302108390002048
:104B00008C51002038B5002008F0A6F910F1020FF2
:104B10004ED004462D4B1B78002B4AD01B2807D0C3
:104B2000043B052B44D8DFE803F01F432C2E432120
:104B3000264B00221A70264808F0C5F938E00135E6
:104B4000012D35DC05EB4503224A12F82330A34240
:104B5000F5D105EB45021F4B03EB82035B689847D9
:104B60001A4B00221A70EAE70025E9E7A0F13003AA
:104B7000082B1DD81846FFF7FFFE144B00221A70B1
:104B800016E046280AD0A4F13003092B10D820469D
:104B9000FFF7D8FE0D4B00221A7009E00B4B0022E4
:104BA0001A70F0E703EB430301EB83035B6898475C
:104BB00038BD00230B2BFBDC03EB4302064911F845
:104BC0002220A242EED00133F4E700BF8390002000
:104BD00054330210703000208830002003460268F1
:104BE000EFF3108172B6D2E8CFCF0120BCF1000FF5
:104BF000F9D1C2E84C0FBCF1000FF4D1BFF35F8FC5
:104C000018895A89801A02D5DA89013210440022A3
:104C10001B68C3E88F2F81F31088704708B53C48A4
:104C200008F051F93B4B3C4A196812683B4808F0C0
:104C300079F93B4B3B4A196812683B4808F072F916
:104C40003A4B3B4A196812683A4808F06BF93A4BFC
:104C50003A4A196812683A4808F064F90A2008F0DC
:104C600023F9384B384A19681268384808F05AF95D
:104C7000374B384A19681268374808F053F9374BF0
:104C8000374A19681268374808F04CF9364B374AEA
:104C900019681268364808F045F9364808F013F9E3
:104CA000002002F02EFC28B33349344808F03AF9CA
:104CB000042002F026FC48B32F49314808F032F9AD
:104CC000022002F01EFCF8B12B492E4808F02AF908
:104CD000012002F016FCA8B127492B4808F022F960
:104CE000032002F00EFC38B1BDE8084022492748F5
:104CF00008F018B92649D8E725492448BDE80840F6
:104D000008F010B92249E8E72149DEE72049D4E755
:104D1000BC3C02105C31002060310020F03C0210ED
:104D20005431002058310020183D02102431002059
:104D300028310020403D02104C310020503100202D
:104D4000683D02104431002048310020903D02109F
:104D50003C31002040310020B83D02102C310020B1
:104D600030310020E03D0210343100203831002085
:104D7000083E0210508C0210E4020210303E021075
:104D80004C3E0210683E0210843E0210A03E02100B
:104D9000E802021008B51E4800F02EFD1D4B1E4A09
:104DA000196812681D4800F027FD1D4B1D4A19683F
:104DB00012681D4800F020FD1C4B1D4A196812683E
:104DC0001C4800F019FD1C4B1C4A196812681C484D
:104DD00000F012FD1B4B1C4A196812681B4800F0BA
:104DE0000BFD1B4B1B4A196812681B4800F004FDA1
:104DF0001A4B1B4A196812681A4800F0FDFC1A4B3E
:104E00001A4A196812681A48BDE8084000F0F4BC54
:104E1000BC3E02105C31002060310020F03E0210E8
:104E20005431002058310020143F0210243100205A
:104E300028310020383F02104C3100205031002032
:104E40005C3F02104431002048310020803F0210B6
:104E50003C31002040310020A43F02102C310020C2
:104E600030310020C83F021034310020383100209A
:104E7000EC3F02102DE9F04FC94E89B00121306896
:104E800008F0BEFA0346C74FC74930683B6008F0D8
:104E9000D3FADFF878830121C8F80000306808F001
:104EA000AFFADFF86CA3C149CAF80000306808F017
:104EB000C3FADFF860B30121CBF80000306808F0D6
:104EC0009FFABB4BBB491860306808F0B5FABA4D81
:104ED000BA4A01211060286808F092FAB849B94C22
:104EE0000860B949286808F0A7FA012120602868FD
:104EF00008F086FAB54BB6491860286808F09CFAA5
:104F0000B44A01211060286808F07AFAB24CB3491B
:104F10002060286808F090FAB14B012118602868D9
:104F200008F06EFAAF4AB0491060286808F084FAB9
:104F30004FF480330124D8F80090AC4A049309F16F
:104F4000140310601B0309EB040243EAC2133F6819
:104F500023F0C0430094D6F800800593A44AA54BE3
:104F60003946CDE90632404602231A2208F098FA63
:104F700008F12F4101F56001090D0631C9B21A206F
:104F8000039104F0CBFA03991B2004F0C7FA0DF14A
:104F9000100C4A4663463946404608F0D0FA4FF4B2
:104FA00000204FF45021D8F800C004FA07F747EA70
:104FB0000C07DBF80020DAF800B0C8F80070CDE983
:104FC00006104FF42021131D04911B03111943EA0D
:104FD000C113376823F0F8530DF1100C43F0D05390
:104FE000594605933846634608F0A9FA73483B686A
:104FF000D0F8009004FA0BFB6D484BEA03033668C7
:10500000D0F800A03B604FF480334FF440280027D5
:1050100004934FEA093343EAC9131C225146009412
:105020000593304623460797CDF8188008F038FAE4
:105030001C20714F069B06F12F413B4043F000536B
:1050400043F420230693079B01F5600123F07C7352
:1050500023F01F03090D43F4801306310343C9B243
:10506000079304F05BFA4FF420210DF1100C634616
:105070004A4604913046514608F061FA5148336877
:10508000D0F800B004FA0AFA4D484AEA0303D0F80F
:10509000009033604FF480334FF000504FF42026DF
:1050A000009404930BF10B014FEACB13D5F800A049
:1050B00043EA013323F0C043494607900593122287
:1050C00023465046CDF8188008F0EAF923464946B1
:1050D00000941322504608F0E3F9069B04963B40E7
:1050E0000AF12F4643F400230693444A079B06F532
:1050F00060064349360D1A4006361143F6B2079151
:105100001220314604F00AFA3146132004F006FA60
:105110000DF1100C63465A464946504608F00FFA06
:10512000DAF8003004FA09F92A49284E49EA03035B
:10513000D1F800B03668CAF800304FF480334FF031
:105140000050009404930BF104014FEACB13D5F8FF
:1051500000A043EA013323F0C04331460790059392
:10516000142223465046CDF8188008F099F92346BA
:10517000314600941522504608F092F94FF4202150
:10518000142004910AF12F4101F5600121FA00F980
:105190001C4A07991C4B0A4013430793059B3BE0AD
:1051A000683100205C310020DCB50210C8B5021067
:1051B0004C310020BCB50210643100205031002079
:1051C00044310020483100209CB502103C310020C1
:1051D00088B50210403100202C3100205CB502104F
:1051E000303100203431002074B5021038310020F5
:1051F000006807400000DD01FFFFF5C100800FE0FF
:10520000524E1004E0830FFC145410006031002053
:10521000543100205831002009F1060923F0F853D9
:1052200043F0D0530593069B5FFA89F93B4043F462
:1052300020234946069304F071F94946152004F0ED
:105240006DF90DF1100C63465A463146504608F090
:1052500076F9554B04FA06F6D3F800B0DAF80030C8
:105260004FF000501E434FF4803350491D22D1F8B7
:105270000090CAF8006004930BF1070300940BF14F
:1052800002011B032E6843EAC11323F0C0434946C1
:105290000790059330462346CDF8188008F000F9B2
:1052A000434B06F12F410493069B01F560013B40FF
:1052B00043F0705343F400330693079B090D063106
:1052C00023F4F84343F4E8431D20C9B2079304F0E4
:1052D00025F90DF1100C634649460BF103023046E7
:1052E00008F02DF933483368D0F800A004FA09F922
:1052F000314849EA03032D68D0F800B033604FF419
:105300008033002004930AF104014FEACA1343EAF0
:1053100001331622594607900094059328462346E8
:10532000CDF8188008F0BCF84FF42021079B0491B9
:1053300023F07C7323F01F0343F4801343F0160320
:105340000793059B05F12F4123F0F85343F0D05309
:10535000059301F56001069B090D3B40063143F4BE
:1053600020231620C9B2069304F0D8F852465946B5
:1053700004AB284608F0E3F843F2FF730F4A1049E4
:10538000108804FA0BF4034028680443B1F8A00025
:10539000B1F8A41043EA803343EA81232C601380E0
:1053A00009B0BDE8F08F00BF303100202C31002063
:1053B0000000AC073831002034310020703100206B
:1053C000B08A00204FF050400B4A0C4B40680C490B
:1053D0001B6812688000096848BF033302EB420271
:1053E00003F01F0301EBC201C1F8D8304FF0504366
:1053F0005868C0F3407070472C31002030310020D5
:1054000064310020014B1868704700BF588A0020A3
:105410004FF050435B689B0300D570474EF201008C
:1054200070B5134C134E144D236831682A68093344
:1054300001EB410103F01F0302EBC10243F480536F
:10544000C2F8D8000021C2F8D8300F2005F0CEF9FC
:105450004FF4604032682B68216802EB420203EB94
:10546000C20301F01F01C3F8D810C3F8D80070BD03
:1054700048310020443100206431002010B54FF045
:105480000103172443EC40400520002105F0AEF94C
:105490004FF0000343EC404010BD00BF012208491B
:1054A000084B10B40C68196804F110039A404B685B
:1054B0001342FCD1043441F824005DF8044B7047DA
:1054C0002C310020643100200120044A0449136873
:1054D000087043F007031360704700BF988A0020EC
:1054E000829000200022034BC3E90022C3E902227C
:1054F000704700BF1C8300202DE9F0474FF0504655
:105500003D4B86B093E8070006AB03E907007368DC
:105510003A4C9A0325780BD4736813F4004F14BFE8
:10552000012302239D42237006D106B0BDE8F08717
:1055300000239D422370F8D005F050F903460A4637
:105540002F4F304E3968D7F804C0581AC7E90032D7
:1055500062EB0C013360726000232B4A1AF0E8F80A
:105560004FF0000919462378284E0DEB8303D3F83A
:105570000CA00DEB8503DB680746C6F800901046CB
:1055800001934FF47A7200231AF0D2F8DFF88C807E
:105590003B460090524640461D4907F059FA336891
:1055A0000344336003EB080015BB1A4B1A491A6811
:1055B00007F04EFA336803441848336007F083FC61
:1055C0002378002BB1D0164B1A78002AADD00021D9
:1055D0004FF05042197053689B03A6D44FF4746483
:1055E000102205210F4B104800941AF0C9F89CE7CF
:1055F00008F803903368DFE710B602106C900020C3
:10560000803E0020783E002040420F00E040002015
:1056100040400210588A00207840021018400020B4
:105620006A900020E44000200000084008B50D49C1
:105630000D4808F031F80121042003F06FFF01212B
:10564000062003F06BFF0121072003F067FF052010
:1056500004F017F805234FF0010242EC403042EC11
:10566000443008BD005A62020000084000B585B011
:1056700002460023ADF80E30022300930DF10E0315
:10568000052104481AF058F8BDF80E0005B05DF881
:1056900004FB00BF0000084000B583B00B46009239
:1056A0000246052102481AF06BF803B05DF804FBCE
:1056B00000000840F0B5C7B0064600F5805722E06C
:1056C00007AB59191E4A1088927858538A700235D0
:1056D000002406E01B4907A8284407F0B9F9013562
:1056E00001340F2C08DC03AB1A5DA2F12003DBB2FE
:1056F0005E2BEFD92E22EDE7103607A9124800F0F5
:105700007BF8B7421AD93246104907A807F0A0F92A
:1057100005461023009303AB324605210C481AF0CE
:105720000BF800240F2CCBDC03AB1A5D094907A84A
:10573000284407F08DF903350134F3E747B0F0BD95
:10574000DC130210CCFA011034140210884002104D
:10575000000008403015021000B583B00346042253
:10576000009200220521034819F0CEFF03B05DF836
:1057700004FB00BF0000084010B5C0B04FF48072B9
:105780000021684614F0E0FA002407E04FF480722C
:1057900069462046FFF780FF04F58074B4F5802F3A
:1057A000F4D3024800F028F840B010BD9040021039
:1057B00008B50846012101F0C9FB10B1FCF77CF9DE
:1057C00008BD0248FCF778F9FAE700BFC46F021081
:1057D00008B5002001F0B7FE002001F08DFE002189
:1057E0004FF0FF3009F018FA08BD0000014B1868AF
:1057F000704700BF4C8400200FB400B5FFB080ABF1
:1058000053F8042B00934FF4FA7101A807F04AF9FA
:1058100000280FDBFFF7EAFF01A901F009FB0021D7
:105820004FF0FF3009F0F8F900207FB05DF804EB8D
:1058300004B07047054B1B68DB681D22012104483A
:1058400014F0CEF84FF0FF30EFE700BF703B0020C0
:10585000AC40021070B50C460121204601F076FBE9
:1058600005460221204601F071FB25B106460024C1
:105870004FF0FF300CE02548FFF7BEFFFBF7D4FCEC
:1058800043E0234B53F82410284614F047FE01341C
:1058900008B10C2CF5DDA0BB013C0C2C31D8DFE8A5
:1058A00004F0070A0D101316191C1F22292C2500BD
:1058B000FBF7BAFC29E0FBF74DFE26E0FBF74EFEB6
:1058C00023E0FBF78DFE20E0FBF7C4FE1DE0FBF7B5
:1058D000E5FE1AE0FBF778FF17E0FBF76BFF14E03B
:1058E000FBF780FF11E0FBF78DFF0EE03046FCF781
:1058F00021F80AE0FCF7BAF807E03046FBF79EFF14
:1059000003E029460348FFF777FF70BDCC40021043
:10591000D04B0310E440021038B50C46012120465C
:1059200001F014FB05460221204601F00FFB1DB1DA
:1059300000244FF0FF300CE01748FFF75DFFFCF745
:10594000BFF828E0154B53F82410284614F0E6FD64
:10595000013408B1052CF5DDC8B9013C052C16D879
:10596000DFE804F00306090C0F12FCF7A9F812E0B7
:10597000FCF7AAF80FE0FCF7ABF80CE0FCF7ACF88A
:1059800009E0FCF7B1F806E0FCF7AAF803E02946C5
:105990000348FFF731FF38BDCC400210B84B03106D
:1059A000004102102DE9F0410C460121204601F092
:1059B000CDFA07460221204601F0C8FA0646032127
:1059C000204601F0C3FA2FB180463EB100254FF0CA
:1059D000FF3411E03948FFF70FFF1EE000221146A7
:1059E0003846FCF7F5FB18E0354B53F825103046E8
:1059F00014F094FD044601350CB1022DF4DD44B9D8
:105A0000B5F1FF3F05D0B8F1000F13D04FF0FF30D4
:105A10000CE031462B48FFF7EFFEBDE8F081284B44
:105A200053F82410404614F079FD013408B1022CDB
:105A3000F5DD98B9012D16D0022D1CD0032D22D0F2
:105A4000012D28D0022D2ED0012D2FD0032D01D1D4
:105A5000012C2DD01C48FFF7CFFEDEE741461B4846
:105A6000FFF7CAFED9E7002CE6D100220121384613
:105A7000FCF7AEFBD1E7002CE0D100220221384632
:105A8000FCF7A6FBC9E7002CDAD100220321384637
:105A9000FCF79EFBC1E7022CD4D10222012138463B
:105AA000FCF796FBB9E7012CCED1F6E7032CCDD15C
:105AB000032201213846FCF78BFBAEE71C410210A4
:105AC000AC4B031064410210A44102108441021047
:105AD00038B50C460121204601F038FA054602216E
