:020000041000EA
:10000000002008205D010010130100105170011044
:100010001101001011010010110100101101001058
:100020001101001011010010110100101701001042
:100030001101001011010010190100101B01001026
:100040001D0100101D0100101D0100101D010010F8
:100050001D0100101D0100101D0100101D010010E8
:100060001D0100101D0100101D0100101D010010D8
:100070001D0100101D0100101D0100101D010010C8
:100080001D0100101D0100101D0100101D010010B8
:100090001D0100101D0100101D0100101D010010A8
:1000A0001D0100101D0100101D0100101D01001098
:1000B0001D0100101D0100101D0100101D01001088
:1000C0001D0100101D0100101D0100101D01001078
:1000D0001D0100101D0100101D0100101D01001068
:1000E0001D0100101D0100101D0100101D01001058
:1000F0001D0100101D0100101D0100101D01001048
:100100001D0100101D0100101D0100101D01001037
:1001100000BE00BE00BE00BE00BE00BEEFF3058004
:10012000103800BEF2EB8871C8940310F8940310E5
:10013000A801001090A31AE7D3DEFFFF42012110AF
:10014000FF010000E0CD0300793512AB4FF0000055
:100150002049086006C881F3088810474FF05040D6
:10016000006810B14FF00000F2E70FA40ECC002998
:1001700002D000F015F8F9E71749184A002000E00E
:1001800001C19142FCD1002080F30A8814498847BC
:10019000144988471449884700BEFDE701C901C2D8
:1001A0009A42FBD3704700BFF894031088010020E7
:1001B000A83B002018CF03100000082000000820F2
:1001C00018CF0310001008200010082000000000C5
:1001D0007047000008ED00E0A83B002080AF002041
:1001E00045BA00105D03001009BA0010F8B500BF51
:1001F000064B0749C91A891048BF0131491003D07D
:10020000044B0BB101481847704700BFA83B0020C2
:10021000A83B00200000000008B5054B1BB10549B4
:100220000548AFF30080BDE80840FFF7E1BF00BF1D
:1002300000000000ACAE0020A8E1011070B584B051
:1002400005460C4601AB02AA03A909F085FC18B9C2
:1002500054B9204604B070BD0646019A029903982D
:1002600009F048FC3446F4E72946014808F076F9DD
:10027000A8E10110002203E0002120F81210013251
:100280005D2AF9DD44F24102A0F8B8200022C283C1
:100290000284428402808280A0F8A020A0F8A220DC
:1002A000A0F8A420A0F8A620A0F8A820A0F8782004
:1002B00001228287C287A0F84620A0F85020A0F82B
:1002C00052204FF05042526812F4003F01D00020FB
:1002D000704700B583B0FE22009203464FF4E83227
:1002E000052103481DF014FF012003B05DF804FB55
:1002F000000008404FF050435B6813F4003F01D00A
:100300000020704700B583B0FE23009303464FF4EE
:10031000E832052103481DF0FBFE012003B05DF823
:1003200004FB00BF000008404FF050435B6813F42B
:10033000003F01D00020704700B583B0FE2300933A
:1003400003464FF4E832052103481DF0C5FE0120A5
:1003500003B05DF804FB00BF0000084000B583B0A7
:1003600001214548FFF76AFF0BF0B8FC06F076FE66
:1003700001F0AAF906F092FE4FF47A7009F09EF8A7
:10038000192006F05FFE4FF47A7009F097F81920F3
:1003900006F058FE01231C468DF8043000208DF82D
:1003A000050001A90CF0A4FF06F0EAF81C2344ECB8
:1003B000403004F0BDFA07F0DDFE07F053FF07F010
:1003C00043FB06F033F906F039FF06F0EDFE07F0C7
:1003D00083F801F079F9294C2046FFF7A5FFB4F81E
:1003E000B82044F241039A423ED124480123C383FA
:1003F00003848380FFF77EFF05F048F801F0AEF933
:1004000019234FF0000242EC403004F009FA07F0E3
:10041000CBFD0CF0D3FA1A480CF06CFB03F0D0FEC5
:1004200003F0A2FD0CF092FA164B02221A60A3F51B
:1004300000531B6883F4804303F47043124A136033
:1004400001F042F904F0F6F900214FF0FF300DF011
:100450003DFB04F0FBFF03F0E1FC06F049F906F078
:10046000F7FE07F0AFF9EDE72046FFF703FF204660
:10047000FFF740FFB9E700BF48E8010088A9002066
:100480009904002000200A4000100A4010B54FF4E3
:10049000FA740BE0022009F011F8013C002005F08D
:1004A000A3FF00214FF0FF300DF010FB002CF1DC1A
:1004B00010BD000070B5FFF7E9FF00244FF4801570
:1004C00016E02A4621460C4804F018FBFFF7DEFF31
:1004D000EFF3108372B6094E33604FF48011284653
:1004E0001DF00AFE336883F3108805F5801501348A
:1004F0000E2CE6DD70BD00BFDCE101107C70002039
:1005000003460144B1F5700F0ED80A48006810F890
:1005100003C018461344994202D9BCF1FF0FF4D02E
:10052000BCF1FF0F02D07047002070474FF0FF3042
:10053000F9E700BFA02D002030B5C1B00122194954
:100540000020FFF7DDFFB0F1FF3F25D1164804F092
:10055000D5FA4FF48072FF21684618F0EFFA412572
:100560008DF800501E2211490DF1010018F0E2FB38
:1005700000238DF81F30022308934FF480720992F4
:1005800040238DF828308DF8295069464FF48010AB
:100590001DF06AFD41B030BD0146054804F0AEFAD9
:1005A000F8E700BF00FFEF0014E201103CE2011089
:1005B00054E20110034B1B78412B01D000207047FF
:1005C0000120704700001010F0B5C1B0054600F5DD
:1005D0008057B7F5700F34D94FF4700731E01E4BD8
:1005E0001B685A5D1D4901A820440BF079F90334BA
:1005F000013501360F2EF2DD103D01AB1919184AF5
:100600001088927818538A700234002607E0154942
:1006100001A820440BF064F90134013501360F2E96
:1006200009DC0D4B1B685A5DA2F12003DBB25E2B87
:10063000EDD92E22EBE701A90B4804F05FFABD4289
:1006400007D22A46094901A80BF04AF900260A24D4
:10065000D0E741B0F0BD00BFA02D00208C010210FA
:10066000F0000210A0E20110C0FF011098E201109A
:100670002DE9F843044601F128074FF00008C14670
:10068000B4F5700F19D204F1805505F580152E7858
:1006900000214FF0FF300DF019FA7F2E10D0FF2E01
:1006A00002D06EB16C6AEBE7C4F57003BB421CD993
:1006B00043451DD3B9F1000F1CD04846BDE8F8836F
:1006C0006B6A1A1B974206D8B8F1000F05D0904507
:1006D00007D81C46D4E71C46D2E79046A1461C46E4
:1006E000CEE79046A1461C46CAE74FF0FF39E4E743
:1006F000A146E2E7A146E0E700E0586AB0F5700FD6
:100700000BD200F1805303F580131A78FF2A04D02E
:10071000412AF2D94FF0FF307047B0F5700F00D882
:1007200070474FF0FF307047F8B50746002500E0EE
:10073000656AB5F5700F0FD205F1805404F5801489
:100740002678FF2E0CD03946601C18F045FA002898
:10075000EED1002EECD001E04FF0FF352846F8BD79
:100760004FF0FF35FAE700002DE9F047C0B004462E
:100770000D46154F396820F0FF094FF4807A524634
:100780004944684618F026FDE3B20DF80350FFF720
:100790007DFEEFF3108372B6DFF83080C8F80030CA
:1007A0005246694609F580101DF05EFCD8F800300D
:1007B00083F310883B68185DA84214BF0020012015
:1007C00040B0BDE8F08700BFA02D00207C70002065
:1007D0002DE9F04FADF5005D83B020F0FF0404F586
:1007E000801421F0FF0505F5801824F47F6626F0BB
:1007F0000F0628F47F6727F00F0707F5805704F4EA
:100800007064A7EB080B06F18053019305F1805546
:1008100005F580150DF5805A0AF1080A4FF480524B
:10082000FF21504618F08AF90DF108094FF4805263
:10083000FF21484618F082F922460199504618F0E7
:10084000C9FC5A462946484618F0C4FCFFF71EFE6C
:10085000EFF3108372B60C4D2B60B91B30461DF0C0
:100860004BFC2246514630461DF0FEFB5A46494697
:1008700040461DF0F9FB2B6883F310880DF5005DF1
:1008800003B0BDE8F08F00BF7C700020002213464B
:1008900000E0013240F6FE718A420BDC074909682C
:1008A00031F812100B44B3F5806FF2DBC3F3090388
:1008B0000133EEE75B42C3F309007047DC2F0020F1
:1008C00008B503F035FF08BD08B5074A1368B3FA49
:1008D00083F35B09136023B1044905480BF06AFAFE
:1008E00008BD0449F9E700BFE82F0020981C02105A
:1008F000A8E20110A4E2011008B5074A1368B3FA90
:1009000083F35B09136023B1044905480BF052FAE5
:1009100008BD0449F9E700BFE42F0020981C02102D
:10092000B8E20110A4E2011008B5074A1368B3FA4F
:1009300083F35B09136023B1044905480BF03AFACD
:1009400008BD0449F9E700BFE02F0020981C021001
:10095000D0E20110A4E2011008B5094A136803F5BA
:100960009C5308331360074A934202DD044B002274
:100970001A60034B196804480BF01CFA08BD00BF4D
:100980001CAF0020A0860100E4E2011008B5034876
:100990000BF010FA024B04221A7008BD04E3011098
:1009A0007EAF002008B5064A137883F00103137068
:1009B00023B1044904480BF0FDF908BD0349F9E7E8
:1009C00069AF0020981C02100CE30110A4E2011092
:1009D00008B5084A138883F400739BB2138013F49C
:1009E000007F04D0044905480BF0E4F908BD044930
:1009F000F9E700BF3C300020981C02102CE30110E6
:100A0000A4E2011008B5084A138883F480739BB2EE
:100A1000138013F4807F04D0044905480BF0CAF911
:100A200008BD0449F9E700BF3C300020981C0210C3
:100A30004CE30110A4E2011008B5084A138883F4BE
:100A400080639BB2138013F4806F04D0044905487F
:100A50000BF0B0F908BD0449F9E700BF3C300020B5
:100A6000981C021074E30110A4E2011008B5084AB2
:100A7000138883F400639BB2138013F4006F04D0D7
:100A8000044905480BF096F908BD0449F9E700BF91
:100A90003C300020981C021098E30110A4E20110E1
:100AA00008B503480BF086F9024B07221A7008BDFF
:100AB000BCE301107EAF002008B505480BF07AF9C1
:100AC00004480BF077F9044B06221A7008BD00BFEA
:100AD000C4E30110F0E301107EAF002008B54FF031
:100AE00050435B6813F0807F04D0034903480BF048
:100AF00061F908BD0249F9E7981C02101CE40110D5
:100B0000A4E2011008B506480BF054F94FF47A70CE
:100B100008F0D4FC0121084609F01CF908BD00BF0B
:100B200048E4011008B506480BF044F94FF47A7018
:100B300008F0C4FC00214FF0007009F054F900BF28
:100B400068E4011008B507F0D5F808BD08B5044AF7
:100B50001388C3F30D03138002480BF0FCF808BDA3
:100B60003C30002098E4011008B5054A13886FEA6C
:100B700043436FEA5343138002480BF0ECF808BD7F
:100B80003C300020B4E4011008B5054A1388C3F3D3
:100B90000D0343F48043138002480BF0DCF808BDDA
:100BA0003C300020D4E4011008B5074A138843F410
:100BB00080531380054B02221A6003F0B9FD0448EC
:100BC0000BF0C9F808BD00BF3C30002098AE0020F3
:100BD000F4E4011008B5074A138843F40053138066
:100BE000054B02221A6003F0A3FD04480BF0B3F892
:100BF00008BD00BF3C30002098AE002010E5011079
:100C000008B504480BF0A7F8034904480BF0D2F8E4
:100C100008BD00BF30E501108D08001048E5011047
:100C200008B50A480BF097F8094B01221A700948D9
:100C30000BF0C0F8084B1968002903DB07480BF0DC
:100C4000B9F808BD06480BF0B5F8FAE768E50110F9
:100C50007AAF002094E50110D82F0020E0E50110C4
:100C6000B8E5011008B50A480BF075F8094B0222E7
:100C70001A7009480BF09EF8084B1968002903DB2D
:100C800007480BF097F808BD06480BF093F8FAE711
:100C9000FCE501107AAF002028E60110D82F0020D3
:100CA000E0E50110B8E5011008B514480BF053F861
:100CB00013480BF050F8134B1B7873B1124A1168AC
:100CC00000290ADB012B12D0022B0CD10F4B012281
:100CD0001A700F480BF06EF805E00C4B00221A70EA
:100CE0000C480BF067F80C480BF035F808BD074BC3
:100CF00001221A7009480BF05DF8F4E74CE6011088
:100D000078E601107AAF0020D82F002076AF0020BF
:100D10005CE70110B0E60110ACE7011008E7011034
:100D200010B50B480BF017F80A4C237883F0010339
:100D30002370094B196809480BF03CF8237823B15C
:100D4000074908480BF036F810BD0749F9E700BF1E
:100D500008E8011071AF0020D82F002028E801100A
:100D6000981C02104CE80110A4E2011010B50B48C9
:100D70000AF0F1FF0A4C237883F001032370094B3A
:100D8000196809480BF016F8237823B10749084879
:100D90000BF010F810BD0749F9E700BF64E8011037
:100DA00072AF0020D82F002028E80110281D021063
:100DB00084E80110A407021008B502480AF0CBFF2E
:100DC00008BD00BF94E8011008B503480AF0C3FF4E
:100DD00003F0F2FC08BD00BFA4E8011010B53948CB
:100DE0000AF0B9FF384B1B78002B68D037493848D8
:100DF0000AF0E0FF374C218837480AF0DBFF2188F2
:100E0000C90B36480AF0D6FF2188C1F38031344837
:100E10000AF0D0FF2188C1F3403132480AF0CAFFFE
:100E20002188C1F3003130480AF0C4FF2188C1F3A2
:100E3000C0212E480AF0BEFF2188C1F380212C4832
:100E40000AF0B8FF2188C1F340212A480AF0B2FF16
:100E50002188C1F3002128480AF0ACFF2188C1F3A2
:100E6000C01126480AF0A6FF2188C1F3801124484A
:100E70000AF0A0FF2188C1F3401122480AF09AFF2E
:100E80002188C1F3001120480AF094FF2188C1F3A2
:100E9000C0011E480AF08EFF2188C1F380011C4862
:100EA0000AF088FF2188C1F340011A480AF082FF46
:100EB000218801F0010118480AF07CFF10BD174994
:100EC00095E700BF98FF011069AF0020981C021041
:100ED000D8E801103C300020ECE8011000E90110D6
:100EE00030E901107CE90110A8E90110DCE90110EA
:100EF00008EA011030EA011054EA011080EA0110FA
:100F0000B0EA0110F4EA011024EB011054EB0110D7
:100F100084EB0110B0EB0110E4EB0110A4E201102E
:100F200010B50E480AF017FF0D480AF043FF0D48B0
:100F30000AF040FF00240AE00B4904EB440293004E
:100F4000CA189268C95C09480AF034FF01340E2CB3
:100F5000F2DD07480AF0FFFE10BD00BF18EC0110DB
:100F600038EC011060EC0110A42D00208CEC011075
:100F700098EC011008B502F0F7FF08BD70B51C48E9
:100F80000AF0E9FE00260BE02A191A4B1B6833F819
:100F9000121019480AF00EFF01340F2CF4DD01364F
:100FA000072E06DC3501294614480AF003FF002409
:100FB000F3E70A200AF0C0FEF8260BE02A190D4BD1
:100FC0001B6833F812100C480AF0F4FE01340F2CA1
:100FD000F4DD0136FF2E06DC3501294607480AF00C
:100FE000E9FE0024F3E70A200AF0A6FE70BD00BF68
:100FF000E0EC0110DC2F002004ED0110F4EC0110F6
:1010000070B50F480AF0A7FE00260BE02A190D4B19
:101010001B6833F812100C480AF0CCFE01340F2C78
:10102000F4DD0136FF2E06DC3501294607480AF0BB
:10103000C1FE0024F3E70A200AF07EFE70BD00BF67
:101040000CED0110DC2F002004ED0110F4EC011078
:1010500000B583B01E480AF07EFE1E4B1B78BBB164
:101060001D4A1168002913DB012B1AD0022B12D163
:101070001A480AF09FFE184B1A684FF40053009369
:10108000174B1B685203052116481DF025F802E096
:1010900015480AF060FE0A200AF04EFE03B05DF823
:1010A00004FB12480AF086FE00230CE00A4A12688C
:1010B00003EB02320A4909680D48006830F8122033
:1010C00021F813200133B3F5805FEFDBE3E700BFC6
:1010D00028ED01107AAF0020D82F0020B8ED0110C4
:1010E000DC2F0020000008404CED011094ED0110B1
:1010F0003430002070B5B2B00A200AF01DFE002482
:1011000007E0144B53F82420214613480AF052FEFE
:101110000134042C1BDC204605F06BF90028F0D0CC
:101120000C4E56F8242021460C480AF043FE56F88F
:10113000243022460A4968460AF0D2FB0246694634
:10114000204605F0C7F9204605F04EF9E0E732B039
:1011500070BD00BF8822031024EE0110DCED0110E9
:1011600000EE011010B50E480AF0F5FD0D480AF02A
:1011700021FE0D480AF01EFE00240AE00B4904EB94
:1011800044029300CA189268C95C09480AF012FE2A
:101190000134122CF2DD0A200AF0CEFD10BD00BF92
:1011A00048EE011054EE011068EE0110F42E0020FC
:1011B0008CEC011010B50E480AF0CDFD0D480AF078
:1011C000F9FD0D480AF0F6FD00240AE00B4904EB96
:1011D00044029300CA189268C95C09480AF0EAFD03
:1011E00001340C2CF2DD0A200AF0A6FD10BD00BF70
:1011F00080EE0110A0EE011060EC0110582E0020CE
:101200008CEC011010B582B028480AF0A4FD284BE0
:101210001B781BB1274B1B68002B02DA264B1B786F
:10122000D3B126480AF0C6FD214B1B78012B1AD0FA
:10123000022B36D11F4C21684A0321480AF0BAFD1F
:1012400022684FF4005300931E4B1B685203052184
:101250001D481CF05DFF24E0174B00221A701B484C
:101260000AF079FD1DE0134C21684A0302F1805217
:1012700002F5002216480AF09DFD4FF4FA6008F0CE
:101280001DF9206840304FF4005140031CF034FF3A
:10129000206840304FF400520A4B196840031CF09C
:1012A000E3FE0C480AF057FD02B010BDCCEE011071
:1012B0007AAF0020D82F002076AF002044EF011035
:1012C00080EF0110DC2F002000000840F0EE01103C
:1012D00058EF0110A8EF01102DE9F04107464FF437
:1012E0007462002117F02AFC002623E0F42406FB98
:1012F00004F407EB04080025A8F83850C8F830506B
:10130000C8F83450C8F85C5088F83A5088F8F05063
:1013100038343C44023420222946204617F00EFC83
:101320001F220E4B53F82610204617F003FD88F8B5
:10133000595001360F2ED9DD80233B81A7F8FC30B0
:10134000A7F8F031A7F8E4323B87A7F82C31A7F8CB
:101350002032A7F81433BDE8F08100BFA832031093
:10136000F8B5044616461A46069B770006EB46007B
:10137000F42501FB05F505EB001021180A81235027
:1013800062194FF0010C82F8F0C0094A1A444A6011
:10139000083020441F2207491944023017F0CAFCC4
:1013A000374405EB07152C44002384F82930F8BD99
:1013B000280010100100101038B5049C02EB420EFA
:1013C0004FF0F40C0CFB01FC0CEB0E1E00EB0E05B9
:1013D0002B81002340F80E30844401238CF8F03038
:1013E0006C60062902D007291FD038BD63881B2BEB
:1013F00011D0192BF7D102EB4202F42301FB03F3C6
:1014000003EB0213083318441F22104B9968023073
:1014100017F090FCE9E77346083318441F220B4B82
:101420005968023017F086FCDFE702EB4202F42332
:1014300003FB01F101EB0211083108441F22034BA9
:101440001968023017F076FCCFE700BF9C3203101A
:10145000032900D870472DE9F843044602EB420304
:10146000F42202FB01F606EB031300EB030900274D
:10147000C750A9F8087006F1380020441F22074B16
:1014800053F82110023017F055FCA31983F8597056
:10149000C9F82C70C9F80470BDE8F883A8320310AD
:1014A00030B585B0044644F24103ADF80E30FFF785
:1014B00013FF0A4D4FF47463009323461022052155
:1014C00028461CF025FE022300930DF10E03002296
:1014D000052128461CF01CFE05B030BD0000084068
:1014E0004FF050435B6813F4003F00D0704700B5E5
:1014F00083B04FF474630093034610220521034820
:101500001CF006FE03B05DF804FB00BF00000840BD
:1015100001F1FF3CBCF10E0F00F2888002F1FF3CAC
:10152000BCF1030F00F2848030B502EB420E4FF0A5
:10153000F40C0CFB01FC0CEB0E1C8444BCF80840C2
:1015400014F4807F37D0F42404FB01F101EB0E1C6E
:101550008444DCF8044004F58054B4F8FC5F05F0E2
:101560003F05344C655D1D70DCF8045005F5805571
:10157000B5F8FA5F05F03F05655D5D702D259D703E
:10158000DCF8045005F5805CBCF8F8CF0CF03F0C9B
:1015900014F80C50DD7001EB0E1101444A6802F59D
:1015A0008052B2F8F62F02F03F02A25C1A710022BC
:1015B0005A71012030BD02EB42044FF0F40C0CFBD9
:1015C00001FC0CEB041101444C6804F58054B4F8A0
:1015D000FCEFCEF3052E174C14F80E501D704D681D
:1015E00005F5805EBEF8FAEFCEF3052E14F80E5026
:1015F0005D702D259D70496801F58051B1F8F81F87
:10160000C1F30521615CD97002EB42020CEB021CB4
:101610006044426802F58052B2F8F62FC2F3052208
:10162000A25C1A7100225A710120C3E700207047A2
:1016300000207047E83203100F2900D9704770B5B9
:1016400082B005460E46F42201FB02F23832024413
:101650000232114803F052FA002418E004EB44036C
:101660004FF0F40C0CFB06FC0CEB031C0CF1080215
:101670002A4405EB0C010B894968019155F80C10BF
:10168000009102322146054803F038FA0134042C57
:10169000E4DD02B070BD00BFF4EF011000F00110F6
:1016A0000148024BC01A70470000082080AF00209C
:1016B00000B58BB0684616F033FAFFF7F1FF079BD1
:1016C000C01A0BB05DF804FB2DE9F047012008F0CB
:1016D000E3F98246022008F0DFF98146032008F092
:1016E000DBF98046092008F0D7F907460A2008F000
:1016F000D3F906460B2008F0CFF905460C2008F078
:10170000CBF9044651460E480AF054FB49460D48B1
:101710000AF050FB41460C480AF04CFB39460B4896
:101720000AF048FB31460A480AF044FB29460948BA
:101730000AF040FB214608480AF03CFBBDE8F08770
:101740003CF0011050F0011064F0011078F001102D
:101750008CF00110A0F00110B4F0011010B5144C81
:1017600020460AF027FB13480AF024FBFFF798FFF6
:10177000014611480AF01EFBFFF79AFF01460F4889
:101780000AF018FB0E4A41F288310E480AF012FBAB
:10179000052008F07BF90C4BA3FB003189090B48AD
:1017A0000AF008FB20460AF0D6FAFFF78DFF10BDBD
:1017B000C8F0011018F1011068F1011084F1011056
:1017C000A0F70300A0F10110D34D6210C8F1011081
:1017D0002DE9F04F2DED048B8DB0FFF775FF012043
:1017E00008F05AF98246022008F056F98146032093
:1017F00008F052F98046092008F04EF907460A2001
:1018000008F04AF906460B2008F046F905460C2078
:1018100008F042F90390744B04221A60734B1B6862
:1018200013F4807FFAD0714B5B689BB207EE903A5D
:10183000F8EE677A9FED6E7A67EE877A9FED6D7AA4
:1018400077EEC77ADFED6C6A87EEA67AF3EE0B9A35
:1018500079EEC79A052008F019F9684BA3FB003010
:10186000800C07EE900AB8EE678AFFF719FF800A2E
:1018700007EE900AB8EE679AFFF71AFF800A07EEA4
:10188000900AF8EE678A0AA80AF018FC00240BE018
:1018900004F130036B4413F8082C594905A800EBF8
:1018A00044000AF01DF80134072CF1D9DFF8C0B16B
:1018B000584603F023F9534803F020F9524803F047
:1018C0001DF9524803F01AF9514803F017F951482D
:1018D00003F014F9504B514A5149524803F00EF9A4
:1018E000514C204603F00AF9504803F007F918EE6E
:1018F000100A1CF0E1FB02460B464D4803F0FEF8CF
:1019000051464C4803F0FAF849464B4803F0F6F8C4
:1019100041464A4803F0F2F83946494803F0EEF8E8
:101920003146484803F0EAF82946474803F0E6F80C
:101930000399464803F0E2F8F2EE027A69EEA77ADC
:10194000B1EE047A87EE878ADFED417A38EE278A96
:1019500019EE900A1CF0B0FB06460F4618EE100A6E
:101960001CF0AAFBCDE9000132463B46394803F0A2
:10197000C5F805A9384803F0C1F8204603F0BEF8C1
:10198000364803F0BBF84FF40271354803F0B6F85F
:1019900019EE100A1CF090FB02460B46314803F08A
:1019A000ADF818EE900A1CF087FB02460B462E4855
:1019B00003F0A4F83423019341F28833009308A381
:1019C000D3E90023294803F099F8204603F096F85C
:1019D000584603F093F80DB0BDEC048BBDE8F08FD2
:1019E0000000000000A06F4000200A4000000A40F4
:1019F0003333533A6ABC343F2D93E13A83DE1B43C1
:101A0000DC11021034F2011048F2011078F20110DA
:101A1000C4F2011004F3011040F301104CF3011063
:101A200058F3011064F3011014F1011084F3011054
:101A300098F30110B8F30110D4F30110F0F3011082
:101A40000CF4011028F4011044F4011060F40110AA
:101A5000000000427CF40110A4F40110DCF4011039
:101A6000ECF401100CF501102CF501104CF50110EF
:101A7000E4F1011008B502F033FB08BD08B5002001
:101A800004F0B7FC20B31749174803F037F80120DA
:101A900004F0AFFCF0B11349144803F02FF8022012
:101AA00004F0A7FCC0B10F49114803F027F8032048
:101AB00004F09FFC90B10B490E4803F01FF804207E
:101AC00004F097FC60B107490B4803F017F808BD14
:101AD0000A49D9E70949DFE70849E5E70749EBE79C
:101AE0000649F1E790F5011098F50110C0F50110D5
:101AF000E8F5011010F6011038F6011094F5011008
:101B000070B5B2B0164802F0F9FF002407E0154B9B
:101B100053F824202146144802F0F0FF0134042C2D
:101B20001BDC204604F065FC0028F0D00D4E56F872
:101B3000242021460D4802F0E1FF56F824302246C9
:101B40000B49684609F0CCFE02466946204604F07F
:101B5000C1FC204604F048FCE0E732B070BD00BF95
:101B60008C30021088220310A8F6011060F60110D4
:101B700080F6011008B50E4802F0C0FF01214FF4B5
:101B8000FA6008F0E7F800214FF0FF300BF09EFFFD
:101B9000002004F094FC0028F5D0064B4FF0804262
:101BA0001A60002004F090FC034802F0A7FF08BD73
:101BB000C8F6011000B00D400CF7011010B50F4829
:101BC00002F09CFF4FF4FA7400214FF0FF300BF04D
:101BD0007DFF022007F072FC002004F070FC30B999
:101BE000013CF1D100214FF0007008F0FCF800201A
:101BF00004F06AFC024802F081FF10BD20F70110DA
:101C00000CF7011010B50446B8B90F4802F076FF82
:101C1000192005F017FA16E021460C4803F0D0FB16
:101C2000192005F00FFAFA2007F048FC192005F0FA
:101C300009FAFA2007F042FC013C631E082BEBD99D
:101C4000034802F05BFF10BD74F7011088F7011024
:101C5000F814021008B54FF050435B6813F4003FCE
:101C600001D1012008BD024802F048FF0020F9E739
:101C70008CF7011008B5034802F040FF02F09CFD0C
:101C800008BD00BFD0F7011008B5FFF7E3FF00B9AA
:101C900008BD034802F032FF02F04AFDF8E700BF3A
:101CA000F4F7011008B5FFF7D5FF00B908BD0348E8
:101CB00002F024FF0248FEF7DDFAF7E718F80110FA
:101CC00088A9002010B5FFF7C5FF70B910BD084BFB
:101CD00053F82430074A32F814202146064802F00F
:101CE0000DFF01345F2CF2DDF0E70024FAE700BFBE
:101CF0002C93031088A9002044F8011008B505F0C2
:101D000057FF08BD08B505F0F5FF08BD08B505F09B
:101D1000B9FE08BD08B505F01FFF08BD08B505F000
:101D200097FE08BD08B506F055F908BD08B506F0E0
:101D300057F908BD2DE9F041ADF5805D84B08046CE
:101D40000F46046901F1805505F58015284802F019
:101D5000D5FE284802F0D2FE29466B6A019300970F
:101D60002B6A11F8012B244802F0C8FE296AA1420F
:101D70000CD1224E3E440022039200220023404612
:101D800010F068FF01204FF480571CE01C4802F05F
:101D9000B5FE04200DF5805D04B0BDE8F08104A916
:101DA0000B1F3A46404610F0EFFC054688B904A9DF
:101DB00051F8045C2A46304616F014FEB0FA80F062
:101DC0004009641B2E446CB160B1BC42E7D2274687
:101DD000E5E715F029FA01462A460A4802F08EFE88
:101DE0000020D7E708B90220D4E70120D2E700BFDE
:101DF00064F80110B0F80110FCF801102800101070
:101E000024F9011070F901102DE9F041ADF5955D4F
:101E100086B006460F46012201460EA810F00EFBC2
:101E200028B93146A6A817F037F9002516E0044670
:101E300015F0FAF9024623463146A24802F05EFE4A
:101E40000DF5955D06B0BDE8F081AEAC2C4414F8FC
:101E5000200C16F023F904F8200C0135A6A817F081
:101E60002FFAA842F1D82E21A6A816F095FF044615
:101E7000129D03462A463146934803F0A1FA2F21CA
:101E8000304616F089FF00B1461C9049204617F0F5
:101E900025F800284BD04FF000088D49204617F058
:101EA0001DF808B94FF003088A49204617F016F8C4
:101EB00008B94FF004088849204617F00FF808B910
:101EC0004FF005088549204617F008F808B94FF08B
:101ED00006088349204617F001F808B94FF00708B3
:101EE0008049204616F0FAFF08B94FF008087E49ED
:101EF000204616F0F3FF20B3B8F1000F1AD0304699
:101F0000FEF712FC0446B0F1FF3F40D0014677488F
:101F100002F0F4FD022F33D121460EA8FFF70AFF8D
:101F2000042830D8DFE800F017102F251E004FF0EE
:101F30000108B2E76E4802F0E1FD0EA810F0E0FDE6
:101F40007EE74FF00908DAE76A4802F0D7FD0EA8ED
:101F500010F0D6FD74E7684802F0D0FD0EA810F02E
:101F6000CFFD6DE7654802F0C9FD0EA810F0C8FD71
:101F700066E7634802F0C2FD0EA810F0C1FD5FE7FE
:101F8000604802F0BBFD0EA810F0BAFD58E7002033
:101F9000FEF7B2FBB0F1FF3F60D029460020FEF70C
:101FA00067FB0746B0F1FF3F5FD0C0F5700305F552
:101FB0008072934260D304AC8DF8108031460DF1ED
:101FC000110017F069F80C9507F1805303F58013A1
:101FD0005A6A1B78FF2B56D00D92012205F1280179
:101FE0003846FEF78DFA0146B0F1FF3F52D1AEAC54
:101FF00004AE0097336A32780DF11101424802F0C5
:102000007DFD4FF48052FF21204616F097FD0FCE44
:102010000FC40FCE0FC496E8030084E8030003AB9F
:1020200040F6D872B8A90EA810F0AEFB04460028FE
:102030003DD1AEA9A1F52B76336803F2271323F027
:10204000FF04EFF3108872B6224607F580101CF0EB
:102050000BF888F310883668AE1B76E02B4802F048
:102060004DFD0EA810F04CFDEAE6294802F046FDB1
:102070000EA810F045FDE3E6264802F03FFD0EA84D
:1020800010F03EFDDCE605F2271323F0FF033B448E
:102090006362A2E7204802F031FD0D9A39461F48DD
:1020A00002F02CFD0D993846FEF792FB9FE715F0E4
:1020B000BBF8014622461A4802F020FD0EA810F097
:1020C0001FFDBDE6A8F90110C4FA0110F4F90110D2
:1020D000FCF9011004FA01100CFA011014FA0110B5
:1020E0001CFA011024FA01102CFA0110FCFA01105C
:1020F00034FA011020FB011048FB011080FA011096
:1021000064FB0110A4FB01108CFC0110D4FB011036
:10211000F0FB011018FC011044FC011064FC0110DC
:1021200070F90110FF3424F0FF04EFF3108872B649
:10213000AEAD2246294607F580101BF095FF88F3C7
:102140001088A5F52B752B68F61A002E12DDAEADA2
:102150004FF48052FF21284616F0F0FC03AB4FF4F9
:10216000805229460EA810F00FFB274403AD2C68BF
:10217000002CD7D10EA810F0C3FC61E630B5ADF548
:10218000337D0546FEF716FA68B3FF22002172A8D8
:1021900016F0D4FC2B7833B9FF2172A810F0C5FCDF
:1021A000044648BB72AD2946344802F0A7FC5822C9
:1021B00000215CA816F0C2FC4FF49072002114A814
:1021C00016F0BCFC05B32E4B2A4614A95CA810F0EF
:1021D00046FF044640B315F027F801462246294839
:1021E00002F08CFC47E0284802F088FC4FF4705164
:1021F000264802F083FC3EE015F016F80146224620
:10220000234802F07BFC36E0224B234A40F23A415D
:10221000224809F0FDFB00216846FFF7F5FD14A9EF
:102220005CA810F005FF044614BB9DF86A30FBB1B2
:1022300000214FF0FF300BF049FC2946684616F0AC
:102240002BFF684617F03CF8154B1B882DF8003023
:102250000DF16A01684616F0E5FC9DF85C3013F05C
:10226000100FD8D00DF16A010E4802F047FCD6E7F6
:102270005CA810F094FE0DF5337D30BD50FD0110CB
:1022800014F10110E0FD0110C4FC011000FD01106B
:102290002CFD011070FD011078FD0110A0FD011052
:1022A00004FE011008FE011070B506460C461546E6
:1022B000FFF7D0FC88B1012C13D0012D12D0042CD3
:1022C00015D0042D13D0022C18D0022D15D0032CBC
:1022D00014D0032D0FD0002410E00B4802F00EFCA8
:1022E00010E02C4621463046FFF748FF0AE0074839
:1022F00002F004FC06E02C4600E02C462146304665
:10230000FFF782FD70BD00BF24FE01105CFE0110CE
:1023100030B583B0044645886DBAADB2018849BA7C
:1023200089B2374802F0EAFB2946364802F0E6FB5C
:10233000E188A38803F47F4202EB11225BBA9BB2CF
:10234000FF2B2BD892B2B2F5805F2FD355BB2E480E
:1023500002F0D4FB04F58054B4F8FC0FC0F3052060
:102360002A49B4F8FA2FC2F30522B4F8F83FC3F3B0
:102370000523B4F8F65FC5F305254D5D0095CB5CEC
:102380008A5C095C224802F0B9FBB4F8FE1F49BA26
:1023900089B2204802F0B2FB03B030BD1E4802F003
:1023A000ADFBD7E71D4802F0A9FBD3E7002DCED047
:1023B00002F10043013B34F813305BBADBB200207A
:1023C0003F2B0FD80F280DDC03F03F030F49C95CEA
:1023D000134B19540130531E1B1A34F813305BBAD7
:1023E000DBB2EDE703F03F030849CB5C0C490B542B
:1023F000013000230B540B4802F080FBAAE700BF1A
:102400007CFE011090FE0110E0FE0110342103104B
:1024100040FF01105CFF0110A4FE0110C0FE01107E
:10242000C45E002008FF011010B501EB810C01F023
:1024300003014900C1F1080EFF2303FA01F2C1F1C3
:1024400006042341CCF38F0C10F80C4022400A41C3
:10245000604441780B4003FA0EF39BB213FA82F00A
:1024600080B210BD2DE9F04383B0074690F8B882E2
:1024700001465F4802F042FB791D5E4802F03EFBD8
:1024800097F8B8125C4802F039FB00263AE05B4846
:1024900002F034FB05E0B9F1000F74D1584802F0A6
:1024A0002DFB04F5805494F8FD3394F8FE5305F0A9
:1024B0003F052D0105EB131505F03F05514994F833
:1024C000FC23920894F8FB0300F03F0094F8F9C352
:1024D00094F8FA339B0003EB9C1303F03F03CB5CAF
:1024E00000930B5C8A5C495D474802F007FB94F857
:1024F000FE1394F8FF339B0003EB9111434802F065
:10250000FDFA013646456FDA41F2444505FB067592
:1025100005F2D92231463E4802F0F0FA05F2FD24D8
:1025200095F8FE3295F8FF9209F00F094FEA8919E4
:1025300009EB930995F8FD1203F0030301EB032166
:10254000344802F0DBFA4946334802F0D7FAE37820
:102550002579AD0005EB9315A27803F03F031B012D
:1025600003EB1213DAB2120252FA85F5ADB2FF2B69
:102570008DD8B5F5805F8ED3B9F1000F8ED0274886
:1025800002F0BCFA8DE7691E89B22046FFF74CFFC6
:10259000C0B24FF0000911E000F03F00194B1A5C87
:1025A0001F4B03F8092009F10109A5EB090189B2C4
:1025B000013989B22046FFF737FFC0B23F2802D861
:1025C000B9F10F0FE8DD00F03F000E4B1B5C144922
:1025D00001F8093009F10109002301F809302A4600
:1025E000104802F08BFA5CE703B0BDE8F08300BF4F
:1025F00074FF011088FF01109CFF0110A4FE011060
:10260000E0FE01103421031040FF01105CFF0110B7
:10261000B0FF01107CFE011090FE0110C0FE011001
:10262000C45E0020C4FF01102DE9F043C1B0814613
:102630000146384802F062FA09F10501364802F015
:102640005DFA99F8B812354802F058FA4FF00008D0
:102650004446B8F1000F02DD41B0BDE8F08341F21D
:10266000444707FB089707F2FD272D4802F046FA7A
:102670002C4802F043FA2C4802F040FA39E0214697
:102680003846FFF7D1FE0246284901A8284409F040
:1026900027F905350134A4B201360F2EEFDD103CC9
:1026A000A4B201AB5919224A1088927858538A7003
:1026B0000235002608E01F4901A8284409F010F956
:1026C00001350134A4B201360F2E0BDC2146384609
:1026D000FFF7AAFEC2B2A2F12003DBB25E2BEAD959
:1026E0002E22E8E701A9144802F008FAB4F5805F49
:1026F0000CD200214FF0FF300BF0E8F922460F49D1
:1027000001A809F0EDF800260A25C6E708F101083E
:102710009FE700BF74FF011088FF01109CFF0110AC
:10272000FCFF0110140002107C00021004ED0110E7
:10273000F0000210A0E20110C0FF0110E80002103A
:1027400010B588B00138052806D8DFE800F0030787
:102750005D9194BA05F02AFD08B010BD0C460846FC
:1027600016F0AEFD0C2803D0584802F0C7F9F3E785
:1027700003238DF80C302378303BDBB21B01DBB236
:1027800062781344303B8DF81330A378303BDBB2D2
:102790001B01DBB2E2781344303B8DF81230237911
:1027A000303BDBB21B01DBB262791344303B8DF866
:1027B000103000228DF81120A379303BDBB21B01D1
:1027C000DBB2E1790B44303B8DF80F30237A303B9C
:1027D000DBB21B01DBB2617A0B44303B8DF80E306B
:1027E000A37A303BDBB21B01DBB2E17A0B44303B16
:1027F0008DF80D300092082303AA682134480AF0AE
:102800006FF8344802F07AF903A805F065FD9DF8E9
:1028100012309DF814209DF815102F4802F06EF923
:102820009DF80F3003F07F039DF810209DF81110E4
:102830002A4802F063F99DF80E10294802F05EF96B
:102840009DF80E3013F0040F0AD1264802F056F915
:102850009DF90F30002B07DB234802F04FF97BE78F
:10286000224802F04BF9F3E7214802F047F973E7F9
:1028700005F0F8FC70E703A805F02EFD0024132CEA
:102880000ADC04F120036B4413F8142C2146194888
:1028900002F034F90134F2E79DF812309DF814206B
:1028A0009DF815100C4802F029F99DF80F3003F03F
:1028B0007F039DF810209DF81110084802F01EF9C2
:1028C0004AE70D4802F01AF946E700BFF40002108B
:1028D00074340020300102103C010210600102102B
:1028E0008401021094010210C0010210A80102101C
:1028F000E8010210280202103C0202102DE9F0410A
:1029000098B007460C46FDF755FE70B3002C51D029
:102910002046FDF709FF0546B0F1FF3F30D000F13A
:10292000805404F58014584802F0E8F8574802F043
:10293000E5F8214611F8012B236A606A01900095A1
:10294000534802F03DFD2378FBB17F2B21D0514845
:1029500002F0D4F82378032B1FD0013BDBB2012B0C
:1029600020D94D4802F0CAF807E04C4802F0C6F8FA
:102970004FF470514A4802F0C1F818B0BDE8F08138
:102980002146484802F0BAF8F7E7474802F0B6F89F
:10299000F3E7464802F0B2F8EFE745482844FFF76E
:1029A000B7FCEAE7424C6019FFF75CFD6019FFF7DE
:1029B0003BFEE2E7344802F0A1F8344802F09EF80A
:1029C0004FF00008454619E0C5F570044146394806
:1029D00002F094F82946384802F090F8A20A4FF421
:1029E0007001364802F08AF8C7E72F4802F0E8FC89
:1029F000284802F083F8022F2AD0656AB5F5700FD7
:102A0000BBD200214FF0FF300BF060F805F180548D
:102A100004F580142378FF2BD6D004AE626A0292AC
:102A20000195226A0092621C1949304608F058FF4D
:102A3000304602F0C5FC08F101022378002BD4D007
:102A40007F2B01D09046D3E7184802F0B9FCCFE7BE
:102A50002278531EDBB2012B06D9032ACDD11448AC
:102A60002844FFF755FCC8E7114E2E443146144860
:102A700002F044F8711D134802F040F896F8B812BD
:102A8000114802F03BF8B8E778020210B0F80110E4
:102A9000FCF801109447021034FA0110C4FC011034
:102AA00000FD011060020210C4020210DC020210DC
:102AB00028001010F0020210280302106403021014
:102AC00074FF011088FF01109CFF0110F0B583B066
:102AD00004460E461D46FFF7BDF820B3601E0428CD
:102AE00021D8DFE800F0032236204A00464802F0F1
:102AF00005F8464C40F21713A4F8E4360023C4F856
:102B0000DC36012584F89C57414BC4F8E0361F227F
:102B1000404B196804F2E66016F00CF92046FEF707
:102B2000DFFC3D4B9D8003B0F0BD3C4801F0E6FF6B
:102B3000364C3B4B009340F21713012206212046EE
:102B4000FEF73AFC2046FEF7CBFC334B00221A80FE
:102B5000E9E7344801F0D2FF2C4C334B009340F2AC
:102B60001713012206212046FEF726FC2046FEF719
:102B7000B7FC294B01221A80D5E72846FDF7D4FD82
:102B80000746B0F1FF3F24D032462946274801F0DE
:102B9000B5FF07F1805404F58014254801F0AEFF1D
:102BA000244801F0ABFF214611F8012B236A606A2B
:102BB00001900097204801F0A1FF2378032B0DD04E
:102BC0002378013BDBB2012BADD81C4801F096FF06
:102BD000A9E729461A4801F091FFA4E7194DE81921
:102BE000FFF796FBEA1907F12801174801F086FF65
:102BF000064D00971723012231462846FEF7B0FB09
:102C00002846FEF76DFCDBE7B4030210AC5F002042
:102C10002C7303109C32031088A90020DC030210DF
:102C20002C5303100C0402102C3303103804021030
:102C300078020210B0F80110FCF8011088040210AC
:102C400060020210280010105804021010B504464B
:102C5000FFF700F800B910BD012221460B48FEF72E
:102C6000F7FB062C09D0072C0BD02146084801F0B1
:102C700045FF0648FEF734FCEDE7064B00221A80BC
:102C8000F3E7044B00229A80EFE700BFAC5F00201F
:102C9000B004021088A900202DE9F043CFB005460A
:102CA000A8B18C4BF42202FB00331B8F13F0010FF1
:102CB00000F0CA8001468748FEF7BEFC864801F056
:102CC0001DFF2D03ADB205F58056B6B2FAE083487C
:102CD00001F014FF824801F011FF824801F00EFF5D
:102CE0002C4625E02A461F2A0ADC7A4BF42101FBF8
:102CF0000433134493F83A1044AB99540132F2E789
:102D000044AA2146784801F0F9FE10E0714BF42105
:102D100001FB0433134493F83A1044AB9954013245
:102D20001F2AF3DD44AA2146704801F0E7FE013472
:102D30000F2C00F38D80674BF42202FB04331B89B8
:102D400013F0800FCED1634BF42202FB04331B8FB0
:102D500013F0010F0AD013F4807609D013F4807FAA
:102D600046D12146624801F0C9FEE0E72A46D7E78E
:102D70004CAB012221465748FEF7CAFB2146631E91
:102D80000E2B31D8534BF42202FB0433186B48B39B
:102D9000504B02FB04335B6B1A8852BA92B238B1C3
:102DA0004C4BF42000FB04335B6B5E8876BAB6B202
:102DB0004848F42304FB03F3C7183F8F3833034418
:102DC00002330F2912D80146F42000FB0411096BCD
:102DD00003910293019700964CAB2146454801F0C0
:102DE0008DFEA4E73246DAE72A46E1E70021EFE765
:102DF00026034CAFDFF8DC803B46012221464046EB
:102E0000FEF786FB1FFA86F9494640461BF034F967
:102E1000064609F1010189B240461BF02DF9F42361
:102E200004FB03F308EB0302118F383343440233EE
:102E3000526B03920293019100903B463246214629
:102E40002D4801F05BFE72E701462C4801F056FE6A
:102E50004FB0BDE8F083291989B21E481BF00CF968
:102E60000246274905A8384408F03AFD07440134D2
:102E70000F2CF0DD05ABD919224A10889278D8536F
:102E80008A700237002406E01F4905A8384408F07C
:102E900027FD013701340F2C0CDC291989B20D48AC
:102EA0001BF0EAF8C2B2A2F12003DBB25E2BEBD931
:102EB0002E22E9E71035ADB205A9144801F01EFE37
:102EC000AE42C5D92A46124905A808F009FD0024DA
:102ED0000A27CDE7AC5F0020F8140210C4040210EA
:102EE000D80402101405021060050210A405021097
:102EF00030060210E805021074060210BC0602102B
:102F0000D8060210F0000210A0E20110C0FF01106C
:102F1000E800021010B50446FEF79CFEC8B1022C72
:102F20001CD0032C2BD0012C10D11D4801F0E6FD44
:102F30001C4B9B8873B11C491C4801F0DFFD194BE9
:102F40001B884BB118491A4801F0D8FD1548FDF708
:102F5000D1F910BD1749EFE71649F4E7114B9B88EB
:102F600033B9104B01229A80134801F0C7FDEDE7F9
:102F70000C4B00229A80114801F0C0FDE6E7094B96
:102F80001B8833B9074B01221A800D4801F0B6FDAA
:102F9000DCE7044B00221A800A4801F0AFFDD5E7B8
:102FA000E006021088A90020281D0210F406021075
:102FB00010070210A40702102C0702104807021085
:102FC000640702108807021070B582B00546FDF74D
:102FD000ABFBB0F1FF3F28D00446FEF73BFE48B301
:102FE00004F1805606F580162946184801F086FD42
:102FF000174801F083FD174801F080FD164801F0E5
:103000007DFD314611F8012B336A706A01900094FE
:10301000124801F073FD00212046FDF7A5FB78B1B1
:1030200029460F4801F06AFD08E029460D4801F0E5
:1030300065FD03E029460C4801F060FD02B070BD5B
:1030400029460A4801F05AFDF8E700BFD8070210E8
:10305000F807021078020210B0F80110FCF8011015
:103060002C08021060020210B00702104C08021077
:1030700038B5054609281DD0A14B1B88E3B1013D99
:10308000072D00F2A080DFE815F01B00B100C90099
:10309000D800E700F40011012601E0B204F024F9A1
:1030A0000D2004F021F90A2004F01EF90134592CF6
:1030B000F3DDE1E74124FAE7924801F01FFDDEE786
:1030C0008F4BB3F8A6306BB18F49904801F016FDD5
:1030D0008B4BB3F8A030032B00F28280DFE803F0C3
:1030E0000474787C8A49F0E78A4801F007FD8A4B2E
:1030F0001B78002B78D08949894801F0FFFC894C66
:103100002188894801F0FAFC2188C90B874801F021
:10311000F5FC2188C1F38031854801F0EFFC21885E
:10312000C1F34031834801F0E9FC2188C1F300314B
:10313000814801F0E3FC2188C1F3C0217F4801F000
:10314000DDFC2188C1F380217D4801F0D7FC218876
:10315000C1F340217B4801F0D1FC2188C1F300215B
:10316000794801F0CBFC2188C1F3C011774801F008
:10317000C5FC2188C1F38011754801F0BFFC21888E
:10318000C1F34011734801F0B9FC2188C1F300116B
:10319000714801F0B3FC2188C1F3C0016F4801F010
:1031A000ADFC2188C1F380016D4801F0A7FC2188A6
:1031B000C1F340016B4801F0A1FC218801F001013D
:1031C000694801F09BFC38BD684801F097FC8EE728
:1031D000674801F093FC8AE7664801F08FFC86E7B8
:1031E000654801F08BFC82E7644985E7444BB3F8FE
:1031F000A63063B1424B0022A3F8A620404BB3F89F
:10320000A6304BB14049414801F078FCDBE73C4B2C
:103210000122A3F8A620F1E73D49F4E7414A1388CB
:103220006FEA43436FEA53431380354B0222A3F8FE
:10323000A020534801F062FCC5E73A4A1388C3F363
:103240000D0343F4804313802D4B0122A3F8A020EB
:103250004C4801F053FCB6E7324A1388C3F30D0320
:103260001380274B0022A3F8A020474801F046FC1A
:10327000A9E72C4A138883F400639BB21380204A89
:10328000B2F8A4205AB11E4A0021A2F8A41013F4E7
:10329000006F09D021493D4801F030FC93E7184AFE
:1032A0000121A2F8A410F2E73449F4E7144B1B887B
:1032B0001BB9374801F022FC85E71A4A138843F40A
:1032C00000531380334B02221A6001F031FA324866
:1032D00001F014FC77E70A4B1B881BB92C4801F05E
:1032E0000DFC70E70F4A138843F480531380294B79
:1032F00002221A6001F01CFA284801F0FFFB62E785
:1033000088A900207808021070080210D408021062
:1033100074080210E808021069AF0020981C02101F
:10332000680902103C3000207C0902109409021048
:10333000C8090210180A0210480A0210800A021076
:10334000AC0A0210D80A0210FC0A0210280B021064
:10335000580B02109C0B0210CC0B0210000C021038
:10336000300C0210600C0210940C021000090210C4
:1033700018090210300902104C090210A4E20110D1
:10338000C80C0210E40C0210000D02101C0D0210FB
:10339000400D021098AE0020700D02108C0D02102E
:1033A00010B584B00446FEF755FC80B1601E0B28B2
:1033B0000DD8DFE800F0060E32560C0C0C0C0C6E2B
:1033C000757C414BB3F87810404801F097FB04B08E
:1033D00010BD3F4801F092FB3B4BB3F878103B48DF
:1033E00001F08CFB002400E00134B4F5007FEEDA3C
:1033F00004F57052082300936B44D2000521354830
:103400001AF06AFE029A039B52EA0301ECD004F51B
:103410000071314801F072FBE6E729A3D3E90023EC
:10342000CDE90223002412E0029B13F10133039A39
:1034300042F101320293039204F570520823009383
:103440006B44D200052123481AF062FE0134B4F522
:10345000007FE9DB214801F051FB214801F04EFBE0
:10346000B5E700220023CDE9022300240AE004F599
:103470007052082300936B44D200052115481AF0BE
:1034800047FE0134B4F5007FF1DB164801F036FB4E
:103490009DE70D480023A0F87830FCF72BFF96E756
:1034A00009480123A0F87830FCF724FF8FE706488D
:1034B0000223A0F87830FCF71DFF88E7AFF3008007
:1034C000414041404140414088A90020A80D0210E0
:1034D000C40D021000000840F80D02100C0E02107E
:1034E000400E02105C0E021008B5013808283ED8C4
:1034F000DFE800F0054C5A6A7A8A9AAAB8005F4B56
:103500009B8F002B34D05E495E4801F0F7FA5B4B8D
:10351000B3F85030002B2DD059495B4801F0EEFA3A
:10352000564BB3F846303BB35549584801F0E6FADC
:10353000524BB3F852300BB35149554801F0DEFA03
:103540004E4BB3F86630DBB14D49524801F0D6FA24
:103550004A4BB3F86830ABB149494F4801F0CEFA55
:10356000464BDB8F83B146494C4801F0C7FA08BD92
:103570004B49C9E74A49D0E74949D6E74849DCE71A
:103580004749E2E74649E8E74549EDE73B4A938F7B
:10359000B3FA83F35B09938723B13949394801F0C2
:1035A000ADFAE4E73E49F9E7344AB2F85030B3FAED
:1035B00083F35B09A2F8503023B13149324801F05E
:1035C0009DFAD4E73649F9E72C4AB2F84630B3FA07
:1035D00083F35B09A2F8463023B129492B4801F057
:1035E0008DFAC4E72E49F9E7244AB2F85230B3FA0B
:1035F00083F35B09A2F8523023B12149244801F03A
:103600007DFAB4E72649F9E71C4AB2F86630B3FA06
:1036100083F35B09A2F8663023B119491D4801F014
:103620006DFAA4E71E49F9E7144AB2F86830B3FA14
:1036300083F35B09A2F8683023B11149164801F001
:103640005DFA94E71649F9E70C4AD38FB3FA83F38E
:103650005B09D38723B10A49104801F04FFA86E786
:103660000F49F9E7FEF7F6FA002880D00348FCF787
:1036700041FE0C4801F042FA79E700BF88A900201A
:103680008C1A0210880E0210A40E0210E40E021012
:103690000C0F0210300F02104C0F0210680F0210B6
:1036A000A4070210840F02102DE9F041BAB00446BD
:1036B0000D4600201AF038FD06469F231F93602216
:1036C000002120A815F03AFA06AF4FF064084246F0
:1036D0000021384615F032FA424639461FA81AF042
:1036E000D3FC9DF81B30012101FA03F7FEF7B2FA73
:1036F000002832D0631E042B2FD8DFE803F00336F6
:103700004D50760038A808F0E1FC9DF8E3309DF8B4
:10371000E4209DF8E5109DF8E6009DF8E74004944C
:1037200003900291019200939DF8E2309DF8E12010
:103730009DF8E010384801F0E1F93146374801F0D2
:10374000DDF91021364801F0D9F93A46002F07DBA0
:1037500012153946334801F0D1F93AB0BDE8F0818D
:1037600007F57F2202F6FF72F2E72F4B9D420DD044
:1037700005F580532D4A13602C4B1A6829462C48B6
:1037800001F0BCF92846FCF71FFFE6E7274B1D6850
:1037900005F580521A60EFE7FCF7CEFEDDE725481D
:1037A00001F0ACF94FF47A7400214FF0FF300AF0C9
:1037B0008DF9022005F082FE002002F080FE68B93B
:1037C000013CF1D11C4801F099F9FCF773FE1B484C
:1037D00001F094F91A4801F091F9BEE7002002F0D7
:1037E00073FE184801F08AF9B7E70F4B9D420DD0E0
:1037F00005F58053144A1360134B1A682946134881
:1038000001F07CF9284601F0D7F8A6E70E4B1D68B9
:1038100005F580521A60EFE7A40F0210D80F0210CE
:103820000010021034100210434241407CA90020D5
:1038300070100210AC1002100811021020110210BA
:103840003C110210F410021080A900208011021017
:1038500030B585B004460D46FEF7FCF9E8B1601EB0
:1038600003281AD8DFE800F0021B324B02A801F04F
:10387000F5F89DF80B3000939DF80A309DF809206B
:103880009DF808102F4801F039F99DF80A10C1F38E
:103890008201CA012C4801F031F905B030BD2B4B33
:1038A0009D420DD005F58053294A1360284B1A68B4
:1038B0002946284801F022F9284601F07DF8ECE776
:1038C000234B1D6805F580521A60EFE7224801F08E
:1038D00015F9002001F04CF80146204801F00EF9DE
:1038E000002001F045F844F24103984203D01C48FF
:1038F000FDF7D6FDD1E71B4801F000F9CDE71A48E6
:1039000001F0FCF84FF47A7400214FF0FF300AF018
:10391000DDF8022005F0D2FD002002F0D0FD50B904
:10392000013CF1D1114801F0E9F801F0A7F8104885
:1039300001F0E4F8B1E7002002F0C6FD0D4801F007
:10394000DDF8AAE7BC110210E41102104342414025
:1039500080A9002080110210081202102C120210FF
:10396000AC5F00204412021070120210C412021048
:10397000DC120210AC12021070B5224808F0EBF90C
:103980000025B5F5005F10DA002C0EDB642008F08E
:10399000ABF9041EFADB1C4B5C55013515F03F0FEB
:1039A000EFD12E2008F0C8F9EBE72946174808F0B8
:1039B00001FA002307E0164A116831F8132052BAC1
:1039C00021F813200133B3F5805FF4DB00260BE010
:1039D0002A190F4B1B6833F812100E4808F0EAF949
:1039E00001340F2CF4DD01361E2E06DC350129468C
:1039F000094808F0DFF90024F3E70A2008F09CF9F1
:103A000070BD00BFEC120210C43E00201C13021057
:103A1000DC2F002004ED0110F4EC011038B5314B1F
:103A20001C682388304D2B6063886B6004F58053DD
:103A3000B3F8FE3F6B61FCF729FFA861A079A3886A
:103A40001B029BB21844A860A388FF2B15D800F175
:103A50000043013B14F8132000233F2A16D80F2BF4
:103A600014DC02F03F022149895C214AD154013320
:103A7000421ED21A14F81220EFE71E4A1C4B07CA46
:103A800003C323F8022B120C1A7008E002F03F0265
:103A90001649895C164AD15401330021D154114B87
:103AA0001A6802F58052B2F8FC3F03F03F030F4959
:103AB000C85C114B1870B2F8FA0F00F03F00085CB8
:103AC00058702D209870B2F8F80F00F03F00085C95
:103AD000D870B2F8F62F02F03F028A5C1A71002209
:103AE0005A7138BDDC2F0020ECAE002034210310C9
:103AF000C45E002048130210D45E002010B5FFF70A
:103B00008DFF104808F027F90F4C21680A460F482E
:103B100008F050F961680A460D4808F04BF9A268B0
:103B20000C490D4808F046F90C490D4808F042F9D7
:103B3000A26961690B4808F03DF90A2008F0FCF819
:103B400010BD00BF54130210ECAE00208013021011
:103B50009C130210C45E0020B8130210D45E002033
:103B6000D8130210EC13021030B583B02F4808F0C0
:103B7000F2F82F4808F01EF900240DE02D4808F057
:103B800019F908E0FFF74AFF2B4B2C4A2C4909682A
:103B90002C4808F00FF90134092C1BDC21462A4877
:103BA00008F008F9294B1A686303D25A4FF6FF73DD
:103BB0009A42E3D00023B3F5805FE3DA03EB0430ED
:103BC000234A12682149096831F8101022F81310AD
:103BD0000133F0E7002403E0164808F0EBF8013465
:103BE000092C1DDC21461B4808F0E4F8184D4FF461
:103BF000005300932B686203052117481AF06CFAF2
:103C00002B681A884FF6FF739A42E5D0FFF706FF3C
:103C1000094B0A4A0A4909680A4808F0CBF8DEE766
:103C20000A2008F089F803B030BD00BF1414021058
:103C30004414021084140210C45E0020D45E0020DC
:103C4000ECAE00209C1402106C14021034300020E2
:103C5000DC2F0020B01402100000084010B504460C
:103C60000146084808F0A6F8A4F13003092B02D851
:103C70001C46054B1C60044B1968044808F09AF870
:103C800010BD00BFC8140210D82F002028E8011072
:103C900070B582B004465E4808F08CF85D4B09228E
:103CA0001A70032C00F2AF80DFE804F002182E74C3
:103CB0000026ADF806600DF10605574C2946204652
:103CC00005F0C0FDADF806602946204605F0BAFDB6
:103CD00000F098FD00F02CFD02B070BDE023ADF8BF
:103CE00006300DF106054C4C2946204605F0AAFD8C
:103CF0008623ADF806302946204605F0A3FD00F0E6
:103D000081FD00F015FDE7E7B623ADF806300DF1B3
:103D10000605414C2946204605F094FD1023ADF8D8
:103D200006302946204605F08DFD0123ADF806300A
:103D30002946204605F086FDC623ADF80630294603
:103D4000204605F07FFD0026ADF806602946204696
:103D500005F078FDF223ADF806302946204605F03F
:103D600071FDADF806602946204605F06BFD5A232B
:103D7000ADF806302946204605F064FD9123ADF8E4
:103D800006302946204605F05DFD00F03BFD00F0C1
:103D9000CFFCA1E73E23ADF806300DF106051E4C21
:103DA0002946204605F04EFD1123ADF80630294680
:103DB000204605F047FD1023ADF806302946204681
:103DC00005F040FD7523ADF806302946204605F084
:103DD00039FDC023ADF806302946204605F032FDF6
:103DE0000123ADF806302946204605F02BFD2F2390
:103DF000ADF806302946204605F024FD00F002FD0E
:103E000000F096FC68E700F0FDFC00F091FC63E731
:103E1000F41402107EAF00206470002038B500203A
:103E200007F062FF10F1020F67D00446394B1B7890
:103E3000002B63D01B2807D0043B052B5DD8DFE89F
:103E400003F01F5C2C2E5C21324B00221A7032488A
:103E500007F081FF51E001350C2D4EDC05EB4503E9
:103E60002E4A12F82330A342F5D105EB45022B4B25
:103E700003EB82035B689847264B00221A70EAE73F
:103E80000025E9E7A0F13003082B36D81846FFF7E4
:103E9000FFFE204B00221A702FE0462805D0A4F127
:103EA0003003092B07D900250DE0FFF765FD194BFD
:103EB00000221A70F3E72046FFF7D0FE154B0022D0
:103EC0001A701AE001350E2D17DC05EB4503144A74
:103ED00012F82330A342F5D105EB4502104B03EB5A
:103EE00082035B6898470B4B00221A70EAE703EBEA
:103EF000430301EB83035B68984738BD0023122B13
:103F0000FBDC03EB4302074911F82220A242EED06A
:103F10000133F4E77EAF0020FC140210582E00207D
:103F2000A42D0020F42E002003460268EFF3108138
:103F300072B6D2E8CFCF0120BCF1000FF9D1C2E8B0
:103F40004C0FBCF1000FF4D1BFF35F8F18895A8971
:103F5000801A02D5DA890132104400221B68C3E8B6
:103F60008F2F81F31088704708B53C4807F0F3FEA7
:103F70003B4B3C4A196812683B4807F01BFF3B4B20
:103F80003B4A196812683B4807F014FF3A4B3B4A1A
:103F9000196812683A4807F00DFF3A4B3A4A196817
:103FA00012683A4807F006FF0A2007F0C5FE384BB2
:103FB000384A19681268384807F0FCFE374B384A0F
:103FC00019681268374807F0F5FE374B374A196809
:103FD0001268374807F0EEFE364B374A1968126808
:103FE000364807F0E7FE364807F0B5FE002002F03D
:103FF00000FA28B33349344807F0DCFE042002F00D
:10400000F8F948B32F49314807F0D4FE022002F0F6
:10401000F0F9F8B12B492E4807F0CCFE012002F050
:10402000E8F9A8B127492B4807F0C4FE032002F0A5
:10403000E0F938B1BDE808402249274807F0BABE88
:104040002649D8E725492448BDE8084007F0B2BE14
:104050002249E8E72149DEE72049D4E71C20021085
:104060002430002028300020502002101C30002076
:104070002030002078200210EC2F0020F02F0020AC
:10408000A02002101430002018300020C820021098
:104090000C30002010300020F020021004300020EE
:1040A0000830002018210210F42F0020F82F0020E3
:1040B00040210210FC2F0020003000206821021057
:1040C0008C30021090F5011090210210AC210210EA
:1040D000C8210210E42102100022021094F5011000
:1040E00008B51E4800F00AFD1D4B1E4A19681268EB
:1040F0001D4800F003FD1D4B1D4A196812681D483C
:1041000000F0FCFC1C4B1D4A196812681C4800F0AA
:10411000F5FC1C4B1C4A196812681C4800F0EEFCA8
:104120001B4B1C4A196812681B4800F0E7FC1B4B2C
:104130001B4A196812681B4800F0E0FC1A4B1B4A26
:10414000196812681A4800F0D9FC1A4B1A4A196803
:1041500012681A48BDE8084000F0D0BC1C220210CA
:104160002430002028300020502202101C30002073
:104170002030002074220210EC2F0020F02F0020AD
:10418000982202101430002018300020BC220210A7
:104190000C30002010300020E022021004300020FB
:1041A0000830002004230210F42F0020F82F0020F4
:1041B00028230210FC2F0020003000204C23021086
:1041C0002DE9F04FCD4E89B00121306808F05EF83E
:1041D0000346CB4FCB4930683B6008F073F8DFF8FB
:1041E00084830121C8F80000306808F04FF8DFF838
:1041F00078A3C549CAF80000306808F063F8DFF812
:104200006CB30121CBF80000306808F03FF8BF4BD9
:10421000BF491860306808F055F8BE4DBE4A01210C
:104220001060286808F032F8BC49BD4C0860BD49F0
:10423000286808F047F801212060286808F026F86F
:10424000B94BBA491860286808F03CF8B84A01210F
:104250001060286808F01AF8B64CB7492060286842
:1042600008F030F8B54B01211860286808F00EF806
:10427000B34AB4491060286808F024F84FF480333A
:104280000124D8F80090B04A049309F11403106097
:104290001B0309EB040243EAC2133F6823F0C04347
:1042A0000094D6F800800593A84AA94B3946CDE979
:1042B0000632404602231A2208F038F808F12F414E
:1042C00001F56001090D0631C9B21A20039104F00D
:1042D0001DF803991B2004F019F80DF1100C4A4643
:1042E00063463946404608F070F84FF400204FF41A
:1042F0005021D8F800C004FA07F747EA0C07DBF8AA
:104300000020DAF800B0C8F80070CDE906104FF4CC
:104310002021131D04911B03111943EAC113D6F880
:10432000009023F0F8530DF1100C43F0D053594690
:1043300005934846634608F048F8D9F8003004FA77
:104340000BFB754F71484BEA0303D7F80080D0F898
:1043500000A03768C9F800304FF480334FF4402094
:10436000002604934FEA083343EAC8131C2251463F
:1043700000940690059338462346079607F0D6FF2B
:104380001C20744E069B07F12F41334043F000532D
:1043900043F420230693079B01F5600123F07C730F
:1043A00023F01F03090D43F4801306310343C9B200
:1043B000079303F0ABFF4FF420210DF1100C63467F
:1043C000424604913846514607F0FFFF3B6804FA25
:1043D0000AFA534851494AEA0303D0F80080D1F859
:1043E00000903B604FF480334FF440204FF0005773
:1043F0000094049308F10B014FEAC813D5F800A00C
:1044000043EA013323F0C043CDE90607494605934B
:1044100012222346504607F089FF2346494600945E
:104420001322504607F082FF4FF42021069A049190
:1044300032400AF12F4101F5600142F40022464F5B
:1044400006924FEA115B079A444B0BF1060B3A4078
:104450005FFA8BFB134359461220079303F056FF74
:104460005946132003F052FF0DF1100C63464246EB
:104470004946504607F0A9FFDAF8003004FA09F976
:104480002B49294849EA0303D0F80080D1F800B04D
:10449000CAF800304FF480334FF4402004934FF0BB
:1044A00000530094CDE906030BF104014FEACB134E
:1044B000D5F8009043EA013323F0C0434146059309
:1044C00014222346484607F031FF23464146009414
:1044D0001522484607F02AFF4FF420211420079A9E
:1044E0001F4B3A4013430793059B049123F0F85365
:1044F00009F12F4101F560013AE000BF30300020A2
:1045000024300020988C0210848C0210143000207B
:10451000788C02102C300020183000200C30002045
:1045200010300020588C021004300020448C0210FF
:1045300008300020F42F0020188C0210F82F0020E3
:10454000FC2F0020308C0210003000200068074053
:104550000000DD01FFFFF5C1E0830FFC124C1000ED
:1045600014541000283000201C300020203000207F
:1045700043F0D05321FA00FA0593069B0AF1060A8C
:104580005FFA8AFA334043F420235146069303F03E
:10459000BDFE5146152003F0B9FE0DF1100C634627
:1045A0005A4641464846584F07F00FFFD9F80030A9
:1045B000D7F800A004FA08F8544F48EA03033F680C
:1045C000C9F800304FF0005307934FF480334FF495
:1045D000402004930AF1060300940AEB04011B0334
:1045E000D5F8008043EAC11323F0C0431D223946A9
:1045F000069005934046234607F098FE444B08F189
:104600002F410493069B01F56001334043F0705342
:1046100043F400330693079B090D063123F4F84356
:1046200043F4E8431D20C9B2079303F06FFE0DF178
:10463000100C634639460AF10202404607F0C5FEF7
:10464000344B04FA07F7D3F800A0D8F80030324909
:104650001F434FF480334FF440202D68D1F8009071
:10466000C8F800700027049309F104014FEAC91348
:1046700043EA0133162251460690009405932846DA
:104680002346079707F052FE4FF42021079B049121
:1046900023F07C7323F01F0343F4801343F01603CD
:1046A0000793059B05F12F4123F0F85343F0D053B6
:1046B000059301F56001069B090D3340063143F473
:1046C00020231620C9B2069303F020FE4A46514625
:1046D00004AB284607F079FE43F2FF730F4A1049F6
:1046E000108804FA0AF4034028680443B1F8A000D3
:1046F000B1F8A41043EA803343EA81232C6013808D
:1047000009B0BDE8F08F00BFF82F0020F42F002083
:104710000000AC07FC2F0020003000203C300020BF
:1047200088A90020014B1868704700BF30A90020FD
:10473000F8B54FF050435B689B0336D401211B4E04
:104740001B4C1C4D376820682A6800F1050C07EBEC
:1047500047030CF01F0C02EBC303C3F8D8C007F1EA
:10476000100399404FEA470C53680B42FCD10121DA
:1047700008300CEB070300F01F0002EBC30340F40A
:104780008050043742F82710C3F8D80000211420C5
:1047900004F088FF33682A68216803EB430301F0C3
:1047A0001F0102EBC303C3F8D810F8BD0C30002082
:1047B000103000202C30002010B54FF001031724DA
:1047C00043EC40400520002104F06CFF4FF0000353
:1047D00043EC404010BD00BF01220849084B10B413
:1047E0000C68196804F110039A404B681342FCD11D
:1047F000043441F824005DF8044B7047F42F002086
:104800002C3000200120044A04491368087043F04A
:1048100007031360704700BF70A900207DAF002020
:104820000022034BC3E90022C3E90222704700BF04
:10483000F4A100202DE9F0434FF05046324B87B0F1
:1048400093E8070006AB03E9070073682F4C9B034E
:1048500025780BD4736813F4004F14BF012302238F
:104860009D42237006D107B0BDE8F08300239D422E
:104870002370F8D004F00EFF03460A46244F254E5D
:104880003968D7F804C0581A62EB0C01C7E9003246
:10489000336072600023204A19F01AFC4FF00008C0
:1048A0008446194623781D4E0DEB8303D3F80C90F4
:1048B0000DEB8503DB681046C6F800804FF47A7272
:1048C00001930023644619F003FC154F2346009022
:1048D0004A463846134907F003F833680344336007
:1048E000D8196DB9104B11491A6806F0F9FF3368F1
:1048F00003440B48336007B0BDE8F04307F02BBA20
:1049000007F803803368F4E7CC8C021063AF002013
:10491000503D0020483D002040420F00A85F00208D
:10492000E05E0020A023021030A90020D82302104E
:1049300008B50D490D4807F0F5FD0121042003F0ED
:10494000E5FC0121062003F0E1FC0121072003F032
:10495000DDFC052003F0F2FD05234FF0010242ECDF
:10496000403042EC443008BD005A6202000008406A
:1049700000B585B002460023ADF80E300223009347
:104980000DF10E030521044819F0A6FBBDF80E0039
:1049900005B05DF804FB00BF0000084000B583B01F
:1049A0000B46009202460521024819F0B1FB03B004
:1049B0005DF804FB00000840F0B5C7B0064600F5FE
:1049C000805722E007AB59191E4A10889278585335
:1049D0008A700235002406E01B4907A8284406F027
:1049E0007FFF013501340F2C08DC03AB1A5DA2F107
:1049F0002003DBB25E2BEFD92E22EDE7103607A99C
:104A0000124800F07BF8B7421AD93246104907A87D
:104A100006F066FF05461023009303AB32460521DE
:104A20000C4819F059FB00240F2CCBDC03AB1A5DAA
:104A3000094907A8284406F053FF03350134F3E77A
:104A400047B0F0BDF0000210A0E20110C0FF01105D
:104A5000E8230210000008408C01021000B583B06A
:104A600003460422009200220521034819F01CFB92
:104A700003B05DF804FB00BF0000084010B5C0B0F3
:104A80004FF480720021684614F058F8002407E0C3
:104A90004FF4807269462046FFF780FF04F580746A
:104AA000B4F5802FF4D3024800F028F840B010BDD0
:104AB000F023021008B50846012101F0BFF910B13A
:104AC000FDF71CF908BD0248FDF718F9FAE700BF29
:104AD0003047021008B5002001F0ADFC002001F0C5
:104AE00083FC00214FF0FF3008F0F0FF08BD00000C
:104AF000014B1868704700BF24A300200FB400B515
:104B0000FFB080AB53F8042B00934FF4FA7101A867
:104B100006F010FF00280FDB00214FF0FF3008F0F7
:104B2000D5FFFFF7E5FF01A901F0FAF800207FB0FB
:104B30005DF804EB04B07047054B1B68DB681D2271
:104B40000121044813F046FE4FF0FF30EFE700BFAD
:104B5000403A00200C24021038B50C4601212046B2
:104B600001F06CF905460221204601F067F91DB1FC
:104B700000244FF0FF300CE01E48FFF7BFFFFCF7AA
:104B800027FE36E01C4B53F82410284614F0A6F9F3
:104B9000013408B1092CF5DD38BB013C092C24D8BF
:104BA000DFE804F005080B0E1114171A1D20FCF79E
:104BB0000FFE1EE0FCF75EFF1BE0FCF75FFF18E056
:104BC000FCF79EFF15E0FCF7D5FF12E0FCF7F6FFBF
:104BD0000FE0FDF759F80CE0FDF74CF809E0FDF7A0
:104BE00061F806E0FDF76EF803E029460348FFF799
:104BF00085FF38BD2C2402106022031044240210CB
:104C000038B50C460121204601F018F9054602216D
:104C1000204601F013F91DB100244FF0FF300CE0E5
:104C20001748FFF76BFFFDF76DF828E0154B53F8B9
:104C30002410284614F052F9013408B1052CF5DD92
:104C4000C8B9013C052C16D8DFE804F00306090CAE
:104C50000F12FDF757F812E0FDF758F80FE0FDF7D7
:104C600059F80CE0FDF75AF809E0FDF75FF806E0A7
:104C7000FDF758F803E029460348FFF73FFF38BD2A
:104C80002C2402104822031060240210F8B50C46B0
:104C90000121204601F0D2F806460221204601F00B
:104CA000CDF805460321204601F0C8F82EB107468D
:104CB0003DB100244FF0FF3015E02248FFF71EFF02
:104CC00028E018B100244FF0FF300CE0002211461C
:104CD0003046FDF7E9FA1DE01B4B53F82410284637
:104CE00014F0FCF8013408B1002CF5DD08B14FF0E8
:104CF000FF34002508B1002D0DDDAC4213D0012C8E
:104D000015D0042C19D0042D17D02A462146304640
:104D1000FDF7CAFAF8BD0C4B53F82510384614F0CD
:104D2000DDF80135E6E70948FFF7E8FEF2E7042D74
:104D3000E7D10748FFF7E2FEECE70648FFF7DEFEA3
:104D4000E8E700BF7C24021044220310C4240210B0
:104D50001C2502103825021038B50C4601212046CA
:104D600001F06CF805460221204601F067F81DB1FC
:104D70002846FEF729F938BD0148FFF7BFFEFAE7DC
:104D80005C25021070B582B00C460121204601F06E
:104D900055F805460221204601F050F80646032149
:104DA000204601F04BF81DB100244FF0FF300DE01C
:104DB0002A48FFF7A3FE2A48FFF7A0FE43E0294B4D
:104DC00053F82410284614F089F8013408B1022C55
:104DD000F5DD08BB002C1FDB013C032C1CD8DFE8F1
:104DE00004F0020910170023012207211046FDF7E5
:104DF0006DFE28E00023012206210220FDF766FE59
:104E000021E00023012206210320FDF75FFE1AE0C6
:104E10001548FFF773FE16E0BEB10023019301AA07
:104E20001249304613F0E6FC01990329CCBF002358
:104E300001230F29D8BF01280BD153B92B460122DA
:104E40000520FDF743FE02B070BD0948FFF756FE8E
:104E5000F9E731460748FFF751FEF4E794250210C1
:104E6000CC25021038220310FC250210582602100F
:104E70001C2602105C26021030B583B00C460121BE
:104E8000204600F0DBFF05460221204600F0D6FF59
:104E9000B5B104460023019301AA0E49284613F038
:104EA000A9FC019B032BCCBF002201220F2BD8BFF2
:104EB000012809D142B91846FDF7C8FE03B030BD3C
:104EC0000548FFF71BFEF9E721460448FFF716FEE9
:104ED000F4E700BF582602108C260210C4260210E8
:104EE00030B583B00D460121284600F0A7FF0446E7
:104EF0000221284600F0A2FFACB10023019301AAD1
:104F00000F49204613F076FC019B032BCCBF0022F7
:104F100001220F2BD8BF01280CD15AB91846FDF732
:104F2000BBFE03B030BD0748FFF7E8FD0020FDF7EA
:104F3000B3FEF6E721460448FFF7E0FDF1E700BFC6
:104F400058260210F4260210C426021038B50C466A
:104F50000121204600F072FF05460221204600F0A4
:104F60006DFF1DB100244FF0FF300DE00E48FFF73C
:104F7000C5FD0120FEF77CF810E00C4B53F824101F
:104F8000284613F0ABFF013408B1082CF5DD08B951
:104F9000002C04DA29460648FFF7B0FD38BD20464C
:104FA000FEF766F8FAE700BF2C2702100022031074
:104FB0006427021030B583B00C460121204600F072
:104FC0003DFF05460221204600F038FF03230193F0
:104FD0006DB100244FF0FF3080B1032C0EDC174B75
:104FE00053F82410284613F079FF0134F4E71448ED
:104FF000FFF784FD0120FEF7D3F906E038B9002C55
:1050000017DC01980A30FEF7CBF903B030BD01AAD6
:105010000C49284613F0EEFB019BDA0F022BD8BF98
:10502000012801D1002AECD029460748FFF766FD88
:10503000EBE72046FEF7B4F9E7E700BFF0210310E5
:105040009C270210BC270210C027021038B5084662
:10505000012100F0F3FE20B1054600244FF0FF309F
:105060000DE00E48FFF74AFD0120FEF73DFA10E083
:105070000B4B53F82410284613F030FF013408B1CD
:10508000082CF5DD08B9002C04DA29460548FFF79D
:1050900035FD38BD2046FEF727FAFAE7E027021073
:1050A000CC2103101428021008B50248FFF726FD92
:1050B00008BD00BF4C28021030B583B00C4601215A
:1050C000204600F0BBFE05460221204600F0B6FE59
:1050D000052301937DB101AA0B49284613F08AFBF1
:1050E000019BDA0F092BD8BF012808D13AB918461D
:1050F000FCF788FD06E01846FCF784FD02E0034853
:10510000FFF7FCFC03B030BDBC270210542802108E
:1051100030B583B00C460121204600F08FFE0546D5
:105120000221204600F08AFE0023019375B1044657
:10513000A0B101AA184913F05DFB012810D0214647
:105140001648FFF7DBFC0023019309E01448FFF742
:10515000D5FC00210120FEF7A7FA16E0114B0193C0
:1051600000244FF0FF3048B1032C07DC0E4B53F8FE
:105170002410284613F0B2FE0134F4E708B9002CDD
:1051800005DA29460948FFF7B9FC03B030BD01999B
:105190002046FEF789FAF8E7AC280210B028021082
:1051A0007828021043424140BC210310DC28021041
:1051B00030B583B00C460121204600F03FFE054685
:1051C0000221204600F03AFE0023019375B1044607
:1051D000A0B101AA184913F00DFB012810D02146F7
:1051E0001648FFF78BFC0023019309E01448FFF7F2
:1051F00085FC00210120FEF72BFB16E0114B0193EB
:1052000000244FF0FF3048B1032C07DC0E4B53F85D
:105210002410284613F062FE0134F4E708B9002C8C
:1052200005DA29460948FFF769FC03B030BD01994A
:105230002046FEF70DFBF8E7AC280210B02802105C
:105240001029021043424140AC21031044290210AE
:1052500070B50C460121204600F0F0FD0546022104
:10526000204600F0EBFD75B1064600244FF0FF30FC
:1052700078B1032C0DDC154B53F82410284613F09D
:105280002DFE0134F4E700214FF0FF30FDF736FB2F
:105290000CE030B9002C06DB31462046FDF72EFB32
:1052A00001E04FF0FF34B4F1FF3F00D070BD36B1E4
:1052B000002EFBD029460648FFF720FCF6E72946DA
:1052C0004FF0FF30FDF71AFBF2E700BF9C210310FF
:1052D0007829021070B50C460121204600F0AEFD81
:1052E00005460221204600F0A9FD25B1064600240E
:1052F0004FF0FF300EE01248FFF700FC00210120C4
:10530000FDF71EFA16E00F4B53F82410284613F051
:10531000E5FD013408B1052CF5DD30B9002C06DBC4
:1053200031462046FDF70CFA04E04FF0FF34B4F1AB
:10533000FF3F00D070BD29460348FFF7DFFBF9E7C8
:10534000B829021084210310EC29021038B50C464C
:105350000121204600F072FD05460221204600F0A2
:105360006DFD1DB100244FF0FF300DE01148FFF737
:10537000C5FB0120FDF7CEFD15E00F4B53F82410BF
:10538000284613F0ABFD013408B1022CF5DD28B935
:10539000002C05DB2046FDF7BDFD04E04FF0FF3497
:1053A000B4F1FF3F00D038BD29460448FFF7A6FB03
:1053B000F9E700BF0C2A021078210310EC29021033
:1053C0000FB400B5FFB080AB53F8042B00934FF43B
:1053D000FA7101A806F0AEFA00280FDB00214FF0A9
:1053E000FF3008F073FBFFF783FB01A900F0C6FC58
:1053F00000207FB05DF804EB04B07047054B1B68DC
:10540000DB681D220121044813F0E4F94FF0FF305E
:10541000EFE700BF403A00200C24021010B5002036
:1054200001F04DF800B910BD002001F035F8044638
:1054300000214FF0FF3008F049FB2146024B18686D
:1054400000F0C0FBEFE700BF24A3002008B50D4B20
:105450001B681BB1002000F0CCFF18B90A4B0022DA
:105460001A7008BDFFF7DAFF064B186800F0BAFEA5
:10547000054B1B78002BF4D1034B01221A70FCF76B
:10548000A7F9EEE724A3002077AF00202DE9F0472D
:10549000DCB000F069FB0446AF4BC36040F2DC5364
:1054A0000382402383808023C38020234381AB4B2E
:1054B000036000F0D3FBAA4B1860002800F056816F
:1054C0008446A84C57AD26460FCE0FC533682B60D7
:1054D00052AD04F114060FCE0FC533682B604DADED
:1054E00004F128060FCE0FC533682B6048AD04F1D8
:1054F0003C060FCE0FC533682B6043AD04F1500658
:105500000FCE0FC533682B603EAD04F164060FCE9D
:105510000FC533682B6039AD04F178060FCE0FC587
:1055200033682B6034AD04F18C060FCE0FC53368A1
:105530002B602FAD04F1A0060FCE0FC533682B6092
:105540002AAD04F1B4060FCE0FC533682B6025AD2C
:1055500004F1C8060FCE0FC533682B6020AD04F1EF
:10556000DC060FCE0FC533682B601BAF3D4604F140
:10557000F0060FCE0FC533682B600DF158094D466C
:1055800004F582760FCE0FC533682B600DF1440A07
:10559000554604F58C760FCE0FC533682B600CAEE4
:1055A000354604F5967EBEE80F000FC5DEF80030E4
:1055B0002B6007ADAE4604F5A078B8E80F00AEE862
:1055C0000F00D8F80030CEF800300DF10808C646BC
:1055D00004F5AA740FCCAEE80F002368CEF80030B3
:1055E000614BCCF800305E4C5CAB13E903008DE8F6
:1055F000030057AB0ECB206800F0F2FA46AB93E8FD
:1056000003008DE8030043AB0ECB206800F0E8FAFE
:1056100014AB93E803008DE803009AE80E002068BD
:1056200000F0DEFA55AB93E803008DE8030052ABBF
:105630000ECB206800F0D4FA50AB93E803008DE85D
:1056400003004DAB0ECB206800F0CAFA37AB93E8ED
:1056500003008DE8030034AB0ECB206800F0C0FAE5
:105660002DAB93E803008DE803002AAB0ECB206836
:1056700000F0B6FA32AB93E803008DE803002FABDD
:105680000ECB206800F0ACFA28AB93E803008DE85D
:10569000030025AB0ECB206800F0A2FA23AB93E801
:1056A00003008DE8030020AB0ECB206800F098FAD1
:1056B0004BAB93E803008DE8030048AB0ECB2068AA
:1056C00000F08EFA19AB93E803008DE8030099E827
:1056D0000E00206800F084FA05AB93E803008DE823
:1056E000030098E80E00206800F07AFA1EAB93E8F9
:1056F00003008DE8030097E80E00206800F070FAC0
:1057000041AB93E803008DE803003EAB0ECB20686D
:1057100000F066FA3CAB93E803008DE8030039AB78
:105720000ECB206800F05CFA0FAB93E803008DE825
:10573000030096E80E00206800F052FA0AAB93E8E6
:1057400003008DE8030095E80E00206800F048FA99
:105750005CB0BDE8F08700BF28A30020402A0210FB
:1057600024A30020D88C0210D54A0010074806F068
:10577000F2FA204600F00EFA0146054806F01AFB40
:105780004FF47A7003F09AFEE2E700BF482A021055
:105790006C2A021010B5C3681A8C02F1020EB3F81D
:1057A00022C0E6450CDADC69A1541A8C013292B2AF
:1057B0001A84DB694FF0000C03F802C003689847B5
:1057C00010BD0D280BD808280DD30838052804D89B
:1057D000DFE800F00B0B0B03030B002070477F2862
:1057E00005D101207047002070470120704700203C
:1057F00070472038C0B25E288CBF0020012070475F
:10580000C3888288934202D39B1A98B2704700895A
:10581000801A13FA80F080B2704702468388C188EC
:105820008B420AD00168C85C01339BB21189B3FB7B
:10583000F1FC01FB1C33938070470020704700B5DA
:10584000B0F806C00CF101039BB20289B3FBF2FE73
:1058500002FB1E339BB282889A4206D0026802F88D
:105860000C10C38001205DF804FB0020FBE7844698
:10587000B0B1C1B10123002001E0013080B28B4200
:105880000AD01CF80020002AF7D101339BB20CEBA0
:1058900000025278002AF0D11CF8003033B1704772
:1058A0004FF6FF7070474FF6FF7070474FF6FF706E
:1058B000F5E7F8B505460F46084613F001FD064624
:1058C000002404E02B68395D284698470134B4422F
:1058D000F8D3F8BD38B54B6863B104460D4603688C
:1058E0000921984769682046FFF7E3FF02492046EF
:1058F000FFF7DFFF38BD00BF807B021038B50446DC
:105900000D460849FFF7D5FF29462046FFF7D1FF8E
:1059100005492046FFF7CDFF04492046FFF7C9FFA0
:1059200038BD00BF884402109C440210807B0210E6
:10593000F8B50546C7683E8E386813F0C1FC0644CA
:105940002B680D2128469847002404E02B6820216D
:10595000284698470134B442F8D32B680D212846D5
:10596000984700233B86F8BD2DE9F04706460C46D4
:105970009046002303608380C380104613F0A0FC90
:10598000D4F80C90B9F82C30002B4BD007460028E7
:1059900048D000241BE00123C3B1D9F8282012F815
:1059A0000A3043F0010302F80A30F38813B1B288D9
:1059B000824200D9B08001339BB2F380012B04D026
:1059C000B9F8203024E00023E6E735600134B9F867
:1059D0002C30A34226DDD9F82430A24604EB840201
:1059E00053F82250284613F06BFCD9F82820135D99
:1059F00023F0010313558742E8D80023BB42CAD2E3
:105A000018F80310EA5C9142DDD10133F6E7013367
:105A1000B2889A42DAD93268D15CEA5C9142F6D017
:105A2000B380D3E73046BDE8F0872DE9F04182B07E
:105A3000D0F80C8098F8333013F0200F02D102B068
:105A4000BDE8F0810446D8F81C2001466846FFF7FF
:105A50008BFFBDF806301BB9B8F82030ADF8043024
:105A6000B8F8206005E02368009A915D20469847C9
:105A70000136BDF804703D46B742F4D804E023680F
:105A80002021204698470135B8F83030AB42F6D88F
:105A9000A8F8307023680D2120469847D8F80010E8
:105AA0002046FFF706FFD8F81C102046FFF701FF3D
:105AB000C5E70000F0B583B00646C468E269014658
:105AC0006846FFF751FFBDF80650E5B1012D04D03F
:105AD000BDF80420238C9A421ED9BDF804703A46C2
