:020000041000EA
:10000000002008205D0100101B010010E581011097
:100010001101001011010010110100101101001058
:100020001901001019010010190100101F01001022
:100030006981011019010010210100102301001035
:100040001101001011010010110100101101001028
:100050001101001011010010110100101101001018
:100060001101001011010010110100101101001008
:1000700011010010110100101101001011010010F8
:1000800011010010110100101101001011010010E8
:1000900011010010110100101101001011010010D8
:1000A00011010010110100101101001011010010C8
:1000B00011010010110100101101001011010010B8
:1000C00011010010110100101101001011010010A8
:1000D0001101001011010010110100101101001098
:1000E0001101001011010010110100101101001088
:1000F0001101001011010010110100101101001078
:100100001101001011010010110100101101001067
:10011000EFF30580103800BE00BE00BE00BE00BE7A
:1001200000BE00BEF2EB8871ACBD0310DCBD031055
:10013000A001001090A31AE7D3DEFFFF42012110B7
:10014000FF0100003CF80300793512AB4FF00000CE
:100150001E49086006C881F3088810474FF05040D8
:10016000006810B14FF00000F2E70DA40ECC00299A
:1001700002D000F012F8F9E71549164A002000E015
:1001800001C19142FCD11449884714498847144958
:10019000884700BEFDE701C901C29A42FBD3704700
:1001A000DCBD031088010020203D002074F90310FD
:1001B000000008200000082074F903100010082037
:1001C00000100820000000007047000008ED00E06B
:1001D000203D0020D09000203DCB00106503001092
:1001E00001CB0010F8B500BF064B0749C91A8910AA
:1001F00048BF0131491003D0044B0BB101481847E7
:10020000704700BF203D0020203D0020000000007E
:1002100008B5054B1BB105490548AFF30080BDE8A3
:100220000840FFF7E1BF00BF000000001C90002065
:10023000A0F7011070B584B005460C4601AB02AAC8
:1002400003A90AF0F3FC18B954B9204604B070BDF4
:100250000646019A029903980AF0B6FC3446F4E780
:100260002946014809F0E4F9A0F70110002203E053
:10027000002120F8121001325D2AF9DD44F241021A
:10028000A0F8B8200022C2830284428402808280C7
:10029000A0F8A020A0F8A220A0F8A420A0F8A620F2
:1002A000A0F8A820A0F8782001228287C287A0F8B1
:1002B0004620A0F85020A0F8522041F28832A0F841
:1002C00054202022A0F856204FF05042526812F4D9
:1002D000003F01D00020704700B583B0FE2200929D
:1002E00003464FF4E832052103481FF00DFA0120C0
:1002F00003B05DF804FB00BF000008404FF050431E
:100300005B6813F4003F01D00020704700B583B054
:10031000FE23009303464FF4E832052103481FF003
:10032000F3F9012003B05DF804FB00BF00000840B2
:100330004FF050435B6813F4003F01D0002070473A
:1003400000B583B0FE23009303464FF4E832052145
:1003500003481FF0B1F9012003B05DF804FB00BFB2
:100360000000084000B583B001214548FFF762FF57
:100370000CF030FD07F0E6FE00F0D8FE07F002FFBB
:100380004FF47A700AF004F9192007F0CFFE4FF409
:100390007A700AF0FDF8192007F0C8FE01231C4608
:1003A0008DF8043000208DF8050001A90EF00AF840
:1003B00007F056F91C2344EC403005F01FF908F013
:1003C00051FF08F0C7FF08F0B7FB08F0FDF800F098
:1003D000ADFE2C4C2046FFF7ABFFB4F8B82044F23A
:1003E00041039A4244D107F091F907F09FFF07F0CB
:1003F00053FF24480123C38303848380FFF77EFFD8
:1004000006F0A0F800F0DCFE19234FF0000242ECE9
:10041000403005F04FF808F03FFE0DF04DFB1A4854
:100420000DF0E6FB04F0F6FC04F0C8FB0DF00CFB4D
:10043000164B02221A60A3F500531B6883F4804315
:1004400003F47043124A136000F070FE05F03CF8AC
:1004500000214FF0FF300EF0A3FB06F053F804F03C
:1004600021FB07F0C1F907F06BFF08F023FAEDE775
:100470002046FFF7FBFE2046FFF740FFB3E700BF33
:1004800048E80100F88A0020F905002000200A4011
:1004900000100A4070B504460D4616460023DB8A5C
:1004A000002242E800F212F4800F0BD1102144F236
:1004B0004F10984703460D4AD2F8142842B96FF0FE
:1004C000120070BD042144F24F1098470346F2E732
:1004D000BFF35F8F3246294620469847BFF35F8FB0
:1004E000024B0022C3F81428EBE700BF00000E40C7
:1004F00010B588B004464FF4806220216846FFF7AB
:10050000C9FF41B251B900231F2B13DC03F12002B4
:100510006A4412F8202C2AB90133F5E7214805F086
:1005200053F9F0E74FF482611F4805F04DF90020C0
:1005300008B010BD002305E003F12001694401F873
:10054000202C01331F2B09DCE25C002AF4D10021AE
:1005500003F120026A4402F8201CF2E74FF4413212
:1005600020216846FFF796FF41B289B921460F481E
:1005700005F02AF94FF4013220216846FFF78AFF7F
:1005800041B251B969460A4805F01EF90120CFE78A
:10059000084805F019F90020CAE7074805F014F9E2
:1005A0000020C5E7D4F7011014F8011088F80110F5
:1005B000D8F8011050F80110B0F8011010B5A0B033
:1005C00004464FF4806240210DEB0100FFF762FF0B
:1005D00041B209B9002319E0144805F0F5F80020EC
:1005E00022E05A0020A901EB430111F8400C03F16D
:1005F0008001694401F8800C81326A4412F8400C91
:1006000003F181026A4402F8800C02331E2BE8DDFC
:10061000002306E003F180026A4412F8802CE254C1
:1006200001331F2BF6DD012020B010BDF0F80110C2
:1006300010B54FF4FA740BE0022009F0A9FF013C59
:10064000002006F041FF00214FF0FF300EF0A8FA25
:10065000002CF1DC10BD000070B5FFF7E9FF0024AD
:100660004FF4801516E02A4621460C4805F0ACF8F8
:10067000FFF7DEFFEFF3108372B6094E33604FF4DD
:10068000801128461FF034F8336883F3108805F58D
:10069000801501340E2CE6DD70BD00BF28F9011075
:1006A000EC51002003460144B1F5700F0ED80A4802
:1006B000006810F803C018461344994202D9BCF1EF
:1006C000FF0FF4D0BCF1FF0F02D07047002070473D
:1006D0004FF0FF30F9E700BFB430002030B5C1B0B3
:1006E000012219490020FFF7DDFFB0F1FF3F25D1BE
:1006F000164805F069F84FF48072FF21684619F03A
:10070000E7FA41258DF800501E2211490DF1010034
:1007100019F0DAFB00238DF81F30022308934FF401
:100720008072099240238DF828308DF8295069464F
:100730004FF480101EF094FF41B030BD01460548D3
:1007400005F042F8F8E700BF00FFEF0060F9011084
:1007500088F90110A0F90110034B1B78412B01D03F
:10076000002070470120704700001010F0B5C1B0A4
:10077000054600F58057B7F5700F39D94FF470076B
:1007800036E0204B1B685A5D1F4901A820440CF03D
:1007900023F90334013501360F2EF2DD103D01AB94
:1007A00019191A4A1088927818538A700234002650
:1007B00007E0174901A820440CF00EF90134013577
:1007C00001360F2E09DC0F4B1B685A5DA2F1200386
:1007D000DBB25E2BEDD92E22EBE700214FF0FF308C
:1007E0000EF0DEF901A90B4804F0EEFFBD4207D27E
:1007F0002A46094901A80CF0EFF800260A24CBE7A5
:1008000041B0F0BDB43000201C140210C812021018
:10081000ECF9011020130210E4F901102DE9F8435E
:10082000044601F128074FF00008C146B4F5700FE7
:1008300019D204F1805505F580152E7800214FF06E
:10084000FF300EF0ADF97F2E10D0FF2E02D06EB12A
:100850006C6AEBE7C4F57003BB421CD943451DD35A
:10086000B9F1000F1CD04846BDE8F8836B6A1A1B2B
:10087000974206D8B8F1000F05D0904507D81C461E
:10088000D4E71C46D2E79046A1461C46CEE79046E8
:10089000A1461C46CAE74FF0FF39E4E7A146E2E76C
:1008A000A146E0E700E0586AB0F5700F0BD200F106
:1008B000805303F580131A78FF2A04D0412AF2D915
:1008C0004FF0FF307047B0F5700F00D870474FF011
:1008D000FF307047F8B50746002500E0656AB5F5BA
:1008E000700F0FD205F1805404F580142678FF2E86
:1008F0000CD03946601C19F039FA0028EED1002ED0
:10090000ECD001E04FF0FF352846F8BD4FF0FF3541
:10091000FAE700002DE9F047C0B004460D46154F38
:10092000396820F0FF094FF4807A524649446846FE
:1009300019F034FFE3B20DF80350FFF779FEEFF33F
:10094000108372B6DFF83080C8F80030524669462E
:1009500009F580101EF084FED8F8003083F310886B
:100960003B68185DA84214BF0020012040B0BDE8DC
:10097000F08700BFB4300020EC5100202DE9F04F8B
:10098000ADF5005D83B020F0FF0404F5801421F084
:10099000FF0505F5801824F47F6626F00F0628F47D
:1009A0007F6727F00F0707F5805704F47064A7EB03
:1009B000080B06F18053019305F1805505F580156C
:1009C0000DF5805A0AF1080A4FF48052FF21504673
:1009D00019F07EF90DF108094FF48052FF214846C5
:1009E00019F076F922460199504619F0D7FE5A4679
:1009F0002946484619F0D2FEFFF71AFEEFF310839E
:100A000072B60C4D2B60B91B30461EF071FE2246AB
:100A1000514630461EF024FE5A46494640461EF0D6
:100A20001FFE2B6883F310880DF5005D03B0BDE851
:100A3000F08F00BFEC51002038B520F47F6424F023
:100A40000F04FFF7F5FDEFF3108372B6054D2B6031
:100A50004FF4805120461EF04BFE2B6883F3108824
:100A600038BD00BFEC510020F8B50D46164620F009
:100A7000FF04FFF7DDFDEFF3108372B6054F3B6017
:100A80003246294620461EF0EBFD3B6883F3108872
:100A9000F8BD00BFEC51002003460144B1F1807F56
:100AA0000ED80A48006810F803C01846134499424B
:100AB00002D9BCF1FF0FF4D0BCF1FF0F02D0704798
:100AC000002070474FF0FF30F9E700BFB030002042
:100AD00008B504F077FC08BD08B503480CF0E6F94A
:100AE000024B04221A7008BDF0F90110CB900020CF
:100AF00008B54FF050435B6813F0807F04D0034982
:100B000003480CF0D3F908BD0249F9E7E8370210B1
:100B1000FCF90110F8F9011008B506480CF0C6F907
:100B20004FF47A7009F034FD012108460AF07CF98F
:100B300008BD00BF28FA011008B506480CF0B6F948
:100B40004FF47A7009F024FD00214FF000700AF094
:100B5000B4F900BF48FA011008B502480CF077F963
:100B600008BD00BF78FA011008B503480CF06FF912
:100B700004F06CFC08BD00BF88FA011008B504F051
:100B80001DF808BD70B5B2B00A200CF051F9002470
:100B900007E0144B53F82420214613480CF086F943
:100BA0000134042C1BDC204606F093FC0028F0D016
:100BB0000C4E56F8242021460C480CF077F956F8D4
:100BC000243022460A4968460BF006FF0246694671
:100BD000204606F0EFFC204606F076FCE0E732B057
:100BE00070BD00BFF44A031004FB0110BCFA0110F1
:100BF000E0FA011010B50E480CF029F90D480CF080
:100C000055F90D480CF052F900240AE00B4904EBA9
:100C100044029300CA189268C95C09480CF046F96E
:100C200001340B2CF2DD0A200CF002F910BD00BFDC
:100C300028FB011034FB011048FB0110D0300020CC
:100C400060FB011010B50E480CF001F90D480CF0D6
:100C50002DF90D480CF02AF900240AE00B4904EBA9
:100C600044029300CA189268C95C09480CF01EF946
:100C70000134012CF2DD0A200CF0DAF810BD00BFBF
:100C80006CFB01108CFB0110B8FB0110B830002088
:100C900060FB01102DE9F04107464FF4746200211A
:100CA00019F016F8002623E0F42406FB04F407EB01
:100CB00004080025A8F83850C8F83050C8F8345057
:100CC000C8F85C5088F83A5088F8F05038343C4402
:100CD000023420222946204618F0FAFF1F220E4B2C
:100CE00053F82610204619F0EFF888F859500136CD
:100CF0000F2ED9DD80233B81A7F8FC30A7F8F03117
:100D0000A7F8E4323B87A7F82C31A7F82032A7F8E0
:100D10001433BDE8F08100BF145B0310F8B504463E
:100D200016461A46069B770006EB4600F42501FBA3
:100D300005F505EB001021180A81235062194FF0C8
:100D4000010C82F8F0C0094A1A444A600830204475
:100D50001F2207491944023019F0B6F8374405EB51
:100D600007152C44002384F82930F8BD2800101002
:100D70000100101038B5049C02EB420E4FF0F40C49
:100D80000CFB01FC0CEB0E1E00EB0E052B8100236F
:100D900040F80E30844401238CF8F0306C60062952
:100DA00002D007291FD038BD63881B2B11D0192B07
:100DB000F7D102EB4202F42301FB03F303EB02132E
:100DC000083318441F22104B9968023019F07CF840
:100DD000E9E77346083318441F220B4B5968023069
:100DE00019F072F8DFE702EB4202F42303FB01F192
:100DF00001EB0211083108441F22034B196802302D
:100E000019F062F8CFE700BF085B0310032900D890
:100E100070472DE9F8430446164602EB4203F427D7
:100E200001FB07F707EB031300EB03094FF0000882
:100E300040F80380A9F8088007F1380020441F22F9
:100E4000094B53F82110023019F03EF8274487F877
:100E50005980C9F82C80C9F80480012E01D0BDE862
:100E6000F88387F8F080FAE7145B0310F8B50646BC
:100E70000C461546B3B11946570002EB4200F42365
:100E800003FB04F404EB0010083030441F2202304E
:100E900019F01AF82F4404EB07142644002386F8AF
:100EA0002930F8BD02EB4205F42303FB04F404EB04
:100EB0000512104400238372F3E7F42303FB0103BC
:100EC0001B8913F0800F20D1F42303FB01031B8F38
:100ED00013F0800F1BD1F42303FB0103B3F8683038
:100EE00013F0800F15D1F42303FB0103B3F89830FE
:100EF00013F0800F0FD1F42303FB0100B0F8C830CA
:100F000013F0800F09D001207047012070470120A5
:100F1000704701207047012070470020704708B5D6
:100F200002EB4202F42301FB03F303EB021303443D
:100F30001B8913F0010F08D113F0100F07D113F420
:100F4000807F06D1FFF7B9FF00E0012008BD012036
:100F5000FCE70120FAE7000030B585B0044644F212
:100F60004103ADF80E30FFF795FE0A4D4FF4746360
:100F7000009323461022052128461EF0C5FB0223BC
:100F800000930DF10E030022052128461EF0BCFB44
:100F900005B030BD000008404FF050435B6813F4CB
:100FA000003F00D0704700B583B04FF474630093E6
:100FB00003461022052103481EF0A6FB03B05DF88E
:100FC00004FB00BF000008402DE9F0411F464B1E06
:100FD0000E2B3FD80646531E032B3DD88DB22D0352
:100FE000ADB2D4B205F6FE7189B222461EF070FB96
:100FF00000F03F00DFF8648018F800303B7005F621
:10100000FD71224689B230461EF062FB00F03F00BF
:1010100018F800307B702D23BB7005F6FC7189B287
:10102000224630461EF054FB00F03F0018F8003016
:10103000FB7005F6FB71224689B230461EF048FB74
:1010400000F03F0018F800303B7100237B71012055
:10105000BDE8F0810020FBE70020F9E7545B0310B6
:101060000F2900D9704770B582B005460E46F422AC
:1010700001FB02F2383202440232114804F0A4FBB0
:10108000002418E004EB44034FF0F40C0CFB06FCC6
:101090000CEB031C0CF108022A4405EB0C010B8934
:1010A0004968019155F80C1000910232214605481B
:1010B00004F08AFB0134042CE4DD02B070BD00BFF3
:1010C000E4FB0110F0FB01100148024BC01A70470D
:1010D00000000820D090002000B58BB0684617F0C3
:1010E000E9FDFFF7F1FF079BC01A0BB05DF804FBA9
:1010F00010B500EBD070441000214FF0FF300DF020
:101100004FFD022009F044FA002006F048FA18B911
:10111000013CF1D5002006E0002006F045FA024827
:1011200004F052FB012010BD2CFC01102DE9F0470A
:10113000012009F01BFD8246022009F017FD8146BF
:10114000032009F013FD8046092009F00FFD074632
:101150000A2009F00BFD06460B2009F007FD0546A5
:101160000C2009F003FD044651460E480BF09EFE8C
:1011700049460D480BF09AFE41460C480BF096FE8E
:1011800039460B480BF092FE31460A480BF08EFEB2
:10119000294609480BF08AFE214608480BF086FED6
:1011A000BDE8F0874CFC011060FC011074FC0110DC
:1011B00088FC01109CFC0110B0FC0110C4FC011063
:1011C00010B5114C20460BF071FE10480BF06EFE6E
:1011D000FFF77AFF01460E480BF068FEFFF77CFF31
:1011E00001460C480BF062FE052009F0B9FC0A4BE1
:1011F000A3FB0031890909480BF058FE20460BF08B
:1012000026FEFFF793FF10BDD8FC011028FD01104A
:1012100078FD011094FD0110D34D6210B0FD011056
:101220002DE9F04F2DED068B95B0FFF77FFF0120E4
:1012300009F09CFC8246022009F098FC81460320BC
:1012400009F094FC8046092009F090FC07460A202A
:1012500009F08CFC06460B2009F088FC05460C20A2
:1012600009F084FC0390914B04221A60904B1B6898
:1012700013F4807FFAD08E4B5B689BB207EE903AF6
:10128000F8EE677A9FED8B7A67EE877A9FED8A7A20
:1012900077EEC77ADFED896A87EEA67AB3EE0BAAFE
:1012A0003AEE47AA052009F05BFC854BA3FB003012
:1012B000800C07EE900AB8EE678AFFF705FF800AF8
:1012C00007EE900AF8EE679AFFF706FF800A07EE2E
:1012D000900AB8EE679A7B4BB3F854B02C2303FB0B
:1012E0000BF39B0A07EE903AF8EE678A12A80BF010
:1012F00063FF00240BE004F150036B4413F8082C47
:1013000071490DA800EB44000BF066FB0134072C7B
:10131000F1D96E4804F058FA6D4804F055FA6D485A
:1013200004F052FA6C4804F04FFA6C4804F04CFA9E
:101330006B4804F049FA6B4B6B4A6C496C4804F0FB
:1013400043FA05AC20220021204618F0C1FC2046BB
:10135000FFF734F9002800F09F809DF81430002B2F
:1013600040F09580634804F02FFA634B1B78203BD4
:10137000DBB25E2B40F294805A4B5B4A5B495C487F
:1013800004F022FA5D4804F01FFA5D4C204604F098
:101390001BFA5C4804F018FA18EE100A1EF07CF9EB
:1013A00002460B46584804F00FFA5146574804F0DD
:1013B0000BFA4946564804F007FA4146554804F0EE
:1013C00003FA3946544804F0FFF93146534804F013
:1013D000FBF92946524804F0F7F90399514804F003
:1013E000F3F9F2EE027A6AEE277AB1EE047A87EE2A
:1013F000878ADFED4D7A38EE278A1AEE100A1EF042
:101400004BF906460F4618EE100A1EF045F9CDE9D5
:10141000000132463B46454804F0D6F90DA9444840
:1014200004F0D2F9204604F0CFF9424804F0CCF998
:101430000022414B414804F0C7F919EE900A1EF012
:101440002BF902460B463E4804F0BEF919EE100A8D
:101450001EF022F902460B463A4804F0B5F918EEA0
:10146000900A1EF019F902460B462C210191CDF885
:1014700000B0354804F0A8F9204604F0A5F9134857
:1014800004F0A2F915B0BDEC068BBDE8F08F05A9FC
:101490002E4804F099F968E72D4804F095F964E7BF
:1014A00015492C4804F090F96FE700BF00200A406E
:1014B00000000A403333533A6ABC343F2D93E13A7B
:1014C00083DE1B43F88A002010310210CCFD01108E
:1014D0001CFE011030FE011060FE0110ACFE011078
:1014E000ECFE011028FF011034FF011040FF011035
:1014F0004CFF011070FF011000F00F10C0FF011031
:1015000024FD0110F8FF01100C0002102C00021045
:101510004800021064000210800002109C000210BB
:10152000B8000210D400021000000042F0000210C7
:1015300018010210500102100040804060010210AA
:1015400080010210A0010210C001021090FF0110E2
:10155000A0FF0110E8FF011008B503F0EBFB08BD88
:1015600008B5002005F0B5FF20B31749174804F06F
:101570002BF9012005F0ADFFF0B11349144804F038
:1015800023F9022005F0A5FFC0B10F49114804F06E
:101590001BF9032005F09DFF90B10B490E4804F0A4
:1015A00013F9042005F095FF60B107490B4804F0DA
:1015B0000BF908BD0A49D9E70949DFE70849E5E71A
:1015C0000749EBE70649F1E7040202100C0202109A
:1015D000340202105C02021084020210AC020210FB
:1015E0000802021070B5B2B0164804F0EDF80024FD
:1015F00007E0154B53F824202146144804F0E4F882
:101600000134042C1BDC204605F063FF0028F0D0D9
:101610000D4E56F8242021460D4804F0D5F856F812
:10162000243022460B4968460BF0D6F9024669463B
:10163000204605F0BFFF204605F046FFE0E732B048
:1016400070BD00BF788B0210F44A03101C03021017
:10165000D4020210F402021008B50E4804F0B4F8E7
:1016600001214FF4FA6009F0DFFB00214FF0FF3059
:101670000DF096FA002005F092FF0028F5D0064BF9
:101680004FF080421A60002005F08EFF034804F0FE
:101690009BF808BD3C03021000B00D40800302100F
:1016A00010B50F4804F090F84FF4FA7400214FF091
:1016B000FF300DF075FA022008F06AFF002005F0F7
:1016C0006EFF30B9013CF1D100214FF0007009F0FC
:1016D000F4FB002005F068FF024804F075F810BD27
:1016E000940302108003021010B50446B8B90F48E5
:1016F00004F06AF8192006F019FD16E021460C489E
:1017000004F0C0FE192006F011FDFA2008F040FF99
:10171000192006F00BFDFA2008F03AFF013C631E89
:10172000082BEBD9034804F04FF810BDE803021072
:10173000FC0302107432021008B54FF050435B688E
:1017400013F4003F01D1012008BD024804F03CF829
:101750000020F9E70004021008B5034804F034F84B
:1017600003F074FE08BD00BF4404021008B5FFF783
:10177000E3FF00B908BD034804F026F803F022FE99
:10178000F8E700BF6804021008B5FFF7D5FF00B9FD
:1017900008BD034804F018F80248FEF767FDF7E7B4
:1017A0008C040210F88A002010B5FFF7C5FF70B94D
:1017B00010BD084B53F82430074A32F81420214654
:1017C000064804F001F801345F2CF2DDF0E7002454
:1017D000FAE700BF10BC0310F88A0020B80402101A
:1017E00070B5C0B00446FFF7A7FFB0B3BCB3012289
:1017F0004FF480714FF47F20FFF74EF9B0F1FF3FB7
:101800004CD1204619F040F806464FF48072FF2173
:10181000684618F05DFA32462146684618F054FBD7
:1018200000230DF806306A462146214803F0CCFF1C
:101830004FF47F211F4803F0C7FF4FF480726946C1
:101840004FF47F20FFF710F91B4C21461B4803F093
:10185000BBFF21461A4803F0B7FF40B070BD164BDE
:101860001B78203BDBB25E2B04D81349154803F0EC
:10187000ABFFF2E71049144803F0A6FF08E004F1BB
:10188000805303F57F231978104804F0FBFD0134E1
:101890001F2CF4DD0E4803F097FFDEE74FF47F21A5
:1018A0000C4803F091FF4FF47F20FFF7C5F8A8E73D
:1018B000480502106C05021000F00F10A805021078
:1018C000C805021014050210D80402100C050210FD
:1018D000743202102405021030B589B00546EC467A
:1018E0003C4C0FCCACE80F0094E80F00ACE80700CC
:1018F0002CF8023B1B0C8CF8003000238DF81F30B5
:101900007DB12C46284618F0BFFF042820D10022C4
:10191000032A26DCA35C303BDBB2092B1DD8013245
:10192000F6E72D4803F050FF6846FEF747FE58B132
:101930009DF800301BB9294803F046FF0BE06946CB
:10194000274803F041FF06E0264803F03DFF02E090
:10195000254803F039FF09B030BD244803F034FFB7
:10196000F9E72349684618F05FFC054610B30422E6
:10197000214618F0A9FA00232B7169461D4803F08F
:1019800023FF1D4803F020FF41F28830FFF7B0FB32
:10199000A0B96846FEF7ACFDA0B16946174803F050
:1019A00013FF6846FEF70AFE80B169460C4803F053
:1019B0000BFFD0E7124803F007FFCCE7114803F014
:1019C00003FFC8E7104803F0FFFEEAE70F4803F003
:1019D000FBFEC0E728B40210E80502101C06021046
:1019E000540602106806021090060210C406021087
:1019F000EC0602103807021058070210BC0702104C
:101A0000F406021094070210DC0702100808021006
:101A100010B50D4803F0D8FE002408E00B4A0C4B2B
:101A200053F8243021460B4803F0CEFE01341D2C20
:101A300008DC4FF050435A680123A3401A42EDD00E
:101A4000054AECE710BD00BF300802102C08021058
:101A500098BB0310400802102808021008B507F0D0
:101A60001FF908BD08B507F0BDF908BD08B507F0B6
:101A700081F808BD08B507F0E7F808BD08B507F01C
:101A80005FF808BD08B507F01DFB08BD08B507F0F5
:101A90001FFB08BD2DE9F047ADF5805D82B00669FA
:101AA00001F1805303F580131B6AB34205D0042073
:101AB0000DF5805D02B0BDE8F08707461E4D0D4470
:101AC000002401940022002312F038F9A1464FF4BB
:101AD000805819E016F072FC01465246174803F090
:101AE00073FE0020E4E70133019A93420AD202AA6E
:101AF000D25C1919695C8A42F5D08A431AD14FF039
:101B00000109F0E7B61A14446EB1464500D2B0465A
:101B100002A90B1F4246384611F0AAFE8246002851
:101B2000D8D10023E0E7B9F1000F01D10120BFE7D0
:101B30000220BDE70320BBE7280010105808021060
:101B40002DE9F047ADF5955D86B006460F460122BA
:101B500001460EA811F0E6FC28B93146A6A818F0F7
:101B60007FFD002518E0044616F028FC02462346B7
:101B70003146BA4803F028FE002420460DF5955D55
:101B800006B0BDE8F087AEAC2C4414F8200C17F07A
:101B90004FFB04F8200C0135A6A818F075FEA842EA
:101BA000F1D82E21A6A818F0C1F90446129D0346CB
:101BB0002A463146AA4804F065FC2F21304618F029
:101BC000B5F900B1461CA749204618F06BFC002867
:101BD00000F0BE804FF00009A349204618F062FCD7
:101BE00008B94FF00309A149204618F05BFC08B979
:101BF0004FF004099E49204618F054FC08B94FF0F4
:101C000005099C49204618F04DFC08B94FF006091B
:101C10009949204618F046FC08B94FF00709974942
:101C2000204618F03FFC08B94FF0080994492046B7
:101C300018F038FC002800F09680B9F1000F00F091
:101C40008A803046FEF746FE8046B0F1FF3F40F006
:101C50008D80032F00F0D4800024022F03D1B8F12F
:101C6000FF3F40F0D5800020FEF71CFEB0F1FF3FA3
:101C700000F01E8129460020FEF7D0FD8046B0F11D
:101C8000FF3F00F01D81C0F5700305F5807293429F
:101C9000C0F01E8104AC8DF8109031460DF111009A
:101CA00018F0DEFC0C9508F1805303F580135A6A96
:101CB0001B78FF2B00F014810D92012205F1280101
:101CC0004046FEF7EFFCB0F1FF3F40F01081AEACB4
:101CD00004AECDF80080336A32780DF11101694805
:101CE00003F072FD4FF48052FF21204617F0F0FF01
:101CF0000FCE0FC40FCE0FC496E8030084E8030094
:101D00000EAC00220023204612F018F803AB40F678
:101D1000D872B8A9204611F0ABFD0446002840F067
:101D2000F480FEF785FCAEA9A1F52B76346804F2A9
:101D3000271424F0FF04EFF3108772B6224608F54B
:101D400080101DF08DFC87F310883668AE1BFBE019
:101D50004FF0010940E74C4803F036FD0EA811F0A2
:101D600043FF012409E74FF009096AE701464748A4
:101D700003F02AFDBB1E012B3AD841460EA8FFF7FF
:101D800089FE044604282AD8DFE800F00B03291A4C
:101D900013003F4803F018FD0EA811F025FF0224A0
:101DA000EBE63C4803F010FD0EA811F01DFF0324E4
:101DB000E3E6394803F008FD0EA811F015FFDCE654
:101DC000364803F001FD4FF0050A022C0AD0032F1C
:101DD0007FF443AF0EA811F007FF5446CDE64FF055
:101DE000000AF2E72E4803F0EFFC4FF0060AEEE798
:101DF0002C4803F0E9FC0EA811F0F6FE0724BCE61F
:101E0000294803F0E1FC0EA811F0EEFE3C46B4E6D2
:101E100008F1805303F580131E460DF1100E03F1F7
:101E20002007F44630687168B268F368ACE80F00C8
:101E30001036E646BE42F4D130687168AEE8030061
:101E4000032C7FF444AF0D9A4146184803F0BCFCC4
:101E50000D994046FEF792FD39E700BF9008021049
:101E60006C0A0210DC080210E4080210EC080210F0
:101E7000F4080210FC080210040902100C090210F8
:101E800014090210DC0C02101C090210A40A021032
:101E9000C40A0210F40A0210100B02104C0B0210BC
:101EA0008C0B0210C80B0210F80B0210240C02104D
:101EB000324803F089FC0EA811F096FE09245CE676
:101EC0002F4803F081FC0EA811F08EFE0A2454E680
:101ED0002C4803F079FC0EA811F086FE0A244CE68B
:101EE00005F2271323F0FF0343446362E5E601464E
:101EF000254803F069FC0D9A4146244803F064FC30
:101F00000D994046FEF73AFDE1E616F057FA014614
:101F100022461F4803F058FC0EA811F065FE00246D
:101F20002BE6FF3424F0FF04EFF3108772B6AEAD5A
:101F30002246294608F580101DF092FB87F3108891
:101F4000A5F52B752B68F61A002E12DDAEAD4FF4F9
:101F50008052FF21284617F0BBFE03AB4FF480529E
:101F600029460EA811F084FCA04403AD2C68002C77
:101F7000D7D10EA811F038FE0824FEE54C0C021053
:101F8000680C0210900C0210BC0C0210240C021001
:101F90005808021070B5ADF53E7D05460E462C2260
:101FA0000021B3A817F094FEFEF7D6FB68B3FF221A
:101FB000002173A817F08CFE2B7833B9FF2173A88A
:101FC00011F027FE044648BB73AD2946514803F083
:101FD000FBFB582200215CA817F07AFE4FF49072A8
:101FE000002114A817F074FE05B34B4B2A4614A920
:101FF0005CA812F0A8F8044698B316F0DFF9014681
:102000002246464803F0E0FB81E0454803F0DCFB54
:102010004FF47051434803F0D7FB78E016F0CEF947
:1020200001462246404803F0CFFB70E03F4B404A58
:102030004FF4B4613F480AF067FD31466846FFF748
:102040007FFDBEAB03EB800353F82C2C013243F829
:102050002C2C394803F0B8FB14A95CA812F05CF8EA
:10206000044614BB9DF86A30FBB100214FF0FF30ED
:102070000CF096FD2946684618F0F2FA684618F00A
:1020800003FC2E4B1B882DF800300DF16A016846C9
:1020900017F092FE9DF85C3013F0100FCDD00DF1CB
:1020A0006A01274803F090FBD6E75CA811F0EBFF2C
:1020B000244803F089FBBB99234803F085FBBA99B8
:1020C000224803F081FBB599214803F07DFBB999C3
:1020D000204803F079FBB8991F4803F075FBB799C6
:1020E0001E4803F071FBB6991D4803F06DFBB499CF
:1020F0001C4803F069FBB3991B4803F065FBBD99CD
:102100001A4803F061FBBC99194803F05DFB0DF51B
:102110003E7D70BDA00D021024FD0110300E021096
:10212000140D0210500D02107C0D0210C00D021093
:10213000C80D0210F00D021074320210540E02107D
:10214000580E0210740E0210940E0210C40E0210EB
:10215000F40E0210240F0210540F0210840F02100C
:10216000B40F0210E40F02101410021044100210F9
:102170007410021070B505460C461646FFF7DCFADF
:1021800030B1012C08D021462846FFF7D9FC70BD9C
:10219000044803F019FBFAE731462846FFF7FAFE38
:1021A000F5E700BFA410021030B583B0044645889F
:1021B0006DBAADB2018849BA89B2374803F004FB61
:1021C0002946364803F000FBE188A38803F47F42E8
:1021D00002EB11225BBA9BB2FF2B2BD892B2B2F565
:1021E000805F2FD355BB2E4803F0EEFA04F58054E0
:1021F000B4F8FC0FC0F305202A49B4F8FA2FC2F353
:102200000522B4F8F83FC3F30523B4F8F65FC5F32D
:1022100005254D5D0095CB5C8A5C095C224803F086
:10222000D3FAB4F8FE1F49BA89B2204803F0CCFAB9
:1022300003B030BD1E4803F0C7FAD7E71D4803F0CE
:10224000C3FAD3E7002DCED002F10043013B34F8AE
:1022500013305BBADBB200203F2B0FD80F280DDC08
:1022600003F03F030F49C95C134B19540130531E4F
:102270001B1A34F813305BBADBB2EDE703F03F030F
:102280000849CB5C0C490B54013000230B540B481C
:1022900003F09AFAAAE700BFDC100210F010021057
:1022A000401102107C490310A0110210BC11021051
:1022B00004110210201102104C400020681102107D
:1022C000F0B5C1B00746294803F07EFA284803F06C
:1022D0007BFA284803F078FA002428E0103CA4B2E6
:1022E00001AB5919244A1088927858538A700235E4
:1022F000002608E0214901A828440AF06DFB0135B9
:102300000134A4B201360F2E0ADC37F8142052BA79
:10231000D2B2A2F12003DBB25E2BEBD92E22E9E789
:1023200001A9174803F050FAB4F5805F1BD20021D1
:102330004FF0FF300CF034FC2246124901A80AF09D
:102340004BFB00260A250F2EC8DC37F8142052BAA2
:1023500092B20D4901A828440AF03EFB053501342C
:10236000A4B20136EFE741B0F0BD00BFD4110210B6
:10237000EC11021054120210C8120210ECF90110F4
:1023800020130210C0120210CC12021010B501EB83
:10239000810C01F003014900C1F1080EFF2303FA8B
:1023A00001F2C1F106042341CCF38F0C10F80C406C
:1023B00022400A41604441780B4003FA0EF39BB27D
:1023C00013FA82F080B210BD2DE9F04782B080464A
:1023D00090F8B89201465C4803F0F6F908F105015F
:1023E0005A4803F0F1F998F8B812594803F0ECF99B
:1023F000002739E0574803F0E7F904E0002E76D1D2
:10240000554803F0E1F904F5805494F8213494F828
:10241000225405F03F052D0105EB131505F03F058E
:102420004E4994F82024920894F81F0400F03F00CD
:1024300094F81D6494F81E349B0003EB961303F08C
:102440003F03CB5C00930B5C8A5C495D444803F01E
:10245000BBF994F8221494F823349B0003EB9111F8
:10246000404803F0B1F901374F4569DA41F2444A77
:102470000AFB078A0AF2D924224639463A4803F071
:10248000A3F90AF2FD2A94F8253094F8266006F0A4
:102490000F06B60106EB930694F8241003F003032D
:1024A00001EB0321314803F08FF93146304803F046
:1024B0008BF994F8273094F82850AD0005EB93156C
:1024C00094F8262003F03F031B0103EB1213DAB24A
:1024D000120252FA85F5ADB2FF2B8BD8B5F5805FAD
:1024E0008CD3002E8CD0234803F06EF98BE7691E45
:1024F00089B25046FFF74AFFC0B200260EE000F056
:102500003F00164B1A5C1C4B9A550136A91B89B229
:10251000013989B25046FFF739FFC0B23F2801D8D0
:102520000F2EECDD00F03F000C4B1B5C12498B556D
:10253000013600238B552A46104803F045F962E71F
:1025400002B0BDE8F08700BFD4120210E8120210FA
:10255000FC12021004110210401102107C490310F9
:10256000A0110210BC11021010130210DC10021096
:10257000F0100210201102104C4000202413021011
:102580002DE9F043C1B08046354917F08BFF002894
:1025900061D1344803F018F941B0BDE8F083214619
:1025A0003846FFF7F3FE02462F4901A828440AF0F7
:1025B00013FA05350134A4B201360F2EEFDD103CBD
:1025C000A4B201AB5919294A1088927858538A70DD
:1025D0000235002608E0264901A828440AF0FCF943
:1025E00001350134A4B201360F2E0BDC21463846EA
:1025F000FFF7CCFEC2B2A2F12003DBB25E2BEAD918
:102600002E22E8E701A91B4803F0DEF8B4F5805F4D
:102610000CD200214FF0FF300CF0C2FA22461649CE
:1026200001A80AF0D9F900260A25C6E709F101092F
:10263000B9F1000FB0DC41F2444707FB098707F20C
:10264000FD270E4803F0C0F80D4803F0BDF80D4813
:1026500003F0BAF8DDE74FF000094C46E8E700BFA9
:102660005C13021064130210CC120210C812021084
:10267000ECF9011020130210C0120210D411021044
:10268000EC1102105412021010B588B00138052860
:1026900006D8DFE800F003075D9194BA06F0FEFD6E
:1026A00008B010BD0C46084618F0EEF80C2803D010
:1026B000584803F089F8F3E703238DF80C302378AA
:1026C000303BDBB21B01DBB262781344303B8DF848
:1026D0001330A378303BDBB21B01DBB2E27813444A
:1026E000303B8DF812302379303BDBB21B01DBB27B
:1026F00062791344303B8DF8103000228DF81120A0
:10270000A379303BDBB21B01DBB2E1790B44303BF8
:102710008DF80F30237A303BDBB21B01DBB2617ADC
:102720000B44303B8DF80E30A37A303BDBB21B01FB
:10273000DBB2E17A0B44303B8DF80D300092082378
:1027400003AA682134480BF049F9344803F03CF8F7
:1027500003A806F02DFE9DF812309DF814209DF878
:1027600015102F4803F030F89DF80F3003F07F0369
:102770009DF810209DF811102A4803F025F89DF8C7
:102780000E10294803F020F89DF80E3013F0040FC6
:102790000AD1264803F018F89DF90F30002B07DB0B
:1027A000234803F011F87BE7224803F00DF8F3E724
:1027B000214803F009F873E706F0CCFD70E703A8A1
:1027C00006F0F6FD0024132C0ADC04F120036B4410
:1027D00013F8142C2146194802F0F6FF0134F2E7F1
:1027E0009DF812309DF814209DF815100C4802F049
:1027F000EBFF9DF80F3003F07F039DF810209DF84C
:102800001110084802F0E0FF4AE70D4802F0DCFF33
:1028100046E700BF84130210EC350020C0130210FD
:10282000CC130210F013021014140210241402101E
:10283000501402103814021078140210B814021048
:10284000CC1402102DE9F04198B007460C46FDF774
:1028500083FF70B3002C54D02046FEF73BF80546AA
:10286000B0F1FF3F30D000F1805404F580145A4895
:1028700002F0AAFF594802F0A7FF214611F8012BE8
:10288000236A606A01900095554803F0FBFD2378A8
:10289000FBB17F2B21D0534802F096FF2378032B06
:1028A0001FD0013BDBB2012B23D94F4802F08CFF34
:1028B00007E04E4802F088FF4FF470514C4802F098
:1028C00083FF18B0BDE8F08121464A4802F07CFF42
:1028D000F7E7494802F078FFF3E7484802F074FF51
:1028E000EFE7474C6019FFF75FFC6019FFF7E8FC62
:1028F000E7E7434C6019FFF767FD6019FFF740FEFB
:10290000DFE7354802F060FF344802F05DFF4FF02A
:102910000008454619E0C5F570044146394802F003
:1029200053FF2946384802F04FFFA20A4FF47001C6
:10293000364802F049FFC4E72F4803F0A3FD2948B9
:1029400002F042FF022F2AD0656AB5F5700FB8D2A7
:1029500000214FF0FF300CF023F905F1805404F50D
:1029600080142378FF2BD6D004AE626A02920195C0
:10297000226A0092621C1A4930460AF02DF830464D
:1029800003F080FD08F101022378002BD4D07F2BC7
:1029900001D09046D3E7194803F074FDCFE72278C1
:1029A000531EDBB2012B06D9032ACDD1144828448B
:1029B000FFF7FAFBC8E7124E2E443146144802F0E6
:1029C00003FF711D134802F0FFFE96F8B81212487B
:1029D00002F0FAFEB8E700BF08150210B4090210B1
:1029E000000A02104C6F02101C090210140D021094
:1029F000500D0210F0140210541502106C15021044
:102A00002800101080150210B8150210F4150210DD
:102A1000D4120210E8120210FC1202102DE9F04F3D
:102A2000ADB00378012B40F0CE82064690F8DB92E1
:102A3000B9F10A0F07D840F25C7323FA09F313F0D7
:102A4000010F40F0C68220242246002124A817F05E
:102A50003FF9224600211CA817F03AF9224600212E
:102A600014A817F035F9224600210CA817F030F908
:102A70002246002104A817F02BF94FF00108B8F105
:102A8000030F00F3A282002535E22F2A0CD03F2A43
:102A900040F03082013B2CAA02EB830353F8402C18
:102AA000013A43F8402C25E2013B2CAA02EB8303B8
:102AB00053F8202C013A43F8202C1BE2013B2CAAAE
:102AC00002EB830353F8602C013A43F8602C11E2C7
:102AD000013B2CAA02EB830353F8802C013A43F804
:102AE000802C07E2A37F002B00F0048294F81DA045
:102AF000BAF12F0F67D0BAF12F0F6ED0BAF13F0F96
:102B000075D0BAF13F0F7CD0BAF15F0F00F083802F
:102B1000BAF15F0F00F08A80BAF14F0F00F0908099
:102B2000BAF14F0F00F09780BAF16F0F00F09D805F
:102B300003F1FF3B2CAB03EB8B0353F8203C3BB181
:102B40002CAA02EB8B0252F8402C002A40F09A800B
:102B5000002B40F0B2802CAB03EB8B0353F8403CCE
:102B6000002B40F0B6802CAB03EB8B0353F8803C7A
:102B70003BB12CAA02EB8B0252F8602C002A40F0E9
:102B8000B480002B40F0CB802CAB03EB8B0353F8CD
:102B9000603C002B40F0CF802CAB03EB8B0353F851
:102BA000A02C002A00F0F68053420827CDF800A0A0
:102BB000CDF804B09346CDF8088003951D46334602
:102BC0003E461F46C5E05A1E2CA901EB820252F870
:102BD000407C002F8FDD013F33E15A1E2CA901EB11
:102BE000820252F8207C002F00F32B8186E75A1EC8
:102BF0002CA901EB820252F8207C002F81DD0137E5
:102C00001FE15A1E2CA901EB820252F8407C002FD2
:102C100000F3178178E75A1E2CA901EB820252F8C3
:102C2000807C002F7FF774AF01370AE15A1E2CA970
:102C300001EB820252F8607C002F00F302816BE707
:102C40005A1E2CA901EB820252F8607C002F7FF7FC
:102C500067AF013FF5E05A1E2CA901EB820252F842
:102C6000807C002F00F3ED805EE7591E2CAA02EB5A
:102C7000810252F8A07C002F7FF75AAF013742F84B
:102C8000A07CDEE00827CDF800A000E001370E2F81
:102C900000F28D8094F81FA0524639466448FEF732
:102CA0003EF90028F2D15246791C6148FEF737F907
:102CB0000028EBD1DDF800A07BE008270F2F78D8A3
:102CC000E27F39465A48FEF72AF9002871D00137C9
:102CD000F4E708270F2F6CD8E27F39465448FEF7F7
:102CE0001EF9002865D00137F4E70827CDF800A0C9
:102CF00000E002370E2F6DD894F81FA052463946D7
:102D00004B48FEF70CF90028F3D15246791C48488D
:102D1000FEF705F90028ECD1DDF800A049E008270E
:102D20000E2F46D8E27F39464148FEF7F8F80028D2
:102D30003FD00237F4E708270E2F3AD8E27F791CFC
:102D40003B48FEF7ECF8A0B30237F5E7AA4544D2BA
:102D500001360BF11002964211D8B0464FF0000A2E
:102D6000B8F10F0FF2D8E27F41463148FEF7D7F8AD
:102D70000028EBD10AF1010A08F10108F0E7DDF8BB
:102D800000A0DDF804B0DDF80880039D3B4637461F
:102D90001E460EE0082700E001370F2F09D8E27F1A
:102DA00039462348FEF7BBF80028F5D101E0DDF8ED
:102DB00000A0BAF14F0F2DD01AD8BAF12F0F23D09F
:102DC000BAF13F0F3DD101372CAB03EB8B0343F836
:102DD000407C36E0DDF800A0EBE7DDF800A0DDF890
:102DE00004B0DDF80880039D3B4637461E46E0E709
:102DF000BAF15F0F14D0BAF16F0F22D12CAB03EBF5
:102E00008B0343F8A07C1CE02CAB03EB8B0343F853
:102E1000207C16E02CAB03EB8B0343F8807C10E0A6
:102E200001372CAB03EB8B0343F8607C09E000BF58
:102E30002C410020A37F002B5CD1677F1F2F00F067
:102E4000AB80032F40F2E98094F82130002B40F052
:102E5000B1804FF0130A94F822300BB14FF0000A02
:102E60003378012B00F0A9800F2F00F2D98094F85D
:102E70001FB05A4639466D48FEF751F8002840F019
:102E8000D28004F12401694A0BEB4B0BF42307FBBE
:102E900003F303EB0B1B9344CBF80410E17F06F123
:102EA0006F4000F5700001EB410103EB0111505040
:102EB000E17F01EB410103EB01111144A1F808A0EE
:102EC000E17F01EB410103EB0111114400278F72F7
:102ED000E17F01EB410103EB01111144C862E17F85
:102EE00001EB410103EB011008301044711C02306A
:102EF00017F0B6FB013596F8E032AB4260DD41F2E7
:102F0000444405FB04F404F201343444B8F1020FE4
:102F10003FF4E8ADB8F1030F8CD0B8F1010FE9D15F
:102F2000627FA2F11003DBB20E2B55D96F2A56D85F
:102F3000A37F082B56D8E17F002956D0042957D803
:102F400094F82010082956D894F82110012955D852
:102F500094F82210012954D894F82310012953D849
:102F60000BB11F2A53D90BB91F2A53D8002BC1D03C
:102F70004F2A3FF4ADAD7FF688AD5F2A3FF49EAD9A
:102F80006F2AB7D1013B2CAA02EB830353F8A02C84
:102F9000013A43F8A02CADE7082700E001370F2FD6
:102FA0003FF64FAFE27F39462048FDF7B8FF0028D3
:102FB000F4D146E74FF0000A4DE74AF0080A53E71C
:102FC00008F101085BE54FF0670948462DB0BDE800
:102FD000F08F4FF06909F8E74FF06709F5E74FF018
:102FE0006709F2E74FF06709EFE74FF06709ECE791
:102FF0004FF06709E9E74FF06709E6E74FF0670927
:10300000E3E74FF06709E0E74FF06709DDE74FF0CE
:103010006709DAE74FF06709D7E74FF06A09D4E7A5
:103020004FF06809D1E74FF06809CEE72C41002046
:103030002DE9F04383B006460C4615461F46FEF7C1
:103040007BFB002800F007818046731F012B40F2B4
:10305000DF8005EB4502F42304FB03F303EB0213CB
:10306000AF4A13441B8913F0010F0DD12146AC4820
:10307000FDF723FF70B9731E052B00F2EC80DFE82B
:1030800003F00E395A7BC7C72A462146A54802F0ED
:103090009BFBE0E02146A44802F096FBDBE0A04B5E
:1030A000F42202FB04331B8F13F0010F1DD19F4844
:1030B00002F08AFB9A4C40F21713A4F8E43600237E
:1030C000C4F8DC36012584F89C57994BC4F8E036E7
:1030D0001F22984B196804F2E66016F0F5FE2046B0
:1030E000FDF75AFF944B9D80B5E02146934802F0CE
:1030F0006BFBB0E08A4BF42202FB04331B8F13F00E
:10310000010F13D18E4802F05FFB854C8D4B00936D
:1031100040F21713012206212046FDF72BFE204620
:10312000FDF73AFF844B00221A8094E02146834841
:1031300002F04AFB8FE07A4BF42202FB04331B8F30
:1031400013F0010F13D1804802F03EFB744C7F4B0B
:10315000009340F21713012206212046FDF70AFED4
:103160002046FDF719FF744B01221A8073E02146B7
:10317000724802F029FB6EE03846FDF7ABFB804653
:10318000B0F1FF3F26D02B4622463946704802F068
:103190001BFB08F1805606F580166E4802F014FB02
:1031A0006D4802F011FB314611F8012B336A706A49
:1031B0000190CDF80080694802F006FB3378032BBC
:1031C0000DD03378013BDBB2012B44D8644802F0C8
:1031D000FBFA40E03946634802F0F6FA3BE0624F02
:1031E00007EB0800FEF7E0FF07EB080208F12801F3
:1031F0005E4802F0E9FA4A4FCDF8008017232A46CC
:1032000021463846FDF78AFD3846FDF7C5FED8E76A
:103210003846FDF75FFB0446B0F1FF3F1ED000F1DA
:10322000805505F580154B4802F0CEFA4A4802F069
:10323000CBFA294611F8012B2B6A686A0190009499
:10324000464802F0C1FA2B78032B0CD0012B4CD04E
:10325000022B00F0E28003B0BDE8F083394641481C
:1032600002F0B2FAF7E7404D2819FEF79DFF2A1940
:1032700004F128013E4802F0A7FA4FF000090825A2
:1032800000E001350F2D12DCB9F1000F0FD1244BF6
:10329000F42202FB05331B8F13F0010FF1D12946F5
:1032A0001F48FDF70AFE0028EBD1C146EAE7B9F155
:1032B000000F12D03A4629462E4802F085FA062E13
:1032C0000FD0174E00941723012229463046FDF7F0
:1032D00025FD3046FDF760FEBDE7274802F074FA91
:1032E000B9E7264802F070FAB5E7254802F06CFA13
:1032F0002846FFF793FB044663285CDDA0F16503D5
:10330000052B53D8DFE803F0030742464A4E1D4819
:1033100002F05AFA9FE71C4802F056FA9BE700BFFA
:103320002C4100204416021080160210EC160210E8
:10333000989B0310085B0310F88A0020B81602104F
:1033400014170210987B031044170210985B0310A7
:103350007017021008150210B4090210000A0210BA
:10336000C8170210F014021028001010981702104D
:10337000201802109C18021064180210B8180210CD
:10338000E4180210F81802101C190210254802F067
:103390001BFA60E7244802F017FA5CE7234802F0C2
:1033A00013FA58E7224802F00FFA54E70146214881
:1033B00002F00AFA4FE7204802F006FA1F48FDF72C
:1033C000EBFD072C24D801A353F824F0573200104A
:1033D000ED330010113400101134001011340010BE
:1033E0000334001011340010FB330010144802F0B5
:1033F000EBF9144B01221A802DE7134802F0E4F98F
:1034000029E7124802F0E0F90E4B01229A8022E7E8
:1034100021460F4802F0D8F91DE70E4802F0D4F912
:1034200019E700BF401902105C1902108C19021034
:10343000AC190210DC190210F81902102C410020FE
:10344000181A0210F88A0020481A0210941A021062
:10345000C81A0210041B021070B506460C46FEF78F
:103460006BF9002800F0A780012E44D0022E4FD027
:1034700031465848FDF721FD002874D1002C00F09A
:103480008D8004EB4402F42306FB03F303EB0213E9
:10349000504A13441B8913F0010F00F08D8022461F
:1034A00031464C48FDF7B2FC224631464A4802F00C
:1034B0008BF979E0224629464648FDF7A7FC0134FE
:1034C000042C13DC04EB4402F42305FB03F303EBAD
:1034D0000213404A13441B8913F0010FEFD0294611
:1034E0001046FDF7EAFC0028E9D1E3E701350F2D8E
:1034F00003DC3446E4E70425F9E7384B00221A8060
:103500009A803448FDF748FD354802F05DF952E0F5
:10351000344802F059F9042516E00134042C12DC79
:1035200004EB4402F42305FB03F303EB0213294AE3
:1035300013441B8913F0010FEFD02246294625487A
:10354000FDF764FCE9E701350F2D01DC0124E5E717
:10355000224B00221A809A801E48FDF71DFD22484A
:1035600002F032F927E03146204802F02DF922E03E
:103570000134042C14DC04EB4402F42306FB03F3B3
:1035800003EB0213134A13441B8913F0010FEFD00E
:10359000224631460F48FDF739FCE9E70124E8E708
:1035A0003146134802F010F9062E0BD0072E0DD02D
:1035B0000848FDF7F1FC70BD224631460D4802F087
:1035C00003F9F8E7054B00221A80F1E7034B0022CC
:1035D0009A80EDE72C4100203C1C0210F88A002064
:1035E000401B0210741B0210AC1B0210E01B0210E7
:1035F0001C1C0210581C02102DE9F041ACB006460C
:103600000F46904620AC934D0FCD0FC40FCD0FC485
:1036100095E80F0007C4238018AC8F4D0FCD0FC461
:1036200095E80F0084E80F000DF1280C8B4C0FCCAF
:10363000ACE80F000FCCACE80F000FCCACE80F00EB
:1036400094E803004CF8040B8CF8001003AC844D94
:103650000FCD0FC495E8070003C42270FEF76CF885
:10366000002849D0062E10D07E4BF42202FB0733EF
:103670001B8F13F0010F0FD1013E052E00F2E680E3
:10368000DFE806F00F0F426B94CA3B1F0B2BEBD900
:10369000754802F099F82FE03946744802F094F822
:1036A0002AE005216F48FDF708FC40BB6D4C8023E4
:1036B000A4F8FC340026C4F8F464012384F8B4357B
:1036C0006B4BC4F8F83404F2FE451F2269492846C2
:1036D00016F0FAFB84F81D650DF160081F224146C3
:1036E000284616F0F1FB05275E48FDF755FC4246DB
:1036F0003946614802F068F82CB0BDE8F0813946DF
:103700005E4802F061F8D1E705215648FDF7D5FB88
:10371000F0B9544C8023A4F8F0350026C4F8E865CD
:10372000012384F8A836524BC4F8EC3504F2F25564
:103730001F225049284616F0C7FB84F811660DF188
:1037400028081F224146284616F0BEFB0627CBE775
:1037500039464B4802F038F8DBE707214148FDF7CE
:10376000ACFBF0B93F4C8023A4F8E4360026C4F843
:10377000DC66012384F89C373D4BC4F8E03604F244
:10378000E6651F223B49284616F09EFB84F8056734
:103790000DF10C081F224146284616F095FB07271D
:1037A000A2E73946374802F00FF8DBE74FB3394656
:1037B0002C48FDF782FB50B32A4C012239462046A3
:1037C000FDF724FB002239462046FDF71FFB394652
:1037D0002D4801F0F9FF8FE701340F2C13DC21464F
:1037E0002048FDF76AFB0028F6D01E4D0122214635
:1037F0002846FDF70BFB002221462846FDF706FB75
:10380000EAE70424E9E7214801F0DEFF74E73946DE
:103810001F4801F0D9FF6FE739461248FDF74DFB0D
:1038200078B9104C002300938023012239462046AA
:10383000FDF774FA4346012239462046FDF716FB90
:1038400052E73946134801F0BFFF55E7124801F02F
:10385000BBFF51E7941E0210C41E0210E41E0210AA
:103860001C1F02102C4100207C1C0210A01C021006
:103870002800101001001010781E0210D41C021035
:10388000181D02105C1D0210C41D0210A01D0210A4
:10389000E81D0210141E0210581E02102DE9F047F8
:1038A000D0B00546E0B10F4601EB4102F42300FB26
:1038B00003F303EB0213BC4A13441B8913F0010FFB
:1038C00000F04F810146B848FDF7CAFBB74801F048
:1038D0007BFF2D03AEB206F580581FFA88F8A0E1F1
:1038E000B34801F071FFB34801F06EFFB24801F038
:1038F0006BFF2E461FE004EB4403F42206FB02F2AA
:1039000002EB0312A84B13440B449A7A46AB5A5469
:1039100001311F29EFDD04EB4404F42306FB03F31C
:1039200003EB0413A04A1A4446AB12893146A3485C
:1039300001F04AFF01360F2E00F318810124042CF8
:10394000F8DC31469848FDF7B8FA18B1012C01D1DE
:103950002946DEE704EB4402F42306FB03F303EB02
:103960000213914A13441B8913F0010F2FD013F453
:10397000807F2ED040F0918022463146904801F061
:1039800023FF0134DBE704EB4403F42206FB02F2DD
:1039900002EB0312844B13440B449A7A46AB5A54FD
:1039A00001311F29EFDD012CEBD104EB4402F4239C
:1039B00006FB03F303EB02137B4A13441B8946AA5D
:1039C0000092224631467F4801F0FEFED9E72946A3
:1039D000E7E74EAB224631467348FDF7F5FA4FEA6A
:1039E0000639012C2BD01FFA89F9E3B2DFF8B88130
:1039F0001F461A46494640461BF06AFE824609F1B8
:103A000001013A4689B240461BF062FE04EB4402D3
:103A1000F42306FB03F303EB021308EB0302118903
:103A20000833434402335268039202930191009099
:103A30004EAB52462146644801F0C6FEA1E71FFA8C
:103A400089F9E3B2DFF860811F461A4649464046CD
:103A50001BF03EFE824609F101013A4689B240461A
:103A60001BF036FE04EB4402F42306FB03F303EBE6
:103A7000021308EB030211890833434402335268EE
:103A800004920393029101904EAB00935346224659
:103A900031464E4801F098FE73E74FEA06394EABC7
:103AA000224631464048FDF78FFA012C2BD01FFAF1
:103AB00089F9E3B2DFF8F0801F461A4649464046CE
:103AC0001BF006FE824609F101013A4689B24046E2
:103AD0001BF0FEFD04EB4402F42306FB03F303EBAF
:103AE000021308EB0302118908334344023352687E
:103AF00003920293019100904EAB52462146344806
:103B000001F062FE3DE71FFA89F9E3B2DFF8988021
:103B10001F461A46494640461BF0DAFD824609F127
:103B200001013A4689B240461BF0D2FD04EB440243
:103B3000F42306FB03F303EB021308EB03021189E2
:103B40000833434402335268049203930291019074
:103B50004EAB00935346224631461E4801F034FED8
:103B60000FE70A4601461C4801F02EFE50B0BDE8A2
:103B7000F0877119FAB289B20B481BF0A9FD024611
:103B8000164907A8204408F027FF044401350F2DEB
:103B9000EFDD07AB1919124A1088927818538A7012
:103BA0000234002525E000BF2C41002074320210B1
:103BB000381F02104C1F0210841F0210CC1F02106D
:103BC000CC2002100C2002108C2002104C2002107D
:103BD000582102101821021098210210BC21021055
:103BE000C8120210134907A8204408F0F5FE01345A
:103BF00001350F2D0DDC7119FAB289B20E481BF098
:103C000067FDC2B2A2F12003DBB25E2BEAD92E22FD
:103C1000E8E71036B6B207A9084801F0D5FDB0456F
:103C2000A4D93246064907A808F0D6FE00250A2482
:103C3000ADE700BFECF901102C4100202013021069
:103C4000C012021070B504460E46FDF775FD00283F
:103C50003BD00546601E032834D8DFE800F0023B65
:103C60004C5D554801F0B0FD544B9B880BB1544955
:103C700000E05449544801F0A7FD504B1B880BB19C
:103C80004F4900E04F49514801F09EFD04240021B6
:103C900000E001340F2C14DC4D4BF42202FB043302
:103CA0001B8F13F0010FF4D0494B02FB043393F93F
:103CB000F030002BEDDA2146464801F085FD29461B
:103CC000E7E719B13D48FCF719FB70BD424801F028
:103CD0007BFDF7E7394B9B8833B9384B01229A803B
:103CE0003E4801F071FDEDE7344B00229A803C48DC
:103CF00001F06AFDE6E7314B1B8833B92F4B0122F7
:103D00001A80384801F060FDDCE72C4B00221A8055
:103D1000354801F059FDD5E72D4BF42202FB06335F
:103D20001B8F13F0010F24D0294BF42202FB063322
:103D300093F9F030002B21DB06F0FE01244CF42334
:103D400003FB014090F8F02062F07F0280F8F02041
:103D500001FB0333234493F8F02062F07F0283F8E1
:103D6000F0204A1C214801F02FFD2046FDF714F9F0
:103D7000A8E731461E4801F027FDA6E706F0FE0140
:103D8000134C134602FB014090F8F02002F07F0232
:103D900080F8F02001FB0333234493F8F02002F075
:103DA0007F0283F8F0204A1C124801F00DFD2046E6
:103DB000FDF7F2F886E700BFC4210210F88A002060
:103DC000EC380210F8220210D8210210F42102105F
:103DD0002C410020102202104822021080220210E2
:103DE0009C220210B8220210DC220210842302104E
:103DF000042302104023021070B582B00546FCF780
:103E000069FDB0F1FF3F28D00446FDF795FC48B3AB
:103E100004F1805606F580162946184801F0D4FCB6
:103E2000174801F0D1FC174801F0CEFC164801F00C
:103E3000CBFC314611F8012B336A706A0190009473
:103E4000124801F0C1FC00212046FCF763FD78B167
:103E500029460F4801F0B8FC08E029460D4801F05A
:103E6000B3FC03E029460C4801F0AEFC02B070BD83
:103E700029460A4801F0A8FCF8E700BFF023021029
:103E80001024021008150210B4090210000A0210D2
:103E900044240210F0140210C823021064240210FB
:103EA00010B509281FD004460A281ED0A44B1B8831
:103EB00073B3013C072C15D8DFE814F02E00C400C2
:103EC000DC00EB00FA00070124013901E0B204F044
:103ED00083FA01345A2CF9DD002004F07DFAE02049
:103EE00004F07AFA10BD4124F4E701F045FA0A2003
:103EF00006F04EFB4FF050435B6813F0005F05D0B7
:103F0000904A1D21904801F05FFCEBE78F4AF8E7EB
:103F10008F4801F059FCCCE7894BB3F8A6306BB160
:103F200088498C4801F050FC854BB3F8A030032B36
:103F300000F28280DFE803F00474787C8349F0E7C4
:103F4000854801F041FC854B1B78002B78D08449D3
:103F5000844801F039FC844C2188844801F034FC09
:103F60002188C90B824801F02FFC2188C1F38031E0
:103F7000804801F029FC2188C1F340317E4801F0DE
:103F800023FC2188C1F300317C4801F01DFC21880D
:103F9000C1F3C0217A4801F017FC2188C1F38021C8
:103FA000784801F011FC2188C1F34021764801F0E6
:103FB0000BFC2188C1F30021744801F005FC218825
:103FC000C1F3C011724801F0FFFB2188C1F38011D9
:103FD000704801F0F9FB2188C1F340116E4801F0EF
:103FE000F3FB2188C1F300116C4801F0EDFB21883F
:103FF000C1F3C0016A4801F0E7FB2188C1F38001E9
:10400000684801F0E1FB2188C1F34001664801F0F6
:10401000DBFB218801F00101644801F0D5FB61E779
:10402000634801F0D1FB8EE7624801F0CDFB8AE7DF
:10403000614801F0C9FB86E7604801F0C5FB82E7F3
:104040005F4985E73E4BB3F8A63063B13C4B002295
:10405000A3F8A6203A4BB3F8A6304BB139493D48F6
:1040600001F0B2FB3EE7364B0122A3F8A620F1E7B0
:104070003649F4E73C4A13886FEA43436FEA5343F7
:1040800013802F4B0222A3F8A0204E4801F09CFB86
:1040900028E7354A1388C3F30D0343F480431380A4
:1040A000274B0122A3F8A020474801F08DFB19E718
:1040B0002D4A1388C3F30D031380214B0022A3F86C
:1040C000A020424801F080FB0CE7274A138883F4C4
:1040D00000639BB213801A4AB2F8A4205AB1184A5E
:1040E0000021A2F8A41013F4006F09D01C4938482D
:1040F00001F06AFBF6E6124A0121A2F8A410F2E7E9
:104100002F49F4E70E4B1B881BB9324801F05CFBCA
:10411000E8E6154A138843F4005313802E4B02221D
:104120001A6001F04FF92D4801F04EFBDAE6044B1E
:104130001B88002B54D1274801F046FBD2E600BF74
:10414000F88A002088240210902402108C24021087
:10415000AC240210082502101C250210BA90002081
:10416000E837021098250210B8310020AC25021063
:10417000C4250210F82502104826021078260210E5
:10418000B0260210DC260210082702102C2702108D
:104190005827021088270210CC270210FC27021093
:1041A000302802106028021090280210C428021043
:1041B000342502104C250210642502107C250210C3
:1041C000F8F90110F8280210142902103029021001
:1041D0004C2902107029021008900020A02902101A
:1041E000064A138843F480531380054B02221A6059
:1041F00001F0E8F8034801F0E7FA73E6B83100206F
:1042000008900020BC29021010B584B00446FDF7C8
:1042100093FA80B1601E0B280DD8DFE800F0060E7F
:1042200032560C0C0C0C0C6E757C414BB3F87810AC
:10423000404801F0C9FA04B010BD3F4801F0C4FA8B
:104240003B4BB3F878103B4801F0BEFA002400E085
:104250000134B4F5007FEEDA04F5705208230093C0
:104260006B44D200052135481BF026FA029A039BC5
:1042700052EA0301ECD004F50071314801F0A4FAD0
:10428000E6E729A3D3E90023CDE90223002412E0C5
:10429000029B13F10133039A42F10132029303921C
:1042A00004F57052082300936B44D2000521234883
:1042B0001BF02AFA0134B4F5007FE9DB214801F054
:1042C00083FA214801F080FAB5E700220023CDE906
:1042D000022300240AE004F57052082300936B4483
:1042E000D200052115481BF00FFA0134B4F5007F08
:1042F000F1DB164801F068FA9DE70D480023A0F8AD
:104300007830FBF7FBFF96E709480123A0F87830E7
:10431000FBF7F4FF8FE706480223A0F87830FBF79D
:10432000EDFF88E7AFF3008041404140414041400C
:10433000F88A0020D8290210F42902100000084051
:10434000282A02103C2A0210702A02108C2A02101D
:1043500038B50C4601380A2855D8DFE810F00B00B4
:1043600063008A00AC00BA00CA00DA00EA00FA0072
:104370000A0118018C4DB5F854102C2404FB01F2ED
:10438000920A8A4801F020FAB5F8561004FB01F2AF
:10439000920A874801F018FAAB8F002B34D0854978
:1043A000854801F011FA804BB3F85030002B2DD026
:1043B0008049824801F008FA7B4BB3F846303BB3A2
:1043C0007C497F4801F000FA774BB3F852300BB3C9
:1043D00078497C4801F0F8F9734BB3F86630DBB1EB
:1043E0007449794801F0F0F96F4BB3F86830ABB11C
:1043F0007049764801F0E8F96B4BDB8F83B16D496A
:10440000734801F0E1F938BD7249C9E77149D0E755
:104410007049D6E76F49DCE76E49E2E76D49E8E7A6
:104420006C49EDE7FDF788F9D8B15F4BB3F854104C
:104430002C2201FB02F2684801F0C6F9002CE2DDF3
:10444000A4F57A7242F228339A420ED8564DA5F856
:1044500054402146614801F0B7F92846FBF74EFF6A
:10446000D1E75F4801F0B0F9CDE75E4801F0ACF963
:10447000C9E7FDF761F9B0B14B4BB3F856102C22E8
:1044800001FB02F2584801F09FF9002CBBDDA4F1BA
:104490002003E02B0BD8444BA3F856402146534849
:1044A00001F092F9AFE74E4801F08EF9ABE75048C2
:1044B00001F08AF9A7E73C4A938FB3FA83F35B09CB
:1044C000938723B13B494B4801F07EF99BE7414973
:1044D000F9E7354AB2F85030B3FA83F35B09A2F832
:1044E000503023B13349444801F06EF98BE7394924
:1044F000F9E72D4AB2F84630B3FA83F35B09A2F824
:10450000463023B12B493D4801F05EF97BE7314944
:10451000F9E7254AB2F85230B3FA83F35B09A2F8FF
:10452000523023B12349364801F04EF96BE729494F
:10453000F9E71D4AB2F86630B3FA83F35B09A2F8D3
:10454000663023B11B492F4801F03EF95BE7214952
:10455000F9E7154AB2F86830B3FA83F35B09A2F8B9
:10456000683023B11349284801F02EF94BE7194967
:10457000F9E70D4AD38FB3FA83F35B09D38723B1ED
:104580000C49224801F020F93DE71249F9E7FDF70F
:10459000D3F800283FF437AF0348FBF7AFFE1C48C1
:1045A00001F012F92FE700BFF88A0020B82A0210A4
:1045B000EC2A0210F8350210202B0210402B0210BA
:1045C000842B0210B02B0210D82B0210F82B0210F3
:1045D000182C0210F8220210742C0210D82C021091
:1045E000382C0210A02C02102C2D0210942D021039
:1045F0005C2D0210BC2D0210D82D0210182E0210B6
:10460000402E0210642E0210802E02109C2E0210EA
:10461000B82E02102DE9F041BAB004460D46002034
:104620001BF07AF806469F231F936022002120A8E2
:1046300015F04EFB06AF4FF06408424600213846A5
:1046400015F046FB424639461FA81BF011F89DF8AD
:104650001B30012101FA03F7FDF76EF8002832D074
:10466000631E042B2FD8DFE803F003364D5076008D
:1046700038A808F0A9FD9DF8E3309DF8E4209DF8E6
:10468000E5109DF8E6009DF8E74004940390029140
:10469000019200939DF8E2309DF8E1209DF8E01032
:1046A000384801F091F83146374801F08DF8102173
:1046B000364801F089F83A46002F07DB12153946D3
:1046C000334801F081F83AB0BDE8F08107F57F2268
:1046D00002F6FF72F2E72F4B9D420DD005F5805395
:1046E0002D4A13602C4B1A6829462C4801F06CF8AF
:1046F0002846FCF73BF8E6E7274B1D6805F5805296
:104700001A60EFE7FBF7EAFFDDE7254801F05CF808
:104710004FF47A7400214FF0FF300AF041FA022082
:1047200005F036FF002002F03AFF68B9013CF1D1F4
:104730001C4801F049F8FBF78FFF1B4801F044F8D3
:104740001A4801F041F8BEE7002002F02DFF18489A
:1047500001F03AF8B7E70F4B9D420DD005F58053B5
:10476000144A1360134B1A682946134801F02CF8B9
:10477000284600F087FFA6E70E4B1D6805F580521E
:104780001A60EFE7D82E02100C2F0210342F0210FF
:10479000682F021043424140EC8A0020A42F0210EF
:1047A000E02F02103C300210543002107030021022
:1047B00028300210F08A0020B430021030B585B0E5
:1047C00004460D46FCF7B8FFE8B1601E03281AD86E
:1047D000DFE800F0021B324B02A800F0A5FF9DF8B5
:1047E0000B3000939DF80A309DF809209DF80810C1
:1047F0002F4800F0E9FF9DF80A10C1F38201CA01B9
:104800002C4800F0E1FF05B030BD2B4B9D420DD090
:1048100005F58053294A1360284B1A682946284811
:1048200000F0D2FF284600F02DFFECE7234B1D6877
:1048300005F580521A60EFE7224800F0C5FF00201E
:1048400000F0FCFE0146204800F0BEFF002000F012
:10485000F5FE44F24103984203D01C48FCF77CFB70
:10486000D1E71B4800F0B0FFCDE71A4800F0ACFFDD
:104870004FF47A7400214FF0FF300AF091F90220D2
:1048800005F086FE002002F08AFE50B9013CF1D10D
:10489000114800F099FF00F057FF104800F094FF16
:1048A000B1E7002002F080FE0D4800F08DFFAAE77E
:1048B000F03002101831021043424140F08A0020CB
:1048C000B43002103C310210603102102C41002043
:1048D00078310210A4310210F831021010320210A7
:1048E000E031021010B504460146084808F0DEFA2F
:1048F000A4F13003092B02D81C46054B1C60044B65
:104900001968044808F0D2FA10BD00BF2032021026
:10491000603100204C32021070B582B004465E480F
:1049200008F0C4FA5D4B09221A70032C00F2AF8024
:10493000DFE804F002182E740026ADF806600DF1D1
:104940000605574C2946204605F0E6FFADF80660FF
:104950002946204605F0E0FF00F09EFD00F032FD04
:1049600002B070BDE023ADF806300DF106054C4CE9
:104970002946204605F0D0FF8623ADF806302946AB
:10498000204605F0C9FF00F087FD00F01BFDE7E7BA
:10499000B623ADF806300DF10605414C29462046F8
:1049A00005F0BAFF1023ADF806302946204605F081
:1049B000B3FF0123ADF806302946204605F0ACFFD1
:1049C000C623ADF806302946204605F0A5FF00268F
:1049D000ADF806602946204605F09EFFF223ADF8AB
:1049E00006302946204605F097FFADF806602946B7
:1049F000204605F091FF5A23ADF80630294620469F
:104A000005F08AFF9123ADF806302946204605F0CF
:104A100083FF00F041FD00F0D5FCA1E73E23ADF897
:104A200006300DF106051E4C2946204605F074FFA0
:104A30001123ADF806302946204605F06DFF1023FE
:104A4000ADF806302946204605F066FF7523ADF81F
:104A500006302946204605F05FFFC023ADF806303A
:104A60002946204605F058FF0123ADF806302946B7
:104A7000204605F051FF2F23ADF806302946204689
:104A800005F04AFF00F008FD00F09CFC68E700F02C
:104A900003FD00F097FC63E770320210CB9000201A
:104AA000D451002038B5002008F09AF910F1020F17
:104AB0004ED004462D4B1B78002B4AD01B2807D024
:104AC000043B052B44D8DFE803F01F432C2E432181
:104AD000264B00221A70264808F0B9F938E0013553
:104AE000012D35DC05EB4503224A12F82330A342A1
:104AF000F5D105EB45021F4B03EB82035B6898473A
:104B00001A4B00221A70EAE70025E9E7A0F130030A
:104B1000082B1DD81846FFF7FFFE144B00221A7011
:104B200016E046280AD0A4F13003092B10D82046FD
:104B3000FFF7D8FE0D4B00221A7009E00B4B002244
:104B40001A70F0E703EB430301EB83035B689847BC
:104B500038BD00230B2BFBDC03EB4302064911F8A5
:104B60002220A242EED00133F4E700BFCB90002018
:104B700078320210B8300020D0300020034602689E
:104B8000EFF3108172B6D2E8CFCF0120BCF1000F55
:104B9000F9D1C2E84C0FBCF1000FF4D1BFF35F8F25
:104BA00018895A89801A02D5DA8901321044002204
:104BB0001B68C3E88F2F81F31088704708B53C4805
:104BC00008F045F93B4B3C4A196812683B4808F02D
:104BD0006DF93B4B3B4A196812683B4808F066F98F
:104BE0003A4B3B4A196812683A4808F05FF93A4B69
:104BF0003A4A196812683A4808F058F90A2008F049
:104C000017F9384B384A19681268384808F04EF9D5
:104C1000374B384A19681268374808F047F9374B5C
:104C2000374A19681268374808F040F9364B374A56
:104C300019681268364808F039F9364808F007F95B
:104C4000002002F046FC28B33349344808F02EF91E
:104C5000042002F03EFC48B32F49314808F026F901
:104C6000022002F036FCF8B12B492E4808F01EF95C
:104C7000012002F02EFCA8B127492B4808F016F9B4
:104C8000032002F026FC38B1BDE80840224927483D
:104C900008F00CB92649D8E725492448BDE8084062
:104CA00008F004B92249E8E72149DEE72049D4E7C2
:104CB000E03B0210A4310020A8310020143C021077
:104CC0009C310020A03100203C3C02106C310020BF
:104CD00070310020643C0210943100209831002093
:104CE0008C3C02108C31002090310020B43C02102A
:104CF0008431002088310020DC3C02107431002017
:104D000078310020043D02107C31002080310020E9
:104D10002C3D0210788B021004020210543D021048
:104D2000703D02108C3D0210A83D0210C43D0210DF
:104D30000802021008B51E4800F046FD1D4B1E4A31
:104D4000196812681D4800F03FFD1D4B1D4A196887
:104D500012681D4800F038FD1C4B1D4A1968126886
:104D60001C4800F031FD1C4B1C4A196812681C4895
:104D700000F02AFD1B4B1C4A196812681B4800F002
:104D800023FD1B4B1B4A196812681B4800F01CFDD1
:104D90001A4B1B4A196812681A4800F015FD1A4B85
:104DA0001A4A196812681A48BDE8084000F00CBD9C
:104DB000E03D0210A4310020A8310020143E021072
:104DC0009C310020A0310020383E02106C310020C0
:104DD000703100205C3E0210943100209831002098
:104DE000803E02108C31002090310020A43E021041
:104DF0008431002088310020C83E02107431002028
:104E000078310020EC3E02107C31002080310020FF
:104E1000103F02102DE9F04FCD4E89B001213068CE
:104E200008F0B2FA0346CB4FCB4930683B6008F03C
:104E3000C7FADFF884830121C8F80000306808F061
:104E4000A3FADFF878A3C549CAF80000306808F073
:104E5000B7FADFF86CB30121CBF80000306808F036
:104E600093FABF4BBF491860306808F0A9FABE4DED
:104E7000BE4A01211060286808F086FABC49BD4C82
:104E80000860BD49286808F09BFA01212060286865
:104E900008F07AFAB94BBA491860286808F090FA15
:104EA000B84A01211060286808F06EFAB64CB7497C
:104EB0002060286808F084FAB54B01211860286842
:104EC00008F062FAB34AB4491060286808F078FA2A
:104ED0004FF480330124D8F80090B04A049309F1CC
:104EE000140310601B0309EB040243EAC2133F687A
:104EF00023F0C0430094D6F800800593A84AA94B3C
:104F00003946CDE90632404602231A2208F08CFACF
:104F100008F12F4101F56001090D0631C9B21A20CF
:104F2000039104F0C1FA03991B2004F0BDFA0DF1BE
:104F3000100C4A4663463946404608F0C4FA4FF41E
:104F400000204FF45021D8F800C004FA07F747EAD0
:104F50000C07DBF80020DAF800B0C8F80070CDE9E3
:104F600006104FF42021131D04911B03111943EA6D
:104F7000C113D6F8009023F0F8530DF1100C43F054
:104F8000D053594605934846634608F09CFAD9F831
:104F9000003004FA0BFB754F71484BEA0303D7F856
:104FA0000080D0F800A03768C9F800304FF4803393
:104FB0004FF44020002604934FEA083343EAC81315
:104FC0001C225146009406900593384623460796C6
:104FD00008F02AFA1C20744E069B07F12F4133403B
:104FE00043F0005343F420230693079B01F560012F
:104FF00023F07C7323F01F03090D43F48013063163
:105000000343C9B2079304F04FFA4FF420210DF186
:10501000100C6346424604913846514608F053FA54
:105020003B6804FA0AFA534851494AEA0303D0F8A4
:105030000080D1F800903B604FF480334FF4402063
:105040004FF000570094049308F10B014FEAC81386
:10505000D5F800A043EA013323F0C043CDE90607A9
:105060004946059312222346504608F0DDF92346AF
:10507000494600941322504608F0D6F94FF42021F7
:10508000069A049132400AF12F4101F5600142F481
:105090000022464F06924FEA115B079A444B0BF1F0
:1050A000060B3A405FFA8BFB1343594612200793D5
:1050B00004F0FAF95946132004F0F6F90DF1100C3A
:1050C000634642464946504608F0FDF9DAF800309A
:1050D00004FA09F92B49294849EA0303D0F800806A
:1050E000D1F800B0CAF800304FF480334FF44020BC
:1050F00004934FF000530094CDE906030BF1040133
:105100004FEACB13D5F8009043EA013323F0C043B4
:105110004146059314222346484608F085F9234664
:10512000414600941522484608F07EF94FF42021AC
:105130001420079A1F4B3A4013430793059B049191
:1051400023F0F85309F12F4101F560013AE000BF67
:10515000B0310020A4310020CCB40210B8B4021049
:1051600094310020ACB40210AC3100209831002002
:105170008C310020903100208CB40210843100204A
:1051800078B4021088310020743100204CB4021031
:10519000783100207C31002064B40210803100207E
:1051A000006807400000DD01FFFFF5C1E0830FFC50
:1051B000124C100014541000A83100209C31002023
:1051C000A031002043F0D05321FA00FA0593069B4A
:1051D0000AF1060A5FFA8AFA334043F42023514663
:1051E000069304F061F95146152004F05DF90DF1C4
:1051F000100C63465A4641464846584F08F063F93A
:10520000D9F80030D7F800A004FA08F8544F48EA5B
:1052100003033F68C9F800304FF0005307934FF481
:1052200080334FF4402004930AF1070300940AF1FD
:1052300002011B03D5F8008043EAC11323F0C043E9
:105240001D223946069005934046234608F0ECF8A7
:10525000444B08F12F410493069B01F56001334054
:1052600043F0705343F400330693079B090D063156
:1052700023F4F84343F4E8431D20C9B2079304F034
:1052800013F90DF1100C634639460AF1030240464A
:1052900008F019F9344B04FA07F7D3F800A0D8F84E
:1052A000003032491F434FF480334FF440202D68C3
:1052B000D1F80090C8F800700027049309F10401A8
:1052C0004FEAC91343EA013316225146069000946F
:1052D000059328462346079708F0A6F84FF42021A7
:1052E000079B049123F07C7323F01F0343F4801386
:1052F00043F016030793059B05F12F4123F0F85364
:1053000043F0D053059301F56001069B090D33402E
:10531000063143F420231620C9B2069304F0C4F8E2
:105320004A46514604AB284608F0CDF843F2FF73D5
:105330000F4A1049108804FA0AF40340286804430D
:10534000B1F8A000B1F8A41043EA803343EA812306
:105350002C60138009B0BDE8F08F00BF78310020C9
:10536000743100200000AC077C3100208031002027
:10537000B8310020F88A00204FF050400B4A0C4B07
:1053800040680C491B6812688000096848BF0333F5
:1053900002EB420203F01F0301EBC201C1F8D83057
:1053A0004FF050435868C0F340707047743100208C
:1053B00078310020AC310020014B1868704700BFE5
:1053C000A08A0020F8B54FF050435B689B0336D4A9
:1053D00001211B4E1B4C1C4D376820682A6800F1C8
:1053E000050C07EB47030CF01F0C02EBC303C3F8DB
:1053F000D8C007F1100399404FEA470C53680B429D
:10540000FCD1012108300CEB070300F01F0002EB78
:10541000C30340F48050043742F82710C3F8D80083
:105420000021142005F0A8F933682A68216803EBED
:10543000430301F01F0102EBC303C3F8D810F8BD0A
:105440008C31002090310020AC31002010B54FF09D
:105450000103172443EC40400520002105F08CF99E
:105460004FF0000343EC404010BD00BF012208494B
:10547000084B10B40C68196804F110039A404B688B
:105480001342FCD1043441F824005DF8044B70470A
:1054900074310020AC3100200120044A0449136813
:1054A000087043F007031360704700BFE08A0020D4
:1054B000CA9000200022034BC3E90022C3E9022264
:1054C000704700BF648300202DE9F0474FF050463D
:1054D0003D4B86B093E8070006AB03E9070073680D
:1054E0003A4C9A0325780BD4736813F4004F14BF19
:1054F000012302239D42237006D106B0BDE8F08748
:1055000000239D422370F8D005F02EF903460A4689
:105510002F4F304E3968D7F804C0581AC7E9003207
:1055200062EB0C013360726000232B4A1AF0C0F862
:105530004FF0000919462378284E0DEB8303D3F86A
:105540000CA00DEB8503DB680746C6F800901046FB
:1055500001934FF47A7200231AF0AAF8DFF88C80D6
:105560003B460090524640461D4907F035FA3368E5
:105570000344336003EB080015BB1A4B1A491A6841
:1055800007F02AFA336803441848336007F05FFCD9
:105590002378002BB1D0164B1A78002AADD0002109
:1055A0004FF05042197053689B03A6D44FF47464B3
:1055B000102205210F4B104800941AF0A5F89CE723
:1055C00008F803903368DFE700B50210B4900020BC
:1055D000C83E0020C03E002040420F00284100206D
:1055E000643F0210A08A00209C3F0210604000200F
:1055F000B29000202C4100200000084008B50D4961
:105600000D4808F00DF80121042003F04DFF0121A1
:10561000062003F049FF0121072003F045FF052084
:1056200003F0F5FF05234FF0010242EC403042EC5D
:10563000443008BD005A62020000084000B585B041
:1056400002460023ADF80E30022300930DF10E0345
:10565000052104481AF030F8BDF80E0005B05DF8D9
:1056600004FB00BF0000084000B583B00B46009269
:105670000246052102481AF047F803B05DF804FB22
:1056800000000840F0B5C7B0064600F5805722E09C
:1056900007AB59191E4A1088927858538A70023500
:1056A000002406E01B4907A8284407F095F90135B6
:1056B00001340F2C08DC03AB1A5DA2F12003DBB22E
:1056C0005E2BEFD92E22EDE7103607A9124800F025
:1056D0007BF8B7421AD93246104907A807F07CF97F
:1056E00005461023009303AB324605210C4819F000
:1056F000E3FF00240F2CCBDC03AB1A5D094907A89C
:10570000284407F069F903350134F3E747B0F0BDE9
:10571000C8120210ECF9011020130210AC3F021065
:10572000000008401C14021000B583B00346042298
:10573000009200220521034819F0AAFF03B05DF88A
:1057400004FB00BF0000084010B5C0B04FF48072E9
:105750000021684614F0BCFA002407E04FF4807280
:1057600069462046FFF780FF04F58074B4F5802F6A
:10577000F4D3024800F028F840B010BDB43F021046
:1057800008B50846012101F0C9FB10B1FCF766F924
:1057900008BD0248FCF762F9FAE700BFE86E0210A4
:1057A00008B5002001F0B7FE002001F08DFE0021B9
:1057B0004FF0FF3009F0F4F908BD0000014B186804
:1057C000704700BF948400200FB400B5FFB080ABD9
:1057D00053F8042B00934FF4FA7101A807F026F94F
:1057E00000280FDBFFF7EAFF01A901F009FB002108
:1057F0004FF0FF3009F0D4F900207FB05DF804EBE2
:1058000004B07047054B1B68DB681D22012104486A
:1058100014F0AAF84FF0FF30EFE700BFB83B0020CC
:10582000D03F021070B50C460121204601F076FBF6
:1058300005460221204601F071FB25B106460024F1
:105840004FF0FF300CE02548FFF7BEFFFBF7E8FC08
:1058500043E0234B53F82410284614F023FE013470
:1058600008B10C2CF5DDA0BB013C0C2C31D8DFE8D5
:1058700004F0070A0D101316191C1F22292C2500ED
:10588000FBF7CEFC29E0FBF767FE26E0FBF768FE9E
:1058900023E0FBF7A7FE20E0FBF7DEFE1DE0FBF7B1
:1058A000FFFE1AE0FBF762FF17E0FBF755FF14E07D
:1058B000FBF76AFF11E0FBF777FF0EE03046FCF7DD
:1058C0000BF80AE0FCF7A4F807E03046FBF788FF86
:1058D00003E029460348FFF777FF70BDF03F021051
:1058E000C04A03100840021038B50C46012120467A
:1058F00001F014FB05460221204601F00FFB1DB10B
:1059000000244FF0FF300CE01748FFF75DFFFCF775
:10591000A9F828E0154B53F82410284614F0C2FDCE
:10592000013408B1052CF5DDC8B9013C052C16D8A9
:10593000DFE804F00306090C0F12FCF793F812E0FD
:10594000FCF794F80FE0FCF795F80CE0FCF796F8FC
:1059500009E0FCF79BF806E0FCF794F803E0294621
:105960000348FFF731FF38BDF03F0210A84A03108B
:10597000244002102DE9F0410C460121204601F09F
:10598000CDFA07460221204601F0C8FA0646032157
:10599000204601F0C3FA2FB180463EB100254FF0FA
:1059A000FF3411E03948FFF70FFF1EE000221146D7
:1059B0003846FCF7DFFB18E0354B53F8251030462E
:1059C00014F070FD044601350CB1022DF4DD44B92C
:1059D000B5F1FF3F05D0B8F1000F13D04FF0FF3005
:1059E0000CE031462B48FFF7EFFEBDE8F081284B75
:1059F00053F82410404614F055FD013408B1022C30
:105A0000F5DD98B9012D16D0022D1CD0032D22D022
:105A1000012D28D0022D2ED0012D2FD0032D01D104
:105A2000012C2DD01C48FFF7CFFEDEE741461B4876
:105A3000FFF7CAFED9E7002CE6D100220121384643
:105A4000FCF798FBD1E7002CE0D100220221384678
:105A5000FCF790FBC9E7002CDAD10022032138467D
:105A6000FCF788FBC1E7022CD4D102220121384681
:105A7000FCF780FBB9E7012CCED1F6E7032CCDD1A2
:105A8000032201213846FCF775FBAEE740400210C7
:105A90009C4A031088400210C8400210A84002101F
:105AA00038B50C460121204601F038FA054602219E
:105AB000204601F033FA1DB12846FEF79DF938BDA6
:105AC0000148FFF781FEFAE7184102102DE9F04185
:105AD00082B00C460121204601F020FA0546022141
