:020000041000EA
:10000000002008205D0100101B010010858D0110EB
:100010001101001011010010110100101101001058
:100020001901001019010010190100101F01001022
:10003000098D011019010010210100102301001089
:100040001101001011010010110100101101001028
:100050001101001011010010110100101101001018
:100060001101001011010010110100101101001008
:1000700011010010110100101101001011010010F8
:1000800011010010110100101101001011010010E8
:1000900011010010110100101101001011010010D8
:1000A00011010010110100101101001011010010C8
:1000B00011010010110100101101001011010010B8
:1000C00011010010110100101101001011010010A8
:1000D0001101001011010010110100101101001098
:1000E0001101001011010010110100101101001088
:1000F0001101001011010010110100101101001078
:100100001101001011010010110100101101001067
:10011000EFF30580103800BE00BE00BE00BE00BE7A
:1001200000BE00BEF2EB8871B4D90310E4D903100D
:10013000A001001090A31AE7D3DEFFFF42012110B7
:10014000FF010000CC150400793512AB4FF0000020
:100150001E49086006C881F3088810474FF05040D8
:10016000006810B14FF00000F2E70DA40ECC00299A
:1001700002D000F012F8F9E71549164A002000E015
:1001800001C19142FCD11449884714498847144958
:10019000884700BEFDE701C901C29A42FBD3704700
:1001A000E4D9031088010020A83E002004170410A1
:1001B0000000082000000820041704100010082088
:1001C00000100820000000007047000008ED00E06B
:1001D000A83E002084B20020DDD600106503001088
:1001E000A1D60010F8B500BF064B0749C91A8910FF
:1001F00048BF0131491003D0044B0BB101481847E7
:10020000704700BFA83E0020A83E0020000000006C
:1002100008B5054B1BB105490548AFF30080BDE8A3
:100220000840FFF7E1BF00BF00000000ACB10020B4
:100230004003021070B584B005460C4601AB02AA1B
:1002400003A90BF0C3FA18B954B9204604B070BD25
:100250000646019A029903980BF086FA3446F4E7B1
:100260002946014809F0B4FF40030210002203E0D0
:10027000002120F8121001325D2AF9DD44F241021A
:10028000A0F8B8200022C2830284428402808280C7
:10029000A0F8A020A0F8A220A0F8A420A0F8A620F2
:1002A000A0F8A820A0F8782001228287C287A0F8B1
:1002B0004620A0F85020A0F8522041F28832A0F841
:1002C00054202022A0F856204FF05042526812F4D9
:1002D000003F01D00020704700B583B0FE2200929D
:1002E00003464FF4E832052103481FF0E1FF0120E7
:1002F00003B05DF804FB00BF000008404FF050431E
:100300005B6813F4003F01D00020704700B583B054
:10031000FE23009303464FF4E832052103481FF003
:10032000C7FF012003B05DF804FB00BF00000840D8
:100330004FF050435B6813F4003F01D0002070473A
:1003400000B583B0FE23009303464FF4E832052145
:1003500003481FF089FF012003B05DF804FB00BFD4
:100360000000084000B583B001214548FFF762FF57
:100370000DF000FB08F0B6FC01F01CFB08F0D2FC0D
:100380004FF47A700AF0D4FE192008F09FFC4FF465
:100390007A700AF0CDFE192008F098FC01231C4663
:1003A0008DF8043000208DF8050001A90EF0DAFD6B
:1003B00007F026FF1C2344EC403005F0EFFE09F067
:1003C00021FD09F097FD09F087F908F0CDFE01F055
:1003D000F1FA2C4C2046FFF7ABFFB4F8B82044F2FA
:1003E00041039A4244D107F061FF08F06FFD08F025
:1003F00023FD24480123C38303848380FFF77EFF0A
:1004000006F070FE01F020FB19234FF0000242ECD1
:10041000403005F01FFE09F00FFC0EF01DF91A48E0
:100420000EF0B6F905F0C6FA05F098F90EF0DCF812
:10043000164B02221A60A3F500531B6883F4804315
:1004400003F47043124A136001F0B4FA05F00CFE95
:1004500000214FF0FF300FF073F906F023FE05F096
:10046000D7F807F091FF08F03BFD08F0F3FFEDE748
:100470002046FFF7FBFE2046FFF740FFB3E700BF33
:1004800048E8010088AC0020F905002000200A405F
:1004900000100A4070B504460D4616460023DB8A5C
:1004A000002242E800F212F4800F0BD1102144F236
:1004B0004F10984703460D4AD2F8142842B96FF0FE
:1004C000120070BD042144F24F1098470346F2E732
:1004D000BFF35F8F3246294620469847BFF35F8FB0
:1004E000024B0022C3F81428EBE700BF00000E40C7
:1004F00010B588B004464FF4806220216846FFF7AB
:10050000C9FF41B251B900231F2B13DC03F12002B4
:100510006A4412F8202C2AB90133F5E7214805F086
:1005200023FFF0E74FF482611F4805F01DFF002014
:1005300008B010BD002305E003F12001694401F873
:10054000202C01331F2B09DCE25C002AF4D10021AE
:1005500003F120026A4402F8201CF2E74FF4413212
:1005600020216846FFF796FF41B289B921460F481E
:1005700005F0FAFE4FF4013220216846FFF78AFFAA
:1005800041B251B969460A4805F0EEFE0120CFE7B5
:10059000084805F0E9FE0020CAE7074805F0E4FE38
:1005A0000020C5E774030210B403021028040210EF
:1005B00078040210F00302105004021010B5A0B02D
:1005C00004464FF4806240210DEB0100FFF762FF0B
:1005D00041B209B9002319E0144805F0C5FE002016
:1005E00022E05A0020A901EB430111F8400C03F16D
:1005F0008001694401F8800C81326A4412F8400C91
:1006000003F181026A4402F8800C02331E2BE8DDFC
:10061000002306E003F180026A4412F8802CE254C1
:1006200001331F2BF6DD012020B010BD9004021015
:1006300010B54FF4FA740BE002200AF079FD013C8A
:10064000002007F011FD00214FF0FF300FF078F887
:10065000002CF1DC10BD000070B5FFF7E9FF0024AD
:100660004FF4801516E02A4621460C4805F07CFE22
:10067000FFF7DEFFEFF3108372B6094E33604FF4DD
:10068000801128461FF008FE336883F3108805F5B3
:10069000801501340E2CE6DD70BD00BFC8040210C9
:1006A0007C73002003460144B1F5700F0ED80A4850
:1006B000006810F803C018461344994202D9BCF1EF
:1006C000FF0FF4D0BCF1FF0F02D07047002070473D
:1006D0004FF0FF30F9E700BFA430002030B5C1B0C3
:1006E000012219490020FFF7DDFFB0F1FF3F25D1BE
:1006F000164805F039FE4FF48072FF2168461AF063
:10070000B7F841258DF800501E2211490DF1010066
:100710001AF0AAF900238DF81F30022308934FF432
:100720008072099240238DF828308DF8295069464F
:100730004FF480101FF064FD41B030BD0146054804
:1007400005F012FEF8E700BF00FFEF000005021001
:100750002805021040050210034B1B78412B01D0E5
:10076000002070470120704700001010F0B5C1B0A4
:10077000054600F58057B7F5700F39D94FF470076B
:1007800036E0204B1B685A5D1F4901A820440CF03D
:10079000F3FE0334013501360F2EF2DD103D01ABBF
:1007A00019191A4A1088927818538A700234002650
:1007B00007E0174901A820440CF0DEFE01340135A2
:1007C00001360F2E09DC0F4B1B685A5DA2F1200386
:1007D000DBB25E2BEDD92E22EBE700214FF0FF308C
:1007E0000EF0AEFF01A90B4805F0BEFDBD4207D2D9
:1007F0002A46094901A80CF0BFFE00260A24CBE7CF
:1008000041B0F0BDA4300020102B0210C42902100A
:100810008C050210142A0210840502102DE9F843F9
:10082000044601F128074FF00008C146B4F5700FE7
:1008300019D204F1805505F580152E7800214FF06E
:10084000FF300EF07DFF7F2E10D0FF2E02D06EB154
:100850006C6AEBE7C4F57003BB421CD943451DD35A
:10086000B9F1000F1CD04846BDE8F8836B6A1A1B2B
:10087000974206D8B8F1000F05D0904507D81C461E
:10088000D4E71C46D2E79046A1461C46CEE79046E8
:10089000A1461C46CAE74FF0FF39E4E7A146E2E76C
:1008A000A146E0E700E0586AB0F5700F0BD200F106
:1008B000805303F580131A78FF2A04D0412AF2D915
:1008C0004FF0FF307047B0F5700F00D870474FF011
:1008D000FF307047F8B50746002500E0656AB5F5BA
:1008E000700F0FD205F1805404F580142678FF2E86
:1008F0000CD03946601C1AF009F80028EED1002E01
:10090000ECD001E04FF0FF352846F8BD4FF0FF3541
:10091000FAE700002DE9F047C0B004460D46154F38
:10092000396820F0FF094FF4807A524649446846FE
:100930001AF004FDE3B20DF80350FFF779FEEFF370
:10094000108372B6DFF83080C8F80030524669462E
:1009500009F580101FF054FCD8F8003083F310889C
:100960003B68185DA84214BF0020012040B0BDE8DC
:10097000F08700BFA43000207C7300202DE9F04FE9
:10098000ADF5005D83B020F0FF0404F5801421F084
:10099000FF0505F5801824F47F6626F00F0628F47D
:1009A0007F6727F00F0707F5805704F47064A7EB03
:1009B000080B06F18053019305F1805505F580156C
:1009C0000DF5805A0AF1080A4FF48052FF21504673
:1009D00019F04EFF0DF108094FF48052FF214846EF
:1009E00019F046FF2246019950461AF0A7FC5A46D4
:1009F000294648461AF0A2FCFFF71AFEEFF31083CF
:100A000072B60C4D2B60B91B30461FF045FC2246D8
:100A1000514630461FF0F4FB5A46494640461FF007
:100A2000EFFB2B6883F310880DF5005D03B0BDE884
:100A3000F08F00BF7C73002038B520F47F6424F071
:100A40000F04FFF7F5FDEFF3108372B6054D2B6031
:100A50004FF4805120461FF01FFC2B6883F3108851
:100A600038BD00BF7C730020F8B50D46164620F057
:100A7000FF04FFF7DDFDEFF3108372B6054F3B6017
:100A80003246294620461FF0BBFB3B6883F31088A3
:100A9000F8BD00BF7C73002003460144B1F1807FA4
:100AA0000ED80A48006810F803C01846134499424B
:100AB00002D9BCF1FF0FF4D0BCF1FF0F02D0704798
:100AC000002070474FF0FF30F9E700BFA030002052
:100AD0000022134600E0013240F6FE718A420BDC30
:100AE0000749096831F812100B44B3F5806FF2DB47
:100AF000C3F309030133EEE75B42C3F30900704718
:100B0000E032002008B505F02DFA08BD08B5074A07
:100B10001368B3FA83F35B09136023B104490548F2
:100B20000CF094FF08BD0449F9E700BFEC32002047
:100B30001C540210940502109005021008B5074AD3
:100B40001368B3FA83F35B09136023B104490548C2
:100B50000CF07CFF08BD0449F9E700BFE832002033
:100B60001C540210A40502109005021008B5074A93
:100B70001368B3FA83F35B09136023B10449054892
:100B80000CF064FF08BD0449F9E700BFE43200201F
:100B90001C540210BC0502109005021008B5094A49
:100BA000136803F59C5308331360074A934202DD30
:100BB000044B00221A60034B196804480CF046FFEE
:100BC00008BD00BF1CB20020A0860100D0050210A5
:100BD00008B503480CF03AFF024B04221A7008BD16
:100BE000F00502107FB2002008B5064A137883F0A2
:100BF0000103137023B1044904480CF027FF08BD1A
:100C00000349F9E76AB200201C540210F8050210EB
:100C10009005021008B5084A138883F400739BB24C
:100C2000138013F4007F04D0044905480CF00EFF34
:100C300008BD0449F9E700BF403300201C540210EE
:100C4000180602109005021008B5084A138883F4AC
:100C500080739BB2138013F4807F04D0044905484D
:100C60000CF0F4FE08BD0449F9E700BF4033002052
:100C70001C540210380602109005021008B5084AEC
:100C8000138883F480639BB2138013F4806F04D0C5
:100C9000044905480CF0DAFE08BD0449F9E700BF35
:100CA000403300201C540210600602109005021010
:100CB00008B5084A138883F400639BB2138013F4C9
:100CC000006F04D0044905480CF0C0FE08BD04497B
:100CD000F9E700BF403300201C54021084060210C4
:100CE0009005021008B503480CF0B0FE024B072235
:100CF0001A7008BDA80602107FB2002008B505488A
:100D00000CF0A4FE04480CF0A1FE044B06221A705D
:100D100008BD00BFB0060210DC0602107FB2002042
:100D200008B54FF050435B6813F0807F04D003494F
:100D300003480CF08BFE08BD0249F9E71C54021071
:100D4000080702109005021008B506480CF07EFE58
:100D50004FF47A700AF0ECF9012108460AF034FEEB
:100D600008BD00BF3407021008B506480CF06EFE3F
:100D70004FF47A700AF0DCF900214FF000700AF0AD
:100D80006CFE00BF5407021008B508F0FBFD08BD5B
:100D900008B5044A1388C3F30D03138002480CF00E
:100DA00026FE08BD403300208407021008B5054A1E
:100DB00013886FEA43436FEA5343138002480CF0F1
:100DC00016FE08BD40330020A007021008B5054AF2
:100DD0001388C3F30D0343F48043138002480CF0DF
:100DE00006FE08BD40330020C007021008B5074AC0
:100DF000138843F480531380054B02221A6005F0D8
:100E0000B1F804480CF0F3FD08BD00BF40330020EA
:100E100098B10020E007021008B5074A138843F490
:100E200000531380054B02221A6005F09BF804481A
:100E30000CF0DDFD08BD00BF4033002098B100205C
:100E4000FC07021008B504480CF0D1FD0349044822
:100E50000CF0FCFD08BD00BF1C080210D10A0010F8
:100E60003408021008B50A480CF0C1FD094B0122F4
:100E70001A7009480CF0EAFD084B1968002903DBD9
:100E800007480CF0E3FD08BD06480CF0DFFDFAE76B
:100E9000540802107BB2002080080210DC320020CF
:100EA000CC080210A408021008B50A480CF09FFDF7
:100EB000094B02221A7009480CF0C8FD084B19684A
:100EC000002903DB07480CF0C1FD08BD06480CF003
:100ED000BDFDFAE7E80802107BB2002014090210F9
:100EE000DC320020CC080210A408021008B5144817
:100EF0000CF07DFD13480CF07AFD134B1B7873B199
:100F0000124A116800290ADB012B12D0022B0CD1E6
:100F10000F4B01221A700F480CF098FD05E00C4BA6
:100F200000221A700C480CF091FD0C480CF05FFD8B
:100F300008BD074B01221A7009480CF087FDF4E741
:100F400038090210640902107BB20020DC32002054
:100F500077B20020480A02109C090210980A021079
:100F6000F409021010B50B480CF041FD0A4C23782F
:100F700083F001032370094B196809480CF066FDE2
:100F8000237823B1074908480CF060FD10BD0749DC
:100F9000F9E700BFF40A021072B20020DC32002030
:100FA000140B02101C540210380B02109005021092
:100FB00010B50B480CF01BFD0A4C237883F001039D
:100FC0002370094B196809480CF040FD237823B1C0
:100FD000074908480CF03AFD10BD0749F9E700BF82
:100FE000500B021073B20020DC320020140B0210F0
:100FF00020550210700B0210EC39021008B502489F
:101000000CF0F5FC08BD00BF800B021008B50348CA
:101010000CF0EDFC04F0EAFF08BD00BF900B0210DD
:1010200010B539480CF0E3FC384B1B78002B68D026
:10103000374938480CF00AFD374C218837480CF006
:1010400005FD2188C90B36480CF000FD2188C1F34D
:10105000803134480CF0FAFC2188C1F34031324829
:101060000CF0F4FC2188C1F3003130480CF0EEFCA8
:101070002188C1F3C0212E480CF0E8FC2188C1F37F
:1010800080212C480CF0E2FC2188C1F340212A4841
:101090000CF0DCFC2188C1F3002128480CF0D6FCC0
:1010A0002188C1F3C01126480CF0D0FC2188C1F37F
:1010B000801124480CF0CAFC2188C1F34011224859
:1010C0000CF0C4FC2188C1F3001120480CF0BEFCD8
:1010D0002188C1F3C0011E480CF0B8FC2188C1F37F
:1010E00080011C480CF0B2FC2188C1F340011A4871
:1010F0000CF0ACFC218801F0010118480CF0A6FCB2
:1011000010BD174995E700BF501F02106AB20020BA
:101110001C540210C40B021040330020D80B0210E4
:10112000EC0B02101C0C0210680C0210940C021044
:10113000C80C0210F40C02101C0D0210400D02101D
:101140006C0D02109C0D0210E00D0210100E02102A
:10115000400E0210700E02109C0E0210D00E0210F3
:101160009005021010B50E480CF041FC0D480CF033
:101170006DFC0D480CF06AFC00240AE00B4904EBFE
:1011800044029300CA189268C95C09480CF05EFCDE
:1011900001340E2CF2DD07480CF029FC10BD00BF15
:1011A000040F0210240F02104C0F0210A830002070
:1011B000780F0210840F021008B504F0CFFA08BDB2
:1011C00070B51C480CF013FC00260BE02A191A4BD2
:1011D0001B6833F8121019480CF038FC01340F2C3E
:1011E000F4DD0136072E06DC3501294614480CF0E3
:1011F0002DFC0024F3E70A200CF0EAFBF8260BE0B4
:101200002A190D4B1B6833F812100C480CF01EFC09
:1012100001340F2CF4DD0136FF2E06DC35012946A2
:1012200007480CF013FC0024F3E70A200CF0D0FB75
:1012300070BD00BFCC0F0210E0320020F00F021092
:10124000E00F021070B50F480CF0D1FB00260BE048
:101250002A190D4B1B6833F812100C480CF0F6FBE2
:1012600001340F2CF4DD0136FF2E06DC3501294652
:1012700007480CF0EBFB0024F3E70A200CF0A8FB76
:1012800070BD00BFF80F0210E0320020F00F021016
:10129000E00F021000B583B01E480CF0A8FB1E4BF7
:1012A0001B78BBB11D4A1168002913DB012B1AD032
:1012B000022B12D11A480CF0C9FB184B1A684FF4D4
:1012C00000530093174B1B685203052116481EF06C
:1012D000CBFF02E015480CF08AFB0A200CF078FBEB
:1012E00003B05DF804FB12480CF0B0FB00230CE0E7
:1012F0000A4A126803EB02320A4909680D4800687D
:1013000030F8122021F813200133B3F5805FEFDBB2
:10131000E3E700BF141002107BB20020DC32002093
:10132000A4100210E0320020000008403810021023
:10133000801002103833002070B5B2B00A200CF0D3
:1013400047FB002407E0144B53F8242021461348A0
:101350000CF07CFB0134042C1BDC204606F089FEDB
:101360000028F0D00C4E56F8242021460C480CF0F2
:101370006DFB56F8243022460A4968460CF0FCF80A
:1013800002466946204606F0E5FE204606F06CFE61
:10139000E0E732B070BD00BFFC6603101011021010
:1013A000C8100210EC10021010B50E480CF01FFB14
:1013B0000D480CF04BFB0D480CF048FB00240AE0F4
:1013C0000B4904EB44029300CA189268C95C0948AF
:1013D0000CF03CFB0134122CF2DD0A200CF0F8FA80
:1013E00010BD00BF34110210401102105411021040
:1013F000F8310020780F021010B50E480CF0F7FA03
:101400000D480CF023FB0D480CF020FB00240AE0F3
:101410000B4904EB44029300CA189268C95C09485E
:101420000CF014FB01340C2CF2DD0A200CF0D0FA85
:1014300010BD00BF6C1102108C1102104C0F021075
:101440005C310020780F021010B582B028480CF0F3
:10145000CEFA284B1B781BB1274B1B68002B02DAF6
:10146000264B1B78D3B126480CF0F0FA214B1B78A1
:10147000012B1AD0022B36D11F4C21684A03214878
:101480000CF0E4FA22684FF4005300931E4B1B68E3
:10149000520305211D481EF00BFF24E0174B0022CC
:1014A0001A701B480CF0A3FA1DE0134C21684A0384
:1014B00002F1805202F5002216480CF0C7FA4FF4F0
:1014C000FA6009F035FE206840304FF400514003C7
:1014D0001EF0E2FE206840304FF400520A4B1968BB
:1014E00040031EF08DFE0C480CF081FA02B010BDD6
:1014F000B81102107BB20020DC32002077B200204D
:10150000301202106C120210E0320020000008407D
:10151000DC11021044120210941202102DE9F04165
:1015200007464FF47462002119F0A2F9002623E067
:10153000F42406FB04F407EB04080025A8F838504F
:10154000C8F83050C8F83450C8F85C5088F83A50A1
:1015500088F8F05038343C44023420222946204692
:1015600019F086F91F220E4B53F82610204619F069
:101570007BFA88F8595001360F2ED9DD80233B8144
:10158000A7F8FC30A7F8F031A7F8E4323B87A7F8BA
:101590002C31A7F82032A7F81433BDE8F08100BF42
:1015A0001C770310F8B5044616461A46069B7700CA
:1015B00006EB4600F42501FB05F505EB00102118AC
:1015C0000A81235062194FF0010C82F8F0C0094AD9
:1015D0001A444A60083020441F2207491944023047
:1015E00019F042FA374405EB07152C44002384F820
:1015F0002930F8BD280010100100101038B5049CE7
:1016000002EB420E4FF0F40C0CFB01FC0CEB0E1E37
:1016100000EB0E052B81002340F80E30844401239B
:101620008CF8F0306C60062902D007291FD038BD35
:1016300063881B2B11D0192BF7D102EB4202F42344
:1016400001FB03F303EB0213083318441F22104B72
:101650009968023019F008FAE9E77346083318442C
:101660001F220B4B5968023019F0FEF9DFE702EB3D
:101670004202F42303FB01F101EB0211083108449B
:101680001F22034B1968023019F0EEF9CFE700BFB3
:1016900010770310032900D870472DE9F84304465A
:1016A000164602EB4203F42701FB07F707EB03138F
:1016B00000EB03094FF0000840F80380A9F8088008
:1016C00007F1380020441F22094B53F82110023043
:1016D00019F0CAF9274487F85980C9F82C80C9F84D
:1016E0000480012E01D0BDE8F88387F8F080FAE786
:1016F0001C770310F8B506460C461546B3B11946DB
:10170000570002EB4200F42303FB04F404EB001047
:10171000083030441F22023019F0A6F92F4404EBA0
:1017200007142644002386F82930F8BD02EB420551
:10173000F42303FB04F404EB05121044002383722A
:10174000F3E7F42303FB01031B8913F0800F20D17F
:10175000F42303FB01031B8F13F0800F1BD1F42331
:1017600003FB0103B3F8683013F0800F15D1F423A5
:1017700003FB0103B3F8983013F0800F0FD1F4236B
:1017800003FB0100B0F8C83013F0800F09D001202E
:1017900070470120704701207047012070470120E9
:1017A00070470020704708B502EB4202F42301FBAA
:1017B00003F303EB021303441B8913F0010F08D159
:1017C00013F0100F07D113F4807F06D1FFF7B9FF94
:1017D00000E0012008BD0120FCE70120FAE700003D
:1017E00030B585B0044644F24103ADF80E30FFF742
:1017F00095FE0A4D4FF47463009323461022052191
:1018000028461EF055FD022300930DF10E03002221
:10181000052128461EF04CFD05B030BD00000840F3
:101820004FF050435B6813F4003F00D0704700B5A1
:1018300083B04FF4746300930346102205210348DC
:101840001EF036FD03B05DF804FB00BF0000084049
:101850002DE9F0411F464B1E0E2B3FD80646531E66
:10186000032B3DD88DB22D03ADB2D4B205F6FE7177
:1018700089B222461EF004FD00F03F00DFF86480CC
:1018800018F800303B7005F6FD71224689B23046EB
:101890001EF0F6FC00F03F0018F800307B702D239E
:1018A000BB7005F6FC7189B2224630461EF0E8FC9A
:1018B00000F03F0018F80030FB7005F6FB7122467F
:1018C00089B230461EF0DCFC00F03F0018F8003012
:1018D0003B7100237B710120BDE8F0810020FBE714
:1018E0000020F9E75C7703100F2900D9704770B525
:1018F00082B005460E46F42201FB02F23832024461
:101900000232114804F030FD002418E004EB4403D7
:101910004FF0F40C0CFB06FC0CEB031C0CF1080262
:101920002A4405EB0C010B894968019155F80C100C
:10193000009102322146054804F016FD0134042CC2
:10194000E4DD02B070BD00BFE0120210EC12021024
:101950000148024BC01A70470000082084B20020E2
:1019600000B58BB0684617F075FFFFF7F1FF079BD6
:10197000C01A0BB05DF804FB10B500EBD07044103A
:1019800000214FF0FF300DF0DBFE022009F0D0FB0C
:10199000002006F0D4FB18B9013CF1D5002006E088
:1019A000002006F0D1FB024804F0DEFC012010BD4F
:1019B000281302102DE9F047012009F0A7FE824606
:1019C000022009F0A3FE8146032009F09FFE804615
:1019D000092009F09BFE07460A2009F097FE0646FB
:1019E0000B2009F093FE05460C2009F08FFE0446FB
:1019F00051460E480CF02AF849460D480CF026F8DE
:101A000041460C480CF022F839460B480CF01EF801
:101A100031460A480CF01AF8294609480CF016F825
:101A2000214608480CF012F8BDE8F0874813021070
:101A30005C1302107013021084130210981302102A
:101A4000AC130210C013021010B5114C20460BF05D
:101A5000FDFF10480BF0FAFFFFF77AFF01460E4832
:101A60000BF0F4FFFFF77CFF01460C480BF0EEFF94
:101A7000052009F045FE0A4BA3FB003189090948FE
:101A80000BF0E4FF20460BF0B2FFFFF793FF10BD11
:101A9000D4130210241402107414021090140210B3
:101AA000D34D6210AC1402102DE9F04F2DED068BD2
:101AB00095B0FFF77FFF012009F028FE8246022043
:101AC00009F024FE8146032009F020FE804609200B
:101AD00009F01CFE07460A2009F018FE06460B20F6
:101AE00009F014FE05460C2009F010FE0390914BFE
:101AF00004221A60904B1B6813F4807FFAD08E4B3F
:101B00005B689BB207EE903AF8EE677A9FED8B7AAE
:101B100067EE877A9FED8A7A77EEC77ADFED896A7A
:101B200087EEA67AB3EE0BAA3AEE47AA052009F093
:101B3000E7FD854BA3FB0030800C07EE900AB8EE62
:101B4000678AFFF705FF800A07EE900AF8EE679AAA
:101B5000FFF706FF800A07EE900AB8EE679A7B4B04
:101B6000B3F854B02C2303FB0BF39B0A07EE903A17
:101B7000F8EE678A12A80CF0EFF800240BE004F1ED
:101B800050036B4413F8082C71490DA800EB440076
:101B90000BF0F2FC0134072CF1D96E4804F0E4FBA1
:101BA0006D4804F0E1FB6D4804F0DEFB6C4804F086
:101BB000DBFB6C4804F0D8FB6B4804F0D5FB6B4BA7
:101BC0006B4A6C496C4804F0CFFB05AC2022002125
:101BD000204618F04DFE2046FEF7F0FC002800F0ED
:101BE0009F809DF81430002B40F09580634804F0EE
:101BF000BBFB634B1B78203BDBB25E2B40F2948037
:101C00005A4B5B4A5B495C4804F0AEFB5D4804F00C
:101C1000ABFB5D4C204604F0A7FB5C4804F0A4FB42
:101C200018EE100A1EF010FB02460B46584804F04E
:101C30009BFB5146574804F097FB4946564804F031
:101C400093FB4146554804F08FFB3946544804F055
:101C50008BFB3146534804F087FB2946524804F079
:101C600083FB0399514804F07FFBF2EE027A6AEE9F
:101C7000277AB1EE047A87EE878ADFED4D7A38EE67
:101C8000278A1AEE100A1EF0DFFA06460F4618EEF3
:101C9000100A1EF0D9FACDE9000132463B4645480C
:101CA00004F062FB0DA9444804F05EFB204604F0FA
:101CB0005BFB424804F058FB0022414B414804F0D2
:101CC00053FB19EE900A1EF0BFFA02460B463E483F
:101CD00004F04AFB19EE100A1EF0B6FA02460B4653
:101CE0003A4804F041FB18EE900A1EF0ADFA0246A5
:101CF0000B462C210191CDF800B0354804F034FB9F
:101D0000204604F031FB134804F02EFB15B0BDEC67
:101D1000068BBDE8F08F05A92E4804F025FB68E787
:101D20002D4804F021FB64E715492C4804F01CFB06
:101D30006FE700BF00200A4000000A403333533AE7
:101D40006ABC343F2D93E13A83DE1B4388AC00200C
:101D500004480210C8140210181502102C150210A5
:101D60005C150210A8150210E815021024160210C6
:101D7000301602103C160210481602106C160210A3
:101D800000F00F10BC16021020140210F4160210FE
:101D900008170210281702104417021060170210CB
:101DA0007C17021098170210B4170210D0170210F7
:101DB00000000042EC170210141802104C18021018
:101DC000004080405C1802107C1802109C18021021
:101DD000BC1802108C1602109C160210E416021099
:101DE00008B503F077FD08BD08B5002006F041F9FD
:101DF00020B31749174804F0B7FA012006F039F963
:101E0000F0B11349144804F0AFFA022006F031F99A
:101E1000C0B10F49114804F0A7FA032006F029F9D0
:101E200090B10B490E4804F09FFA042006F021F906
:101E300060B107490B4804F097FA08BD0A49D9E791
:101E40000949DFE70849E5E70749EBE70649F1E714
:101E50000019021008190210301902105819021046
:101E600080190210A81902100419021070B5B2B03E
:101E7000164804F079FA002407E0154B53F82420A3
:101E80002146144804F070FA0134042C1BDC20466F
:101E900006F0EFF80028F0D00D4E56F82420214629
:101EA0000D4804F061FA56F8243022460B49684682
:101EB0000BF062FB02466946204606F04BF92046CD
:101EC00006F0D2F8E0E732B070BD00BF84A7021080
:101ED000FC660310181A0210D0190210F019021033
:101EE00008B50E4804F040FA01214FF4FA6009F0F9
:101EF0006BFD00214FF0FF300DF022FC002006F0BA
:101F00001EF90028F5D0064B4FF080421A600020E1
:101F100006F01AF9034804F027FA08BD381A02102F
:101F200000B00D407C1A021010B50F4804F01CFAE6
:101F30004FF4FA7400214FF0FF300DF001FC022045
:101F400009F0F6F8002006F0FAF830B9013CF1D1BA
:101F500000214FF0007009F080FD002006F0F4F839
:101F6000024804F001FA10BD901A02107C1A021007
:101F700010B50446B8B90F4804F0F6F9192006F078
:101F8000A5FE16E021460C4805F04CF8192006F095
:101F90009DFEFA2009F0CCF8192006F097FEFA20F1
:101FA00009F0C6F8013C631E082BEBD9034804F086
:101FB000DBF910BDE41A0210F81A0210204B0210CF
:101FC00008B54FF050435B6813F4003F01D1012086
:101FD00008BD024804F0C8F90020F9E7FC1A021015
:101FE00008B5034804F0C0F904F000F808BD00BFCC
:101FF000401B021008B5FFF7E3FF00B908BD034816
:1020000004F0B2F903F0AEFFF8E700BF641B021062
:1020100008B5FFF7D5FF00B908BD034804F0A4F9DF
:102020000248FEF723F9F7E7881B021088AC00206E
:1020300010B5FFF7C5FF70B910BD084B53F8243039
:10204000074A32F814202146064804F08DF901347D
:102050005F2CF2DDF0E70024FAE700BF18D8031088
:1020600088AC0020B41B021070B5C0B00446FFF766
:10207000A7FFB0B3BCB301224FF480714FF47F20AF
:10208000FEF70AFDB0F1FF3F4CD1204619F0CCF924
:1020900006464FF48072FF21684618F0E9FB32468D
:1020A0002146684618F0E0FC00230DF806306A4629
:1020B0002146214804F058F94FF47F211F4804F0CD
:1020C00053F94FF4807269464FF47F20FEF7CCFC41
:1020D0001B4C21461B4804F047F921461A4804F0DE
:1020E00043F940B070BD164B1B78203BDBB25E2B32
:1020F00004D81349154804F037F9F2E71049144899
:1021000004F032F908E004F1805303F57F231978D5
:10211000104804F087FF01341F2CF4DD0E4804F052
:1021200023F9DEE74FF47F210C4804F01DF94FF44A
:102130007F20FEF781FCA8E7441C0210681C0210F7
:1021400000F00F10A41C0210C41C0210101C02107E
:10215000D41B0210081C0210204B0210201C02107D
:1021600030B589B00546EC463C4C0FCCACE80F00CE
:1021700094E80F00ACE807002CF8023B1B0C8CF82D
:10218000003000238DF81F307DB12C46284619F011
:102190004BF9042820D10022032A26DCA35C303B23
:1021A000DBB2092B1DD80132F6E72D4804F0DCF82C
:1021B0006846FEF703FA58B19DF800301BB929486C
:1021C00004F0D2F80BE06946274804F0CDF806E0A9
:1021D000264804F0C9F802E0254804F0C5F809B023
:1021E00030BD244804F0C0F8F9E72349684618F0E8
:1021F000EBFD054610B30422214618F035FC002300
:102200002B7169461D4804F0AFF81D4804F0ACF886
:1022100041F28830FFF7B0FBA0B96846FEF768F9D5
:10222000A0B16946174804F09FF86846FEF7C6F962
:1022300080B169460C4804F097F8D0E7124804F0E2
:1022400093F8CCE7114804F08FF8C8E7104804F081
:102250008BF8EAE70F4804F087F8C0E734D00210A3
:10226000E41C0210181D0210501D0210641D021003
:102270008C1D0210C01D0210E81D0210341E021039
:10228000541E0210B81E0210F01D0210901E021003
:10229000D81E0210041F021010B50D4804F064F897
:1022A000002408E00B4A0C4B53F8243021460B481D
:1022B00004F05AF801341D2C08DC4FF050435A68E2
:1022C0000123A3401A42EDD0054AECE710BD00BF40
:1022D0002C1F0210281F0210A0D703103C1F021051
:1022E000241F021008B507F0ABFA08BD08B507F0C7
:1022F00049FB08BD08B507F00DFA08BD08B507F0A1
:1023000073FA08BD08B507F0EBF908BD08B507F08A
:10231000A9FC08BD08B507F0ABFC08BD2DE9F047E6
:10232000ADF5805D82B0066901F1805303F580133D
:102330001B6AB34205D004200DF5805D02B0BDE8F4
:10234000F08707461E4D0D4400240194002200230F
:1023500012F0C4FAA1464FF4805819E016F0FEFDC1
:1023600001465246174803F0FFFF0020E4E701331F
:10237000019A93420AD202AAD25C1919695C8A4274
:10238000F5D08A431AD14FF00109F0E7B61A144488
:102390006EB1464500D2B04602A90B1F42463846F0
:1023A00012F036F882460028D8D10023E0E7B9F1D0
:1023B000000F01D10120BFE70220BDE70320BBE7EA
:1023C00028001010541F02102DE9F047ADF5955D5F
:1023D00086B006460F46012201460EA811F072FE95
:1023E00028B93146A6A818F00BFF002518E00446CE
:1023F00016F0B4FD024623463146BA4803F0B4FF56
:10240000002420460DF5955D06B0BDE8F087AEAC22
:102410002C4414F8200C17F0DBFC04F8200C0135D8
:10242000A6A819F001F8A842F1D82E21A6A818F004
:102430004DFB0446129D03462A463146AA4804F045
:10244000F1FD2F21304618F041FB00B1461CA74991
:10245000204618F0F7FD002800F0BE804FF000097C
:10246000A349204618F0EEFD08B94FF00309A14931
:10247000204618F0E7FD08B94FF004099E492046B0
:1024800018F0E0FD08B94FF005099C49204618F006
:10249000D9FD08B94FF006099949204618F0D2FD38
:1024A00008B94FF007099749204618F0CBFD08B945
:1024B0004FF008099449204618F0C4FD002800F0A8
:1024C0009680B9F1000F00F08A803046FEF702FADC
:1024D0008046B0F1FF3F40F08D80032F00F0D480A4
:1024E0000024022F03D1B8F1FF3F40F0D580002037
:1024F000FEF7D8F9B0F1FF3F00F01E812946002019
:10250000FEF78CF98046B0F1FF3F00F01D81C0F569
:10251000700305F580729342C0F01E8104AC8DF803
:10252000109031460DF1110018F06AFE0C9508F17B
:10253000805303F580135A6A1B78FF2B00F0148137
:102540000D92012205F128014046FEF7ABF8B0F1EB
:10255000FF3F40F01081AEAC04AECDF80080336A8E
:1025600032780DF11101694803F0FEFE4FF48052FC
:10257000FF21204618F07CF90FCE0FC40FCE0FC4F8
:1025800096E8030084E803000EAC002200232046F6
:1025900012F0A4F903AB40F6D872B8A9204611F0A6
:1025A00037FF0446002840F0F480FEF741F8AEA95A
:1025B000A1F52B76346804F2271424F0FF04EFF31E
:1025C000108772B6224608F580101DF019FE87F3B9
:1025D00010883668AE1BFBE04FF0010940E74C481D
:1025E00003F0C2FE0EA812F0CFF8012409E74FF065
:1025F00009096AE70146474803F0B6FEBB1E012BF6
:102600003AD841460EA8FFF789FE044604282AD886
:10261000DFE800F00B03291A13003F4803F0A4FE83
:102620000EA812F0B1F80224EBE63C4803F09CFE41
:102630000EA812F0A9F80324E3E6394803F094FE4B
:102640000EA812F0A1F8DCE6364803F08DFE4FF03C
:10265000050A022C0AD0032F7FF443AF0EA812F014
:1026600093F85446CDE64FF0000AF2E72E4803F007
:102670007BFE4FF0060AEEE72C4803F075FE0EA82D
:1026800012F082F80724BCE6294803F06DFE0EA87C
:1026900012F07AF83C46B4E608F1805303F5801353
:1026A0001E460DF1100E03F12007F44630687168E4
:1026B000B268F368ACE80F001036E646BE42F4D1CB
:1026C00030687168AEE80300032C7FF444AF0D9AC4
:1026D0004146184803F048FE0D994046FEF74EF972
:1026E00039E700BF8C1F021068210210D81F0210AA
:1026F000E01F0210E81F0210F01F0210F81F021066
:10270000002002100820021010200210D82302100E
:1027100018200210A0210210C0210210F021021086
:102720000C2202104822021088220210C422021039
:10273000F422021020230210324803F015FE0EA8E6
:1027400012F022F809245CE62F4803F00DFE0EA8D3
:1027500012F01AF80A2454E62C4803F005FE0EA8DD
:1027600012F012F80A244CE605F2271323F0FF03B7
:1027700043446362E5E60146254803F0F5FD0D9A02
:102780004146244803F0F0FD0D994046FEF7F6F867
:10279000E1E616F0E3FB014622461F4803F0E4FDA4
:1027A0000EA811F0F1FF00242BE6FF3424F0FF0403
:1027B000EFF3108772B6AEAD2246294608F58010B9
:1027C0001DF01EFD87F31088A5F52B752B68F61AF2
:1027D000002E12DDAEAD4FF48052FF21284618F0D6
:1027E00047F803AB4FF4805229460EA811F010FEB3
:1027F000A04403AD2C68002CD7D10EA811F0C4FF63
:102800000824FEE548230210642302108C230210E2
:10281000B823021020230210541F021070B5ADF52A
:102820003E7D05460E462C220021B3A818F020F864
:10283000FDF792FF68B3FF22002173A818F018F883
:102840002B7833B9FF2173A811F0B3FF044648BBBE
:1028500073AD2946514803F087FD582200215CA83A
:1028600018F006F84FF49072002114A818F000F840
:1028700005B34B4B2A4614A95CA812F034FA04465F
:1028800098B316F06BFB01462246464803F06CFDF8
:1028900081E0454803F068FD4FF47051434803F070
:1028A00063FD78E016F05AFB01462246404803F0EB
:1028B0005BFD70E03F4B404A40F2A7513F480AF0B1
:1028C000F3FE31466846FFF77FFDBEAB03EB8003A6
:1028D00053F82C2C013243F82C2C394803F044FDDA
:1028E00014A95CA812F0E8F9044614BB9DF86A30FC
:1028F000FBB100214FF0FF300CF022FF2946684663
:1029000018F07EFC684618F08FFD2E4B1B882DF8C2
:1029100000300DF16A01684618F01EF89DF85C3031
:1029200013F0100FCDD00DF16A01274803F01CFD04
:10293000D6E75CA812F077F9244803F015FDBB999F
:10294000234803F011FDBA99224803F00DFDB59913
:10295000214803F009FDB999204803F005FDB89915
:102960001F4803F001FDB7991E4803F0FDFCB6991E
:102970001D4803F0F9FCB4991C4803F0F5FCB39929
:102980001B4803F0F1FCBD991A4803F0EDFCBC991B
:10299000194803F0E9FC0DF53E7D70BD9C24021042
:1029A000201402102C250210102402104C240210B6
:1029B00078240210BC240210C4240210EC2402105B
:1029C000204B0210502502105425021070250210D1
:1029D00090250210C0250210F025021020260210BA
:1029E0005026021080260210B0260210E0260210A7
:1029F00010270210402702107027021070B50546FC
:102A00000C461646FFF7DCFA30B1012C08D02146FF
:102A10002846FFF7D9FC70BD044803F0A5FCFAE78F
:102A200031462846FFF7FAFEF5E700BFA02702105F
:102A300030B583B0044645886DBAADB2018849BA55
:102A400089B2374803F090FC2946364803F08CFCE5
:102A5000E188A38803F47F4202EB11225BBA9BB2A8
:102A6000FF2B2BD892B2B2F5805F2FD355BB2E48E7
:102A700003F07AFC04F58054B4F8FC0FC0F3052091
:102A80002A49B4F8FA2FC2F30522B4F8F83FC3F389
:102A90000523B4F8F65FC5F305254D5D0095CB5CC5
:102AA0008A5C095C224803F05FFCB4F8FE1F49BA57
:102AB00089B2204803F058FC03B030BD1E4803F033
:102AC00053FCD7E71D4803F04FFCD3E7002DCED0D1
:102AD00002F10043013B34F813305BBADBB2002053
:102AE0003F2B0FD80F280DDC03F03F030F49C95CC3
:102AF000134B19540130531E1B1A34F813305BBAB0
:102B0000DBB2EDE703F03F030849CB5C0C490B5403
:102B1000013000230B540B4803F026FCAAE700BF4A
:102B2000D8270210EC2702103C28021084650310FD
:102B30009C280210B8280210002802101C2802103D
:102B4000D461002064280210F0B5C1B007462948BE
:102B500003F00AFC284803F007FC284803F004FCB3
:102B6000002428E0103CA4B201AB5919244A108873
:102B7000927858538A700235002608E0214901A84E
:102B800028440AF0F9FC01350134A4B201360F2EB5
:102B90000ADC37F8142052BAD2B2A2F12003DBB219
:102BA0005E2BEBD92E22E9E701A9174803F0DCFBE5
:102BB000B4F5805F1BD200214FF0FF300CF0C0FD58
:102BC0002246124901A80AF0D7FC00260A250F2E3A
:102BD000C8DC37F8142052BA92B20D4901A8284433
:102BE0000AF0CAFC05350134A4B20136EFE741B062
:102BF000F0BD00BFD0280210E828021050290210B2
:102C0000C42902108C050210142A0210BC290210DB
:102C1000F00F021010B501EB810C01F00301490027
:102C2000C1F1080EFF2303FA01F2C1F106042341AA
:102C3000CCF38F0C10F80C4022400A4160444178DC
:102C40000B4003FA0EF39BB213FA82F080B210BD70
:102C50002DE9F04782B0804690F8B89201465C4872
:102C600003F082FB08F105015A4803F07DFB98F858
:102C7000B812594803F078FB002739E0574803F0B1
:102C800073FB04E0002E76D1554803F06DFB04F58C
:102C9000805494F8213494F8225405F03F052D0116
:102CA00005EB131505F03F054E4994F820249208D2
:102CB00094F81F0400F03F0094F81D6494F81E344B
:102CC0009B0003EB961303F03F03CB5C00930B5C7C
:102CD0008A5C495D444803F047FB94F8221494F859
:102CE00023349B0003EB9111404803F03DFB013777
:102CF0004F4569DA41F2444A0AFB078A0AF2D924AD
:102D0000224639463A4803F02FFB0AF2FD2A94F88E
:102D1000253094F8266006F00F06B60106EB930600
:102D200094F8241003F0030301EB0321314803F06E
:102D30001BFB3146304803F017FB94F8273094F81A
:102D40002850AD0005EB931594F8262003F03F03BF
:102D50001B0103EB1213DAB2120252FA85F5ADB27F
:102D6000FF2B8BD8B5F5805F8CD3002E8CD02348F9
:102D700003F0FAFA8BE7691E89B25046FFF74AFF63
:102D8000C0B200260EE000F03F00164B1A5C1C4B50
:102D90009A550136A91B89B2013989B25046FFF70D
:102DA00039FFC0B23F2801D80F2EECDD00F03F0004
:102DB0000C4B1B5C12498B55013600238B552A4660
:102DC000104803F0D1FA62E702B0BDE8F08700BF17
:102DD000C8290210DC290210F02902100028021074
:102DE0003C280210846503109C280210B8280210A9
:102DF000042A0210D8270210EC2702101C28021007
:102E0000D4610020182A02102DE9F043C1B0804699
:102E1000354918F017F9002861D1344803F0A4FAB5
:102E200041B0BDE8F08321463846FFF7F3FE024685
:102E30002F4901A828440AF09FFB05350134A4B2AC
:102E400001360F2EEFDD103CA4B201AB5919294A0F
:102E50001088927858538A700235002608E0264977
:102E600001A828440AF088FB01350134A4B20136D8
:102E70000F2E0BDC21463846FFF7CCFEC2B2A2F182
:102E80002003DBB25E2BEAD92E22E8E701A91B481A
:102E900003F06AFAB4F5805F0CD200214FF0FF30E6
:102EA0000CF04EFC2246164901A80AF065FB0026EC
:102EB0000A25C6E709F10109B9F1000FB0DC41F2BA
:102EC000444707FB098707F2FD270E4803F04CFA39
:102ED0000D4803F049FA0D4803F046FADDE74FF0DC
:102EE00000094C46E8E700BF502A0210582A021099
:102EF000F00F0210C42902108C050210142A0210CF
:102F0000BC290210D0280210E82802105029021013
:102F100010B588B00138052806D8DFE800F00307AF
:102F20005D9194BA06F08AFF08B010BD0C460846C1
:102F300018F07AFA0C2803D0584803F015FAF3E792
:102F400003238DF80C302378303BDBB21B01DBB25E
:102F500062781344303B8DF81330A378303BDBB2FA
:102F60001B01DBB2E2781344303B8DF81230237939
:102F7000303BDBB21B01DBB262791344303B8DF88E
:102F8000103000228DF81120A379303BDBB21B01F9
:102F9000DBB2E1790B44303B8DF80F30237A303BC4
:102FA000DBB21B01DBB2617A0B44303B8DF80E3093
:102FB000A37A303BDBB21B01DBB2E17A0B44303B3E
:102FC0008DF80D300092082303AA682134480BF0D5
:102FD000D5FA344803F0C8F903A806F0B9FF9DF804
:102FE00012309DF814209DF815102F4803F0BCF9FD
:102FF0009DF80F3003F07F039DF810209DF811100D
:103000002A4803F0B1F99DF80E10294803F0ACF9F5
:103010009DF80E3013F0040F0AD1264803F0A4F9EE
:103020009DF90F30002B07DB234803F09DF97BE768
:10303000224803F099F9F3E7214803F095F973E783
:1030400006F058FF70E703A806F082FF0024132C57
:103050000ADC04F120036B4413F8142C21461948B0
:1030600003F082F90134F2E79DF812309DF8142044
:103070009DF815100C4803F077F99DF80F3003F018
:103080007F039DF810209DF81110084803F06CF99B
:103090004AE70D4803F068F946E700BF782A0210B6
:1030A00074370020B42A0210C02A0210E42A021049
:1030B000082B0210182B0210442B02102C2B02108C
:1030C0006C2B0210AC2B0210C02B02102DE9F0412A
:1030D00098B007460C46FDF73FFB70B3002C54D068
:1030E0002046FDF7F7FB0546B0F1FF3F30D000F179
:1030F000805404F580145A4803F036F9594803F017
:1031000033F9214611F8012B236A606A019000957A
:10311000554803F087FF2378FBB17F2B21D053481C
:1031200003F022F92378032B1FD0013BDBB2012BE4
:1031300023D94F4803F018F907E04E4803F014F97B
:103140004FF470514C4803F00FF918B0BDE8F0810E
:1031500021464A4803F008F9F7E7494803F004F923
:10316000F3E7484803F000F9EFE7474C6019FFF731
:103170005FFC6019FFF7E8FCE7E7434C6019FFF7D5
:1031800067FD6019FFF740FEDFE7354803F0ECF814
:10319000344803F0E9F84FF00008454619E0C5F55A
:1031A00070044146394803F0DFF82946384803F0F7
:1031B000DBF8A20A4FF47001364803F0D5F8C4E7F3
:1031C0002F4803F02FFF294803F0CEF8022F2AD012
:1031D000656AB5F5700FB8D200214FF0FF300CF0E2
:1031E000AFFA05F1805404F580142378FF2BD6D074
:1031F00004AE626A02920195226A0092621C1A4928
:1032000030460AF0B9F9304603F00CFF08F101022C
:103210002378002BD4D07F2B01D09046D3E71948D8
:1032200003F000FFCFE72278531EDBB2012B06D953
:10323000032ACDD114482844FFF7FAFBC8E7124E01
:103240002E443146144803F08FF8711D134803F0E3
:103250008BF896F8B812124803F086F8B8E700BF6A
:10326000FC2B0210B0200210FC200210588B021020
:1032700018200210102402104C240210E42B02101B
:10328000482C0210602C021028001010742C021020
:10329000AC2C0210E82C0210C8290210DC29021004
:1032A000F02902102DE9F04FADB00378012B40F06A
:1032B000CE82064690F8DB92B9F10A0F07D840F2A9
:1032C0005C7323FA09F313F0010F40F0C682202447
:1032D0002246002124A817F0CBFA224600211CA880
:1032E00017F0C6FA2246002114A817F0C1FA2246A8
:1032F00000210CA817F0BCFA2246002104A817F000
:10330000B7FA4FF00108B8F1030F00F3A2820025CD
:1033100035E22F2A0CD03F2A40F03082013B2CAA04
:1033200002EB830353F8402C013A43F8402C25E28A
:10333000013B2CAA02EB830353F8202C013A43F8FB
:10334000202C1BE2013B2CAA02EB830353F8602CD8
:10335000013A43F8602C11E2013B2CAA02EB8303F3
:1033600053F8802C013A43F8802C07E2A37F002B0E
:1033700000F0048294F81DA0BAF12F0F67D0BAF1C3
:103380002F0F6ED0BAF13F0F75D0BAF13F0F7CD03E
:10339000BAF15F0F00F08380BAF15F0F00F08A800E
:1033A000BAF14F0F00F09080BAF14F0F00F0978004
:1033B000BAF16F0F00F09D8003F1FF3B2CAB03EBE4
:1033C0008B0353F8203C3BB12CAA02EB8B0252F842
:1033D000402C002A40F09A80002B40F0B2802CABA9
:1033E00003EB8B0353F8403C002B40F0B6802CAB32
:1033F00003EB8B0353F8803C3BB12CAA02EB8B020E
:1034000052F8602C002A40F0B480002B40F0CB80B2
:103410002CAB03EB8B0353F8603C002B40F0CF80C8
:103420002CAB03EB8B0353F8A02C002A00F0F680A2
:1034300053420827CDF800A0CDF804B09346CDF84C
:10344000088003951D4633463E461F46C5E05A1E7A
:103450002CA901EB820252F8407C002F8FDD013F46
:1034600033E15A1E2CA901EB820252F8207C002F76
:1034700000F32B8186E75A1E2CA901EB820252F839
:10348000207C002F81DD01371FE15A1E2CA901EBA2
:10349000820252F8407C002F00F3178178E75A1E11
:1034A0002CA901EB820252F8807C002F7FF774AFC9
:1034B00001370AE15A1E2CA901EB820252F8607C06
:1034C000002F00F302816BE75A1E2CA901EB820248
:1034D00052F8607C002F7FF767AF013FF5E05A1E7E
:1034E0002CA901EB820252F8807C002F00F3ED80C2
:1034F0005EE7591E2CAA02EB810252F8A07C002F35
:103500007FF75AAF013742F8A07CDEE00827CDF8FC
:1035100000A000E001370E2F00F28D8094F81FA06C
:10352000524639466448FEF73EF90028F2D1524629
:10353000791C6148FEF737F90028EBD1DDF800A0CF
:103540007BE008270F2F78D8E27F39465A48FEF7EC
:103550002AF9002871D00137F4E708270F2F6CD81B
:10356000E27F39465448FEF71EF9002865D001373E
:10357000F4E70827CDF800A000E002370E2F6DD841
:1035800094F81FA0524639464B48FEF70CF9002824
:10359000F3D15246791C4848FEF705F90028ECD1D2
:1035A000DDF800A049E008270E2F46D8E27F394613
:1035B0004148FEF7F8F800283FD00237F4E7082723
:1035C0000E2F3AD8E27F791C3B48FEF7ECF8A0B307
:1035D0000237F5E7AA4544D201360BF110029642B4
:1035E00011D8B0464FF0000AB8F10F0FF2D8E27FC1
:1035F00041463148FEF7D7F80028EBD10AF1010A1D
:1036000008F10108F0E7DDF800A0DDF804B0DDF80E
:103610000880039D3B4637461E460EE0082700E023
:1036200001370F2F09D8E27F39462348FEF7BBF850
:103630000028F5D101E0DDF800A0BAF14F0F2DD040
:103640001AD8BAF12F0F23D0BAF13F0F3DD101376D
:103650002CAB03EB8B0343F8407C36E0DDF800A095
:10366000EBE7DDF800A0DDF804B0DDF80880039D8D
:103670003B4637461E46E0E7BAF15F0F14D0BAF179
:103680006F0F22D12CAB03EB8B0343F8A07C1CE023
:103690002CAB03EB8B0343F8207C16E02CAB03EB45
:1036A0008B0343F8807C10E001372CAB03EB8B03DA
:1036B00043F8607C09E000BFBC620020A37F002BC0
:1036C0005CD1677F1F2F00F0AB80032F40F2E980B1
:1036D00094F82130002B40F0B1804FF0130A94F899
:1036E00022300BB14FF0000A3378012B00F0A98093
:1036F0000F2F00F2D98094F81FB05A4639466D4812
:10370000FEF751F8002840F0D28004F12401694A04
:103710000BEB4B0BF42307FB03F303EB0B1B934463
:10372000CBF80410E17F06F16F4000F5700001EB6B
:10373000410103EB01115050E17F01EB410103EB2B
:1037400001111144A1F808A0E17F01EB410103EB55
:103750000111114400278F72E17F01EB410103EB5E
:1037600001111144C862E17F01EB410103EB01103B
:1037700008301044711C023017F042FD013596F8F4
:10378000E032AB4260DD41F2444405FB04F404F254
:1037900001343444B8F1020F3FF4E8ADB8F1030F3F
:1037A0008CD0B8F1010FE9D1627FA2F11003DBB236
:1037B0000E2B55D96F2A56D8A37F082B56D8E17FF8
:1037C000002956D0042957D894F82010082956D833
:1037D00094F82110012955D894F82210012954D8C1
:1037E00094F82310012953D80BB11F2A53D90BB9D0
:1037F0001F2A53D8002BC1D04F2A3FF4ADAD7FF61E
:1038000088AD5F2A3FF49EAD6F2AB7D1013B2CAA49
:1038100002EB830353F8A02C013A43F8A02CADE748
:10382000082700E001370F2F3FF64FAFE27F394600
:103830002048FDF7B8FF0028F4D146E74FF0000A12
:103840004DE74AF0080A53E708F101085BE54FF03D
:10385000670948462DB0BDE8F08F4FF06909F8E7D9
:103860004FF06709F5E74FF06709F2E74FF0670996
:10387000EFE74FF06709ECE74FF06709E9E74FF032
:103880006709E6E74FF06709E3E74FF06709E0E70C
:103890004FF06709DDE74FF06709DAE74FF0670996
:1038A000D7E74FF06A09D4E74FF06809D1E74FF046
:1038B0006809CEE7BC6200202DE9F04383B00646DC
:1038C0000C4615461F46FEF77BFB002800F00781DB
:1038D0008046731F012B40F2DF8005EB4502F42385
:1038E00004FB03F303EB0213AF4A13441B8913F0E9
:1038F000010F0DD12146AC48FDF723FF70B9731EAF
:10390000052B00F2EC80DFE803F00E395A7BC7C7C5
:103910002A462146A54802F027FDE0E02146A448BA
:1039200002F022FDDBE0A04BF42202FB04331B8FEC
:1039300013F0010F1DD19F4802F016FD9A4C40F282
:103940001713A4F8E4360023C4F8DC36012584F804
:103950009C57994BC4F8E0361F22984B196804F223
:10396000E66017F081F82046FDF75AFF944B9D80E2
:10397000B5E02146934802F0F7FCB0E08A4BF42210
:1039800002FB04331B8F13F0010F13D18E4802F09A
:10399000EBFC854C8D4B009340F21713012206215E
:1039A0002046FDF72BFE2046FDF73AFF844B002210
:1039B0001A8094E02146834802F0D6FC8FE07A4BCF
:1039C000F42202FB04331B8F13F0010F13D1804844
:1039D00002F0CAFC744C7F4B009340F21713012293
:1039E00006212046FDF70AFE2046FDF719FF744B1D
:1039F00001221A8073E02146724802F0B5FC6EE0A5
:103A00003846FCF767FF8046B0F1FF3F26D02B46D3
:103A100022463946704802F0A7FC08F1805606F5A8
:103A200080166E4802F0A0FC6D4802F09DFC314605
:103A300011F8012B336A706A0190CDF80080694853
:103A400002F092FC3378032B0DD03378013BDBB2CC
:103A5000012B44D8644802F087FC40E039466348B3
:103A600002F082FC3BE0624F07EB0800FEF7E0FF4C
:103A700007EB080208F128015E4802F075FC4A4F86
:103A8000CDF8008017232A4621463846FDF78AFDE7
:103A90003846FDF7C5FED8E73846FCF71BFF04465D
:103AA000B0F1FF3F1ED000F1805505F580154B4861
:103AB00002F05AFC4A4802F057FC294611F8012B43
:103AC0002B6A686A01900094464802F04DFC2B78FE
:103AD000032B0CD0012B4CD0022B00F0E28003B062
:103AE000BDE8F0833946414802F03EFCF7E7404D1F
:103AF0002819FEF79DFF2A1904F128013E4802F01B
:103B000033FC4FF00009082500E001350F2D12DCD1
:103B1000B9F1000F0FD1244BF42202FB05331B8FA8
:103B200013F0010FF1D129461F48FDF70AFE0028C6
:103B3000EBD1C146EAE7B9F1000F12D03A46294667
:103B40002E4802F011FC062E0FD0174E00941723BA
:103B5000012229463046FDF725FD3046FDF760FE7F
:103B6000BDE7274802F000FCB9E7264802F0FCFB5D
:103B7000B5E7254802F0F8FB2846FFF793FB04461B
:103B800063285CDDA0F16503052B53D8DFE803F063
:103B9000030742464A4E1D4802F0E6FB9FE71C48D9
:103BA00002F0E2FB9BE700BFBC620020382D021050
:103BB000742D0210E02D0210A0B70310107703102F
:103BC00088AC0020AC2D0210082E0210A097031024
:103BD000382E0210A0770310642E0210FC2B021066
:103BE000B0200210FC200210BC2E0210E42B0210A8
:103BF000280010108C2E0210142F0210902F02108B
:103C0000582F0210AC2F0210D82F0210EC2F0210E8
:103C100010300210254802F0A7FB60E7244802F0AC
:103C2000A3FB5CE7234802F09FFB58E7224802F021
:103C30009BFB54E70146214802F096FB4FE72048E2
:103C400002F092FB1F48FDF7EBFD072C24D801A3DF
:103C500053F824F0DF3A0010753C0010993C001036
:103C6000993C0010993C00108B3C0010993C0010CE
:103C7000833C0010144802F077FB144B01221A8099
:103C80002DE7134802F070FB29E7124802F06CFBA5
:103C90000E4B01229A8022E721460F4802F064FB76
:103CA0001DE70E4802F060FB19E700BF3430021038
:103CB0005030021080300210A0300210D0300210BC
:103CC000EC300210BC6200200C31021088AC0020E5
:103CD0003C31021088310210BC310210F831021060
:103CE00070B506460C46FEF76BF9002800F0A78079
:103CF000012E44D0022E4FD031465848FDF721FD09
:103D0000002874D1002C00F08D8004EB4402F423D1
:103D100006FB03F303EB0213504A13441B8913F011
:103D2000010F00F08D80224631464C48FDF7B2FC71
:103D3000224631464A4802F017FB79E022462946DE
:103D40004648FDF7A7FC0134042C13DC04EB4402C5
:103D5000F42305FB03F303EB0213404A13441B89CE
:103D600013F0010FEFD029461046FDF7EAFC0028BA
:103D7000E9D1E3E701350F2D03DC3446E4E7042500
:103D8000F9E7384B00221A809A803448FDF748FD45
:103D9000354802F0E9FA52E0344802F0E5FA042529
:103DA00016E00134042C12DC04EB4402F42305FB7E
:103DB00003F303EB0213294A13441B8913F0010F89
:103DC000EFD0224629462548FDF764FCE9E7013596
:103DD0000F2D01DC0124E5E7224B00221A809A8096
:103DE0001E48FDF71DFD224802F0BEFA27E03146CD
:103DF000204802F0B9FA22E00134042C14DC04EB70
:103E00004402F42306FB03F303EB0213134A1344A7
:103E10001B8913F0010FEFD0224631460F48FDF702
:103E200039FCE9E70124E8E73146134802F09CFA3F
:103E3000062E0BD0072E0DD00848FDF7F1FC70BD03
:103E4000224631460D4802F08FFAF8E7054B002272
:103E50001A80F1E7034B00229A80EDE7BC62002054
:103E60003033021088AC0020343202106832021065
:103E7000A0320210D4320210103302104C33021060
:103E80002DE9F041ACB006460F46904620AC934D6C
:103E90000FCD0FC40FCD0FC495E80F0007C42380CA
:103EA00018AC8F4D0FCD0FC495E80F0084E80F00BC
:103EB0000DF1280C8B4C0FCCACE80F000FCCACE80C
:103EC0000F000FCCACE80F0094E803004CF8040B93
:103ED0008CF8001003AC844D0FCD0FC495E807009B
:103EE00003C42270FEF76CF8002849D0062E10D0CB
:103EF0007E4BF42202FB07331B8F13F0010F0FD10F
:103F0000013E052E00F2E680DFE806F00F0F426B5F
:103F100094CA3B1F0B2BEBD9754802F025FA2FE012
:103F20003946744802F020FA2AE005216F48FDF76F
:103F300008FC40BB6D4C8023A4F8FC340026C4F878
:103F4000F464012384F8B4356B4BC4F8F83404F2FC
:103F5000FE451F226949284616F086FD84F81D6536
:103F60000DF160081F224146284616F07DFD052709
:103F70005E48FDF755FC42463946614802F0F4F9C7
:103F80002CB0BDE8F08139465E4802F0EDF9D1E78A
:103F900005215648FDF7D5FBF0B9544C8023A4F811
:103FA000F0350026C4F8E865012384F8A836524BA2
:103FB000C4F8EC3504F2F2551F225049284616F099
:103FC00053FD84F811660DF128081F22414628464A
:103FD00016F04AFD0627CBE739464B4802F0C4F9F4
:103FE000DBE707214148FDF7ACFBF0B93F4C8023EC
:103FF000A4F8E4360026C4F8DC66012384F89C3774
:104000003D4BC4F8E03604F2E6651F223B492846E2
:1040100016F02AFD84F805670DF10C081F224146B1
:10402000284616F021FD0727A2E73946374802F057
:104030009BF9DBE74FB339462C48FDF782FB50B3C1
:104040002A4C012239462046FDF724FB002239463E
:104050002046FDF71FFB39462D4802F085F98FE712
:1040600001340F2C13DC21462048FDF76AFB0028A1
:10407000F6D01E4D012221462846FDF70BFB0022FB
:1040800021462846FDF706FBEAE70424E9E7214834
:1040900002F06AF974E739461F4802F065F96FE7E4
:1040A00039461248FDF74DFB78B9104C00230093B8
:1040B0008023012239462046FDF774FA4346012247
:1040C00039462046FDF716FB52E73946134802F001
:1040D0004BF955E7124802F047F951E788350210CD
:1040E000B8350210D835021010360210BC6200201C
:1040F00070330210943302102800101001001010C9
:104100006C350210C83302100C3402105034021007
:10411000B834021094340210DC3402100835021056
:104120004C3502102DE9F047D0B00546E0B10F46FE
:1041300001EB4102F42300FB03F303EB0213BC4A3F
:1041400013441B8913F0010F00F04F810146B8485A
:10415000FDF7CAFBB74802F007F92D03AEB206F52A
:1041600080581FFA88F8A0E1B34802F0FDF8B34880
:1041700002F0FAF8B24802F0F7F82E461FE004EB1E
:104180004403F42206FB02F202EB0312A84B134491
:104190000B449A7A46AB5A5401311F29EFDD04EBE8
:1041A0004404F42306FB03F303EB0413A04A1A446C
:1041B00046AB12893146A34802F0D6F801360F2EDD
:1041C00000F318810124042CF8DC31469848FDF7EF
:1041D000B8FA18B1012C01D12946DEE704EB4402FC
:1041E000F42306FB03F303EB0213914A13441B89E8
:1041F00013F0010F2FD013F4807F2ED040F0918068
:1042000022463146904802F0AFF80134DBE704EB78
:104210004403F42206FB02F202EB0312844B134424
:104220000B449A7A46AB5A5401311F29EFDD012C19
:10423000EBD104EB4402F42306FB03F303EB02137C
:104240007B4A13441B8946AA0092224631467F4886
:1042500002F08AF8D9E72946E7E74EAB2246314615
:104260007348FDF7F5FA4FEA0639012C2BD01FFAF7
:1042700089F9E3B2DFF8B8811F461A46494640463D
:104280001BF0FEFF824609F101013A4689B2404621
:104290001BF0F6FF04EB4402F42306FB03F303EBED
:1042A000021308EB030211890833434402335268B6
:1042B00003920293019100904EAB5246214664480E
:1042C00002F052F8A1E71FFA89F9E3B2DFF8608142
:1042D0001F461A46494640461BF0D2FF824609F166
:1042E00001013A4689B240461BF0CAFF04EB440282
:1042F000F42306FB03F303EB021308EB030211891B
:1043000008334344023352680492039302910190AC
:104310004EAB00935346224631464E4802F024F8F5
:1043200073E74FEA06394EAB224631464048FDF767
:104330008FFA012C2BD01FFA89F9E3B2DFF8F08055
:104340001F461A46494640461BF09AFF824609F12D
:1043500001013A4689B240461BF092FF04EB440249
:10436000F42306FB03F303EB021308EB03021189AA
:104370000833434402335268039202930191009040
:104380004EAB52462146344801F0EEFF3DE71FFA9E
:1043900089F9E3B2DFF898801F461A46494640463D
:1043A0001BF06EFF824609F101013A4689B2404690
:1043B0001BF066FF04EB4402F42306FB03F303EB5C
:1043C000021308EB03021189083343440233526895
:1043D00004920393029101904EAB00935346224600
:1043E00031461E4801F0C0FF0FE70A4601461C484F
:1043F00001F0BAFF50B0BDE8F0877119FAB289B286
:104400000B481BF03DFF0246164907A8204409F05F
:10441000B3F8044401350F2DEFDD07AB1919124A2B
:104420001088927818538A700234002525E000BF66
:10443000BC620020204B02102C36021040360210C5
:1044400078360210C0360210C03702100037021052
:1044500080370210403702104C3802100C3802101E
:104460008C380210B0380210C4290210134907A872
:10447000204409F081F8013401350F2D0DDC71194C
:10448000FAB289B20E481BF0FBFEC2B2A2F12003C1
:10449000DBB25E2BEAD92E22E8E71036B6B207A9C6
:1044A000084801F061FFB045A4D93246064907A883
:1044B00009F062F800250A24ADE700BF8C05021060
:1044C000BC620020142A0210BC29021070B50446F8
:1044D0000E46FDF775FD00283BD00546601E0328FB
:1044E00034D8DFE800F0023B4C5D554801F03CFF5A
:1044F000544B9B880BB1544900E05449544801F097
:1045000033FF504B1B880BB14F4900E04F495148D6
:1045100001F02AFF0424002100E001340F2C14DCF8
:104520004D4BF42202FB04331B8F13F0010FF4D028
:10453000494B02FB043393F9F030002BEDDA2146AE
:10454000464801F011FF2946E7E719B13D48FBF75E
:10455000D5FE70BD424801F007FFF7E7394B9B8855
:1045600033B9384B01229A803E4801F0FDFEEDE759
:10457000344B00229A803C4801F0F6FEE6E7314BCE
:104580001B8833B92F4B01221A80384801F0ECFE0A
:10459000DCE72C4B00221A80354801F0E5FED5E718
:1045A0002D4BF42202FB06331B8F13F0010F24D096
:1045B000294BF42202FB063393F9F030002B21DB68
:1045C00006F0FE01244CF42303FB014090F8F02098
:1045D00062F07F0280F8F02001FB0333234493F85C
:1045E000F02062F07F0283F8F0204A1C214801F09D
:1045F000BBFE2046FDF714F9A8E731461E4801F03E
:10460000B3FEA6E706F0FE01134C134602FB014081
:1046100090F8F02002F07F0280F8F02001FB0333D5
:10462000234493F8F02002F07F0283F8F0204A1C24
:10463000124801F099FE2046FDF7F2F886E700BF28
:10464000B838021088AC002020550210EC39021056
:10465000CC380210E8380210BC6200200439021085
:104660003C3902107439021090390210AC39021032
:10467000D0390210783A0210F8390210343A021098
:1046800070B582B00546FCF725F9B0F1FF3F28D0A0
:104690000446FDF795FC48B304F1805606F58016F4
:1046A0002946184801F060FE174801F05DFE1748E2
:1046B00001F05AFE164801F057FE314611F8012B61
:1046C000336A706A01900094124801F04DFE002197
:1046D0002046FCF71FF978B129460F4801F044FE47
:1046E00008E029460D4801F03FFE03E029460C484A
:1046F00001F03AFE02B070BD29460A4801F034FECE
:10470000F8E700BFE43A0210043B0210FC2B021051
:10471000B0200210FC200210383B0210E42B0210E3
:10472000BC3A0210583B021010B509281FD00446AD
:104730000A281ED0A44B1B8873B3013C072C15D844
:10474000DFE814F02E00C400DC00EB00FA000701E3
:1047500024013901E0B204F00FFC01345A2CF9DDD8
:10476000002004F009FCE02004F006FC10BD412408
:10477000F4E701F0D1FB0A2006F0DAFC4FF05043D9
:104780005B6813F0005F05D0904A1D21904801F04E
:10479000EBFDEBE78F4AF8E78F4801F0E5FDCCE74A
:1047A000894BB3F8A6306BB188498C4801F0DCFD29
:1047B000854BB3F8A030032B00F28280DFE803F0D2
:1047C0000474787C8349F0E7854801F0CDFD854B82
:1047D0001B78002B78D08449844801F0C5FD844CB7
:1047E0002188844801F0C0FD2188C90B824801F06E
:1047F000BBFD2188C1F38031804801F0B5FD2188DF
:10480000C1F340317E4801F0AFFD2188C1F3003192
:104810007C4801F0A9FD2188C1F3C0217A4801F04C
:10482000A3FD2188C1F38021784801F09DFD2188F6
:10483000C1F34021764801F097FD2188C1F30021A2
:10484000744801F091FD2188C1F3C011724801F054
:104850008BFD2188C1F38011704801F085FD21880E
:10486000C1F340116E4801F07FFD2188C1F30011B2
:104870006C4801F079FD2188C1F3C0016A4801F05C
:1048800073FD2188C1F38001684801F06DFD218826
:10489000C1F34001664801F067FD218801F0010184
:1048A000644801F061FD61E7634801F05DFD8EE75A
:1048B000624801F059FD8AE7614801F055FD86E73D
:1048C000604801F051FD82E75F4985E73E4BB3F850
:1048D000A63063B13C4B0022A3F8A6203A4BB3F8B4
:1048E000A6304BB139493D4801F03EFD3EE7364B1D
:1048F0000122A3F8A620F1E73649F4E73C4A1388E1
:104900006FEA43436FEA534313802F4B0222A3F80D
:10491000A0204E4801F028FD28E7354A1388C3F34C
:104920000D0343F480431380274B0122A3F8A020FA
:10493000474801F019FD19E72D4A1388C3F30D0309
:104940001380214B0022A3F8A020424801F00CFD67
:104950000CE7274A138883F400639BB213801A4A3A
:10496000B2F8A4205AB1184A0021A2F8A41013F4F6
:10497000006F09D01C49384801F0F6FCF6E6124AEF
:104980000121A2F8A410F2E72F49F4E70E4B1B888F
:104990001BB9324801F0E8FCE8E6154A138843F4F5
:1049A000005313802E4B02221A6001F0DBFA2D48CF
:1049B00001F0DAFCDAE6044B1B88002B54D12748BF
:1049C00001F0D2FCD2E600BF88AC00207C3B021094
:1049D000843B0210803B0210A03B0210FC3B021003
:1049E000103C02106AB200201C5402108C3C0210D1
:1049F00040330020A03C0210B83C0210EC3C0210F6
:104A00003C3D02106C3D0210A43D0210D03D02104E
:104A1000FC3D0210203E02104C3E02107C3E021073
:104A2000C03E0210F03E0210243F0210543F02101C
:104A3000843F0210B83F0210283C0210403C021094
:104A4000583C0210703C021090050210EC3F02101E
:104A5000084002102440021040400210644002103E
:104A600098B1002094400210064A138843F4805302
:104A70001380054B02221A6001F074FA034801F01A
:104A800073FC73E64033002098B10020B040021060
:104A900010B584B00446FDF793FA80B1601E0B2870
:104AA0000DD8DFE800F0060E32560C0C0C0C0C6E24
:104AB000757C414BB3F87810404801F055FC04B0C8
:104AC00010BD3F4801F050FC3B4BB3F878103B4819
:104AD00001F04AFC002400E00134B4F5007FEEDA76
:104AE00004F57052082300936B44D2000521354829
:104AF0001BF0BAFB029A039B52EA0301ECD004F5C7
:104B00000071314801F030FCE6E729A3D3E9002326
:104B1000CDE90223002412E0029B13F10133039A32
:104B200042F101320293039204F57052082300937C
:104B30006B44D200052123481BF0BAFB0134B4F5C5
:104B4000007FE9DB214801F00FFC214801F00CFC5B
:104B5000B5E700220023CDE9022300240AE004F592
:104B60007052082300936B44D200052115481BF0B6
:104B70009FFB0134B4F5007FF1DB164801F0F4FB34
:104B80009DE70D480023A0F87830FBF7B7FB96E7C8
:104B900009480123A0F87830FBF7B0FB8FE70648FF
:104BA0000223A0F87830FBF7A9FB88E7AFF3008079
:104BB000414041404140414088AC0020CC4002107F
:104BC000E8400210000008401C4102103041021071
:104BD000644102108041021038B50C4601380A28A1
:104BE00055D8DFE810F00B0063008A00AC00BA0073
:104BF000CA00DA00EA00FA000A0118018C4DB5F883
:104C000054102C2404FB01F2920A8A4801F0ACFBF8
:104C1000B5F8561004FB01F2920A874801F0A4FB94
:104C2000AB8F002B34D08549854801F09DFB804B2C
:104C3000B3F85030002B2DD08049824801F094FB0E
:104C40007B4BB3F846303BB37C497F4801F08CFB8B
:104C5000774BB3F852300BB378497C4801F084FBB2
:104C6000734BB3F86630DBB17449794801F07CFBD3
:104C70006F4BB3F86830ABB17049764801F074FB04
:104C80006B4BDB8F83B16D49734801F06DFB38BD11
:104C90007249C9E77149D0E77049D6E76F49DCE747
:104CA0006E49E2E76D49E8E76C49EDE7FDF788F901
:104CB000D8B15F4BB3F854102C2201FB02F26848C4
:104CC00001F052FB002CE2DDA4F57A7242F22833A7
:104CD0009A420ED8564DA5F854402146614801F03D
:104CE00043FB2846FBF70AFBD1E75F4801F03CFB9A
:104CF000CDE75E4801F038FBC9E7FDF761F9B0B1D7
:104D00004B4BB3F856102C2201FB02F2584801F02D
:104D10002BFB002CBBDDA4F12003E02B0BD8444B74
:104D2000A3F856402146534801F01EFBAFE74E481A
:104D300001F01AFBABE7504801F016FBA7E73C4A2D
:104D4000938FB3FA83F35B09938723B13B494B48B5
:104D500001F00AFB9BE74149F9E7354AB2F85030C8
:104D6000B3FA83F35B09A2F8503023B133494448C6
:104D700001F0FAFA8BE73949F9E72D4AB2F84630E3
:104D8000B3FA83F35B09A2F8463023B12B493D48BF
:104D900001F0EAFA7BE73149F9E7254AB2F85230E7
:104DA000B3FA83F35B09A2F8523023B123493648A2
:104DB00001F0DAFA6BE72949F9E71D4AB2F86630E3
:104DC000B3FA83F35B09A2F8663023B11B492F487D
:104DD00001F0CAFA5BE72149F9E7154AB2F86830F1
:104DE000B3FA83F35B09A2F8683023B1134928486A
:104DF00001F0BAFA4BE71949F9E70D4AD38FB3FA34
:104E000083F35B09D38723B10C49224801F0ACFA44
:104E10003DE71249F9E7FDF7D3F800283FF437AF33
:104E20000348FBF76BFA1C4801F09EFA2FE700BF1E
:104E300088AC0020AC410210E04102102C5202105C
:104E4000144202103442021078420210A4420210AE
:104E5000CC420210EC4202100C430210EC3902105A
:104E600068430210CC4302102C43021094430210FA
:104E7000204402108844021050440210B044021032
:104E8000CC4402100C450210344502105845021063
:104E90007445021090450210AC4502102DE9F04116
:104EA000BAB004460D4600201BF00AFA06469F23BE
:104EB0001F936022002120A815F0DAFC06AF4FF006
:104EC000640842460021384615F0D2FC4246394675
:104ED0001FA81BF0A1F99DF81B30012101FA03F76F
:104EE000FDF76EF8002832D0631E042B2FD8DFE8C0
:104EF00003F003364D50760038A808F035FF9DF8D2
:104F0000E3309DF8E4209DF8E5109DF8E6009DF85B
:104F1000E740049403900291019200939DF8E230DF
:104F20009DF8E1209DF8E010384801F01DFA314667
:104F3000374801F019FA1021364801F015FA3A46BF
:104F4000002F07DB12153946334801F00DFA3AB04D
:104F5000BDE8F08107F57F2202F6FF72F2E72F4BE2
:104F60009D420DD005F580532D4A13602C4B1A68D5
:104F700029462C4801F0F8F92846FBF7F7FBE6E74D
:104F8000274B1D6805F580521A60EFE7FBF7A6FB7B
:104F9000DDE7254801F0E8F94FF47A7400214FF07D
:104FA000FF300AF0CDFB022006F0C2F8002003F02B
:104FB000C6F868B9013CF1D11C4801F0D5F9FBF7FE
:104FC0004BFB1B4801F0D0F91A4801F0CDF9BEE7C0
:104FD000002003F0B9F8184801F0C6F9B7E70F4B05
:104FE0009D420DD005F58053144A1360134B1A6887
:104FF0002946134801F0B8F9284601F013F9A6E74D
:105000000E4B1D6805F580521A60EFE7CC45021083
:1050100000460210284602105C46021043424140FE
:105020007CAC002098460210D44602103047021093
:1050300048470210644702101C47021080AC002051
:10504000A847021030B585B004460D46FCF7B8FFFE
:10505000E8B1601E03281AD8DFE800F0021B324BCB
:1050600002A801F031F99DF80B3000939DF80A3049
:105070009DF809209DF808102F4801F075F99DF85A
:105080000A10C1F38201CA012C4801F06DF905B084
:1050900030BD2B4B9D420DD005F58053294A13603E
:1050A000284B1A682946284801F05EF9284601F085
:1050B000B9F8ECE7234B1D6805F580521A60EFE75D
:1050C000224801F051F9002001F088F801462048FB
:1050D00001F04AF9002001F081F844F241039842BE
:1050E00003D01C48FCF77CFBD1E71B4801F03CF9DE
:1050F000CDE71A4801F038F94FF47A7400214FF0E7
:10510000FF300AF01DFB022006F012F8002003F029
:1051100016F850B9013CF1D1114801F025F901F020
:10512000E3F8104801F020F9B1E7002003F00CF893
:105130000D4801F019F9AAE7E44702100C480210E3
:105140004342414080AC0020A84702103048021082
:1051500054480210BC6200206C48021098480210AB
:10516000EC48021004490210D448021070B52248DD
:1051700008F03DFC0025B5F5005F10DA002C0EDBD1
:10518000642008F0FDFB041EFADB1C4B5C55013566
:1051900015F03F0FEFD12E2008F01AFCEBE729465F
:1051A000174808F053FC002307E0164A116831F84D
:1051B000132052BA21F813200133B3F5805FF4DBDA
:1051C00000260BE02A190F4B1B6833F812100E480B
:1051D00008F03CFC01340F2CF4DD01361E2E06DCF9
:1051E00035012946094808F031FC0024F3E70A207C
:1051F00008F0EEFB70BD00BF14490210D44100203E
:1052000044490210E0320020F00F0210E00F0210BB
:1052100038B5314B1C682388304D2B6063886B6038
:1052200004F58053B3F8FE3F6B61FBF751FCA861B6
:10523000A079A3881B029BB21844A860A388FF2B07
:1052400015D800F10043013B14F8132000233F2A36
:1052500016D80F2B14DC02F03F022149895C214A49
:10526000D1540133421ED21A14F81220EFE71E4A1D
:105270001C4B07CA03C323F8022B120C1A7008E058
:1052800002F03F021649895C164AD15401330021CD
:10529000D154114B1A6802F58052B2F8FC3F03F06A
:1052A0003F030F49C85C114B1870B2F8FA0F00F0B9
:1052B0003F00085C58702D209870B2F8F80F00F08D
:1052C0003F00085CD870B2F8F62F02F03F028A5C0B
:1052D0001A7100225A7138BDE0320020ECB1002072
:1052E00084650310D461002070490210E46100203D
:1052F00010B5FFF78DFF104808F079FB0F4C2168BF
:105300000A460F4808F0A2FB61680A460D4808F0FB
:105310009DFBA2680C490D4808F098FB0C490D480C
:1053200008F094FBA26961690B4808F08FFB0A2022
:1053300008F04EFB10BD00BF7C490210ECB100200C
:10534000A8490210C4490210D4610020E0490210AB
:10535000E4610020004A0210144A021030B583B004
:105360002F4808F044FB2F4808F070FB00240DE0A4
:105370002D4808F06BFB08E0FFF74AFF2B4B2C4A47
:105380002C4909682C4808F061FB0134092C1BDC0E
:1053900021462A4808F05AFB294B1A686303D25A5F
:1053A0004FF6FF739A42E3D00023B3F5805FE3DA50
:1053B00003EB0430234A12682149096831F81010C0
:1053C00022F813100133F0E7002403E0164808F038
:1053D0003DFB0134092C1DDC21461B4808F036FB3F
:1053E000184D4FF4005300932B68620305211748B2
:1053F0001AF03AFF2B681A884FF6FF739A42E5D0ED
:10540000FFF706FF094B0A4A0A4909680A4808F0EB
:105410001DFBDEE70A2008F0DBFA03B030BD00BF59
:105420003C4A02106C4A0210AC4A0210D4610020BF
:10543000E4610020ECB10020C44A0210944A02103A
:1054400038330020E0320020D84A02100000084023
:1054500010B504460146084808F0F8FAA4F13003F4
:10546000092B02D81C46054B1C60044B19680448E4
:1054700008F0ECFA10BD00BFF04A0210DC32002048
:10548000140B021070B582B004465E4808F0DEFAD4
:105490005D4B09221A70032C00F2AF80DFE804F0A4
:1054A00002182E740026ADF806600DF10605574C63
:1054B0002946204606F000F8ADF806602946204649
:1054C00005F0FAFF00F0B8FD00F04CFD02B070BD31
:1054D000E023ADF806300DF106054C4C2946204678
:1054E00005F0EAFF8623ADF806302946204605F090
:1054F000E3FF00F0A1FD00F035FDE7E7B623ADF8CE
:1055000006300DF10605414C2946204605F0D4FF32
:105510001023ADF806302946204605F0CDFF0123C3
:10552000ADF806302946204605F0C6FFC623ADF883
:1055300006302946204605F0BFFF0026ADF806607C
:105540002946204605F0B8FFF223ADF8063029467B
:10555000204605F0B1FFADF806602946204605F06B
:10556000ABFF5A23ADF806302946204605F0A4FFCC
:105570009123ADF806302946204605F09DFF00F046
:105580005BFD00F0EFFCA1E73E23ADF806300DF126
:1055900006051E4C2946204605F08EFF1123ADF866
:1055A00006302946204605F087FF1023ADF8063067
:1055B0002946204605F080FF7523ADF806302946C0
:1055C000204605F079FFC023ADF806302946204675
:1055D00005F072FF0123ADF806302946204605F09C
:1055E0006BFF2F23ADF806302946204605F064FFF7
:1055F00000F022FD00F0B6FC68E700F01DFD00F0B1
:10560000B1FC63E71C4B02107FB2002064730020E2
:1056100038B5002008F0B4F910F1020F67D0044645
:10562000394B1B78002B63D01B2807D0043B052B7C
:105630005DD8DFE803F01F5C2C2E5C21324B00228A
:105640001A70324808F0D3F951E001350C2D4EDCC8
:1056500005EB45032E4A12F82330A342F5D105EBA2
:1056600045022B4B03EB82035B689847264B0022D5
:105670001A70EAE70025E9E7A0F13003082B36D8D5
:105680001846FFF7FFFE204B00221A702FE0462835
:1056900005D0A4F13003092B07D900250DE0FFF751
:1056A00065FD194B00221A70F3E72046FFF7D0FE84
:1056B000154B00221A701AE001350E2D17DC05EB90
:1056C0004503144A12F82330A342F5D105EB4502F5
:1056D000104B03EB82035B6898470B4B00221A7058
:1056E000EAE703EB430301EB83035B68984738BDAC
:1056F0000023122BFBDC03EB4302074911F82220A5
:10570000A242EED00133F4E77FB20020244B021016
:105710005C310020A8300020F831002003460268E8
:10572000EFF3108172B6D2E8CFCF0120BCF1000FA9
:10573000F9D1C2E84C0FBCF1000FF4D1BFF35F8F79
:1057400018895A89801A02D5DA8901321044002258
:105750001B68C3E88F2F81F31088704708B53C4859
:1057600008F045F93B4B3C4A196812683B4808F081
:105770006DF93B4B3B4A196812683B4808F066F9E3
:105780003A4B3B4A196812683A4808F05FF93A4BBD
:105790003A4A196812683A4808F058F90A2008F09D
:1057A00017F9384B384A19681268384808F04EF92A
:1057B000374B384A19681268374808F047F9374BB1
:1057C000374A19681268374808F040F9364B374AAB
:1057D00019681268364808F039F9364808F007F9B0
:1057E000002002F046FC28B33349344808F02EF973
:1057F000042002F03EFC48B32F49314808F026F956
:10580000022002F036FCF8B12B492E4808F01EF9B0
:10581000012002F02EFCA8B127492B4808F016F908
:10582000032002F026FC38B1BDE808402249274891
:1058300008F00CB92649D8E725492448BDE80840B6
:1058400008F004B92249E8E72149DEE72049D4E716
:1058500014580210283300202C330020485802101E
:10586000203300202433002070580210F032002032
:10587000F432002098580210183300201C33002006
:10588000C05802101033002014330020E8580210D2
:10589000083300200C33002010590210F832002089
:1058A000FC3200203859021000330020043300205D
:1058B0006059021084A702100019021088590210C2
:1058C000A4590210C0590210DC590210F8590210F4
:1058D0000419021008B51E4800F046FD1D4B1E4A73
:1058E000196812681D4800F03FFD1D4B1D4A1968DC
:1058F00012681D4800F038FD1C4B1D4A19681268DB
:105900001C4800F031FD1C4B1C4A196812681C48E9
:1059100000F02AFD1B4B1C4A196812681B4800F056
:1059200023FD1B4B1B4A196812681B4800F01CFD25
:105930001A4B1B4A196812681A4800F015FD1A4BD9
:105940001A4A196812681A48BDE8084000F00CBDF0
:10595000145A0210283300202C330020485A021019
:1059600020330020243300206C5A0210F032002033
:10597000F4320020905A0210183300201C3300200B
:10598000B45A02101033002014330020D85A0210E9
:10599000083300200C330020FC5A0210F83200209B
:1059A000FC320020205B0210003300200433002072
:1059B000445B02102DE9F04FCD4E89B001213068D3
:1059C00008F0B2FA0346CB4FCB4930683B6008F091
:1059D000C7FADFF884830121C8F80000306808F0B6
:1059E000A3FADFF878A3C549CAF80000306808F0C8
:1059F000B7FADFF86CB30121CBF80000306808F08B
:105A000093FABF4BBF491860306808F0A9FABE4D41
:105A1000BE4A01211060286808F086FABC49BD4CD6
:105A20000860BD49286808F09BFA012120602868B9
:105A300008F07AFAB94BBA491860286808F090FA69
:105A4000B84A01211060286808F06EFAB64CB749D0
:105A50002060286808F084FAB54B01211860286896
:105A600008F062FAB34AB4491060286808F078FA7E
:105A70004FF480330124D8F80090B04A049309F120
:105A8000140310601B0309EB040243EAC2133F68CE
:105A900023F0C0430094D6F800800593A84AA94B90
:105AA0003946CDE90632404602231A2208F08CFA24
:105AB00008F12F4101F56001090D0631C9B21A2024
:105AC000039104F0C1FA03991B2004F0BDFA0DF113
:105AD000100C4A4663463946404608F0C4FA4FF473
