:020000041000EA
:10000000002008205D01001013010010016F011095
:100010001101001011010010110100101101001058
:100020001101001011010010110100101701001042
:100030001101001011010010190100101B01001026
:100040001D0100101D0100101D0100101D010010F8
:100050001D0100101D0100101D0100101D010010E8
:100060001D0100101D0100101D0100101D010010D8
:100070001D0100101D0100101D0100101D010010C8
:100080001D0100101D0100101D0100101D010010B8
:100090001D0100101D0100101D0100101D010010A8
:1000A0001D0100101D0100101D0100101D01001098
:1000B0001D0100101D0100101D0100101D01001088
:1000C0001D0100101D0100101D0100101D01001078
:1000D0001D0100101D0100101D0100101D01001068
:1000E0001D0100101D0100101D0100101D01001058
:1000F0001D0100101D0100101D0100101D01001048
:100100001D0100101D0100101D0100101D01001037
:1001100000BE00BE00BE00BE00BE00BEEFF3058004
:10012000103800BEF2EB8871E092031010930310B8
:10013000A801001090A31AE7D3DEFFFF42012110AF
:10014000FF01000080CC0300793512AB4FF00000B6
:100150002049086006C881F3088810474FF05040D6
:10016000006810B14FF00000F2E70FA40ECC002998
:1001700002D000F015F8F9E71749184A002000E00E
:1001800001C19142FCD1002080F30A8814498847BC
:10019000144988471449884700BEFDE701C901C2D8
:1001A0009A42FBD3704700BF1093031088010020D0
:1001B000303C0020B8CD03100000082000000820CB
:1001C000B8CD031000100820001008200000000027
:1001D0007047000008ED00E0303C002008B000202F
:1001E0003DBA00105D03001001BA0010F8B500BF61
:1001F000064B0749C91A891048BF0131491003D07D
:10020000044B0BB101481847704700BF303C002039
:10021000303C00200000000008B5054B1BB105492B
:100220000548AFF30080BDE80840FFF7E1BF00BF1D
:100230000000000034AF002058E0011070B584B019
:1002400005460C4601AB02AA03A909F083FC18B9C4
:1002500054B9204604B070BD0646019A029903982D
:1002600009F046FC3446F4E72946014808F074F9E1
:1002700058E00110002203E0002120F812100132A2
:100280005D2AF9DD44F24102A0F8B8200022C283C1
:100290000284428402808280A0F8A020A0F8A220DC
:1002A000A0F8A420A0F8A620A0F8A820A0F8782004
:1002B00001228287C287A0F84620A0F85020A0F82B
:1002C00052204FF05042526812F4003F01D00020FB
:1002D000704700B583B0FE22009203464FF4E83227
:1002E000052103481DF06CFE012003B05DF804FBFE
:1002F000000008404FF050435B6813F4003F01D00A
:100300000020704700B583B0FE23009303464FF4EE
:10031000E832052103481DF053FE012003B05DF8CB
:1003200004FB00BF000008404FF050435B6813F42B
:10033000003F01D00020704700B583B0FE2300933A
:1003400003464FF4E832052103481DF01DFE01204D
:1003500003B05DF804FB00BF0000084000B583B0A7
:1003600001214348FFF76AFF0BF0B4FC06F09AFE48
:1003700001F0A6F906F0B6FE4FF47A7009F09CF889
:10038000192006F083FE4FF47A7009F095F81920D1
:1003900006F07CFE01231C468DF8043000208DF809
:1003A000050001A90CF0FCFE06F014F91C2344EC36
:1003B000403004F0F3FA07F061FB06F061F906F053
:1003C00057FF06F00BFF07F0A1F801F079F9294C6F
:1003D0002046FFF7A9FFB4F8B82044F241039A423F
:1003E0003ED124480123C38303848380FFF782FF27
:1003F00005F082F801F0AEF919234FF0000242EC4B
:10040000403004F043FA07F0E9FD0CF02FFA1A48E7
:100410000CF0C8FA03F0D0FE03F0A2FD0CF0EEF9E8
:10042000164B02221A60A3F500531B6883F4804325
:1004300003F47043124A136001F042F904F030FAF9
:1004400000214FF0FF300DF099FA05F035F803F078
:10045000E1FC06F077F906F015FF07F0CDF9EDE7BE
:100460002046FFF707FF2046FFF744FFB9E700BF2C
:1004700048E8010010AA0020DD04002000200A4006
:1004800000100A4010B54FF4FA740BE0022009F096
:1004900013F8013C002005F0D1FF00214FF0FF30A0
:1004A0000DF06CFA002CF1DC10BD000070B5FFF708
:1004B000E9FF00244FF4801516E02A4621460C4837
:1004C00004F052FBFFF7DEFFEFF3108372B6094E24
:1004D00033604FF4801128461DF066FD336883F3C6
:1004E000108805F580150134022CE6DD70BD00BFD3
:1004F0008CE001100471002003460144B1F5401F57
:100500000ED80A48006810F803C0184613449942F0
:1005100002D9BCF1FF0FF4D0BCF1FF0F02D070473D
:10052000002070474FF0FF30F9E700BF302E002069
:1005300030B5C1B0012219490020FFF7DDFFB0F14D
:10054000FF3F25D1164804F00FFB4FF48072FF21C6
:10055000684618F04BFA41258DF800501E221149CB
:100560000DF1010018F03EFB00238DF81F3002232F
:1005700008934FF48072099240238DF828308DF84B
:10058000295069464FF480101DF0C6FC41B030BDC3
:100590000146054804F0E8FAF8E700BF00FF2F0025
:1005A000C4E00110ECE0011004E10110034B1B78E2
:1005B000412B01D00020704701207047000010102F
:1005C000F0B5C1B0054600F58057B7F5401F34D9E6
:1005D0004FF4401731E01E4B1B685A5D1D4901A8BE
:1005E00020440BF079F90334013501360F2EF2DD8A
:1005F000103D01AB1919184A1088927818538A7067
:100600000234002607E0154901A820440BF064F9E4
:100610000134013501360F2E09DC0D4B1B685A5D84
:10062000A2F12003DBB25E2BEDD92E22EBE701A96C
:100630000B4804F099FABD4207D22A46094901A89D
:100640000BF04AF900260A24D0E741B0F0BD00BF04
:10065000302E00203C000210A0FF011050E10110DC
:1006600070FE011048E101102DE9F843044601F144
:1006700028074FF00008C146B4F5401F19D204F115
:10068000805505F580152E7800214FF0FF300DF0D4
:1006900075F97F2E10D0FF2E02D06EB16C6AEBE799
:1006A000C4F54013BB421CD943451DD3B9F1000F1B
:1006B0001CD04846BDE8F8836B6A1A1B974206D8DF
:1006C000B8F1000F05D0904507D81C46D4E71C466A
:1006D000D2E79046A1461C46CEE79046A1461C466E
:1006E000CAE74FF0FF39E4E7A146E2E7A146E0E7B9
:1006F00000E0586AB0F5401F0BD200F1805303F5BB
:1007000080131A78FF2A04D0412AF2D94FF0FF3023
:100710007047B0F5401F00D870474FF0FF3070476A
:10072000F8B50746002500E0656AB5F5401F0FD211
:1007300005F1805404F580142678FF2E0CD039463C
:10074000601C18F0A1F90028EED1002EECD001E0D9
:100750004FF0FF352846F8BD4FF0FF35FAE70000AF
:100760002DE9F047C0B004460D46154F396820F01A
:10077000FF094FF4807A52464944684618F082FCDB
:10078000E3B20DF80350FFF77DFEEFF3108372B66E
:10079000DFF83080C8F800305246694609F580100D
:1007A0001DF0BAFBD8F8003083F310883B68185D61
:1007B000A84214BF0020012040B0BDE8F08700BF70
:1007C000302E0020047100202DE9F04FADF5005DC2
:1007D00083B020F0FF0404F5801421F0FF0505F537
:1007E000801824F47F6626F00F0628F47F6727F030
:1007F0000F0707F5805704F47064A7EB080B06F1A8
:100800008053019305F1805505F580150DF5805A4B
:100810000AF1080A4FF48052FF21504618F0E6F81A
:100820000DF108094FF48052FF21484618F0DEF818
:1008300022460199504618F025FC5A46294648465A
:1008400018F020FCFFF71EFEEFF3108372B60C4D7C
:100850002B60B91B30461DF0A7FB2246514630469F
:100860001DF05AFB5A46494640461DF055FB2B6881
:1008700083F310880DF5005D03B0BDE8F08F00BF75
:10088000047100200022134600E0013240F6FE71A0
:100890008A420BDC0749096831F812100B44B3F5A2
:1008A000806FF2DBC3F309030133EEE75B42C3F36E
:1008B000090070476C30002008B503F065FF08BDE3
:1008C00008B5074A1368B3FA83F35B09136023B1D1
:1008D000044905480BF06AFA08BD0449F9E700BF6E
:1008E00078300020481B021058E1011054E101103B
:1008F00008B5074A1368B3FA83F35B09136023B1A1
:10090000044905480BF052FA08BD0449F9E700BF55
:1009100074300020481B021068E1011054E10110FE
:1009200008B5074A1368B3FA83F35B09136023B170
:10093000044905480BF03AFA08BD0449F9E700BF3D
:1009400070300020481B021080E1011054E10110BA
:1009500008B5094A136803F59C5308331360074A26
:10096000934202DD044B00221A60034B19680448CD
:100970000BF01CFA08BD00BFA4AF0020A086010048
:1009800094E1011008B503480BF010FA024B042261
:100990001A7008BDB4E1011006B0002008B5064A7F
:1009A000137883F00103137023B1044904480BF05A
:1009B000FDF908BD0349F9E7F1AF0020481B02101B
:1009C000BCE1011054E1011008B5084A138883F412
:1009D00000739BB2138013F4007F04D004490548D0
:1009E0000BF0E4F908BD0449F9E700BFCC30002062
:1009F000481B0210DCE1011054E1011008B5084A5F
:100A0000138883F480739BB2138013F4807F04D027
:100A1000044905480BF0CAF908BD0449F9E700BFCD
:100A2000CC300020481B0210FCE1011054E1011001
:100A300008B5084A138883F480639BB2138013F4CB
:100A4000806F04D0044905480BF0B0F908BD044993
:100A5000F9E700BFCC300020481B021024E201104F
:100A600054E1011008B5084A138883F400639BB26F
:100A7000138013F4006F04D0044905480BF096F975
:100A800008BD0449F9E700BFCC300020481B021024
:100A900048E2011054E1011008B503480BF086F953
:100AA000024B07221A7008BD6CE2011006B000204C
:100AB00008B505480BF07AF904480BF077F9044BB8
:100AC00006221A7008BD00BF74E20110A0E20110F6
:100AD00006B0002008B54FF050435B6813F0807FEC
:100AE00004D0034903480BF061F908BD0249F9E756
:100AF000481B0210CCE2011054E1011008B5064871
:100B00000BF054F94FF47A7008F0D6FC0121084636
:100B100009F01EF908BD00BFF8E2011008B506484B
:100B20000BF044F94FF47A7008F0C6FC00214FF046
:100B3000007009F056F900BF18E3011008B507F07E
:100B4000F3F808BD08B5044A1388C3F30D031380F6
:100B500002480BF0FCF808BDCC30002048E301103F
:100B600008B5054A13886FEA43436FEA534313807D
:100B700002480BF0ECF808BDCC30002064E3011013
:100B800008B5054A1388C3F30D0343F4804313806B
:100B900002480BF0DCF808BDCC30002084E30110E3
:100BA00008B5074A138843F480531380054B02228B
:100BB0001A6003F0E9FD04480BF0C9F808BD00BF56
:100BC000CC30002020AF0020A4E3011008B5074A74
:100BD000138843F400531380054B02221A6003F07C
:100BE000D3FD04480BF0B3F808BD00BFCC300020A3
:100BF00020AF0020C0E3011008B504480BF0A7F8AF
:100C0000034904480BF0D2F808BD00BFE0E301102F
:100C100085080010F8E3011008B50A480BF097F8B2
:100C2000094B01221A7009480BF0C0F8084B1968EB
:100C3000002903DB07480BF0B9F808BD06480BF0A4
:100C4000B5F8FAE718E4011002B0002044E40110FE
:100C50006830002090E4011068E4011008B50A48EB
:100C60000BF075F8094B02221A7009480BF09EF838
:100C7000084B1968002903DB07480BF097F808BDFB
:100C800006480BF093F8FAE7ACE4011002B000203C
:100C9000D8E401106830002090E4011068E40110ED
:100CA00008B514480BF053F813480BF050F8134BE9
:100CB0001B7873B1124A116800290ADB012B12D08C
:100CC000022B0CD10F4B01221A700F480BF06EF85B
:100CD00005E00C4B00221A700C480BF067F80C482A
:100CE0000BF035F808BD074B01221A7009480BF0CC
:100CF0005DF8F4E7FCE4011028E5011002B00020E3
:100D000068300020FEAF00200CE6011060E5011005
:100D10005CE60110B8E5011010B50B480BF017F8B0
:100D20000A4C237883F001032370094B19680948A2
:100D30000BF03CF8237823B1074908480BF036F84C
:100D400010BD0749F9E700BFB8E60110F9AF002070
:100D500068300020D8E60110481B0210FCE60110A4
:100D600054E1011010B50B480AF0F1FF0A4C23784A
:100D700083F001032370094B196809480BF016F83A
:100D8000237823B1074908480BF010F810BD074934
:100D9000F9E700BF14E70110FAAF00206830002027
:100DA000D8E60110D81B021034E7011054060210D7
:100DB00008B502480AF0CBFF08BD00BF44E70110A8
:100DC00008B503480AF0C3FF03F022FD08BD00BFC9
:100DD00054E7011010B539480AF0B9FF384B1B78B9
:100DE000002B68D0374938480AF0E0FF374C21889B
:100DF00037480AF0DBFF2188C90B36480AF0D6FFD6
:100E00002188C1F3803134480AF0D0FF2188C1F332
:100E1000403132480AF0CAFF2188C1F3003130481E
:100E20000AF0C4FF2188C1F3C0212E480AF0BEFF9A
:100E30002188C1F380212C480AF0B8FF2188C1F332
:100E400040212A480AF0B2FF2188C1F30021284836
:100E50000AF0ACFF2188C1F3C01126480AF0A6FFB2
:100E60002188C1F3801124480AF0A0FF2188C1F332
:100E7000401122480AF09AFF2188C1F3001120484E
:100E80000AF094FF2188C1F3C0011E480AF08EFFCA
:100E90002188C1F380011C480AF088FF2188C1F332
:100EA00040011A480AF082FF218801F00101184828
:100EB0000AF07CFF10BD174995E700BF48FE0110FE
:100EC000F1AF0020481B021088E70110CC30002051
:100ED0009CE70110B0E70110E0E701102CE80110D9
:100EE00058E801108CE80110B8E80110E0E80110A2
:100EF00004E9011030E9011060E90110A4E90110D2
:100F0000D4E9011004EA011034EA011060EA01108A
:100F100094EA011054E1011010B50E480AF017FFD1
:100F20000D480AF043FF0D480AF040FF00240AE094
:100F30000B4904EB44029300CA189268C95C094843
:100F40000AF034FF01340E2CF2DD07480AF0FFFEF0
:100F500010BD00BFC8EA0110E8EA011010EB011053
:100F6000342E00203CEB011048EB011008B502F0D4
:100F7000F7FF08BD70B51C480AF0E9FE00260BE03B
:100F80002A191A4B1B6833F8121019480AF00EFF81
:100F900001340F2CF4DD0136072E06DC350129461D
:100FA00014480AF003FF0024F3E70A200AF0C0FE09
:100FB000F8260BE02A190D4B1B6833F812100C4869
:100FC0000AF0F4FE01340F2CF4DD0136FF2E06DCAE
:100FD0003501294607480AF0E9FE0024F3E70A2014
:100FE0000AF0A6FE70BD00BF90EB01106C3000202F
:100FF000B4EB0110A4EB011070B50F480AF0A7FE86
:1010000000260BE02A190D4B1B6833F812100C4810
:101010000AF0CCFE01340F2CF4DD0136FF2E06DC85
:101020003501294607480AF0C1FE0024F3E70A20EB
:101030000AF07EFE70BD00BFBCEB01106C300020DA
:10104000B4EB0110A4EB011000B583B01E480AF008
:101050007EFE1E4B1B78BBB11D4A1168002913DBB5
:10106000012B1AD0022B12D11A480AF09FFE184BFE
:101070001A684FF400530093174B1B685203052165
:1010800016481CF081FF02E015480AF060FE0A20B5
:101090000AF04EFE03B05DF804FB12480AF086FE2B
:1010A00000230CE00A4A126803EB02320A4909687D
:1010B0000D48006830F8122021F813200133B3F5F1
:1010C000805FEFDBE3E700BFD8EB011002B0002048
:1010D0006830002068EC01106C30002000000840EF
:1010E000FCEB011044EC0110C430002070B5B2B02C
:1010F0000A200AF01DFE002407E0144B53F82420B8
:10110000214613480AF052FE0134042C1BDC204611
:1011100005F099F90028F0D00C4E56F8242021460D
:101120000C480AF043FE56F8243022460A49684625
:101130000AF0D2FB02466946204605F0F5F9204642
:1011400005F07CF9E0E732B070BD00BFA0200310CD
:10115000D4EC01108CEC0110B0EC011010B50E486D
:101160000AF0F5FD0D480AF021FE0D480AF01EFEBA
:1011700000240AE00B4904EB44029300CA18926869
:10118000C95C09480AF012FE0134122CF2DD0A2073
:101190000AF0CEFD10BD00BFF8EC011004ED011007
:1011A00018ED0110842F00203CEB011010B50E4803
:1011B0000AF0CDFD0D480AF0F9FD0D480AF0F6FDE4
:1011C00000240AE00B4904EB44029300CA18926819
:1011D000C95C09480AF0EAFD01340C2CF2DD0A2052
:1011E0000AF0A6FD10BD00BF30ED011050ED01105A
:1011F00010EB0110E82E00203CEB011010B582B07E
:1012000028480AF0A4FD284B1B781BB1274B1B680C
:10121000002B02DA264B1B78D3B126480AF0C6FD14
:10122000214B1B78012B1AD0022B36D11F4C216881
:101230004A0321480AF0BAFD22684FF40053009394
:101240001E4B1B68520305211D481CF0B9FE24E00B
:10125000174B00221A701B480AF079FD1DE0134C51
:1012600021684A0302F1805202F5002216480AF072
:101270009DFD4FF4FA6008F01FF9206840304FF4EC
:10128000005140031CF090FE206840304FF40052A3
:101290000A4B196840031CF03FFE0C480AF057FD4A
:1012A00002B010BD7CED011002B0002068300020BB
:1012B000FEAF0020F4ED011030EE01106C30002084
:1012C00000000840A0ED011008EE011058EE0110DA
:1012D0002DE9F04107464FF47462002117F086FBB8
:1012E000002623E0F42406FB04F407EB04080025A1
:1012F000A8F83850C8F83050C8F83450C8F85C50D6
:1013000088F83A5088F8F05038343C4402342022AF
:101310002946204617F06AFB1F220E4B53F8261071
:10132000204617F05FFC88F8595001360F2ED9DDA2
:1013300080233B81A7F8FC30A7F8F031A7F8E4320E
:101340003B87A7F82C31A7F82032A7F81433BDE863
:10135000F08100BFC0300310F8B5044616461A46A7
:10136000069B770006EB4600F42501FB05F505EB2F
:10137000001021180A81235062194FF0010C82F8E5
:10138000F0C0094A1A444A60083020441F22074925
:101390001944023017F026FC374405EB07152C449E
:1013A000002384F82930F8BD280010100100101027
:1013B00038B5049C02EB420E4FF0F40C0CFB01FC20
:1013C0000CEB0E1E00EB0E052B81002340F80E30B7
:1013D000844401238CF8F0306C60062902D0072980
:1013E0001FD038BD63881B2B11D0192BF7D102EB0E
:1013F0004202F42301FB03F303EB02130833184406
:101400001F22104B9968023017F0ECFBE9E7734696
:10141000083318441F220B4B5968023017F0E2FBC7
:10142000DFE702EB4202F42303FB01F101EB0211BF
:10143000083108441F22034B1968023017F0D2FB11
:10144000CFE700BFB4300310032900D870472DE95F
:10145000F843044602EB4203F42202FB01F606EBDA
:10146000031300EB03090027C750A9F8087006F121
:10147000380020441F22074B53F82110023017F088
:10148000B1FBA31983F85970C9F82C70C9F804701E
:10149000BDE8F883C030031030B585B0044644F28F
:1014A0004103ADF80E30FFF713FF0A4D4FF474639C
:1014B000009323461022052128461CF081FD0223BB
:1014C00000930DF10E030022052128461CF078FD43
:1014D00005B030BD000008404FF050435B6813F486
:1014E000003F00D0704700B583B04FF474630093A1
:1014F00003461022052103481CF062FD03B05DF88D
:1015000004FB00BF0000084001F1FF3CBCF10E0FDE
:1015100000F2888002F1FF3CBCF1030F00F28480EE
:1015200030B502EB420E4FF0F40C0CFB01FC0CEB5F
:101530000E1C8444BCF8084014F4807F37D0F42497
:1015400004FB01F101EB0E1C8444DCF8044004F5BB
:101550008054B4F8FC5F05F03F05344C655D1D70A8
:10156000DCF8045005F58055B5F8FA5F05F03F0545
:10157000655D5D702D259D70DCF8045005F5805C7F
:10158000BCF8F8CF0CF03F0C14F80C50DD7001EBF8
:101590000E1101444A6802F58052B2F8F62F02F0AB
:1015A0003F02A25C1A7100225A71012030BD02EB89
:1015B00042044FF0F40C0CFB01FC0CEB0411014451
:1015C0004C6804F58054B4F8FCEFCEF3052E174CAC
:1015D00014F80E501D704D6805F5805EBEF8FAEFE8
:1015E000CEF3052E14F80E505D702D259D704968C0
:1015F00001F58051B1F8F81FC1F30521615CD97084
:1016000002EB42020CEB021C6044426802F580527D
:10161000B2F8F62FC2F30522A25C1A7100225A71A9
:101620000120C3E7002070470020704700310310FD
:101630000F2900D9704770B582B005460E46F422D6
:1016400001FB02F2383202440232114803F08CFAF4
:10165000002418E004EB44034FF0F40C0CFB06FCF0
:101660000CEB031C0CF108022A4405EB0C010B895E
:101670004968019155F80C10009102322146054845
:1016800003F072FA0134042CE4DD02B070BD00BF37
:10169000A4EE0110B0EE01100148024BC01A7047D1
:1016A0000000082008B0002000B58BB0684616F096
:1016B0008FF9FFF7F1FF079BC01A0BB05DF804FB31
:1016C0002DE9F047012008F0E5F98246022008F0F4
:1016D000E1F98146032008F0DDF98046092008F091
:1016E000D9F907460A2008F0D5F906460B2008F07C
:1016F000D1F905460C2008F0CDF9044651460E48B4
:101700000AF054FB49460D480AF050FB41460C488C
:101710000AF04CFB39460B480AF048FB31460A48B0
:101720000AF044FB294609480AF040FB21460848D4
:101730000AF03CFBBDE8F087ECEE011000EF011071
:1017400014EF011028EF01103CEF011050EF0110D1
:1017500064EF011010B5144C20460AF027FB134823
:101760000AF024FBFFF798FF014611480AF01EFB20
:10177000FFF79AFF01460F480AF018FB0E4A41F2A4
:1017800088310E480AF012FB052008F07DF90C4B59
:10179000A3FB003189090B480AF008FB20460AF038
:1017A000D6FAFFF78DFF10BD78EF0110C8EF0110DA
:1017B00018F0011034F00110A0F7030050F00110F0
:1017C000D34D621078F001102DE9F04F2DED048B10
:1017D0008DB0FFF775FF012008F05CF9824602200A
:1017E00008F058F98146032008F054F98046092092
:1017F00008F050F907460A2008F04CF906460B207D
:1018000008F048F905460C2008F044F90390744BA1
:1018100004221A60734B1B6813F4807FFAD0714B5B
:101820005B689BB207EE903AF8EE677A9FED6E7AAE
:1018300067EE877A9FED6D7A77EEC77ADFED6C6A97
:1018400087EEA67AF3EE0B9A79EEC79A052008F098
:101850001BF9684BA3FB0030800C07EE900AB8EE32
:10186000678AFFF719FF800A07EE900AB8EE679AB9
:10187000FFF71AFF800A07EE900AF8EE678A0AA8B7
:101880000AF018FC00240BE004F130036B4413F859
:10189000082C594905A800EB44000AF01DF8013452
:1018A000072CF1D9DFF8C0B1584603F05DF9534871
:1018B00003F05AF9524803F057F9524803F054F92B
:1018C000514803F051F9514803F04EF9504B514A39
:1018D0005149524803F048F9514C204603F044F96D
:1018E000504803F041F918EE100A1CF03DFB024687
:1018F0000B464D4803F038F951464C4803F034F993
:1019000049464B4803F030F941464A4803F02CF968
:101910003946494803F028F93146484803F024F98C
:101920002946474803F020F90399464803F01CF97B
:10193000F2EE027A69EEA77AB1EE047A87EE878A30
:10194000DFED417A38EE278A19EE900A1CF00CFB85
:1019500006460F4618EE100A1CF006FBCDE9000102
:1019600032463B46394803F0FFF805A9384803F0F2
:10197000FBF8204603F0F8F8364803F0F5F84FF48A
:101980000271354803F0F0F819EE100A1CF0ECFA79
:1019900002460B46314803F0E7F818EE900A1CF0B7
:1019A000E3FA02460B462E4803F0DEF83423019397
:1019B00041F28833009308A3D3E90023294803F0B8
:1019C000D3F8204603F0D0F8584603F0CDF80DB018
:1019D000BDEC048BBDE8F08F0000000000A06F405C
:1019E00000200A4000000A403333533A6ABC343FB7
:1019F0002D93E13A83DE1B438C100210E4F00110BA
:101A0000F8F0011028F1011074F10110B4F1011087
:101A1000F0F10110FCF1011008F2011014F20110B4
:101A2000C4EF011034F2011048F2011068F2011005
:101A300084F20110A0F20110BCF20110D8F20110E2
:101A4000F4F2011010F30110000000422CF3011019
:101A500054F301108CF301109CF30110BCF301103E
:101A6000DCF30110FCF3011094F0011008B502F052
:101A700033FB08BD08B5002004F0E5FC20B317498E
:101A8000174803F071F8012004F0DDFCF0B11349B0
:101A9000144803F069F8022004F0D5FCC0B10F49E6
:101AA000114803F061F8032004F0CDFC90B10B491C
:101AB0000E4803F059F8042004F0C5FC60B1074952
:101AC0000B4803F051F808BD0A49D9E70949DFE797
:101AD0000849E5E70749EBE70649F1E740F401105B
:101AE00048F4011070F4011098F40110C0F40110D2
:101AF000E8F4011044F4011070B5B2B0164803F0D8
:101B000033F8002407E0154B53F8242021461448ED
:101B100003F02AF80134042C1BDC204604F093FC6B
:101B20000028F0D00D4E56F8242021460D4803F031
:101B30001BF856F8243022460B49684609F0CCFEC3
:101B400002466946204604F0EFFC204604F076FC8D
:101B5000E0E732B070BD00BF3C2F0210A0200310A0
:101B600058F5011010F5011030F5011008B50E48B8
:101B700002F0FAFF01214FF4FA6008F0E9F80021C1
:101B80004FF0FF300BF0FAFE002004F0C2FC0028FA
:101B9000F5D0064B4FF080421A60002004F0BEFCE6
:101BA000034802F0E1FF08BD78F5011000B00D40D8
:101BB000BCF5011010B50F4802F0D6FF4FF4FA74CF
:101BC00000214FF0FF300BF0D9FE022007F074FC2B
:101BD000002004F09EFC30B9013CF1D100214FF00F
:101BE000007008F0FEF8002004F098FC024802F0B3
:101BF000BBFF10BDD0F50110BCF5011010B50446B7
:101C0000B8B90F4802F0B0FF192005F03FFA16E00E
:101C100021460C4803F00AFC192005F037FAFA2097
:101C200007F04AFC192005F031FAFA2007F044FCCD
:101C3000013C631E082BEBD9034802F095FF10BD51
:101C400024F6011038F60110A813021008B54FF061
:101C500050435B6813F4003F01D1012008BD0248E6
:101C600002F082FF0020F9E73CF6011008B50348B6
:101C700002F07AFF02F0CCFD08BD00BF80F6011033
:101C800008B5FFF7E3FF00B908BD034802F06CFF99
:101C900002F07AFDF8E700BFA4F6011008B5FFF7DF
:101CA000D5FF00B908BD034802F05EFF0248FEF709
:101CB000E1FAF7E7C8F6011010AA002010B5FFF707
:101CC000C5FF70B910BD084B53F82430074A32F8ED
:101CD00014202146064802F047FF01345F2CF2DD54
:101CE000F0E70024FAE700BF4491031010AA002097
:101CF000F4F6011008B505F075FF08BD08B506F04B
:101D000013F808BD08B505F0D7FE08BD08B505F005
:101D10003DFF08BD08B505F0B5FE08BD08B506F0E5
:101D200073F908BD08B506F075F908BD2DE9F04155
:101D3000ADF5805D84B080460F46046901F18055A1
:101D400005F58015284802F00FFF284802F00CFF27
:101D500029466B6A019300972B6A11F8012B2448DE
:101D600002F002FF296AA1420CD1224E3E44002219
:101D7000039200220023404610F0C4FE01204FF4DD
:101D800080571CE01C4802F0EFFE04200DF5805D3A
:101D900004B0BDE8F08104A90B1F3A46404610F09C
:101DA0004BFC054688B904A951F8045C2A46304624
:101DB00016F070FDB0FA80F04009641B2E446CB13F
:101DC00060B1BC42E7D22746E5E715F085F9014648
:101DD0002A460A4802F0C8FE0020D7E708B90220C8
:101DE000D4E70120D2E700BF14F7011060F701101B
:101DF000ACF7011028001010D4F7011020F80110E2
:101E00002DE9F041ADF5955D86B006460F460122FD
:101E100001460EA810F06AFA28B93146A6A817F0B4
:101E200093F8002516E0044615F056F902462346BD
:101E30003146A24802F098FE0DF5955D06B0BDE86A
:101E4000F081AEAC2C4414F8200C16F07FF804F8A6
:101E5000200C0135A6A817F08BF9A842F1D82E2145
:101E6000A6A816F0F1FE0446129D03462A46314606
:101E7000934803F0DBFA2F21304616F0E5FE00B15F
:101E8000461C9049204616F081FF00284BD04FF0A9
:101E900000088D49204616F079FF08B94FF0030875
:101EA0008A49204616F072FF08B94FF004088849A5
:101EB000204616F06BFF08B94FF00508854920460B
:101EC00016F064FF08B94FF006088349204616F063
:101ED0005DFF08B94FF007088049204616F056FF0D
:101EE00008B94FF008087E49204616F04FFF20B38E
:101EF000B8F1000F1AD03046FEF712FC0446B0F1DC
:101F0000FF3F40D00146774802F02EFE022F33D12A
:101F100021460EA8FFF70AFF042830D8DFE800F0BA
:101F200017102F251E004FF00108B2E76E4802F08F
:101F30001BFE0EA810F03CFD7EE74FF00908DAE723
:101F40006A4802F011FE0EA810F032FD74E76848EE
:101F500002F00AFE0EA810F02BFD6DE7654802F0B6
:101F600003FE0EA810F024FD66E7634802F0FCFDB6
:101F70000EA810F01DFD5FE7604802F0F5FD0EA809
:101F800010F016FD58E70020FEF7B2FBB0F1FF3F5E
:101F900060D029460020FEF767FB0746B0F1FF3FFF
:101FA0005FD0C0F5401305F58072934260D304AC56
:101FB0008DF8108031460DF1110016F0C5FF0C951B
:101FC00007F1805303F580135A6A1B78FF2B56D014
:101FD0000D92012205F128013846FEF78DFA0146DF
:101FE000B0F1FF3F52D1AEAC04AE0097336A327805
:101FF0000DF11101424802F0B7FD4FF48052FF216C
:10200000204616F0F3FC0FCE0FC40FCE0FC496E897
:10201000030084E8030003AB40F6D872B8A90EA809
:1020200010F00AFB044600283DD1AEA9A1F52B769D
:10203000336803F2271323F0FF04EFF3108872B61E
:10204000224607F580101BF067FF88F3108836687A
:10205000AE1B76E02B4802F087FD0EA810F0A8FC1E
:10206000EAE6294802F080FD0EA810F0A1FCE3E6A4
:10207000264802F079FD0EA810F09AFCDCE605F285
:10208000271323F0FF033B446362A2E7204802F0DA
:102090006BFD0D9A39461F4802F066FD0D993846D2
:1020A000FEF792FB9FE715F017F8014622461A4803
:1020B00002F05AFD0EA810F07BFCBDE658F80110A6
:1020C00074F90110A4F80110ACF80110B4F8011073
:1020D000BCF80110C4F80110CCF80110D4F80110BC
:1020E000DCF80110ACF90110E4F80110D0F901108E
:1020F000F8F9011030F9011014FA011054FA011026
:102100003CFB011084FA0110A0FA0110C8FA01107A
:10211000F4FA011014FB011020F80110FF3424F030
:10212000FF04EFF3108872B6AEAD2246294607F5DC
:1021300080101BF0F1FE88F31088A5F52B752B6835
:10214000F61A002E12DDAEAD4FF48052FF21284664
:1021500016F04CFC03AB4FF4805229460EA810F049
:102160006BFA274403AD2C68002CD7D10EA810F0D1
:102170001FFC61E630B5ADF5337D0546FEF716FA76
:1021800068B3FF22002172A816F030FC2B7833B917
:10219000FF2172A810F021FC044648BB72AD29460D
:1021A000344802F0E1FC582200215CA816F01EFC25
:1021B0004FF49072002114A816F018FC05B32E4BB2
:1021C0002A4614A95CA810F0A2FE044640B314F0FD
:1021D00083FF01462246294802F0C6FC47E0284812
:1021E00002F0C2FC4FF44061264802F0BDFC3EE024
:1021F00014F072FF01462246234802F0B5FC36E097
:10220000224B234A40F23A41224809F0FDFB0021CB
:102210006846FFF7F5FD14A95CA810F061FE0446BE
:1022200014BB9DF86A30FBB100214FF0FF300BF07A
:10223000A5FB2946684616F087FE684616F098FF0B
:10224000154B1B882DF800300DF16A01684616F019
:1022500041FC9DF85C3013F0100FD8D00DF16A01ED
:102260000E4802F081FCD6E75CA810F0F0FD0DF5F9
:10227000337D30BD00FC0110C4EF011090FC011053
:1022800074FB0110B0FB0110DCFB011020FC0110FD
:1022900028FC011050FC0110B4FC0110B8FC011026
:1022A00070B506460C461546FFF7D0FC88B1012CE8
:1022B00013D0012D12D0042C15D0042D13D0022CD4
:1022C00018D0022D15D0032C14D0032D0FD00024CC
:1022D00010E00B4802F048FC10E02C462146304646
:1022E000FFF748FF0AE0074802F03EFC06E02C46F4
:1022F00000E02C4621463046FFF782FD70BD00BF4E
:10230000D4FC01100CFD011030B583B004464588A3
:102310006DBAADB2018849BA89B2374802F024FCDF
:102320002946364802F020FCE188A38803F47F4266
:1023300002EB11225BBA9BB2FF2B2BD892B2B2F503
:10234000805F2FD355BB2E4802F00EFC04F580545D
:10235000B4F8FC0FC0F305202A49B4F8FA2FC2F3F1
:102360000522B4F8F83FC3F30523B4F8F65FC5F3CC
:1023700005254D5D0095CB5C8A5C095C224802F026
:10238000F3FBB4F8FE1F49BA89B2204802F0ECFB17
:1023900003B030BD1E4802F0E7FBD7E71D4802F04E
:1023A000E3FBD3E7002DCED002F10043013B34F82C
:1023B00013305BBADBB200203F2B0FD80F280DDCA7
:1023C00003F03F030F49C95C134B19540130531EEE
:1023D0001B1A34F813305BBADBB2EDE703F03F03AE
:1023E0000849CB5C0C490B54013000230B540B48BB
:1023F00002F0BAFBAAE700BF2CFD011040FD01105E
:1024000090FD01104C1F0310F0FD01100CFE011097
:1024100054FD011070FD01104C5F0020B8FD01104B
:1024200010B501EB810C01F003014900C1F1080E68
:10243000FF2303FA01F2C1F106042341CCF38F0C10
:1024400010F80C4022400A41604441780B4003FAE6
:102450000EF39BB213FA82F080B210BD2DE9F04367
:1024600083B0074690F8B88201465F4802F07CFBD3
:10247000791D5E4802F078FB97F8B8125C4802F0CC
:1024800073FB00263AE05B4802F06EFB05E0B9F111
:10249000000F74D1584802F067FB04F5805494F89B
:1024A000FD3394F8FE5305F03F052D0105EB1315A0
:1024B00005F03F05514994F8FC23920894F8FB037A
:1024C00000F03F0094F8F9C394F8FA339B0003EB53
:1024D0009C1303F03F03CB5C00930B5C8A5C495D6B
:1024E000474802F041FB94F8FE1394F8FF339B0039
:1024F00003EB9111434802F037FB013646456FDA92
:1025000041F2444505FB067505F2D92231463E48A5
:1025100002F02AFB05F2FD2495F8FE3295F8FF92B1
:1025200009F00F094FEA891909EB930995F8FD1293
:1025300003F0030301EB0321344802F015FB494685
:10254000334802F011FBE3782579AD0005EB9315D4
:10255000A27803F03F031B0103EB1213DAB212025D
:1025600052FA85F5ADB2FF2B8DD8B5F5805F8ED3CD
:10257000B9F1000F8ED0274802F0F6FA8DE7691EF8
:1025800089B22046FFF74CFFC0B24FF0000911E0BE
:1025900000F03F00194B1A5C1F4B03F8092009F1AA
:1025A0000109A5EB090189B2013989B22046FFF77B
:1025B00037FFC0B23F2802D8B9F10F0FE8DD00F0B5
:1025C0003F000E4B1B5C144901F8093009F1010969
:1025D000002301F809302A46104802F0C5FA5CE7EA
:1025E00003B0BDE8F08300BF24FE011038FE0110E7
:1025F0004CFE011054FD011090FD01104C1F031002
:10260000F0FD01100CFE011060FE01102CFD011008
:1026100040FD011070FD01104C5F002074FE0110A0
:102620002DE9F043C1B081460146384802F09CFADA
:1026300009F10501364802F097FA99F8B8123548C1
:1026400002F092FA4FF000084446B8F1000F02DDA4
:1026500041B0BDE8F08341F2444707FB089707F219
:10266000FD272D4802F080FA2C4802F07DFA2C4814
:1026700002F07AFA39E021463846FFF7D1FE0246E9
:10268000284901A8284409F027F905350134A4B2E6
:1026900001360F2EEFDD103CA4B201AB5919224ACE
:1026A0001088927858538A700235002608E01F4936
:1026B00001A8284409F010F901350134A4B201360B
:1026C0000F2E0BDC21463846FFF7AAFEC2B2A2F15C
:1026D0002003DBB25E2BEAD92E22E8E701A91448D9
:1026E00002F042FAB4F5805F0CD200214FF0FF30C7
:1026F0000BF044F922460F4901A809F0EDF8002635
:102700000A25C6E708F101089FE700BF24FE011073
:1027100038FE01104CFE0110ACFE0110C4FE011089
:102720002CFF0110B4EB0110A0FF011050E10110CB
:1027300070FE011098FF011010B588B0013805280F
:1027400006D8DFE800F003075D9194BA05F02CFD90
:1027500008B010BD0C46084616F00AFD0C2803D040
:10276000584802F001FAF3E703238DF80C30237880
:10277000303BDBB21B01DBB262781344303B8DF897
:102780001330A378303BDBB21B01DBB2E278134499
:10279000303B8DF812302379303BDBB21B01DBB2CA
:1027A00062791344303B8DF8103000228DF81120EF
:1027B000A379303BDBB21B01DBB2E1790B44303B48
:1027C0008DF80F30237A303BDBB21B01DBB2617A2C
:1027D0000B44303B8DF80E30A37A303BDBB21B014B
:1027E000DBB2E17A0B44303B8DF80D3000920823C8
:1027F00003AA6821344809F0CAFF344802F0B4F94A
:1028000003A805F067FD9DF812309DF814209DF88F
:1028100015102F4802F0A8F99DF80F3003F07F0340
:102820009DF810209DF811102A4802F09DF99DF89E
:102830000E10294802F098F99DF80E3013F0040F9D
:102840000AD1264802F090F99DF90F30002B07DBE2
:10285000234802F089F97BE7224802F085F9F3E783
:10286000214802F081F973E705F0FAFC70E703A84C
:1028700005F030FD0024132C0ADC04F120036B4426
:1028800013F8142C2146194802F06EF90134F2E7CE
:102890009DF812309DF814209DF815100C4802F098
:1028A00063F99DF80F3003F07F039DF810209DF829
:1028B0001110084802F058F94AE70D4802F054F99F
:1028C00046E700BFA4FF011004350020E0FF01101F
:1028D000ECFF01101000021034000210440002103E
:1028E000700002105800021098000210D800021068
:1028F000EC0002102DE9F04198B007460C46FDF7B8
:1029000055FE70B3002C51D02046FDF709FF054657
:10291000B0F1FF3F30D000F1805404F580145848E6
:1029200002F022F9574802F01FF9214611F8012B55
:10293000236A606A01900095534802F077FD23787E
:10294000FBB17F2B21D0514802F00EF92378032BE5
:102950001FD0013BDBB2012B20D94D4802F004F916
:1029600007E04C4802F000F94FF440614A4802F099
:10297000FBF818B0BDE8F0812146484802F0F4F8B1
:10298000F7E7474802F0F0F8F3E7464802F0ECF8C2
:10299000EFE745482844FFF7B7FCEAE7424C6019E7
:1029A000FFF75CFD6019FFF73BFEE2E7344802F0F9
:1029B000DBF8344802F0D8F84FF00008454619E03B
:1029C000C5F540144146394802F0CEF8294638484A
:1029D00002F0CAF8A20A4FF44011364802F0C4F8D7
:1029E000C7E72F4802F022FD284802F0BDF8022F69
:1029F0002AD0656AB5F5401FBBD200214FF0FF30E9
:102A00000AF0BCFF05F1805404F580142378FF2BF5
:102A1000D6D004AE626A02920195226A0092621CCC
:102A20001949304608F058FF304602F0FFFC08F123
:102A300001022378002BD4D07F2B01D09046D3E71E
:102A4000184802F0F3FCCFE72278531EDBB2012BCB
:102A500006D9032ACDD114482844FFF755FCC8E70E
:102A6000114E2E443146144802F07EF8711D134871
:102A700002F07AF896F8B812114802F075F8B8E743
:102A80002801021060F70110ACF701103046021067
:102A9000E4F8011074FB0110B0FB011010010210EA
:102AA000740102108C01021028001010A001021005
:102AB000D80102101402021024FE011038FE011089
:102AC0004CFE0110F0B583B004460E461D46FFF7DC
:102AD000BDF820B3601E042821D8DFE800F00322EF
:102AE00036204A00464802F03FF8464C40F21713A1
:102AF000A4F8E4360023C4F8DC36012584F89C579A
:102B0000414BC4F8E0361F22404B196804F2E660DE
:102B100016F068F82046FEF7DFFC3D4B9D8003B0C1
:102B2000F0BD3C4802F020F8364C3B4B009340F29D
:102B30001713012206212046FEF73AFC2046FEF735
:102B4000CBFC334B00221A80E9E7344802F00CF842
:102B50002C4C334B009340F21713012206212046E0
:102B6000FEF726FC2046FEF7B7FC294B01221A800F
:102B7000D5E72846FDF7D4FD0746B0F1FF3F24D046
:102B800032462946274801F0EFFF07F1805404F54B
:102B90008014254801F0E8FF244801F0E5FF2146B4
:102BA00011F8012B236A606A01900097204801F018
:102BB000DBFF2378032B0DD02378013BDBB2012B05
:102BC000ADD81C4801F0D0FFA9E729461A4801F00A
:102BD000CBFFA4E7194DE819FFF796FBEA1907F1B7
:102BE0002801174801F0C0FF064D00971723012266
:102BF00031462846FEF7B0FB2846FEF76DFCDBE7C2
:102C0000640202103460002044710310B4300310D9
:102C100010AA00208C02021044510310BC020210C2
:102C200044310310E80202102801021060F701107D
:102C3000ACF7011038030210100102102800101028
:102C40000803021010B50446FFF700F800B910BDE4
:102C5000012221460B48FEF7F7FB062C09D0072C72
:102C60000BD02146084801F07FFF0648FEF734FCF0
:102C7000EDE7064B00221A80F3E7044B00229A800E
:102C8000EFE700BF346000206003021010AA0020AC
:102C90002DE9F043CFB00546A8B18C4BF42202FBDE
:102CA00000331B8F13F0010F00F0CA8001468748E4
:102CB000FEF7BEFC864801F057FF2D03ADB205F5C7
:102CC0008056B6B2FAE0834801F04EFF824801F028
:102CD0004BFF824801F048FF2C4625E02A461F2A78
:102CE0000ADC7A4BF42101FB0433134493F83A10C5
:102CF00044AB99540132F2E744AA2146784801F0E6
:102D000033FF10E0714BF42101FB0433134493F8BB
:102D10003A1044AB995401321F2AF3DD44AA2146EC
:102D2000704801F021FF01340F2C00F38D80674BB8
:102D3000F42202FB04331B8913F0800FCED1634BC6
:102D4000F42202FB04331B8F13F0010F0AD013F49B
:102D5000807609D013F4807F46D12146624801F085
:102D600003FFE0E72A46D7E74CAB0122214657484C
:102D7000FEF7CAFB2146631E0E2B31D8534BF422BB
:102D800002FB0433186B48B3504B02FB04335B6BFC
:102D90001A8852BA92B238B14C4BF42000FB04337B
:102DA0005B6B5E8876BAB6B24848F42304FB03F343
:102DB000C7183F8F3833034402330F2912D8014616
:102DC000F42000FB0411096B039102930197009614
:102DD0004CAB2146454801F0C7FEA4E73246DAE78E
:102DE0002A46E1E70021EFE726034CAFDFF8DC805D
:102DF0003B46012221464046FEF786FB1FFA86F934
:102E0000494640461BF090F8064609F1010189B297
:102E100040461BF089F8F42304FB03F308EB03029C
:102E2000118F383343440233526B03920293019162
:102E300000903B46324621462D4801F095FE72E750
:102E400001462C4801F090FE4FB0BDE8F0832919EF
:102E500089B21E481BF068F80246274905A8384485
:102E600008F03AFD074401340F2CF0DD05ABD91909
:102E7000224A10889278D8538A700237002406E0DC
:102E80001F4905A8384408F027FD013701340F2CED
:102E90000CDC291989B20D481BF046F8C2B2A2F128
:102EA0002003DBB25E2BEBD92E22E9E71035ADB261
:102EB00005A9144801F058FEAE42C5D92A46124968
:102EC00005A808F009FD00240A27CDE7346000209A
:102ED000A81302107403021088030210C403021026
:102EE0001004021054040210E004021098040210AE
:102EF000240502106C05021088050210A0FF0110C5
:102F000050E1011070FE011098FF011010B5044649
:102F1000FEF79CFEC8B1022C1CD0032C2BD0012C38
:102F200010D11D4801F020FE1C4B9B8873B11C4939
:102F30001C4801F019FE194B1B884BB118491A485F
:102F400001F012FE1548FDF7D5F910BD1749EFE75E
:102F50001649F4E7114B9B8833B9104B01229A8034
:102F6000134801F001FEEDE70C4B00229A80114856
:102F700001F0FAFDE6E7094B1B8833B9074B012244
:102F80001A800D4801F0F0FDDCE7044B00221A80A6
:102F90000A4801F0E9FDD5E79005021010AA0020CB
:102FA000D81B0210A4050210C0050210540602101E
:102FB000DC050210F8050210140602103806021093
:102FC00070B582B00546FDF7ABFBB0F1FF3F28D0EE
:102FD0000446FEF73BFE48B304F1805606F5801622
:102FE0002946184801F0C0FD174801F0BDFD1748FB
:102FF00001F0BAFD164801F0B7FD314611F8012B7A
:10300000336A706A01900094124801F0ADFD00210E
:103010002046FDF7A5FB78B129460F4801F0A4FD35
:1030200008E029460D4801F09FFD03E029460C48C1
:1030300001F09AFD02B070BD29460A4801F094FDE6
:10304000F8E700BF88060210A80602102801021047
:1030500060F70110ACF70110DC060210100102103D
:1030600060060210FC06021038B5054609281DD07E
:10307000A14B1B88E3B1013D072D00F2A080DFE8E2
:1030800015F01B00B100C900D800E700F4001101E1
:103090002601E0B204F042F90D2004F03FF90A20C5
:1030A00004F03CF90134592CF3DDE1E74124FAE75F
:1030B000924801F059FDDEE78F4BB3F8A6306BB1B3
:1030C0008F49904801F050FD8B4BB3F8A030032B93
:1030D00000F28280DFE803F00474787C8A49F0E72C
:1030E0008A4801F041FD8A4B1B78002B78D0894932
:1030F000894801F039FD894C2188894801F034FD67
:103100002188C90B874801F02FFD2188C1F3803148
:10311000854801F029FD2188C1F34031834801F041
:1031200023FD2188C1F30031814801F01DFD218874
:10313000C1F3C0217F4801F017FD2188C1F3802130
:103140007D4801F011FD2188C1F340217B4801F049
:103150000BFD2188C1F30021794801F005FD21888C
:10316000C1F3C011774801F0FFFC2188C1F3801141
:10317000754801F0F9FC2188C1F34011734801F052
:10318000F3FC2188C1F30011714801F0EDFC2188A6
:10319000C1F3C0016F4801F0E7FC2188C1F3800151
:1031A0006D4801F0E1FC2188C1F340016B4801F05A
:1031B000DBFC218801F00101694801F0D5FC38BD34
:1031C000684801F0D1FC8EE7674801F0CDFC8AE742
:1031D000664801F0C9FC86E7654801F0C5FC82E756
:1031E000644985E7444BB3F8A63063B1424B0022F3
:1031F000A3F8A620404BB3F8A6304BB14049414854
:1032000001F0B2FCDBE73C4B0122A3F8A620F1E77A
:103210003D49F4E7414A13886FEA43436FEA534359
:103220001380354B0222A3F8A020534801F09CFCE8
:10323000C5E73A4A1388C3F30D0343F48043138070
:103240002D4B0122A3F8A0204C4801F08DFCB6E7DD
:10325000324A1388C3F30D031380274B0022A3F8CF
:10326000A020474801F080FCA9E72C4A138883F48A
:1032700000639BB21380204AB2F8A4205AB11E4AC0
:103280000021A2F8A41013F4006F09D021493D4891
:1032900001F06AFC93E7184A0121A2F8A410F2E7B2
:1032A0003449F4E7144B1B881BB9374801F05CFC28
:1032B00085E71A4A138843F400531380334B0222E4
:1032C0001A6001F061FA324801F04EFC77E70A4BD0
:1032D0001B881BB92C4801F047FC70E70F4A138884
:1032E00043F480531380294B02221A6001F04CFAF8
:1032F000284801F039FC62E710AA002028070210D4
:1033000020070210840702102407021098070210F9
:10331000F1AF0020481B021018080210CC3000202A
:103320002C0802104408021078080210C808021085
:10333000F8080210300902105C0902108809021016
:10334000AC090210D8090210080A02104C0A021037
:103350007C0A0210B00A0210E00A0210100B0210E0
:10336000440B0210B0070210C8070210E007021059
:10337000FC07021054E10110780B0210940B0210AC
:10338000B00B0210CC0B0210F00B021020AF00208B
:10339000200C02103C0C021010B584B00446FEF75D
:1033A00055FC80B1601E0B280DD8DFE800F0060E3A
:1033B00032560C0C0C0C0C6E757C414BB3F878102B
:1033C000404801F0D1FB04B010BD3F4801F0CCFBF8
:1033D0003B4BB3F878103B4801F0C6FB002400E0FB
:1033E0000134B4F5007FEEDA04F57052082300933F
:1033F0006B44D200052135481AF0C6FD029A039BA2
:1034000052EA0301ECD004F50071314801F0ACFB45
:10341000E6E729A3D3E90023CDE90223002412E043
:10342000029B13F10133039A42F10132029303929A
:1034300004F57052082300936B44D2000521234801
:103440001AF0BEFD0134B4F5007FE9DB214801F03C
:103450008BFB214801F088FBB5E700220023CDE972
:10346000022300240AE004F57052082300936B4401
:10347000D200052115481AF0A3FD0134B4F5007FF0
:10348000F1DB164801F070FB9DE70D480023A0F822
:103490007830FCF72FFF96E709480123A0F8783031
:1034A000FCF728FF8FE706480223A0F87830FCF7E6
:1034B00021FF88E7AFF30080414041404140414057
:1034C00010AA0020580C0210740C021000000840D2
:1034D000A80C0210BC0C0210F00C02100C0D021013
:1034E00008B5013808283ED8DFE800F0054C5A6AD4
:1034F0007A8A9AAAB8005F4B9B8F002B34D05E4922
:103500005E4801F031FB5B4BB3F85030002B2DD0FF
:1035100059495B4801F028FB564BB3F846303BB3A2
:103520005549584801F020FB524BB3F852300BB3C9
:103530005149554801F018FB4E4BB3F86630DBB1EA
:103540004D49524801F010FB4A4BB3F86830ABB11B
:1035500049494F4801F008FB464BDB8F83B1464990
:103560004C4801F001FB08BD4B49C9E74A49D0E787
:103570004949D6E74849DCE74749E2E74649E8E7F1
:103580004549EDE73B4A938FB3FA83F35B09938791
:1035900023B13949394801F0E7FAE4E73E49F9E750
:1035A000344AB2F85030B3FA83F35B09A2F85030D2
:1035B00023B13149324801F0D7FAD4E73649F9E767
:1035C0002C4AB2F84630B3FA83F35B09A2F84630CE
:1035D00023B129492B4801F0C7FAC4E72E49F9E77E
:1035E000244AB2F85230B3FA83F35B09A2F852309E
:1035F00023B12149244801F0B7FAB4E72649F9E795
:103600001C4AB2F86630B3FA83F35B09A2F866305D
:1036100023B119491D4801F0A7FAA4E71E49F9E7AB
:10362000144AB2F86830B3FA83F35B09A2F8683041
:1036300023B11149164801F097FA94E71649F9E7C2
:103640000C4AD38FB3FA83F35B09D38723B10A49BA
:10365000104801F089FA86E70F49F9E7FEF7F6FA14
:10366000002880D00348FCF745FE0C4801F07CFAA6
:1036700079E700BF10AA00203C190210380D021093
:10368000540D0210940D0210BC0D0210E00D02103A
:10369000FC0D0210180E021054060210340E021017
:1036A0002DE9F041BAB004460D4600201AF094FC12
:1036B00006469F231F936022002120A815F096F94B
:1036C00006AF4FF0640842460021384615F08EF9E7
:1036D000424639461FA81AF02FFC9DF81B300121E5
:1036E00001FA03F7FEF7B2FA002832D0631E042B6A
:1036F0002FD8DFE803F003364D50760038A808F0E5
:10370000E1FC9DF8E3309DF8E4209DF8E5109DF87C
:10371000E6009DF8E7400494039002910192009323
:103720009DF8E2309DF8E1209DF8E010384801F066
:103730001BFA3146374801F017FA0421364801F0E8
:1037400013FA3A46002F07DB12153946334801F0C9
:103750000BFA3AB0BDE8F08107F57F2202F6FF725E
:10376000F2E72F4B9D420DD005F580532D4A136093
:103770002C4B1A6829462C4801F0F6F92846FCF72C
:103780001FFFE6E7274B1D6805F580521A60EFE73B
:10379000FCF7CEFEDDE7254801F0E6F94FF47A7438
:1037A00000214FF0FF300AF0E9F8022005F084FE16
:1037B000002002F0AEFE68B9013CF1D11C4801F0D6
:1037C000D3F9FCF773FE1B4801F0CEF91A4801F05B
:1037D000CBF9BEE7002002F0A1FE184801F0C4F9C1
:1037E000B7E70F4B9D420DD005F58053144A136087
:1037F000134B1A682946134801F0B6F9284601F020
:1038000011F9A6E70E4B1D6805F580521A60EFE727
:10381000540E0210880E0210B00E0210E40E0210B8
:103820004342414004AA0020200F02105C0F021006
:10383000B80F0210D00F0210EC0F0210A40F0210EC
:1038400008AA00203010021030B585B004460D469D
:10385000FEF7FCF9E8B1601E03281AD8DFE800F093
:10386000021B324B02A801F02FF99DF80B30009398
:103870009DF80A309DF809209DF808102F4801F0A6
:1038800073F99DF80A10C1F38201CA012C4801F0B6
:103890006BF905B030BD2B4B9D420DD005F5805323
:1038A000294A1360284B1A682946284801F05CF918
:1038B000284601F0B7F8ECE7234B1D6805F5805268
:1038C0001A60EFE7224801F04FF9002001F086F876
:1038D0000146204801F048F9002001F07FF844F249
:1038E0004103984203D01C48FDF7D6FDD1E71B48A1
:1038F00001F03AF9CDE71A4801F036F94FF47A743D
:1039000000214FF0FF300AF039F8022005F0D4FD15
:10391000002002F0FEFD50B9013CF1D1114801F048
:1039200023F901F0E1F8104801F01EF9B1E7002099
:1039300002F0F4FD0D4801F017F9AAE76C1002102F
:10394000941002104342414008AA00203010021097
:10395000B8100210DC10021034600020F4100210C5
:1039600020110210741102108C1102105C1102104F
:1039700070B5224808F0EBF90025B5F5005F10DAC4
:10398000002C0EDB642008F0ABF9041EFADB1C4BA4
:103990005C55013515F03F0FEFD12E2008F0C8F926
:1039A000EBE72946174808F001FA002307E0164A1A
:1039B000116831F8132052BA21F813200133B3F5FE
:1039C000805FF4DB00260BE02A190F4B1B6833F8ED
:1039D00012100E4808F0EAF901340F2CF4DD01361C
:1039E0001E2E06DC35012946094808F0DFF90024BF
:1039F000F3E70A2008F09CF970BD00BF9C1102108B
:103A00004C3F0020CC1102106C300020B4EB0110B0
:103A1000A4EB011038B5314B1C682388304D2B6066
:103A200063886B6004F58053B3F8FE3F6B61FCF76D
:103A300029FFA861A079A3881B029BB21844A86043
:103A4000A388FF2B15D800F10043013B14F8132085
:103A500000233F2A16D80F2B14DC02F03F02214925
:103A6000895C214AD1540133421ED21A14F8122023
:103A7000EFE71E4A1C4B07CA03C323F8022B120CA4
:103A80001A7008E002F03F021649895C164AD154C8
:103A900001330021D154114B1A6802F58052B2F85B
:103AA000FC3F03F03F030F49C85C114B1870B2F89C
:103AB000FA0F00F03F00085C58702D209870B2F8A3
:103AC000F80F00F03F00085CD870B2F8F62F02F053
:103AD0003F028A5C1A7100225A7138BD6C30002096
:103AE00074AF00204C1F03104C5F0020F81102102F
:103AF0005C5F002010B5FFF78DFF104808F027F934
:103B00000F4C21680A460F4808F050F961680A46D0
:103B10000D4808F04BF9A2680C490D4808F046F929
:103B20000C490D4808F042F9A26961690B4808F098
:103B30003DF90A2008F0FCF810BD00BF0412021085
:103B400074AF0020301202104C1202104C5F0020A3
:103B5000681202105C5F0020881202109C12021092
:103B600030B583B02F4808F0F2F82F4808F01EF95E
:103B700000240DE02D4808F019F908E0FFF74AFF8E
:103B80002B4B2C4A2C4909682C4808F00FF90134BA
:103B9000092C1BDC21462A4808F008F9294B1A6831
:103BA0006303D25A4FF6FF739A42E3D00023B3F572
:103BB000805FE3DA03EB0430234A12682149096885
:103BC00031F8101022F813100133F0E7002403E05D
:103BD000164808F0EBF80134092C1DDC21461B487F
:103BE00008F0E4F8184D4FF4005300932B6862037B
:103BF000052117481AF0C8F92B681A884FF6FF7389
:103C00009A42E5D0FFF706FF094B0A4A0A490968BC
:103C10000A4808F0CBF8DEE70A2008F089F803B07C
:103C200030BD00BFC4120210F4120210341302108F
:103C30004C5F00205C5F002074AF00204C1302102A
:103C40001C130210C43000206C30002060130210DE
:103C50000000084010B504460146084808F0A6F8E0
:103C6000A4F13003092B02D81C46054B1C60044B01
:103C70001968044808F09AF810BD00BF78130210C4
:103C800068300020D8E6011070B582B004465E4866
:103C900008F08CF85D4B09221A70032C00F2AF80FB
:103CA000DFE804F002182E740026ADF806600DF16E
:103CB0000605574C2946204605F0C2FDADF80660C2
:103CC0002946204605F0BCFD00F0D2FD00F05CFD69
:103CD00002B070BDE023ADF806300DF106054C4C86
:103CE0002946204605F0ACFD8623ADF8063029466E
:103CF000204605F0A5FD00F0BBFD00F045FDE7E71F
:103D0000B623ADF806300DF10605414C2946204694
:103D100005F096FD1023ADF806302946204605F043
:103D20008FFD0123ADF806302946204605F088FDB9
:103D3000C623ADF806302946204605F081FD002651
:103D4000ADF806602946204605F07AFDF223ADF86D
:103D500006302946204605F073FDADF80660294679
:103D6000204605F06DFD5A23ADF806302946204661
:103D700005F066FD9123ADF806302946204605F092
:103D80005FFD00F075FD00F0FFFCA1E73E23ADF8FC
:103D900006300DF106051E4C2946204605F050FD63
:103DA0001123ADF806302946204605F049FD1023C1
:103DB000ADF806302946204605F042FD7523ADF8E2
:103DC00006302946204605F03BFDC023ADF80630FD
:103DD0002946204605F034FD0123ADF8063029467A
:103DE000204605F02DFD2F23ADF80630294620464C
:103DF00005F026FD00F03CFD00F0C6FC68E700F091
:103E000037FD00F0C1FC63E7A413021006B00020E8
:103E1000EC70002038B5002007F062FF10F1020FAF
:103E200067D00446394B1B78002B63D01B2807D082
:103E3000043B052B5DD8DFE803F01F5C2C2E5C21D2
:103E4000324B00221A70324807F081FF51E00135F1
:103E50000C2D4EDC05EB45032E4A12F82330A3420D
:103E6000F5D105EB45022B4B03EB82035B689847CA
:103E7000264B00221A70EAE70025E9E7A0F130039B
:103E8000082B36D81846FFF7FFFE204B00221A7089
:103E90002FE0462805D0A4F13003092B07D90025CF
:103EA0000DE0FFF765FD194B00221A70F3E720467D
:103EB000FFF7D0FE154B00221A701AE001350E2DC7
:103EC00017DC05EB4503144A12F82330A342F5D161
:103ED00005EB4502104B03EB82035B6898470B4BE5
:103EE00000221A70EAE703EB430301EB83035B68EC
:103EF000984738BD0023122BFBDC03EB4302074934
:103F000011F82220A242EED00133F4E706B00020DF
:103F1000AC130210E82E0020342E0020842F002045
:103F200003460268EFF3108172B6D2E8CFCF0120CA
:103F3000BCF1000FF9D1C2E84C0FBCF1000FF4D175
:103F4000BFF35F8F18895A89801A02D5DA89013246
:103F5000104400221B68C3E88F2F81F3108870473C
:103F600008B53C4807F0F3FE3B4B3C4A1968126821
:103F70003B4807F01BFF3B4B3B4A196812683B4824
:103F800007F014FF3A4B3B4A196812683A4807F0A9
:103F90000DFF3A4B3A4A196812683A4807F006FF93
:103FA0000A2007F0C5FE384B384A196812683848AD
:103FB00007F0FCFE374B384A19681268374807F09B
:103FC000F5FE374B374A19681268374807F0EEFE9E
:103FD000364B374A19681268364807F0E7FE36480C
:103FE00007F0B5FE002002F02EFA28B3334934481A
:103FF00007F0DCFE042002F026FA48B32F493148CE
:1040000007F0D4FE022002F01EFAF8B12B492E4828
:1040100007F0CCFE012002F016FAA8B127492B4880
:1040200007F0C4FE032002F00EFA38B1BDE80840E4
:104030002249274807F0BABE2649D8E7254924482F
:10404000BDE8084007F0B2BE2249E8E72149DEE7B3
:104050002049D4E7CC1E0210B4300020B830002034
:10406000001F0210AC300020B0300020281F0210CA
:104070007C30002080300020501F0210A43000202F
:10408000A8300020781F02109C300020A0300020B3
:10409000A01F02109430002098300020C81F02108A
:1040A0008430002088300020F01F02108C30002067
:1040B00090300020182002103C2F021040F4011014
:1040C000402002105C200210782002109420021080
:1040D000B020021044F4011008B51E4800F044FD61
:1040E0001D4B1E4A196812681D4800F03DFD1D4B0E
:1040F0001D4A196812681D4800F036FD1C4B1D4A08
:10410000196812681C4800F02FFD1C4B1C4A1968E6
:1041100012681C4800F028FD1B4B1C4A19681268E5
:104120001B4800F021FD1B4B1B4A196812681B48F5
:1041300000F01AFD1A4B1B4A196812681A4800F061
:1041400013FD1A4B1A4A196812681A48BDE808404C
:1041500000F00ABDCC200210B4300020B83000209E
:1041600000210210AC300020B030002024210210C9
:104170007C3000208030002048210210A430002034
:10418000A83000206C2102109C300020A0300020BC
:10419000902102109430002098300020B4210210A9
:1041A0008430002088300020D82102108C3000207C
:1041B00090300020FC2102102DE9F04FCC4E89B048
:1041C0000121306808F05EF80346CA4FCA493068DA
:1041D0003B6008F073F8DFF884830121C8F8000021
:1041E000306808F04FF8DFF878B3C449CBF8000026
:1041F000306808F063F8DFF86C930121C9F800001B
:10420000306808F03FF8BE4BD9F800201860BD4B6D
:10421000012130681A6008F035F8BB4ABB491060CC
:10422000306808F04BF8BA4DBA49BB4C0860012120
:10423000286808F027F8B9492060286808F03EF897
:10424000B74A01211060286808F01CF8B549B64C3F
:104250000860B649286808F031F801212060286814
:1042600008F010F8B24AB3491060286808F026F840
:10427000B149B24C08600121286808F003F8B04940
:104280002060286808F01AF84FF480330124D8F829
:1042900000A0AC4A04930AF1140310601B030AEB5C
:1042A000040243EAC2133F6823F0C0430094D6F8E7
:1042B00000800593A44AA54B3946CDE90632404615
:1042C00002231A2208F02EF808F12F4101F56001AF
:1042D000090D0631C9B21A20039104F015F80399AB
:1042E0001B2004F011F80DF1100C524663463946BC
:1042F000404608F066F84FF4502A4FF400234FF47C
:104300002020D8F80010D9F8002004FA07F70F434E
:10431000DBF800B0C8F80070CDE906A3131D111931
:104320001B0343EAC113376823F0F8530DF1100C57
:1043300043F0D0535946049005933846634608F03D
:1043400040F8396804FA0BFB6D4B4BEA0101D9F8D0
:104350000020D3F8008039604FF480314FF42020E2
:10436000131D07911B03111943EAC113D6F800B0BE
:1043700023F0F8530DF1100C43F0D0534146049054
:10438000059358466346CDF818A0624F08F019F817
:10439000D6F800A05C4ED7F8009037680026DBF80E
:1043A000003004FA08F848EA03034FF48031CBF8F0
:1043B000003007964FF440264FEA093343EAC91309
:1043C0001C220094049105933946234650460696D4
:1043D00007F0A8FF1C205E4E069B0AF12F413340D8
:1043E00043F0005343F420230693079B01F560013B
:1043F00023F07C7323F01F03090D43F4801306316F
:104400000343C9B2079303F07FFF4FF420200DF15F
:10441000100C63464A4639460490504607F0D1FFD7
:104420003D4B3F48D3F80090DAF8003004FA07F724
:104430001F43D0F800804FF48031CAF800704FF469
:1044400040234FF000570094CDE9063704914FEA1E
:10445000C81308F10B01D5F800A043EA013323F09B
:10446000C0434946059312222346504607F05AFF9F
:104470002346494600941322504607F053FF4FF459
:1044800020220492069A0AF12F41324001F5600180
:1044900042F400222F4F06924FEA115B079A2E4BEF
:1044A0000BF1060B3A405FFA8BFB1343594612207F
:1044B000079303F029FF5946132003F025FF0DF160
:1044C000100C634642464946504607F07AFF164BA9
:1044D00004FA09F9D3F800B0DAF80030114849EAD3
:1044E0000303D0F800804FF48031CAF800303BE07D
:1044F000C0300020B4300020CC8A0210B88A0210EC
:104500007C30002080300020A4300020AC8A0210D3
:10451000BC300020A83000209C3000208C8A021083
:10452000A03000209430002098300020788A0210BB
:10453000843000204C8A0210883000208C3000200B
:10454000648A021090300020006807400000DD01FE
:10455000FFFFF5C1E0830FFC124C1000B8300020C3
:10456000AC300020B03000204FF000504FF440231A
:104570000094CDE9063004914FEACB130BF104010E
:10458000D5F8009043EA013323F0C0434146059338
:1045900014222346484607F0C5FE234641460094B0
:1045A0001522484607F0BEFE4FF420221420049244
:1045B000079A6A4B3A4013430793059B09F12F4131
:1045C00023F0F85301F5600143F0D05321FA00FACB
:1045D0000593069B0AF1060A5FFA8AFA334043F410
:1045E00020235146069303F08FFE5146152003F019
:1045F0008BFE0DF1100C63465A4641464846584F13
:1046000007F0DFFED9F80030D7F800A004FA08F868
:10461000544F48EA03033F68C9F800304FF4402381
:104620004FF480314FF0005006930AF106030094D6
:1046300004911B030AEB0401D5F8008043EAC1137F
:1046400023F0C04303223946079005934046234692
:1046500007F068FE444B08F12F410493069B01F5D7
:104660006001334043F0705343F400330693079BDB
:10467000090D063123F4F84343F440630320C9B223
:10468000079303F041FE0DF1100C634639460AF121
:104690000202404607F095FED8F80030334804FA8D
:1046A00007F71F434FF480314FF44023D0F80090B8
:1046B0002F482D68D0F800A0C8F80070002704919A
:1046C000069309F104014FEAC91343EA0133009448
:1046D00051460593162223462846079707F022FEE7
:1046E0004FF42022079B05F12F4123F07C7323F028
:1046F0001F0343F4801343F016030793059B01F552
:10470000600123F0F85343F0D0530593069B090D45
:104710003340063113431620C9B20492069303F0C6
:10472000F3FD4A46514604AB284607F04AFE43F2E1
:10473000FF73104A1049108804FA0AF403402868ED
:104740000443B1F8A000B1F8A41043EA803343EA6F
:1047500081232C60138009B0BDE8F08F1454100041
:1047600088300020843000200000AC07903000200A
:104770008C300020CC30002010AA0020014B18689B
:10478000704700BFB8A90020F8B54FF050435B68F0
:104790009B0336D401211B4E1B4C1C4D37682068EF
:1047A0002A6800F1050C07EB47030CF01F0C02EB25
:1047B000C303C3F8D8C007F1100399404FEA470C70
:1047C00053680B42FCD1012108300CEB070300F0C9
:1047D0001F0002EBC30340F48050043742F8271057
:1047E000C3F8D8000021142004F05AFF33682A6867
:1047F000216803EB430301F01F0102EBC303C3F87D
:10480000D810F8BD9C300020A0300020BC30002023
:104810004EF220000849094B094A09681B681268D2
:1048200001EB4101053302EBC10203F01F03C2F8A3
:10483000D800C2F8D830704784300020883000207B
:10484000BC30002001220849084B10B40C681968DC
:1048500004F110039A404B681342FCD1043441F830
:1048600024005DF8044B704784300020BC300020E9
:104870000120044A04491368087043F007031360D9
:10488000704700BFF8A9002005B000200022034BAC
:10489000C3E90022C3E90222704700BF7CA20020C6
:1048A0002DE9F0434FF05046324B87B093E80700B4
:1048B00006AB03E9070073682F4C9B0325780BD4E4
:1048C000736813F4004F14BF012302239D42237029
:1048D00006D107B0BDE8F08300239D422370F8D0D5
:1048E00004F0D6FE03460A46244F254E3968D7F811
:1048F00004C0581A62EB0C01C7E9003233607260E1
:104900000023204A19F03CFB4FF00008844619466A
:1049100023781D4E0DEB8303D3F80C900DEB85032C
:10492000DB681046C6F800804FF47A7201930023CA
:10493000644619F025FB154F234600904A46384639
:10494000134906F0C9FF336803443360D8196DB9C1
:10495000104B11491A6806F0BFFF336803440B4837
:10496000336007B0BDE8F04307F0F1B907F8038002
:104970003368F4E7008B0210EBAF0020D83D002035
:10498000D03D002040420F0030600020685F0020D2
:1049900050220210B8A900208822021008B50D4943
:1049A0000D4807F0BBFD0121042003F0ADFC0121FF
:1049B000062003F0A9FC0121072003F0A5FC052037
:1049C00003F0BAFD05234FF0010242EC403042EC07
:1049D000443008BD005A62020000084000B585B0AE
:1049E00002460023ADF80E30022300930DF10E03B2
:1049F0000521044819F0C8FABDF80E0005B05DF8AD
:104A000004FB00BF0000084000B583B00B460092D5
:104A100002460521024819F0D3FA03B05DF804FB01
:104A200000000840F0B5C7B0064600F5805722E008
:104A300007AB59191E4A1088927858538A7002356C
:104A4000002406E01B4907A8284406F045FF01356D
:104A500001340F2C08DC03AB1A5DA2F12003DBB29A
:104A60005E2BEFD92E22EDE7103607A9124800F091
:104A70007BF8B7421AD93246104907A806F02CFF36
:104A800005461023009303AB324605210C4819F06C
:104A90007BFA00240F2CCBDC03AB1A5D094907A875
:104AA000284406F019FF03350134F3E747B0F0BDA1
:104AB000A0FF011050E1011070FE011098220210B9
:104AC000000008403C00021000B583B003460422F9
:104AD000009200220521034819F03EFA03B05DF868
:104AE00004FB00BF0000084010B5C0B04FF4807256
:104AF0000021684613F07AFF002407E04FF480722B
:104B000069462046FFF780FF04F58074B4F5802FD6
:104B1000F4D3024800F028F840B010BDA0220210E3
:104B200008B50846012101F0B3F910B1FDF7E2F82C
:104B300008BD0248FDF7DEF8FAE700BFCC450210D9
:104B400008B5002001F0A1FC002001F077FC002155
:104B50004FF0FF3008F012FF08BD0000014B18684D
:104B6000704700BFACA300200FB400B5FFB080AB0E
:104B700053F8042B00934FF4FA7101A806F0D6FE07
:104B800000280FDB00214FF0FF3008F0F7FEFFF7A1
:104B9000E5FF01A901F0EEF800207FB05DF804EB1D
:104BA00004B07047054B1B68DB681D2201210448D7
:104BB00013F068FD4FF0FF30EFE700BFC83A002068
:104BC000BC22021038B50C460121204601F060F9E4
:104BD00005460221204601F05BF91DB100244FF08B
:104BE000FF300CE01E48FFF7BFFFFCF7EDFD36E09D
:104BF0001C4B53F82410284614F0C8F8013408B1AF
:104C0000092CF5DD38BB013C092C24D8DFE804F081
:104C100005080B0E1114171A1D20FCF7D5FD1EE018
:104C2000FCF724FF1BE0FCF725FF18E0FCF764FF0E
:104C300015E0FCF79BFF12E0FCF7BCFF0FE0FDF76F
:104C40001FF80CE0FDF712F809E0FDF727F806E081
:104C5000FDF734F803E029460348FFF785FF38BD28
:104C6000DC22021078200310F422021038B50C4622
:104C70000121204601F00CF905460221204601F0F1
:104C800007F91DB100244FF0FF300CE01748FFF783
:104C90006BFFFDF733F828E0154B53F82410284636
:104CA00014F074F8013408B1052CF5DDC8B9013CE5
:104CB000052C16D8DFE804F00306090C0F12FDF7E7
:104CC0001DF812E0FDF71EF80FE0FDF71FF80CE0ED
:104CD000FDF720F809E0FDF725F806E0FDF71EF8DE
:104CE00003E029460348FFF73FFF38BDDC220210EE
:104CF0006020031010230210F8B50C460121204655
:104D000001F0C6F806460221204601F0C1F805462A
:104D10000321204601F0BCF82EB107463DB1002426
:104D20004FF0FF3015E02248FFF71EFF28E018B1D2
:104D300000244FF0FF300CE0002211463046FDF712
:104D4000AFFA1DE01B4B53F82410284614F01EF850
:104D5000013408B1002CF5DD08B14FF0FF34002517
:104D600008B1002D0DDDAC4213D0012C15D0042C60
:104D700019D0042D17D02A4621463046FDF790FA67
:104D8000F8BD0C4B53F82510384613F0FFFF0135E2
:104D9000E6E70948FFF7E8FEF2E7042DE7D1074808
:104DA000FFF7E2FEECE70648FFF7DEFEE8E700BFAC
:104DB0002C2302105C20031074230210CC23021059
:104DC000E823021038B50C460121204601F060F8B6
:104DD00005460221204601F05BF81DB12846FEF78A
:104DE000EFF838BD0148FFF7BFFEFAE70C240210C8
:104DF00070B582B00C460121204601F049F8054605
:104E00000221204601F044F806460321204601F025
:104E10003FF81DB100244FF0FF300DE02A48FFF7A6
:104E2000A3FE2A48FFF7A0FE43E0294B53F82410C5
:104E3000284613F0ABFF013408B1022CF5DD08BBA6
:104E4000002C1FDB013C032C1CD8DFE804F0020916
:104E500010170023012207211046FDF733FE28E03A
:104E60000023012206210220FDF72CFE21E0002371
:104E7000012206210320FDF725FE1AE01548FFF761
:104E800073FE16E0BEB10023019301AA1249304619
:104E900013F008FC01990329CCBF002301230F293B
:104EA000D8BF01280BD153B92B4601220520FDF7AD
:104EB00009FE02B070BD0948FFF756FEF9E731461A
:104EC0000748FFF751FEF4E7442402107C24021047
:104ED00050200310AC24021008250210CC2402102C
:104EE0000C25021030B583B00C460121204600F09D
:104EF000CFFF05460221204600F0CAFFB5B10446A7
:104F00000023019301AA0E49284613F0CBFB019B15
:104F1000032BCCBF002201220F2BD8BF012809D1BF
:104F200042B91846FDF78EFE03B030BD0548FFF7C5
:104F30001BFEF9E721460448FFF716FEF4E700BF21
:104F4000082502103C2502107425021030B583B0EC
:104F50000D460121284600F09BFF04460221284609
:104F600000F096FFACB10023019301AA0F4920463F
:104F700013F098FB019B032BCCBF002201220F2BC7
:104F8000D8BF01280CD15AB91846FDF781FE03B0ED
:104F900030BD0748FFF7E8FD0020FDF779FEF6E792
:104FA00021460448FFF7E0FDF1E700BF08250210A5
:104FB000A42502107425021038B50C4601212046A4
:104FC00000F066FF05460221204600F061FF1DB19A
:104FD00000244FF0FF300DE00E48FFF7C5FD012023
:104FE000FEF742F810E00C4B53F82410284613F05B
:104FF000CDFE013408B1082CF5DD08B9002C04DA27
:1050000029460648FFF7B0FD38BD2046FEF72CF8CC
:10501000FAE700BFDC250210182003101426021046
:1050200030B583B00C460121204600F031FF054623
:105030000221204600F02CFF032301936DB10024D0
:105040004FF0FF3080B1032C0EDC174B53F82410C7
:10505000284613F09BFE0134F4E71448FFF784FD63
:105060000120FEF799F906E038B9002C17DC019809
:105070000A30FEF791F903B030BD01AA0C49284669
:1050800013F010FB019BDA0F022BD8BF012801D1CE
:10509000002AECD029460748FFF766FDEBE72046DB
:1050A000FEF77AF9E7E700BF082003104C2602104C
:1050B0006C2602107026021038B50846012100F057
:1050C000E7FE20B1054600244FF0FF300DE00E480A
:1050D000FFF74AFD0120FEF703FA10E00B4B53F8EF
:1050E0002410284613F052FE013408B1082CF5DDD7
:1050F00008B9002C04DA29460548FFF735FD38BD0C
:105100002046FEF7EDF9FAE790260210E41F03109F
:10511000C426021008B50248FFF726FD08BD00BFEF
:10512000FC26021030B583B00C460121204600F069
:10513000AFFE05460221204600F0AAFE052301939A
:105140007DB101AA0B49284613F0ACFA019BDA0F96
:10515000092BD8BF012808D13AB91846FCF74EFDF3
:1051600006E01846FCF74AFD02E00348FFF7FCFCA6
:1051700003B030BD6C2602100427021030B583B096
:105180000C460121204600F083FE05460221204600
:1051900000F07EFE0023019375B10446A0B101AA80
:1051A000184913F07FFA012810D021461648FFF75E
:1051B000DBFC0023019309E01448FFF7D5FC002134
:1051C0000120FEF76DFA16E0114B019300244FF019
:1051D000FF3048B1032C07DC0E4B53F8241028464F
:1051E00013F0D4FD0134F4E708B9002C05DA2946A0
:1051F0000948FFF7B9FC03B030BD01992046FEF71E
:105200004FFAF8E75C2702106027021028270210E7
:1052100043424140D41F03108C27021030B583B0A5
:105220000C460121204600F033FE054602212046AF
:1052300000F02EFE0023019375B10446A0B101AA2F
:10524000184913F02FFA012810D021461648FFF70D
:105250008BFC0023019309E01448FFF785FC002133
:105260000120FEF7F1FA16E0114B019300244FF0F4
:10527000FF3048B1032C07DC0E4B53F824102846AE
:1052800013F084FD0134F4E708B9002C05DA29464F
:105290000948FFF769FC03B030BD01992046FEF7CD
:1052A000D3FAF8E75C27021060270210C02702102B
:1052B00043424140C41F0310F427021070B50C464E
:1052C0000121204600F0E4FD05460221204600F0C1
:1052D000DFFD75B1064600244FF0FF3078B1032C96
:1052E0000DDC154B53F82410284613F04FFD013404
:1052F000F4E700214FF0FF30FDF7FCFA0CE030B985
:10530000002C06DB31462046FDF7F4FA01E04FF0B1
:10531000FF34B4F1FF3F00D070BD36B1002EFBD09A
:1053200029460648FFF720FCF6E729464FF0FF30F4
:10533000FDF7E0FAF2E700BFB41F031028280210BF
:1053400070B50C460121204600F0A2FD0546022161
:10535000204600F09DFD25B1064600244FF0FF30A9
:105360000EE01248FFF700FC00210120FDF7E4F9F0
:1053700016E00F4B53F82410284613F007FD0134B4
:1053800008B1052CF5DD30B9002C06DB314620468E
:10539000FDF7D2F904E04FF0FF34B4F1FF3F00D045
:1053A00070BD29460348FFF7DFFBF9E768280210C4
:1053B0009C1F03109C28021038B50C460121204682
:1053C00000F066FD05460221204600F061FD1DB19A
:1053D00000244FF0FF300DE01148FFF7C5FB01201E
:1053E000FDF794FD15E00F4B53F82410284613F0F9
:1053F000CDFC013408B1022CF5DD28B9002C05DB09
:105400002046FDF783FD04E04FF0FF34B4F1FF3F89
:1054100000D038BD29460448FFF7A6FBF9E700BFD6
:10542000BC280210901F03109C2802100FB400B576
:10543000FFB080AB53F8042B00934FF4FA7101A82E
:1054400006F074FA00280FDB00214FF0FF3008F05F
:1054500095FAFFF783FB01A900F0BAFC00207FB0AA
:105460005DF804EB04B07047054B1B68DB681D2238
:105470000121044813F006F94FF0FF30EFE700BFB9
:10548000C83A0020BC22021010B5002001F041F8FB
:1054900000B910BD002001F029F8044600214FF0AA
:1054A000FF3008F06BFA2146024B186800F0B4FB9D
:1054B000EFE700BFACA3002008B50D4B1B681BB184
:1054C000002000F0C0FF18B90A4B00221A7008BD76
:1054D000FFF7DAFF064B186800F0AEFE054B1B78AD
:1054E000002BF4D1034B01221A70FCF76DF9EEE7A3
:1054F000ACA30020FFAF00202DE9F043DDB000F0A9
:105500005DFB0446A94BC36040F2DC530382402399
:1055100083808023C38020234381A54B036000F058
:10552000C7FBA44B1860002800F04A818646A24CB5
:1055300057AD26460FCE0FC533682B6052AD04F130
:1055400014060FCE0FC533682B604DAD04F128064D
:105550000FCE0FC533682B6048AD04F13C060FCE6B
:105560000FC533682B6043AD04F150060FCE0FC555
:1055700033682B603EAD04F164060FCE0FC533686F
:105580002B6039AD04F178060FCE0FC533682B6060
:1055900034AD04F18C060FCE0FC533682B602FADF0
:1055A00004F1A0060FCE0FC533682B602AAD04F1BD
:1055B000B4060FCE0FC533682B6025AD04F1C806C5
:1055C0000FCE0FC533682B6020AD04F1DC060FCE83
:1055D0000FC533682B601BAF3D4604F1F0060FCEBC
:1055E0000FC533682B600DF158094D4604F58276DE
:1055F0000FCE0FC533682B6011AD04F58C760FCE3E
:105600000FC533682B600CAE354604F5967CBCE8BC
:105610000F000FC5DCF800302B6007ADAC4604F579
:10562000A078B8E80F00ACE80F00D8F80030CCF84C
:1056300000300DF10808C44604F5AA740FCCACE89C
:105640000F002368CCF800305C4BCEF80030594C8A
:105650005CAB13E903008DE8030057AB0ECB206869
:1056600000F0E8FA46AB93E803008DE8030043AB93
:105670000ECB206800F0DEFA55AB93E803008DE80E
:10568000030052AB0ECB206800F0D4FA50AB93E885
:1056900003008DE803004DAB0ECB206800F0CAFA82
:1056A00037AB93E803008DE8030034AB0ECB2068E2
:1056B00000F0C0FA2DAB93E803008DE803002AAB9D
:1056C0000ECB206800F0B6FA32AB93E803008DE809
:1056D00003002FAB0ECB206800F0ACFA28AB93E8A8
:1056E00003008DE8030025AB0ECB206800F0A2FA82
:1056F00023AB93E803008DE8030020AB0ECB2068BA
:1057000000F098FA4BAB93E803008DE8030048AB38
:105710000ECB206800F08EFA19AB93E803008DE8F9
:10572000030099E80E00206800F084FA05AB93E8C6
:1057300003008DE8030098E80E00206800F07AFA74
:105740001EAB93E803008DE8030097E80E00206885
:1057500000F070FA41AB93E803008DE803003EAB24
:105760000ECB206800F066FA3CAB93E803008DE8AE
:10577000030039AB0ECB206800F05CFA0FAB93E866
:1057800003008DE8030096E80E00206800F052FA4E
:105790000AAB93E803008DE8030095E80E0020684B
:1057A00000F048FA5DB0BDE8F08300BFB0A3002070
:1057B000F0280210ACA300200C8B0210414B00100B
:1057C000074806F0C4FA204600F00EFA01460548E4
:1057D00006F0ECFA4FF47A7003F06EFEE2E700BFD9
:1057E000F82802101C29021010B5C3681A8C02F1A7
:1057F000020EB3F822C0E6450CDADC69A1541A8C1B
:10580000013292B21A84DB694FF0000C03F802C037
:105810000368984710BD0D280BD808280DD3083809
:10582000052804D8DFE800F00B0B0B03030B002066
:1058300070477F2805D10120704700207047012064
:105840007047002070472038C0B25E288CBF00200F
:1058500001207047C3888288934202D39B1A98B272
:1058600070470089801A13FA80F080B270470246B0
:105870008388C1888B420AD00168C85C01339BB21F
:105880001189B3FBF1FC01FB1C33938070470020AE
:10589000704700B5B0F806C00CF101039BB2028955
:1058A000B3FBF2FE02FB1E339BB282889A4206D003
:1058B000026802F80C10C38001205DF804FB002090
:1058C000FBE78446B0B1C1B10123002001E0013003
:1058D00080B28B420AD01CF80020002AF7D1013395
:1058E0009BB20CEB00025278002AF0D11CF8003079
:1058F00033B170474FF6FF7070474FF6FF70704737
:105900004FF6FF70F5E7F8B505460F46084613F069
:105910002FFC0646002404E02B68395D2846984792
:105920000134B442F8D3F8BD38B54B6863B10446CE
:105930000D4603680921984769682046FFF7E3FF91
:1059400002492046FFF7DFFF38BD00BFB4790210DF
:1059500038B504460D460849FFF7D5FF29462046CD
:10596000FFF7D1FF05492046FFF7CDFF0449204648
:10597000FFF7C9FF38BD00BF384302104C43021087
:10598000B4790210F8B50546C7683E8E386813F042
:10599000EFFB06442B680D2128469847002404E0BD
:1059A0002B682021284698470134B442F8D32B684D
:1059B0000D212846984700233B86F8BD2DE9F04786
:1059C00006460C469046002303608380C380104641
:1059D00013F0CEFBD4F80C90B9F82C30002B4BD040
:1059E0000746002848D000241BE00123C3B1D9F8A2
:1059F000282012F80A3043F0010302F80A30F38835
:105A000013B1B288824200D9B08001339BB2F380D7
:105A1000012B04D0B9F8203024E00023E6E73560FC
:105A20000134B9F82C30A34226DDD9F82430A2463F
:105A300004EB840253F82250284613F099FBD9F85E
:105A40002820135D23F0010313558742E8D8002373
:105A5000BB42CAD218F80310EA5C9142DDD101338F
:105A6000F6E70133B2889A42DAD93268D15CEA5C4F
:105A70009142F6D0B380D3E73046BDE8F0872DE9F8
:105A8000F04182B0D0F80C8098F8333013F0200F3A
:105A900002D102B0BDE8F0810446D8F81C200146CE
:105AA0006846FFF78BFFBDF806301BB9B8F8203009
:105AB000ADF80430B8F8206005E02368009A915DE5
:105AC000204698470136BDF804703D46B742F4D8E9
:105AD00004E023682021204698470135B8F830308B
