:020000041000EA
:10000000002008205D0100101B0100102D8101104F
:100010001101001011010010110100101101001058
:100020001901001019010010190100101F01001022
:10003000B1800110190100102101001023010010EE
:100040001101001011010010110100101101001028
:100050001101001011010010110100101101001018
:100060001101001011010010110100101101001008
:1000700011010010110100101101001011010010F8
:1000800011010010110100101101001011010010E8
:1000900011010010110100101101001011010010D8
:1000A00011010010110100101101001011010010C8
:1000B00011010010110100101101001011010010B8
:1000C00011010010110100101101001011010010A8
:1000D0001101001011010010110100101101001098
:1000E0001101001011010010110100101101001088
:1000F0001101001011010010110100101101001078
:100100001101001011010010110100101101001067
:10011000EFF30580103800BE00BE00BE00BE00BE7A
:1001200000BE00BEF2EB887108BC031038BC03109F
:10013000A001001090A31AE7D3DEFFFF42012110B7
:10014000FF010000E0F60300793512AB4FF000002C
:100150001E49086006C881F3088810474FF05040D8
:10016000006810B14FF00000F2E70DA40ECC00299A
:1001700002D000F012F8F9E71549164A002000E015
:1001800001C19142FCD11449884714498847144958
:10019000884700BEFDE701C901C29A42FBD3704700
:1001A00038BC031088010020683D002018F80310B7
:1001B000000008200000082018F803100010082094
:1001C00000100820000000007047000008ED00E06B
:1001D000683D002018910020CDCB00106503001071
:1001E00091CB0010F8B500BF064B0749C91A89101A
:1001F00048BF0131491003D0044B0BB101481847E7
:10020000704700BF683D0020683D002000000000EE
:1002100008B5054B1BB105490548AFF30080BDE8A3
:100220000840FFF7E1BF00BF00000000649000201D
:10023000E8F6011070B584B005460C4601AB02AA81
:1002400003A90AF039FD18B954B9204604B070BDAD
:100250000646019A029903980AF0FCFC3446F4E73A
:100260002946014809F02AFAE8F60110002203E0C5
:10027000002120F8121001325D2AF9DD44F241021A
:10028000A0F8B8200022C2830284428402808280C7
:10029000A0F8A020A0F8A220A0F8A420A0F8A620F2
:1002A000A0F8A820A0F8782001228287C287A0F8B1
:1002B0004620A0F85020A0F8522041F28832A0F841
:1002C00054202022A0F856204FF05042526812F4D9
:1002D000003F01D00020704700B583B0FE2200929D
:1002E00003464FF4E832052103481FF0B1F901201D
:1002F00003B05DF804FB00BF000008404FF050431E
:100300005B6813F4003F01D00020704700B583B054
:10031000FE23009303464FF4E832052103481FF003
:1003200097F9012003B05DF804FB00BF000008400E
:100330004FF050435B6813F4003F01D0002070473A
:1003400000B583B0FE23009303464FF4E832052145
:1003500003481FF059F9012003B05DF804FB00BF0A
:100360000000084000B583B001213F48FFF762FF5D
:100370000CF078FD07F030FF00F0D8FE07F04CFFDE
:100380004FF47A700AF04AF9192007F019FF4FF478
:100390007A700AF043F9192007F012FF01231C4676
:1003A0008DF8043000208DF8050001A90DF0AEFF96
:1003B00007F09CF91C2344EC403005F071F908F07B
:1003C000FBFB08F041F900F0B1FE284C2046FFF796
:1003D000AFFFB4F8B82044F241039A423DD107F090
:1003E000DBF907F0E3FF07F097FF06F0FDF800F0F8
:1003F000E7FE19234FF0000242EC403005F0ACF864
:1004000008F092FE0DF0FCFA19480DF095FB04F08F
:100410002DFD04F0FFFB0DF0BBFA164B02221A6013
:10042000A3F500531B6883F4804303F47043124A1E
:10043000136000F07BFE05F099F800214FF0FF30CB
:100440000EF052FB06F0B0F804F058FB07F012FA79
:1004500007F0B6FF08F06EFAEDE72046FFF706FF5B
:100460002046FFF74BFFBAE748E80100408B002029
:100470003D06002000200A4000100A4070B50446E6
:100480000D4616460023DB8A002242E800F212F4F1
:10049000800F0BD1102144F24F10984703460D4AAC
:1004A000D2F8142842B96FF0120070BD042144F252
:1004B0004F1098470346F2E7BFF35F8F3246294655
:1004C00020469847BFF35F8F024B0022C3F81428E1
:1004D000EBE700BF00000E4010B588B004464FF4B3
:1004E000806220216846FFF7C9FF41B251B900235D
:1004F0001F2B13DC03F120026A4412F8202C2AB9C6
:100500000133F5E7214805F0B1F9F0E74FF48261D6
:100510001F4805F0ABF9002008B010BD002305E02E
:1005200003F12001694401F8202C01331F2B09DC61
:10053000E25C002AF4D1002103F120026A4402F8AF
:10054000201CF2E74FF4413220216846FFF796FF66
:1005500041B289B921460F4805F088F94FF40132BC
:1005600020216846FFF78AFF41B251B969460A481F
:1005700005F07CF90120CFE7084805F077F9002065
:10058000CAE7074805F072F90020C5E71CF701101B
:100590005CF70110D0F7011020F8011098F7011056
:1005A000F8F7011010B5A0B004464FF48062402166
:1005B0000DEB0100FFF762FF41B209B9002319E01A
:1005C000144805F053F9002022E05A0020A901EB5D
:1005D000430111F8400C03F18001694401F8800CDB
:1005E00081326A4412F8400C03F181026A4402F835
:1005F000800C02331E2BE8DD002306E003F18002AD
:100600006A4412F8802CE25401331F2BF6DD0120DE
:1006100020B010BD38F8011010B54FF4FA740BE09B
:10062000022009F0FBFF013C002006F093FF0021AF
:100630004FF0FF300EF058FA002CF1DC10BD000036
:1006400070B5FFF7E9FF00244FF4801516E02A4645
:1006500021460C4805F00AF9FFF7DEFFEFF310839F
:1006600072B6094E33604FF4801128461EF0E4FF45
:10067000336883F3108805F580150134022CE6DD1C
:1006800070BD00BF70F801103452002003460144D1
:10069000B1F5401F0ED80A48006810F803C018468C
:1006A0001344994202D9BCF1FF0FF4D0BCF1FF0F03
:1006B00002D07047002070474FF0FF30F9E700BFCD
:1006C0000431002030B5C1B01D4805F02DFF0122D6
:1006D0001C490020FFF7DAFFB0F1FF3F2AD11A488A
:1006E00005F0C4F8FFF798FF4FF48072FF216846C9
:1006F00019F092FA41258DF800501E2213490DF190
:10070000010019F085FB00238DF81F3002230893A8
:100710004FF48072099240238DF828308DF82950CB
:1007200069464FF480101EF03FFF094805F09EF81F
:1007300041B030BD0146074805F098F8F8E700BF22
:10074000A8F8011000FF2F00D4F8011000F90110E3
:1007500018F9011050F90110034B1B78412B01D0FF
:10076000002070470120704700001010F0B5C1B0A4
:10077000054600F58057B7F5401F39D94FF44017AB
:1007800036E0204B1B685A5D1F4901A820440CF03D
:100790006BF90334013501360F2EF2DD103D01AB4C
:1007A00019191A4A1088927818538A700234002650
:1007B00007E0174901A820440CF056F9013401352F
:1007C00001360F2E09DC0F4B1B685A5DA2F1200386
:1007D000DBB25E2BEDD92E22EBE700214FF0FF308C
:1007E0000EF082F901A90B4805F040F8BD4207D28E
:1007F0002A46094901A80CF037F900260A24CBE75C
:1008000041B0F0BD0431002000140210AC120210FF
:100810009CF901100413021094F901102DE9F8431A
:10082000044601F128074FF00008C146B4F5401F07
:1008300019D204F1805505F580152E7800214FF06E
:10084000FF300EF051F97F2E10D0FF2E02D06EB186
:100850006C6AEBE7C4F54013BB421CD943451DD37A
:10086000B9F1000F1CD04846BDE8F8836B6A1A1B2B
:10087000974206D8B8F1000F05D0904507D81C461E
:10088000D4E71C46D2E79046A1461C46CEE79046E8
:10089000A1461C46CAE74FF0FF39E4E7A146E2E76C
:1008A000A146E0E700E0586AB0F5401F0BD200F126
:1008B000805303F580131A78FF2A04D0412AF2D915
:1008C0004FF0FF307047B0F5401F00D870474FF031
:1008D000FF307047F8B50746002500E0656AB5F5BA
:1008E000401F0FD205F1805404F580142678FF2EA6
:1008F0000CD03946601C19F0DDF90028EED1002E2D
:10090000ECD001E04FF0FF352846F8BD4FF0FF3541
:10091000FAE700002DE9F047C0B004460D46154F38
:10092000396820F0FF094FF4807A524649446846FE
:1009300019F0D8FEE3B20DF80350FFF76DFEEFF3A8
:10094000108372B6DFF83080C8F80030524669462E
:1009500009F580101EF028FED8F8003083F31088C7
:100960003B68185DA84214BF0020012040B0BDE8DC
:10097000F08700BF04310020345200202DE9F04FF1
:10098000ADF5005D83B020F0FF0404F5801421F084
:10099000FF0505F5801824F47F6626F00F0628F47D
:1009A0007F6727F00F0707F5805704F47064A7EB03
:1009B000080B06F18053019305F1805505F580156C
:1009C0000DF5805A0AF1080A4FF48052FF21504673
:1009D00019F022F90DF108094FF48052FF21484621
:1009E00019F01AF922460199504619F07BFE5A4631
:1009F0002946484619F076FEFFF70EFEEFF3108306
:100A000072B60C4D2B60B91B30461EF015FE224607
:100A1000514630461EF0C8FD5A46494640461EF033
:100A2000C3FD2B6883F310880DF5005D03B0BDE8AE
:100A3000F08F00BF3452002038B520F47F6424F0DA
:100A40000F04FFF7E9FDEFF3108372B6054D2B603D
:100A50004FF4805120461EF0EFFD2B6883F3108881
:100A600038BD00BF34520020F8B50D46164620F0C0
:100A7000FF04FFF7D1FDEFF3108372B6054F3B6023
:100A80003246294620461EF08FFD3B6883F31088CE
:100A9000F8BD00BF3452002003460144B1F5800F79
:100AA0000ED80A48006810F803C01846134499424B
:100AB00002D9BCF1FF0FF4D0BCF1FF0F02D0704798
:100AC000002070474FF0FF30F9E700BF00310020F1
:100AD00008B504F0CDFC08BD08B503480CF02EFAAB
:100AE000024B04221A7008BDA0F9011013910020D6
:100AF00008B54FF050435B6813F0807F04D0034982
:100B000003480CF01BFA08BD0249F9E78C370210C4
:100B1000ACF90110A8F9011008B506480CF00EFA5E
:100B20004FF47A7009F07AFD012108460AF0C2F903
:100B300008BD00BFD8F9011008B506480CF0FEF951
:100B40004FF47A7009F06AFD00214FF000700AF04E
:100B5000FAF900BFF8F9011008B502480CF0BFF926
:100B600008BD00BF28FA011008B503480CF0B7F91A
:100B700004F0B4FC08BD00BF38FA011008B504F059
:100B800049F808BD70B5B2B00A200CF099F90024FC
:100B900007E0144B53F82420214613480CF0CEF9FB
:100BA0000134042C1BDC204606F0D9FC0028F0D0D0
:100BB0000C4E56F8242021460C480CF0BFF956F88C
:100BC000243022460A4968460BF04EFF0246694629
:100BD000204606F035FD204606F0BCFCE0E732B0CA
:100BE00070BD00BF50490310B4FA01106CFA011037
:100BF00090FA011010B50E480CF071F90D480CF088
:100C00009DF90D480CF09AF900240AE00B4904EB19
:100C100044029300CA189268C95C09480CF08EF926
:100C200001340B2CF2DD0A200CF04AF910BD00BF94
:100C3000D8FA0110E4FA0110F8FA0110203100206E
:100C400010FB011010B50E480CF049F90D480CF0DE
:100C500075F90D480CF072F900240AE00B4904EB19
:100C600044029300CA189268C95C09480CF066F9FE
:100C70000134012CF2DD0A200CF022F910BD00BF76
:100C80001CFB01103CFB011068FB01100831002027
:100C900010FB01102DE9F04107464FF4746200216A
:100CA00018F0BAFF002623E0F42406FB04F407EB57
:100CB00004080025A8F83850C8F83050C8F8345057
:100CC000C8F85C5088F83A5088F8F05038343C4402
:100CD000023420222946204618F09EFF1F220E4B88
:100CE00053F82610204619F093F888F85950013629
:100CF0000F2ED9DD80233B81A7F8FC30A7F8F03117
:100D0000A7F8E4323B87A7F82C31A7F82032A7F8E0
:100D10001433BDE8F08100BF70590310F8B50446E4
:100D200016461A46069B770006EB4600F42501FBA3
:100D300005F505EB001021180A81235062194FF0C8
:100D4000010C82F8F0C0094A1A444A600830204475
:100D50001F2207491944023019F05AF8374405EBAD
:100D600007152C44002384F82930F8BD2800101002
:100D70000100101038B5049C02EB420E4FF0F40C49
:100D80000CFB01FC0CEB0E1E00EB0E052B8100236F
:100D900040F80E30844401238CF8F0306C60062952
:100DA00002D007291FD038BD63881B2B11D0192B07
:100DB000F7D102EB4202F42301FB03F303EB02132E
:100DC000083318441F22104B9968023019F020F89C
:100DD000E9E77346083318441F220B4B5968023069
:100DE00019F016F8DFE702EB4202F42303FB01F1EE
:100DF00001EB0211083108441F22034B196802302D
:100E000019F006F8CFE700BF64590310032900D892
:100E100070472DE9F8430446164602EB4203F427D7
:100E200001FB07F707EB031300EB03094FF0000882
:100E300040F80380A9F8088007F1380020441F22F9
:100E4000094B53F82110023018F0E2FF274487F8CD
:100E50005980C9F82C80C9F80480012E01D0BDE862
:100E6000F88387F8F080FAE770590310F8B5064662
:100E70000C461546B3B11946570002EB4200F42365
:100E800003FB04F404EB0010083030441F2202304E
:100E900018F0BEFF2F4404EB07142644002386F805
:100EA0002930F8BD02EB4205F42303FB04F404EB04
:100EB0000512104400238372F3E7F42303FB0103BC
:100EC0001B8913F0800F20D1F42303FB01031B8F38
:100ED00013F0800F1BD1F42303FB0103B3F8683038
:100EE00013F0800F15D1F42303FB0103B3F89830FE
:100EF00013F0800F0FD1F42303FB0100B0F8C830CA
:100F000013F0800F09D001207047012070470120A5
:100F1000704701207047012070470020704708B5D6
:100F200002EB4202F42301FB03F303EB021303443D
:100F30001B8913F0010F08D113F0100F07D113F420
:100F4000807F06D1FFF7B9FF00E0012008BD012036
:100F5000FCE70120FAE7000030B585B0044644F212
:100F60004103ADF80E30FFF795FE0A4D4FF4746360
:100F7000009323461022052128461EF069FB022318
:100F800000930DF10E030022052128461EF060FBA0
:100F900005B030BD000008404FF050435B6813F4CB
:100FA000003F00D0704700B583B04FF474630093E6
:100FB00003461022052103481EF04AFB03B05DF8EA
:100FC00004FB00BF000008402DE9F0411F464B1E06
:100FD0000E2B3FD80646531E032B3DD88DB22D0352
:100FE000ADB2D4B205F6FE7189B222461EF014FBF2
:100FF00000F03F00DFF8648018F800303B7005F621
:10100000FD71224689B230461EF006FB00F03F001B
:1010100018F800307B702D23BB7005F6FC7189B287
:10102000224630461EF0F8FA00F03F0018F8003073
:10103000FB7005F6FB71224689B230461EF0ECFAD1
:1010400000F03F0018F800303B7100237B71012055
:10105000BDE8F0810020FBE70020F9E7B05903105C
:101060000F2900D9704770B582B005460E46F422AC
:1010700001FB02F2383202440232114804F0F6FB5E
:10108000002418E004EB44034FF0F40C0CFB06FCC6
:101090000CEB031C0CF108022A4405EB0C010B8934
:1010A0004968019155F80C1000910232214605481B
:1010B00004F0DCFB0134042CE4DD02B070BD00BFA1
:1010C00094FB0110A0FB01100148024BC01A7047AD
:1010D000000008201891002000B58BB0684617F07A
:1010E0008DFDFFF7F1FF079BC01A0BB05DF804FB05
:1010F00010B500EBD070441000214FF0FF300DF020
:10110000F3FC022009F08AFA002006F08EFA18B9E2
:10111000013CF1D5002006E0002006F08BFA0248E1
:1011200004F0A4FB012010BDDCFB01102DE9F04709
:10113000012009F061FD8246022009F05DFD814633
:10114000032009F059FD8046092009F055FD0746A6
:101150000A2009F051FD06460B2009F04DFD054619
:101160000C2009F049FD044651460E480BF0E6FEFE
:1011700049460D480BF0E2FE41460C480BF0DEFEFE
:1011800039460B480BF0DAFE31460A480BF0D6FE22
:10119000294609480BF0D2FE214608480BF0CEFE46
:1011A000BDE8F087FCFB011010FC011024FC0110CD
:1011B00038FC01104CFC011060FC011074FC0110A3
:1011C00010B5114C20460BF0B9FE10480BF0B6FEDE
:1011D000FFF77AFF01460E480BF0B0FEFFF77CFFE9
:1011E00001460C480BF0AAFE052009F0FFFC0A4B53
:1011F000A3FB0031890909480BF0A0FE20460BF043
:101200006EFEFFF793FF10BD88FC0110D8FC0110A3
:1012100028FD011044FD0110D34D621060FD011046
:101220002DE9F04F2DED068B95B0FFF77FFF0120E4
:1012300009F0E2FC8246022009F0DEFC8146032030
:1012400009F0DAFC8046092009F0D6FC07460A209E
:1012500009F0D2FC06460B2009F0CEFC05460C2016
:1012600009F0CAFC03908E4B04221A608D4B1B6858
:1012700013F4807FFAD08B4B5B689BB207EE903AF9
:10128000F8EE677A9FED887A67EE877A9FED877A26
:1012900077EEC77ADFED866A87EEA67AB3EE0BAA01
:1012A0003AEE47AA052009F0A1FC824BA3FB0030CF
:1012B000800C07EE900AB8EE678AFFF705FF800AF8
:1012C00007EE900AF8EE679AFFF706FF800A07EE2E
:1012D000900AB8EE679A784BB3F854B02C2303FB0E
:1012E0000BF39B0A07EE903AF8EE678A12A80BF010
:1012F000ABFF00240BE004F150036B4413F8082CFF
:101300006E490DA800EB44000BF0AEFB0134072C36
:10131000F1D96B4804F0AAFA6A4804F0A7FA6A48BF
:1013200004F0A4FA694804F0A1FA694804F09EFAAE
:10133000684804F09BFA684B684A6949694804F0B8
:1013400095FA05AC20220021204618F065FC2046C5
:10135000FFF728F9002800F099809DF81430002B41
:1013600040F08F80604804F081FA604B1B78203B8E
:10137000DBB25E2B40F28E805D4804F077FA5D4C64
:10138000204604F073FA5C4804F070FA18EE100A74
:101390001EF02AF902460B46584804F067FA5146F7
:1013A000574804F063FA4946564804F05FFA41464C
:1013B000554804F05BFA3946544804F057FA314670
:1013C000534804F053FA2946524804F04FFA03995F
:1013D000514804F04BFAF2EE027A6AEE277AB1EE47
:1013E000047A87EE878ADFED4D7A38EE278A1AEE87
:1013F000100A1EF0F9F806460F4618EE100A1EF005
:10140000F3F8CDE9000132463B46454804F02EFA98
:101410000DA9444804F02AFA204604F027FA42486D
:1014200004F024FA0022414B414804F01FFA19EE5F
:10143000900A1EF0D9F802460B463E4804F016FA10
:1014400019EE100A1EF0D0F802460B463A4804F096
:101450000DFA18EE900A1EF0C7F802460B462C2132
:101460000191CDF800B0354804F000FA204604F0B0
:10147000FDF9134804F0FAF915B0BDEC068BBDE890
:10148000F08F05A92E4804F0F1F96EE72D4804F01D
:10149000EDF96AE715492C4804F0E8F96FE700BF59
:1014A00000200A4000000A403333533A6ABC343FFC
:1014B0002D93E13A83DE1B43408B0020BC300210A9
:1014C0007CFD0110CCFD0110E0FD011010FE0110AB
:1014D0005CFE01109CFE0110D8FE0110E4FE01101C
:1014E000F0FE0110FCFE011020FF011000F00F10B3
:1014F00070FF0110D4FC0110A8FF0110BCFF011007
:10150000DCFF0110F8FF011014000210300002107F
:101510004C0002106800021084000210000000421B
:10152000A0000210C800021000010210004080401C
:10153000100102103001021050010210700102105F
:1015400040FF011050FF011098FF011008B503F093
:101550001DFC08BD08B5002006F001F820B31749AE
:10156000174804F083F9012005F0F9FFF0B11349A1
:10157000144804F07BF9022005F0F1FFC0B10F49D7
:10158000114804F073F9032005F0E9FF90B10B490D
:101590000E4804F06BF9042005F0E1FF60B1074943
:1015A0000B4804F063F908BD0A49D9E70949DFE7A8
:1015B0000849E5E70749EBE70649F1E7B4010210FE
:1015C000BC010210E40102100C02021034020210ED
:1015D0005C020210B801021070B5B2B0164804F0F7
:1015E00045F9002407E0154B53F824202146144800
:1015F00004F03CF90134042C1BDC204605F0AFFF5D
:101600000028F0D00D4E56F8242021460D4804F055
:101610002DF956F8243022460B4968460BF024FA7F
:1016200002466946204606F00BF8204605F092FF78
:10163000E0E732B070BD00BF248A021050490310A9
:10164000CC02021084020210A402021008B50E4857
:1016500004F00CF901214FF4FA6009F02BFC002191
:101660004FF0FF300DF040FA002005F0DEFF0028BB
:10167000F5D0064B4FF080421A60002005F0DAFFEB
:10168000034804F0F3F808BDEC02021000B00D406E
:101690003003021038B5254804F0E8F8244804F077
:1016A000E5F84FF4FA7400214FF0FF300DF01CFA0A
:1016B000022008F0B3FF002005F0B7FF18B9013C85
:1016C000F1D1042407E0002005F0B4FF194804F02C
:1016D000CDF838BD01340F2C23DC174BF42202FB6C
:1016E00004331B8F13F0010FF4D013F4807FF1D07B
:1016F000114D012221462846FFF788FB0222214690
:101700002846FFF783FB032221462846FFF77EFB8E
:10171000042221462846FFF779FB2846FFF73CFCC8
:10172000D8E700214FF0007009F00DFC44030210CF
:1017300098030210300302107441002010B50446D3
:10174000B8B90F4804F092F8192006F039FD16E0F8
:1017500021460C4804F0E8FE192006F031FDFA207D
:1017600008F05CFF192006F02BFDFA2008F056FF68
:10177000013C631E082BEBD9034804F077F810BD39
:10178000CC030210E00302102032021008B54FF023
:1017900050435B6813F4003F01D1012008BD0248AB
:1017A00004F064F80020F9E7E403021008B50348E8
:1017B00004F05CF803F092FE08BD00BF280402109C
:1017C00008B5FFF7E3FF00B908BD034804F04EF881
:1017D00003F04EFEF8E700BF4C04021008B5FFF717
:1017E000D5FF00B908BD034804F040F80248FEF7F1
:1017F0003DFDF7E770040210408B002010B5FFF7A5
:10180000C5FF70B910BD084B53F82430074A32F8B1
:1018100014202146064804F029F801345F2CF2DD3B
:10182000F0E70024FAE700BF6CBA0310408B0020F9
:101830009C04021070B5C0B00446FFF7A7FFB0B318
:10184000BCB301224FF480714FF47F20FFF724F9DD
:10185000B0F1FF3F4CD1204618F0BAFF06464FF4D6
:101860008072FF21684618F0D7F932462146684653
:1018700018F0CEFA00230DF806306A4621462148BA
:1018800003F0F4FF4FF47F211F4803F0EFFF4FF404
:10189000807269464FF47F20FFF7E6F81B4C214623
:1018A0001B4803F0E3FF21461A4803F0DFFF40B076
:1018B00070BD164B1B78203BDBB25E2B04D813495E
:1018C000154803F0D3FFF2E71049144803F0CEFFA8
:1018D00008E004F1805303F57F231978104804F0E1
:1018E00023FE01341F2CF4DD0E4803F0BFFFDEE7BA
:1018F0004FF47F210C4803F0B9FF4FF47F20FFF72E
:101900009BF8A8E72C0502105005021000F00F10FC
:101910008C050210AC050210F8040210BC04021081
:10192000F0040210203202100805021030B589B010
:101930000546EC463C4C0FCCACE80F0094E80F0099
:10194000ACE807002CF8023B1B0C8CF8003000239D
:101950008DF81F307DB12C46284618F039FF042839
:1019600020D10022032A26DCA35C303BDBB2092B0A
:101970001DD80132F6E72D4803F078FF6846FEF7E0
:1019800011FE58B19DF800301BB9294803F06EFFD5
:101990000BE06946274803F069FF06E0264803F09C
:1019A00065FF02E0254803F061FF09B030BD24481F
:1019B00003F05CFFF9E72349684618F0D9FB0546B8
:1019C00010B30422214618F023FA00232B71694634
:1019D0001D4803F04BFF1D4803F048FF41F28830DB
:1019E000FFF786FBA0B96846FEF776FDA0B1694611
:1019F000174803F03BFF6846FEF7D4FD80B1694607
:101A00000C4803F033FFD0E7124803F02FFFCCE778
:101A1000114803F02BFFC8E7104803F027FFEAE75F
:101A20000F4803F023FFC0E7A4B20210CC05021058
:101A300000060210380602104C060210740602104E
:101A4000A8060210D00602101C0702103C07021064
:101A5000A0070210D806021078070210C007021073
:101A6000EC07021010B50D4803F000FF002408E059
:101A70000B4A0C4B53F8243021460B4803F0F6FE7A
:101A800001341D2C08DC4FF050435A680123A34059
:101A90001A42EDD0054AECE710BD00BF1408021051
:101AA00010080210F4B90310240802100C080210E8
:101AB00008B507F035F908BD08B507F0CBF908BD42
:101AC00008B507F097F808BD08B507F0FDF808BDA0
:101AD00008B507F075F808BD08B507F03BFB08BD71
:101AE00008B507F03DFB08BD2DE9F047ADF5805D79
:101AF00082B0066901F1805303F580131B6AB3427B
:101B000005D004200DF5805D02B0BDE8F0870746E2
:101B10001E4D0D44002401940022002312F0B2F85F
:101B2000A1464FF4805819E016F0ECFB01465246EE
:101B3000174803F09BFE0020E4E70133019A93422B
:101B40000AD202AAD25C1919695C8A42F5D08A438A
:101B50001AD14FF00109F0E7B61A14446EB14645A8
:101B600000D2B04602A90B1F4246384611F024FEAF
:101B700082460028D8D10023E0E7B9F1000F01D157
:101B80000120BFE70220BDE70320BBE728001010BB
:101B90003C0802102DE9F047ADF5955D86B006468C
:101BA0000F46012201460EA811F060FC28B931460B
:101BB000A6A818F0F9FC002518E0044616F0A2FBD0
:101BC000024623463146BA4803F050FE0024204620
:101BD0000DF5955D06B0BDE8F087AEAC2C4414F869
:101BE000200C17F0C9FA04F8200C0135A6A818F04B
:101BF000EFFDA842F1D82E21A6A818F03BF9044623
:101C0000129D03462A463146AA4804F08DFC2F2136
:101C1000304618F02FF900B1461CA749204618F0AD
:101C2000E5FB002800F0BE804FF00009A3492046E4
:101C300018F0DCFB08B94FF00309A149204618F061
:101C4000D5FB08B94FF004099E49204618F0CEFB99
:101C500008B94FF005099C49204618F0C7FB08B9A0
:101C60004FF006099949204618F0C0FB08B94FF01B
:101C700007099749204618F0B9FB08B94FF0080941
:101C80009449204618F0B2FB002800F09680B9F184
:101C9000000F00F08A803046FEF71CFE8046B0F14F
:101CA000FF3F40F08D80032F00F0D4800024022FEE
:101CB00003D1B8F1FF3F40F0D5800020FEF7F2FDE0
:101CC000B0F1FF3F00F01E8129460020FEF7A6FD7F
:101CD0008046B0F1FF3F00F01D81C0F5401305F5CF
:101CE00080729342C0F01E8104AC8DF81090314692
:101CF0000DF1110018F058FC0C9508F1805303F514
:101D000080135A6A1B78FF2B00F014810D92012278
:101D100005F128014046FEF7B9FCB0F1FF3F40F065
:101D20001081AEAC04AECDF80080336A32780DF18C
:101D30001101694803F09AFD4FF48052FF212046BB
:101D400017F06AFF0FCE0FC40FCE0FC496E8030042
:101D500084E803000EAC00220023204611F092FF1D
:101D600003AB40F6D872B8A9204611F025FD044611
:101D7000002840F0F480FEF74FFCAEA9A1F52B76C9
:101D8000346804F2271424F0FF04EFF3108772B6CE
:101D9000224608F580101DF007FC87F3108836688E
:101DA000AE1BFBE04FF0010940E74C4803F05EFD3D
:101DB0000EA811F0BDFE012409E74FF009096AE7FA
:101DC0000146474803F052FDBB1E012B3AD841465D
:101DD0000EA8FFF789FE044604282AD8DFE800F0A1
:101DE0000B03291A13003F4803F040FD0EA811F021
:101DF0009FFE0224EBE63C4803F038FD0EA811F0EC
:101E000097FE0324E3E6394803F030FD0EA811F0F5
:101E10008FFEDCE6364803F029FD4FF0050A022C60
:101E20000AD0032F7FF443AF0EA811F081FE544671
:101E3000CDE64FF0000AF2E72E4803F017FD4FF011
:101E4000060AEEE72C4803F011FD0EA811F070FE13
:101E50000724BCE6294803F009FD0EA811F068FE2E
:101E60003C46B4E608F1805303F580131E460DF19D
:101E7000100E03F12007F44630687168B268F36809
:101E8000ACE80F001036E646BE42F4D13068716807
:101E9000AEE80300032C7FF444AF0D9A4146184886
:101EA00003F0E4FC0D994046FEF768FD39E700BFFA
:101EB00074080210500A0210C0080210C80802106C
:101EC000D0080210D8080210E0080210E80802103A
:101ED000F0080210F8080210C00C021000090210ED
:101EE000880A0210A80A0210D80A0210F40A021086
:101EF000300B0210700B0210AC0B0210DC0B021046
:101F0000080C0210324803F0B1FC0EA811F010FECC
:101F100009245CE62F4803F0A9FC0EA811F008FE86
:101F20000A2454E62C4803F0A1FC0EA811F000FE90
:101F30000A244CE605F2271323F0FF0343446362AF
:101F4000E5E60146254803F091FC0D9A41462448F8
:101F500003F08CFC0D994046FEF710FDE1E616F00B
:101F6000D1F9014622461F4803F080FC0EA811F06B
:101F7000DFFD00242BE6FF3424F0FF04EFF310878D
:101F800072B6AEAD2246294608F580101DF00CFB56
:101F900087F31088A5F52B752B68F61A002E12DD35
:101FA000AEAD4FF48052FF21284617F035FE03AB4B
:101FB0004FF4805229460EA811F0FEFBA04403AD59
:101FC0002C68002CD7D10EA811F0B2FD0824FEE534
:101FD000300C02104C0C0210740C0210A00C0210F9
:101FE000080C02103C08021070B5ADF53E7D0546A8
:101FF0000E462C220021B3A817F00EFEFEF7ACFB14
:1020000068B3FF22002173A817F006FE2B7833B9BE
:10201000FF2173A811F0A1FD044648BB73AD29460A
:10202000514803F023FC582200215CA817F0F4FD6E
:102030004FF49072002114A817F0EEFD05B34B4B3E
:102040002A4614A95CA812F022F8044698B316F0A8
:1020500059F901462246464803F008FC81E045480C
:1020600003F004FC4FF44061434803F0FFFB78E0C9
:1020700016F048F901462246404803F0F7FB70E0AD
:102080003F4B404A40F2A9513F480AF085FD314696
:102090006846FFF77FFDBEAB03EB800353F82C2CA3
:1020A000013243F82C2C394803F0E0FB14A95CA85A
:1020B00011F0D6FF044614BB9DF86A30FBB1002135
:1020C0004FF0FF300CF010FD2946684618F06CFA0E
:1020D000684618F07DFB2E4B1B882DF800300DF163
:1020E0006A01684617F00CFE9DF85C3013F0100F83
:1020F000CDD00DF16A01274803F0B8FBD6E75CA804
:1021000011F065FF244803F0B1FBBB99234803F0AD
:10211000ADFBBA99224803F0A9FBB599214803F019
:10212000A5FBB999204803F0A1FBB8991F4803F01B
:102130009DFBB7991E4803F099FBB6991D4803F023
:1021400095FBB4991C4803F091FBB3991B4803F02D
:102150008DFBBD991A4803F089FBBC99194803F01F
:1021600085FB0DF53E7D70BD840D0210D4FC011081
:10217000140E0210F80C0210340D0210600D021043
:10218000A40D0210AC0D0210D40D0210203202106A
:10219000380E02103C0E0210580E0210780E02107B
:1021A000A80E0210D80E0210080F0210380F0210ED
:1021B000680F0210980F0210C80F0210F80F0210DB
:1021C000281002105810021070B505460C4616462D
:1021D000FFF7DCFA30B1012C08D021462846FFF782
:1021E000D9FC70BD044803F041FBFAE731462846AC
:1021F000FFF7FAFEF5E700BF8810021030B583B094
:10220000044645886DBAADB2018849BA89B23748EB
:1022100003F02CFB2946364803F028FBE188A3880D
:1022200003F47F4202EB11225BBA9BB2FF2B2BD847
:1022300092B2B2F5805F2FD355BB2E4803F016FB48
:1022400004F58054B4F8FC0FC0F305202A49B4F813
:10225000FA2FC2F30522B4F8F83FC3F30523B4F80C
:10226000F65FC5F305254D5D0095CB5C8A5C095C86
:10227000224803F0FBFAB4F8FE1F49BA89B220489D
:1022800003F0F4FA03B030BD1E4803F0EFFAD7E7CD
:102290001D4803F0EBFAD3E7002DCED002F1004346
:1022A000013B34F813305BBADBB200203F2B0FD870
:1022B0000F280DDC03F03F030F49C95C134B195481
:1022C0000130531E1B1A34F813305BBADBB2EDE752
:1022D00003F03F030849CB5C0C490B540130002349
:1022E0000B540B4803F0C2FAAAE700BFC01002105B
:1022F000D410021024110210DC47031084110210C4
:10230000A0110210E81002100411021094400020E5
:102310004C110210F0B5C1B00746294803F0A6FAE7
:10232000284803F0A3FA284803F0A0FA002428E084
:10233000103CA4B201AB5919244A10889278585322
:102340008A700235002608E0214901A828440AF0D5
:102350008BFB01350134A4B201360F2E0ADC37F8AD
:10236000142052BAD2B2A2F12003DBB25E2BEBD919
:102370002E22E9E701A9174803F078FAB4F5805F47
:102380001BD200214FF0FF300CF0AEFB2246124969
:1023900001A80AF069FB00260A250F2EC8DC37F8D1
:1023A000142052BA92B20D4901A828440AF05CFBED
:1023B00005350134A4B20136EFE741B0F0BD00BFEE
:1023C000B8110210D011021038120210AC12021013
:1023D0009CF9011004130210A4120210B012021092
:1023E00010B501EB810C01F003014900C1F1080EA9
:1023F000FF2303FA01F2C1F106042341CCF38F0C51
:1024000010F80C4022400A41604441780B4003FA26
:102410000EF39BB213FA82F080B210BD2DE9F047A3
:1024200082B0804690F8B89201465C4803F01EFAEC
:1024300008F105015A4803F019FA98F8B8125948FA
:1024400003F014FA002739E0574803F00FFA04E0CC
:10245000002E76D1554803F009FA04F5805494F81B
:10246000213494F8225405F03F052D0105EB131596
:1024700005F03F054E4994F82024920894F81F0473
:1024800000F03F0094F81D6494F81E349B0003EBA9
:10249000961303F03F03CB5C00930B5C8A5C495DB1
:1024A000444803F0E3F994F8221494F823349B0091
:1024B00003EB9111404803F0D9F901374F4569DA30
:1024C00041F2444A0AFB078A0AF2D92422463946D5
:1024D0003A4803F0CBF90AF2FD2A94F8253094F833
:1024E000266006F00F06B60106EB930694F824105A
:1024F00003F0030301EB0321314803F0B7F9314640
:10250000304803F0B3F994F8273094F82850AD0020
:1025100005EB931594F8262003F03F031B0103EB12
:102520001213DAB2120252FA85F5ADB2FF2B8BD834
:10253000B5F5805F8CD3002E8CD0234803F096F93C
:102540008BE7691E89B25046FFF74AFFC0B20026EA
:102550000EE000F03F00164B1A5C1C4B9A550136FA
:10256000A91B89B2013989B25046FFF739FFC0B2C1
:102570003F2801D80F2EECDD00F03F000C4B1B5C18
:1025800012498B55013600238B552A46104803F01B
:102590006DF962E702B0BDE8F08700BFB812021023
:1025A000CC120210E0120210E810021024110210E6
:1025B000DC47031084110210A0110210F412021063
:1025C000C0100210D4100210041102109440002018
:1025D000081302102DE9F043C1B08046354917F0C9
:1025E00005FF002861D1344803F040F941B0BDE84F
:1025F000F08321463846FFF7F3FE02462F4901A833
:1026000028440AF031FA05350134A4B201360F2E00
:10261000EFDD103CA4B201AB5919294A1088927819
:1026200058538A700235002608E0264901A828443C
:102630000AF01AFA01350134A4B201360F2E0BDC70
:1026400021463846FFF7CCFEC2B2A2F12003DBB22E
:102650005E2BEAD92E22E8E701A91B4803F006F910
:10266000B4F5805F0CD200214FF0FF300CF03CFA43
:102670002246164901A80AF0F7F900260A25C6E7FE
:1026800009F10109B9F1000FB0DC41F2444707FB41
:10269000098707F2FD270E4803F0E8F80D4803F01C
:1026A000E5F80D4803F0E2F8DDE74FF000094C468D
:1026B000E8E700BF4013021048130210B0120210E6
:1026C000AC1202109CF9011004130210A4120210A3
:1026D000B8110210D01102103812021010B588B0D3
:1026E0000138052806D8DFE800F003075D9194BAA9
:1026F00006F01AFE08B010BD0C46084618F068F83F
:102700000C2803D0584803F0B1F8F3E703238DF801
:102710000C302378303BDBB21B01DBB26278134410
:10272000303B8DF81330A378303BDBB21B01DBB2BA
:10273000E2781344303B8DF812302379303BDBB222
:102740001B01DBB262791344303B8DF8103000225C
:102750008DF81120A379303BDBB21B01DBB2E179AC
:102760000B44303B8DF80F30237A303BDBB21B013A
:10277000DBB2617A0B44303B8DF80E30A37A303BEC
:10278000DBB21B01DBB2E17A0B44303B8DF80D303C
:102790000092082303AA682134480BF0C2F8344899
:1027A00003F064F803A806F049FE9DF812309DF886
:1027B00014209DF815102F4803F058F89DF80F309D
:1027C00003F07F039DF810209DF811102A4803F0B4
:1027D0004DF89DF80E10294803F048F89DF80E308A
:1027E00013F0040F0AD1264803F040F89DF90F308A
:1027F000002B07DB234803F039F87BE7224803F07E
:1028000035F8F3E7214803F031F873E706F0E8FD07
:1028100070E703A806F012FE0024132C0ADC04F172
:1028200020036B4413F8142C2146194803F01EF8BA
:102830000134F2E79DF812309DF814209DF8151030
:102840000C4803F013F89DF80F3003F07F039DF858
:1028500010209DF81110084803F008F84AE70D48C9
:1028600003F004F846E700BF681302103C3600206E
:10287000A4130210B0130210D4130210F8130210A4
:1028800008140210341402101C1402105C140210FC
:102890009C140210B01402102DE9F04198B00746C4
:1028A0000C46FDF759FF70B3002C54D02046FEF7BC
:1028B00011F80546B0F1FF3F30D000F1805404F527
:1028C00080145A4802F0D2FF594802F0CFFF214647
:1028D00011F8012B236A606A01900095554803F0B6
:1028E00023FE2378FBB17F2B21D0534802F0BEFF9B
:1028F0002378032B1FD0013BDBB2012B23D94F4898
:1029000002F0B4FF07E04E4802F0B0FF4FF4406120
:102910004C4802F0ABFF18B0BDE8F08121464A48B0
:1029200002F0A4FFF7E7494802F0A0FFF3E74848A8
:1029300002F09CFFEFE7474C6019FFF75FFC60195E
:10294000FFF7E8FCE7E7434C6019FFF767FD601904
:10295000FFF740FEDFE7354802F088FF344802F019
:1029600085FF4FF00008454619E0C5F54014414683
:10297000394802F07BFF2946384802F077FFA20A67
:102980004FF44011364802F071FFC4E72F4803F0BE
:10299000CBFD294802F06AFF022F2AD0656AB5F5FF
:1029A000401FB8D200214FF0FF300CF09DF805F128
:1029B000805404F580142378FF2BD6D004AE626ACD
:1029C00002920195226A0092621C1A4930460AF06E
:1029D0004BF8304603F0A8FD08F101022378002BE4
:1029E000D4D07F2B01D09046D3E7194803F09CFD4B
:1029F000CFE72278531EDBB2012B06D9032ACDD1B3
:102A000014482844FFF7FAFBC8E7124E2E4431461B
:102A1000144802F02BFF711D134802F027FF96F8AF
:102A2000B812124802F022FFB8E700BFEC140210FF
:102A300098090210E4090210FC6D0210000902104E
:102A4000F80C0210340D0210D414021038150210C4
:102A50005015021028001010641502109C15021069
:102A6000D8150210B8120210CC120210E012021097
:102A70002DE9F04FADB00378012B40F0CE82064631
:102A800090F8DB92B9F10A0F07D840F25C7323FA91
:102A900009F313F0010F40F0C682202422460021E2
:102AA00024A817F0B9F8224600211CA817F0B4F8A2
:102AB0002246002114A817F0AFF8224600210CA8E6
:102AC00017F0AAF82246002104A817F0A5F84FF045
:102AD0000108B8F1030F00F3A282002535E22F2A86
:102AE0000CD03F2A40F03082013B2CAA02EB83033A
:102AF00053F8402C013A43F8402C25E2013B2CAA24
:102B000002EB830353F8202C013A43F8202C1BE2FC
:102B1000013B2CAA02EB830353F8602C013A43F8E3
:102B2000602C11E2013B2CAA02EB830353F8802CAA
:102B3000013A43F8802C07E2A37F002B00F00482C7
:102B400094F81DA0BAF12F0F67D0BAF12F0F6ED0F5
:102B5000BAF13F0F75D0BAF13F0F7CD0BAF15F0FD9
:102B600000F08380BAF15F0F00F08A80BAF14F0F56
:102B700000F09080BAF14F0F00F09780BAF16F0F1C
:102B800000F09D8003F1FF3B2CAB03EB8B0353F86C
:102B9000203C3BB12CAA02EB8B0252F8402C002ABD
:102BA00040F09A80002B40F0B2802CAB03EB8B03FB
:102BB00053F8403C002B40F0B6802CAB03EB8B036A
:102BC00053F8803C3BB12CAA02EB8B0252F8602CEC
:102BD000002A40F0B480002B40F0CB802CAB03EBFC
:102BE0008B0353F8603C002B40F0CF802CAB03EB01
:102BF0008B0353F8A02C002A00F0F68053420827DC
:102C0000CDF800A0CDF804B09346CDF80880039528
:102C10001D4633463E461F46C5E05A1E2CA901EB11
:102C2000820252F8407C002F8FDD013F33E15A1EB3
:102C30002CA901EB820252F8207C002F00F32B819B
:102C400086E75A1E2CA901EB820252F8207C002F45
:102C500081DD01371FE15A1E2CA901EB820252F8D7
:102C6000407C002F00F3178178E75A1E2CA901EB56
:102C7000820252F8807C002F7FF774AF01370AE19F
:102C80005A1E2CA901EB820252F8607C002F00F33F
:102C900002816BE75A1E2CA901EB820252F8607C7C
:102CA000002F7FF767AF013FF5E05A1E2CA901EB1B
:102CB000820252F8807C002F00F3ED805EE7591EFF
:102CC0002CAA02EB810252F8A07C002F7FF75AAFAA
:102CD000013742F8A07CDEE00827CDF800A000E034
:102CE00001370E2F00F28D8094F81FA0524639460E
:102CF0006448FEF714F90028F2D15246791C614865
:102D0000FEF70DF90028EBD1DDF800A07BE00827E5
:102D10000F2F78D8E27F39465A48FEF700F900288D
:102D200071D00137F4E708270F2F6CD8E27F3946BE
:102D30005448FEF7F4F8002865D00137F4E7082777
:102D4000CDF800A000E002370E2F6DD894F81FA038
:102D5000524639464B48FEF7E2F80028F3D1524676
:102D6000791C4848FEF7DBF80028ECD1DDF800A01C
:102D700049E008270E2F46D8E27F39464148FEF742
:102D8000CEF800283FD00237F4E708270E2F3AD8B4
:102D9000E27F791C3B48FEF7C2F8A0B30237F5E7A3
:102DA000AA4544D201360BF11002964211D8B04622
:102DB0004FF0000AB8F10F0FF2D8E27F41463148D8
:102DC000FEF7ADF80028EBD10AF1010A08F101087D
:102DD000F0E7DDF800A0DDF804B0DDF80880039D21
:102DE0003B4637461E460EE0082700E001370F2F0E
:102DF00009D8E27F39462348FEF791F80028F5D13B
:102E000001E0DDF800A0BAF14F0F2DD01AD8BAF1C9
:102E10002F0F23D0BAF13F0F3DD101372CAB03EB7D
:102E20008B0343F8407C36E0DDF800A0EBE7DDF8EB
:102E300000A0DDF804B0DDF80880039D3B4637466E
:102E40001E46E0E7BAF15F0F14D0BAF16F0F22D13E
:102E50002CAB03EB8B0343F8A07C1CE02CAB03EB07
:102E60008B0343F8207C16E02CAB03EB8B0343F879
:102E7000807C10E001372CAB03EB8B0343F8607CC4
:102E800009E000BF74410020A37F002B5CD1677F65
:102E90001F2F00F0AB80032F40F2E98094F821301F
:102EA000002B40F0B1804FF0130A94F822300BB1A0
:102EB0004FF0000A3378012B00F0A9800F2F00F2A9
:102EC000D98094F81FB05A4639466D48FEF727F866
:102ED000002840F0D28004F12401694A0BEB4B0B2F
:102EE000F42307FB03F303EB0B1B9344CBF8041011
:102EF000E17F06F16F4000F5700001EB410103EB4B
:102F000001115050E17F01EB410103EB011111442C
:102F1000A1F808A0E17F01EB410103EB011111448D
:102F200000278F72E17F01EB410103EB0111114496
:102F3000C862E17F01EB410103EB0110083010444E
:102F4000711C023017F030FB013596F8E032AB42CD
:102F500060DD41F2444405FB04F404F201343444DE
:102F6000B8F1020F3FF4E8ADB8F1030F8CD0B8F11F
:102F7000010FE9D1627FA2F11003DBB20E2B55D90C
:102F80006F2A56D8A37F082B56D8E17F002956D048
:102F9000042957D894F82010082956D894F82110FD
:102FA000012955D894F82210012954D894F82310F7
:102FB000012953D80BB11F2A53D90BB91F2A53D853
:102FC000002BC1D04F2A3FF4ADAD7FF688AD5F2A0C
:102FD0003FF49EAD6F2AB7D1013B2CAA02EB8303CD
:102FE00053F8A02C013A43F8A02CADE7082700E0E5
:102FF00001370F2F3FF64FAFE27F39462048FDF7EC
:103000008EFF0028F4D146E74FF0000A4DE74AF062
:10301000080A53E708F101085BE54FF067094846E5
:103020002DB0BDE8F08F4FF06909F8E74FF0670960
:10303000F5E74FF06709F2E74FF06709EFE74FF068
:103040006709ECE74FF06709E9E74FF06709E6E742
:103050004FF06709E3E74FF06709E0E74FF06709D2
:10306000DDE74FF06709DAE74FF06709D7E74FF080
:103070006A09D4E74FF06809D1E74FF06809CEE755
:10308000744100202DE9F04383B006460C461546F6
:103090001F46FEF77BFB002800F007818046731F68
:1030A000012B40F2DF8005EB4502F42304FB03F320
:1030B00003EB0213AF4A13441B8913F0010F0DD128
:1030C0002146AC48FDF7F9FE70B9731E052B00F2DE
:1030D000EC80DFE803F00E395A7BC7C72A46214649
:1030E000A54802F0C3FBE0E02146A44802F0BEFB85
:1030F000DBE0A04BF42202FB04331B8F13F0010F23
:103100001DD19F4802F0B2FB9A4C40F21713A4F86D
:10311000E4360023C4F8DC36012584F89C57994B2B
:10312000C4F8E0361F22984B196804F2E66016F0E6
:103130006FFE2046FDF730FF944B9D80B5E02146A1
:10314000934802F093FBB0E08A4BF42202FB043375
:103150001B8F13F0010F13D18E4802F087FB854CB3
:103160008D4B009340F21713012206212046FDF7F4
:1031700001FE2046FDF710FF844B00221A8094E0E8
:103180002146834802F072FB8FE07A4BF42202FB67
:1031900004331B8F13F0010F13D1804802F066FB3C
:1031A000744C7F4B009340F21713012206212046F6
:1031B000FDF7E0FD2046FDF7EFFE744B01221A807B
:1031C00073E02146724802F051FB6EE03846FDF78D
:1031D00081FB8046B0F1FF3F26D02B462246394680
:1031E000704802F043FB08F1805606F580166E48E1
:1031F00002F03CFB6D4802F039FB314611F8012B1F
:10320000336A706A0190CDF80080694802F02EFBA5
:103210003378032B0DD03378013BDBB2012B44D83C
:10322000644802F023FB40E03946634802F01EFB8D
:103230003BE0624F07EB0800FEF7E0FF07EB0802F8
:1032400008F128015E4802F011FB4A4FCDF80080DA
:1032500017232A4621463846FDF760FD3846FDF71C
:103260009BFED8E73846FDF735FB0446B0F1FF3F3B
:103270001ED000F1805505F580154B4802F0F6FA96
:103280004A4802F0F3FA294611F8012B2B6A686AC2
:1032900001900094464802F0E9FA2B78032B0CD0F9
:1032A000012B4CD0022B00F0E28003B0BDE8F0838C
:1032B0003946414802F0DAFAF7E7404D2819FEF79F
:1032C0009DFF2A1904F128013E4802F0CFFA4FF081
:1032D0000009082500E001350F2D12DCB9F1000FBF
:1032E0000FD1244BF42202FB05331B8F13F0010F87
:1032F000F1D129461F48FDF7E0FD0028EBD1C1467A
:10330000EAE7B9F1000F12D03A4629462E4802F0FA
:10331000ADFA062E0FD0174E00941723012229462E
:103320003046FDF7FBFC3046FDF736FEBDE727488B
:1033300002F09CFAB9E7264802F098FAB5E725486A
:1033400002F094FA2846FFF793FB044663285CDDFD
:10335000A0F16503052B53D8DFE803F003074246CD
:103360004A4E1D4802F082FA9FE71C4802F07EFA9E
:103370009BE700BF7441002028160210641602105B
:10338000D0160210F499031064590310408B0020EA
:103390009C160210F8160210F47903102817021078
:1033A000F459031054170210EC140210980902107B
:1033B000E4090210AC170210D414021028001010F7
:1033C0007C1702100418021080180210481802100E
:1033D0009C180210C8180210DC1802100019021004
:1033E000254802F043FA60E7244802F03FFA5CE720
:1033F000234802F03BFA58E7224802F037FA54E734
:103400000146214802F032FA4FE7204802F02EFA36
:103410001F48FDF7C1FD072C24D801A353F824F061
:10342000AB320010413400106534001065340010D8
:103430006534001057340010653400104F3400100C
:10344000144802F013FA144B01221A802DE7134896
:1034500002F00CFA29E7124802F008FA0E4B01229A
:103460009A8022E721460F4802F000FA1DE70E4835
:1034700002F0FCF919E700BF2419021040190210EC
:103480007019021090190210C0190210DC190210F4
:1034900074410020FC190210408B00202C1A0210ED
:1034A000781A0210AC1A0210E81A021070B506461B
:1034B0000C46FEF76BF9002800F0AA80012E44D0DC
:1034C000022E70D031465A48FDF7F7FC002877D11C
:1034D000002C00F0908004EB4402F42306FB03F37D
:1034E00003EB0213524A13441B8913F0010F00F03F
:1034F0009080224631464E48FDF788FC22463146F0
:103500004C4802F0B3F97CE0224629464848FDF7D2
:103510007DFC0134042C13DC04EB4402F42305FB92
:1035200003F303EB0213424A13441B8913F0010F08
:10353000EFD029461046FDF7C0FC0028E9D1E3E7AB
:1035400001350F2D03DC3446E4E70425F9E73A4B57
:1035500000221A809A803648FDF71EFD374802F097
:1035600085F955E0224629463148FDF74FFC0134E4
:10357000042C13DC04EB4402F42305FB03F303EBFC
:1035800002132B4A13441B8913F0010FEAD1294679
:103590001046FDF792FC0028E9D0E3E701350F2D36
:1035A00003DC0124E4E70425F9E7234B00221A8019
:1035B0009A801F48FDF7F0FC214802F057F927E0F8
:1035C0003146204802F052F922E00134042C14DC88
:1035D00004EB4402F42306FB03F303EB0213144A47
:1035E00013441B8913F0010FEFD0224631461048D7
:1035F000FDF70CFCE9E70124E8E73146124802F048
:1036000035F9062E0BD0072E0DD00948FDF7C4FC66
:1036100070BD224631460D4802F028F9F8E7064B06
:1036200000221A80F1E7044B00229A80EDE700BFE8
:1036300074410020E81B0210408B0020241B021064
:10364000581B02108C1B0210C81B0210041C021015
:103650002DE9F041ACB006460F46904620AC934DA4
:103660000FCD0FC40FCD0FC495E80F0007C4238002
:1036700018AC8F4D0FCD0FC495E80F0084E80F00F4
:103680000DF1280C8B4C0FCCACE80F000FCCACE844
:103690000F000FCCACE80F0094E803004CF8040BCB
:1036A0008CF8001003AC844D0FCD0FC495E80700D3
:1036B00003C42270FEF76AF8002849D0062E10D005
:1036C0007E4BF42202FB07331B8F13F0010F0FD147
:1036D000013E052E00F2E680DFE806F00F0F426B98
:1036E00094CA3B1F0B2BEBD9754802F0BFF82FE0B3
:1036F0003946744802F0BAF82AE005216F48FDF710
:10370000DCFB40BB6D4C8023A4F8FC340026C4F8DD
:10371000F464012384F8B4356B4BC4F8F83404F234
:10372000FE451F226949284616F072FB84F81D6584
:103730000DF160081F224146284616F069FB052757
:103740005E48FDF729FC42463946614802F08EF892
:103750002CB0BDE8F08139465E4802F087F8D1E729
:1037600005215648FDF7A9FBF0B9544C8023A4F875
:10377000F0350026C4F8E865012384F8A836524BDA
:10378000C4F8EC3504F2F2551F225049284616F0D1
:103790003FFB84F811660DF128081F224146284698
:1037A00016F036FB0627CBE739464B4802F05EF8A9
:1037B000DBE707214148FDF780FBF0B93F4C802350
:1037C000A4F8E4360026C4F8DC66012384F89C37AC
:1037D0003D4BC4F8E03604F2E6651F223B4928461B
:1037E00016F016FB84F805670DF10C081F22414600
:1037F000284616F00DFB0727A2E73946374802F0A6
:1038000035F8DBE74FB339462C48FDF756FB50B38C
:103810002A4C012239462046FDF7F8FA00223946A3
:103820002046FDF7F3FA39462D4802F01FF88FE7DE
:1038300001340F2C13DC21462048FDF73EFB002805
:10384000F6D01E4D012221462846FDF7DFFA002260
:1038500021462846FDF7DAFAEAE70424E9E7214899
:1038600002F004F874E739461F4801F0FFFF6FE7E4
:1038700039461248FDF721FB78B9104C002300931C
:103880008023012239462046FDF748FA43460122AB
:1038900039462046FDF7EAFA52E73946134801F067
:1038A000E5FF55E7124801F0E1FF51E7401E021025
:1038B000701E0210901E0210C81E021074410020DB
:1038C000281C02104C1C02102800101001001010BF
:1038D000241E0210801C0210C41C0210081D0210BD
:1038E000701D02104C1D0210941D0210C01D02100C
:1038F000041E02102DE9F047D0B00546E0B10F4696
:1039000001EB4102F42300FB03F303EB0213BC4A77
:1039100013441B8913F0010F00F04F810146B84892
:10392000FDF79EFBB74801F0A1FF2D03AEB206F5EF
:1039300080581FFA88F8A0E1B34801F097FFB34818
:1039400001F094FFB24801F091FF2E461FE004EB16
:103950004403F42206FB02F202EB0312A84B1344C9
:103960000B449A7A46AB5A5401311F29EFDD04EB20
:103970004404F42306FB03F303EB0413A04A1A44A4
:1039800046AB12893146A34801F070FF01360F2E75
:1039900000F318810124042CF8DC31469848FDF727
:1039A0008CFA18B1012C01D12946DEE704EB440260
:1039B000F42306FB03F303EB0213914A13441B8920
:1039C00013F0010F2FD013F4807F2ED040F09180A0
:1039D00022463146904801F049FF0134DBE704EB11
:1039E0004403F42206FB02F202EB0312844B13445D
:1039F0000B449A7A46AB5A5401311F29EFDD012C52
:103A0000EBD104EB4402F42306FB03F303EB0213B4
:103A10007B4A13441B8946AA0092224631467F48BE
:103A200001F024FFD9E72946E7E74EAB22463146AD
:103A30007348FDF7C9FA4FEA0639012C2BD01FFA5B
:103A400089F9E3B2DFF8B8811F461A464946404675
:103A50001BF0E2FD824609F101013A4689B2404677
:103A60001BF0DAFD04EB4402F42306FB03F303EB43
:103A7000021308EB030211890833434402335268EE
:103A800003920293019100904EAB52462146644846
:103A900001F0ECFEA1E71FFA89F9E3B2DFF86081DB
:103AA0001F461A46494640461BF0B6FD824609F1BC
:103AB00001013A4689B240461BF0AEFD04EB4402D8
:103AC000F42306FB03F303EB021308EB0302118953
:103AD00008334344023352680492039302910190E5
:103AE0004EAB00935346224631464E4801F0BEFE8F
:103AF00073E74FEA06394EAB224631464048FDF7A0
:103B000063FA012C2BD01FFA89F9E3B2DFF8F080B9
:103B10001F461A46494640461BF07EFD824609F183
:103B200001013A4689B240461BF076FD04EB44029F
:103B3000F42306FB03F303EB021308EB03021189E2
:103B40000833434402335268039202930191009078
:103B50004EAB52462146344801F088FE3DE71FFA3D
:103B600089F9E3B2DFF898801F461A464946404675
:103B70001BF052FD824609F101013A4689B24046E6
:103B80001BF04AFD04EB4402F42306FB03F303EBB2
:103B9000021308EB030211890833434402335268CD
:103BA00004920393029101904EAB00935346224638
:103BB00031461E4801F05AFE0FE70A4601461C48EE
:103BC00001F054FE50B0BDE8F0877119FAB289B225
:103BD0000B481BF021FD0246164907A8204408F0B7
:103BE00043FF044401350F2DEFDD07AB1919124ACD
:103BF0001088927818538A700234002525E000BF9F
:103C00007441002020320210E41E0210F81E02103F
:103C1000301F0210781F021078200210B81F021007
:103C200038200210F81F021004210210C4200210D4
:103C30004421021068210210AC120210134907A897
:103C4000204408F011FF013401350F2D0DDC7119EE
:103C5000FAB289B20E481BF0DFFCC2B2A2F1200317
:103C6000DBB25E2BEAD92E22E8E71036B6B207A9FE
:103C7000084801F0FBFDB045A4D93246064907A823
:103C800008F0F2FE00250A24ADE700BF9CF9011000
:103C90007441002004130210A412021070B50446EF
:103CA0000E46FDF773FD00283BD00546601E032835
:103CB00034D8DFE800F0023B4C5D554801F0D6FDFA
:103CC000544B9B880BB1544900E05449544801F0CF
:103CD000CDFD504B1B880BB14F4900E04F49514877
:103CE00001F0C4FD0424002100E001340F2C14DC99
:103CF0004D4BF42202FB04331B8F13F0010FF4D061
:103D0000494B02FB043393F9F030002BEDDA2146E6
:103D1000464801F0ABFD2946E7E719B13D48FCF7FD
:103D2000EDFA70BD424801F0A1FDF7E7394B9B88E1
:103D300033B9384B01229A803E4801F097FDEDE7F8
:103D4000344B00229A803C4801F090FDE6E7314B6D
:103D50001B8833B92F4B01221A80384801F086FDA9
:103D6000DCE72C4B00221A80354801F07FFDD5E7B7
:103D70002D4BF42202FB06331B8F13F0010F24D0CE
:103D8000294BF42202FB063393F9F030002B21DBA0
:103D900006F0FE01244CF42303FB014090F8F020D0
:103DA00062F07F0280F8F02001FB0333234493F894
:103DB000F02062F07F0283F8F0204A1C214801F0D5
:103DC00055FD2046FDF7E8F8A8E731461E4801F00A
:103DD0004DFDA6E706F0FE01134C134602FB014021
:103DE00090F8F02002F07F0280F8F02001FB03330E
:103DF000234493F8F02002F07F0283F8F0204A1C5D
:103E0000124801F033FD2046FDF7C6F886E700BFF3
:103E100070210210408B002090380210A422021062
:103E200084210210A021021074410020BC21021044
:103E3000F42102102C2202104822021064220210E7
:103E40008822021030230210B0220210EC2202104D
:103E500070B582B00546FCF73DFDB0F1FF3F28D0BC
:103E60000446FDF793FC48B304F1805606F580162E
:103E70002946184801F0FAFC174801F0F7FC1748EA
:103E800001F0F4FC164801F0F1FC314611F8012B69
:103E9000336A706A01900094124801F0E7FC002137
:103EA0002046FCF737FD78B129460F4801F0DEFCCB
:103EB00008E029460D4801F0D9FC03E029460C48EA
:103EC00001F0D4FC02B070BD29460A4801F0CEFCD6
:103ED000F8E700BF9C230210BC230210EC14021070
:103EE00098090210E4090210F0230210D414021001
:103EF000742302101024021010B509281FD00446A4
:103F00000A281ED0A44B1B8873B3013C072C15D87C
:103F1000DFE814F02E00C400DC00EB00FA0007011B
:103F200024013901E0B204F097FA01345A2CF9DD8A
:103F3000002004F091FAE02004F08EFA10BD412434
:103F4000F4E701F06FFA0A2006F068FB4FF05043E7
:103F50005B6813F0080F05D0904A0321904801F0E8
:103F600085FCEBE78F4AF8E78F4801F07FFCCCE750
:103F7000894BB3F8A6306BB188498C4801F076FCC8
:103F8000854BB3F8A030032B00F28280DFE803F00A
:103F90000474787C8349F0E7854801F067FC854B21
:103FA0001B78002B78D08449844801F05FFC844C56
:103FB0002188844801F05AFC2188C90B824801F00D
:103FC00055FC2188C1F38031804801F04FFC2188E5
:103FD000C1F340317E4801F049FC2188C1F3003132
:103FE0007C4801F043FC2188C1F3C0217A4801F0EC
:103FF0003DFC2188C1F38021784801F037FC2188FD
:10400000C1F34021764801F031FC2188C1F3002141
:10401000744801F02BFC2188C1F3C011724801F0F3
:1040200025FC2188C1F38011704801F01FFC218814
:10403000C1F340116E4801F019FC2188C1F3001151
:104040006C4801F013FC2188C1F3C0016A4801F0FB
:104050000DFC2188C1F38001684801F007FC21882C
:10406000C1F34001664801F001FC218801F0010123
:10407000644801F0FBFB61E7634801F0F7FB8EE762
:10408000624801F0F3FB8AE7614801F0EFFB86E745
:10409000604801F0EBFB82E75F4985E73E4BB3F8F0
:1040A000A63063B13C4B0022A3F8A6203A4BB3F8EC
:1040B000A6304BB139493D4801F0D8FB3EE7364BBD
:1040C0000122A3F8A620F1E73649F4E73C4A138819
:1040D0006FEA43436FEA534313802F4B0222A3F846
:1040E000A0204E4801F0C2FB28E7354A1388C3F3ED
:1040F0000D0343F480431380274B0122A3F8A02033
:10410000474801F0B3FB19E72D4A1388C3F30D03A9
:104110001380214B0022A3F8A020424801F0A6FB07
:104120000CE7274A138883F400639BB213801A4A72
:10413000B2F8A4205AB1184A0021A2F8A41013F42E
:10414000006F09D01C49384801F090FBF6E6124A8E
:104150000121A2F8A410F2E72F49F4E70E4B1B88C7
:104160001BB9324801F082FBE8E6154A138843F494
:10417000005313802E4B02221A6001F079F92D486A
:1041800001F074FBDAE6044B1B88002B54D127485E
:1041900001F06CFBD2E600BF408B002034240210FB
:1041A0003C2402103824021058240210B4240210B7
:1041B000C8240210029100208C37021044250210FE
:1041C000083200205825021070250210A425021084
:1041D000F4250210242602105C2602108826021004
:1041E000B4260210D8260210042702103427021029
:1041F00078270210A8270210DC2702100C280210D2
:104200003C28021070280210E0240210F82402104A
:104210001025021028250210A8F90110A428021068
:10422000C0280210DC280210F82802101C290210F5
:10423000509000204C290210064A138843F4805302
:104240001380054B02221A6001F012F9034801F0B5
:104250000DFB73E608320020509000206829021000
:1042600010B584B00446FDF791FA80B1601E0B28AA
:104270000DD8DFE800F0060E32560C0C0C0C0C6E5C
:10428000757C414BB3F87810404801F0EFFA04B068
:1042900010BD3F4801F0EAFA3B4BB3F878103B48B9
:1042A00001F0E4FA002400E00134B4F5007FEEDA16
:1042B00004F57052082300936B44D2000521354861
:1042C0001BF0A2F9029A039B52EA0301ECD004F519
:1042D0000071314801F0CAFAE6E729A3D3E90023C7
:1042E000CDE90223002412E0029B13F10133039A6B
:1042F00042F101320293039204F5705208230093B5
:104300006B44D200052123481BF0A2F90134B4F517
:10431000007FE9DB214801F0A9FA214801F0A6FA63
:10432000B5E700220023CDE9022300240AE004F5CA
:104330007052082300936B44D200052115481BF0EE
:1043400087F90134B4F5007FF1DB164801F08EFAED
:104350009DE70D480023A0F87830FBF7CFFF96E7E4
:1043600009480123A0F87830FBF7C8FF8FE706481B
:104370000223A0F87830FBF7C1FF88E7AFF3008095
:104380004140414041404140408B0020842902107F
:10439000A029021000000840D4290210E8290210C8
:1043A0001C2A0210382A021038B50C4601380A2897
:1043B00055D8DFE810F00B0063008A00AC00BA00AB
:1043C000CA00DA00EA00FA000A0118018C4DB5F8BB
:1043D00054102C2404FB01F2920A8A4801F046FA98
:1043E000B5F8561004FB01F2920A874801F03EFA34
:1043F000AB8F002B34D08549854801F037FA804BCC
:10440000B3F85030002B2DD08049824801F02EFAAD
:104410007B4BB3F846303BB37C497F4801F026FA2A
:10442000774BB3F852300BB378497C4801F01EFA51
:10443000734BB3F86630DBB17449794801F016FA72
:104440006F4BB3F86830ABB17049764801F00EFAA3
:104450006B4BDB8F83B16D49734801F007FA38BDB0
:104460007249C9E77149D0E77049D6E76F49DCE77F
:104470006E49E2E76D49E8E76C49EDE7FDF786F93B
:10448000D8B15F4BB3F854102C2201FB02F26848FC
:1044900001F0ECF9002CE2DDA4F57A7242F2283347
:1044A0009A420ED8564DA5F854402146614801F075
:1044B000DDF92846FBF722FFD1E75F4801F0D6F986
:1044C000CDE75E4801F0D2F9C9E7FDF75FF9B0B179
:1044D0004B4BB3F856102C2201FB02F2584801F066
:1044E000C5F9002CBBDDA4F12003E02B0BD8444B15
:1044F000A3F856402146534801F0B8F9AFE74E48BB
:1045000001F0B4F9ABE7504801F0B0F9A7E73C4A35
:10451000938FB3FA83F35B09938723B13B494B48ED
:1045200001F0A4F99BE74149F9E7354AB2F8503068
:10453000B3FA83F35B09A2F8503023B133494448FE
:1045400001F094F98BE73949F9E72D4AB2F8463082
:10455000B3FA83F35B09A2F8463023B12B493D48F7
:1045600001F084F97BE73149F9E7254AB2F8523086
:10457000B3FA83F35B09A2F8523023B123493648DA
:1045800001F074F96BE72949F9E71D4AB2F8663082
:10459000B3FA83F35B09A2F8663023B11B492F48B5
:1045A00001F064F95BE72149F9E7154AB2F8683090
:1045B000B3FA83F35B09A2F8683023B113492848A2
:1045C00001F054F94BE71949F9E70D4AD38FB3FAD3
:1045D00083F35B09D38723B10C49224801F046F9E4
:1045E0003DE71249F9E7FDF7D1F800283FF437AF6E
:1045F0000348FBF783FE1C4801F038F92FE700BFA2
:10460000408B0020642A0210982A02109C35021068
:10461000CC2A0210EC2A0210302B02105C2B021064
:10462000842B0210A42B0210C42B0210A42202100F
:10463000202C0210842C0210E42B02104C2C0210AF
:10464000D82C0210402D0210082D0210682D0210E7
:10465000842D0210C42D0210EC2D0210102E021019
:104660002C2E0210482E0210642E02102DE9F0416B
:10467000BAB004460D4600201AF0F6FF06469F2306
:104680001F936022002120A815F0C6FA06AF4FF054
:10469000640842460021384615F0BEFA42463946C3
:1046A0001FA81AF089FF9DF81B30012101FA03F7BA
:1046B000FDF76CF8002832D0631E042B2FD8DFE8FA
:1046C00003F003364D50760038A808F0C5FD9DF87C
:1046D000E3309DF8E4209DF8E5109DF8E6009DF894
:1046E000E740049403900291019200939DF8E23018
:1046F0009DF8E1209DF8E010384801F0B7F8314608
:10470000374801F0B3F80421364801F0AFF83A46D3
:10471000002F07DB12153946334801F0A7F83AB0ED
:10472000BDE8F08107F57F2202F6FF72F2E72F4B1A
:104730009D420DD005F580532D4A13602C4B1A680D
:1047400029462C4801F092F82846FCF70FF8E6E7D6
:10475000274B1D6805F580521A60EFE7FBF7B2FFA3
:10476000DDE7254801F082F84FF47A7400214FF01C
:10477000FF300AF0B9F9022005F050FF002002F0E6
:1047800054FF68B9013CF1D11C4801F06FF8FBF708
:1047900057FF1B4801F06AF81A4801F067F8BEE7B6
:1047A000002002F047FF184801F060F8B7E70F4B10
:1047B0009D420DD005F58053144A1360134B1A68BF
:1047C0002946134801F052F8284600F0ADFFA6E74D
:1047D0000E4B1D6805F580521A60EFE7842E02101B
:1047E000B82E0210E02E0210142F02104342414056
:1047F000348B0020502F02108C2F0210E82F021053
:10480000003002101C300210D42F0210388B002010
:104810006030021030B585B004460D46FCF7B6FF97
:10482000E8B1601E03281AD8DFE800F0021B324B03
:1048300002A800F0CBFF9DF80B3000939DF80A30E2
:104840009DF809209DF808102F4801F00FF89DF8F9
:104850000A10C1F38201CA012C4801F007F805B023
:1048600030BD2B4B9D420DD005F58053294A136076
:10487000284B1A682946284800F0F8FF284600F01F
:1048800053FFECE7234B1D6805F580521A60EFE7F4
:10489000224800F0EBFF002000F022FF01462048F4
:1048A00000F0E4FF002000F01BFF44F241039842B7
:1048B00003D01C48FCF750FBD1E71B4800F0D6FFA3
:1048C000CDE71A4800F0D2FF4FF47A7400214FF080
:1048D000FF300AF009F9022005F0A0FE002002F0E6
:1048E000A4FE50B9013CF1D1114800F0BFFF00F027
:1048F0007DFF104800F0BAFFB1E7002002F09AFEF9
:104900000D4800F0B3FFAAE79C300210C43002103B
:1049100043424140388B002060300210E8300210E2
:104920000C31021074410020243102105031021069
:10493000A4310210BC3102108C31021010B50446B3
:104940000146084808F0FAFAA4F13003092B02D80E
:104950001C46054B1C60044B1968044808F0EEFA2D
:1049600010BD00BFCC310210B0310020F831021070
:1049700070B582B004465E4808F0E0FA5D4B09224B
:104980001A70032C00F2AF80DFE804F002182E74D6
:104990000026ADF806600DF10605574C2946204665
:1049A00006F000F8ADF806602946204605F0FAFF4B
:1049B00000F0C4FD00F05CFD02B070BDE023ADF876
:1049C00006300DF106054C4C2946204605F0EAFF5D
:1049D0008623ADF806302946204605F0E3FF00F0B7
:1049E000ADFD00F045FDE7E7B623ADF806300DF16B
:1049F0000605414C2946204605F0D4FF1023ADF8AA
:104A000006302946204605F0CDFF0123ADF80630DB
:104A10002946204605F0C6FFC623ADF806302946D4
:104A2000204605F0BFFF0026ADF806602946204667
:104A300005F0B8FFF223ADF806302946204605F010
:104A4000B1FFADF806602946204605F0ABFF5A23BA
:104A5000ADF806302946204605F0A4FF9123ADF8B5
:104A600006302946204605F09DFF00F067FD00F066
:104A7000FFFCA1E73E23ADF806300DF106051E4C04
:104A80002946204605F08EFF1123ADF80630294651
:104A9000204605F087FF1023ADF806302946204652
:104AA00005F080FF7523ADF806302946204605F055
:104AB00079FFC023ADF806302946204605F072FF85
:104AC0000123ADF806302946204605F06BFF2F2361
:104AD000ADF806302946204605F064FF00F02EFDB3
:104AE00000F0C6FC68E700F029FD00F0C1FC63E7B8
:104AF0001C320210139100201C52002038B50020F7
:104B000008F0B6F910F1020F4ED004462D4B1B7879
:104B1000002B4AD01B2807D0043B052B44D8DFE8E4
:104B200003F01F432C2E4321264B00221A702648E7
:104B300008F0D5F938E00135012D35DC05EB4503EA
:104B4000224A12F82330A342F5D105EB45021F4B50
:104B500003EB82035B6898471A4B00221A70EAE75E
:104B60000025E9E7A0F13003082B1DD81846FFF710
:104B7000FFFE144B00221A7016E046280AD0A4F15A
:104B80003003092B10D82046FFF7D8FE0D4B00222A
:104B90001A7009E00B4B00221A70F0E703EB430395
:104BA00001EB83035B68984738BD00230B2BFBDCCC
:104BB00003EB4302064911F82220A242EED0013352
:104BC000F4E700BF139100202432021008310020C6
:104BD0002031002003460268EFF3108172B6D2E85C
:104BE000CFCF0120BCF1000FF9D1C2E84C0FBCF1CE
:104BF000000FF4D1BFF35F8F18895A89801A02D54C
:104C0000DA890132104400221B68C3E88F2F81F338
:104C10001088704708B53C4808F061F93B4B3C4AA6
:104C2000196812683B4808F089F93B4B3B4A196800
:104C300012683B4808F082F93A4B3B4A19681268FF
:104C40003A4808F07BF93A4B3A4A196812683A48F0
:104C500008F074F90A2008F033F9384B384A19681B
:104C60001268384808F06AF9374B384A19681268F0
:104C7000374808F063F9374B374A196812683748E4
:104C800008F05CF9364B374A19681268364808F064
:104C900055F9364808F023F9002002F060FC28B3EB
:104CA0003349344808F04AF9042002F058FC48B36C
:104CB0002F49314808F042F9022002F050FCF8B1C7
:104CC0002B492E4808F03AF9012002F048FCA8B11F
:104CD00027492B4808F032F9032002F040FC38B194
:104CE000BDE808402249274808F028B92649D8E7F6
:104CF00025492448BDE8084008F020B92249E8E7E2
:104D00002149DEE72049D4E7843B0210F43100203A
:104D1000F8310020B83B0210EC310020F0310020C7
:104D2000E03B0210BC310020C0310020083C0210E2
:104D3000E4310020E8310020303C0210DC3100205A
:104D4000E0310020583C0210D4310020D83100203E
:104D5000803C0210C4310020C8310020A83C021061
:104D6000CC310020D0310020D03C0210248A021027
:104D7000B4010210F83C0210143D0210303D021044
:104D80004C3D0210683D0210B801021008B51E48E3
:104D900000F06CFD1D4B1E4A196812681D4800F09A
:104DA00065FD1D4B1D4A196812681D4800F05EFD27
:104DB0001C4B1D4A196812681C4800F057FD1C4B1B
:104DC0001C4A196812681C4800F050FD1B4B1C4A15
:104DD000196812681B4800F049FD1B4B1B4A1968F3
:104DE00012681B4800F042FD1A4B1B4A19681268F2
:104DF0001A4800F03BFD1A4B1A4A196812681A4803
:104E0000BDE8084000F032BD843D0210F4310020BE
:104E1000F8310020B83D0210EC310020F0310020C4
:104E2000DC3D0210BC310020C0310020003E0210E9
:104E3000E4310020E8310020243E0210DC31002063
:104E4000E0310020483E0210D4310020D83100204B
:104E50006C3E0210C4310020C8310020903E021088
:104E6000CC310020D0310020B43E02102DE9F04FAB
:104E7000CA4E89B00121306808F0CEFA0346C84F07
:104E8000C84930683B6008F0E3FADFF87C83012111
:104E9000C8F80000306808F0BFFADFF870B3C24904
:104EA000CBF80000306808F0D3FADFF864930121F2
:104EB000C9F80000306808F0AFFABC4BD9F8002000
:104EC0001860BB4B012130681A6008F0A5FAB94A96
:104ED000B9491060306808F0BBFAB84DB849B94C10
:104EE00008600121286808F097FAB749206028680F
:104EF00008F0AEFAB54A01211060286808F08CFA73
:104F0000B349B44C0860B449286808F0A1FA0121FB
:104F10002060286808F080FAB04AB149106028681B
:104F200008F096FAAF49B04C08600121286808F0F3
:104F300073FAAE492060286808F08AFA4FF480338B
:104F40000124D8F800A0AA4A04930AF114031060BF
:104F50001B030AEB040243EAC2133F6823F0C04379
:104F60000094D6F800800593A24AA34B3946CDE9B8
:104F70000632404602231A2208F09EFA08F12F4119
:104F800001F56001090D0631C9B21A20039104F040
:104F9000D1FA03991B2004F0CDFA0DF1100C524602
:104FA00063463946404608F0D6FA4FF4502A4FF48B
:104FB00000234FF42020D8F80010D9F8002004FA7C
:104FC00007F70F43DBF800B0C8F80070CDE906A37F
:104FD000131D11191B0343EAC113376823F0F8535B
:104FE0000DF1100C43F0D053594604900593384608
:104FF000634608F0B0FA396804FA0BFB6B4B4BEAD6
:105000000101D9F80020D3F8008039604FF48031D5
:105010004FF42020131D07911B03111943EAC113FC
:10502000376823F0F8530DF1100C43F0D05341468C
:105030000490059338466346CDF818A008F08BFA23
:105040005F4BD6F80090D3F800A03B6804FA08F84C
:10505000584E48EA03034FF480314FF4402B366832
:105060003B6000274FEA0A3343EACA131C2200942C
:10507000049105933146234648460797CDF818B06A
:1050800008F01AFA1C205D4F069B09F12F413B40A6
:1050900043F0005343F420230693079B01F560017E
:1050A00023F07C7323F01F03090D43F480130631B2
:1050B0000343C9B2079304F03DFA4FF420200DF1E9
:1050C000100C6346524631460490484608F043FAB5
:1050D0003C4B4FF48031D3F80080D9F800303B4886
:1050E00004FA06F61E43D0F800A0C9F800604FF09D
:1050F0000056009404914FEACA130AF10B01D5F847
:10510000009043EA013323F0C04341460593122245
:10511000234648460796CDF818B008F0CDF9234647
:10512000414600941322484608F0C6F94FF4202364
:105130000493069B09F12F463B4043F4002306935A
:105140002F4A079B06F560062E49360D1A40063693
:105150001143F6B207911220314604F0EBF93146C3
:10516000132004F0E7F90DF1100C63465246414656
:10517000484608F0F0F94FF480311648144BD0F847
:1051800000A04FF000501E68D9F8003004FA08F86B
:1051900048EA0303C9F800303CE000BF00320020B9
:1051A000F431002048B3021034B30210BC310020A7
:1051B000C0310020E431002028B30210FC3100206F
:1051C000E8310020DC31002008B30210E03100207B
:1051D000D4310020D8310020F4B20210C4310020B4
:1051E000C8B20210C8310020CC310020E0B2021059
:1051F000D0310020006807400000DD01FFFFF5C14D
:1052000000800FE0524E1004F8310020EC310020F5
:10521000F0310020009404914FEACA130AF104010E
:10522000D5F8009043EA013323F0C043314607909C
:105230000593142223464846CDF818B008F03CF9EF
:105240002346314600941522484608F035F94FF4BC
:1052500020211420049109F12F4101F5600121FA68
:1052600000F8674A0799674B0A4013430793059B69
:1052700008F1060823F0F85343F0D0530593069B3A
:105280005FFA88F83B4043F420234146069304F03C
:1052900051F94146152004F04DF90DF1100C63460B
:1052A00052463146484608F056F94FF480314FF0E7
:1052B0000050554B04FA06F6D3F800A0534B0322D6
:1052C000D3F80080D9F800301E430AF10703C9F86B
:1052D00000601B03009404910AF102012E6843EA66
:1052E000C11323F0C043414607900593304623463F
:1052F000CDF818B008F0E0F8454B06F12F410493C3
:10530000069B01F560013B4043F0705343F40033CA
:105310000693079B090D063123F4F84343F44063D9
:105320000320C9B2079304F005F90DF1100C634690
:1053300041460AF10302304608F00DF94FF480317E
:105340003448354BD0F800A00020D3F800903368E3
:1053500004FA08F848EA03032D68336004914FEA21
:10536000C91309F1040143EA01331622514607909B
:105370000094059328462346CDF818B008F09CF811
:105380004FF42021079B049123F07C7323F01F032B
:1053900043F4801343F016030793059B05F12F4157
:1053A00023F0F85343F0D053059301F56001069BB9
:1053B000090D3B40063143F420231620C9B2069361
:1053C00004F0B8F84A46514604AB284608F0C3F842
:1053D00043F2FF73114A1249108804FA0AF4034099
:1053E00028680443B1F8A000B1F8A41043EA803360
:1053F00043EA81232C60138009B0BDE8F08F00BF21
:10540000E0830FFC14541000C8310020C431002088
:105410000000AC07CC310020D03100200832002041
:10542000408B00204FF050400B4A0C4B40680C4919
:105430001B6812680007096848BF033302EB420289
:1054400003F01F0301EBC201C1F8D8304FF0504305
:105450005868C0F3C0007047C4310020C831002034
:10546000FC310020014B1868704700BFE88A00201B
:105470004FF050435B689B0300D570474EF201002C
:1054800070B5134C134E144D236831682A680933E4
:1054900001EB410103F01F0302EBC10243F480530F
:1054A000C2F8D8000021C2F8D8300F2005F0AAF9C0
:1054B0004FF4604032682B68216802EB420203EB34
:1054C000C20301F01F01C3F8D810C3F8D80070BDA3
:1054D000E0310020DC310020FC3100204EF22000C1
:1054E0000849094B094A09681B68126801EB410128
:1054F000063302EBC10203F01F03C2F8D800C2F862
:10550000D8307047C4310020C8310020FC31002061
:1055100001220849084B10B40C68196804F1100303
:105520009A404B681342FCD1043441F824005DF8E2
:10553000044B7047C4310020FC3100200120044A94
:1055400004491368087043F007031360704700BFF5
:10555000288B0020129100200022034BC3E9002277
:10556000C3E90222704700BFAC8300202DE9F04759
:105570004FF050463D4B86B093E8070006AB03E979
:10558000070073683A4C9A0325780BD4736813F4B8
:10559000004F14BF012302239D42237006D106B0A1
:1055A000BDE8F08700239D422370F8D005F022F972
:1055B00003460A462F4F304E3968D7F804C0581AB0
:1055C000C7E9003262EB0C013360726000232B4AA2
:1055D0001AF016F84FF0000919462378284E0DEB03
:1055E0008303D3F80CA00DEB8503DB680746C6F8F0
:1055F0000090104601934FF47A7200231AF000F8DD
:10560000DFF88C803B460090524640461D4907F02B
:105610002BFA33680344336003EB080015BB1A4BC5
:105620001A491A6807F020FA3368034418483360AF
:1056300007F055FC2378002BB1D0164B1A78002ABE
:10564000ADD000214FF05042197053689B03A6D48F
:105650004FF47464102205210F4B1048009419F088
:10566000F7FF9CE708F803903368DFE77CB302108C
:10567000FC900020103F0020083F002040420F0017
:1056800070410020083F0210E88A0020403F0210CD
:10569000A8400020FA90002074410020000008403B
:1056A00008B50D490D4808F003F80121042003F066
:1056B00041FF0121062003F03DFF0121072003F0F7
:1056C00039FF052003F0E9FF05234FF0010242EC0A
:1056D000403042EC443008BD005A620200000840ED
:1056E00000B585B002460023ADF80E3002230093CA
:1056F0000DF10E030521044819F086FFBDF80E00D8
:1057000005B05DF804FB00BF0000084000B583B0A1
:105710000B46009202460521024819F099FF03B09A
:105720005DF804FB00000840F0B5C7B0064600F580
:10573000805722E007AB59191E4A108892785853B7
:105740008A700235002406E01B4907A8284407F0A8
:105750008BF9013501340F2C08DC03AB1A5DA2F183
:105760002003DBB25E2BEFD92E22EDE7103607A91E
:10577000124800F07BF8B7421AD93246104907A800
:1057800007F072F905461023009303AB324605215A
:105790000C4819F039FF00240F2CCBDC03AB1A5D49
:1057A000094907A8284407F05FF903350134F3E7F6
:1057B00047B0F0BDAC1202109CF9011004130210A6
:1057C000503F0210000008400014021000B583B0E2
:1057D00003460422009200220521034819F0FCFE32
:1057E00003B05DF804FB00BF0000084010B5C0B076
:1057F0004FF480720021684614F00EFA002407E08E
:105800004FF4807269462046FFF780FF04F58074EC
:10581000B4F5802FF4D3024800F028F840B010BD52
:10582000583F021008B50846012101F0BDFB10B138
:10583000FCF73EF908BD0248FCF73AF9FAE700BF69
:10584000986D021008B5002001F0ABFE002001F0B9
:1058500081FE00214FF0FF3009F046F908BD00003D
:10586000014B1868704700BFDC8400200FB400B5FE
:10587000FFB080AB53F8042B00934FF4FA7101A8EA
:1058800007F01CF900280FDBFFF7EAFF01A901F080
:10589000FDFA00214FF0FF3009F026F900207FB01B
:1058A0005DF804EB04B07047054B1B68DB681D22F4
:1058B0000121044813F0FCFF4FF0FF30EFE700BF79
:1058C000003C0020743F021070B50C4601212046B8
:1058D00001F06AFB05460221204601F065FB25B177
:1058E000064600244FF0FF300CE02548FFF7BEFFCE
:1058F000FBF796FC43E0234B53F82410284614F0A2
:1059000075FD013408B10B2CF5DDA0BB013C0C2C5E
:1059100031D8DFE804F0070A0D101316191C1F22F6
:10592000292C2500FBF77CFC29E0FBF70FFE26E085
:10593000FBF710FE23E0FBF74FFE20E0FBF786FEAF
:105940001DE0FBF7A7FE1AE0FBF73AFF17E0FBF7B5
:105950002DFF14E0FBF742FF11E0FBF74FFF0EE0D5
:105960003046FBF7E3FF0AE0FCF77CF807E030463F
:10597000FBF760FF03E029460348FFF777FF70BDA0
:10598000943F021020490310AC3F021038B50C467A
:105990000121204601F008FB05460221204601F0C6
:1059A00003FB1DB100244FF0FF300CE01748FFF758
:1059B0005DFFFCF781F828E0154B53F824102846CA
:1059C00014F014FD013408B1052CF5DDC8B9013C13
:1059D000052C16D8DFE804F00306090C0F12FCF7BB
:1059E0006BF812E0FCF76CF80FE0FCF76DF80CE0D8
:1059F000FCF76EF809E0FCF773F806E0FCF76CF8CA
:105A000003E029460348FFF731FF38BD943F0210F9
:105A100008490310C83F02102DE9F0410C4601214E
:105A2000204601F0C1FA07460221204601F0BCFAE7
:105A300006460321204601F0B7FA2FB180463EB159
:105A400000254FF0FF3411E03948FFF70FFF1EE04B
:105A5000002211463846FCF7B7FB18E0354B53F8E7
:105A60002510304614F0C2FC044601350CB1022D5D
:105A7000F4DD44B9B5F1FF3F05D0B8F1000F13D004
:105A80004FF0FF300CE031462B48FFF7EFFEBDE84A
:105A9000F081284B53F82410404614F0A7FC013441
:105AA00008B1022CF5DD98B9012D16D0022D1CD0BD
:105AB000032D22D0012D28D0022D2ED0012D2FD044
:105AC000032D01D1012C2DD01C48FFF7CFFEDEE7BE
:105AD00041461B48FFF7CAFED9E7002CE6D1002259
