:020000041000EA
:10000000002008205D0100101B010010ED97011079
:100010001101001011010010110100101101001058
:100020001901001019010010190100101F01001022
:100030007197011019010010210100102301001017
:100040001101001011010010110100101101001028
:100050001101001011010010110100101101001018
:100060001101001011010010110100101101001008
:1000700011010010110100101101001011010010F8
:1000800011010010110100101101001011010010E8
:1000900011010010110100101101001011010010D8
:1000A00011010010110100101101001011010010C8
:1000B00011010010110100101101001011010010B8
:1000C00011010010110100101101001011010010A8
:1000D0001101001011010010110100101101001098
:1000E0001101001011010010110100101101001088
:1000F0001101001011010010110100101101001078
:100100001101001011010010110100101101001067
:10011000EFF30580103800BE00BE00BE00BE00BE7A
:1001200000BE00BEF2EB887198EA0310C8EA031023
:10013000A001001090A31AE7D3DEFFFF42012110B7
:10014000FF010000C0240400793512AB4FF000001D
:100150001E49086006C881F3088810474FF05040D8
:10016000006810B14FF00000F2E70DA40ECC00299A
:1001700002D000F012F8F9E71549164A002000E015
:1001800001C19142FCD11449884714498847144958
:10019000884700BEFDE701C901C29A42FBD3704700
:1001A000C8EA031088010020B83C0020F82504109C
:1001B0000000082000000820F82504100010082086
:1001C00000100820000000007047000008ED00E06B
:1001D000B83C002068D00020EDDF0010650300105F
:1001E000B1DF0010F8B500BF064B0749C91A8910E6
:1001F00048BF0131491003D0044B0BB101481847E7
:10020000704700BFB83C0020B83C00200000000050
:1002100008B5054B1BB105490548AFF30080BDE8A3
:100220000840FFF7E1BF00BF00000000B4CF00208E
:10023000940E021070B584B005460C4601AB02AABC
:1002400003A90BF049FF18B954B9204604B070BD9A
:100250000646019A029903980BF00CFF3446F4E726
:10026000294601480AF002FC980E0210002203E021
:10027000002120F8121001325D2AF9DD44F241021A
:10028000A0F8B8200022C2830284428402808280C7
:10029000A0F8A020A0F8A220A0F8A420A0F8A620F2
:1002A000A0F8A820A0F8782001228287C287A0F8B1
:1002B0004620A0F85020A0F8522041F28832A0F841
:1002C00054202022A0F856204FF05042526812F4D9
:1002D000003F01D00020704700B583B0FE2200929D
:1002E00003464FF4E8320521034820F089FD012040
:1002F00003B05DF804FB00BF000008404FF050431E
:100300005B6813F4003F01D00020704700B583B054
:10031000FE23009303464FF4E8320521034820F002
:100320006FFD012003B05DF804FB00BF0000084032
:100330004FF050435B6813F4003F01D0002070473A
:1003400000B583B0FE23009303464FF4E832052145
:10035000034820F031FD012003B05DF804FB00BF2D
:100360000000084010B584B001215048FFF762FF3B
:100370004F4B00930122002106200BF009FE0520BF
:100380000BF044FE0DF07EFF09F0CCF800F034FFD6
:1003900009F0E8F84FF47A700BF018FB192009F017
:1003A000B5F84FF47A700BF011FB192009F0AEF894
:1003B00001231C468DF80C3000208DF80D0003A998
:1003C0000FF058FA08F028FB1C2344EC403006F0EC
:1003D00009FA4FF050435B6803F08073002B14BFA1
:1003E00001220022334B1A704FD00AF04DF90AF067
:1003F000C3F909F091FD09F0D7FA00F0FDFE2E4C8B
:100400002046FFF795FFB4F8B82044F241039A4222
:1004100044D108F067FB09F079F909F02DF907F0EC
:1004200049FA00F033FF19234FF0000242EC40304C
:1004300006F00CF90AF028F80EF096FD1F480EF0B1
:100440002FFE05F0CBFD05F09DFC0EF055FD1C4B7D
:1004500002221A60A3F500531B6883F4804303F45F
:100460007043184A136006F0FBF800214FF0FF308C
:100470000FF0EEFD07F0FEF905F0F8FB08F0A0FB29
:1004800009F04EF909F006FCEDE70F4B0093084B1D
:100490000022012105200BF07BFDA6E72046FFF797
:1004A000E5FE2046FFF72AFFB3E700BFF049020050
:1004B00080D1F00853D0002090CA0020F905002018
:1004C00000200A4000100A40C068780470B5044655
:1004D0000D4616460023DB8A002242E800F212F4A1
:1004E000800F0BD1102144F24F10984703460D4A5C
:1004F000D2F8142842B96FF0120070BD042144F202
:100500004F1098470346F2E7BFF35F8F3246294604
:1005100020469847BFF35F8F024B0022C3F8142890
:10052000EBE700BF00000E4010B588B004464FF462
:10053000806220216846FFF7C9FF41B251B900230C
:100540001F2B13DC03F120026A4412F8202C2AB975
:100550000133F5E7214806F04DFAF0E74FF48261E8
:100560001F4806F047FA002008B010BD002305E040
:1005700003F12001694401F8202C01331F2B09DC11
:10058000E25C002AF4D1002103F120026A4402F85F
:10059000201CF2E74FF4413220216846FFF796FF16
:1005A00041B289B921460F4806F024FA4FF40132CE
:1005B00020216846FFF78AFF41B251B969460A48CF
:1005C00006F018FA0120CFE7084806F013FA0020D9
:1005D000CAE7074806F00EFA0020C5E7CC0E021065
:1005E0000C0F0210800F0210D00F0210480F0210E3
:1005F000A80F021010B5A0B004464FF4806240214D
:100600000DEB0100FFF762FF41B209B9002319E0C9
:10061000144806F0EFF9002022E05A0020A901EB6F
:10062000430111F8400C03F18001694401F8800C8A
:1006300081326A4412F8400C03F181026A4402F8E4
:10064000800C02331E2BE8DD002306E003F180025C
:100650006A4412F8802CE25401331F2BF6DD01208E
:1006600020B010BDE80F021010B54FF4FA740BE083
:1006700002200BF0ABF9013C002008F001F9002149
:100680004FF0FF300FF0E4FC002CF1DC10BD10B592
:1006900004460BE002200BF099F9023C002008F020
:1006A000EFF800214FF0FF300FF0D2FC002CF1DC0E
:1006B00010BD000070B5FFF7D7FF00244FF4801580
:1006C00016E02A4621460C4806F094F9FFF7CCFFC5
:1006D000EFF3108372B6094E33604FF48011284651
:1006E00020F07EFB336883F3108805F58015013414
:1006F0000E2CE6DD70BD00BF20100210849100209A
:1007000003460144B1F5700F0ED80A48006810F88E
:1007100003C018461344994202D9BCF1FF0FF4D02C
:10072000BCF1FF0F02D07047002070474FF0FF3040
:10073000F9E700BF3C30002030B5C1B01E4807F0DB
:1007400059F8C820FFF7A3FF01221C490020FFF73A
:10075000D7FFB0F1FF3F2AD1194806F04BF9FFF758
:1007600083FF4FF48072FF2168461AF0D3FD4125C4
:100770008DF800501E2213490DF101001AF01EFFE2
:1007800000238DF81F30022308934FF480720992E2
:1007900040238DF828308DF8295069464FF4801099
:1007A00020F0D6FA084806F025F941B030BD0146E0
:1007B000064806F01FF9F8E75810021000FFEF0096
:1007C00084100210B0100210C810021000110210A4
:1007D000034B1B78412B01D000207047012070474C
:1007E00000001010F0B5C1B0054600F58057B7F510
:1007F000700F39D94FF4700736E0204B1B685A5DF3
:100800001F4901A820440DF03FFB03340135013698
:100810000F2EF2DD103D01AB19191A4A108892789B
:1008200018538A700234002607E0174901A82044B3
:100830000DF02AFB0134013501360F2E09DC0F4B78
:100840001B685A5DA2F12003DBB25E2BEDD92E228C
:10085000EBE700214FF0FF300FF0FAFB01A90B4846
:1008600006F0C8F8BD4207D22A46094901A80DF092
:100870000BFB00260A24CBE741B0F0BD3C30002042
:10088000042C0210B02A021074110210082B02105E
:100890006C1102102DE9F843044601F128074FF0CE
:1008A0000008C146B4F5700F19D204F1805505F562
:1008B00080152E7800214FF0FF300FF0C9FB7F2EFE
:1008C00010D0FF2E02D06EB16C6AEBE7C4F5700356
:1008D000BB421CD943451DD3B9F1000F1CD048467B
:1008E000BDE8F8836B6A1A1B974206D8B8F1000F6F
:1008F00005D0904507D81C46D4E71C46D2E7904661
:10090000A1461C46CEE79046A1461C46CAE74FF0DA
:10091000FF39E4E7A146E2E7A146E0E700E0586AD4
:10092000B0F5700F0BD200F1805303F580131A78E5
:10093000FF2A04D0412AF2D94FF0FF307047B0F5BA
:10094000700F00D870474FF0FF307047F8B507467A
:10095000002500E0656AB5F5700F0FD205F18054EF
:1009600004F580142678FF2E0CD03946601C1AF04E
:100970001FFD0028EED1002EECD001E04FF0FF3536
:100980002846F8BD4FF0FF35FAE700002DE9F047A3
:10099000C0B004460D46154F396820F0FF094FF4EA
:1009A000807A5246494468461BF0ACFAE3B20DF82F
:1009B0000350FFF759FEEFF3108372B6DFF8308073
:1009C000C8F800305246694609F5801020F0C0F999
:1009D000D8F8003083F310883B68185DA84214BF34
:1009E0000020012040B0BDE8F08700BF3C3000206F
:1009F000849100202DE9F04FADF5005D83B020F02B
:100A0000FF0404F5801421F0FF0505F5801824F497
:100A10007F6626F00F0628F47F6727F00F0707F59B
:100A2000805704F47064A7EB080B06F18053019320
:100A300005F1805505F580150DF5805A0AF1080A73
:100A40004FF48052FF2150461AF064FC0DF1080962
:100A50004FF48052FF2148461AF05CFC224601996F
:100A600050461BF04FFA5A46294648461BF04AFAB0
:100A7000FFF7FAFDEFF3108372B60C4D2B60B91B34
:100A8000304620F0ADF922465146304620F060F95C
:100A90005A464946404620F05BF92B6883F310889C
:100AA0000DF5005D03B0BDE8F08F00BF849100201C
:100AB00038B520F47F6424F00F04FFF7D5FDEFF381
:100AC000108372B6054D2B604FF48051204620F004
:100AD00087F92B6883F3108838BD00BF849100200C
:100AE000F8B50D46164620F0FF04FFF7BDFDEFF305
:100AF000108372B6054F3B6032462946204620F0EF
:100B000027F93B6883F31088F8BD00BF849100206B
:100B100003460144B1F1807F0ED80A48006810F8FE
:100B200003C018461344994202D9BCF1FF0FF4D018
:100B3000BCF1FF0F02D07047002070474FF0FF302C
:100B4000F9E700BF3830002008B505F015FD08BDF5
:100B500008B503480DF002FC024B04221A7008BDD0
:100B60007811021063D0002008B54FF050435B6845
:100B700013F0807F04D0034903480DF0EFFB08BD5C
:100B80000249F9E7F0550210841102108011021099
:100B900008B506480DF0E2FB4FF47A700AF016FF34
:100BA000012108460BF096FB08BD00BFB0110210F2
:100BB00008B506480DF0D2FB4FF47A700AF006FF34
:100BC00000214FF000700BF0CEFB00BFD0110210DF
:100BD00008B502480DF093FB08BD00BF00120210DB
:100BE00008B503480DF08BFB05F0FCFC08BD00BF09
:100BF0001012021008B505F0C5F808BD70B5B2B006
:100C00000A200DF06DFB002407E0144B53F824205C
:100C1000214613480DF0A2FB0134042C1BDC2046B6
:100C200007F033FE0028F0D00C4E56F82420214661
:100C30000C480DF093FB56F8243022460A496846CA
:100C40000DF022F902466946204607F08FFE204645
:100C500007F016FEE0E732B070BD00BFC46F0310AE
:100C60008C120210441202106812021010B50E48C5
:100C70000DF045FB0D480DF071FB0D480DF06EFBBE
:100C800000240AE00B4904EB44029300CA1892685E
:100C9000C95C09480DF062FB01340C2CF2DD0A201E
:100CA0000DF01EFB10BD00BFB0120210BC120210EE
:100CB000D012021058300020E812021010B50E4871
:100CC0000DF01DFB0D480DF049FB0D480DF046FBE6
:100CD00000240AE00B4904EB44029300CA1892680E
:100CE000C95C09480DF03AFB0134012CF2DD0A2001
:100CF0000DF0F6FA10BD00BFF4120210141302102A
:100D00004013021040300020E812021010B5A0B0CD
:100D100010480DF0F4FA40226946002005F082FDEB
:100D20000D480DF0ECFA002400E001343F2C0FDCFC
:100D300004F180036B4413F8801C08480DF00EFB8F
:100D400004F00F030F2BF0D10A200DF0C9FAECE7E5
:100D500020B010BD6C1302107C130210042C021082
:100D60002DE9F04107464FF4746200211AF0D2FADF
:100D7000002623E0F42406FB04F407EB0408002516
:100D8000A8F83850C8F83050C8F83450C8F85C504B
:100D900088F83A5088F8F05038343C440234202225
:100DA000294620461AF0B6FA1F220E4B53F8261099
:100DB00020461AF003FC88F8595001360F2ED9DD71
:100DC00080233B81A7F8FC30A7F8F031A7F8E43284
:100DD0003B87A7F82C31A7F82032A7F81433BDE8D9
:100DE000F08100BFE47F0310F8B5044616461A46AA
:100DF000069B770006EB4600F42501FB05F505EBA5
:100E0000001021180A81235062194FF0010C82F85A
:100E1000F0C0094A1A444A60083020441F2207499A
:100E2000194402301AF0CAFB374405EB07152C446D
:100E3000002384F82930F8BD28001010010010109C
:100E400038B5049C02EB420E4FF0F40C0CFB01FC95
:100E50000CEB0E1E00EB0E052B81002340F80E302C
:100E6000844401238CF8F0306C60062902D00729F5
:100E70001FD038BD63881B2B11D0192BF7D102EB83
:100E80004202F42301FB03F303EB0213083318447B
:100E90001F22104B996802301AF090FBE9E7734665
:100EA000083318441F220B4B596802301AF086FB96
:100EB000DFE702EB4202F42303FB01F101EB021135
:100EC000083108441F22034B196802301AF076FBE0
:100ED000CFE700BFD87F0310032900D870472DE962
:100EE000F8430446164602EB4203F42701FB07F7DA
:100EF00007EB031300EB03094FF0000840F80380F1
:100F0000A9F8088007F1380020441F22094B53F844
:100F1000211002301AF052FB274487F85980C9F893
:100F20002C80C9F80480012E01D0BDE8F88387F831
:100F3000F080FAE7E47F0310F8B506460C46154644
:100F4000B3B11946570002EB4200F42303FB04F44B
:100F500004EB0010083030441F2202301AF02EFB40
:100F60002F4404EB07142644002386F82930F8BDEB
:100F700002EB4205F42303FB04F404EB05121044D6
:100F800000238372F3E7F42303FB01031B8913F0AF
:100F9000800F20D1F42303FB01031B8F13F0800F7C
:100FA0001BD1F42303FB0103B3F8683013F0800F67
:100FB00015D1F42303FB0103B3F8983013F0800F2D
:100FC0000FD1F42303FB0100B0F8C83013F0800FF9
:100FD00009D001207047012070470120704701208F
:100FE0007047012070470020704708B502EB4202AD
:100FF000F42301FB03F303EB021303441B8913F0F7
:10100000010F08D113F0100F07D113F4807F06D120
:10101000FFF7B9FF00E0012008BD0120FCE7012037
:10102000FAE7000030B585B0044644F24103ADF85C
:101030000E30FFF795FE0A4D4FF47463009323467C
:101040001022052128461FF0DBFE022300930DF13C
:101050000E030022052128461FF0D2FE05B030BD48
:10106000000008404FF050435B6813F4003F00D08D
:10107000704700B583B04FF47463009303461022A9
:10108000052103481FF0BCFE03B05DF804FB00BF60
:10109000000008402DE9F0411F464B1E0E2B3FD8A3
:1010A0000646531E032B3DD88DB22D03ADB2D4B2EC
:1010B00005F6FE7189B222461FF086FE00F03F0061
:1010C000DFF8648018F800303B7005F6FD712246A9
:1010D00089B230461FF078FE00F03F0018F800306B
:1010E0007B702D23BB7005F6FC7189B22246304619
:1010F0001FF06AFE00F03F0018F80030FB7005F6A4
:10110000FB71224689B230461FF05EFE00F03F00C0
:1011100018F800303B7100237B710120BDE8F0819D
:101120000020FBE70020F9E7248003100F2900D9F5
:10113000704770B582B005460E46F42201FB02F2FC
:10114000383202440232114805F054FC002418E001
:1011500004EB44034FF0F40C0CFB06FC0CEB031CFB
:101160000CF108022A4405EB0C010B894968019136
:1011700055F80C10009102322146054805F03AFC62
:101180000134042CE4DD02B070BD00BF94130210E2
:10119000A01302100148024BC01A7047000008203B
:1011A00068D0002000B58BB0684619F087F8FFF7CB
:1011B000F1FF079BC01A0BB05DF804FB10B500EB04
:1011C000D070441000214FF0FF300EF041FF02209C
:1011D0000AF0FCFB002007F0BEFB18B9013CF1D57A
:1011E000002006E0002007F0BBFB024805F002FCEF
:1011F000012010BDDC1302102DE9F04701200AF098
:101200000BFF824602200AF007FF814603200AF006
:1012100003FF804609200AF0FFFE07460A200AF075
:10122000FBFE06460B200AF0F7FE05460C200AF0EE
:10123000F3FE044651460E480DF090F849460D481D
:101240000DF08CF841460C480DF088F839460B48F3
:101250000DF084F831460A480DF080F82946094817
:101260000DF07CF8214608480DF078F8BDE8F087CD
:10127000FC1302101014021024140210381402106F
:101280004C140210601402107414021010B5114CAA
:1012900020460DF063F810480DF060F8FFF77AFF74
:1012A00001460E480DF05AF8FFF77CFF01460C4846
:1012B0000DF054F805200AF0A9FE0A4BA3FB0031FB
:1012C000890909480DF04AF820460DF018F8FFF793
:1012D00093FF10BD88140210D814021028150210B4
:1012E00044150210D34D6210601502102DE9F04F25
:1012F0002DED068B95B0FFF77FFF01200AF08CFEE5
:10130000824602200AF088FE814603200AF084FE0D
:10131000804609200AF080FE07460A200AF07CFE7B
:1013200006460B200AF078FE05460C200AF074FEF3
:1013300003908E4B04221A608D4B1B6813F4807F40
:10134000FAD08B4B5B689BB207EE903AF8EE677A67
:101350009FED887A67EE877A9FED877A77EEC77A76
:10136000DFED866A87EEA67AB3EE0BAA3AEE47AABD
:1013700005200AF04BFE824BA3FB0030800C07EEE9
:10138000900AB8EE678AFFF705FF800A07EE900A19
:10139000F8EE679AFFF706FF800A07EE900AB8EEAC
:1013A000679A784BB3F854B02C2303FB0BF39B0ADA
:1013B00007EE903AF8EE678A12A80DF055F900246E
:1013C0000BE004F150036B4413F8082C6E490DA890
:1013D00000EB44000CF058FD0134072CF1D96B48A8
:1013E00005F008FB6A4805F005FB6A4805F002FBBA
:1013F000694805F0FFFA694805F0FCFA684805F00D
:10140000F9FA684B684A6949694805F0F3FA05AC8E
:1014100020220021204619F07DFF2046FFF7EAF840
:10142000002800F099809DF81430002B40F08F8048
:10143000604805F0DFFA604B1B78203BDBB25E2B87
:1014400040F28E805D4805F0D5FA5D4C204605F0EF
:10145000D1FA5C4805F0CEFA18EE100A1FF098FC9D
:1014600002460B46584805F0C5FA5146574805F064
:10147000C1FA4946564805F0BDFA4146554805F0BF
:10148000B9FA3946544805F0B5FA3146534805F0E3
:10149000B1FA2946524805F0ADFA0399514805F0D2
:1014A000A9FAF2EE027A6AEE277AB1EE047A87EEB2
:1014B000878ADFED4D7A38EE278A1AEE100A1FF080
:1014C00067FC06460F4618EE100A1FF061FCCDE9D6
:1014D000000132463B46454805F08CFA0DA94448C8
:1014E00005F088FA204605F085FA424805F082FAB0
:1014F0000022414B414805F07DFA19EE900A1FF099
:1015000047FC02460B463E4805F074FA19EE100AF5
:101510001FF03EFC02460B463A4805F06BFA18EE07
:10152000900A1FF035FC02460B462C210191CDF8A4
:1015300000B0354805F05EFA204605F05BFA134826
:1015400005F058FA15B0BDEC068BBDE8F08F05A983
:101550002E4805F04FFA6EE72D4805F04BFA6AE782
:1015600015492C4805F046FA6FE700BF00200A40F5
:1015700000000A403333533A6ABC343F2D93E13ABA
:1015800083DE1B4390CA0020644A02107C150210BF
:10159000CC150210E0150210101602105C16021095
:1015A0009C160210D8160210E4160210F016021053
:1015B000FC1602102017021000F00F107017021016
:1015C000D4140210A8170210BC170210DC17021066
:1015D000F817021014180210301802104C180210DC
:1015E000681802108418021000000042A0180210AF
:1015F000C818021000190210004080401019021093
:101600003019021050190210701902104017021000
:10161000501702109817021008B504F06FFC08BDAF
:1016200008B5002007F031F920B31749174805F035
:10163000E1F9012007F029F9F0B11349144805F048
:10164000D9F9022007F021F9C0B10F49114805F07E
:10165000D1F9032007F019F990B10B490E4805F0B4
:10166000C9F9042007F011F960B107490B4805F0EA
:10167000C1F908BD0A49D9E70949DFE70849E5E7A3
:101680000749EBE70649F1E7B4190210BC1902104B
:10169000E41902100C1A0210341A02105C1A02101B
:1016A000B819021070B5B2B0164805F0A3F90024BD
:1016B00007E0154B53F824202146144805F09AF909
:1016C0000134042C1BDC204607F0DFF80028F0D0A2
:1016D0000D4E56F8242021460D4805F08BF956F89A
:1016E000243022460B4968460CF0CEFB0246694680
:1016F000204607F03BF9204607F0C2F8E0E732B099
:1017000070BD00BF146E0210C46F0310CC1A02101B
:10171000841A0210A41A021008B50E4805F06AF9DE
:1017200001214FF4FA600AF0D5FD00214FF0FF309F
:101730000EF08EFC002007F00EF90028F5D0064BC5
:101740004FF080421A60002007F00AF9034805F0C4
:1017500051F908BDEC1A021000B00D40301B021008
:1017600038B52C4805F046F92B4805F043F94FF4FD
:10177000FA7400214FF0FF300EF06AFC02200AF0EC
:1017800025F9002007F0E7F818B9013CF1D104244D
:1017900010E0002007F0E4F8204805F02BF938BDF0
:1017A0001F4B00221A801E48FEF7A8FD1D48FFF7B8
:1017B00059FC01340F2C27DC1A4BF42202FB0433B2
:1017C0001B8F13F0010FF4D013F4807FF1D0154D6F
:1017D000012221462846FFF77FFB022221462846A8
:1017E000FFF77AFB032221462846FFF775FB042208
:1017F00021462846FFF770FB062CD1D0072CD2D10A
:10180000074B00229A80CEE700214FF000700AF0CB
:10181000AAFD00BF441B0210981B0210301B0210CF
:1018200090CA0020C440002010B50446B8B90F4843
:1018300005F0E0F8192007F069FE16E021460C4893
:1018400005F0D8FF192007F061FEFA200AF0BEF873
:10185000192007F05BFEFA200AF0B8F8013C631E7D
:10186000082BEBD9034805F0C5F810BDD01B0210BA
:10187000E41B02107050021008B54FF050435B6833
:1018800013F4003F01D1012008BD024805F0B2F871
:101890000020F9E7E81B021008B5034805F0AAF894
:1018A00004F0A0FE08BD00BF2C1C021008B5FFF715
:1018B000E3FF00B908BD034805F09CF804F05CFEA6
:1018C000F8E700BF501C021008B5FFF7D5FF00B9BC
:1018D00008BD034805F08EF80248FEF7C7FCF7E79D
:1018E000741C021090CA002010B5FFF7C5FF70B934
:1018F00010BD084B53F82430074A32F81420214613
:10190000064805F077F801345F2CF2DDF0E700249B
:10191000FAE700BFE0E0031090CA0020A01C02100C
:1019200070B5C0B00446FFF7A7FFB0B3BCB3012247
:101930004FF480714FF47F20FFF7EAF8B0F1FF3FDA
:101940004CD120461AF054FB06464FF48072FF211A
:10195000684619F0DFFC32462146684619F02EFE33
:1019600000230DF806306A462146214805F042F86A
:101970004FF47F211F4805F03DF84FF4807269460F
:101980004FF47F20FFF7ACF81B4C21461B4805F0B5
:1019900031F821461A4805F02DF840B070BD164BBD
:1019A0001B78203BDBB25E2B04D81349154805F0A9
:1019B00021F8F2E71049144805F01CF808E004F19A
:1019C000805303F57F231978104805F013FF013485
:1019D0001F2CF4DD0E4805F00DF8DEE74FF47F21F3
:1019E0000C4805F007F84FF47F20FFF761F8A8E7EF
:1019F000301D0210541D021000F00F10901D021037
:101A0000B01D0210FC1C0210C01C0210F41C0210BD
:101A1000705002100C1D021030B589B00546EC461E
:101A20003C4C0FCCACE80F0094E80F00ACE807008A
:101A30002CF8023B1B0C8CF8003000238DF81F3073
:101A40007DB12C4628461AF0D3FA042820D1002272
:101A5000032A26DCA35C303BDBB2092B1DD8013204
:101A6000F6E72D4804F0C6FF6846FEF7C3FD58B1FF
:101A70009DF800301BB9294804F0BCFF0BE0694613
:101A8000274804F0B7FF06E0264804F0B3FF02E061
:101A9000254804F0AFFF09B030BD244804F0AAFF88
:101AA000F9E72349684619F073FF054610B304228D
:101AB000214619F083FD00232B7169461D4804F06F
:101AC00099FF1D4804F096FF41F28830FFF776FB3E
:101AD000A0B96846FEF728FDA0B16946174804F092
:101AE00089FF6846FEF786FD80B169460C4804F020
:101AF00081FFD0E7124804F07DFFCCE7114804F0E5
:101B000079FFC8E7104804F075FFEAE70F4804F0D2
:101B100071FFC0E7A8D80210D01D0210041E0210E9
:101B20003C1E0210501E0210781E0210AC1E021045
:101B3000D41E0210201F0210401F0210A41F02100A
:101B4000DC1E02107C1F0210C41F0210F01F0210C6
:101B500010B50D4804F04EFF002408E00B4A0C4B72
:101B600053F8243021460B4804F044FF01341D2C67
:101B700008DC4FF050435A680123A3401A42EDD0CD
:101B8000054AECE710BD00BF182002101420021017
:101B900068E00310282002101020021008B508F099
:101BA0006FFA08BD08B508F005FB08BD08B508F0D8
:101BB000D1F908BD08B508F037FA08BD08B508F036
:101BC000AFF908BD08B508F075FC08BD08B508F008
:101BD00077FC08BD2DE9F047ADF5805D82B0066960
:101BE00001F1805303F580131B6AB34205D0042032
:101BF0000DF5805D02B0BDE8F08707461E4D0D442F
:101C0000002401940022002313F0F0FAA1464FF4BF
:101C1000805819E017F0D6FE01465246174804F0E6
:101C2000E9FE0020E4E70133019A93420AD202AAB6
:101C3000D25C1919695C8A42F5D08A431AD14FF0F7
:101C40000109F0E7B61A14446EB1464500D2B04619
:101C500002A90B1F4246384613F062F8824600285C
:101C6000D8D10023E0E7B9F1000F01D10120BFE78F
:101C70000220BDE70320BBE728001010402002101F
:101C80002DE9F047ADF5955D86B006460F46012279
:101C900001460EA812F09EFE28B93146A6A81AF0F9
:101CA00093F8002518E0044617F08CFE0246234600
:101CB0003146BA4804F09EFE002420460DF5955D9D
:101CC00006B0BDE8F087AEAC2C4414F8200C18F038
:101CD000D1FD04F8200C0135A6A81AF089F9A84214
:101CE000F1D82E21A6A819F09BFC0446129D0346AC
:101CF0002A463146AA4805F07DFD2F21304619F0CD
:101D00008FFC00B1461CA749204619F07FFF002830
:101D100000F0BE804FF00009A349204619F076FF7D
:101D200008B94FF00309A149204619F06FFF08B91F
:101D30004FF004099E49204619F068FF08B94FF09A
:101D400005099C49204619F061FF08B94FF00609C2
:101D50009949204619F05AFF08B94FF007099749E9
:101D6000204619F053FF08B94FF00809944920465E
:101D700019F04CFF002800F09680B9F1000F00F038
:101D80008A803046FEF7E2FD8046B0F1FF3F40F02A
:101D90008D80032F00F0D4800024022F03D1B8F1EE
:101DA000FF3F40F0D5800020FEF7B8FDB0F1FF3FC7
:101DB00000F01E8129460020FEF76CFD8046B0F140
:101DC000FF3F00F01D81C0F5700305F5807293425E
:101DD000C0F01E8104AC8DF8109031460DF1110059
:101DE00019F0F2FF0C9508F1805303F580135A6A3D
:101DF0001B78FF2B00F014810D92012205F12801C0
:101E00004046FEF77DFCB0F1FF3F40F01081AEACE4
:101E100004AECDF80080336A32780DF111016948C3
:101E200004F0E8FD4FF48052FF21204619F072FAC9
:101E30000FCE0FC40FCE0FC496E8030084E8030052
:101E40000EAC00220023204613F0D0F903AB40F67D
:101E5000D872B8A9204612F063FF0446002840F06B
:101E6000F480FEF701FCAEA9A1F52B76346804F2EC
:101E7000271424F0FF04EFF3108772B6224608F50A
:101E800080101EF065FF87F310883668AE1BFBE0FC
:101E90004FF0010940E74C4804F0ACFD0EA813F0E8
:101EA000FBF8012409E74FF009096AE701464748B2
:101EB00004F0A0FDBB1E012B3AD841460EA8FFF747
:101EC00089FE044604282AD8DFE800F00B03291A0B
:101ED00013003F4804F08EFD0EA813F0DDF8022435
:101EE000EBE63C4804F086FD0EA813F0D5F8032479
:101EF000E3E6394804F07EFD0EA813F0CDF8DCE6E9
:101F0000364804F077FD4FF0050A022C0AD0032F63
:101F10007FF443AF0EA813F0BFF85446CDE64FF060
:101F2000000AF2E72E4804F065FD4FF0060AEEE7DE
:101F30002C4804F05FFD0EA813F0AEF80724BCE6B1
:101F4000294804F057FD0EA813F0A6F83C46B4E665
:101F500008F1805303F580131E460DF1100E03F1B6
:101F60002007F44630687168B268F368ACE80F0087
:101F70001036E646BE42F4D130687168AEE8030020
:101F8000032C7FF444AF0D9A4146184804F032FD0B
:101F90000D994046FEF72EFD39E700BF782002106C
:101FA00054220210C4200210CC200210D4200210AF
:101FB000DC200210E4200210EC200210F4200210B9
:101FC000FC200210C4240210042102108C220210F2
:101FD000AC220210DC220210F8220210342302107C
:101FE00074230210B0230210E02302100C2402100C
:101FF000324804F0FFFC0EA813F04EF809245CE60A
:102000002F4804F0F7FC0EA813F046F80A2454E613
:102010002C4804F0EFFC0EA813F03EF80A244CE61E
:1020200005F2271323F0FF0343446362E5E601460C
:10203000254804F0DFFC0D9A4146244804F0DAFC00
:102040000D994046FEF7D6FCE1E617F0BBFC0146D1
:1020500022461F4804F0CEFC0EA813F01DF8002401
:102060002BE6FF3424F0FF04EFF3108772B6AEAD19
:102070002246294608F580101EF06AFE87F3108874
:10208000A5F52B752B68F61A002E12DDAEAD4FF4B8
:102090008052FF21284619F03DF903AB4FF48052DE
:1020A00029460EA812F03CFEA04403AD2C68002C7B
:1020B000D7D10EA812F0F0FF0824FEE53424021058
:1020C0005024021078240210A42402100C240210C0
:1020D0004020021070B5ADF53E7D05460E462C221F
:1020E0000021B3A819F016F9FEF772FB68B3FF22BE
:1020F000002173A819F00EF92B7833B9FF2173A8CA
:1021000012F0DFFF044648BB73AD2946514804F086
:1021100071FC582200215CA819F0FCF84FF4907271
:10212000002114A819F0F6F805B34B4B2A4614A960
:102130005CA813F060FA044698B317F043FC01461C
:102140002246464804F056FC81E0454804F052FC23
:102150004FF47051434804F04DFC78E017F032FC26
:1021600001462246404804F045FC70E03F4B404A9F
:1021700040F2E6613F480BF01FFF31466846FFF72B
:102180007FFDBEAB03EB800353F82C2C013243F8E8
:102190002C2C394804F02EFC14A95CA813F014FA76
:1021A000044614BB9DF86A30FBB100214FF0FF30AC
:1021B0000DF04EFF2946684619F006FE684619F0F4
:1021C00017FF2E4B1B882DF800300DF16A01684671
:1021D00019F014F99DF85C3013F0100FCDD00DF10B
:1021E0006A01274804F006FCD6E75CA813F0A3F9BF
:1021F000244804F0FFFBBB99234804F0FBFBBA9989
:10220000224804F0F7FBB599214804F0F3FBB99993
:10221000204804F0EFFBB8991F4804F0EBFBB79996
:102220001E4804F0E7FBB6991D4804F0E3FBB4999F
:102230001C4804F0DFFBB3991B4804F0DBFBBD999D
:102240001A4804F0D7FBBC99194804F0D3FB0DF5EC
:102250003E7D70BD88250210D4140210182602108D
:10226000FC2402103825021064250210A825021053
:10227000B0250210D8250210705002103C26021022
:10228000402602105C2602107C260210AC260210AA
:10229000DC2602100C2702103C2702106C270210CB
:1022A0009C270210CC270210FC2702102C280210B9
:1022B0005C28021070B505460C461646FFF7DCFA9E
:1022C00030B1012C08D021462846FFF7D9FC70BD5B
:1022D000044804F08FFBFAE731462846FFF7FAFE80
:1022E000F5E700BF8C28021030B583B0044645885E
:1022F0006DBAADB2018849BA89B2374804F07AFBA9
:102300002946364804F076FBE188A38803F47F422F
:1023100002EB11225BBA9BB2FF2B2BD892B2B2F523
:10232000805F2FD355BB2E4804F064FB04F5805426
:10233000B4F8FC0FC0F305202A49B4F8FA2FC2F311
:102340000522B4F8F83FC3F30523B4F8F65FC5F3EC
:1023500005254D5D0095CB5C8A5C095C224804F044
:1023600049FBB4F8FE1F49BA89B2204804F042FB89
:1023700003B030BD1E4804F03DFBD7E71D4804F014
:1023800039FBD3E7002DCED002F10043013B34F8F6
:1023900013305BBADBB200203F2B0FD80F280DDCC7
:1023A00003F03F030F49C95C134B19540130531E0E
:1023B0001B1A34F813305BBADBB2EDE703F03F03CE
:1023C0000849CB5C0C490B54013000230B540B48DB
:1023D00004F010FBAAE700BFC4280210D82802109E
:1023E00028290210346E031088290210A429021033
:1023F000EC28021008290210E43F002050290210A6
:10240000F0B5C1B00746294804F0F4FA284804F0B2
:10241000F1FA284804F0EEFA002428E0103CA4B2B7
:1024200001AB5919244A1088927858538A700235A2
:10243000002608E0214901A828440BF025FD0135BC
:102440000134A4B201360F2E0ADC37F8142052BA38
:10245000D2B2A2F12003DBB25E2BEBD92E22E9E748
:1024600001A9174804F0C6FAB4F5805F1BD2002119
:102470004FF0FF300DF0ECFD2246124901A80BF0A1
:1024800003FD00260A250F2EC8DC37F8142052BAA7
:1024900092B20D4901A828440BF0F6FC0535013431
:1024A000A4B20136EFE741B0F0BD00BFBC29021075
:1024B000D42902103C2A0210B02A02107411021012
:1024C000082B0210A82A0210B42A021010B501EB42
:1024D000810C01F003014900C1F1080EFF2303FA4A
:1024E00001F2C1F106042341CCF38F0C10F80C402B
:1024F00022400A41604441780B4003FA0EF39BB23C
:1025000013FA82F080B210BD2DE9F04782B0804608
:1025100090F8B89201465C4804F06CFA08F10501A5
:102520005A4804F067FA98F8B812594804F062FA69
:10253000002739E0574804F05DFA04E0002E76D118
:10254000554804F057FA04F5805494F8213494F86F
:10255000225405F03F052D0105EB131505F03F054D
:102560004E4994F82024920894F81F0400F03F008C
:1025700094F81D6494F81E349B0003EB961303F04B
:102580003F03CB5C00930B5C8A5C495D444804F0DC
:1025900031FA94F8221494F823349B0003EB911140
:1025A000404804F027FA01374F4569DA41F2444ABE
:1025B0000AFB078A0AF2D924224639463A4804F02F
:1025C00019FA0AF2FD2A94F8253094F8266006F0EC
:1025D0000F06B60106EB930694F8241003F00303EC
:1025E00001EB0321314804F005FA3146304804F08C
:1025F00001FA94F8273094F82850AD0005EB9315B4
:1026000094F8262003F03F031B0103EB1213DAB208
:10261000120252FA85F5ADB2FF2B8BD8B5F5805F6B
:102620008CD3002E8CD0234804F0E4F98BE7691E8C
:1026300089B25046FFF74AFFC0B200260EE000F014
:102640003F00164B1A5C1C4B9A550136A91B89B2E8
:10265000013989B25046FFF739FFC0B23F2801D88F
:102660000F2EECDD00F03F000C4B1B5C12498B552C
:10267000013600238B552A46104804F0BBF962E767
:1026800002B0BDE8F08700BFBC2A0210D02A0210B9
:10269000E42A0210EC28021028290210346E0310DC
:1026A00088290210A4290210F82A0210C428021056
:1026B000D828021008290210E43F00200C2B021039
:1026C0002DE9F043C1B08046354919F09FFA002842
:1026D00061D1344804F08EF941B0BDE8F083214661
:1026E0003846FFF7F3FE02462F4901A828440BF0B5
:1026F000CBFB05350134A4B201360F2EEFDD103CC3
:10270000A4B201AB5919294A1088927858538A709B
:102710000235002608E0264901A828440BF0B4FB46
:1027200001350134A4B201360F2E0BDC21463846A8
:10273000FFF7CCFEC2B2A2F12003DBB25E2BEAD9D6
:102740002E22E8E701A91B4804F054F9B4F5805F94
:102750000CD200214FF0FF300DF07AFC22461649D2
:1027600001A80BF091FB00260A25C6E709F1010933
:10277000B9F1000FB0DC41F2444707FB098707F2CB
:10278000FD270E4804F036F90D4804F033F90D48E2
:1027900004F030F9DDE74FF000094C46E8E700BFF0
:1027A000442B02104C2B0210B42A0210B02A021043
:1027B00074110210082B0210A82A0210BC29021062
:1027C000D42902103C2A021010B588B0013805281F
:1027D00006D8DFE800F003075D9194BA07F070FFB8
:1027E00008B010BD0C46084619F002FC0C2803D0B6
:1027F000584804F0FFF8F3E703238DF80C302378F2
:10280000303BDBB21B01DBB262781344303B8DF806
:102810001330A378303BDBB21B01DBB2E278134408
:10282000303B8DF812302379303BDBB21B01DBB239
:1028300062791344303B8DF8103000228DF811205E
:10284000A379303BDBB21B01DBB2E1790B44303BB7
:102850008DF80F30237A303BDBB21B01DBB2617A9B
:102860000B44303B8DF80E30A37A303BDBB21B01BA
:10287000DBB2E17A0B44303B8DF80D300092082337
:1028800003AA682134480CF001FB344804F0B2F884
:1028900003A807F0ABFF9DF812309DF814209DF8B7
:1028A00015102F4804F0A6F89DF80F3003F07F03B1
:1028B0009DF810209DF811102A4804F09BF89DF80F
:1028C0000E10294804F096F89DF80E3013F0040F0E
:1028D0000AD1264804F08EF89DF90F30002B07DB53
:1028E000234804F087F87BE7224804F083F8F3E7F5
:1028F000214804F07FF873E707F03EFF70E703A874
:1029000007F074FF0024132C0ADC04F120036B444D
:1029100013F8142C2146194804F06CF80134F2E73E
:102920009DF812309DF814209DF815100C4804F005
:1029300061F89DF80F3003F07F039DF810209DF89B
:102940001110084804F056F84AE70D4804F052F810
:1029500046E700BF6C2B021084350020A82B021024
:10296000B42B0210D82B0210FC2B02100C2C0210DE
:10297000382C0210202C0210602C0210A02C021007
:10298000B42C02102DE9F04198B007460C46FDF733
:102990001FFF70B3002C54D02046FDF7D7FF05462B
:1029A000B0F1FF3F30D000F1805404F580145A4854
:1029B00004F020F8594804F01DF8214611F8012BC5
:1029C000236A606A01900095554804F013FF23784C
:1029D000FBB17F2B21D0534804F00CF82378032B54
:1029E0001FD0013BDBB2012B23D94F4804F002F882
:1029F00007E04E4803F0FEFF4FF470514C4803F0DF
:102A0000F9FF18B0BDE8F08121464A4803F0F2FF13
:102A1000F7E7494803F0EEFFF3E7484803F0EAFF21
:102A2000EFE7474C6019FFF75FFC6019FFF7E8FC20
:102A3000E7E7434C6019FFF767FD6019FFF740FEB9
:102A4000DFE7354803F0D6FF344803F0D3FF4FF0FB
:102A50000008454619E0C5F570044146394803F0C1
:102A6000C9FF2946384803F0C5FFA20A4FF4700198
:102A7000364803F0BFFFC4E72F4804F0BBFE2948E7
:102A800003F0B8FF022F2AD0656AB5F5700FB8D2EF
:102A900000214FF0FF300DF0DBFA05F1805404F512
:102AA00080142378FF2BD6D004AE626A029201957F
:102AB000226A0092621C1A4930460BF0E5F9304652
:102AC00004F098FE08F101022378002BD4D07F2B6C
:102AD00001D09046D3E7194804F08CFECFE7227866
:102AE000531EDBB2012B06D9032ACDD1144828444A
:102AF000FFF7FAFBC8E7124E2E443146144803F0A4
:102B000079FF711D134803F075FF96F8B81212484B
:102B100003F070FFB8E700BFF02C02109C210210F8
:102B2000E82102104493021004210210FC24021038
:102B300038250210D82C02103C2D0210542D021002
:102B400028001010682D0210A02D0210DC2D02109C
:102B5000BC2A0210D02A0210E42A02102DE9F04FFC
:102B6000ADB00378012B40F0CE82064690F8DB92A0
:102B7000B9F10A0F07D840F24C7323FA09F313F0A6
:102B8000010F40F0C68220242246002124A818F01C
:102B9000C1FB224600211CA818F0BCFB22460021E4
:102BA00014A818F0B7FB224600210CA818F0B2FBBD
:102BB0002246002104A818F0ADFB4FF00108B8F13F
:102BC000030F00F3A282002535E22F2A0CD03F2A02
:102BD00040F03082013B2CAA02EB830353F8402CD7
:102BE000013A43F8402C25E2013B2CAA02EB830377
:102BF00053F8202C013A43F8202C1BE2013B2CAA6D
:102C000002EB830353F8602C013A43F8602C11E285
:102C1000013B2CAA02EB830353F8802C013A43F8C2
:102C2000802C07E2A37F002B00F0048294F81DA003
:102C3000BAF12F0F67D0BAF12F0F6ED0BAF13F0F54
:102C400075D0BAF13F0F7CD0BAF15F0F00F08380EE
:102C5000BAF15F0F00F08A80BAF14F0F00F0908058
:102C6000BAF14F0F00F09780BAF16F0F00F09D801E
:102C700003F1FF3B2CAB03EB8B0353F8203C3BB140
:102C80002CAA02EB8B0252F8402C002A40F09A80CA
:102C9000002B40F0B2802CAB03EB8B0353F8403C8D
:102CA000002B40F0B6802CAB03EB8B0353F8803C39
:102CB0003BB12CAA02EB8B0252F8602C002A40F0A8
:102CC000B480002B40F0CB802CAB03EB8B0353F88C
:102CD000603C002B40F0CF802CAB03EB8B0353F810
:102CE000A02C002A00F0F68053420827CDF800A05F
:102CF000CDF804B09346CDF8088003951D463346C1
:102D00003E461F46C5E05A1E2CA901EB820252F82E
:102D1000407C002F8FDD013F33E15A1E2CA901EBCF
:102D2000820252F8207C002F00F32B8186E75A1E86
:102D30002CA901EB820252F8207C002F81DD0137A3
:102D40001FE15A1E2CA901EB820252F8407C002F91
:102D500000F3178178E75A1E2CA901EB820252F882
:102D6000807C002F7FF774AF01370AE15A1E2CA92F
:102D700001EB820252F8607C002F00F302816BE7C6
:102D80005A1E2CA901EB820252F8607C002F7FF7BB
:102D900067AF013FF5E05A1E2CA901EB820252F801
:102DA000807C002F00F3ED805EE7591E2CAA02EB19
:102DB000810252F8A07C002F7FF75AAF013742F80A
:102DC000A07CDEE00827CDF800A000E001370E2F40
:102DD00000F28D8094F81FA0524639466448FEF7F1
:102DE00004F90028F2D15246791C6148FEF7FDF83B
:102DF0000028EBD1DDF800A07BE008270F2F78D862
:102E0000E27F39465A48FEF7F0F8002871D00137C2
:102E1000F4E708270F2F6CD8E27F39465448FEF7B5
:102E2000E4F8002865D00137F4E70827CDF800A0C2
:102E300000E002370E2F6DD894F81FA05246394695
:102E40004B48FEF7D2F80028F3D15246791C484887
:102E5000FEF7CBF80028ECD1DDF800A049E0082708
:102E60000E2F46D8E27F39464148FEF7BEF80028CB
:102E70003FD00237F4E708270E2F3AD8E27F791CBB
:102E80003B48FEF7B2F8A0B30237F5E7AA4544D2B3
:102E900001360BF11002964211D8B0464FF0000AED
:102EA000B8F10F0FF2D8E27F41463148FEF79DF8A6
:102EB0000028EBD10AF1010A08F10108F0E7DDF87A
:102EC00000A0DDF804B0DDF80880039D3B463746DE
:102ED0001E460EE0082700E001370F2F09D8E27FD9
:102EE00039462348FEF781F80028F5D101E0DDF8E6
:102EF00000A0BAF14F0F2DD01AD8BAF12F0F23D05E
:102F0000BAF13F0F3DD101372CAB03EB8B0343F8F4
:102F1000407C36E0DDF800A0EBE7DDF800A0DDF84E
:102F200004B0DDF80880039D3B4637461E46E0E7C7
:102F3000BAF15F0F14D0BAF16F0F22D12CAB03EBB3
:102F40008B0343F8A07C1CE02CAB03EB8B0343F812
:102F5000207C16E02CAB03EB8B0343F8807C10E065
:102F600001372CAB03EB8B0343F8607C09E000BF17
:102F7000C4400020A37F002B5CD1677F1F2F00F08F
:102F8000AB80032F40F2E98094F82130002B40F011
:102F9000B1804FF0130A94F822300BB14FF0000AC1
:102FA0003378012B00F0A9800F2F00F2D98094F81C
:102FB0001FB05A4639466D48FEF717F8002840F012
:102FC000D28004F12401694A0BEB4B0BF42307FB7D
:102FD00003F303EB0B1B9344CBF80410E17F06F1E2
:102FE0006F4000F5700001EB410103EB01115050FF
:102FF000E17F01EB410103EB01111144A1F808A0AD
:10300000E17F01EB410103EB0111114400278F72B5
:10301000E17F01EB410103EB01111144C862E17F43
:1030200001EB410103EB011008301044711C023028
:1030300018F0CAFE013596F8E032AB4260DD41F28D
:10304000444405FB04F404F201343444B8F1020FA3
:103050003FF4E8ADB8F1030F8CD0B8F1010FE9D11E
:10306000627FA2F11003DBB20E2B55D96F2A56D81E
:10307000A37F082B56D8E17F002956D0042957D8C2
:1030800094F82010082956D894F82110012955D811
:1030900094F82210012954D894F82310012953D808
:1030A0000BB11F2A53D90BB91F2A53D8002BC1D0FB
:1030B0004F2A3FF4ADAD7FF688AD5F2A3FF49EAD59
:1030C0006F2AB7D1013B2CAA02EB830353F8A02C43
:1030D000013A43F8A02CADE7082700E001370F2F95
:1030E0003FF64FAFE27F39462048FDF77EFF0028CC
:1030F000F4D146E74FF0000A4DE74AF0080A53E7DB
:1031000008F101085BE54FF0670948462DB0BDE8BE
:10311000F08F4FF06909F8E74FF06709F5E74FF0D6
:103120006709F2E74FF06709EFE74FF06709ECE74F
:103130004FF06709E9E74FF06709E6E74FF06709E5
:10314000E3E74FF06709E0E74FF06709DDE74FF08D
:103150006709DAE74FF06709D7E74FF06A09D4E764
:103160004FF06809D1E74FF06809CEE7C44000206E
:103170002DE9F04383B006460C4615461F46FEF780
:103180007BFB002800F010818046731F012B40F26A
:10319000E58005EB4502F42304FB03F303EB021384
:1031A000B14A13441B8913F0010F0DD12146AE48DB
:1031B000FDF7E9FE70B9731E052B00F2F280DFE81F
:1031C00003F00E3B5E81CDCD2A462146A74803F091
:1031D00011FCE9E02146A64803F00CFCE4E0A24B18
:1031E000F42202FB04331B8F13F0010F1FD1A148FF
:1031F00003F000FC9C4C40F21713A4F8E4360023C3
:10320000C4F8DC36012584F89C579B4BC4F8E036A3
:103210001F229A4B196804F2E66018F0CFF9204695
:10322000FDF720FF96488580FDF768F8B9E0214654
:10323000944803F0DFFBB7E08B4BF42202FB04332E
:103240001B8F13F0010F15D18F4803F0D3FB864C71
:103250008E4B009340F21713012206212046FDF702
:10326000EFFD2046FDF7FEFE854800230380FDF7B5
:1032700045F896E02146834803F0BCFB94E07A4B86
:10328000F42202FB04331B8F13F0010F15D1804889
:1032900003F0B0FB744C7F4B009340F217130122F4
:1032A00006212046FDF7CCFD2046FDF7DBFE7448E5
:1032B00001230380FDF722F873E02146714803F0F3
:1032C00099FB71E03846FDF741FB8046B0F1FF3FC6
:1032D00026D02B46224639466F4803F08BFB08F177
:1032E000805606F580166D4803F084FB6C4803F0A9
:1032F00081FB314611F8012B336A706A0190CDF8D9
:103300000080684803F076FB3378032B0DD03378C8
:10331000013BDBB2012B44D8634803F06BFB43E075
:103320003946624803F066FB3EE0614F07EB080058
:10333000FEF7DAFF07EB080208F128015D4803F009
:1033400059FB494FCDF8008017232A4621463846BD
:10335000FDF74AFD3846FDF785FED8E73846FDF70C
:10336000F5FA0446B0F1FF3F21D000F1805505F594
:1033700080154A4803F03EFB494803F03BFB2946D1
:1033800011F8012B2B6A686A01900094454803F0FC
:1033900031FB2B78032B0FD0012B4FD0022B00F0E9
:1033A000EF803748FCF7AAFF03B0BDE8F083394649
:1033B0003E4803F01FFBF7E73D4D2819FEF794FF49
:1033C0002A1904F128013C4803F014FB4FF00009CE
:1033D000082500E001350F2D12DCB9F1000F0FD1E7
:1033E000214BF42202FB05331B8F13F0010FF1D1A7
:1033F00029461D48FDF7C7FD0028EBD1C146EAE785
:10340000B9F1000F12D03A4629462C4803F0F2FADF
:10341000062E0FD0144E0094172301222946304661
:10342000FDF7E2FC3046FDF71DFEBAE7244803F045
:10343000E1FAB9E7234803F0DDFAB5E7224803F0E3
:10344000D9FA2846FFF78AFB0446632859DDA0F124
:103450006503052B50D8DFE803F0033B3F43474BA0
:103460001A4803F0C7FA9FE7C44000202C2E021030
:10347000682E0210D42E021068C00310D87F0310EB
:1034800090CA0020A02E0210FC2E021068A003108B
:103490002C2F021068800310602F0210F02C0210F5
:1034A0009C210210E8210210B82F0210D82C021023
:1034B00028001010882F0210103002108C300210DB
:1034C00054300210A8300210D4300210E83002103C
:1034D0002D4803F08FFA67E72C4803F08BFA63E777
:1034E0002B4803F087FA5FE72A4803F083FA5BE78B
:1034F000294803F07FFA57E70146284803F07AFA93
:1035000052E7274803F076FA2648FDF7ABFD072C73
:1035100031D801A353F824F0A93300103935001035
:1035200077350010773500106535001053350010E1
:10353000773500104B3500101B4803F05BFA1B4831
:1035400001230380FCF7DAFE2EE7194803F052FA54
:103550002AE7184803F04EFA144801238380FCF749
:10356000CDFE21E7144803F045FA104801234380BB
:10357000FCF7C4FE18E72146104803F03BFA13E7B6
:103580000F4803F037FA0FE70C3102103031021008
:103590004C3102107C3102109C310210CC310210EF
:1035A000E8310210C44000200832021090CA002006
:1035B0003832021084320210B8320210F432021093
:1035C0003033021070B506460C46FEF755F9002858
:1035D00000F0B180012E44D0022E72D031465D48F9
:1035E000FDF7D1FC00287BD1002C00F0948004EB87
:1035F0004402F42306FB03F303EB0213554A13447E
:103600001B8913F0010F00F0978022463146514884
:10361000FDF762FC224631464F4803F0EBF980E0AB
:10362000224629464B48FDF757FC0134042C13DC95
:1036300004EB4402F42305FB03F303EB0213454AB6
:1036400013441B8913F0010FEFD029461046FDF7F4
:103650009AFC0028E9D1E3E701350F2D03DC34465D
:10366000E4E70425F9E73D48002303808380FCF765
:1036700045FE3848FDF7F6FC394803F0BBF95AE03F
:10368000224629463348FDF727FC0134042C13DC7D
:1036900004EB4402F42305FB03F303EB02132D4A6E
:1036A00013441B8913F0010FEAD129461046FDF798
:1036B0006AFC0028E9D0E3E701350F2D03DC012483
:1036C000E4E70425F9E72548002303808380FCF71D
:1036D00015FE2048FDF7C6FC224803F08BF92AE0CE
:1036E0003146214803F086F925E00134042C14DC2E
:1036F00004EB4402F42306FB03F303EB0213154A25
:1037000013441B8913F0010FEFD0224631461148B4
:10371000FDF7E2FBE9E70124E8E73146134803F04F
:1037200069F9062E0ED0072E10D00C48FCF7E6FDE6
:103730000848FDF797FC70BD224631460C4803F05F
:1037400059F9F8E7054B00221A80EEE7034B0022F7
:103750009A80EAE7C44000203034021090CA00206A
:103760006C330210A0330210D43302101034021054
:103770004C3402102DE9F041ACB006460F4690469D
:1037800020AC934D0FCD0FC40FCD0FC495E80F00A3
:1037900007C4238018AC8F4D0FCD0FC495E80F00E0
:1037A00084E80F000DF1280C8B4C0FCCACE80F0017
:1037B0000FCCACE80F000FCCACE80F0094E803008E
:1037C0004CF8040B8CF8001003AC844D0FCD0FC4E3
:1037D00095E8070003C42270FEF74EF8002849D090
:1037E000062E10D07E4BF42202FB07331B8F13F002
:1037F000010F0FD1013E052E00F2E680DFE806F052
:103800000F0F426B94CA3B1F0B2BEBD9754803F08B
:10381000F1F82FE03946744803F0ECF82AE005216E
:103820006F48FDF7B0FB40BB6D4C8023A4F8FC341F
:103830000026C4F8F464012384F8B4356B4BC4F853
:10384000F83404F2FE451F226949284617F0B6FEF7
:1038500084F81D650DF160081F224146284617F0C7
:10386000ADFE05275E48FDF7FDFB4246394661483F
:1038700003F0C0F82CB0BDE8F08139465E4803F093
:10388000B9F8D1E705215648FDF77DFBF0B9544C56
:103890008023A4F8F0350026C4F8E865012384F8F5
:1038A000A836524BC4F8EC3504F2F2551F225049A9
:1038B000284617F083FE84F811660DF128081F22B0
:1038C0004146284617F07AFE0627CBE739464B4893
:1038D00003F090F8DBE707214148FDF754FBF0B90E
:1038E0003F4C8023A4F8E4360026C4F8DC660123AC
:1038F00084F89C373D4BC4F8E03604F2E6651F229D
:103900003B49284617F05AFE84F805670DF10C086C
:103910001F224146284617F051FE0727A2E73946E5
:10392000374803F067F8DBE74FB339462C48FDF71B
:103930002AFB50B32A4C012239462046FDF7CCFA27
:10394000002239462046FDF7C7FA39462D4803F0D4
:1039500051F88FE701340F2C13DC21462048FDF786
:1039600012FB0028F6D01E4D012221462846FDF705
:10397000B3FA002221462846FDF7AEFAEAE704240E
:10398000E9E7214803F036F874E739461F4803F0A9
:1039900031F86FE739461248FDF7F5FA78B9104C5F
:1039A000002300938023012239462046FDF71CFAAC
:1039B0004346012239462046FDF7BEFA52E7394612
:1039C000134803F017F855E7124803F013F851E7CE
:1039D00088360210B8360210D8360210103702109E
:1039E000C4400020703402109434021028001010DB
:1039F000010010106C360210C83402100C35021091
:103A000050350210B835021094350210DC35021022
:103A1000083602104C3602102DE9F047D0B00546AA
:103A2000E0B10F4601EB4102F42300FB03F303EB8B
:103A30000213BC4A13441B8913F0010F00F04F819D
:103A40000146B848FDF772FBB74802F0D3FF2D03DB
:103A5000AEB206F580581FFA88F8A0E1B34802F02C
:103A6000C9FFB34802F0C6FFB24802F0C3FF2E46BA
:103A70001FE004EB4403F42206FB02F202EB031204
:103A8000A84B13440B449A7A46AB5A5401311F2970
:103A9000EFDD04EB4404F42306FB03F303EB041310
:103AA000A04A1A4446AB12893146A34802F0A2FF4D
:103AB00001360F2E00F318810124042CF8DC314666
:103AC0009848FDF760FA18B1012C01D12946DEE7CC
:103AD00004EB4402F42306FB03F303EB0213914AC5
:103AE00013441B8913F0010F2FD013F4807F2ED0C5
:103AF00040F0918022463146904802F07BFF01342D
:103B0000DBE704EB4403F42206FB02F202EB0312B0
:103B1000844B13440B449A7A46AB5A5401311F2903
:103B2000EFDD012CEBD104EB4402F42306FB03F39D
:103B300003EB02137B4A13441B8946AA00922246D8
:103B400031467F4802F056FFD9E72946E7E74EABFA
:103B5000224631467348FDF79DFA4FEA0639012C9B
:103B60002BD01FFA89F9E3B2DFF8B8811F461A4655
:103B7000494640461DF028F9824609F101013A46BE
:103B800089B240461DF020F904EB4402F42306FB01
:103B900003F303EB021308EB0302118908334344D8
:103BA0000233526803920293019100904EAB524649
:103BB0002146644802F01EFFA1E71FFA89F9E3B22B
:103BC000DFF860811F461A46494640461DF0FCF862
:103BD000824609F101013A4689B240461DF0F4F8E7
:103BE00004EB4402F42306FB03F303EB021308EB9C
:103BF0000302118908334344023352680492039349
:103C0000029101904EAB00935346224631464E48F6
:103C100002F0F0FE73E74FEA06394EAB224631461A
:103C20004048FDF737FA012C2BD01FFA89F9E3B28F
:103C3000DFF8F0801F461A46494640461DF0C4F89A
:103C4000824609F101013A4689B240461DF0BCF8AE
:103C500004EB4402F42306FB03F303EB021308EB2B
:103C600003021189083343440233526803920293DA
:103C7000019100904EAB52462146344802F0BAFE04
:103C80003DE71FFA89F9E3B2DFF898801F461A462C
:103C9000494640461DF098F8824609F101013A462E
:103CA00089B240461DF090F804EB4402F42306FB71
:103CB00003F303EB021308EB0302118908334344B7
:103CC0000233526804920393029101904EAB009329
:103CD0005346224631461E4802F08CFE0FE70A4644
:103CE00001461C4802F086FE50B0BDE8F08771190D
:103CF000FAB289B20B481DF067F80246164907A8C8
:103D000020440AF0C1F8044401350F2DEFDD07AB64
:103D10001919124A1088927818538A7002340025B3
:103D200025E000BFC4400020705002102C37021064
:103D30004037021078370210C0370210C038021026
:103D40000038021080380210403802104C3902103E
:103D50000C3902108C390210B0390210B02A02104E
:103D6000134907A820440AF08FF8013401350F2DBC
:103D70000DDC7119FAB289B20E481DF025F8C2B2F5
:103D8000A2F12003DBB25E2BEAD92E22E8E710363F
:103D9000B6B207A9084802F02DFEB045A4D93246B4
:103DA000064907A80AF070F800250A24ADE700BF0D
:103DB00074110210C4400020082B0210A82A02101F
:103DC00070B504460E46FDF757FD002845D0054660
:103DD000601E04283ED8DFE800F003455667B600B1
:103DE000614802F007FE614B9B88A3B160496148BE
:103DF00002F000FE5D4B1B887BB15D495E4802F01E
:103E0000F9FD5A4B5B8853B159495C4802F0F2FD09
:103E10000424002106E05A49E9E75949EEE75849E8
:103E2000F3E701340F2C14DC564BF42202FB04336D
:103E30001B8F13F0010FF4D0524B02FB043393F9A4
:103E4000F030002BEDDA21464F4802F0D3FD294631
:103E5000E7E719B14548FCF751FA70BD4B4802F04D
:103E6000C9FDF7E7414B9B8833B9404B01229A804B
:103E7000474802F0BFFDEDE73C4B00229A804548E1
:103E800002F0B8FDE6E7394B1B8833B9374B012206
:103E90001A80414802F0AEFDDCE7344B00221A8064
:103EA0003E4802F0A7FDD5E7364BF42202FB06336D
:103EB0001B8F13F0010F24D0324BF42202FB063388
:103EC00093F9F030002B21DB06F0FE012D4CF4239A
:103ED00003FB014090F8F02062F07F0280F8F020B0
:103EE00001FB0333234493F8F02062F07F0283F850
:103EF000F0204A1C2A4802F07DFD2046FDF7B2F86A
:103F0000A8E73146274802F075FDA6E706F0FE0156
:103F10001C4C134602FB014090F8F02002F07F0297
:103F200080F8F02001FB0333234493F8F02002F0E3
:103F30007F0283F8F0204A1C1B4802F05BFD2046FC
:103F4000FDF790F886E7094B5B8833B9074B0122F0
:103F50005A80164802F04EFD7CE7044B00225A803E
:103F6000134802F047FD75E7B839021090CA0020E7
:103F7000F4560210CC390210E8390210043A02104B
:103F8000083B0210C4400020203A0210583A0210A8
:103F9000903A0210AC3A0210C83A0210EC3A021001
:103FA000943B0210143B0210503B0210D83B02100D
:103FB000FC3B021070B582B00546FCF7C7FCB0F1BF
:103FC000FF3F28D00446FDF757FC48B304F1805664
:103FD00006F580162946184802F00CFD174802F035
:103FE00009FD174802F006FD164802F003FD3146B0
:103FF00011F8012B336A706A01900094124802F0A4
:10400000F9FC00212046FCF7C1FC78B129460F4895
:1040100002F0F0FC08E029460D4802F0EBFC03E05A
:1040200029460C4802F0E6FC02B070BD29460A4859
:1040300002F0E0FCF8E700BF483C0210683C0210C8
:10404000F02C02109C210210E82102109C3C02106E
:10405000D82C0210203C0210BC3C021010B50928DC
:104060001FD004460A281ED0A44B1B8873B3013C02
:10407000072C15D8DFE814F02E00C400DC00EB009C
:10408000FA00070124013901E0B205F095FB013483
:104090005A2CF9DD002005F08FFBE02005F08CFBA9
:1040A00010BD4124F4E702F041FA0A2007F08EFC2B
:1040B0004FF050435B6813F0005F05D0904A1D211C
:1040C000904802F097FCEBE78F4AF8E78F4802F040
:1040D00091FCCCE7894BB3F8A6306BB188498C488A
:1040E00002F088FC854BB3F8A030032B00F28280ED
:1040F000DFE803F00474787C8349F0E7854802F038
:1041000079FC854B1B78002B78D08449844802F0D9
:1041100071FC844C2188844802F06CFC2188C90B16
:10412000824802F067FC2188C1F38031804802F0A8
:1041300061FC2188C1F340317E4802F05BFC21889C
:10414000C1F300317C4802F055FC2188C1F3C02145
:104150007A4802F04FFC2188C1F38021784802F0B0
:1041600049FC2188C1F34021764802F043FC2188B4
:10417000C1F30021744802F03DFC2188C1F3C01155
:10418000724802F037FC2188C1F38011704802F0B8
:1041900031FC2188C1F340116E4802F02BFC2188CC
:1041A000C1F300116C4802F025FC2188C1F3C00165
:1041B0006A4802F01FFC2188C1F38001684802F0C0
:1041C00019FC2188C1F34001664802F013FC2188E4
:1041D00001F00101644802F00DFC61E7634802F060
:1041E00009FC8EE7624802F005FC8AE7614802F0AC
:1041F00001FC86E7604802F0FDFB82E75F4985E746
:104200003E4BB3F8A63063B13C4B0022A3F8A62086
:104210003A4BB3F8A6304BB139493D4802F0EAFBBE
:104220003EE7364B0122A3F8A620F1E73649F4E732
:104230003C4A13886FEA43436FEA534313802F4B82
:104240000222A3F8A0204E4802F0D4FB28E7354A0A
:104250001388C3F30D0343F480431380274B0122DB
:10426000A3F8A020474802F0C5FB19E72D4A1388A0
:10427000C3F30D031380214B0022A3F8A020424872
:1042800002F0B8FB0CE7274A138883F400639BB263
:1042900013801A4AB2F8A4205AB1184A0021A2F891
:1042A000A41013F4006F09D01C49384802F0A2FB97
:1042B000F6E6124A0121A2F8A410F2E72F49F4E72A
:1042C0000E4B1B881BB9324802F094FBE8E6154AF6
:1042D000138843F4005313802E4B02221A6002F01D
:1042E0004BF92D4802F086FBDAE6044B1B88002BC5
:1042F00054D1274802F07EFBD2E600BF90CA0020CE
:10430000E03C0210E83C0210E43C0210043D0210C4
:10431000603D0210743D021051D00020F055021093
:10432000F03D02104C310020043E02101C3E0210F1
:10433000503E0210A03E0210D03E0210083F021074
:10434000343F0210603F0210843F0210B03F021061
:10435000E03F021024400210544002108840021036
:10436000B8400210E84002101C4102108C3D0210BF
:10437000A43D0210BC3D0210D43D02108011021079
:10438000504102106C41021088410210A4410210F9
:10439000C8410210A0CF0020F8410210064A13883D
:1043A00043F480531380054B02221A6002F0E4F8B4
:1043B000034802F01FFB73E64C310020A0CF002021
:1043C000144202100000000010B584B00446FDF74E
:1043D00053FA80B1601E0B280DD8DFE800F0060EFE
:1043E00032560C0C0C0C0C6E757C414BB3F87810EB
:1043F000404802F0FFFA04B010BD3F4802F0FAFA5C
:104400003B4BB3F878103B4802F0F4FA002400E08C
:104410000134B4F5007FEEDA04F5705208230093FE
:104420006B44D200052135481CF0C6FC029A039B60
:1044300052EA0301ECD004F50071314802F0DAFAD7
:10444000E6E729A3D3E90023CDE90223002412E003
:10445000029B13F10133039A42F10132029303925A
:1044600004F57052082300936B44D20005212348C1
:104470001CF0C6FC0134B4F5007FE9DB214802F0F2
:10448000B9FA214802F0B6FAB5E700220023CDE9D7
:10449000022300240AE004F57052082300936B44C1
:1044A000D200052115481CF0ABFC0134B4F5007FA7
:1044B000F1DB164802F09EFA9DE70D480023A0F8B4
:1044C0007830FBF71BFF96E709480123A0F8783006
:1044D000FBF714FF8FE706480223A0F87830FBF7BC
:1044E0000DFF88E7AFF3008041404140414041402B
:1044F00090CA0020304202104C42021000000840D6
:104500008042021094420210C8420210E44202109B
:1045100038B50C4601380A2855D8DFE810F00B00F2
:1045200063008A00AC00BA00CA00DA00EA00FA00B0
:104530000A0118018C4DB5F854102C2404FB01F22B
:10454000920A8A4802F056FAB5F8561004FB01F2B6
:10455000920A874802F04EFAAB8F002B34D085497F
:10456000854802F047FA804BB3F85030002B2DD02D
:104570008049824802F03EFA7B4BB3F846303BB3A9
:104580007C497F4802F036FA774BB3F852300BB3D0
:1045900078497C4802F02EFA734BB3F86630DBB1F1
:1045A0007449794802F026FA6F4BB3F86830ABB122
:1045B0007049764802F01EFA6B4BDB8F83B16D4970
:1045C000734802F017FA38BD7249C9E77149D0E75C
:1045D0007049D6E76F49DCE76E49E2E76D49E8E7E5
:1045E0006C49EDE7FDF748F9D8B15F4BB3F85410CB
:1045F0002C2201FB02F2684802F0FCF9002CE2DDFB
:10460000A4F57A7242F228339A420ED8564DA5F894
:1046100054402146614802F0EDF92846FBF76EFE52
:10462000D1E75F4802F0E6F9CDE75E4802F0E2F933
:10463000C9E7FDF721F9B0B14B4BB3F856102C2266
:1046400001FB02F2584802F0D5F9002CBBDDA4F1C1
:104650002003E02B0BD8444BA3F856402146534887
:1046600002F0C8F9AFE74E4802F0C4F9ABE7504892
:1046700002F0C0F9A7E73C4A938FB3FA83F35B09D2
:10468000938723B13B494B4802F0B4F99BE741497A
:10469000F9E7354AB2F85030B3FA83F35B09A2F870
:1046A000503023B13349444802F0A4F98BE739492B
:1046B000F9E72D4AB2F84630B3FA83F35B09A2F862
:1046C000463023B12B493D4802F094F97BE731494C
:1046D000F9E7254AB2F85230B3FA83F35B09A2F83E
:1046E000523023B12349364802F084F96BE7294957
:1046F000F9E71D4AB2F86630B3FA83F35B09A2F812
:10470000663023B11B492F4802F074F95BE7214959
:10471000F9E7154AB2F86830B3FA83F35B09A2F8F7
:10472000683023B11349284802F064F94BE719496E
:10473000F9E70D4AD38FB3FA83F35B09D38723B12B
:104740000C49224802F056F93DE71249F9E7FDF716
:1047500093F800283FF437AF0348FBF7CFFD1C4820
:1047600002F048F92FE700BF90CA00201043021062
:104770004443021000540210784302109843021080
:10478000DC4302100844021030440210504402106E
:1047900070440210083B0210CC4402103045021055
:1047A00090440210F844021084450210EC450210B7
:1047B000B445021014460210304602107046021032
:1047C00098460210BC460210D8460210F446021069
:1047D000104702102DE9F041BAB004460D46002002
:1047E0001CF016FB06469F231F936022002120A881
:1047F00016F090FD06AF4FF064084246002138469F
:1048000016F088FD424639461FA81CF0ADFA9DF807
:104810001B30012101FA03F7FDF72EF8002832D0F2
:10482000631E042B2FD8DFE803F003364D507600CB
:1048300038A809F021FF9DF8E3309DF8E4209DF8A9
:10484000E5109DF8E6009DF8E7400494039002917E
:10485000019200939DF8E2309DF8E1209DF8E01070
:10486000384802F0C7F83146374802F0C3F8102143
:10487000364802F0BFF83A46002F07DB12153946DA
:10488000334802F0B7F83AB0BDE8F08107F57F226F
:1048900002F6FF72F2E72F4B9D420DD005F58053D3
:1048A0002D4A13602C4B1A6829462C4802F0A2F8B6
:1048B0002846FBF797FFE6E7274B1D6805F5805272
:1048C0001A60EFE7FBF738FFDDE7254802F092F8C2
:1048D0004FF47A7400214FF0FF300BF0B9FB022047
:1048E00007F074F8002004F036F868B9013CF1D103
:1048F0001C4802F07FF8FBF7DDFE1B4802F07AF857
:104900001A4802F077F8BEE7002004F029F81848AA
:1049100002F070F8B7E70F4B9D420DD005F58053BC
:10492000144A1360134B1A682946134802F062F8C0
:10493000284601F09BFFA6E70E4B1D6805F5805247
:104940001A60EFE730470210644702108C470210EC
:10495000C04702104342414084CA0020FC47021075
:104960003848021094480210AC480210C84802109F
:104970008048021088CA00200C4902102DE9F04F2F
:1049800095B05F4802F036F841238DF828300AAF21
:104990005C4D0FCDCDF82900CDF82D10CDF831208C
:1049A000CDF835302868CDF83900AB88ADF83D300A
:1049B0004FF01F09CDF8489002AE534A334607CA5C
:1049C00003C31A804FF4807ACDF84CA04F4D4FF0BE
:1049D0002808CDF800803B460022052128461CF01F
:1049E0000FFACDF8009033464246052128461CF0C8
:1049F00007FA30238DF828304FF0FE09CDF84890A3
:104A0000434E0FCECDF82900CDF82D10CDF8312032
:104A1000CDF8353033788DF839304FF4D37BCDF87D
:104A20004CB0CDF800803B465246052128461CF08C
:104A3000E7F9CDF80090374B4FF4947205212846E2
:104A40001CF0DEF920238DF82830334E0FCECDF840
:104A50002900CDF82D10CDF83120CDF83530337840
:104A60008DF839304FF47466129641F20E19CDF874
:104A70004C90CDF800803B465A46052128461CF054
:104A8000BFF90096254B4FF4E772052128461CF02C
:104A9000B7F940238DF82830214E0FCECDF82900EC
:104AA000CDF82D10CDF83120CDF8353033788DF894
:104AB00039304FF48046129645F236141394CDF8EF
:104AC00000803B464A46052128461CF099F900968D
:104AD000144B41F23612052128461CF091F9FF23B0
:104AE0008DF82830012300933B46224605212846B5
:104AF0001CF086F90C4801F07DFF15B0BDE8F08F81
:104B00004849021068490210F016021000000840DF
:104B10008049021090CA002094490210C44000202D
:104B2000A849021014500020BC49021070B5A2B070
:104B300001F020FF40B12D4801F05CFF2C4801F04E
:104B400059FF0026344621E02A4801F053FF4FF474
:104B50008071294801F04EFF22B070BDC4F5802558
:104B60003146264801F046FF2146254801F042FF24
:104B7000AA0A4FF48021234801F03CFFECE72248C9
:104B800002F038FE214801F035FF219CB4F5802F5A
:104B9000E2D200214FF0FF300BF05AFA28230093A5
:104BA00018AB224605211A481CF006F99DF8603022
:104BB000FF2BD3D004AD219A02920194209A009247
:104BC0000DF161021349284609F05EF9284602F00A
:104BD00011FE721C9DF86030002BD0D07F2B01D0CD
:104BE0001646CFE70C4802F005FECBE7F02C02108A
:104BF0009C210210DC490210184A0210682D021094
:104C0000A02D0210DC2D02103C2D02104493021046
:104C100000000840E8210210542D021030B585B084
:104C200004460D46FCF728FEF0B1601E05281BD88F
:104C3000DFE800F0031C334C727802A801F068FE34
:104C40009DF80B3000939DF80A309DF809209DF8DF
:104C50000810374801F0CEFE9DF80A10C1F382011A
:104C6000CA01344801F0C6FE05B030BD324B9D424A
:104C70000DD005F58053314A1360304B1A68294630
:104C80002F4801F0B7FE284601F0F0FDECE72B4B72
:104C90001D6805F580521A60EFE72A4801F0AAFE68
:104CA000002001F0CDFD0146274801F0A3FE0020C1
:104CB00001F0C6FD44F24103984203D02348FCF7BB
:104CC000B1F9D1E7224801F095FECDE7214801F086
:104CD00091FE214801F08EFE4FF47A7400214FF0CE
:104CE000FF300BF0B5F9022006F070FE002003F053
:104CF00032FE50B9013CF1D1184801F07BFE01F0C1
:104D000017FE174801F076FEAEE7002003F028FEFC
:104D1000144801F06FFEA7E7134801F06BFEFFF7A0
:104D20002DFEA1E7114801F065FEFFF7FFFE9BE7AE
:104D3000444A02106C4A02104342414088CA002093
:104D40000C490210904A0210B44A0210C4400020DC
:104D5000CC4A0210F84A0210344B0210984B021051
:104D6000B04B0210804B0210C04B0210E04B0210FF
:104D7000F0B5ADF20C4D06460122014602A80FF037
:104D800029FE074628B93146BAA817F01DF80024B5
:104D90000EE014F017FE02463B463146684801F02B
:104DA00029FE41E0BAAD285D15F064FD28550134B7
:104DB000BAA817F01DF9A042F4D8069A3146614806
:104DC00002F018FD2F21304616F02AFC00B1461CD7
:104DD000C2AC02AA4FF48071204610F068FD204654
:104DE00017F006F9012808D92146574801F002FEBC
:104DF0003146564801F0FEFD28E0554801F0FAFD25
:104E0000F6E7384614F0DEFD02463B46314651488F
:104E100001F0F0FD204610F03FF902A810F03CF937
:104E200031464D4801F0E6FD0DF20C4DF0BD702805
:104E30000CD072282BD1C2AC4849204616F066FB34
:104E4000002323542146464802F0D4FC1098119ABE
:104E50000699079B9A4208BF8842DED000214FF096
:104E6000FF300BF0F5F802AC22464FF48071C2A877
:104E700010F01DFD9DF83930002BC2D19DF80803BC
:104E80005228D8D0D3D80028E0D05028DED015F052
:104E9000E9FC0028DAD0C2AD002409E0023501A8FF
:104EA00043701022002115F0C7FC9AAB185501344D
:104EB0002B78A3B10D2B12D00A2B10D00022ADF805
:104EC00004208DF806202A788DF804206B780D2BAD
:104ED000E4D842F20142DA4012F0010FDED00025A0
:104EE00005E09AA929441F4806F03EFF0135AC426F
:104EF000F7DC01F09DFB01F03FFB21461A4802F070
:104F000079FC002505E09AAB595D184802F072FC67
:104F10000135AC42F7DC164801F06CFD00214FF082
:104F2000FF300BF095F8002003F002FD582801D067
:104F300078288BD131460F4801F05CFD6DE700BF4A
:104F400078200210F84B02101C4C0210584C021032
:104F5000304C02108C4C0210044D021014C8021088
:104F6000B04C02106C910020BC4C0210D44C0210CA
:104F700070500210DC4C02102DE9F04393B006464D
:104F80000023ADF844308DF8463017F031F807466D
:104F90003378222B07D0272B40F04282012800F0E3
:104FA0000C810124D5E100238DF8243070238DF885
:104FB000253001250224C5E005F10108474540F2EE
:104FC000BF8016F80890484615F04CFC002861D0C8
:104FD000A9F13003DBB2A9F14102D2B2052A02D80D
:104FE000A9F13703DBB2A9F16102D2B2052A02D8D6
:104FF000A9F15703DBB21B015FFA83F804F1480300
:105000006B4403F8248C0235AF4240F29A8016F8C4
:105010000590484615F026FC002800F09280A9F182
:105020003003DBB2A9F14102D2B2052A02D8A9F1BC
:105030003703DBB2A9F16102D2B2052A03D8A9F184
:1050400057095FFA89F303F00F0348EA030804F1F4
:1050500048036B4403F8248C631C1F2B0ED91C4699
:10506000102C00DD10249DF82530A21E02F00F0246
:1050700013438DF825300122002377E0B8F10F0F9C
:1050800006D804F148020DEB0204202204F8242C77
:105090001C4656E0B9F1530F26D013D8B9F1270FAB
:1050A00045D0B9F12B0F28D0B9F1230F08D104F165
:1050B00048036B441D2203F8242C0134454640E08C
:1050C00045463EE0B9F1730F28D0B9F1740F1CD0FA
:1050D000B9F15C0F47D104F148036B445C2203F83B
:1050E000242C013445462CE004F148036B447E2215
:1050F00003F8242C0134454623E0802204F14803C0
:105100006B4403F8242C45461BE004F148036B4430
:10511000602203F8242C0134454612E004F14803D0
:105120006B44202203F8242C0134454609E004F1A5
:1051300048036B44272203F8242C0134454600E041
:1051400045460135BD428BD2735D5C2B3FF434AFD5
:10515000222B85D004F148026A4402F8243C013431
:105160001F2CEED97CE74546EBE7013294420BDD7C
:1051700002F14801694411F8241C0B449BB2FF2B37
:10518000F3D9DBB20133F0E78DF8243000250CE0D1
:1051900005F148036B4413F8243C8DF847300DF1BA
:1051A0004701B94806F0E0FD0135AC42F0DC01F002
:1051B0003FFA01F0E1F90120AFE014238DF824302B
:1051C0000C238DF825304FF050435B6813F4003FFB
:1051D00014D000214FF0FF300AF03AFF002003F016
:1051E000BAFB18B9142006F0F1FBECE7002003F03D
:1051F0009FFBA64801F0FEFB00208EE014238DF8F3
:1052000047300DF14705A04C2946204606F0ACFD7D
:105210000C238DF847302946204606F0A5FD01F005
:1052200007FA01F0A9F9012077E0B8F1220F1AD3AB
:10523000A8F12203092B16D8DFE803F01330151567
:105240001511151515075C222BE07F2229E060223D
:1052500027E0202225E00C2223E00D2221E0272256
:105260001FE022221DE0404615F0FCFA0246C0B1C4
:10527000A51CAF4214D9745D204615F0F3FA02461E
:1052800078B18DF844808DF845401022002111A896
:1052900015F0D2FAC2B204E07E2202E01D2200E044
:1052A00000227B4B13F812108DF8241003EB4203FD
:1052B0005B788DF825302C460EE0202B00F08F8295
:1052C000272B1CD0724A12F813108DF8241002EB11
:1052D000430253788DF825304FF050435B6813F448
:1052E000003F1DD000214FF0FF300AF0B1FE00203A
:1052F00003F031FB50B9142006F068FBECE71423EF
:105300008DF824300C238DF82530E5E7002003F0DC
:105310000FFB5E4801F06EFB002013B0BDE8F08388
:105320009DF824308DF847300DF14708564D414621
:10533000284606F019FD9DF825308DF84730414686
:10534000284606F011FD01F073F901F015F9254624
:105350006C1CBC4262D2335D5C2BAED1651CAF428B
:10536000F6D916F80580B8F12B0F7FF65EAFB8F1CD
:10537000750F3FF678AFB8F1530FFFF474AFA8F193
:105380005303222B3FF66FAF01A252F823F000BF68
:1053900099520010675200106752001067520010B7
:1053A00067520010675200106752001067520010D9
:1053B00067520010475200106752001067520010E9
:1053C00067520010675200105B52001067520010C5
:1053D00067520010675200106752001067520010A9
:1053E0006752001067520010675200106752001099
:1053F0006752001067520010675200106752001089
:105400006752001067520010675200106752001078
:10541000535200104F5200105752001001207CE7E9
:105420002022314601A816F0C9F8002407E015F043
:1054300021FA04F148036B4403F8440C013404F1ED
:1054400048036B4413F8440C0028F0D1002435E0E5
:105450003146104801F0CEFA00205EE704EB440329
:1054600004EB830408340C4B1C44074DA11C284654
:1054700006F07AFCE11C284606F076FC01F0D8F82C
:1054800001F07AF8012048E76C910020184D0210D5
:1054900074E20310484D021074E3031004EB44015E
:1054A00004EB81010831D04B19440231CF4806F09A
:1054B0005BFC01F0BDF801F05FF801348B2C6DDC72
:1054C00004EB440304EB8303C749194401A816F015
:1054D0009DFB0028F1D104EB440204EB8202C24B95
:1054E00013441B7B062B54D801A252F823F000BFB3
:1054F000515400105D5400109D5400100D550010C3
:1055000039550010655500107155001004EB440327
:1055100004EB83040834B44B1C44B44DA11C28464E
:1055200006F022FCE11C284606F01EFC01F080F883
:1055300001F022F80120F0E604EB440304EB8304BD
:105540000834A94B1C44A94DA11C284606F00CFCAC
:10555000E11C284606F008FC01F06AF801F00CF89E
:105560000120DAE63146A24801F044FA0020D4E6F0
:1055700004EB440304EB830108319B4B19440231D3
:105580009A4806F0F1FB01F053F800F0F5FF012016
:10559000C3E63146974801F02DFA8EE73378452B64
:1055A0000DD82D2BC0F01D812D3BDBB29248D84089
:1055B00010F001003FF4B1AE0024254667E0652BF2
:1055C00002D10024254662E00020A6E600238DF8E3
:1055D00047304FF050435B6813F4003F47D0002141
:1055E0004FF0FF300AF034FD002003F0B4F9B0BBF7
:1055F000142006F0EBF9ECE781238DF84730E8E75B
:1056000042238DF84730E4E7C3238DF84730E0E7C5
:1056100024238DF84730DCE7A5238DF84730D8E701
:1056200066238DF84730D4E7E7238DF84730D0E77D
:1056300018238DF84730CCE799238DF84730C8E719
:105640005A238DF84730C4E7DB238DF84730C0E795
:10565000DB238DF84730BCE70134012517E000203B
:1056600003F066F9654801F0C5F9002055E60DF133
:1056700047015E4806F078FB00F0DAFF00F07CFF9F
:10568000012300E000230BB1002D7DD10134BC4289
:1056900080F0A380335D2D3B382BF3D801A252F864
:1056A00023F000BF595600104156001085560010D7
:1056B000CD550010F9550010015600100956001084
:1056C00011560010195600102156001029560010CE
:1056D00031560010395600108556001085560010BE
:1056E000855600108556001085560010855600100E
:1056F00085560010855600108556001085560010FE
:105700008556001049560010855600108556001029
:1057100085560010855600108556001085560010DD
:1057200085560010855600108556001085560010CD
:1057300085560010855600108556001085560010BD
:1057400085560010855600108556001085560010AD
:10575000855600108556001085560010855600109D
:10576000855600108556001085560010855600108D
:10577000855600108556001085560010855600107D
:1057800085560010515600103C238DF847304FF0DD
:1057900050435B6813F4003F14D000214FF0FF30FA
:1057A0000AF056FC002003F0D6F818B9142006F0D1
:1057B0000DF9ECE7002003F0BBF8104801F01AF9EE
:1057C0000020AAE50DF14701084806F0CDFA00F0E7
:1057D0002FFF00F0D1FE002558E701209DE50120B4
:1057E0009BE5002099E500BF74E303106C91002055
:1057F000484D0210684D0210FB1F0001184D0210A9
:1058000010B5B0B0394B5B885BB1014610AC80225B
:10581000204615F0D3FE00238DF8BF3023782BB936
:1058200058E0334801F0E6F854E001342378202BA7
:10583000FBD0222B01D000233EE001348DF8003054
:10584000012306E0013403F1C001694401F8C02CD2
:10585000013322781AB1222A01D03E2BF2D9222A12
:105860001BD0C0336B44002203F8C02C694621488A
:1058700001F0C0F84FF050435B6813F4003F2BD0A9
:1058800000214FF0FF300AF0E3FB002003F063F843
:10589000D0B9142006F09AF8ECE7013403F1C00106
:1058A000694401F8C02C0133DBE7013403F1C00186
:1058B000694401F8C02C01332278002AD1D0202A73
:1058C000CFD03E2BF1D9CCE7002003F031F80A48C5
:1058D00001F090F830B010BD6846FFF74DFB00288E
:1058E0009CD16946054801F085F8F3E790CA00208D
:1058F000884D0210D44D0210184D0210F84D0210C0
:1059000030B585B0544B5B8843B11446431E042B1D
:1059100007D8DFE803F00810292D75004F4801F083
:1059200069F805B030BD4E494E4801F063FF4E485E
:1059300001F060F8F5E74D4801F05CF8E023ADF8C0
:105940000E300DF10E054A4C2946204606F002FAAB
:105950008623ADF80E302946204606F0FBF900F00C
:1059600067FE00F009FEDCE70846FFF701FAD8E71A
:10597000404801F03FF8002403E03F4801F03AF8C6
:1059800001348B2CCDD804EB440104EB81013B4B5B
:1059900019440D7BCB7A00938B7A2A46384801F064
:1059A00029FF062D28D801A353F825F07B590010B4
:1059B000C9590010D1590010D9590010E1590010EF
:1059C000E9590010F15900102E4801F013F8D7E7FB
:1059D0002D4801F00FF8D3E72C4801F00BF8CFE782
:1059E0002B4801F007F8CBE72A4801F003F8C7E796
:1059F000294800F0FFFFC3E7284800F0FBFFBFE79E
:105A00000CB123781BB9264800F0F4FF89E7ECB10C
:105A10002378DBB12349204615F018FE0546A8B1CE
:105A20000022114614F008FF8DF80D00C1B20A469D
:105A30001D4800F0DFFF0DF10D010D4806F094F94F
:105A4000284616F0D5FA01300444E0E700F0F0FDF6
:105A500000F092FD65E700BF90CA0020884D02105B
:105A6000F4560210204E0210404E02106C4E0210EE
:105A70006C910020904E0210D84E021074E3031077
:105A8000B44E0210EC4E0210104F02102C4F0210B8
:105A9000444F02106C4F0210904F0210B04F021092
:105AA000CC4F021044930210E44F021010B504468C
:105AB0000146084808F052FCA4F13003092B02D833
:105AC0001C46054B1C60044B1968044808F046FC52
:105AD00010BD00BF1C500210F430002048500210CE
