:020000041000EA
:10000000002008205D0100101B0100104D8C011024
:100010001101001011010010110100101101001058
:100020001901001019010010190100101F01001022
:10003000D18B0110190100102101001023010010C3
:100040001101001011010010110100101101001028
:100050001101001011010010110100101101001018
:100060001101001011010010110100101101001008
:1000700011010010110100101101001011010010F8
:1000800011010010110100101101001011010010E8
:1000900011010010110100101101001011010010D8
:1000A00011010010110100101101001011010010C8
:1000B00011010010110100101101001011010010B8
:1000C00011010010110100101101001011010010A8
:1000D0001101001011010010110100101101001098
:1000E0001101001011010010110100101101001088
:1000F0001101001011010010110100101101001078
:100100001101001011010010110100101101001067
:10011000EFF30580103800BE00BE00BE00BE00BE7A
:1001200000BE00BEF2EB887100D7031030D7031079
:10013000A001001090A31AE7D3DEFFFF42012110B7
:10014000FF010000A8130400793512AB4FF0000046
:100150001E49086006C881F3088810474FF05040D8
:10016000006810B14FF00000F2E70DA40ECC00299A
:1001700002D000F012F8F9E71549164A002000E015
:1001800001C19142FCD11449884714498847144958
:10019000884700BEFDE701C901C29A42FBD3704700
:1001A00030D7031088010020383F0020E0140410ED
:1001B0000000082000000820E014041000100820AF
:1001C00000100820000000007047000008ED00E06B
:1001D000383F002014B30020EDD600106503001056
:1001E000B1D60010F8B500BF064B0749C91A8910EF
:1001F00048BF0131491003D0044B0BB101481847E7
:10020000704700BF383F0020383F0020000000004A
:1002100008B5054B1BB105490548AFF30080BDE8A3
:100220000840FFF7E1BF00BF000000003CB2002023
:100230000802021070B584B005460C4601AB02AA54
:1002400003A90BF0CBFA18B954B9204604B070BD1D
:100250000646019A029903980BF08EFA3446F4E7A9
:100260002946014809F0BCFF08020210002203E001
:10027000002120F8121001325D2AF9DD44F241021A
:10028000A0F8B8200022C2830284428402808280C7
:10029000A0F8A020A0F8A220A0F8A420A0F8A620F2
:1002A000A0F8A820A0F8782001228287C287A0F8B1
:1002B0004620A0F85020A0F8522041F28832A0F841
:1002C00054202022A0F856204FF05042526812F4D9
:1002D000003F01D00020704700B583B0FE2200929D
:1002E00003464FF4E832052103481FF045FF012083
:1002F00003B05DF804FB00BF000008404FF050431E
:100300005B6813F4003F01D00020704700B583B054
:10031000FE23009303464FF4E832052103481FF003
:100320002BFF012003B05DF804FB00BF0000084074
:100330004FF050435B6813F4003F01D0002070473A
:1003400000B583B0FE23009303464FF4E832052145
:1003500003481FF0EDFE012003B05DF804FB00BF71
:100360000000084000B583B001214348FFF762FF59
:100370000DF008FB08F0E4FC01F018FB08F000FDAC
:100380004FF47A700AF0DCFE192008F0CDFC4FF42F
:100390007A700AF0D5FE192008F0C6FC01231C462D
:1003A0008DF8043000208DF8050001A90EF03EFD07
:1003B00007F050FF1C2344EC403005F025FF09F006
:1003C000AFF908F0F5FE01F0F1FA2C4C2046FFF7EA
:1003D000AFFFB4F8B82044F241039A4244D107F089
:1003E0008FFF08F097FD08F04BFD24480123C383DD
:1003F00003848380FFF782FF06F0AAFE01F020FB52
:1004000019234FF0000242EC403005F059FE09F08C
:1004100037FC0EF085F81A480EF01EF905F0C6FA02
:1004200005F098F90EF044F8164B02221A60A3F575
:1004300000531B6883F4804303F47043124A136033
:1004400001F0B4FA05F046FE00214FF0FF300FF046
:10045000DBF806F05DFE05F0D7F807F0BFFF08F007
:1004600063FD09F01BF8EDE72046FFF7FFFE20468D
:10047000FFF744FFB3E700BF48E8010018AD0020D4
:100480003D06002000200A4000100A4070B50446D6
:100490000D4616460023DB8A002242E800F212F4E1
:1004A000800F0BD1102144F24F10984703460D4A9C
:1004B000D2F8142842B96FF0120070BD042144F242
:1004C0004F1098470346F2E7BFF35F8F3246294645
:1004D00020469847BFF35F8F024B0022C3F81428D1
:1004E000EBE700BF00000E4010B588B004464FF4A3
:1004F000806220216846FFF7C9FF41B251B900234D
:100500001F2B13DC03F120026A4412F8202C2AB9B5
:100510000133F5E7214805F05DFFF0E74FF4826114
:100520001F4805F057FF002008B010BD002305E06C
:1005300003F12001694401F8202C01331F2B09DC51
:10054000E25C002AF4D1002103F120026A4402F89F
:10055000201CF2E74FF4413220216846FFF796FF56
:1005600041B289B921460F4805F034FF4FF40132FA
:1005700020216846FFF78AFF41B251B969460A480F
:1005800005F028FF0120CFE7084805F023FF0020F1
:10059000CAE7074805F01EFF0020C5E73C0202102D
:1005A0007C020210F002021040030210B802021096
:1005B0001803021010B5A0B004464FF48062402129
:1005C0000DEB0100FFF762FF41B209B9002319E00A
:1005D000144805F0FFFE002022E05A0020A901EB9C
:1005E000430111F8400C03F18001694401F8800CCB
:1005F00081326A4412F8400C03F181026A4402F825
:10060000800C02331E2BE8DD002306E003F180029C
:100610006A4412F8802CE25401331F2BF6DD0120CE
:1006200020B010BD5803021010B54FF4FA740BE05F
:1006300002200AF085FD013C002007F03FFD00216B
:100640004FF0FF300EF0E0FF002CF1DC10BD000099
:1006500070B5FFF7E9FF00244FF4801516E02A4635
:1006600021460C4805F0B6FEFFF7DEFFEFF31083DE
:1006700072B6094E33604FF4801128461FF070FDAA
:10068000336883F3108805F580150134022CE6DD0C
:1006900070BD00BF900302100C740020034601449B
:1006A000B1F5401F0ED80A48006810F803C018467C
:1006B0001344994202D9BCF1FF0FF4D0BCF1FF0FF3
:1006C00002D07047002070474FF0FF30F9E700BFBD
:1006D0003C31002030B5C1B0012219490020FFF79C
:1006E000DDFFB0F1FF3F25D1164805F073FE4FF452
:1006F0008072FF2168461AF01FF841258DF80050DE
:100700001E2211490DF101001AF012F900238DF893
:100710001F30022308934FF48072099240238DF812
:1007200028308DF8295069464FF480101FF0CCFC1A
:1007300041B030BD0146054805F04CFEF8E700BF6A
:1007400000FF2F00C8030210F0030210080402107B
:10075000034B1B78412B01D00020704701207047CC
:1007600000001010F0B5C1B0054600F58057B7F590
:10077000401F39D94FF4401736E0204B1B685A5DB3
:100780001F4901A820440CF0FFFE03340135013657
:100790000F2EF2DD103D01AB19191A4A108892781C
:1007A00018538A700234002607E0174901A8204434
:1007B0000CF0EAFE0134013501360F2E09DC0F4B37
:1007C0001B685A5DA2F12003DBB25E2BEDD92E220D
:1007D000EBE700214FF0FF300EF016FF01A90B48A8
:1007E00005F0F8FDBD4207D22A46094901A80CF0E0
:1007F000CBFE00260A24CBE741B0F0BD3C310020FF
:10080000D82902108C28021054040210DC2802108F
:100810004C0402102DE9F843044601F128074FF07B
:100820000008C146B4F5401F19D204F1805505F502
:1008300080152E7800214FF0FF300EF0E5FE7F2E60
:1008400010D0FF2E02D06EB16C6AEBE7C4F54013F6
:10085000BB421CD943451DD3B9F1000F1CD04846FB
:10086000BDE8F8836B6A1A1B974206D8B8F1000FEF
:1008700005D0904507D81C46D4E71C46D2E79046E1
:10088000A1461C46CEE79046A1461C46CAE74FF05B
:10089000FF39E4E7A146E2E7A146E0E700E0586A55
:1008A000B0F5401F0BD200F1805303F580131A7886
:1008B000FF2A04D0412AF2D94FF0FF307047B0F53B
:1008C000401F00D870474FF0FF307047F8B507461B
:1008D000002500E0656AB5F5401F0FD205F1805490
:1008E00004F580142678FF2E0CD03946601C19F0D0
:1008F00071FF0028EED1002EECD001E04FF0FF3563
:100900002846F8BD4FF0FF35FAE700002DE9F04723
:10091000C0B004460D46154F396820F0FF094FF46A
:10092000807A5246494468461AF06CFCE3B20DF8EE
:100930000350FFF779FEEFF3108372B6DFF83080D3
:10094000C8F800305246694609F580101FF0BCFB1C
:10095000D8F8003083F310883B68185DA84214BFB4
:100960000020012040B0BDE8F08700BF3C310020EE
:100970000C7400202DE9F04FADF5005D83B020F040
:10098000FF0404F5801421F0FF0505F5801824F418
:100990007F6626F00F0628F47F6727F00F0707F51C
:1009A000805704F47064A7EB080B06F180530193A1
:1009B00005F1805505F580150DF5805A0AF1080AF4
:1009C0004FF48052FF21504619F0B6FE0DF1080990
:1009D0004FF48052FF21484619F0AEFE224601999D
:1009E00050461AF00FFC5A46294648461AF00AFCAF
:1009F000FFF71AFEEFF3108372B60C4D2B60B91B94
:100A000030461FF0ADFB2246514630461FF05CFBDE
:100A10005A46494640461FF057FB2B6883F310881F
:100A20000DF5005D03B0BDE8F08F00BF0C74002031
:100A300038B520F47F6424F00F04FFF7F5FDEFF3E1
:100A4000108372B6054D2B604FF4805120461FF085
:100A500087FB2B6883F3108838BD00BF0C7400201F
:100A6000F8B50D46164620F0FF04FFF7DDFDEFF365
:100A7000108372B6054F3B603246294620461FF070
:100A800023FB3B6883F31088F8BD00BF0C74002083
:100A900003460144B1F5800F0ED80A48006810F8EB
:100AA00003C018461344994202D9BCF1FF0FF4D099
:100AB000BCF1FF0F02D07047002070474FF0FF30AD
:100AC000F9E700BF383100200022134600E0013270
:100AD00040F6FE718A420BDC0749096831F81210B2
:100AE0000B44B3F5806FF2DBC3F309030133EEE788
:100AF0005B42C3F3090070477833002008B505F066
:100B00005DFA08BD08B5074A1368B3FA83F35B09B9
:100B1000136023B1044905480CF0A0FF08BD044947
:100B2000F9E700BF84330020DC5202105C0402109D
:100B30005804021008B5074A1368B3FA83F35B0937
:100B4000136023B1044905480CF088FF08BD04492F
:100B5000F9E700BF80330020DC5202106C04021061
:100B60005804021008B5074A1368B3FA83F35B0907
:100B7000136023B1044905480CF070FF08BD044917
:100B8000F9E700BF7C330020DC520210840402101D
:100B90005804021008B5094A136803F59C5308333A
:100BA0001360074A934202DD044B00221A60034B94
:100BB000196804480CF052FF08BD00BFACB2002019
:100BC000A08601009804021008B503480CF046FF07
:100BD000024B04221A7008BDB80402100FB30020A3
:100BE00008B5064A137883F00103137023B1044952
:100BF00004480CF033FF08BD0349F9E7FAB20020BE
:100C0000DC520210C00402105804021008B5084A51
:100C1000138883F400739BB2138013F4007F04D015
:100C2000044905480CF01AFF08BD0449F9E700BF64
:100C3000D8330020DC520210E004021058040210E5
:100C400008B5084A138883F480739BB2138013F4A9
:100C5000807F04D0044905480CF000FF08BD04491A
:100C6000F9E700BFD8330020DC5202100005021063
:100C70005804021008B5084A138883F480639BB2B5
:100C8000138013F4806F04D0044905480CF0E6FE8D
:100C900008BD0449F9E700BFD8330020DC52021038
:100CA000280502105804021008B5084A138883F476
:100CB00000639BB2138013F4006F04D0044905480D
:100CC0000CF0CCFE08BD0449F9E700BFD833002082
:100CD000DC5202104C0502105804021008B50348FB
:100CE0000CF0BCFE024B07221A7008BD7005021002
:100CF0000FB3002008B505480CF0B0FE04480CF016
:100D0000ADFE044B06221A7008BD00BF7805021024
:100D1000A40502100FB3002008B54FF050435B68E4
:100D200013F0807F04D0034903480CF097FE08BD00
:100D30000249F9E7DC520210D005021058040210F3
:100D400008B506480CF08AFE4FF47A700AF0F8F9FC
:100D5000012108460AF040FE08BD00BFFC05021054
:100D600008B506480CF07AFE4FF47A700AF0E8F9FC
:100D700000214FF000700AF078FE00BF1C06021040
:100D800008B508F023FE08BD08B5044A1388C3F36C
:100D90000D03138002480CF032FE08BDD83300204A
:100DA0004C06021008B5054A13886FEA43436FEA00
:100DB0005343138002480CF022FE08BDD8330020B4
:100DC0006806021008B5054A1388C3F30D0343F4FF
:100DD0008043138002480CF012FE08BDD833002077
:100DE0008806021008B5074A138843F4805313801D
:100DF000054B02221A6005F0E1F804480CF0FFFDF3
:100E000008BD00BFD833002028B20020A806021079
:100E100008B5074A138843F400531380054B022298
:100E20001A6005F0CBF804480CF0E9FD08BD00BFDE
:100E3000D833002028B20020C406021008B50448A8
:100E40000CF0DDFD034904480CF008FE08BD00BFAE
:100E5000E4060210C90A0010FC06021008B50A4890
:100E60000CF0CDFD094B01221A7009480CF0F6FD7B
:100E7000084B1968002903DB07480CF0EFFD08BD9B
:100E800006480CF0EBFDFAE71C0702100BB300203C
:100E90004807021074330020940702106C070210F8
:100EA00008B50A480CF0ABFD094B02221A7009483C
:100EB0000CF0D4FD084B1968002903DB07480CF03F
:100EC000CDFD08BD06480CF0C9FDFAE7B0070210D9
:100ED0000BB30020DC0702107433002094070210CB
:100EE0006C07021008B514480CF089FD13480CF08B
:100EF00086FD134B1B7873B1124A116800290ADB77
:100F0000012B12D0022B0CD10F4B01221A700F486B
:100F10000CF0A4FD05E00C4B00221A700C480CF0FC
:100F20009DFD0C480CF06BFD08BD074B01221A70AB
:100F300009480CF093FDF4E7000802102C08021099
:100F40000BB300207433002007B3002010090210F7
:100F50006408021060090210BC08021010B50B48AA
:100F60000CF04DFD0A4C237883F001032370094BEC
:100F7000196809480CF072FD237823B10749084825
:100F80000CF06CFD10BD0749F9E700BFBC09021069
:100F900002B3002074330020DC090210DC5202107E
:100FA000000A02105804021010B50B480CF027FD7F
:100FB0000A4C237883F001032370094B1968094810
:100FC0000CF04CFD237823B1074908480CF046FD8E
:100FD00010BD0749F9E700BF180A021003B300204B
:100FE00074330020DC090210E0530210380A0210AA
:100FF000B438021008B502480CF001FD08BD00BF6E
:10100000480A021008B503480CF0F9FC05F01AF87C
:1010100008BD00BF580A021010B539480CF0EFFCAB
:10102000384B1B78002B68D0374938480CF016FD38
:10103000374C218837480CF011FD2188C90B364800
:101040000CF00CFD2188C1F3803134480CF006FD12
:101050002188C1F3403132480CF000FD2188C1F3F2
:10106000003130480CF0FAFC2188C1F3C0212E4831
:101070000CF0F4FC2188C1F380212C480CF0EEFC2C
:101080002188C1F340212A480CF0E8FC2188C1F3F3
:10109000002128480CF0E2FC2188C1F3C011264849
:1010A0000CF0DCFC2188C1F3801124480CF0D6FC44
:1010B0002188C1F3401122480CF0D0FC2188C1F3F3
:1010C000001120480CF0CAFC2188C1F3C0011E4861
:1010D0000CF0C4FC2188C1F380011C480CF0BEFC5C
:1010E0002188C1F340011A480CF0B8FC218801F0B6
:1010F000010118480CF0B2FC10BD174995E700BF7C
:10110000181E0210FAB20020DC5202108C0A0210E3
:10111000D8330020A00A0210B40A0210E40A021018
:10112000300B02105C0B0210900B0210BC0B021073
:10113000E40B0210080C0210340C0210640C0210B4
:10114000A80C0210D80C0210080D0210380D021065
:10115000640D0210980D02105804021010B50E48CC
:101160000CF04DFC0D480CF079FC0D480CF076FCB1
:1011700000240AE00B4904EB44029300CA18926869
:10118000C95C09480CF06AFC01340E2CF2DD0748FA
:101190000CF035FC10BD00BFCC0D0210EC0D0210A0
:1011A000140E021040310020400E02104C0E0210AE
:1011B00008B504F0CFFA08BD70B51C480CF01FFC50
:1011C00000260BE02A191A4B1B6833F81210194835
:1011D0000CF044FC01340F2CF4DD0136072E06DC44
:1011E0003501294614480CF039FC0024F3E70A20A5
:1011F0000CF0F6FBF8260BE02A190D4B1B6833F8B0
:1012000012100C480CF02AFC01340F2CF4DD0136CE
:10121000FF2E06DC3501294607480CF01FFC002490
:10122000F3E70A200CF0DCFB70BD00BF940E021047
:1012300078330020B80E0210A80E021070B50F48C7
:101240000CF0DDFB00260BE02A190D4B1B6833F870
:1012500012100C480CF002FC01340F2CF4DD0136A6
:10126000FF2E06DC3501294607480CF0F7FB002469
:10127000F3E70A200CF0B4FB70BD00BFC00E0210F3
:1012800078330020B80E0210A80E021000B583B00B
:101290001E480CF0B4FB1E4B1B78BBB11D4A1168F5
:1012A000002913DB012B1AD0022B12D11A480CF0A3
:1012B000D5FB184B1A684FF400530093174B1B686B
:1012C0005203052116481EF033FF02E015480CF0CA
:1012D00096FB0A200CF084FB03B05DF804FB124877
:1012E0000CF0BCFB00230CE00A4A126803EB02324C
:1012F0000A4909680D48006830F8122021F81320C7
:101300000133B3F5805FEFDBE3E700BFDC0E0210D3
:101310000BB30020743300206C0F021078330020D0
:1013200000000840000F0210480F0210D0330020C8
:1013300070B5B2B00A200CF053FB002407E0144B48
:1013400053F82420214613480CF088FB0134042C68
:101350001BDC204606F0B7FE0028F0D00C4E56F8F5
:10136000242021460C480CF079FB56F82430224604
:101370000A4968460CF008F902466946204606F01C
:1013800013FF204606F09AFEE0E732B070BD00BFC2
:1013900048640310D80F0210900F0210B40F02100F
:1013A00010B50E480CF02BFB0D480CF057FB0D4808
:1013B0000CF054FB00240AE00B4904EB44029300B8
:1013C000CA189268C95C09480CF048FB0134122C19
:1013D000F2DD0A200CF004FB10BD00BFFC0F021070
:1013E000081002101C10021090320020400E021053
:1013F00010B50E480CF003FB0D480CF02FFB0D4808
:101400000CF02CFB00240AE00B4904EB440293008F
:10141000CA189268C95C09480CF020FB01340C2CF6
:10142000F2DD0A200CF0DCFA10BD00BF341002100F
:1014300054100210140E0210F4310020400E02105D
:1014400010B582B028480CF0DAFA284B1B781BB193
:10145000274B1B68002B02DA264B1B78D3B126489A
:101460000CF0FCFA214B1B78012B1AD0022B36D141
:101470001F4C21684A0321480CF0F0FA22684FF40F
:10148000005300931E4B1B68520305211D481EF09C
:1014900073FE24E0174B00221A701B480CF0AFFAC1
:1014A0001DE0134C21684A0302F1805202F500222C
:1014B00016480CF0D3FA4FF4FA6009F041FE2068A8
:1014C00040304FF4005140031EF04AFE2068403087
:1014D0004FF400520A4B196840031EF0F5FD0C480A
:1014E0000CF08DFA02B010BD801002100BB300207A
:1014F0007433002007B30020F810021034110210DA
:101500007833002000000840A41002100C110210D3
:101510005C1102102DE9F04107464FF4746200217E
:1015200019F00AF9002623E0F42406FB04F407EB83
:1015300004080025A8F83850C8F83050C8F83450CE
:10154000C8F85C5088F83A5088F8F05038343C4479
:10155000023420222946204619F0EEF81F220E4BB5
:1015600053F82610204619F0E3F988F8595001364F
:101570000F2ED9DD80233B81A7F8FC30A7F8F0318E
:10158000A7F8E4323B87A7F82C31A7F82032A7F858
:101590001433BDE8F08100BF68740310F8B5044649
:1015A00016461A46069B770006EB4600F42501FB1B
:1015B00005F505EB001021180A81235062194FF040
:1015C000010C82F8F0C0094A1A444A6008302044ED
:1015D0001F2207491944023019F0AAF9374405EBD4
:1015E00007152C44002384F82930F8BD280010107A
:1015F0000100101038B5049C02EB420E4FF0F40CC1
:101600000CFB01FC0CEB0E1E00EB0E052B810023E6
:1016100040F80E30844401238CF8F0306C600629C9
:1016200002D007291FD038BD63881B2B11D0192B7E
:10163000F7D102EB4202F42301FB03F303EB0213A5
:10164000083318441F22104B9968023019F070F9C2
:10165000E9E77346083318441F220B4B59680230E0
:1016600019F066F9DFE702EB4202F42303FB01F114
:1016700001EB0211083108441F22034B19680230A4
:1016800019F056F9CFE700BF5C740310032900D8A6
:1016900070472DE9F8430446164602EB4203F4274F
:1016A00001FB07F707EB031300EB03094FF00008FA
:1016B00040F80380A9F8088007F1380020441F2271
:1016C000094B53F82110023019F032F9274487F8FA
:1016D0005980C9F82C80C9F80480012E01D0BDE8DA
:1016E000F88387F8F080FAE768740310F8B50646C7
:1016F0000C461546B3B11946570002EB4200F423DD
:1017000003FB04F404EB0010083030441F220230C5
:1017100019F00EF92F4404EB07142644002386F831
:101720002930F8BD02EB4205F42303FB04F404EB7B
:101730000512104400238372F3E7F42303FB010333
:101740001B8913F0800F20D1F42303FB01031B8FAF
:1017500013F0800F1BD1F42303FB0103B3F86830AF
:1017600013F0800F15D1F42303FB0103B3F8983075
:1017700013F0800F0FD1F42303FB0100B0F8C83041
:1017800013F0800F09D0012070470120704701201D
:10179000704701207047012070470020704708B54E
:1017A00002EB4202F42301FB03F303EB02130344B5
:1017B0001B8913F0010F08D113F0100F07D113F498
:1017C000807F06D1FFF7B9FF00E0012008BD0120AE
:1017D000FCE70120FAE7000030B585B0044644F28A
:1017E0004103ADF80E30FFF795FE0A4D4FF47463D8
:1017F000009323461022052128461EF0BDFC02233B
:1018000000930DF10E030022052128461EF0B4FCC2
:1018100005B030BD000008404FF050435B6813F442
:10182000003F00D0704700B583B04FF4746300935D
:1018300003461022052103481EF09EFC03B05DF80C
:1018400004FB00BF000008402DE9F0411F464B1E7D
:101850000E2B3FD80646531E032B3DD88DB22D03C9
:10186000ADB2D4B205F6FE7189B222461EF06CFC10
:1018700000F03F00DFF8648018F800303B7005F698
:10188000FD71224689B230461EF05EFC00F03F003A
:1018900018F800307B702D23BB7005F6FC7189B2FF
:1018A000224630461EF050FC00F03F0018F8003091
:1018B000FB7005F6FB71224689B230461EF044FCEF
:1018C00000F03F0018F800303B7100237B710120CD
:1018D000BDE8F0810020FBE70020F9E7A8740310C1
:1018E0000F2900D9704770B582B005460E46F42224
:1018F00001FB02F2383202440232114804F06AFD60
:10190000002418E004EB44034FF0F40C0CFB06FC3D
:101910000CEB031C0CF108022A4405EB0C010B89AB
:101920004968019155F80C10009102322146054892
:1019300004F050FD0134042CE4DD02B070BD00BFA2
:10194000A8110210B41102100148024BC01A7047CE
:101950000000082014B3002000B58BB0684617F0D3
:10196000DDFEFFF7F1FF079BC01A0BB05DF804FB2B
:1019700010B500EBD070441000214FF0FF300DF097
:1019800043FE022009F0DCFB002006F002FC18B93F
:10199000013CF1D5002006E0002006F0FFFB0248E4
:1019A00004F018FD012010BDF01102102DE9F047E0
:1019B000012009F0B3FE8246022009F0AFFE814605
:1019C000032009F0ABFE8046092009F0A7FE074678
:1019D0000A2009F0A3FE06460B2009F09FFE0546EB
:1019E0000C2009F09BFE044651460E480CF036F8D8
:1019F00049460D480CF032F841460C480CF02EF8E0
:101A000039460B480CF02AF831460A480CF026F803
:101A1000294609480CF022F8214608480CF01EF827
:101A2000BDE8F087101202102412021038120210C2
:101A30004C1202106012021074120210881202106E
:101A400010B5114C20460CF009F810480CF006F8BF
:101A5000FFF77AFF01460E480CF000F8FFF77CFF15
:101A600001460C480BF0FAFF052009F051FE0A4B25
:101A7000A3FB0031890909480BF0F0FF20460BF069
:101A8000BEFFFFF793FF10BD9C120210EC12021074
:101A90003C13021058130210D34D6210741302103D
:101AA0002DE9F04F2DED068B95B0FFF77FFF01205C
:101AB00009F034FE8246022009F030FE8146032000
:101AC00009F02CFE8046092009F028FE07460A206E
:101AD00009F024FE06460B2009F020FE05460C20E6
:101AE00009F01CFE0390914B04221A60904B1B6876
:101AF00013F4807FFAD08E4B5B689BB207EE903A6E
:101B0000F8EE677A9FED8B7A67EE877A9FED8A7A97
:101B100077EEC77ADFED896A87EEA67AB3EE0BAA75
:101B20003AEE47AA052009F0F3FD854BA3FB0030F0
:101B3000800C07EE900AB8EE678AFFF705FF800A6F
:101B400007EE900AF8EE679AFFF706FF800A07EEA5
:101B5000900AB8EE679A7B4BB3F854B02C2303FB82
:101B60000BF39B0A07EE903AF8EE678A12A80CF086
:101B7000FBF800240BE004F150036B4413F8082C2D
:101B800071490DA800EB44000BF0FEFC0134072C5A
:101B9000F1D96E4804F01EFC6D4804F01BFC6D4842
:101BA00004F018FC6C4804F015FC6C4804F012FCBE
:101BB0006B4804F00FFC6B4B6B4A6C496C4804F0AB
:101BC00009FC05AC20220021204618F0B5FD204676
:101BD000FEF7F0FC002800F09F809DF81430002BE9
:101BE00040F09580634804F0F5FB634B1B78203B85
:101BF000DBB25E2B40F294805A4B5B4A5B495C48F7
:101C000004F0E8FB5D4804F0E5FB5D4C204604F081
:101C1000E1FB5C4804F0DEFB18EE100A1EF078FAD7
:101C200002460B46584804F0D5FB5146574804F08D
:101C3000D1FB4946564804F0CDFB4146554804F0D7
:101C4000C9FB3946544804F0C5FB3146534804F0FB
:101C5000C1FB2946524804F0BDFB0399514804F0EA
:101C6000B9FBF2EE027A6AEE277AB1EE047A87EED9
:101C7000878ADFED4D7A38EE278A1AEE100A1EF0B9
:101C800047FA06460F4618EE100A1EF041FACDE953
:101C9000000132463B46454804F09CFB0DA94448F0
:101CA00004F098FB204604F095FB424804F092FBB8
:101CB0000022414B414804F08DFB19EE900A1EF0C2
:101CC00027FA02460B463E4804F084FB19EE100A40
:101CD0001EF01EFA02460B463A4804F07BFB18EE53
:101CE000900A1EF015FA02460B462C210191CDF800
:101CF00000B0354804F06EFB204604F06BFB13483F
:101D000004F068FB15B0BDEC068BBDE8F08F05A9AB
:101D10002E4804F05FFB68E72D4804F05BFB64E7A6
:101D200015492C4804F056FB6FE700BF00200A401D
:101D300000000A403333533A6ABC343F2D93E13AF2
:101D400083DE1B4318AD0020CC4602109013021016
:101D5000E0130210F4130210241402107014021085
:101D6000B0140210EC140210F81402100415021042
:101D7000101502103415021000F00F108415021017
:101D8000E8120210BC150210D0150210F015021056
:101D90000C160210281602104416021060160210CB
:101DA0007C1602109816021000000042B4160210B1
:101DB000DC16021014170210004080402417021095
:101DC00044170210641702108417021054150210F1
:101DD00064150210AC15021008B503F077FD08BDBC
:101DE00008B5002006F06FF920B31749174804F032
:101DF000F1FA012006F067F9F0B11349144804F034
:101E0000E9FA022006F05FF9C0B10F49114804F069
:101E1000E1FA032006F057F990B10B490E4804F09F
:101E2000D9FA042006F04FF960B107490B4804F0D5
:101E3000D1FA08BD0A49D9E70949DFE70849E5E7CA
:101E40000749EBE70649F1E7C8170210D01702105F
:101E5000F81702102018021048180210701802100B
:101E6000CC17021070B5B2B0164804F0B3FA0024D3
:101E700007E0154B53F824202146144804F0AAFA31
:101E80000134042C1BDC204606F01DF90028F0D09C
:101E90000D4E56F8242021460D4804F09BFA56F8C2
:101EA000243022460B4968460BF06EFB0246694619
:101EB000204606F079F9204606F000F9E0E732B056
:101EC00070BD00BF50A5021048640310E018021056
:101ED00098180210B818021008B50E4804F07AFAE3
:101EE00001214FF4FA6009F077FD00214FF0FF3037
:101EF0000DF08AFB002006F04CF90028F5D0064BC7
:101F00004FF080421A60002006F048F9034804F0C0
:101F100061FA08BD0019021000B00D40441902100A
:101F200010B50F4804F056FA4FF4FA7400214FF040
:101F3000FF300DF069FB022009F002F9002006F0E5
:101F400028F930B9013CF1D100214FF0007009F0BF
:101F50008CFD002006F022F9024804F03BFA10BD87
:101F6000581902104419021010B50446B8B90F48A8
:101F700004F030FA192006F0D7FE16E021460C488E
:101F800005F086F8192006F0CFFEFA2009F0D8F8FF
:101F9000192006F0C9FEFA2009F0D2F8013C631EB0
:101FA000082BEBD9034804F015FA10BDAC19021048
:101FB000C0190210E849021008B54FF050435B68A1
:101FC00013F4003F01D1012008BD024804F002FAD9
:101FD0000020F9E7C419021008B5034804F0FAF923
:101FE00004F030F808BD00BF081A021008B5FFF76A
:101FF000E3FF00B908BD034804F0ECF903F0DEFF8D
:10200000F8E700BF2C1A021008B5FFF7D5FF00B99A
:1020100008BD034804F0DEF90248FEF727F9F7E7A8
:10202000501A021018AD002010B5FFF7C5FF70B9A7
:1020300010BD084B53F82430074A32F814202146CB
:10204000064804F0C7F901345F2CF2DDF0E7002404
:10205000FAE700BF64D5031018AD00207C1A021007
:1020600070B5C0B00446FFF7A7FFB0B3BCB3012200
:102070004FF480714FF47F20FEF70AFDB0F1FF3F6F
:102080004CD1204619F034F906464FF48072FF21F6
:10209000684618F051FB32462146684618F048FC65
:1020A00000230DF806306A462146214804F092F9D3
:1020B0004FF47F211F4804F08DF94FF48072694678
:1020C0004FF47F20FEF7CCFC1B4C21461B4804F04C
:1020D00081F921461A4804F07DF940B070BD164BD5
:1020E0001B78203BDBB25E2B04D81349154804F063
:1020F00071F9F2E71049144804F06CF908E004F1B2
:10210000805303F57F231978104804F0C1FF013490
:102110001F2CF4DD0E4804F05DF9DEE74FF47F215B
:102120000C4804F057F94FF47F20FEF781FCA8E734
:102130000C1B0210301B021000F00F106C1B021061
:102140008C1B0210D81A02109C1A0210D01A02100E
:10215000E8490210E81A021030B589B00546EC468D
:102160003C4C0FCCACE80F0094E80F00ACE8070043
:102170002CF8023B1B0C8CF8003000238DF81F302C
:102180007DB12C46284619F0B3F8042820D100224E
:10219000032A26DCA35C303BDBB2092B1DD80132BD
:1021A000F6E72D4804F016F96846FEF703FA58B131
:1021B0009DF800301BB9294804F00CF90BE0694682
:1021C000274804F007F906E0264804F003F902E086
:1021D000254804F0FFF809B030BD244804F0FAF8AF
:1021E000F9E72349684618F053FD054610B3042269
:1021F000214618F09DFB00232B7169461D4804F011
:10220000E9F81D4804F0E6F841F28830FFF7B0FB2A
:10221000A0B96846FEF768F9A0B16946174804F00E
:10222000D9F86846FEF7C6F980B169460C4804F053
:10223000D1F8D0E7124804F0CDF8CCE7114804F00B
:10224000C9F8C8E7104804F0C5F8EAE70F4804F0F9
:10225000C1F8C0E798CD0210AC1B0210E01B0210C1
:10226000181C02102C1C0210541C0210881C021096
:10227000B01C0210FC1C02101C1D0210801D02105C
:10228000B81C0210581D0210A01D0210CC1D021017
:1022900010B50D4804F09EF8002408E00B4A0C4BE2
:1022A00053F8243021460B4804F094F801341D2CD7
:1022B00008DC4FF050435A680123A3401A42EDD086
:1022C000054AECE710BD00BFF41D0210F01D02101E
:1022D000ECD40310041E0210EC1D021008B507F028
:1022E000D3FA08BD08B507F071FB08BD08B507F0C3
:1022F00035FA08BD08B507F09BFA08BD08B507F028
:1023000013FA08BD08B507F0D1FC08BD08B507F001
:10231000D3FC08BD2DE9F047ADF5805D82B00669BC
:1023200001F1805303F580131B6AB34205D00420EA
:102330000DF5805D02B0BDE8F08707461E4D0D44E7
:10234000002401940022002312F02CFAA1464FF43D
:10235000805819E016F066FD01465246174804F011
:1023600039F80020E4E70133019A93420AD202AA25
:10237000D25C1919695C8A42F5D08A431AD14FF0B0
:102380000109F0E7B61A14446EB1464500D2B046D2
:1023900002A90B1F4246384611F09EFF82460028D4
:1023A000D8D10023E0E7B9F1000F01D10120BFE748
:1023B0000220BDE70320BBE7280010101C1E0210FE
:1023C0002DE9F047ADF5955D86B006460F46012232
:1023D00001460EA811F0DAFD28B93146A6A818F07A
:1023E00073FE002518E0044616F01CFD0246234645
:1023F0003146BA4803F0EEFF002420460DF5955D06
:1024000006B0BDE8F087AEAC2C4414F8200C17F0F1
:1024100043FC04F8200C0135A6A818F069FFA84277
:10242000F1D82E21A6A818F0B5FA0446129D03464D
:102430002A463146AA4804F02BFE2F21304618F0D8
:10244000A9FA00B1461CA749204618F05FFD0028F4
:1024500000F0BE804FF00009A349204618F056FD59
:1024600008B94FF00309A149204618F04FFD08B9FB
:102470004FF004099E49204618F048FD08B94FF076
:1024800005099C49204618F041FD08B94FF006099E
:102490009949204618F03AFD08B94FF007099749C5
:1024A000204618F033FD08B94FF00809944920463A
:1024B00018F02CFD002800F09680B9F1000F00F014
:1024C0008A803046FEF702FA8046B0F1FF3F40F0C6
:1024D0008D80032F00F0D4800024022F03D1B8F1A7
:1024E000FF3F40F0D5800020FEF7D8F9B0F1FF3F64
:1024F00000F01E8129460020FEF78CF98046B0F1DD
:10250000FF3F00F01D81C0F5401305F58072934236
:10251000C0F01E8104AC8DF8109031460DF1110011
:1025200018F0D2FD0C9508F1805303F580135A6A18
:102530001B78FF2B00F014810D92012205F1280178
:102540004046FEF7ABF8B0F1FF3F40F01081AEAC73
:1025500004AECDF80080336A32780DF1110169487C
:1025600003F038FF4FF48052FF21204618F0E4F8C2
:102570000FCE0FC40FCE0FC496E8030084E803000B
:102580000EAC00220023204612F00CF903AB40F6FB
:10259000D872B8A9204611F09FFE0446002840F0EA
:1025A000F480FEF741F8AEA9A1F52B76346804F269
:1025B000271424F0FF04EFF3108772B6224608F5C3
:1025C00080101DF081FD87F310883668AE1BFBE09C
:1025D0004FF0010940E74C4803F0FCFE0EA812F052
:1025E00037F8012409E74FF009096AE7014647482F
:1025F00003F0F0FEBB1E012B3AD841460EA8FFF7B0
:1026000089FE044604282AD8DFE800F00B03291AC3
:1026100013003F4803F0DEFE0EA812F019F8022462
:10262000EBE63C4803F0D6FE0EA812F011F80324A6
:10263000E3E6394803F0CEFE0EA812F009F8DCE616
:10264000364803F0C7FE4FF0050A022C0AD0032FCC
:102650007FF443AF0EA811F0FBFF5446CDE64FF0D8
:10266000000AF2E72E4803F0B5FE4FF0060AEEE747
:102670002C4803F0AFFE0EA811F0EAFF0724BCE6D9
:10268000294803F0A7FE0EA811F0E2FF3C46B4E68D
:1026900008F1805303F580131E460DF1100E03F16F
:1026A0002007F44630687168B268F368ACE80F0040
:1026B0001036E646BE42F4D130687168AEE80300D9
:1026C000032C7FF444AF0D9A4146184803F082FE74
:1026D0000D994046FEF74EF939E700BF541E02102F
:1026E00030200210A01E0210A81E0210B01E021000
:1026F000B81E0210C01E0210C81E0210D01E02100A
:10270000D81E0210A0220210E01E02106820021043
:1027100088200210B8200210D420021010210210CC
:10272000502102108C210210BC210210E82102105D
:10273000324803F04FFE0EA811F08AFF09245CE630
:102740002F4803F047FE0EA811F082FF0A2454E63A
:102750002C4803F03FFE0EA811F07AFF0A244CE645
:1027600005F2271323F0FF0343446362E5E60146C5
:10277000254803F02FFE0D9A4146244803F02AFE17
:102780000D994046FEF7F6F8E1E616F04BFB0146E0
:1027900022461F4803F01EFE0EA811F059FF002428
:1027A0002BE6FF3424F0FF04EFF3108772B6AEADD2
:1027B0002246294608F580101DF086FC87F3108814
:1027C000A5F52B752B68F61A002E12DDAEAD4FF471
:1027D0008052FF21284617F0AFFF03AB4FF4805221
:1027E00029460EA811F078FDA04403AD2C68002CFA
:1027F000D7D10EA811F02CFF0824FEE510220210FC
:102800002C2202105422021080220210E821021011
:102810001C1E021070B5ADF53E7D05460E462C22FD
:102820000021B3A817F088FFFDF792FF68B3FF22DD
:10283000002173A817F080FF2B7833B9FF2173A80C
:1028400011F01BFF044648BB73AD2946514803F005
:10285000C1FD582200215CA817F06EFF4FF4907262
:10286000002114A817F068FF05B34B4B2A4614A9A2
:102870005CA812F09CF9044698B316F0D3FA01460E
:102880002246464803F0A6FD81E0454803F0A2FD3C
:102890004FF44061434803F09DFD78E016F0C2FA22
:1028A00001462246404803F095FD70E03F4B404A08
:1028B00040F2A7513F480AF0FFFE31466846FFF755
:1028C0007FFDBEAB03EB800353F82C2C013243F8A1
:1028D0002C2C394803F07EFD14A95CA812F050F9A5
:1028E000044614BB9DF86A30FBB100214FF0FF3065
:1028F0000CF08AFE2946684618F0E6FB684618F098
:10290000F7FC2E4B1B882DF800300DF16A0168464C
:1029100017F086FF9DF85C3013F0100FCDD00DF14D
:102920006A01274803F056FDD6E75CA812F0DFF8ED
:10293000244803F04FFDBB99234803F04BFDBA999F
:10294000224803F047FDB599214803F043FDB999AA
:10295000204803F03FFDB8991F4803F03BFDB799AD
:102960001E4803F037FDB6991D4803F033FDB499B6
:102970001C4803F02FFDB3991B4803F02BFDBD99B4
:102980001A4803F027FDBC99194803F023FD0DF503
:102990003E7D70BD64230210E8120210F423021081
:1029A000D8220210142302104023021084230210A4
:1029B0008C230210B4230210E849021018240210DC
:1029C0001C240210382402105824021088240210FB
:1029D000B8240210E824021018250210482502101D
:1029E00078250210A8250210D8250210082602100A
:1029F0003826021070B505460C461646FFF7DCFA7D
:102A000030B1012C08D021462846FFF7D9FC70BD13
:102A1000044803F0DFFCFAE731462846FFF7FAFEE8
:102A2000F5E700BF6826021030B583B0044645883C
:102A30006DBAADB2018849BA89B2374803F0CAFC11
:102A40002946364803F0C6FCE188A38803F47F4298
:102A500002EB11225BBA9BB2FF2B2BD892B2B2F5DC
:102A6000805F2FD355BB2E4803F0B4FC04F580548F
:102A7000B4F8FC0FC0F305202A49B4F8FA2FC2F3CA
:102A80000522B4F8F83FC3F30523B4F8F65FC5F3A5
:102A900005254D5D0095CB5C8A5C095C224803F0FE
:102AA00099FCB4F8FE1F49BA89B2204803F092FCA1
:102AB00003B030BD1E4803F08DFCD7E71D4803F07E
:102AC00089FCD3E7002DCED002F10043013B34F85E
:102AD00013305BBADBB200203F2B0FD80F280DDC80
:102AE00003F03F030F49C95C134B19540130531EC7
:102AF0001B1A34F813305BBADBB2EDE703F03F0387
:102B00000849CB5C0C490B54013000230B540B4893
:102B100003F060FCAAE700BFA0260210B426021052
:102B200004270210D46203106427021080270210C9
:102B3000C8260210E4260210646200202C2702102E
:102B4000F0B5C1B00746294803F044FC284803F01B
:102B500041FC284803F03EFC002428E0103CA4B2CD
:102B600001AB5919244A1088927858538A7002355B
:102B7000002608E0214901A828440AF005FD013596
:102B80000134A4B201360F2E0ADC37F8142052BAF1
:102B9000D2B2A2F12003DBB25E2BEBD92E22E9E701
:102BA00001A9174803F016FCB4F5805F1BD2002181
:102BB0004FF0FF300CF028FD2246124901A80AF020
:102BC000E3FC00260A250F2EC8DC37F8142052BA81
:102BD00092B20D4901A828440AF0D6FC053501340B
:102BE000A4B20136EFE741B0F0BD00BF9827021054
:102BF000B0270210182802108C280210540402106A
:102C0000DC28021084280210B80E021010B501EB67
:102C1000810C01F003014900C1F1080EFF2303FA02
:102C200001F2C1F106042341CCF38F0C10F80C40E3
:102C300022400A41604441780B4003FA0EF39BB2F4
:102C400013FA82F080B210BD2DE9F04782B08046C1
:102C500090F8B89201465C4803F0BCFB08F105010E
:102C60005A4803F0B7FB98F8B812594803F0B2FB82
:102C7000002739E0574803F0ADFB04E0002E76D181
:102C8000554803F0A7FB04F5805494F8213494F8D8
:102C9000225405F03F052D0105EB131505F03F0506
:102CA0004E4994F82024920894F81F0400F03F0045
:102CB00094F81D6494F81E349B0003EB961303F004
:102CC0003F03CB5C00930B5C8A5C495D444803F096
:102CD00081FB94F8221494F823349B0003EB9111A8
:102CE000404803F077FB01374F4569DA41F2444A27
:102CF0000AFB078A0AF2D924224639463A4803F0E9
:102D000069FB0AF2FD2A94F8253094F8266006F053
:102D10000F06B60106EB930694F8241003F00303A4
:102D200001EB0321314803F055FB3146304803F0F5
:102D300051FB94F8273094F82850AD0005EB93151B
:102D400094F8262003F03F031B0103EB1213DAB2C1
:102D5000120252FA85F5ADB2FF2B8BD8B5F5805F24
:102D60008CD3002E8CD0234803F034FB8BE7691EF4
:102D700089B25046FFF74AFFC0B200260EE000F0CD
:102D80003F00164B1A5C1C4B9A550136A91B89B2A1
:102D9000013989B25046FFF739FFC0B23F2801D848
:102DA0000F2EECDD00F03F000C4B1B5C12498B55E5
:102DB000013600238B552A46104803F00BFB62E7CF
:102DC00002B0BDE8F08700BF90280210A4280210CE
:102DD000B8280210C826021004270210D46203107B
:102DE0006427021080270210CC280210A0260210AF
:102DF000B4260210E426021064620020E0280210CB
:102E00002DE9F043C1B08046354918F07FF800281D
:102E100061D1344803F0DEFA41B0BDE8F0832146C9
:102E20003846FFF7F3FE02462F4901A828440AF06E
:102E3000ABFB05350134A4B201360F2EEFDD103C9B
:102E4000A4B201AB5919294A1088927858538A7054
:102E50000235002608E0264901A828440AF094FB20
:102E600001350134A4B201360F2E0BDC2146384661
:102E7000FFF7CCFEC2B2A2F12003DBB25E2BEAD98F
:102E80002E22E8E701A91B4803F0A4FAB4F5805FFD
:102E90000CD200214FF0FF300CF0B6FB2246164951
:102EA00001A80AF071FB00260A25C6E709F101090D
:102EB000B9F1000FB0DC41F2444707FB098707F284
:102EC000FD270E4803F086FA0D4803F083FA0D48FB
:102ED00003F080FADDE74FF000094C46E8E700BF59
:102EE0001829021020290210B80E02108C28021096
:102EF00054040210DC2802108428021098270210C3
:102F0000B02702101828021010B588B00138052823
:102F100006D8DFE800F003075D9194BA06F096FF4B
:102F200008B010BD0C46084618F0E2F90C2803D092
:102F3000584803F04FFAF3E703238DF80C30237859
:102F4000303BDBB21B01DBB262781344303B8DF8BF
:102F50001330A378303BDBB21B01DBB2E2781344C1
:102F6000303B8DF812302379303BDBB21B01DBB2F2
:102F700062791344303B8DF8103000228DF8112017
:102F8000A379303BDBB21B01DBB2E1790B44303B70
:102F90008DF80F30237A303BDBB21B01DBB2617A54
:102FA0000B44303B8DF80E30A37A303BDBB21B0173
:102FB000DBB2E17A0B44303B8DF80D3000920823F0
:102FC00003AA682134480BF03CFA344803F002FAB3
:102FD00003A806F0C5FF9DF812309DF814209DF857
:102FE00015102F4803F0F6F99DF80F3003F07F031A
:102FF0009DF810209DF811102A4803F0EBF99DF878
:103000000E10294803F0E6F99DF80E3013F0040F76
:103010000AD1264803F0DEF99DF90F30002B07DBBB
:10302000234803F0D7F97BE7224803F0D3F9F3E70D
:10303000214803F0CFF973E706F064FF70E703A8B7
:1030400006F08EFF0024132C0ADC04F120036B44ED
:1030500013F8142C2146194803F0BCF90134F2E7A7
:103060009DF812309DF814209DF815100C4803F0BF
:10307000B1F99DF80F3003F07F039DF810209DF803
:103080001110084803F0A6F94AE70D4803F0A2F929
:1030900046E700BF402902100C3800207C290210AE
:1030A00088290210AC290210D0290210E029021050
:1030B0000C2A0210F4290210342A0210742A021079
:1030C000882A02102DE9F04198B007460C46FDF71A
:1030D0003FFB70B3002C54D02046FDF7F7FB0546AC
:1030E000B0F1FF3F30D000F1805404F580145A480D
:1030F00003F070F9594803F06DF9214611F8012BDE
:10310000236A606A01900095554803F0C1FF237857
:10311000FBB17F2B21D0534803F05CF92378032BBC
:103120001FD0013BDBB2012B23D94F4803F052F9EA
:1031300007E04E4803F04EF94FF440614C4803F06D
:1031400049F918B0BDE8F08121464A4803F042F938
:10315000F7E7494803F03EF9F3E7484803F03AF946
:10316000EFE7474C6019FFF75FFC6019FFF7E8FCD9
:10317000E7E7434C6019FFF767FD6019FFF740FE72
:10318000DFE7354803F026F9344803F023F94FF020
:103190000008454619E0C5F540144146394803F09A
:1031A00019F92946384803F015F9A20A4FF44011DD
:1031B000364803F00FF9C4E72F4803F069FF2948A8
:1031C00003F008F9022F2AD0656AB5F5401FB8D27E
:1031D00000214FF0FF300CF017FA05F1805404F590
:1031E00080142378FF2BD6D004AE626A0292019538
:1031F000226A0092621C1A4930460AF0C5F930462C
:1032000003F046FF08F101022378002BD4D07F2B76
:1032100001D09046D3E7194803F03AFFCFE7227870
:10322000531EDBB2012B06D9032ACDD11448284402
:10323000FFF7FAFBC8E7124E2E443146144803F05C
:10324000C9F8711D134803F0C5F896F8B812124872
:1032500003F0C0F8B8E700BFC42A0210781F0210BC
:10326000C41F021024890210E01E0210D82202108E
:1032700014230210AC2A0210102B0210282B02106B
:10328000280010103C2B0210742B0210B02B0210DF
:1032900090280210A4280210B82802102DE9F04F3F
:1032A000ADB00378012B40F0CE82064690F8DB9259
:1032B000B9F10A0F07D840F25C7323FA09F313F04F
:1032C000010F40F0C68220242246002124A817F0D6
:1032D00033FA224600211CA817F02EFA22460021BC
:1032E00014A817F029FA224600210CA817F024FA96
:1032F0002246002104A817F01FFA4FF00108B8F188
:10330000030F00F3A282002535E22F2A0CD03F2ABA
:1033100040F03082013B2CAA02EB830353F8402C8F
:10332000013A43F8402C25E2013B2CAA02EB83032F
:1033300053F8202C013A43F8202C1BE2013B2CAA25
:1033400002EB830353F8602C013A43F8602C11E23E
:10335000013B2CAA02EB830353F8802C013A43F87B
:10336000802C07E2A37F002B00F0048294F81DA0BC
:10337000BAF12F0F67D0BAF12F0F6ED0BAF13F0F0D
:1033800075D0BAF13F0F7CD0BAF15F0F00F08380A7
:10339000BAF15F0F00F08A80BAF14F0F00F0908011
:1033A000BAF14F0F00F09780BAF16F0F00F09D80D7
:1033B00003F1FF3B2CAB03EB8B0353F8203C3BB1F9
:1033C0002CAA02EB8B0252F8402C002A40F09A8083
:1033D000002B40F0B2802CAB03EB8B0353F8403C46
:1033E000002B40F0B6802CAB03EB8B0353F8803CF2
:1033F0003BB12CAA02EB8B0252F8602C002A40F061
:10340000B480002B40F0CB802CAB03EB8B0353F844
:10341000603C002B40F0CF802CAB03EB8B0353F8C8
:10342000A02C002A00F0F68053420827CDF800A017
:10343000CDF804B09346CDF8088003951D46334679
:103440003E461F46C5E05A1E2CA901EB820252F8E7
:10345000407C002F8FDD013F33E15A1E2CA901EB88
:10346000820252F8207C002F00F32B8186E75A1E3F
:103470002CA901EB820252F8207C002F81DD01375C
:103480001FE15A1E2CA901EB820252F8407C002F4A
:1034900000F3178178E75A1E2CA901EB820252F83B
:1034A000807C002F7FF774AF01370AE15A1E2CA9E8
:1034B00001EB820252F8607C002F00F302816BE77F
:1034C0005A1E2CA901EB820252F8607C002F7FF774
:1034D00067AF013FF5E05A1E2CA901EB820252F8BA
:1034E000807C002F00F3ED805EE7591E2CAA02EBD2
:1034F000810252F8A07C002F7FF75AAF013742F8C3
:10350000A07CDEE00827CDF800A000E001370E2FF8
:1035100000F28D8094F81FA0524639466448FEF7A9
:103520003EF90028F2D15246791C6148FEF737F97E
:103530000028EBD1DDF800A07BE008270F2F78D81A
:10354000E27F39465A48FEF72AF9002871D0013740
:10355000F4E708270F2F6CD8E27F39465448FEF76E
:103560001EF9002865D00137F4E70827CDF800A040
:1035700000E002370E2F6DD894F81FA0524639464E
:103580004B48FEF70CF90028F3D15246791C484805
:10359000FEF705F90028ECD1DDF800A049E0082786
:1035A0000E2F46D8E27F39464148FEF7F8F800284A
:1035B0003FD00237F4E708270E2F3AD8E27F791C74
:1035C0003B48FEF7ECF8A0B30237F5E7AA4544D232
:1035D00001360BF11002964211D8B0464FF0000AA6
:1035E000B8F10F0FF2D8E27F41463148FEF7D7F825
:1035F0000028EBD10AF1010A08F10108F0E7DDF833
:1036000000A0DDF804B0DDF80880039D3B46374696
:103610001E460EE0082700E001370F2F09D8E27F91
:1036200039462348FEF7BBF80028F5D101E0DDF864
:1036300000A0BAF14F0F2DD01AD8BAF12F0F23D016
:10364000BAF13F0F3DD101372CAB03EB8B0343F8AD
:10365000407C36E0DDF800A0EBE7DDF800A0DDF807
:1036600004B0DDF80880039D3B4637461E46E0E780
:10367000BAF15F0F14D0BAF16F0F22D12CAB03EB6C
:103680008B0343F8A07C1CE02CAB03EB8B0343F8CB
:10369000207C16E02CAB03EB8B0343F8807C10E01E
:1036A00001372CAB03EB8B0343F8607C09E000BFD0
:1036B0004C630020A37F002B5CD1677F1F2F00F09D
:1036C000AB80032F40F2E98094F82130002B40F0CA
:1036D000B1804FF0130A94F822300BB14FF0000A7A
:1036E0003378012B00F0A9800F2F00F2D98094F8D5
:1036F0001FB05A4639466D48FEF751F8002840F091
:10370000D28004F12401694A0BEB4B0BF42307FB35
:1037100003F303EB0B1B9344CBF80410E17F06F19A
:103720006F4000F5700001EB410103EB01115050B7
:10373000E17F01EB410103EB01111144A1F808A065
:10374000E17F01EB410103EB0111114400278F726E
:10375000E17F01EB410103EB01111144C862E17FFC
:1037600001EB410103EB011008301044711C0230E1
:1037700017F0AAFC013596F8E032AB4260DD41F269
:10378000444405FB04F404F201343444B8F1020F5C
:103790003FF4E8ADB8F1030F8CD0B8F1010FE9D1D7
:1037A000627FA2F11003DBB20E2B55D96F2A56D8D7
:1037B000A37F082B56D8E17F002956D0042957D87B
:1037C00094F82010082956D894F82110012955D8CA
:1037D00094F82210012954D894F82310012953D8C1
:1037E0000BB11F2A53D90BB91F2A53D8002BC1D0B4
:1037F0004F2A3FF4ADAD7FF688AD5F2A3FF49EAD12
:103800006F2AB7D1013B2CAA02EB830353F8A02CFB
:10381000013A43F8A02CADE7082700E001370F2F4D
:103820003FF64FAFE27F39462048FDF7B8FF00284A
:10383000F4D146E74FF0000A4DE74AF0080A53E793
:1038400008F101085BE54FF0670948462DB0BDE877
:10385000F08F4FF06909F8E74FF06709F5E74FF08F
:103860006709F2E74FF06709EFE74FF06709ECE708
:103870004FF06709E9E74FF06709E6E74FF067099E
:10388000E3E74FF06709E0E74FF06709DDE74FF046
:103890006709DAE74FF06709D7E74FF06A09D4E71D
:1038A0004FF06809D1E74FF06809CEE74C6300207C
:1038B0002DE9F04383B006460C4615461F46FEF739
:1038C0007BFB002800F007818046731F012B40F22C
:1038D000DF8005EB4502F42304FB03F303EB021343
:1038E000AF4A13441B8913F0010F0DD12146AC4898
:1038F000FDF723FF70B9731E052B00F2EC80DFE8A3
:1039000003F00E395A7BC7C72A462146A54802F064
:1039100061FDE0E02146A44802F05CFDDBE0A04B45
:10392000F42202FB04331B8F13F0010F1DD19F48BB
:1039300002F050FD9A4C40F21713A4F8E43600232D
:10394000C4F8DC36012584F89C57994BC4F8E0365E
:103950001F22984B196804F2E66016F0E9FF204632
:10396000FDF75AFF944B9D80B5E02146934802F045
:1039700031FDB0E08A4BF42202FB04331B8F13F0BD
:10398000010F13D18E4802F025FD854C8D4B00931D
:1039900040F21713012206212046FDF72BFE204698
:1039A000FDF73AFF844B00221A8094E021468348B9
:1039B00002F010FD8FE07A4BF42202FB04331B8FE0
:1039C00013F0010F13D1804802F004FD744C7F4BBB
:1039D000009340F21713012206212046FDF70AFE4C
:1039E0002046FDF719FF744B01221A8073E021462F
:1039F000724802F0EFFC6EE03846FCF767FF804645
:103A0000B0F1FF3F26D02B4622463946704802F0DF
:103A1000E1FC08F1805606F580166E4802F0DAFCEB
:103A20006D4802F0D7FC314611F8012B336A706AF9
:103A30000190CDF80080694802F0CCFC3378032B6C
:103A40000DD03378013BDBB2012B44D8644802F03F
:103A5000C1FC40E03946634802F0BCFC3BE0624FE9
:103A600007EB0800FEF7E0FF07EB080208F128016A
:103A70005E4802F0AFFC4A4FCDF8008017232A467B
:103A800021463846FDF78AFD3846FDF7C5FED8E7E2
:103A90003846FCF71BFF0446B0F1FF3F1ED000F193
:103AA000805505F580154B4802F094FC4A4802F019
:103AB00091FC294611F8012B2B6A686A0190009449
:103AC000464802F087FC2B78032B0CD0012B4CD0FE
:103AD000022B00F0E28003B0BDE8F0833946414894
:103AE00002F078FCF7E7404D2819FEF79DFF2A19F0
:103AF00004F128013E4802F06DFC4FF00009082552
:103B000000E001350F2D12DCB9F1000F0FD1244B6D
:103B1000F42202FB05331B8F13F0010FF1D129466C
:103B20001F48FDF70AFE0028EBD1C146EAE7B9F1CC
:103B3000000F12D03A4629462E4802F04BFC062EC2
:103B40000FD0174E00941723012229463046FDF767
:103B500025FD3046FDF760FEBDE7274802F03AFC40
:103B6000B9E7264802F036FCB5E7254802F032FCFA
:103B70002846FFF793FB044663285CDDA0F165034C
:103B8000052B53D8DFE803F0030742464A4E1D4891
:103B900002F020FC9FE71C4802F01CFC9BE700BFE2
:103BA0004C630020002C02103C2C0210A82C0210A8
:103BB000ECB403105C74031018AD0020742C0210D8
:103BC000D02C0210EC940310002D0210EC740310A2
:103BD0002C2D0210C42A0210781F0210C41F0210DC
:103BE000842D0210AC2A021028001010542D02104F
:103BF000DC2D0210582E0210202E0210742E0210FE
:103C0000A02E0210B42E0210D82E0210254802F069
:103C1000E1FB60E7244802F0DDFB5CE7234802F0AB
:103C2000D9FB58E7224802F0D5FB54E7014621486A
:103C300002F0D0FB4FE7204802F0CCFB1F48FDF715
:103C4000EBFD072C24D801A353F824F0D73A001039
:103C50006D3C0010913C0010913C0010913C001014
:103C6000833C0010913C00107B3C0010144802F093
:103C7000B1FB144B01221A802DE7134802F0AAFB76
:103C800029E7124802F0A6FB0E4B01229A8022E798
:103C900021460F4802F09EFB1DE70E4802F09AFBFA
:103CA00019E700BFFC2E0210182F0210482F021037
:103CB000682F0210982F0210B42F02104C630020BE
:103CC000D42F021018AD0020043002105030021022
:103CD00084300210C030021070B506460C46FEF764
:103CE0006BF9002800F0A780012E44D0022E4FD09F
:103CF00031465848FDF721FD002874D1002C00F012
:103D00008D8004EB4402F42306FB03F303EB021360
:103D1000504A13441B8913F0010F00F08D80224696
:103D200031464C48FDF7B2FC224631464A4802F083
:103D300051FB79E0224629464648FDF7A7FC0134AD
:103D4000042C13DC04EB4402F42305FB03F303EB24
:103D50000213404A13441B8913F0010FEFD0294688
:103D60001046FDF7EAFC0028E9D1E3E701350F2D05
:103D700003DC3446E4E70425F9E7384B00221A80D7
:103D80009A803448FDF748FD354802F023FB52E0A5
:103D9000344802F01FFB042516E00134042C12DC29
:103DA00004EB4402F42305FB03F303EB0213294A5B
:103DB00013441B8913F0010FEFD0224629462548F2
:103DC000FDF764FCE9E701350F2D01DC0124E5E78F
:103DD000224B00221A809A801E48FDF71DFD2248C2
:103DE00002F0F8FA27E03146204802F0F3FA22E028
:103DF0000134042C14DC04EB4402F42306FB03F32B
:103E000003EB0213134A13441B8913F0010FEFD085
:103E1000224631460F48FDF739FCE9E70124E8E77F
:103E20003146134802F0D6FA062E0BD0072E0DD0DD
:103E30000848FDF7F1FC70BD224631460D4802F0FE
:103E4000C9FAF8E7054B00221A80F1E7034B00227C
:103E50009A80EDE74C630020F831021018AD002085
:103E6000FC30021030310210683102109C31021017
:103E7000D8310210143202102DE9F041ACB00646E0
:103E80000F46904620AC934D0FCD0FC40FCD0FC4FD
:103E900095E80F0007C4238018AC8F4D0FCD0FC4D9
:103EA00095E80F0084E80F000DF1280C8B4C0FCC27
:103EB000ACE80F000FCCACE80F000FCCACE80F0063
:103EC00094E803004CF8040B8CF8001003AC844D0C
:103ED0000FCD0FC495E8070003C42270FEF76CF8FD
:103EE000002849D0062E10D07E4BF42202FB073367
:103EF0001B8F13F0010F0FD1013E052E00F2E6805B
:103F0000DFE806F00F0F426B94CA3B1F0B2BEBD977
:103F1000754802F05FFA2FE03946744802F05AFA09
:103F20002AE005216F48FDF708FC40BB6D4C80235B
:103F3000A4F8FC340026C4F8F464012384F8B435F2
:103F40006B4BC4F8F83404F2FE451F226949284639
:103F500016F0EEFC84F81D650DF160081F22414645
:103F6000284616F0E5FC05275E48FDF755FC42465D
:103F70003946614802F02EFA2CB0BDE8F08139468E
:103F80005E4802F027FAD1E705215648FDF7D5FB38
:103F9000F0B9544C8023A4F8F0350026C4F8E86545
:103FA000012384F8A836524BC4F8EC3504F2F255DC
:103FB0001F225049284616F0BBFC84F811660DF10B
:103FC00028081F224146284616F0B2FC0627CBE7F8
:103FD00039464B4802F0FEF9DBE707214148FDF77F
:103FE000ACFBF0B93F4C8023A4F8E4360026C4F8BB
:103FF000DC66012384F89C373D4BC4F8E03604F2BC
:10400000E6651F223B49284616F092FC84F80567B6
:104010000DF10C081F224146284616F089FC07279F
:10402000A2E73946374802F0D5F9DBE74FB3394606
:104030002C48FDF782FB50B32A4C0122394620461A
:10404000FDF724FB002239462046FDF71FFB3946C9
:104050002D4802F0BFF98FE701340F2C13DC214605
:104060002048FDF76AFB0028F6D01E4D01222146AC
:104070002846FDF70BFB002221462846FDF706FBEC
:10408000EAE70424E9E7214802F0A4F974E7394695
:104090001F4802F09FF96FE739461248FDF74DFBC4
:1040A00078B9104C00230093802301223946204622
:1040B000FDF774FA4346012239462046FDF716FB08
:1040C00052E73946134802F085F955E7124802F0E5
:1040D00081F951E75034021080340210A0340210EC
:1040E000D83402104C630020383202105C320210C7
:1040F0002800101001001010343402109032021009
:10410000D432021018330210803302105C330210D4
:10411000A4330210D0330210143402102DE9F047FA
:10412000D0B00546E0B10F4601EB4102F42300FB9D
:1041300003F303EB0213BC4A13441B8913F0010F72
:1041400000F04F810146B848FDF7CAFBB74802F0BE
:1041500041F92D03AEB206F580581FFA88F8A0E1A8
:10416000B34802F037F9B34802F034F9B24802F02C
:1041700031F92E461FE004EB4403F42206FB02F261
:1041800002EB0312A84B13440B449A7A46AB5A54E1
:1041900001311F29EFDD04EB4404F42306FB03F394
:1041A00003EB0413A04A1A4446AB12893146A348D4
:1041B00002F010F901360F2E00F318810124042CAF
:1041C000F8DC31469848FDF7B8FA18B1012C01D156
:1041D0002946DEE704EB4402F42306FB03F303EB7A
:1041E0000213914A13441B8913F0010F2FD013F4CB
:1041F000807F2ED040F0918022463146904802F0D8
:10420000E9F80134DBE704EB4403F42206FB02F295
:1042100002EB0312844B13440B449A7A46AB5A5474
:1042200001311F29EFDD012CEBD104EB4402F42313
:1042300006FB03F303EB02137B4A13441B8946AAD4
:104240000092224631467F4802F0C4F8D9E7294659
:10425000E7E74EAB224631467348FDF7F5FA4FEAE1
:104260000639012C2BD01FFA89F9E3B2DFF8B881A7
:104270001F461A46494640461BF066FF824609F132
:1042800001013A4689B240461BF05EFF04EB44024E
:10429000F42306FB03F303EB021308EB030211897B
:1042A0000833434402335268039202930191009011
:1042B0004EAB52462146644802F08CF8A1E71FFA43
:1042C00089F9E3B2DFF860811F461A464946404645
:1042D0001BF03AFF824609F101013A4689B2404695
:1042E0001BF032FF04EB4402F42306FB03F303EB61
:1042F000021308EB03021189083343440233526866
:1043000004920393029101904EAB009353462246D0
:1043100031464E4802F05EF873E74FEA06394EAB7D
:10432000224631464048FDF78FFA012C2BD01FFA68
:1043300089F9E3B2DFF8F0801F461A464946404645
:104340001BF002FF824609F101013A4689B240465C
:104350001BF0FAFE04EB4402F42306FB03F303EB29
:10436000021308EB030211890833434402335268F5
:1043700003920293019100904EAB5246214634487D
:1043800002F028F83DE71FFA89F9E3B2DFF89880D8
:104390001F461A46494640461BF0D6FE824609F1A2
:1043A00001013A4689B240461BF0CEFE04EB4402BE
:1043B000F42306FB03F303EB021308EB030211895A
:1043C00008334344023352680492039302910190EC
:1043D0004EAB00935346224631461E4801F0FAFF89
:1043E0000FE70A4601461C4801F0F4FF50B0BDE853
:1043F000F0877119FAB289B20B481BF0A5FE02468C
:10440000164907A8204409F0BFF8044401350F2DD0
:10441000EFDD07AB1919124A1088927818538A7089
:104420000234002525E000BF4C630020E84902105B
:10443000F43402100835021040350210883502109D
:1044400088360210C83502104836021008360210AD
:1044500014370210D4360210543702107837021085
:104460008C280210134907A8204409F08DF8013464
:1044700001350F2D0DDC7119FAB289B20E481BF00F
:1044800063FEC2B2A2F12003DBB25E2BEAD92E2278
:10449000E8E71036B6B207A9084801F09BFFB0451F
:1044A000A4D93246064907A809F06EF800250A2467
:1044B000ADE700BF540402104C630020DC2802105A
:1044C0008428021070B504460E46FDF775FD0028DD
:1044D0003BD00546601E032834D8DFE800F0023BDD
:1044E0004C5D554801F076FF544B9B880BB1544905
:1044F00000E05449544801F06DFF504B1B880BB14C
:104500004F4900E04F49514801F064FF0424002165
:1045100000E001340F2C14DC4D4BF42202FB043379
:104520001B8F13F0010FF4D0494B02FB043393F9B6
:10453000F030002BEDDA2146464801F04BFF2946CA
:10454000E7E719B13D48FBF7D9FE70BD424801F0DD
:1045500041FFF7E7394B9B8833B9384B01229A80EA
:104560003E4801F037FFEDE7344B00229A803C488B
:1045700001F030FFE6E7314B1B8833B92F4B0122A6
:104580001A80384801F026FFDCE72C4B00221A8005
:10459000354801F01FFFD5E72D4BF42202FB06330F
:1045A0001B8F13F0010F24D0294BF42202FB06339A
:1045B00093F9F030002B21DB06F0FE01244CF423AC
:1045C00003FB014090F8F02062F07F0280F8F020B9
:1045D00001FB0333234493F8F02062F07F0283F859
:1045E000F0204A1C214801F0F5FE2046FDF714F9A1
:1045F000A8E731461E4801F0EDFEA6E706F0FE01F1
:10460000134C134602FB014090F8F02002F07F02A9
:1046100080F8F02001FB0333234493F8F02002F0EC
:104620007F0283F8F0204A1C124801F0D3FE204696
:10463000FDF7F2F886E700BF8037021018AD0020C2
:10464000E0530210B438021094370210B037021051
:104650004C630020CC370210043802103C380210A2
:10466000583802107438021098380210403902107D
:10467000C0380210FC38021070B582B00546FCF755
:1046800025F9B0F1FF3F28D00446FDF795FC48B36B
:1046900004F1805606F580162946184801F09AFE66
:1046A000174801F097FE174801F094FE164801F0F4
:1046B00091FE314611F8012B336A706A0190009423
:1046C000124801F087FE00212046FCF71FF978B15F
:1046D00029460F4801F07EFE08E029460D4801F00A
:1046E00079FE03E029460C4801F074FE02B070BD6B
:1046F00029460A4801F06EFEF8E700BFAC39021007
:10470000CC390210C42A0210781F0210C41F0210F4
:10471000003A0210AC2A021084390210203A02102A
:1047200010B509281FD004460A281ED0A44B1B88A8
:1047300073B3013C072C15D8DFE814F02E00C40039
:10474000DC00EB00FA00070124013901E0B204F0BB
:1047500037FC01345A2CF9DD002004F031FCE02054
:1047600004F02EFC10BD4124F4E701F001FC0A2006
:1047700006F0E6FC4FF050435B6813F0080F05D0DD
:10478000904A0321904801F025FEEBE78F4AF8E7B5
:104790008F4801F01FFECCE7894BB3F8A6306BB110
:1047A00088498C4801F016FE854BB3F8A030032BE6
:1047B00000F28280DFE803F00474787C8349F0E73C
:1047C000854801F007FE854B1B78002B78D0844983
:1047D000844801F0FFFD844C2188844801F0FAFDF3
:1047E0002188C90B824801F0F5FD2188C1F3803191
:1047F000804801F0EFFD2188C1F340317E4801F08F
:10480000E9FD2188C1F300317C4801F0E3FD2188F6
:10481000C1F3C0217A4801F0DDFD2188C1F3802178
:10482000784801F0D7FD2188C1F34021764801F096
:10483000D1FD2188C1F30021744801F0CBFD21880E
:10484000C1F3C011724801F0C5FD2188C1F3801188
:10485000704801F0BFFD2188C1F340116E4801F09E
:10486000B9FD2188C1F300116C4801F0B3FD218826
:10487000C1F3C0016A4801F0ADFD2188C1F3800198
:10488000684801F0A7FD2188C1F34001664801F0A6
:10489000A1FD218801F00101644801F09BFD61E761
:1048A000634801F097FD8EE7624801F093FD8AE7C7
:1048B000614801F08FFD86E7604801F08BFD82E7DB
:1048C0005F4985E73E4BB3F8A63063B13C4B00220D
:1048D000A3F8A6203A4BB3F8A6304BB139493D486E
:1048E00001F078FD3EE7364B0122A3F8A620F1E760
:1048F0003649F4E73C4A13886FEA43436FEA53436F
:1049000013802F4B0222A3F8A0204E4801F062FD35
:1049100028E7354A1388C3F30D0343F4804313801B
:10492000274B0122A3F8A020474801F053FD19E7C7
:104930002D4A1388C3F30D031380214B0022A3F8E3
:10494000A020424801F046FD0CE7274A138883F473
:1049500000639BB213801A4AB2F8A4205AB1184AD5
:104960000021A2F8A41013F4006F09D01C493848A4
:1049700001F030FDF6E6124A0121A2F8A410F2E798
:104980002F49F4E70E4B1B881BB9324801F022FD7A
:10499000E8E6154A138843F4005313802E4B022295
:1049A0001A6001F00BFB2D4801F014FDDAE6044B10
:1049B0001B88002B54D1274801F00CFDD2E600BF24
:1049C00018AD0020443A02104C3A0210483A021046
:1049D000683A0210C43A0210D83A0210FAB2002023
:1049E000DC520210543B0210D8330020683B021006
:1049F000803B0210B43B0210043C0210343C021015
:104A00006C3C0210983C0210C43C0210E83C0210BE
:104A1000143D0210443D0210883D0210B83D0210C2
:104A2000EC3D02101C3E02104C3E0210803E021073
:104A3000F03A0210083B0210203B0210383B0210F3
:104A400058040210B43E0210D03E0210EC3E021098
:104A5000083F02102C3F021028B200205C3F0210D9
:104A6000064A138843F480531380054B02221A60D0
:104A700001F0A4FA034801F0ADFC73E6D83300203E
:104A800028B20020783F021010B584B00446FDF72C
:104A900093FA80B1601E0B280DD8DFE800F0060EF7
:104AA00032560C0C0C0C0C6E757C414BB3F8781024
:104AB000404801F08FFC04B010BD3F4801F08AFC73
:104AC0003B4BB3F878103B4801F084FC002400E035
:104AD0000134B4F5007FEEDA04F570520823009338
:104AE0006B44D200052135481BF022FB029A039B40
:104AF00052EA0301ECD004F50071314801F06AFC80
:104B0000E6E729A3D3E90023CDE90223002412E03C
:104B1000029B13F10133039A42F101320293039293
:104B200004F57052082300936B44D20005212348FA
:104B30001BF022FB0134B4F5007FE9DB214801F0D2
:104B400049FC214801F046FCB5E700220023CDE9ED
:104B5000022300240AE004F57052082300936B44FA
:104B6000D200052115481BF007FB0134B4F5007F86
:104B7000F1DB164801F02EFC9DE70D480023A0F85C
:104B80007830FBF7BBFB96E709480123A0F87830A3
:104B9000FBF7B4FB8FE706480223A0F87830FBF759
:104BA000ADFB88E7AFF300804140414041404140C8
:104BB00018AD0020943F0210B03F021000000840E2
:104BC000E43F0210F83F02102C400210484002104F
:104BD00038B50C4601380A2855D8DFE810F00B002C
:104BE00063008A00AC00BA00CA00DA00EA00FA00EA
:104BF0000A0118018C4DB5F854102C2404FB01F265
:104C0000920A8A4801F0E6FBB5F8561004FB01F25F
:104C1000920A874801F0DEFBAB8F002B34D0854928
:104C2000854801F0D7FB804BB3F85030002B2DD0D6
:104C30008049824801F0CEFB7B4BB3F846303BB352
:104C40007C497F4801F0C6FB774BB3F852300BB379
:104C500078497C4801F0BEFB734BB3F86630DBB19A
:104C60007449794801F0B6FB6F4BB3F86830ABB1CB
:104C70007049764801F0AEFB6B4BDB8F83B16D4919
:104C8000734801F0A7FB38BD7249C9E77149D0E705
:104C90007049D6E76F49DCE76E49E2E76D49E8E71E
:104CA0006C49EDE7FDF788F9D8B15F4BB3F85410C4
:104CB0002C2201FB02F2684801F08CFB002CE2DDA3
:104CC000A4F57A7242F228339A420ED8564DA5F8CE
:104CD00054402146614801F07DFB2846FBF70EFB5E
:104CE000D1E75F4801F076FBCDE75E4801F072FB4B
:104CF000C9E7FDF761F9B0B14B4BB3F856102C2260
:104D000001FB02F2584801F065FB002CBBDDA4F169
:104D10002003E02B0BD8444BA3F8564021465348C0
:104D200001F058FBAFE74E4801F054FBABE75048A9
:104D300001F050FBA7E73C4A938FB3FA83F35B097A
:104D4000938723B13B494B4801F044FB9BE7414922
:104D5000F9E7354AB2F85030B3FA83F35B09A2F8A9
:104D6000503023B13349444801F034FB8BE73949D3
:104D7000F9E72D4AB2F84630B3FA83F35B09A2F89B
:104D8000463023B12B493D4801F024FB7BE73149F4
:104D9000F9E7254AB2F85230B3FA83F35B09A2F877
:104DA000523023B12349364801F014FB6BE72949FF
:104DB000F9E71D4AB2F86630B3FA83F35B09A2F84B
:104DC000663023B11B492F4801F004FB5BE7214902
:104DD000F9E7154AB2F86830B3FA83F35B09A2F831
:104DE000683023B11349284801F0F4FA4BE7194918
:104DF000F9E70D4AD38FB3FA83F35B09D38723B165
:104E00000C49224801F0E6FA3DE71249F9E7FDF7BF
:104E1000D3F800283FF437AF0348FBF76FFA1C487C
:104E200001F0D8FA2FE700BF18AD0020744002103F
:104E3000A8400210EC500210DC400210FC400210AE
:104E4000404102106C41021094410210B441021022
:104E5000D4410210B43802103042021094420210C1
:104E6000F44102105C420210E8420210504302106A
:104E7000184302107843021094430210D4430210E6
:104E8000FC430210204402103C440210584402101B
:104E9000744402102DE9F041BAB004460D460020DA
:104EA0001BF072F906469F231F936022002120A861
:104EB00015F042FC06AF4FF0640842460021384628
:104EC00015F03AFC424639461FA81BF009F99DF837
:104ED0001B30012101FA03F7FDF76EF8002832D0EC
:104EE000631E042B2FD8DFE803F003364D50760005
:104EF00038A808F041FF9DF8E3309DF8E4209DF8C4
:104F0000E5109DF8E6009DF8E740049403900291B7
:104F1000019200939DF8E2309DF8E1209DF8E010A9
:104F2000384801F057FA3146374801F053FA042166
:104F3000364801F04FFA3A46002F07DB1215394682
:104F4000334801F047FA3AB0BDE8F08107F57F2217
:104F500002F6FF72F2E72F4B9D420DD005F580530C
:104F60002D4A13602C4B1A6829462C4801F032FA5E
:104F70002846FBF7F7FBE6E7274B1D6805F580524F
:104F80001A60EFE7FBF7A6FBDDE7254801F022FA00
:104F90004FF47A7400214FF0FF300AF035FB022005
:104FA00006F0CEF8002003F0F4F868B9013CF1D126
:104FB0001C4801F00FFAFBF74BFB1B4801F00AFA03
:104FC0001A4801F007FABEE7002003F0E7F8184896
:104FD00001F000FAB7E70F4B9D420DD005F5805365
:104FE000144A1360134B1A682946134801F0F2F96A
:104FF000284601F04DF9A6E70E4B1D6805F58052D5
:105000001A60EFE794440210C8440210F044021002
:1050100024450210434241400CAD0020604502107F
:105020009C450210F8450210104602102C46021052
:10503000E445021010AD00207046021030B585B076
:1050400004460D46FCF7B8FFE8B1601E03281AD8E5
:10505000DFE800F0021B324B02A801F06BF99DF86B
:105060000B3000939DF80A309DF809209DF8081038
:105070002F4801F0AFF99DF80A10C1F38201CA016F
:105080002C4801F0A7F905B030BD2B4B9D420DD047
:1050900005F58053294A1360284B1A682946284889
:1050A00001F098F9284601F0F3F8ECE7234B1D686E
:1050B00005F580521A60EFE7224801F08BF90020D5
:1050C00001F0C2F80146204801F084F9002001F007
:1050D000BBF844F24103984203D01C48FCF77CFB28
:1050E000D1E71B4801F076F9CDE71A4801F072F9D3
:1050F0004FF47A7400214FF0FF300AF085FA022055
:1051000006F01EF8002003F044F850B9013CF1D13C
:10511000114801F05FF901F01DF9104801F05AF94A
:10512000B1E7002003F03AF80D4801F053F9AAE77F
:10513000AC460210D44602104342414010AD00205C
:1051400070460210F84602101C4702104C63002003
:105150003447021060470210B4470210CC470210D7
:105160009C47021070B5224808F049FC0025B5F5AF
:10517000005F10DA002C0EDB642008F009FC041E2E
:10518000FADB1C4B5C55013515F03F0FEFD12E209B
:1051900008F026FCEBE72946174808F05FFC0023DF
:1051A00007E0164A116831F8132052BA21F813208B
:1051B0000133B3F5805FF4DB00260BE02A190F4BB7
:1051C0001B6833F812100E4808F048FC01340F2C0D
:1051D000F4DD01361E2E06DC35012946094808F0AB
:1051E0003DFC0024F3E70A2008F0FAFB70BD00BF85
:1051F000DC470210644200200C4802107833002083
:10520000B80E0210A80E021038B5314B1C68238866
:10521000304D2B6063886B6004F58053B3F8FE3F1C
:105220006B61FBF751FCA861A079A3881B029BB2BC
:105230001844A860A388FF2B15D800F10043013B58
:1052400014F8132000233F2A16D80F2B14DC02F089
:105250003F022149895C214AD1540133421ED21AAE
:1052600014F81220EFE71E4A1C4B07CA03C323F8A9
:10527000022B120C1A7008E002F03F021649895CFA
:10528000164AD15401330021D154114B1A6802F54A
:105290008052B2F8FC3F03F03F030F49C85C114B4A
:1052A0001870B2F8FA0F00F03F00085C58702D201B
:1052B0009870B2F8F80F00F03F00085CD870B2F8B0
:1052C000F62F02F03F028A5C1A7100225A7138BD33
:1052D000783300207CB20020D46203106462002086
:1052E000384802107462002010B5FFF78DFF104897
:1052F00008F085FB0F4C21680A460F4808F0AEFB0A
:1053000061680A460D4808F0A9FBA2680C490D48DF
:1053100008F0A4FB0C490D4808F0A0FBA2696169E4
:105320000B4808F09BFB0A2008F05AFB10BD00BF99
:10533000444802107CB20020704802108C480210D1
:1053400064620020A848021074620020C84802105D
:10535000DC48021030B583B02F4808F050FB2F48CE
:1053600008F07CFB00240DE02D4808F077FB08E0F6
:10537000FFF74AFF2B4B2C4A2C4909682C4808F0B0
:105380006DFB0134092C1BDC21462A4808F066FB22
:10539000294B1A686303D25A4FF6FF739A42E3D03F
:1053A0000023B3F5805FE3DA03EB0430234A12688D
:1053B0002149096831F8101022F813100133F0E781
:1053C000002403E0164808F049FB0134092C1DDCD9
:1053D00021461B4808F042FB184D4FF40053009340
:1053E0002B686203052117481AF0A2FE2B681A8861
:1053F0004FF6FF739A42E5D0FFF706FF094B0A4AC2
:105400000A4909680A4808F029FBDEE70A2008F083
:10541000E7FA03B030BD00BF04490210344902105E
:105420007449021064620020746200207CB2002083
:105430008C4902105C490210D033002078330020E0
:10544000A04902100000084010B504460146084873
:1054500008F004FBA4F13003092B02D81C46054BCD
:105460001C60044B1968044808F0F8FA10BD00BF2E
:10547000B849021074330020DC09021070B582B004
:1054800004465E4808F0EAFA5D4B09221A70032CC4
:1054900000F2AF80DFE804F002182E740026ADF8A9
:1054A00006600DF10605574C2946204606F00CF81B
:1054B000ADF806602946204606F006F800F0F2FD39
:1054C00000F07CFD02B070BDE023ADF806300DF1B8
:1054D00006054C4C2946204605F0F6FF8623ADF81C
:1054E00006302946204605F0EFFF00F0DBFD00F016
:1054F00065FDE7E7B623ADF806300DF10605414C32
:105500002946204605F0E0FF1023ADF80630294675
:10551000204605F0D9FF0123ADF806302946204684
:1055200005F0D2FFC623ADF806302946204605F027
:10553000CBFF0026ADF806602946204605F0C4FFE3
:10554000F223ADF806302946204605F0BDFFADF840
:1055500006602946204605F0B7FF5A23ADF806300D
:105560002946204605F0B0FF9123ADF806302946C4
:10557000204605F0A9FF00F095FD00F01FFDA1E712
:105580003E23ADF806300DF106051E4C2946204697
:1055900005F09AFF1123ADF806302946204605F0A4
:1055A00093FF1023ADF806302946204605F08CFF06
:1055B0007523ADF806302946204605F085FFC02347
:1055C000ADF806302946204605F07EFF0123ADF8F0
:1055D00006302946204605F077FF2F23ADF8063028
:1055E0002946204605F070FF00F05CFD00F0E6FC67
:1055F00068E700F057FD00F0E1FC63E7E4490210C2
:105600000FB30020F473002038B5002008F0C0F973
:1056100010F1020F67D00446394B1B78002B63D082
:105620001B2807D0043B052B5DD8DFE803F01F5C87
:105630002C2E5C21324B00221A70324808F0DFF920
:1056400051E001350C2D4EDC05EB45032E4A12F8D6
:105650002330A342F5D105EB45022B4B03EB82032C
:105660005B689847264B00221A70EAE70025E9E7B5
:10567000A0F13003082B36D81846FFF7FFFE204B69
:1056800000221A702FE0462805D0A4F13003092B20
:1056900007D900250DE0FFF765FD194B00221A70B0
:1056A000F3E72046FFF7D0FE154B00221A701AE0F0
:1056B00001350E2D17DC05EB4503144A12F8233093
:1056C000A342F5D105EB4502104B03EB82035B6867
:1056D00098470B4B00221A70EAE703EB430301EBF8
:1056E00083035B68984738BD0023122BFBDC03EB78
:1056F0004302074911F82220A242EED00133F4E719
:105700000FB30020EC490210F4310020403100209A
:105710009032002003460268EFF3108172B6D2E89F
:10572000CFCF0120BCF1000FF9D1C2E84C0FBCF182
:10573000000FF4D1BFF35F8F18895A89801A02D500
:10574000DA890132104400221B68C3E88F2F81F3ED
:105750001088704708B53C4808F051F93B4B3C4A6B
:10576000196812683B4808F079F93B4B3B4A1968C5
:1057700012683B4808F072F93A4B3B4A19681268C4
:105780003A4808F06BF93A4B3A4A196812683A48B5
:1057900008F064F90A2008F023F9384B384A1968F0
:1057A0001268384808F05AF9374B384A19681268B5
:1057B000374808F053F9374B374A196812683748A9
:1057C00008F04CF9364B374A19681268364808F029
:1057D00045F9364808F013F9002002F074FC28B3AC
:1057E0003349344808F03AF9042002F06CFC48B31D
:1057F0002F49314808F032F9022002F064FCF8B178
:105800002B492E4808F02AF9012002F05CFCA8B1CF
:1058100027492B4808F022F9032002F054FC38B144
:10582000BDE808402249274808F018B92649D8E7BA
:1058300025492448BDE8084008F010B92249E8E7A6
:105840002149DEE72049D4E7D4560210C0330020B6
:10585000C433002008570210B8330020BC330020A6
:1058600030570210883300208C3300205857021024
:10587000B0330020B433002080570210A83300203A
:10588000AC330020A8570210A0330020A43300201E
:10589000D05702109033002094330020F8570210A4
:1058A000983300209C3300202058021050A502108D
:1058B000C81702104858021064580210805802108D
:1058C0009C580210B8580210CC17021008B51E4898
:1058D00000F080FD1D4B1E4A196812681D4800F03B
:1058E00079FD1D4B1D4A196812681D4800F072FDB4
:1058F0001C4B1D4A196812681C4800F06BFD1C4BBC
:105900001C4A196812681C4800F064FD1B4B1C4AB5
:10591000196812681B4800F05DFD1B4B1B4A196893
:1059200012681B4800F056FD1A4B1B4A1968126892
:105930001A4800F04FFD1A4B1A4A196812681A48A3
:10594000BDE8084000F046BDD4580210C033002026
:10595000C433002008590210B8330020BC330020A3
:105960002C590210883300208C330020505902102B
:10597000B0330020B433002074590210A833002043
:10598000AC33002098590210A0330020A43300202B
:10599000BC5902109033002094330020E0590210CB
:1059A000983300209C330020045A02102DE9F04F58
:1059B000CC4E89B00121306808F0BEFA0346CA4FC8
:1059C000CA4930683B6008F0D3FADFF884830121CC
:1059D000C8F80000306808F0AFFADFF878B3C449BF
:1059E000CBF80000306808F0C3FADFF86C930121AF
:1059F000C9F80000306808F09FFABE4BD9F80020C3
:105A00001860BD4B012130681A6008F095FABB4A56
:105A1000BB491060306808F0ABFABA4DBA49BB4CCC
:105A200008600121286808F087FAB94920602868D1
:105A300008F09EFAB74A01211060286808F07CFA45
:105A4000B549B64C0860B649286808F091FA0121BA
:105A50002060286808F070FAB24AB34910602868DC
:105A600008F086FAB149B24C08600121286808F0B4
:105A700063FAB0492060286808F07AFA4FF480335E
:105A80000124D8F800A0AC4A04930AF11403106072
:105A90001B030AEB040243EAC2133F6823F0C0432E
:105AA0000094D6F800800593A44AA54B3946CDE969
:105AB0000632404602231A2208F08EFA08F12F41DE
:105AC00001F56001090D0631C9B21A20039104F0F5
:105AD000C3FA03991B2004F0BFFA0DF1100C5246D3
