:020000041000EA
:10000000002008205D0100101B0100101D8301105D
:100010001101001011010010110100101101001058
:100020001901001019010010190100101F01001022
:10003000A1820110190100102101001023010010FC
:100040001101001011010010110100101101001028
:100050001101001011010010110100101101001018
:100060001101001011010010110100101101001008
:1000700011010010110100101101001011010010F8
:1000800011010010110100101101001011010010E8
:1000900011010010110100101101001011010010D8
:1000A00011010010110100101101001011010010C8
:1000B00011010010110100101101001011010010B8
:1000C00011010010110100101101001011010010A8
:1000D0001101001011010010110100101101001098
:1000E0001101001011010010110100101101001088
:1000F0001101001011010010110100101101001078
:100100001101001011010010110100101101001067
:10011000EFF30580103800BE00BE00BE00BE00BE7A
:1001200000BE00BEF2EB887188C60310B8C603108B
:10013000A001001090A31AE7D3DEFFFF42012110B7
:10014000FF01000098020400793512AB4FF0000067
:100150001E49086006C881F3088810474FF05040D8
:10016000006810B14FF00000F2E70DA40ECC00299A
:1001700002D000F012F8F9E71549164A002000E015
:1001800001C19142FCD11449884714498847144958
:10019000884700BEFDE701C901C29A42FBD3704700
:1001A000B8C6031088010020A03E0020D003041030
:1001B0000000082000000820D003041000100820D0
:1001C00000100820000000007047000008ED00E06B
:1001D000A03E00207CB2002075CC0010650300100A
:1001E00039CC0010F8B500BF064B0749C91A891071
:1001F00048BF0131491003D0044B0BB101481847E7
:10020000704700BFA03E0020A03E0020000000007C
:1002100008B5054B1BB105490548AFF30080BDE8A3
:100220000840FFF7E1BF00BF00000000A4B10020BC
:10023000D8F8011070B584B005460C4601AB02AA8F
:1002400003A90AF08DFD18B954B9204604B070BD59
:100250000646019A029903980AF050FD3446F4E7E5
:100260002946014809F07EFAD8F80110002203E07F
:10027000002120F8121001325D2AF9DD44F241021A
:10028000A0F8B8200022C2830284428402808280C7
:10029000A0F8A020A0F8A220A0F8A420A0F8A620F2
:1002A000A0F8A820A0F8782001228287C287A0F8B1
:1002B0004620A0F85020A0F8522041F28832A0F841
:1002C00054202022A0F856204FF05042526812F4D9
:1002D000003F01D00020704700B583B0FE2200929D
:1002E00003464FF4E832052103481FF0ADFA012020
:1002F00003B05DF804FB00BF000008404FF050431E
:100300005B6813F4003F01D00020704700B583B054
:10031000FE23009303464FF4E832052103481FF003
:1003200093FA012003B05DF804FB00BF0000084011
:100330004FF050435B6813F4003F01D0002070473A
:1003400000B583B0FE23009303464FF4E832052145
:1003500003481FF055FA012003B05DF804FB00BF0D
:100360000000084000B583B001214548FFF762FF57
:100370000CF0CCFD07F084FF01F038FB07F0A0FF84
:100380004FF47A700AF09EF9192007F06DFF4FF4D0
:100390007A700AF097F9192007F066FF01231C46CE
:1003A0008DF8043000208DF8050001A90EF0A6F8A4
:1003B00007F0F4F91C2344EC403005F0EBF908F0A9
:1003C000EBFF09F061F808F051FC08F097F901F033
:1003D0000DFB2C4C2046FFF7ABFFB4F8B82044F2DD
:1003E00041039A4244D107F02FFA08F039F807F098
:1003F000EDFF24480123C38303848380FFF77EFF3E
:1004000006F03EF901F03CFB19234FF0000242ECEC
:10041000403005F01BF908F0D9FE0DF0E9FB1A4851
:100420000DF082FC04F0C2FD04F094FC0DF0A8FB7A
:10043000164B02221A60A3F500531B6883F4804315
:1004400003F47043124A136001F0D0FA05F008F982
:1004500000214FF0FF300EF03FFC06F0F1F804F001
:10046000D3FB07F05FFA08F005F808F0BDFAEDE7F6
:100470002046FFF7FBFE2046FFF740FFB3E700BF33
:1004800048E8010080AC0020F905002000200A4067
:1004900000100A4070B504460D4616460023DB8A5C
:1004A000002242E800F212F4800F0BD1102144F236
:1004B0004F10984703460D4AD2F8142842B96FF0FE
:1004C000120070BD042144F24F1098470346F2E732
:1004D000BFF35F8F3246294620469847BFF35F8FB0
:1004E000024B0022C3F81428EBE700BF00000E40C7
:1004F00010B588B004464FF4806220216846FFF7AB
:10050000C9FF41B251B900231F2B13DC03F12002B4
:100510006A4412F8202C2AB90133F5E7214805F086
:100520001FFAF0E74FF482611F4805F019FA002026
:1005300008B010BD002305E003F12001694401F873
:10054000202C01331F2B09DCE25C002AF4D10021AE
:1005500003F120026A4402F8201CF2E74FF4413212
:1005600020216846FFF796FF41B289B921460F481E
:1005700005F0F6F94FF4013220216846FFF78AFFB3
:1005800041B251B969460A4805F0EAF90120CFE7BE
:10059000084805F0E5F90020CAE7074805F0E0F94A
:1005A0000020C5E70CF901104CF90110C0F9011049
:1005B00010FA011088F90110E8F9011010B5A0B087
:1005C00004464FF4806240210DEB0100FFF762FF0B
:1005D00041B209B9002319E0144805F0C1F900201F
:1005E00022E05A0020A901EB430111F8400C03F16D
:1005F0008001694401F8800C81326A4412F8400C91
:1006000003F181026A4402F8800C02331E2BE8DDFC
:10061000002306E003F180026A4412F8802CE254C1
:1006200001331F2BF6DD012020B010BD28FA011088
:1006300010B54FF4FA740BE002200AF043F8013CC5
:10064000002006F0DFFF00214FF0FF300EF044FBEA
:10065000002CF1DC10BD000070B5FFF7E9FF0024AD
:100660004FF4801516E02A4621460C4805F078F92B
:10067000FFF7DEFFEFF3108372B6094E33604FF4DD
:10068000801128461FF0D4F8336883F3108805F5ED
:10069000801501340E2CE6DD70BD00BF60FA01103C
:1006A0007473002003460144B1F5700F0ED80A4858
:1006B000006810F803C018461344994202D9BCF1EF
:1006C000FF0FF4D0BCF1FF0F02D07047002070473D
:1006D0004FF0FF30F9E700BF9830002030B5C1B0CF
:1006E000012219490020FFF7DDFFB0F1FF3F25D1BE
:1006F000164805F035F94FF48072FF21684619F06D
:1007000083FB41258DF800501E2211490DF1010097
:1007100019F076FC00238DF81F30022308934FF464
:100720008072099240238DF828308DF8295069464F
:100730004FF480101FF030F841B030BD014605483D
:1007400005F00EF9F8E700BF00FFEF0098FA01107E
:10075000C0FA0110D8FA0110034B1B78412B01D0CD
:10076000002070470120704700001010F0B5C1B0A4
:10077000054600F58057B7F5700F34D94FF4700770
:1007800031E01E4B1B685A5D1D4901A820440CF046
:10079000BFF90334013501360F2EF2DD103D01ABF8
:1007A0001919184A1088927818538A700234002652
:1007B00007E0154901A820440CF0AAF901340135DD
:1007C00001360F2E09DC0D4B1B685A5DA2F1200388
:1007D000DBB25E2BEDD92E22EBE701A90B4805F029
:1007E000BFF8BD4207D22A46094901A80CF090F98A
:1007F00000260A24D0E741B0F0BD00BF98300020A9
:10080000CC1C0210301C021024FB0110001B021033
:100810001CFB01102DE9F843044601F128074FF0B5
:100820000008C146B4F5700F19D204F1805505F5E2
:1008300080152E7800214FF0FF300EF04DFA7F2EFC
:1008400010D0FF2E02D06EB16C6AEBE7C4F57003D6
:10085000BB421CD943451DD3B9F1000F1CD04846FB
:10086000BDE8F8836B6A1A1B974206D8B8F1000FEF
:1008700005D0904507D81C46D4E71C46D2E79046E1
:10088000A1461C46CEE79046A1461C46CAE74FF05B
:10089000FF39E4E7A146E2E7A146E0E700E0586A55
:1008A000B0F5700F0BD200F1805303F580131A7866
:1008B000FF2A04D0412AF2D94FF0FF307047B0F53B
:1008C000700F00D870474FF0FF307047F8B50746FB
:1008D000002500E0656AB5F5700F0FD205F1805470
:1008E00004F580142678FF2E0CD03946601C19F0D0
:1008F000D9FA0028EED1002EECD001E04FF0FF3500
:100900002846F8BD4FF0FF35FAE700002DE9F04723
:10091000C0B004460D46154F396820F0FF094FF46A
:10092000807A52464944684619F0D4FFE3B20DF884
:100930000350FFF77DFEEFF3108372B6DFF83080CF
:10094000C8F800305246694609F580101EF024FFB1
:10095000D8F8003083F310883B68185DA84214BFB4
:100960000020012040B0BDE8F08700BF9830002093
:10097000747300202DE9F04FADF5005D83B020F0D9
:10098000FF0404F5801421F0FF0505F5801824F418
:100990007F6626F00F0628F47F6727F00F0707F51C
:1009A000805704F47064A7EB080B06F180530193A1
:1009B00005F1805505F580150DF5805A0AF1080AF4
:1009C0004FF48052FF21504619F01EFA0DF108092C
:1009D0004FF48052FF21484619F016FA2246019939
:1009E000504619F077FF5A462946484619F072FFDB
:1009F000FFF71EFEEFF3108372B60C4D2B60B91B90
:100A000030461EF015FF2246514630461EF0C4FE09
:100A10005A46494640461EF0BFFE2B6883F31088B5
:100A20000DF5005D03B0BDE8F08F00BF74730020CA
:100A30000022134600E0013240F6FE718A420BDCD0
:100A40000749096831F812100B44B3F5806FF2DBE7
:100A5000C3F309030133EEE75B42C3F309007047B8
:100A6000D432002008B504F079FD08BD08B5074A66
:100A70001368B3FA83F35B09136023B10449054893
:100A80000CF0B0FA08BD0449F9E700BFE0320020DD
:100A9000144302102CFB011028FB011008B5074A73
:100AA0001368B3FA83F35B09136023B10449054863
:100AB0000CF098FA08BD0449F9E700BFDC320020C9
:100AC000144302103CFB011028FB011008B5074A33
:100AD0001368B3FA83F35B09136023B10449054833
:100AE0000CF080FA08BD0449F9E700BFD8320020B5
:100AF0001443021054FB011028FB011008B5094AE9
:100B0000136803F59C5308331360074A934202DDD0
:100B1000044B00221A60034B196804480CF062FA77
:100B200008BD00BF14B20020A086010068FB0110C0
:100B300008B503480CF056FA024B04221A7008BD9F
:100B400088FB011077B2002008B5064A137883F0BD
:100B50000103137023B1044904480CF043FA08BDA3
:100B60000349F9E762B200201443021090FB011020
:100B700028FB011008B5084A138883F400739BB260
:100B8000138013F4007F04D0044905480CF02AFABE
:100B900008BD0449F9E700BF3433002014430210B4
:100BA000B0FB011028FB011008B5084A138883F434
:100BB00080739BB2138013F4807F04D004490548EE
:100BC0000CF010FA08BD0449F9E700BF34330020E7
:100BD00014430210D0FB011028FB011008B5084A8D
:100BE000138883F480639BB2138013F4806F04D066
:100BF000044905480CF0F6F908BD0449F9E700BFBF
:100C00003433002014430210F8FB011028FB0110BC
:100C100008B5084A138883F400639BB2138013F469
:100C2000006F04D0044905480CF0DCF908BD044904
:100C3000F9E700BF34330020144302101CFC0110FC
:100C400028FB011008B503480CF0CCF9024B072231
:100C50001A7008BD40FC011077B2002008B50548A5
:100C60000CF0C0F904480CF0BDF9044B06221A70D0
:100C700008BD00BF48FC011074FC011077B20020D1
:100C800008B54FF050435B6813F0807F04D00349F0
:100C900003480CF0A7F908BD0249F9E71443021014
:100CA000A0FC011028FB011008B506480CF09AF9C9
:100CB0004FF47A7009F006FD012108460AF04EF95A
:100CC00008BD00BFCCFC011008B506480CF08AF93D
:100CD0004FF47A7009F0F6FC00214FF000700AF032
:100CE00086F900BFECFC011008B508F015F908BD45
:100CF00008B5044A1388C3F30D03138002480CF0AF
:100D000042F908BD343300201CFD011008B5054A26
:100D100013886FEA43436FEA5343138002480CF091
:100D200032F908BD3433002038FD011008B5054AFA
:100D30001388C3F30D0343F48043138002480CF07F
:100D400022F908BD3433002058FD011008B5074AC8
:100D5000138843F480531380054B02221A6004F079
:100D6000FDFB04480CF00FF908BD00BF3433002030
:100D700090B1002078FD011008B5074A138843F4AC
:100D800000531380054B02221A6004F0E7FB04486D
:100D90000CF0F9F808BD00BF3433002090B10020FA
:100DA00094FD011008B504480CF0EDF8034904481F
:100DB0000CF018F908BD00BFB4FD0110310A001095
:100DC000CCFD011008B50A480CF0DDF8094B0122F2
:100DD0001A7009480CF006F9084B1968002903DB62
:100DE00007480CF0FFF808BD06480CF0FBF8FAE7DE
:100DF000ECFD011073B2002018FE0110D03200206B
:100E000064FE01103CFE011008B50A480CF0BBF866
:100E1000094B02221A7009480CF0E4F8084B1968D3
:100E2000002903DB07480CF0DDF808BD06480CF08C
:100E3000D9F8FAE780FE011073B20020ACFE011071
:100E4000D032002064FE01103CFE011008B51448A9
:100E50000CF099F813480CF096F8134B1B7873B10B
:100E6000124A116800290ADB012B12D0022B0CD187
:100E70000F4B01221A700F480CF0B4F805E00C4B30
:100E800000221A700C480CF0ADF80C480CF07BF8FE
:100E900008BD074B01221A7009480CF0A3F8F4E7CB
:100EA000D0FE0110FCFE011073B20020D0320020F1
:100EB0006FB20020E0FF011034FF0110300002107B
:100EC0008CFF011010B50B480CF05DF80A4C23782C
:100ED00083F001032370094B196809480CF082F86C
:100EE000237823B1074908480CF07CF810BD074966
:100EF000F9E700BF8C0002106AB20020D032002057
:100F0000AC00021014430210D000021028FB0110A4
:100F100010B50B480CF037F80A4C237883F0010326
:100F20002370094B196809480CF05CF8237823B149
:100F3000074908480CF056F810BD0749F9E700BF0B
:100F4000E80002106BB20020D0320020AC0002108A
:100F50001844021008010210E428021008B50248E3
:100F60000CF011F808BD00BF1801021008B50348C5
:100F70000CF009F804F036FB08BD00BF2801021090
:100F800010B539480BF0FFFF384B1B78002B68D0A9
:100F9000374938480CF026F8374C218837480CF090
:100FA00021F82188C90B36480CF01CF82188C1F3C0
:100FB000803134480CF016F82188C1F340313248B2
:100FC0000CF010F82188C1F3003130480CF00AF819
:100FD0002188C1F3C0212E480CF004F82188C1F308
:100FE00080212C480BF0FEFF2188C1F340212A48C4
:100FF0000BF0F8FF2188C1F3002128480BF0F2FF25
:101000002188C1F3C01126480BF0ECFF2188C1F301
:10101000801124480BF0E6FF2188C1F340112248DB
:101020000BF0E0FF2188C1F3001120480BF0DAFF3C
:101030002188C1F3C0011E480BF0D4FF2188C1F301
:1010400080011C480BF0CEFF2188C1F340011A48F3
:101050000BF0C8FF218801F0010118480BF0C2FF16
:1010600010BD174995E700BFA013021062B200201F
:10107000144302105C01021034330020700102108E
:1010800084010210B4010210000202102C020210AE
:10109000600202108C020210B4020210D802021088
:1010A000040302103403021078030210A803021094
:1010B000D80302100804021034040210680402105D
:1010C00028FB011010B50E480BF05DFF0D480BF02A
:1010D00089FF0D480BF086FF00240AE00B4904EB62
:1010E00044029300CA189268C95C09480BF07AFF61
:1010F00001340E2CF2DD07480BF045FF10BD00BF98
:101100009C040210BC040210E40402109C30002075
:10111000100502101C05021008B503F01BFE08BDE7
:1011200070B51C480BF02FFF00260BE02A191A4B54
:101130001B6833F8121019480BF054FF01340F2CC0
:10114000F4DD0136072E06DC3501294614480BF084
:1011500049FF0024F3E70A200BF006FFF8260BE016
:101160002A190D4B1B6833F812100C480BF03AFF8C
:1011700001340F2CF4DD0136FF2E06DC3501294643
:1011800007480BF02FFF0024F3E70A200BF0ECFEDA
:1011900070BD00BF64050210D43200208805021023
:1011A0007805021070B50F480BF0EDFE00260BE03D
:1011B0002A190D4B1B6833F812100C480BF012FF64
:1011C00001340F2CF4DD0136FF2E06DC35012946F3
:1011D00007480BF007FF0024F3E70A200BF0C4FEDA
:1011E00070BD00BF90050210D432002088050210A7
:1011F0007805021000B583B01E480BF0C4FE1E4BEC
:101200001B78BBB11D4A1168002913DB012B1AD0D2
:10121000022B12D11A480BF0E5FE184B1A684FF456
:1012200000530093174B1B685203052116481EF00C
:10123000E7FA02E015480BF0A6FE0A200BF094FE38
:1012400003B05DF804FB12480BF0CCFE00230CE069
:101250000A4A126803EB02320A4909680D4800681D
:1012600030F8122021F813200133B3F5805FEFDB53
:10127000E3E700BFAC05021073B20020D0320020BB
:101280003C060210D432002000000840D0050210B5
:10129000180602102C33002070B5B2B00A200BF0F3
:1012A00063FE002407E0144B53F824202146134822
:1012B0000BF098FE0134042C1BDC204606F0A7F945
:1012C0000028F0D00C4E56F8242021460C480BF094
:1012D00089FE56F8243022460A4968460BF018FC6D
:1012E00002466946204606F003FA204606F08AF9CF
:1012F000E0E732B070BD00BFD0530310A806021063
:10130000600602108406021010B50E480BF03BFE7A
:101310000D480BF067FE0D480BF064FE00240AE058
:101320000B4904EB44029300CA189268C95C09484F
:101330000BF058FE0134122CF2DD0A200BF014FEE3
:1013400010BD00BFCC060210D8060210EC06021039
:10135000EC3100201005021010B50E480BF013FE02
:101360000D480BF03FFE0D480BF03CFE00240AE058
:101370000B4904EB44029300CA189268C95C0948FF
:101380000BF030FE01340C2CF2DD0A200BF0ECFDEA
:1013900010BD00BF0407021024070210E40402106D
:1013A000503100201005021010B582B028480BF013
:1013B000EAFD284B1B781BB1274B1B68002B02DA78
:1013C000264B1B78D3B126480BF00CFE214B1B7823
:1013D000012B1AD0022B36D11F4C21684A03214819
:1013E0000BF000FE22684FF4005300931E4B1B6865
:1013F000520305211D481EF027FA24E0174B002256
:101400001A701B480BF0BFFD1DE0134C21684A0306
:1014100002F1805202F5002216480BF0E3FD4FF472
:10142000FA6009F04FF9206840304FF40051400352
:101430001EF0FEF9206840304FF400520A4B196844
:1014400040031EF0A9F90C480BF09DFD02B010BD41
:101450005007021073B20020D03200206FB200207B
:10146000C807021004080210D4320020000008400F
:1014700074070210DC0702102C0802102DE9F0415D
:1014800007464FF47462002118F0BEFC002623E0EA
:10149000F42406FB04F407EB04080025A8F83850F0
:1014A000C8F83050C8F83450C8F85C5088F83A5042
:1014B00088F8F05038343C44023420222946204633
:1014C00018F0A2FC1F220E4B53F82610204618F0ED
:1014D00097FD88F8595001360F2ED9DD80233B81C6
:1014E000A7F8FC30A7F8F031A7F8E4323B87A7F85B
:1014F0002C31A7F82032A7F81433BDE8F08100BFE3
:10150000F0630310F8B5044616461A46069B7700AA
:1015100006EB4600F42501FB05F505EB001021184C
:101520000A81235062194FF0010C82F8F0C0094A79
:101530001A444A60083020441F22074919440230E7
:1015400018F05EFD374405EB07152C44002384F8A2
:101550002930F8BD280010100100101038B5049C87
:1015600002EB420E4FF0F40C0CFB01FC0CEB0E1ED8
:1015700000EB0E052B81002340F80E30844401233C
:101580008CF8F0306C60062902D007291FD038BDD6
:1015900063881B2B11D0192BF7D102EB4202F423E5
:1015A00001FB03F303EB0213083318441F22104B13
:1015B0009968023018F024FDE9E7734608331844AF
:1015C0001F220B4B5968023018F01AFDDFE702EBBF
:1015D0004202F42303FB01F101EB0211083108443C
:1015E0001F22034B1968023018F00AFDCFE700BF35
:1015F000E4630310032900D870472DE9F84304463B
:10160000164602EB4203F42701FB07F707EB03132F
:1016100000EB03094FF0000840F80380A9F80880A8
:1016200007F1380020441F22094B53F821100230E3
:1016300018F0E6FC274487F85980C9F82C80C9F8CF
:101640000480012E01D0BDE8F88387F8F080FAE726
:10165000F0630310F8B506460C461546B3B11946BB
:10166000570002EB4200F42303FB04F404EB0010E8
:10167000083030441F22023018F0C2FC2F4404EB23
:1016800007142644002386F82930F8BD02EB4205F2
:10169000F42303FB04F404EB0512104400238372CB
:1016A000F3E7F42303FB01031B8913F0800F20D120
:1016B000F42303FB01031B8F13F0800F1BD1F423D2
:1016C00003FB0103B3F8683013F0800F15D1F42346
:1016D00003FB0103B3F8983013F0800F0FD1F4230C
:1016E00003FB0100B0F8C83013F0800F09D00120CF
:1016F000704701207047012070470120704701208A
:10170000704700207047000030B585B0044644F2B1
:101710004103ADF80E30FFF7B1FE0A4D4FF474638C
:10172000009323461022052128461EF08DF802233F
:1017300000930DF10E030022052128461EF084F8C7
:1017400005B030BD000008404FF050435B6813F413
:10175000003F00D0704700B583B04FF4746300932E
:1017600003461022052103481EF06EF803B05DF811
:1017700004FB00BF000008404B1E0E2B16D8531E62
:10178000032B15D802EB420CF42301FB03F303EB0C
:101790000C13C35873B1F42303FB01F101EB0C11DB
:1017A00008444368188840BA80B2704700207047E8
:1017B000002070470020704701F1FF3CBCF10E0F84
:1017C00000F2888002F1FF3CBCF1030F00F284803C
:1017D00030B502EB420E4FF0F40C0CFB01FC0CEBAD
:1017E0000E1C8444BCF8084014F4807F37D0F424E5
:1017F00004FB01F101EB0E1C8444DCF8044004F509
:101800008054B4F8FC5F05F03F05344C655D1D70F5
:10181000DCF8045005F58055B5F8FA5F05F03F0592
:10182000655D5D702D259D70DCF8045005F5805CCC
:10183000BCF8F8CF0CF03F0C14F80C50DD7001EB45
:101840000E1101444A6802F58052B2F8F62F02F0F8
:101850003F02A25C1A7100225A71012030BD02EBD6
:1018600042044FF0F40C0CFB01FC0CEB041101449E
:101870004C6804F58054B4F8FCEFCEF3052E174CF9
:1018800014F80E501D704D6805F5805EBEF8FAEF35
:10189000CEF3052E14F80E505D702D259D7049680D
:1018A00001F58051B1F8F81FC1F30521615CD970D1
:1018B00002EB42020CEB021C6044426802F58052CB
:1018C000B2F8F62FC2F30522A25C1A7100225A71F7
:1018D0000120C3E7002070470020704730640310E8
:1018E0004B1E0E2B16D8531E032B15D802EB420CA1
:1018F000F42301FB03F303EB0C13C35873B1F4237C
:1019000003FB01F101EB0C1108444368588840BA0D
:1019100080B2704700207047002070470020704759
:101920000F2900D9704770B582B005460E46F422E3
:1019300001FB02F2383202440232114804F010F87E
:10194000002418E004EB44034FF0F40C0CFB06FCFD
:101950000CEB031C0CF108022A4405EB0C010B896B
:101960004968019155F80C10009102322146054852
:1019700003F0F6FF0134042CE4DD02B070BD00BFBB
:1019800078080210840802100148024BC01A704700
:10199000000008207CB2002000B58BB0684617F02C
:1019A00025FAFFF7F1FF079BC01A0BB05DF804FBA7
:1019B00010B500EBD070441000214FF0FF300DF057
:1019C0008BF9022008F07EFE002005F086FE18B993
:1019D000013CF1D5002006E0002005F083FE02481E
:1019E00003F0BEFF012010BDC00802102DE9F04732
:1019F000012009F055F98246022009F051F981468B
:101A0000032009F04DF98046092009F049F90746FD
:101A10000A2009F045F906460B2009F041F9054670
:101A20000C2009F03DF9044651460E480BF0DAFA55
:101A300049460D480BF0D6FA41460C480BF0D2FA55
:101A400039460B480BF0CEFA31460A480BF0CAFA79
:101A5000294609480BF0C6FA214608480BF0C2FA9D
:101A6000BDE8F087E0080210F4080210080902102F
:101A70001C09021030090210440902105809021012
:101A800010B5114C20460BF0ADFA10480BF0AAFA35
:101A9000FFF77AFF01460E480BF0A4FAFFF77CFF30
:101AA00001460C480BF09EFA052009F0F3F80A4BAA
:101AB000A3FB0031890909480BF094FA20460BF08A
:101AC00062FAFFF793FF10BD6C090210BC09021007
:101AD0000C0A0210280A0210D34D6210440A0210A8
:101AE0002DE9F04F2DED068B95B0FFF77FFF01201C
:101AF00009F0D6F88246022009F0D2F88146032088
:101B000009F0CEF88046092009F0CAF807460A20F5
:101B100009F0C6F806460B2009F0C2F805460C206D
:101B200009F0BEF80390864B04221A60854B1B68AF
:101B300013F4807FFAD0834B5B689BB207EE903A38
:101B4000F8EE677A9FED807A67EE877A9FED7F7A6D
:101B500077EEC77ADFED7E6A87EEA67AB3EE0BAA40
:101B60003AEE47AA052009F095F87A4BA3FB00301E
:101B7000800C07EE900AB8EE678AFFF705FF800A2F
:101B800007EE900AF8EE679AFFF706FF800A07EE65
:101B9000900AB8EE679A704BB3F854B02C2303FB4D
:101BA0000BF39B0A07EE903AF8EE678A12A80BF047
:101BB0009FFB00240BE004F150036B4413F8082C46
:101BC00066490DA800EB44000AF0A2FF0134072C7F
:101BD000F1D9634803F0C4FE624803F0C1FE6248D5
:101BE00003F0BEFE614803F0BBFE614803F0B8FE9F
:101BF000604803F0B5FE604B604A6149614803F0FC
:101C0000AFFE05AC20220021204618F0FDF820464A
:101C1000FEF7D4FC002800F08F809DF81430002BD4
:101C200040F08580584803F09BFE584C204603F056
:101C300097FE574803F094FE18EE100A1DF0D0FDF1
:101C400002460B46534803F08BFE5146524803F0C0
:101C500087FE4946514803F083FE4146504803F051
:101C60007FFE39464F4803F07BFE31464E4803F075
:101C700077FE29464D4803F073FE03994C4803F064
:101C80006FFEF2EE027A6AEE277AB1EE047A87EE00
:101C9000878ADFED487A38EE278A1AEE100A1DF09F
:101CA0009FFD06460F4618EE100A1DF099FDCDE97E
:101CB000000132463B46404803F052FE0DA93F4822
:101CC00003F04EFE204603F04BFE3D4803F048FE75
:101CD00000223C4B3C4803F043FE19EE900A1DF0F5
:101CE0007FFD02460B46394803F03AFE19EE100A12
:101CF0001DF076FD02460B46354803F031FE18EE26
:101D0000900A1DF06DFD02460B462C210191CDF885
:101D100000B0304803F024FE204603F021FE1048B6
:101D200003F01EFE15B0BDEC068BBDE8F08F05A9D3
:101D3000294803F015FE78E7284803F011FE74E700
:101D400000200A4000000A403333533A6ABC343F53
:101D50002D93E13A83DE1B4380AC0020FC36021059
:101D6000600A0210B00A0210C40A0210F40A02103B
:101D7000400B0210800B0210BC0B0210C80B0210AB
:101D8000D40B0210E00B0210040C0210B809021070
:101D9000540C0210680C0210880C0210A40C0210E3
:101DA000C00C0210DC0C0210F80C0210140D021012
:101DB000300D0210000000424C0D0210740D021094
:101DC000AC0D021000408040BC0D0210DC0D021072
:101DD000FC0D02101C0E0210240C0210340C021018
:101DE00008B503F073F808BD08B5002005F00FFC36
:101DF00020B31749174803F0B3FD012005F007FC95
:101E0000F0B11349144803F0ABFD022005F0FFFBCD
:101E1000C0B10F49114803F0A3FD032005F0F7FB03
:101E200090B10B490E4803F09BFD042005F0EFFB39
:101E300060B107490B4803F093FD08BD0A49D9E793
:101E40000949DFE70849E5E70749EBE70649F1E714
:101E5000600E0210680E0210900E0210B80E0210F2
:101E6000E00E0210080F0210640E021070B5B2B03E
:101E7000164803F075FD002407E0154B53F82420A5
:101E80002146144803F06CFD0134042C1BDC204671
:101E900005F0BDFB0028F0D00D4E56F82420214659
:101EA0000D4803F05DFD56F8243022460B49684684
:101EB0000AF02EFE02466946204605F019FC20462F
:101EC00005F0A0FBE0E732B070BD00BF185902106A
:101ED000D0530310780F0210300F0210500F021071
:101EE00008B50E4803F03CFD01214FF4FA6009F0FB
:101EF00035F800214FF0FF300CF0EEFE002005F029
:101F0000ECFB0028F5D0064B4FF080421A60002011
:101F100005F0E8FB034803F023FD08BD980F02100D
:101F200000B00D40DC0F021010B50F4803F018FD93
:101F30004FF4FA7400214FF0FF300CF0CDFE022078
:101F400008F0C0FB002005F0C8FB30B9013CF1D11E
:101F500000214FF0007009F04AF8002005F0C2FBA4
:101F6000024803F0FDFC10BDF00F0210DC0F021060
:101F700010B50446B8B90F4803F0F2FC192006F07A
:101F800073F916E021460C4804F014FB192006F002
:101F90006BF9FA2008F096FB192006F065F9FA2093
:101FA00008F090FB013C631E082BEBD9034803F0BB
:101FB000D7FC10BD4410021058100210183A02103D
:101FC00008B54FF050435B6813F4003F01D1012086
:101FD00008BD024803F0C4FC0020F9E75C100210C1
:101FE00008B5034803F0BCFC03F0FCFA08BD00BFD1
:101FF000A010021008B5FFF7E3FF00B908BD0348C1
:1020000003F0AEFC03F0AAFAF8E700BFC410021018
:1020100008B5FFF7D5FF00B908BD034803F0A0FCE1
:102020000248FEF723F9F7E7E810021080AC002021
:1020300010B5FFF7C5FF70B910BD084B53F8243039
:10204000074A32F814202146064803F089FC01347F
:102050005F2CF2DDF0E70024FAE700BFECC40310C8
:1020600080AC00201411021030B589B00546EC4652
:102070003C4C0FCCACE80F0094E80F00ACE8070034
:102080002CF8023B1B0C8CF8003000238DF81F301D
:102090007DB12C46284618F093FC042820D100225C
:1020A000032A26DCA35C303BDBB2092B1DD80132AE
:1020B000F6E72D4803F054FC6846FEF77FFA58B166
:1020C0009DF800301BB9294803F04AFC0BE0694633
:1020D000274803F045FC06E0264803F041FC02E0F7
:1020E000254803F03DFC09B030BD244803F038FC1E
:1020F000F9E72349684618F033F9054610B304227E
:10210000214617F07DFF00232B7169461D4803F01F
:1021100027FC1D4803F024FC41F28830FFF748FCFF
:10212000A0B96846FEF7E4F9A0B16946174803F084
:1021300017FC6846FEF742FA80B169460C4803F086
:102140000FFCD0E7124803F00BFCCCE7114803F07A
:1021500007FCC8E7104803F003FCEAE70F4803F068
:10216000FFFBC0E710BD021034110210681102100D
:10217000A0110210B4110210DC1102101012021092
:102180003812021084120210A41202100813021056
:1021900040120210E0120210281302105413021011
:1021A00010B50D4803F0DCFB002408E00B4A0C4B93
:1021B00053F8243021460B4803F0D2FB01341D2C88
:1021C00008DC4FF050435A680123A3401A42EDD077
:1021D000054AECE710BD00BF7C1302107813021013
:1021E00074C403108C1302107413021008B506F0A7
:1021F000F1FD08BD08B506F08FFE08BD08B506F074
:1022000053FD08BD08B506F0B9FD08BD08B506F0D8
:1022100031FD08BD08B506F0EFFF08BD08B506F0B2
:10222000F1FF08BD2DE9F041ADF5805D84B0804639
:102230000F46046901F1805505F58015284803F023
:102240008FFB284803F08CFB29466B6A01930097AB
:102250002B6A11F8012B244803F082FB296AA14262
:102260000CD1224E3E44002203920022002340461D
:1022700011F000FE01204FF480571CE01C4803F0D1
:102280006FFB04200DF5805D04B0BDE8F08104A96A
:102290000B1F3A46404611F087FB054688B904A952
:1022A00051F8045C2A46304617F002FDB0FA80F07F
:1022B0004009641B2E446CB160B1BC42E7D2274692
:1022C000E5E716F017F901462A460A4803F048FBED
:1022D0000020D7E708B90220D4E70120D2E700BFE9
:1022E000A4130210F01302103C1402102800101066
:1022F00064140210B01402102DE9F041ADF5955DA3
:1023000086B006460F46012201460EA811F0A6F936
:1023100028B93146A6A818F03FFA002516E0044671
:1023200016F0E8F8024623463146A24803F018FBAF
:102330000DF5955D06B0BDE8F081AEAC2C4414F807
:10234000200C17F011F804F8200C0135A6A818F09D
:1023500037FBA842F1D82E21A6A817F083FE044629
:10236000129D03462A463146934804F023F92F2153
:10237000304617F077FE00B1461C9049204618F011
:102380002DF900284BD04FF000088D49204618F059
:1023900025F908B94FF003088A49204618F01EF9BC
:1023A00008B94FF004088849204618F017F908B911
:1023B0004FF005088549204618F010F908B94FF08C
:1023C00006088349204618F009F908B94FF00708B4
:1023D0008049204618F002F908B94FF008087E49F4
:1023E000204618F0FBF820B3B8F1000F1AD03046A1
:1023F000FEF76CFA0446B0F1FF3F40D00146774843
:1024000003F0AEFA022F33D121460EA8FFF70AFFE0
:10241000042830D8DFE800F017102F251E004FF0F9
:102420000108B2E76E4803F09BFA0EA811F078FCA1
:102430007EE74FF00908DAE76A4803F091FA0EA840
:1024400011F06EFC74E7684803F08AFA0EA811F0E8
:1024500067FC6DE7654803F083FA0EA811F060FC95
:1024600066E7634803F07CFA0EA811F059FC5FE7B9
:10247000604803F075FA0EA811F052FC58E70020EE
:10248000FEF70CFAB0F1FF3F60D029460020FEF7BE
:10249000C1F90746B0F1FF3F5FD0C0F5700305F505
:1024A0008072934260D304AC8DF8108031460DF1F8
:1024B000110018F071F90C9507F1805303F58013A2
:1024C0005A6A1B78FF2B56D00D92012205F1280184
:1024D0003846FEF7E7F80146B0F1FF3F52D1AEAC07
:1024E00004AE0097336A32780DF11101424803F0CF
:1024F00037FA4FF48052FF21204617F085FC0FCEAB
:102500000FC40FCE0FC496E8030084E8030003ABAA
:1025100040F6D872B8A90EA811F046FA0446002871
:102520003DD1AEA9A1F52B76336803F2271323F032
:10253000FF04EFF3108872B6224607F580101DF0F5
:102540002BF988F310883668AE1B76E02B4803F031
:1025500007FA0EA811F0E4FBEAE6294803F000FAB6
:102560000EA811F0DDFBE3E6264803F0F9F90EA80A
:1025700011F0D6FBDCE605F2271323F0FF033B4402
:102580006362A2E7204803F0EBF90D9A39461F4831
:1025900003F0E6F90D993846FEF7ECF99FE715F0E0
:1025A000A9FF014622461A4803F0DAF90EA811F0F5
:1025B000B7FBBDE6E8140210041602103415021031
:1025C0003C150210441502104C150210541502104F
:1025D0005C150210641502106C1502103C160210F6
:1025E000741502106016021088160210C015021031
:1025F000A4160210E4160210CC17021014170210D1
:10260000301702105817021084170210A417021076
:10261000B0140210FF3424F0FF04EFF3108872B6F8
:10262000AEAD2246294607F580101DF0B5F888F3B7
:102630001088A5F52B752B68F61A002E12DDAEADAD
:102640004FF48052FF21284617F0DEFB03AB4FF416
:10265000805229460EA811F0A7F9274403AD2C6833
:10266000002CD7D10EA811F05BFB61E630B5ADF5BB
:10267000337D0546FEF770F868B3FF22002172A88B
:1026800017F0C2FB2B7833B9FF2172A811F05DFB64
:10269000044648BB72AD2946344803F061F958221C
:1026A00000215CA817F0B0FB4FF49072002114A831
:1026B00017F0AAFB05B32E4B2A4614A95CA811F00B
:1026C000DEFD044640B315F015FF014622462948B9
:1026D00003F046F947E0284803F042F94FF47051FF
:1026E000264803F03DF93EE015F004FF014622467E
:1026F000234803F035F936E0224B234A40F2E1410A
:1027000022480AF09DFA00216846FFF7F5FD14A95A
:102710005CA811F09DFD044614BB9DF86A30FBB126
:1027200000214FF0FF300CF0D7FA2946684618F028
:1027300033F8684618F044F9154B1B882DF8003023
:102740000DF16A01684617F0D3FB9DF85C3013F079
:10275000100FD8D00DF16A010E4803F001F9D6E749
:102760005CA811F02CFD0DF5337D30BD90180210E2
:10277000B8090210201902100418021040180210A3
:102780006C180210B0180210B8180210E0180210ED
:10279000441902104819021070B506460C46154639
:1027A000FFF70EFC88B1012C13D0012D12D0042CA0
:1027B00015D0042D13D0022C18D0022D15D0032CC7
:1027C00014D0032D0FD0002410E00B4803F0C8F8FC
:1027D00010E02C4621463046FFF748FF0AE0074844
:1027E00003F0BEF806E02C4600E02C4621463046B9
:1027F000FFF782FD70BD00BF641902109C19021022
:1028000030B583B0044645886DBAADB2018849BA87
:1028100089B2374803F0A4F82946364803F0A0F8F7
:10282000E188A38803F47F4202EB11225BBA9BB2DA
:10283000FF2B2BD892B2B2F5805F2FD355BB2E4819
:1028400003F08EF804F58054B4F8FC0FC0F30520B3
:102850002A49B4F8FA2FC2F30522B4F8F83FC3F3BB
:102860000523B4F8F65FC5F305254D5D0095CB5CF7
:102870008A5C095C224803F073F8B4F8FE1F49BA79
:1028800089B2204803F06CF803B030BD1E4803F055
:1028900067F8D7E71D4803F063F8D3E7002DCED0E3
:1028A00002F10043013B34F813305BBADBB2002085
:1028B0003F2B0FD80F280DDC03F03F030F49C95CF5
:1028C000134B19540130531E1B1A34F813305BBAE2
:1028D000DBB2EDE703F03F030849CB5C0C490B5436
:1028E000013000230B540B4803F03AF8AAE700BF6D
:1028F000BC190210D0190210201A021064520310E1
:10290000801A02109C1A0210E4190210001A021018
:10291000CC610020481A021010B501EB810C01F0C7
:1029200003014900C1F1080EFF2303FA01F2C1F1CE
:1029300006042341CCF38F0C10F80C4022400A41CE
:10294000604441780B4003FA0EF39BB213FA82F015
:1029500080B210BD2DE9F04383B0074690F8B882ED
:1029600001465E4802F0FCFF791D5D4802F0F8FF69
:1029700097F8B8125B4802F0F3FF00263AE05A4895
:1029800002F0EEFF05E0B9F1000F73D1574802F0F5
:10299000E7FF04F5805494F8FD3394F8FE5305F0F6
:1029A0003F052D0105EB131505F03F05504994F83F
:1029B000FC23920894F8FB0300F03F0094F8F9C35D
:1029C00094F8FA339B0003EB9C1303F03F03CB5CBA
:1029D00000930B5C8A5C495D464802F0C1FF94F8A5
:1029E000FE1394F8FF339B0003EB9111424802F071
:1029F000B7FF013646456EDA42F6640505FB0675FB
:102A000005F2D92231463D4802F0AAFF41F21D727B
:102A1000AC18637894F8029009F00F094FEA89190D
:102A200009EB9309A95C03F0030301EB032134488C
:102A300002F096FF4946334802F092FFE378257989
:102A4000AD0005EB9315A27803F03F031B0103EBE8
:102A50001213DAB2120252FA85F5ADB2FF2B8ED8FC
:102A6000B5F5805F8FD3B9F1000F8FD0264802F003
:102A700077FF8EE7691E89B22046FFF74DFFC0B28F
:102A80004FF0000911E000F03F00194B1A5C1F4B9A
:102A900003F8092009F10109A5EB090189B20139FF
:102AA00089B22046FFF738FFC0B23F2802D8B9F1FB
:102AB0000F0FE8DD00F03F000D4B1B5C134901F8E0
:102AC000093009F10109002301F809302A461048AC
:102AD00002F046FF5DE703B0BDE8F083B41A0210D0
:102AE000C81A0210DC1A0210E4190210201A02108F
:102AF00064520310801A02109C1A0210F01A02107D
:102B0000BC190210D0190210001A0210CC6100206A
:102B1000041B02102DE9F043C1B08146014638483C
:102B200002F01EFF09F10501364802F019FF99F87D
:102B3000B812354802F014FF4FF000084446B8F1CF
:102B4000000F02DD41B0BDE8F08342F6640707FBE9
:102B5000089707F5B8571D372C4802F001FF2C489D
:102B600002F0FEFE2B4802F0FBFE39E0214638461B
:102B7000FFF7D2FE0246284901A8284409F0C8FF01
:102B800005350134A4B201360F2EEFDD103CA4B29E
:102B900001AB5919214A1088927858538A7002352E
:102BA000002608E01E4901A8284409F0B1FF0135BC
:102BB0000134A4B201360F2E0BDC21463846FFF754
:102BC000ABFEC2B2A2F12003DBB25E2BEAD92E2209
:102BD000E8E701A9134802F0C3FEB4F5805F0CD208
:102BE00000214FF0FF300CF077F822460E4901A883
:102BF00009F08EFF00260A25C6E708F101089EE7C6
:102C0000B41A0210C81A0210DC1A02103C1B02107F
:102C1000541B0210BC1B021088050210301C02104D
:102C200024FB0110001B0210281C021010B588B0F4
:102C30000138052806D8DFE800F003075D9194BA53
:102C400006F0C6FB08B010BD0C46084617F0B8FEEB
:102C50000C2803D0584802F083FEF3E703238DF8D5
:102C60000C302378303BDBB21B01DBB262781344BB
:102C7000303B8DF81330A378303BDBB21B01DBB265
:102C8000E2781344303B8DF812302379303BDBB2CD
:102C90001B01DBB262791344303B8DF81030002207
:102CA0008DF81120A379303BDBB21B01DBB2E17957
:102CB0000B44303B8DF80F30237A303BDBB21B01E5
:102CC000DBB2617A0B44303B8DF80E30A37A303B97
:102CD000DBB21B01DBB2E17A0B44303B8DF80D30E7
:102CE0000092082303AA682134480AF013FF3448ED
:102CF00002F036FE03A806F0F5FB9DF812309DF8B1
:102D000014209DF815102F4802F02AFE9DF80F3070
:102D100003F07F039DF810209DF811102A4802F05F
:102D20001FFE9DF80E10294802F01AFE9DF80E3085
:102D300013F0040F0AD1264802F012FE9DF90F305D
:102D4000002B07DB234802F00BFE7BE7224802F052
:102D500007FEF3E7214802F003FE73E706F094FB59
:102D600070E703A806F0BEFB0024132C0ADC04F174
:102D700020036B4413F8142C2146194802F0F0FD8F
:102D80000134F2E79DF812309DF814209DF81510DB
:102D90000C4802F0E5FD9DF80F3003F07F039DF82D
:102DA00010209DF81110084802F0DAFD4AE70D489E
:102DB00002F0D6FD46E700BF341C02106C3700203D
:102DC000701C02107C1C0210A01C0210C41C0210FB
:102DD000D41C0210001D0210E81C0210281D021055
:102DE000681D02107C1D02102DE9F04198B00746C5
:102DF0000C46FDF7B1FC70B3002C51D02046FDF716
:102E000065FD0546B0F1FF3F30D000F1805404F578
:102E10008014584802F0A4FD574802F0A1FD214655
:102E200011F8012B236A606A01900095534803F062
:102E3000C1FB2378FBB17F2B21D0514802F090FDDC
:102E40002378032B1FD0013BDBB2012B20D94D4847
:102E500002F086FD07E04C4802F082FD4FF470510D
:102E60004A4802F07DFD18B0BDE8F081214648488F
:102E700002F076FDF7E7474802F072FDF3E74648B7
:102E800002F06EFDEFE745482844FFF7B9FCEAE79A
:102E9000424C6019FFF75EFD6019FFF73BFEE2E769
:102EA000344802F05DFD344802F05AFD4FF000084E
:102EB000454619E0C5F570044146394802F050FD19
:102EC0002946384802F04CFDA20A4FF470013648FA
:102ED00002F046FDC7E72F4803F06CFB284802F0DC
:102EE0003FFD022F2AD0656AB5F5700FBBD20021D5
:102EF0004FF0FF300BF0F0FE05F1805404F5801424
:102F00002378FF2BD6D004AE626A02920195226A22
:102F10000092621C1949304609F0FAFD304603F070
:102F200049FB08F101022378002BD4D07F2B01D07C
:102F30009046D3E7184803F03DFBCFE72278531EB5
:102F4000DBB2012B06D9032ACDD114482844FFF760
:102F500057FCC8E7114E2E443146144802F000FDDC
:102F6000711D134802F0FCFC96F8B812114802F0EB
:102F7000F7FCB8E7B81D0210F01302103C14021061
:102F80003478021074150210041802104018021050
:102F9000A01D0210041E02101C1E0210280010109A
:102FA000301E0210681E0210A41E0210B41A021075
:102FB000C81A0210DC1A02102DE9F04383B006464D
:102FC0000C4615461F46FEF7FBFF002800F0068161
:102FD0008046731F012B40F2DF8005EB4502F4238E
:102FE00004FB03F303EB0213A34A13441B8913F0FE
:102FF000010F0DD12146A048FEF753FB70B9731E97
:10300000052B00F2EB80DFE803F00E395A7BC7C7CF
:103010002A462146994802F0A3FCDFE02146984861
:1030200002F09EFCDAE0944BF42202FB04331B8F87
:1030300013F0010F1DD1934802F092FC8E4C40F228
:103040001713A4F8E4360023C4F8DC36012584F80D
:103050009C578D4BC4F8E0361F228C4B196804F244
:10306000E66016F0CDFF2046FEF76EFB884B9D8094
:10307000B4E02146874802F073FCAFE07E4BF422B7
:1030800002FB04331B8F13F0010F13D1824802F0AF
:1030900067FC794C814B009340F217130122062103
:1030A0002046FEF75BFA2046FEF74EFB784B0022E7
:1030B0001A8093E02146774802F052FC8EE06E4B76
:1030C000F42202FB04331B8F13F0010F13D1744859
:1030D00002F046FC684C734B009340F21713012238
:1030E00006212046FEF73AFA2046FEF72DFB684BF4
:1030F00001221A8072E02146664802F031FC6DE040
:103100003846FDF7E3FB8046B0F1FF3F26D02B4663
:1031100022463946644802F023FC08F1805606F541
:103120008016624802F01CFC614802F019FC31462E
:1031300011F8012B336A706A0190CDF800805D4868
:1031400002F00EFC3378032B0DD03378013BDBB259
:10315000012B43D8584802F003FC3FE0394657485A
:1031600002F0FEFB3AE0564F07EB0800FFF748FB82
:1031700007EB080208F12801524802F0F1FB3E4F2C
:10318000CDF8008017232A4621463846FEF7BAF9C3
:103190003846FEF7D9FAD8E73846FDF797FB0446DC
:1031A000B0F1FF3F1DD000F1805505F580153F4877
:1031B00002F0D6FB3E4802F0D3FB294611F8012B62
:1031C0002B6A686A019000943A4802F0C9FB2B7898
:1031D000032B0BD0013BDBB2012B49D903B0BDE877
:1031E000F0833946354802F0BBFBF7E7344D281928
:1031F000FFF706FB2A1904F12801334802F0B0FB5F
:103200004FF00009082500E001350F2D12DCB9F15F
:10321000000F0FD1184BF42202FB05331B8F13F064
:10322000010FF1D129461448FEF73BFA0028EBD1F3
:10323000C146EAE7B9F1000F12D03A4629462348C1
:1032400002F08EFB062E0FD00B4E009417230122A6
:1032500029463046FEF756F93046FEF775FABDE7C7
:103260001B4802F07DFBB9E71A4802F079FBB5E78D
:10327000114802F075FBB1E7B4620020F41E0210A1
:10328000301F02109C1F021074A40310E46303108B
:1032900080AC0020681F0210C41F02107484031049
:1032A000F41F02107464031020200210B81D0210D5
:1032B000F01302103C14021078200210A01D02101E
:1032C0002800101048200210A02002101C2102101B
:1032D000E42002103821021070B506460C46FEF7B5
:1032E0006FFE002800F0A780012E44D0022E4FD0A0
:1032F00031465848FEF7D5F9002874D1002C00F06B
:103300008D8004EB4402F42306FB03F303EB02136A
:10331000504A13441B8913F0010F00F08D802246A0
:1033200031464C48FEF766F9224631464A4802F0DB
:1033300017FB79E0224629464648FEF75BF901343F
:10334000042C13DC04EB4402F42305FB03F303EB2E
:103350000213404A13441B8913F0010FEFD0294692
:103360001046FEF79EF90028E9D1E3E701350F2D5D
:1033700003DC3446E4E70425F9E7384B00221A80E1
:103380009A803448FEF7E0F9354802F0E9FA52E055
:10339000344802F0E5FA042516E00134042C12DC6E
:1033A00004EB4402F42305FB03F303EB0213294A65
:1033B00013441B8913F0010FEFD0224629462548FC
:1033C000FEF718F9E9E701350F2D01DC0124E5E7E7
:1033D000224B00221A809A801E48FEF7B5F9224837
:1033E00002F0BEFA27E03146204802F0B9FA22E0A6
:1033F0000134042C14DC04EB4402F42306FB03F335
:1034000003EB0213134A13441B8913F0010FEFD08F
:10341000224631460F48FEF7EDF8E9E70124E8E7D8
:103420003146134802F09CFA062E0BD0072E0DD021
:103430000848FEF789F970BD224631460D4802F072
:103440008FFAF8E7054B00221A80F1E7034B0022C0
:103450009A80EDE7B46200206022021080AC002068
:103460006421021098210210D021021004220210BF
:10347000402202107C2202102DE9F041ACB0064639
:103480000F46904620AC8F4D0FCD0FC40FCD0FC40B
:1034900095E80F0007C4238018AC8B4D0FCD0FC4E7
:1034A00095E80F0084E80F000DF1280C874C0FCC35
:1034B000ACE80F000FCCACE80F000FCCACE80F006D
:1034C00094E803004CF8040B8CF8001003AC804D1A
:1034D0000FCD0FC495E8070003C42270FEF770FDFE
:1034E000002846D0062E10D07A4BF42202FB073378
:1034F0001B8F13F0010F0FD1013E052E00F2DD806E
:10350000DFE806F00F0F3F658BC13B1F0B2BEBD99C
:10351000714802F025FA2CE03946704802F020FA92
:1035200027E005216B48FEF7BCF828BB694C8023D7
:10353000A4F8FC340026C4F8F464012384F8B435FC
:10354000674BC4F8F83404F2FE451F22654928464B
:1035500016F056FD84F81D651F2218A9284616F09E
:103560004FFD5C48FEF7F0F8424639465E4802F0EF
:10357000F7F92CB0BDE8F08139465C4802F0F0F96B
:10358000D4E705215348FEF78CF8D8B9514C802375
:10359000A4F8F0350026C4F8E865012384F8A836BD
:1035A0004F4BC4F8EC3504F2F2551F224D49284622
:1035B00016F026FD84F811661F220AA9284616F087
:1035C0001FFDCEE739464A4802F0CAF9DEE7072177
:1035D0004048FEF766F8D8B93E4C8023A4F8E4369C
:1035E0000026C4F8DC66012384F89C373C4BC4F801
:1035F000E03604F2E6651F223A49284616F000FD3F
:1036000084F805671F2203A9284616F0F9FCA8E7ED
:103610003946384802F0A4F9DEE74FB339462D4861
:10362000FEF73FF850B32B4C012239462046FDF7F8
:10363000E1FF002239462046FDF7DCFF39462E48DF
:1036400002F08EF995E701340F2C13DC2146214856
:10365000FEF727F80028F6D01E4D01222146284605
:10366000FDF7C8FF002221462846FDF7C3FFEAE721
:103670000424E9E7214802F073F97AE73946204843
:1036800002F06EF975E739461248FEF70AF878B984
:10369000104C002300938023012239462046FDF779
:1036A00031FF4346012239462046FDF7D3FF58E754
:1036B0003946144802F054F95BE7134802F050F918
:1036C00057E700BFB8240210E824021008250210B2
:1036D00040250210B4620020A0220210C422021071
:1036E00028001010010010109C240210F822021073
:1036F0003C23021080230210E8230210C42302108E
:103700000C240210382402107C2402102DE9F0470A
:10371000D0B00546E0B10F4601EB4102F42300FBB7
:1037200003F303EB0213B94A13441B8913F0010F8F
:1037300000F063810146B548FEF7F2F8B44802F0A4
:103740000FF92D03AEB206F580581FFA88F8B0E1E4
:10375000B04802F005F9B04802F002F9AF4802F0B3
:10376000FFF82E461FE004EB4403F42206FB02F2AE
:1037700002EB0312A54B13440B449A7A46AB5A54FE
:1037800001311F29EFDD04EB4404F42306FB03F3AE
:1037900003EB04139D4A1A4446AB12893146A048F4
:1037A00002F0DEF801360F2E00F32C810124042CE8
:1037B000F8DC31469548FDF774FF18B1012C01D1B2
:1037C0002946DEE704EB4402F42306FB03F303EB94
:1037D00002138E4A13441B8913F0010F2FD013F4E8
:1037E000807F2ED040F0A580224631468D4802F0E1
:1037F000B7F80134DBE704EB4403F42206FB02F2E2
:1038000002EB0312814B13440B449A7A46AB5A5491
:1038100001311F29EFDD012CEBD104EB4402F4232D
:1038200006FB03F303EB0213784A13441B8946AAF1
:103830000092224631467C4802F092F8D9E72946A8
:10384000E7E74EAB224631467048FDF7B5FF012C45
:1038500032D0DFF8B881224631464046FDF78CFF72
:103860000746224631464046FEF73AF8014604EB49
:103870004402F42306FB03F303EB021308EB0302F9
:1038800010890833434402330F2E4ED8042C4ED8EF
:1038900004EB440CF42206FB02F202EB0C1258F883
:1038A000022003920293019000914EAB3A462146CA
:1038B0005E4802F055F89CE7DFF850812246314619
:1038C0004046FDF759FF0746224631464046FEF77F
:1038D00007F8014604EB4402F42306FB03F303EB71
:1038E000021308EB030210890833434402330F2EFE
:1038F00017D8042C17D804EB440CF42206FB02F270
:1039000002EB0C1258F802200492039302900191EA
:103910004EAB00933B4622463146454802F020F824
:1039200067E70022F0E70022EEE70022B9E7002275
:10393000B7E74FEA06394EAB224631463348FDF72A
:103940003BFF012C2BD01FFA89F9E3B2DFF8BC80D2
:103950001F461A46494640461BF05AFF824609F167
:1039600001013A4689B240461BF052FF04EB440283
:10397000F42306FB03F303EB021308EB03021189A4
:10398000083343440233526803920293019100903A
:103990004EAB52462146274801F0E2FF29E71FFAC5
:1039A00089F9E3B2DFF864801F461A46494640466B
:1039B0001BF02EFF824609F101013A4689B24046CA
:1039C0001BF026FF04EB4402F42306FB03F303EB96
:1039D000021308EB0302118908334344023352688F
:1039E00004920393029101904EAB009353462246FA
:1039F0003146114801F0B4FFFBE60A4601460F4884
:103A000001F0AEFF50B0BDE8F08700BFB462002007
:103A1000183A02105C25021070250210A825021029
:103A2000F0250210F026021030260210B0260210F7
:103A3000702602107C2702103C270210BC270210BF
:103A40007119FAB289B21F481BF0E2FE02461E4904
:103A500007A8204409F05CF8044401350F2DEFDD80
:103A600007AB1919194A1088927818538A700234D2
:103A7000002506E0164907A8204409F049F801345A
:103A800001350F2D0DDC7119FAB289B20D481BF00A
:103A9000BFFEC2B2A2F12003DBB25E2BEAD92E2216
:103AA000E8E71036B6B207A90A4801F059FFB04559
:103AB000A8D93246084907A809F02AF800250A249F
:103AC000CCE700BFB4620020E0270210301C0210D7
:103AD00024FB0110001B0210281C021038B50446FC
:103AE0000D46FEF76DFA002840D0601E03283AD834
:103AF000DFE800F002304455504801F031FF504BF0
:103B00009B880BB14F4900E04F49504801F028FF16
:103B10004B4B1B880BB14B4900E04B494C4801F023
:103B20001FFF042400E001340F2C1CDC494BF4225D
:103B300002FB04331B8F13F0010FF4D0454B02FB43
:103B4000043393F9F030002BEDDA2146424801F0BE
:103B500007FFE8E73A4B9B884BB9394B01229A8023
:103B60003E4801F0FDFE3648FCF7C8FB38BD344B3B
:103B700000229A803A4801F0F3FEF4E7304B1B88AC
:103B800033B92F4B01221A80364801F0E9FEEAE7EB
:103B90002B4B00221A80344801F0E2FEE3E72D4B64
:103BA000F42202FB05331B8F13F0010F24D0294BA5
:103BB000F42202FB053393F9F030002B21DB05F0F2
:103BC000FE01244CF42303FB014090F8F02062F046
:103BD0007F0280F8F02001FB0333234493F8F020A8
:103BE00062F07F0283F8F0204A1C204801F0B8FE02
:103BF0002046FDF7A9FDB6E729461D4801F0B0FEB5
:103C0000B4E705F0FE01134C134602FB014090F8A7
:103C1000F02002F07F0280F8F02001FB0333234400
:103C200093F8F02002F07F0283F8F0204A1C11483C
:103C300001F096FE2046FDF787FD94E7E827021085
:103C400080AC002018440210E4280210FC27021067
:103C500018280210B4620020342802106C280210C8
:103C600088280210A4280210C82802107029021007
:103C7000F02802102C29021070B582B00546FCF71E
:103C800025FEB0F1FF3F28D00446FEF799F948B36E
:103C900004F1805606F580162946184801F060FEAA
:103CA000174801F05DFE174801F05AFE164801F072
:103CB00057FE314611F8012B336A706A0190009467
:103CC000124801F04DFE00212046FCF71FFE78B19E
:103CD00029460F4801F044FE08E029460D4801F04E
:103CE0003FFE03E029460C4801F03AFE02B070BDE9
:103CF00029460A4801F034FEF8E700BFDC2902102B
:103D0000FC290210B81D0210F01302103C1402101E
:103D1000302A0210A01D0210B4290210502A0210ED
:103D200010B509281FD004460A281ED0A44B1B88B2
:103D300073B3013C072C15D8DFE814F02E00C40043
:103D4000DC00EB00FA00070124013901E0B204F0C5
:103D5000DDFB0D2004F0DAFB0A2004F0D7FB013470
:103D6000592CF3DD10BD4124FAE701F0D1FB0A2004
:103D700006F0A8FC4FF050435B6813F0005F05D0DD
:103D8000904A1D21904801F0EBFDEBE78F4AF8E7E0
:103D90008F4801F0E5FDCCE7894BB3F8A6306BB155
:103DA00088498C4801F0DCFD854BB3F8A030032B2B
:103DB00000F28280DFE803F00474787C8349F0E746
:103DC000854801F0CDFD854B1B78002B78D08449C8
:103DD000844801F0C5FD844C2188844801F0C0FD71
:103DE0002188C90B824801F0BBFD2188C1F38031D5
:103DF000804801F0B5FD2188C1F340317E4801F0D3
:103E0000AFFD2188C1F300317C4801F0A9FD218874
:103E1000C1F3C0217A4801F0A3FD2188C1F38021BC
:103E2000784801F09DFD2188C1F34021764801F0DA
:103E300097FD2188C1F30021744801F091FD21888C
:103E4000C1F3C011724801F08BFD2188C1F38011CC
:103E5000704801F085FD2188C1F340116E4801F0E2
:103E60007FFD2188C1F300116C4801F079FD2188A4
:103E7000C1F3C0016A4801F073FD2188C1F38001DC
:103E8000684801F06DFD2188C1F34001664801F0EA
:103E900067FD218801F00101644801F061FD61E7DF
:103EA000634801F05DFD8EE7624801F059FD8AE745
:103EB000614801F055FD86E7604801F051FD82E759
:103EC0005F4985E73E4BB3F8A63063B13C4B002217
:103ED000A3F8A6203A4BB3F8A6304BB139493D4878
:103EE00001F03EFD3EE7364B0122A3F8A620F1E7A4
:103EF0003649F4E73C4A13886FEA43436FEA534379
:103F000013802F4B0222A3F8A0204E4801F028FD79
:103F100028E7354A1388C3F30D0343F48043138025
:103F2000274B0122A3F8A020474801F019FD19E70B
:103F30002D4A1388C3F30D031380214B0022A3F8ED
:103F4000A020424801F00CFD0CE7274A138883F4B7
:103F500000639BB213801A4AB2F8A4205AB1184ADF
:103F60000021A2F8A41013F4006F09D01C493848AE
:103F700001F0F6FCF6E6124A0121A2F8A410F2E7DD
:103F80002F49F4E70E4B1B881BB9324801F0E8FCBF
:103F9000E8E6154A138843F4005313802E4B02229F
:103FA0001A6001F0DBFA2D4801F0DAFCDAE6044B86
:103FB0001B88002B54D1274801F0D2FCD2E600BF69
:103FC00080AC0020742A02107C2A0210782A021089
:103FD000982A0210F42A0210082B021062B2002064
:103FE00014430210842B021034330020982B02104B
:103FF000B02B0210E42B0210342C0210642C02109F
:104000009C2C0210C82C0210F42C0210182D021047
:10401000442D0210742D0210B82D0210E82D02104C
:104020001C2E02104C2E02107C2E0210B02E0210FC
:10403000202B0210382B0210502B0210682B02107C
:1040400028FB0110E42E0210002F02101C2F02107A
:10405000382F02105C2F021090B100208C2F02101C
:10406000064A138843F480531380054B02221A60DA
:1040700001F074FA034801F073FC73E63433002056
:1040800090B10020A82F021010B584B00446FDF7AF
:1040900097FF80B1601E0B280DD8DFE800F0060EF8
:1040A00032560C0C0C0C0C6E757C414BB3F878102E
:1040B000404801F055FC04B010BD3F4801F050FCF1
:1040C0003B4BB3F878103B4801F04AFC002400E079
:1040D0000134B4F5007FEEDA04F570520823009342
:1040E0006B44D200052135481BF08AFB029A039BE2
:1040F00052EA0301ECD004F50071314801F030FCC4
:10410000E6E729A3D3E90023CDE90223002412E046
:10411000029B13F10133039A42F10132029303929D
:1041200004F57052082300936B44D2000521234804
:104130001BF08AFB0134B4F5007FE9DB214801F074
:104140000FFC214801F00CFCB5E700220023CDE96B
:10415000022300240AE004F57052082300936B4404
:10416000D200052115481BF06FFB0134B4F5007F28
:10417000F1DB164801F0F4FB9DE70D480023A0F8A1
:104180007830FCF7BBF896E709480123A0F87830AF
:10419000FCF7B4F88FE706480223A0F87830FCF764
:1041A000ADF888E7AFF300804140414041404140D5
:1041B00080AC0020C42F0210E02F02100000084045
:1041C00014300210283002105C30021078300210D7
:1041D00038B50C4601380A2855D8DFE810F00B0036
:1041E00063008A00AC00BA00CA00DA00EA00FA00F4
:1041F0000A0118018C4DB5F854102C2404FB01F26F
:10420000920A8A4801F0ACFBB5F8561004FB01F2A3
:10421000920A874801F0A4FBAB8F002B34D085496C
:10422000854801F09DFB804BB3F85030002B2DD01A
:104230008049824801F094FB7B4BB3F846303BB396
:104240007C497F4801F08CFB774BB3F852300BB3BD
:1042500078497C4801F084FB734BB3F86630DBB1DE
:104260007449794801F07CFB6F4BB3F86830ABB10F
:104270007049764801F074FB6B4BDB8F83B16D495D
:10428000734801F06DFB38BD7249C9E77149D0E749
:104290007049D6E76F49DCE76E49E2E76D49E8E728
:1042A0006C49EDE7FDF78CFED8B15F4BB3F85410C5
:1042B0002C2201FB02F2684801F052FB002CE2DDE7
:1042C000A4F57A7242F228339A420ED8564DA5F8D8
:1042D00054402146614801F043FB2846FCF70EF8A4
:1042E000D1E75F4801F03CFBCDE75E4801F038FBC9
:1042F000C9E7FDF765FEB0B14B4BB3F856102C2261
:1043000001FB02F2584801F02BFB002CBBDDA4F1AD
:104310002003E02B0BD8444BA3F8564021465348CA
:1043200001F01EFBAFE74E4801F01AFBABE7504827
:1043300001F016FBA7E73C4A938FB3FA83F35B09BE
:10434000938723B13B494B4801F00AFB9BE7414966
:10435000F9E7354AB2F85030B3FA83F35B09A2F8B3
:10436000503023B13349444801F0FAFA8BE7394918
:10437000F9E72D4AB2F84630B3FA83F35B09A2F8A5
:10438000463023B12B493D4801F0EAFA7BE7314939
:10439000F9E7254AB2F85230B3FA83F35B09A2F881
:1043A000523023B12349364801F0DAFA6BE7294944
:1043B000F9E71D4AB2F86630B3FA83F35B09A2F855
:1043C000663023B11B492F4801F0CAFA5BE7214947
:1043D000F9E7154AB2F86830B3FA83F35B09A2F83B
:1043E000683023B11349284801F0BAFA4BE719495C
:1043F000F9E70D4AD38FB3FA83F35B09D38723B16F
:104400000C49224801F0ACFA3DE71249F9E7FDF703
:10441000D7FD00283FF437AF0348FBF76FFF1C4878
:1044200001F09EFA2FE700BF80AC0020A4300210FC
:10443000D8300210244102100C3102102C3102102D
:10444000703102109C310210C4310210E4310210AC
:1044500004320210E428021060320210C43202104A
:10446000243202108C3202101833021080330210F2
:1044700048330210A8330210C4330210043402106F
:104480002C340210503402106C34021088340210A4
:10449000A43402102DE9F041BAB004460D460020C4
:1044A0001BF0DAF906469F231F936022002120A803
:1044B00015F0AAFC06AF4FF06408424600213846CA
:1044C00015F0A2FC424639461FA81BF06DF99DF875
:1044D0001B30012101FA03F7FDF772FD002832D0ED
:1044E000631E042B2FD8DFE803F003364D5076000F
:1044F00038A808F005FF9DF8E3309DF8E4209DF80A
:10450000E5109DF8E6009DF8E740049403900291C1
:10451000019200939DF8E2309DF8E1209DF8E010B3
:10452000384801F01DFA3146374801F019FA1021D8
:10453000364801F015FA3A46002F07DB12153946C6
:10454000334801F00DFA3AB0BDE8F08107F57F225B
:1045500002F6FF72F2E72F4B9D420DD005F5805316
:104560002D4A13602C4B1A6829462C4801F0F8F9A3
:104570002846FCF7FBF8E6E7274B1D6805F5805257
:104580001A60EFE7FCF7AAF8DDE7254801F0E8F943
:104590004FF47A7400214FF0FF300AF09DFB0220A7
:1045A00006F090F8002003F098F868B9013CF1D1CA
:1045B0001C4801F0D5F9FCF74FF81B4801F0D0F981
:1045C0001A4801F0CDF9BEE7002003F08BF8184837
:1045D00001F0C6F9B7E70F4B9D420DD005F58053AA
:1045E000144A1360134B1A682946134801F0B8F9AE
:1045F000284601F013F9A6E70E4B1D6805F5805219
:104600001A60EFE7C4340210F834021020350210AB
:10461000543502104342414074AC002090350210E2
:10462000CC35021028360210403602105C360210DB
:104630001436021078AC0020A036021030B585B0D8
:1046400004460D46FDF7BCFCE8B1601E03281AD8ED
:10465000DFE800F0021B324B02A801F031F99DF8AF
:104660000B3000939DF80A309DF809209DF8081042
:104670002F4801F075F99DF80A10C1F38201CA01B3
:104680002C4801F06DF905B030BD2B4B9D420DD08B
:1046900005F58053294A1360284B1A682946284893
:1046A00001F05EF9284601F0B9F8ECE7234B1D68EC
:1046B00005F580521A60EFE7224801F051F9002019
:1046C00001F088F80146204801F04AF9002001F085
:1046D00081F844F24103984203D01C48FDF714F8D6
:1046E000D1E71B4801F03CF9CDE71A4801F038F951
:1046F0004FF47A7400214FF0FF300AF0EDFA0220F7
:1047000005F0E0FF002002F0E8FF50B9013CF1D1D4
:10471000114801F025F901F0E3F8104801F020F903
:10472000B1E7002002F0DEFF0D4801F019F9AAE719
:10473000DC360210043702104342414078AC0020BE
:10474000A0360210283702104C370210B462002045
:104750006437021090370210E4370210FC37021061
:10476000CC37021070B5224808F00DFC0025B5F5D5
:10477000005F10DA002C0EDB642008F0CDFB041E75
:10478000FADB1C4B5C55013515F03F0FEFD12E20A5
:1047900008F0EAFBEBE72946174808F023FC002362
:1047A00007E0164A116831F8132052BA21F8132095
:1047B0000133B3F5805FF4DB00260BE02A190F4BC1
:1047C0001B6833F812100E4808F00CFC01340F2C53
:1047D000F4DD01361E2E06DC35012946094808F0B5
:1047E00001FC0024F3E70A2008F0BEFB70BD00BF07
:1047F0000C380210CC4100203C380210D43200208A
:10480000880502107805021038B5314B1C682388E2
:10481000304D2B6063886B6004F58053B3F8FE3F26
:104820006B61FCF705F9A861A079A3881B029BB214
:104830001844A860A388FF2B15D800F10043013B62
:1048400014F8132000233F2A16D80F2B14DC02F093
:104850003F022149895C214AD1540133421ED21AB8
:1048600014F81220EFE71E4A1C4B07CA03C323F8B3
:10487000022B120C1A7008E002F03F021649895C04
:10488000164AD15401330021D154114B1A6802F554
:104890008052B2F8FC3F03F03F030F49C85C114B54
:1048A0001870B2F8FA0F00F03F00085C58702D2025
:1048B0009870B2F8F80F00F03F00085CD870B2F8BA
:1048C000F62F02F03F028A5C1A7100225A7138BD3D
:1048D000D4320020E4B1002064520310CC610020E7
:1048E00068380210DC61002010B5FFF78DFF10481A
:1048F00008F049FB0F4C21680A460F4808F072FB8C
:1049000061680A460D4808F06DFBA2680C490D4825
:1049100008F068FB0C490D4808F064FBA269616966
:104920000B4808F05FFB0A2008F01EFB10BD00BF1B
:1049300074380210E4B10020A0380210BC38021014
:10494000CC610020D8380210DC610020F838021059
:104950000C39021030B583B02F4808F014FB2F48F3
:1049600008F040FB00240DE02D4808F03BFB08E078
:10497000FFF74AFF2B4B2C4A2C4909682C4808F0BA
:1049800031FB0134092C1BDC21462A4808F02AFBA4
:10499000294B1A686303D25A4FF6FF739A42E3D049
:1049A0000023B3F5805FE3DA03EB0430234A126897
:1049B0002149096831F8101022F813100133F0E78B
:1049C000002403E0164808F00DFB0134092C1DDC1F
:1049D00021461B4808F006FB184D4FF40053009386
:1049E0002B686203052117481AF00AFF2B681A8802
:1049F0004FF6FF739A42E5D0FFF706FF094B0A4ACC
:104A00000A4909680A4808F0EDFADEE70A2008F0CA
:104A1000ABFA03B030BD00BF343902106439021064
:104A2000A4390210CC610020DC610020E4B1002038
:104A3000BC3902108C3902102C330020D4320020F3
:104A4000D03902100000084010B50446014608485D
:104A500008F0C8FAA4F13003092B02D81C46054B14
:104A60001C60044B1968044808F0BCFA10BD00BF74
:104A7000E8390210D0320020AC00021070B582B0CC
:104A800004465E4808F0AEFA5D4B09221A70032C0A
:104A900000F2AF80DFE804F002182E740026ADF8B3
:104AA00006600DF10605574C2946204605F0CEFF5D
:104AB000ADF806602946204605F0C8FF00F0B8FDB5
:104AC00000F04CFD02B070BDE023ADF806300DF1F2
:104AD00006054C4C2946204605F0B8FF8623ADF864
:104AE00006302946204605F0B1FF00F0A1FD00F098
:104AF00035FDE7E7B623ADF806300DF10605414C6C
:104B00002946204605F0A2FF1023ADF806302946BD
:104B1000204605F09BFF0123ADF8063029462046CC
:104B200005F094FFC623ADF806302946204605F06F
:104B30008DFF0026ADF806602946204605F086FF69
:104B4000F223ADF806302946204605F07FFFADF888
:104B500006602946204605F079FF5A23ADF8063055
:104B60002946204605F072FF9123ADF8063029460C
:104B7000204605F06BFF00F05BFD00F0EFFCA1E7C5
:104B80003E23ADF806300DF106051E4C29462046A1
:104B900005F05CFF1123ADF806302946204605F0EC
:104BA00055FF1023ADF806302946204605F04EFF8C
:104BB0007523ADF806302946204605F047FFC0238F
:104BC000ADF806302946204605F040FF0123ADF838
:104BD00006302946204605F039FF2F23ADF8063070
:104BE0002946204605F032FF00F022FD00F0B6FC19
:104BF00068E700F01DFD00F0B1FC63E7143A021015
:104C000077B200205C73002038B5002008F084F9EA
:104C100010F1020F67D00446394B1B78002B63D08C
:104C20001B2807D0043B052B5DD8DFE803F01F5C91
:104C30002C2E5C21324B00221A70324808F0A3F966
:104C400051E001350C2D4EDC05EB45032E4A12F8E0
:104C50002330A342F5D105EB45022B4B03EB820336
:104C60005B689847264B00221A70EAE70025E9E7BF
:104C7000A0F13003082B36D81846FFF7FFFE204B73
:104C800000221A702FE0462805D0A4F13003092B2A
:104C900007D900250DE0FFF765FD194B00221A70BA
:104CA000F3E72046FFF7D0FE154B00221A701AE0FA
:104CB00001350E2D17DC05EB4503144A12F823309D
:104CC000A342F5D105EB4502104B03EB82035B6871
:104CD00098470B4B00221A70EAE703EB430301EB02
:104CE00083035B68984738BD0023122BFBDC03EB82
:104CF0004302074911F82220A242EED00133F4E723
:104D000077B200201C3A0210503100209C30002065
:104D1000EC31002003460268EFF3108172B6D2E84E
:104D2000CFCF0120BCF1000FF9D1C2E84C0FBCF18C
:104D3000000FF4D1BFF35F8F18895A89801A02D50A
:104D4000DA890132104400221B68C3E88F2F81F3F7
:104D50001088704708B53C4808F015F93B4B3C4AB1
:104D6000196812683B4808F03DF93B4B3B4A19680B
:104D700012683B4808F036F93A4B3B4A196812680A
:104D80003A4808F02FF93A4B3A4A196812683A48FB
:104D900008F028F90A2008F0E7F8384B384A196873
:104DA0001268384808F01EF9374B384A19681268FB
:104DB000374808F017F9374B374A196812683748EF
:104DC00008F010F9364B374A19681268364808F06F
:104DD00009F9364808F0D7F8002002F018FC28B38B
:104DE0003349344808F0FEF8042002F010FC48B3C0
:104DF0002F49314808F0F6F8022002F008FCF8B11B
:104E00002B492E4808F0EEF8012002F000FCA8B172
:104E100027492B4808F0E6F8032002F0F8FB38B1E8
:104E2000BDE808402249274808F0DCB82649D8E701
:104E300025492448BDE8084008F0D4B82249E8E7ED
:104E40002149DEE72049D4E70C4702101C3300203B
:104E50002033002040470210143300201833002074
:104E600068470210E4320020E83200209047021028
:104E70000C33002010330020B84702100433002008
:104E800008330020E0470210FC32002000330020ED
:104E900008480210EC320020F032002030480210A6
:104EA000F4320020F832002058480210185902103D
:104EB000600E0210804802109C480210B848021090
:104EC000D4480210F0480210640E021008B51E48C3
:104ED00000F046FD1D4B1E4A196812681D4800F07F
:104EE0003FFD1D4B1D4A196812681D4800F038FD32
:104EF0001C4B1D4A196812681C4800F031FD1C4B00
:104F00001C4A196812681C4800F02AFD1B4B1C4AF9
:104F1000196812681B4800F023FD1B4B1B4A1968D7
:104F200012681B4800F01CFD1A4B1B4A19681268D6
:104F30001A4800F015FD1A4B1A4A196812681A48E7
:104F4000BDE8084000F00CBD0C4902101C330020E5
:104F50002033002040490210143300201833002071
:104F600064490210E4320020E8320020884902102F
:104F70000C33002010330020AC4902100433002011
:104F800008330020D0490210FC32002000330020FA
:104F9000F4490210EC320020F0320020184A0210CE
:104FA000F4320020F83200203C4A02102DE9F04F84
:104FB000CD4E89B00121306808F082FA0346CB4F0C
:104FC000CB4930683B6008F097FADFF88483012111
:104FD000C8F80000306808F073FADFF878A3C54914
:104FE000CAF80000306808F087FADFF86CB30121D6
:104FF000CBF80000306808F063FABF4BBF49186077
:10500000306808F079FABE4DBE4A01211060286868
:1050100008F056FABC49BD4C0860BD49286808F044
:105020006BFA01212060286808F04AFAB94BBA49A6
:105030001860286808F060FAB84A012110602868F2
:1050400008F03EFAB64CB7492060286808F054FAD8
:10505000B54B01211860286808F032FAB34AB44908
:105060001060286808F048FA4FF480330124D8F81B
:105070000090B04A049309F1140310601B0309EB7C
:10508000040243EAC2133F6823F0C0430094D6F8F9
:1050900000800593A84AA94B3946CDE9063240461F
:1050A00002231A2208F05CFA08F12F4101F5600191
:1050B000090D0631C9B21A20039104F08FFA039941
:1050C0001B2004F08BFA0DF1100C4A46634639465A
:1050D000404608F094FA4FF400204FF45021D8F8DD
:1050E00000C004FA07F747EA0C07DBF80020DAF8FB
:1050F00000B0C8F80070CDE906104FF42021131D50
:1051000004911B03111943EAC113D6F8009023F050
:10511000F8530DF1100C43F0D0535946059348460F
:10512000634608F06CFAD9F8003004FA0BFB754FAF
:1051300071484BEA0303D7F80080D0F800A0376825
:10514000C9F800304FF480334FF440200026049318
:105150004FEA083343EAC8131C22514600940690D4
:10516000059338462346079608F0FAF91C20744E3A
:10517000069B07F12F41334043F0005343F42023B3
:105180000693079B01F5600123F07C7323F01F0356
:10519000090D43F4801306310343C9B2079304F0A9
:1051A0001DFA4FF420210DF1100C63464246049184
:1051B0003846514608F023FA3B6804FA0AFA534885
:1051C00051494AEA0303D0F80080D1F800903B60CF
:1051D0004FF480334FF440204FF000570094049375
:1051E00008F10B014FEAC813D5F800A043EA0133D8
:1051F00023F0C043CDE90607494605931222234612
:10520000504608F0ADF92346494600941322504613
:1052100008F0A6F94FF42021069A049132400AF1D1
:105220002F4101F5600142F40022464F06924FEAF9
:10523000115B079A444B0BF1060B3A405FFA8BFB6C
:10524000134359461220079304F0C8F95946132016
:1052500004F0C4F90DF1100C63464246494650462D
:1052600008F0CDF9DAF8003004FA09F92B49294899
:1052700049EA0303D0F80080D1F800B0CAF8003042
:105280004FF480334FF4402004934FF000530094C8
:10529000CDE906030BF104014FEACB13D5F80090DA
:1052A00043EA013323F0C0434146059314222346C9
:1052B000484608F055F923464146009415224846D1
:1052C00008F04EF94FF420211420079A1F4B3A4062
:1052D00013430793059B049123F0F85309F12F41E1
:1052E00001F560013AE000BF283300201C330020A4
:1052F000B4BD0210A0BD02100C33002094BD0210FA
:105300002433002010330020043300200833002011
:1053100074BD0210FC32002060BD0210003300207A
:10532000EC32002034BD0210F0320020F4320020B4
:105330004CBD0210F8320020006807400000DD017B
:10534000FFFFF5C1E0830FFC124C10001454100055
:1053500020330020143300201833002043F0D053B2
:1053600021FA00FA0593069B0AF1060A5FFA8AFA07
:10537000334043F420235146069304F02FF951465D
:10538000152004F02BF90DF1100C63465A464146E6
:105390004846584F08F033F9D9F80030D7F800A044
:1053A00004FA08F8544F48EA03033F68C9F800308C
:1053B0004FF0005307934FF480334FF44020049391
:1053C0000AF1070300940AF102011B03D5F80080DB
:1053D00043EAC11323F0C0431D22394606900593CA
:1053E0004046234608F0BCF8444B08F12F41049393
:1053F000069B01F56001334043F0705343F40033E2
:105400000693079B090D063123F4F84343F4E84360
:105410001D20C9B2079304F0E1F80DF1100C6346AA
:1054200039460AF10302404608F0E9F8344B04FA21
:1054300007F7D3F800A0D8F8003032491F434FF4E3
:1054400080334FF440202D68D1F80090C8F80070E8
:105450000027049309F104014FEAC91343EA013319
:105460001622514606900094059328462346079736
:1054700008F076F84FF42021079B049123F07C7309
:1054800023F01F0343F4801343F016030793059B97
:1054900005F12F4123F0F85343F0D053059301F564
:1054A0006001069B090D3340063143F4202316208A
:1054B000C9B2069304F092F84A46514604AB284616
:1054C00008F09DF843F2FF730F4A1049108804FA60
:1054D0000AF4034028680443B1F8A000B1F8A4100E
:1054E00043EA803343EA81232C60138009B0BDE88E
:1054F000F08F00BFF0320020EC3200200000AC073B
:10550000F4320020F83200203433002080AC002038
:105510004FF050400B4A0C4B40680C491B68126816
:105520008000096848BF033302EB420203F01F0307
:1055300001EBC201C1F8D8304FF050435868C0F3B6
:1055400040707047EC320020F032002024330020FD
:10555000014B1868704700BF28AC0020F8B54FF029
:1055600050435B689B0336D401211B4E1B4C1C4DE2
:10557000376820682A6800F1050C07EB47030CF038
:105580001F0C02EBC303C3F8D8C007F11003994006
:105590004FEA470C53680B42FCD1012108300CEB59
:1055A000070300F01F0002EBC30340F480500437F0
:1055B00042F82710C3F8D8000021142005F076F92E
:1055C00033682A68216803EB430301F01F0102EBF3
:1055D000C303C3F8D810F8BD0433002008330020FB
:1055E0002433002010B54FF00103172443EC404052
:1055F0000520002105F05AF94FF0000343EC40402C
:1056000010BD00BF01220849084B10B40C6819688E
:1056100004F110039A404B681342FCD1043441F862
:1056200024005DF8044B7047EC3200202433002046
:105630000120044A04491368087043F0070313600B
:10564000704700BF68AC002076B200200022034BF8
:10565000C3E90022C3E90222704700BFECA4002086
:105660002DE9F0474FF050463D4B86B093E80700D8
:1056700006AB03E9070073683A4C9A0325780BD40C
:10568000736813F4004F14BF012302239D4223705B
:1056900006D106B0BDE8F08700239D422370F8D004
:1056A00005F0FCF803460A462F4F304E3968D7F80C
:1056B00004C0581AC7E9003262EB0C013360726013
:1056C00000232B4A1AF098F84FF000091946237866
:1056D000284E0DEB8303D3F80CA00DEB8503DB689C
:1056E0000746C6F80090104601934FF47A720023E3
:1056F0001AF082F8DFF88C803B4600905246404614
:105700001D4907F005FA33680344336003EB0800D2
:1057100015BB1A4B1A491A6807F0FAF933680344A3
:105720001848336007F02FFC2378002BB1D0164BBC
:105730001A78002AADD000214FF0504219705368FA
:105740009B03A6D44FF47464102205210F4B10481C
:1057500000941AF079F89CE708F803903368DFE7C3
:10576000E8BD02105CB2002048400020404000200C
:1057700040420F00B0620020904A021028AC002086
:10578000C84A0210E86100205AB20020B46200202A
:105790000000084008B50D490D4807F0DDFF012164
:1057A000042003F01BFF0121062003F017FF012155
:1057B000072003F013FF052003F0C3FF05234FF07C
:1057C000010242EC403042EC443008BD005A620213
:1057D0000000084000B585B002460023ADF80E3049
:1057E000022300930DF10E03052104481AF008F876
:1057F000BDF80E0005B05DF804FB00BF00000840D6
:1058000000B583B00B4600920246052102481AF00B
:105810001BF803B05DF804FB00000840F0B5C7B00A
:10582000064600F5805722E007AB59191E4A10883A
:10583000927858538A700235002406E01B4907A865
:10584000284407F065F9013501340F2C08DC03AB5F
:105850001A5DA2F12003DBB25E2BEFD92E22EDE719
:10586000103607A9124800F07BF8B7421AD9324621
:10587000104907A807F04CF905461023009303AB25
:10588000324605210C4819F0BBFF00240F2CCBDC5D
:1058900003AB1A5D094907A8284407F039F9033515
:1058A0000134F3E747B0F0BD301C021024FB0110B7
:1058B000001B0210D84A021000000840CC1C021045
:1058C00000B583B00346042200920022052103485C
:1058D00019F082FF03B05DF804FB00BF0000084030
:1058E00010B5C0B04FF480720021684614F08CFAF5
:1058F000002407E04FF4807269462046FFF780FFDE
:1059000004F58074B4F5802FF4D3024800F028F831
:1059100040B010BDE04A021008B50846012101F070
:105920009BFB10B1FCF762FC08BD0248FCF75EFC73
:10593000FAE700BFD077021008B5002001F089FE19
:10594000002001F05FFE00214FF0FF3009F0C4F9A4
:1059500008BD0000014B1868704700BF1CA600205E
:105960000FB400B5FFB080AB53F8042B00934FF495
:10597000FA7101A807F0F6F800280FDB00214FF0BC
:10598000FF3009F0A9F9FFF7E5FF01A901F0D6FA08
:1059900000207FB05DF804EB04B07047054B1B6836
:1059A000DB681D220121044814F07AF84FF0FF3023
:1059B000EFE700BF383D0020FC4A021070B50C46EE
:1059C0000121204601F048FB05460221204601F056
:1059D00043FB25B1064600244FF0FF300CE023487E
:1059E000FFF7BEFFFCF77CF83EE0214B53F8241094
:1059F000284614F0F3FD013408B10B2CF5DD78BB1B
:105A0000013C0B2C2CD8DFE804F006090C0F121512
:105A1000181B1E212824FCF763F825E0FCF7E0F9A9
:105A200022E0FCF7E1F91FE0FCF720FA1CE0FCF7AC
:105A300057FA19E0FCF778FA16E0FCF7DBFA13E006
:105A4000FCF7CEFA10E0FCF7E3FA0DE0FCF7F0FA11
:105A50000AE03046FCF708FB06E0FCF7A1FB03E098
:105A600029460448FFF77CFF70BD00BF1C4B0210A5
:105A7000A0530310344B021038B50C4601212046C8
:105A800001F0EAFA05460221204601F0E5FA1DB1CF
:105A900000244FF0FF300CE01748FFF761FFFCF7E0
:105AA000A9FB28E0154B53F82410284614F096FD66
:105AB000013408B1052CF5DDC8B9013C052C16D818
:105AC000DFE804F00306090C0F12FCF793FB12E069
:105AD000FCF794FB0FE0FCF795FB0CE0FCF796FB62
