:020000041000EA
:10000000002008205D0100101301001089810110FB
:100010001101001011010010110100101101001058
:100020001101001011010010110100101701001042
:100030001101001011010010190100101B01001026
:100040001D0100101D0100101D0100101D010010F8
:100050001D0100101D0100101D0100101D010010E8
:100060001D0100101D0100101D0100101D010010D8
:100070001D0100101D0100101D0100101D010010C8
:100080001D0100101D0100101D0100101D010010B8
:100090001D0100101D0100101D0100101D010010A8
:1000A0001D0100101D0100101D0100101D01001098
:1000B0001D0100101D0100101D0100101D01001088
:1000C0001D0100101D0100101D0100101D01001078
:1000D0001D0100101D0100101D0100101D01001068
:1000E0001D0100101D0100101D0100101D01001058
:1000F0001D0100101D0100101D0100101D01001048
:100100001D0100101D0100101D0100101D01001037
:1001100000BE00BE00BE00BE00BE00BEEFF3058004
:10012000103800BEF2EB8871F0C1031020C203103A
:10013000A801001090A31AE7D3DEFFFF42012110AF
:10014000FF01000078FD0300793512AB4FF000008D
:100150002049086006C881F3088810474FF05040D6
:10016000006810B14FF00000F2E70FA40ECC002998
:1001700002D000F015F8F9E71749184A002000E00E
:1001800001C19142FCD1002080F30A8814498847BC
:10019000144988471449884700BEFDE701C901C2D8
:1001A0009A42FBD3704700BF20C203108801002091
:1001B000183E0020B0FE03100000082000000820B8
:1001C000B0FE0310001008200010082000000000FE
:1001D0007047000008ED00E0183E0020F4B1002058
:1001E0007DCB00106D03001041CB0010F8B500BFAF
:1001F000064B0749C91A891048BF0131491003D07D
:10020000044B0BB101481847704700BF183E00204F
:10021000183E00200000000008B5054B1BB1054941
:100220000548AFF30080BDE80840FFF7E1BF00BF1D
:10023000000000001CB1002040F7011070B584B030
:1002400005460C4601AB02AA03A90AF023FD18B922
:1002500054B9204604B070BD0646019A029903982D
:100260000AF0E6FC3446F4E72946014809F014FA9E
:1002700040F70110002203E0002120F812100132A3
:100280005D2AF9DD44F24102A0F8B8200022C283C1
:100290000284428402808280A0F8A020A0F8A220DC
:1002A000A0F8A420A0F8A620A0F8A820A0F8782004
:1002B00001228287C287A0F84620A0F85020A0F82B
:1002C000522041F28832A0F854202022A0F8562073
:1002D0004FF05042526812F4003F01D000207047A6
:1002E00000B583B0FE22009203464FF4E8320521A8
:1002F00003481FF0D5F9012003B05DF804FB00BFEF
:10030000000008404FF050435B6813F4003F01D0F9
:100310000020704700B583B0FE23009303464FF4DE
:10032000E832052103481FF0BBF9012003B05DF856
:1003300004FB00BF000008404FF050435B6813F41B
:10034000003F01D00020704700B583B0FE2300932A
:1003500003464FF4E832052103481FF081F90120DC
:1003600003B05DF804FB00BF0000084000B583B097
:1003700001214548FFF762FF0CF04CFD07F018FF24
:1003800001F038FB07F034FF4FF47A700AF034F9CB
:10039000192007F001FF4FF47A700AF02DF91920A7
:1003A00007F0FAFE01231C468DF8043000208DF87A
:1003B000050001A90EF038F807F088F91C2344EC79
:1003C000403005F083F908F07FFF08F0F5FF08F0F2
:1003D000E5FB08F02BF901F00DFB2C4C2046FFF754
:1003E000ABFFB4F8B82044F241039A4244D107F07D
:1003F000C3F907F0CDFF07F081FF24480123C38331
:1004000003848380FFF77EFF06F0D2F801F03CFB07
:1004100019234FF0000242EC403005F0B3F808F029
:100420006DFE0DF067FB1A480DF000FC04F07AFD3C
:1004300004F04CFC0DF026FB164B02221A60A3F5CB
:1004400000531B6883F4804303F47043124A136023
:1004500001F0D0FA05F0A0F800214FF0FF300EF0C7
:10046000D1FB06F085F804F08BFB07F0F3F907F0F9
:1004700099FF08F051FAEDE72046FFF7FBFE204612
:10048000FFF740FFB3E700BF48E80100F8AB0020EA
:10049000F905002000200A4000100A4070B504460B
:1004A0000D4616460023DB8A002242E800F212F4D1
:1004B000800F0BD1102144F24F10984703460D4A8C
:1004C000D2F8142842B96FF0120070BD042144F232
:1004D0004F1098470346F2E7BFF35F8F3246294635
:1004E00020469847BFF35F8F024B0022C3F81428C1
:1004F000EBE700BF00000E4010B588B004464FF493
:10050000806220216846FFF7C9FF41B251B900233C
:100510001F2B13DC03F120026A4412F8202C2AB9A5
:100520000133F5E7214805F0B7F9F0E74FF48261B0
:100530001F4805F0B1F9002008B010BD002305E008
:1005400003F12001694401F8202C01331F2B09DC41
:10055000E25C002AF4D1002103F120026A4402F88F
:10056000201CF2E74FF4413220216846FFF796FF46
:1005700041B289B921460F4805F08EF94FF4013296
:1005800020216846FFF78AFF41B251B969460A48FF
:1005900005F082F90120CFE7084805F07DF9002039
:1005A000CAE7074805F078F90020C5E774F701109D
:1005B000B4F7011028F8011078F80110F0F70110D5
:1005C00050F8011010B5A0B004464FF480624021ED
:1005D0000DEB0100FFF762FF41B209B9002319E0FA
:1005E000144805F059F9002022E05A0020A901EB37
:1005F000430111F8400C03F18001694401F8800CBB
:1006000081326A4412F8400C03F181026A4402F814
:10061000800C02331E2BE8DD002306E003F180028C
:100620006A4412F8802CE25401331F2BF6DD0120BE
:1006300020B010BD90F8011010B54FF4FA740BE023
:10064000022009F0D9FF013C002006F073FF0021D1
:100650004FF0FF300EF0D6FA002CF1DC10BD000098
:1006600070B5FFF7E9FF00244FF4801516E02A4625
:1006700021460C4805F010F9FFF7DEFFEFF3108379
:1006800072B6094E33604FF4801128461EF0FCFF0D
:10069000336883F3108805F5801501340E2CE6DDF0
:1006A00070BD00BFC8F80110EC7200200346014481
:1006B000B1F5700F0ED80A48006810F803C018464C
:1006C0001344994202D9BCF1FF0FF4D0BCF1FF0FE3
:1006D00002D07047002070474FF0FF30F9E700BFAD
:1006E0001030002030B5C1B0012219490020FFF7B9
:1006F000DDFFB0F1FF3F25D1164805F0CDF84FF4EE
:100700008072FF21684619F0B5FA41258DF8005036
:100710001E2211490DF1010019F0A8FB00238DF8EC
:100720001F30022308934FF48072099240238DF802
:1007300028308DF8295069464FF480101EF060FF74
:1007400041B030BD0146054805F0A6F8F8E700BF06
:1007500000FFEF0000F9011028F9011040F9011025
:10076000034B1B78412B01D00020704701207047BC
:1007700000001010F0B5C1B0054600F58057B7F580
:10078000700F34D94FF4700731E01E4B1B685A5D6F
:100790001D4901A820440CF03FF90334013501360E
:1007A0000F2EF2DD103D01AB1919184A108892780E
:1007B00018538A700234002607E0154901A8204426
:1007C0000CF02AF90134013501360F2E09DC0D4BEE
:1007D0001B685A5DA2F12003DBB25E2BEDD92E22FD
:1007E000EBE701A90B4805F057F8BD4207D22A46AE
:1007F000094901A80CF010F900260A24D0E741B0FD
:10080000F0BD00BF10300020041B0210681A021057
:100810008CF901103819021084F901102DE9F84300
:10082000044601F128074FF00008C146B4F5700FE7
:1008300019D204F1805505F580152E7800214FF06E
:10084000FF300EF0DFF97F2E10D0FF2E02D06EB1F8
:100850006C6AEBE7C4F57003BB421CD943451DD35A
:10086000B9F1000F1CD04846BDE8F8836B6A1A1B2B
:10087000974206D8B8F1000F05D0904507D81C461E
:10088000D4E71C46D2E79046A1461C46CEE79046E8
:10089000A1461C46CAE74FF0FF39E4E7A146E2E76C
:1008A000A146E0E700E0586AB0F5700F0BD200F106
:1008B000805303F580131A78FF2A04D0412AF2D915
:1008C0004FF0FF307047B0F5700F00D870474FF011
:1008D000FF307047F8B50746002500E0656AB5F5BA
:1008E000700F0FD205F1805404F580142678FF2E86
:1008F0000CD03946601C19F00BFA0028EED1002EFE
:10090000ECD001E04FF0FF352846F8BD4FF0FF3541
:10091000FAE700002DE9F047C0B004460D46154F38
:10092000396820F0FF094FF4807A524649446846FE
:1009300019F006FFE3B20DF80350FFF77DFEEFF369
:10094000108372B6DFF83080C8F80030524669462E
:1009500009F580101EF054FED8F8003083F310889B
:100960003B68185DA84214BF0020012040B0BDE8DC
:10097000F08700BF10300020EC7200202DE9F04F0E
:10098000ADF5005D83B020F0FF0404F5801421F084
:10099000FF0505F5801824F47F6626F00F0628F47D
:1009A0007F6727F00F0707F5805704F47064A7EB03
:1009B000080B06F18053019305F1805505F580156C
:1009C0000DF5805A0AF1080A4FF48052FF21504673
:1009D00019F050F90DF108094FF48052FF214846F3
:1009E00019F048F922460199504619F0A9FE5A46D5
:1009F0002946484619F0A4FEFFF71EFEEFF31083C8
:100A000072B60C4D2B60B91B30461EF03DFE2246DF
:100A1000514630461EF0F4FD5A46494640461EF007
:100A2000EFFD2B6883F310880DF5005D03B0BDE882
:100A3000F08F00BFEC7200200022134600E001326C
:100A400040F6FE718A420BDC0749096831F8121042
:100A50000B44B3F5806FF2DBC3F309030133EEE718
:100A60005B42C3F3090070474C32002008B504F024
:100A700011FD08BD08B5074A1368B3FA83F35B0993
:100A8000136023B1044905480CF030FA08BD04494D
:100A9000F9E700BF58320020BC3F021094F9011062
:100AA00090F9011008B5074A1368B3FA83F35B099C
:100AB000136023B1044905480CF018FA08BD044935
:100AC000F9E700BF54320020BC3F0210A4F9011026
:100AD00090F9011008B5074A1368B3FA83F35B096C
:100AE000136023B1044905480CF000FA08BD04491D
:100AF000F9E700BF50320020BC3F0210BCF90110E2
:100B000090F9011008B5094A136803F59C5308339E
:100B10001360074A934202DD044B00221A60034B24
:100B2000196804480CF0E2F908BD00BF8CB1002040
:100B3000A0860100D0F9011008B503480CF0D6F9E1
:100B4000024B04221A7008BDF0F90110EFB1002029
:100B500008B5064A137883F00103137023B10449E2
:100B600004480CF0C3F908BD0349F9E7DAB10020E5
:100B7000BC3F0210F8F9011090F9011008B5084ABD
:100B8000138883F400739BB2138013F4007F04D0A6
:100B9000044905480CF0AAF908BD0449F9E700BF6B
:100BA000AC320020BC3F021018FA011090F901107D
:100BB00008B5084A138883F480739BB2138013F43A
:100BC000807F04D0044905480CF090F908BD044921
:100BD000F9E700BFAC320020BC3F021038FA011028
:100BE00090F9011008B5084A138883F480639BB21A
:100BF000138013F4806F04D0044905480CF076F993
:100C000008BD0449F9E700BFAC320020BC3F021028
:100C100060FA011090F9011008B5084A138883F4AE
:100C200000639BB2138013F4006F04D0044905489D
:100C30000CF05CF908BD0449F9E700BFAC320020B4
:100C4000BC3F021084FA011090F9011008B5034866
:100C50000CF04CF9024B07221A7008BDA8FA0110DB
:100C6000EFB1002008B505480CF040F904480CF03D
:100C70003DF9044B06221A7008BD00BFB0FA0110FE
:100C8000DCFA0110EFB1002008B54FF050435B686B
:100C900013F0807F04D0034903480CF027F908BD06
:100CA0000249F9E7BC3F021008FB011090F901105E
:100CB00008B506480CF01AF94FF47A7009F09CFC5C
:100CC000012108460AF0E4F808BD00BF34FB01101A
:100CD00008B506480CF00AF94FF47A7009F08CFC5C
:100CE00000214FF000700AF01CF900BF54FB011006
:100CF00008B508F0A9F808BD08B5044A1388C3F37D
:100D00000D03138002480CF0C2F808BDAC3200207D
:100D100084FB011008B5054A13886FEA43436FEA64
:100D20005343138002480CF0B2F808BDAC320020E7
:100D3000A0FB011008B5054A1388C3F30D0343F463
:100D40008043138002480CF0A2F808BDAC320020AA
:100D5000C0FB011008B5074A138843F48053138081
:100D6000054B02221A6004F095FB04480CF08FF842
:100D700008BD00BFAC32002008B10020E0FB01102C
:100D800008B5074A138843F400531380054B022229
:100D90001A6004F07FFB04480CF079F808BD00BF2E
:100DA000AC32002008B10020FCFB011008B504485B
:100DB0000CF06DF8034904480CF098F808BD00BF2A
:100DC0001CFC0110390A001034FC011008B50A4857
:100DD0000CF05DF8094B01221A7009480CF086F8F6
:100DE000084B1968002903DB07480CF07FF808BDA1
:100DF00006480CF07BF8FAE754FC0110EBB1002038
:100E000080FC011048320020CCFC0110A4FC011031
:100E100008B50A480CF03BF8094B02221A70094841
:100E20000CF064F8084B1968002903DB07480CF044
:100E30005DF808BD06480CF059F8FAE7E8FC011027
:100E4000EBB1002014FD011048320020CCFC011051
:100E5000A4FC011008B514480CF019F813480CF064
:100E600016F8134B1B7873B1124A116800290ADB7C
:100E7000012B12D0022B0CD10F4B01221A700F48FC
:100E80000CF034F805E00C4B00221A700C480CF002
:100E90002DF80C480BF0FBFF08BD074B01221A7020
:100EA00009480CF023F8F4E738FD011064FD011047
:100EB000EBB1002048320020E7B1002048FE0110CD
:100EC0009CFD011098FE0110F4FD011010B50B48B7
:100ED0000BF0DDFF0A4C237883F001032370094BEC
:100EE000196809480CF002F8237823B1074908482B
:100EF0000BF0FCFF10BD0749F9E700BFF4FE01103D
:100F0000E2B100204832002014FF0110BC3F021063
:100F100038FF011090F9011010B50B480BF0B7FF26
:100F20000A4C237883F001032370094B19680948A0
:100F30000BF0DCFF237823B1074908480BF0D6FFFC
:100F400010BD0749F9E700BF50FF0110E3B10020D1
:100F50004832002014FF0110C040021070FF011041
:100F60001C27021008B502480BF091FF08BD00BF16
:100F700080FF011008B503480BF089FF04F0CEFA9A
:100F800008BD00BF90FF011010B539480BF07FFF7E
:100F9000384B1B78002B68D0374938480BF0A6FF38
:100FA000374C218837480BF0A1FF2188C90B364800
:100FB0000BF09CFF2188C1F3803134480BF096FF81
:100FC0002188C1F3403132480BF090FF2188C1F3F2
:100FD000003130480BF08AFF2188C1F3C0212E4830
:100FE0000BF084FF2188C1F380212C480BF07EFF99
:100FF0002188C1F340212A480BF078FF2188C1F3F2
:10100000002128480BF072FF2188C1F3C011264847
:101010000BF06CFF2188C1F3801124480BF066FFB0
:101020002188C1F3401122480BF060FF2188C1F3F1
:10103000001120480BF05AFF2188C1F3C0011E485F
:101040000BF054FF2188C1F380011C480BF04EFFC8
:101050002188C1F340011A480BF048FF218801F0B4
:10106000010118480BF042FF10BD174995E700BF7A
:1010700010190210DAB10020BC3F0210C4FF0110A9
:10108000AC320020D8FF0110ECFF01101C00021050
:101090006800021094000210C8000210F400021050
:1010A0001C010210400102106C0102109C01021090
:1010B000E001021010020210400202107002021041
:1010C0009C020210D002021090F9011010B50E48D7
:1010D0000BF0DDFE0D480BF009FF0D480BF006FF8D
:1010E00000240AE00B4904EB44029300CA189268FA
:1010F000C95C09480BF0FAFE01340E2CF2DD0748FA
:101100000BF0C5FE10BD00BF040302102403021043
:101110004C030210143000207803021084030210E4
:1011200008B503F0D3FD08BD70B51C480BF0AFFE49
:1011300000260BE02A191A4B1B6833F812101948C5
:101140000BF0D4FE01340F2CF4DD0136072E06DC43
:101150003501294614480BF0C9FE0024F3E70A20A4
:101160000BF086FEF8260BE02A190D4B1B6833F8AE
:1011700012100C480BF0BAFE01340F2CF4DD0136CE
:10118000FF2E06DC3501294607480BF0AFFE002490
:10119000F3E70A200BF06CFE70BD00BFCC03021019
:1011A0004C320020F0030210E003021070B50F482B
:1011B0000BF06DFE00260BE02A190D4B1B6833F86F
:1011C00012100C480BF092FE01340F2CF4DD0136A6
:1011D000FF2E06DC3501294607480BF087FE002468
:1011E000F3E70A200BF044FE70BD00BFF8030210C5
:1011F0004C320020F0030210E003021000B583B06F
:101200001E480BF044FE1E4B1B78BBB11D4A1168F3
:10121000002913DB012B1AD0022B12D11A480BF034
:1012200065FE184B1A684FF400530093174B1B6868
:101230005203052116481EF013FA02E015480BF080
:1012400026FE0A200BF014FE03B05DF804FB1248E2
:101250000BF04CFE00230CE00A4A126803EB02324A
:101260000A4909680D48006830F8122021F8132057
:101270000133B3F5805FEFDBE3E700BF1404021036
:10128000EBB1002048320020A40402104C320020B0
:10129000000008403804021080040210A43200202C
:1012A00070B5B2B00A200BF0E3FD002407E0144B48
:1012B00053F82420214613480BF018FE0134042C67
:1012C0001BDC204606F03BF90028F0D00C4E56F807
:1012D000242021460C480BF009FE56F82430224603
:1012E0000A4968460BF098FB02466946204606F01C
:1012F00097F9204606F01EF9E0E732B070BD00BF56
:10130000B04F031010050210C8040210EC040210C4
:1013100010B50E480BF0BBFD0D480BF0E7FD0D4876
:101320000BF0E4FD00240AE00B4904EB44029300B7
:10133000CA189268C95C09480BF0D8FD0134122C18
:10134000F2DD0A200BF094FD10BD00BF3405021041
:101350004005021054050210643100207803021089
:1013600010B50E480BF093FD0D480BF0BFFD0D4876
:101370000BF0BCFD00240AE00B4904EB440293008F
:10138000CA189268C95C09480BF0B0FD01340C2CF6
:10139000F2DD0A200BF06CFD10BD00BF6C050210E1
:1013A0008C0502104C030210C83000207803021094
:1013B00010B582B028480BF06AFD284B1B781BB192
:1013C000274B1B68002B02DA264B1B78D3B126482B
:1013D0000BF08CFD214B1B78012B1AD0022B36D140
:1013E0001F4C21684A0321480BF080FD22684FF40E
:1013F000005300931E4B1B68520305211D481EF02D
:101400004FF924E0174B00221A701B480BF03FFDE8
:101410001DE0134C21684A0302F1805202F50022BC
:1014200016480BF063FD4FF4FA6009F0E5F8206808
:1014300040304FF4005140031EF026F92068403040
:101440004FF400520A4B196840031EF0D9F80C48BB
:101450000BF01DFD02B010BDB8050210EBB100206D
:1014600048320020E7B10020300602106C0602105E
:101470004C32002000000840DC0502104406021037
:10148000940602102DE9F04107464FF474620021E2
:1014900018F0F0FB002623E0F42406FB04F407EB2D
:1014A00004080025A8F83850C8F83050C8F834505F
:1014B000C8F85C5088F83A5088F8F05038343C440A
:1014C000023420222946204618F0D4FB1F220E4B5E
:1014D00053F82610204618F0C9FC88F859500136F8
:1014E0000F2ED9DD80233B81A7F8FC30A7F8F0311F
:1014F000A7F8E4323B87A7F82C31A7F82032A7F8E9
:101500001433BDE8F08100BFD05F0310F8B5044686
:1015100016461A46069B770006EB4600F42501FBAB
:1015200005F505EB001021180A81235062194FF0D0
:10153000010C82F8F0C0094A1A444A60083020447D
:101540001F2207491944023018F090FC374405EB7C
:1015500007152C44002384F82930F8BD280010100A
:101560000100101038B5049C02EB420E4FF0F40C51
:101570000CFB01FC0CEB0E1E00EB0E052B81002377
:1015800040F80E30844401238CF8F0306C6006295A
:1015900002D007291FD038BD63881B2B11D0192B0F
:1015A000F7D102EB4202F42301FB03F303EB021336
:1015B000083318441F22104B9968023018F056FC6B
:1015C000E9E77346083318441F220B4B5968023071
:1015D00018F04CFCDFE702EB4202F42303FB01F1BD
:1015E00001EB0211083108441F22034B1968023035
:1015F00018F03CFCCFE700BFC45F0310032900D8FC
:1016000070472DE9F8430446164602EB4203F427DF
:1016100001FB07F707EB031300EB03094FF000088A
:1016200040F80380A9F8088007F1380020441F2201
:10163000094B53F82110023018F018FC274487F8A2
:101640005980C9F82C80C9F80480012E01D0BDE86A
:10165000F88387F8F080FAE7D05F0310F8B5064604
:101660000C461546B3B11946570002EB4200F4236D
:1016700003FB04F404EB0010083030441F22023056
:1016800018F0F4FB2F4404EB07142644002386F8DB
:101690002930F8BD02EB4205F42303FB04F404EB0C
:1016A0000512104400238372F3E7F42303FB0103C4
:1016B0001B8913F0800F20D1F42303FB01031B8F40
:1016C00013F0800F1BD1F42303FB0103B3F8683040
:1016D00013F0800F15D1F42303FB0103B3F8983006
:1016E00013F0800F0FD1F42303FB0100B0F8C830D2
:1016F00013F0800F09D001207047012070470120AE
:10170000704701207047012070470020704700009B
:1017100030B585B0044644F24103ADF80E30FFF712
:10172000B1FE0A4D4FF47463009323461022052145
:1017300028461DF0B5FF022300930DF10E03002291
:10174000052128461DF0ACFF05B030BD0000084063
:101750004FF050435B6813F4003F00D0704700B572
:1017600083B04FF4746300930346102205210348AD
:101770001DF096FF03B05DF804FB00BF00000840B9
:101780004B1E0E2B16D8531E032B15D802EB420C02
:10179000F42301FB03F303EB0C13C35873B1F423DD
:1017A00003FB01F101EB0C1108444368188840BAAF
:1017B00080B27047002070470020704700207047BB
:1017C00001F1FF3CBCF10E0F00F2888002F1FF3CFA
:1017D000BCF1030F00F2848030B502EB420E4FF0F3
:1017E000F40C0CFB01FC0CEB0E1C8444BCF8084010
:1017F00014F4807F37D0F42404FB01F101EB0E1CBC
:101800008444DCF8044004F58054B4F8FC5F05F02F
:101810003F05344C655D1D70DCF8045005F58055BE
:10182000B5F8FA5F05F03F05655D5D702D259D708B
:10183000DCF8045005F5805CBCF8F8CF0CF03F0CE8
:1018400014F80C50DD7001EB0E1101444A6802F5EA
:101850008052B2F8F62F02F03F02A25C1A71002209
:101860005A71012030BD02EB42044FF0F40C0CFB26
:1018700001FC0CEB041101444C6804F58054B4F8ED
:10188000FCEFCEF3052E174C14F80E501D704D686A
:1018900005F5805EBEF8FAEFCEF3052E14F80E5073
:1018A0005D702D259D70496801F58051B1F8F81FD4
:1018B000C1F30521615CD97002EB42020CEB021C02
:1018C0006044426802F58052B2F8F62FC2F3052256
:1018D000A25C1A7100225A710120C3E700207047F0
:1018E00000207047106003104B1E0E2B16D8531E9D
:1018F000032B15D802EB420CF42301FB03F303EB9B
:101900000C13C35873B1F42303FB01F101EB0C1169
:1019100008444368588840BA80B270470020704736
:1019200000207047002070470F2900D9704770B51C
:1019300082B005460E46F42201FB02F23832024420
:101940000232114803F0A8FF002418E004EB44031E
:101950004FF0F40C0CFB06FC0CEB031C0CF1080222
:101960002A4405EB0C010B894968019155F80C10CC
:10197000009102322146054803F08EFF0134042C09
:10198000E4DD02B070BD00BFE0060210EC060210FC
:101990000148024BC01A704700000820F4B1002033
:1019A00000B58BB0684617F057F9FFF7F1FF079BBA
:1019B000C01A0BB05DF804FB10B500EBD0704410FA
:1019C00000214FF0FF300DF01DF9022008F014FE49
:1019D000002005F01AFE18B9013CF1D5002006E000
:1019E000002005F017FE024803F056FF012010BD4D
:1019F000280702102DE9F047012009F0EBF8824694
:101A0000022009F0E7F88146032009F0E3F8804658
:101A1000092009F0DFF807460A2009F0DBF806463E
:101A20000B2009F0D7F805460C2009F0D3F804463E
:101A300051460E480BF05AFA49460D480BF056FA3B
:101A400041460C480BF052FA39460B480BF04EFA5F
:101A500031460A480BF04AFA294609480BF046FA83
:101A6000214608480BF042FABDE8F087480702100B
:101A70005C0702107007021084070210980702101A
:101A8000AC070210C007021010B5114C20460BF035
:101A90002DFA10480BF02AFAFFF77AFF01460E489C
:101AA0000BF024FAFFF77CFF01460C480BF01EFAFE
:101AB000052009F089F80A4BA3FB00318909094880
:101AC0000BF014FA20460BF0E2F9FFF793FF10BD7C
:101AD000D4070210240802107408021090080210A3
:101AE000D34D6210AC0802102DE9F04F2DED068B9E
:101AF00095B0FFF77FFF012009F06CF882460220C5
:101B000009F068F88146032009F064F8804609204E
:101B100009F060F807460A2009F05CF806460B2039
:101B200009F058F805460C2009F054F80390864B4C
:101B300004221A60854B1B6813F4807FFAD0834B14
:101B40005B689BB207EE903AF8EE677A9FED807A79
:101B500067EE877A9FED7F7A77EEC77ADFED7E6A50
:101B600087EEA67AB3EE0BAA3AEE47AA052009F053
:101B70002BF87A4BA3FB0030800C07EE900AB8EEEE
:101B8000678AFFF705FF800A07EE900AF8EE679A6A
:101B9000FFF706FF800A07EE900AB8EE679A704BCF
:101BA000B3F854B02C2303FB0BF39B0A07EE903AD7
:101BB000F8EE678A12A80BF01DFB00240BE004F17D
:101BC00050036B4413F8082C66490DA800EB440041
:101BD0000AF022FF0134072CF1D9634803F05CFEC0
:101BE000624803F059FE624803F056FE614803F074
:101BF00053FE614803F050FE604803F04DFE604B19
:101C0000604A6149614803F047FE05AC202200218B
:101C1000204618F02FF82046FEF7D4FC002800F0EC
:101C20008F809DF81430002B40F08580584803F0D9
:101C300033FE584C204603F02FFE574803F02CFE8D
:101C400018EE100A1DF0FCFC02460B46534803F048
:101C500023FE5146524803F01FFE4946514803F007
:101C60001BFE4146504803F017FE39464F4803F02B
:101C700013FE31464E4803F00FFE29464D4803F04F
:101C80000BFE03994C4803F007FEF2EE027A6AEE6F
:101C9000277AB1EE047A87EE878ADFED487A38EE4C
:101CA000278A1AEE100A1DF0CBFC06460F4618EEE6
:101CB000100A1DF0C5FCCDE9000132463B46404804
:101CC00003F0EAFD0DA93F4803F0E6FD204603F0CE
:101CD000E3FD3D4803F0E0FD4FF402213B4803F0F3
:101CE000DBFD19EE900A1DF0ABFC02460B463848AE
:101CF00003F0D2FD19EE100A1DF0A2FC02460B46BD
:101D0000344803F0C9FD18EE900A1DF099FC024614
:101D10000B462C210191CDF800B02F4803F0BCFDFB
:101D2000204603F0B9FD104803F0B6FD15B0BDEC38
:101D3000068BBDE8F08F05A9284803F0ADFD78E7D4
:101D4000274803F0A9FD74E700200A4000000A407C
:101D50003333533A6ABC343F2D93E13A83DE1B435D
:101D6000F8AB00201C350210C80802101809021038
:101D70002C0902105C090210A8090210E8090210DF
:101D8000240A0210300A02103C0A0210480A02100B
:101D90006C0A021020080210BC0A0210D00A0210BD
:101DA000F00A02100C0B0210280B0210440B021058
:101DB000600B02107C0B0210980B02100000004216
:101DC000B40B0210DC0B0210140C0210240C0210D5
:101DD000440C0210640C0210840C02108C0A0210D5
:101DE0009C0A021008B503F02DF808BD08B50020C4
:101DF00005F0A5FB20B31749174803F04DFD01205E
:101E000005F09DFBF0B11349144803F045FD022095
:101E100005F095FBC0B10F49114803F03DFD0320CB
:101E200005F08DFB90B10B490E4803F035FD042001
:101E300005F085FB60B107490B4803F02DFD08BD97
:101E40000A49D9E70949DFE70849E5E70749EBE728
:101E50000649F1E7C80C0210D00C0210F80C021071
:101E6000200D0210480D0210700D0210CC0C021053
:101E700070B5B2B0164803F00FFD002407E0154B13
:101E800053F824202146144803F006FD0134042CA5
:101E90001BDC204605F053FB0028F0D00D4E56F811
:101EA000242021460D4803F0F7FC56F82430224642
:101EB0000B4968460AF0B0FD02466946204605F027
:101EC000AFFB204605F036FBE0E732B070BD00BF47
:101ED000C0550210B04F0310E00D0210980D021013
:101EE000B80D021008B50E4803F0D6FC01214FF4DE
:101EF000FA6008F0CDFF00214FF0FF300CF082FEB9
:101F0000002005F082FB0028F5D0064B4FF0804200
:101F10001A60002005F07EFB034803F0BDFC08BDFD
:101F2000000E021000B00D40440E021010B50F4814
:101F300003F0B2FC4FF4FA7400214FF0FF300CF0C4
:101F400061FE022008F058FB002005F05EFB30B96E
:101F5000013CF1D100214FF0007008F0E2FF0020B9
:101F600005F058FB024803F097FC10BD580E021014
:101F7000440E021010B50446B8B90F4803F08CFCAB
:101F8000192006F009F916E021460C4804F0AAFAD7
:101F9000192006F001F9FA2008F02EFB192006F0AE
:101FA000FBF8FA2008F028FB013C631E082BEBD954
:101FB000034803F071FC10BDAC0E0210C00E0210FD
:101FC0003838021008B54FF050435B6813F4003FF7
:101FD00001D1012008BD024803F05EFC0020F9E7B2
:101FE000C40E021008B5034803F056FC03F096FA3D
:101FF00008BD00BF080F021008B5FFF7E3FF00B9E6
:1020000008BD034803F048FC03F044FAF8E700BFBA
:102010002C0F021008B5FFF7D5FF00B908BD034823
:1020200003F03AFC0248FEF725F9F7E7500F0210DB
:10203000F8AB002010B5FFF7C5FF70B910BD084B15
:1020400053F82430074A32F814202146064803F09A
:1020500023FC01345F2CF2DDF0E70024FAE700BF37
:1020600054C00310F8AB00207C0F021030B589B0CB
:102070000546EC463C4C0FCCACE80F0094E80F0052
:10208000ACE807002CF8023B1B0C8CF80030002356
:102090008DF81F307DB12C46284618F0C7FB042868
:1020A00020D10022032A26DCA35C303BDBB2092BC3
:1020B0001DD80132F6E72D4803F0EEFB6846FEF727
:1020C00081FA58B19DF800301BB9294803F0E4FBB0
:1020D0000BE06946274803F0DFFB06E0264803F0E3
:1020E000DBFB02E0254803F0D7FB09B030BD2448F4
:1020F00003F0D2FBF9E72349684618F067F8054674
:1021000010B30422214617F0B1FE00232B7169465B
:102110001D4803F0C1FB1D4803F0BEFB41F28830AF
:10212000FFF74AFCA0B96846FEF7E6F9A0B1694698
:10213000174803F0B1FB6846FEF744FA80B16946E0
:102140000C4803F0A9FBD0E7124803F0A5FBCCE74D
:10215000114803F0A1FBC8E7104803F09DFBEAE734
:102160000F4803F099FBC0E7F8B802109C0F02106B
:10217000D00F0210081002101C10021044100210A0
:1021800078100210A0100210EC1002100C110210B6
:1021900070110210A81002104811021090110210C4
:1021A000BC11021008B506F0ADFD08BD08B506F07B
:1021B0004BFE08BD08B506F00FFD08BD08B506F0DA
:1021C00075FD08BD08B506F0EDFC08BD08B506F0C4
:1021D000ABFF08BD08B506F0ADFF08BD2DE9F04125
:1021E000ADF5805D84B080460F46046901F18055ED
:1021F00005F58015284803F04FFB284803F04CFBF9
:1022000029466B6A019300972B6A11F8012B244829
:1022100003F042FB296AA1420CD1224E3E44002227
:10222000039200220023404611F0B0FD01204FF43C
:1022300080571CE01C4803F02FFB04200DF5805D47
:1022400004B0BDE8F08104A90B1F3A46404611F0E6
:1022500037FB054688B904A951F8045C2A46304684
:1022600017F05CFCB0FA80F04009641B2E446CB19E
:1022700060B1BC42E7D22746E5E716F071F80146A7
:102280002A460A4803F008FB0020D7E708B90220D5
:10229000D4E70120D2E700BFDC110210281202109F
:1022A00074120210280010109C120210E812021082
:1022B0002DE9F041ADF5955D86B006460F46012249
:1022C00001460EA811F056F928B93146A6A818F013
:1022D00099F9002516E0044616F042F80246234616
:1022E0003146A24803F0D8FA0DF5955D06B0BDE879
:1022F000F081AEAC2C4414F8200C16F06BFF04F8FF
:10230000200C0135A6A818F091FAA842F1D82E2188
:10231000A6A817F0DDFD0446129D03462A46314665
:10232000934804F0DFF82F21304617F0D1FD00B1BB
:10233000461C9049204618F087F800284BD04FF0F3
:1023400000088D49204618F07FF808B94FF00308BF
:102350008A49204618F078F808B94FF004088849EF
:10236000204618F071F808B94FF005088549204655
:1023700018F06AF808B94FF006088349204618F0AB
:1023800063F808B94FF007088049204618F05CF858
:1023900008B94FF008087E49204618F055F820B3D8
:1023A000B8F1000F1AD03046FEF794FA0446B0F1A7
:1023B000FF3F40D00146774803F06EFA022F33D139
:1023C00021460EA8FFF70AFF042830D8DFE800F006
:1023D00017102F251E004FF00108B2E76E4803F0DA
:1023E0005BFA0EA811F028FC7EE74FF00908DAE747
:1023F0006A4803F051FA0EA811F01EFC74E7684811
:1024000003F04AFA0EA811F017FC6DE7654803F0D7
:1024100043FA0EA811F010FC66E7634803F03CFA9B
:102420000EA811F009FC5FE7604803F035FA0EA82A
:1024300011F002FC58E70020FEF734FAB0F1FF3F3C
:1024400060D029460020FEF7E9F90746B0F1FF3FCA
:102450005FD0C0F5700305F58072934260D304AC81
:102460008DF8108031460DF1110018F0CBF80C9565
:1024700007F1805303F580135A6A1B78FF2B56D05F
:102480000D92012205F128013846FEF70FF90146A9
:10249000B0F1FF3F52D1AEAC04AE0097336A327850
:1024A0000DF11101424803F0F7F94FF48052FF217A
:1024B000204617F0DFFB0FCE0FC40FCE0FC496E8F7
:1024C000030084E8030003AB40F6D872B8A90EA855
:1024D00011F0F6F9044600283DD1AEA9A1F52B76FE
:1024E000336803F2271323F0FF04EFF3108872B66A
:1024F000224607F580101DF083F888F310883668AF
:10250000AE1B76E02B4803F0C7F90EA811F094FB40
:10251000EAE6294803F0C0F90EA811F08DFBE3E6C6
:10252000264803F0B9F90EA811F086FBDCE605F2A7
:10253000271323F0FF033B446362A2E7204803F024
:10254000ABF90D9A39461F4803F0A6F90D993846A4
:10255000FEF714FA9FE715F003FF014622461A48DA
:1025600003F09AF90EA811F067FBBDE620130210E4
:102570003C1402106C130210741302107C1302102E
:10258000841302108C130210941302109C13021077
:10259000A413021074140210AC1302109814021049
:1025A000C0140210F8130210DC1402101C150210E3
:1025B000041602104C150210681502109015021036
:1025C000BC150210DC150210E8120210FF3424F0D2
:1025D000FF04EFF3108872B6AEAD2246294607F528
:1025E00080101DF00DF888F31088A5F52B752B6869
:1025F000F61A002E12DDAEAD4FF48052FF212846B0
:1026000017F038FB03AB4FF4805229460EA811F0A7
:1026100057F9274403AD2C68002CD7D10EA811F030
:102620000BFB61E630B5ADF5337D0546FEF798F856
:1026300068B3FF22002172A817F01CFB2B7833B976
:10264000FF2172A811F00DFB044648BB72AD29466C
:10265000344803F021F9582200215CA817F00AFB46
:102660004FF49072002114A817F004FB05B32E4B11
:102670002A4614A95CA811F08EFD044640B315F05B
:102680006FFE01462246294803F006F947E0284834
:1026900003F002F94FF47051264803F0FDF83EE0D4
:1026A00015F05EFE01462246234803F0F5F836E0B9
:1026B000224B234A40F2A94122480AF045FA002160
:1026C0006846FFF7F5FD14A95CA811F04DFD04461E
:1026D00014BB9DF86A30FBB100214FF0FF300CF0C5
:1026E00091FA2946684617F08DFF684618F09EF863
:1026F000154B1B882DF800300DF16A01684617F064
:102700002DFB9DF85C3013F0100FD8D00DF16A014D
:102710000E4803F0C1F8D6E75CA811F0DCFC0DF51B
:10272000337D30BDC8160210200802105817021061
:102730003C16021078160210A4160210E8160210B9
:10274000F0160210181702107C17021080170210E2
:1027500070B506460C461546FFF734FC88B1012CCF
:1027600013D0012D12D0042C15D0042D13D0022C1F
:1027700018D0022D15D0032C14D0032D0FD0002417
:1027800010E00B4803F088F810E02C462146304654
:10279000FFF748FF0AE0074803F07EF806E02C4602
:1027A00000E02C4621463046FFF782FD70BD00BF99
:1027B0009C170210D417021030B583B00446458828
:1027C0006DBAADB2018849BA89B2374803F064F8EE
:1027D0002946364803F060F8E188A38803F47F4275
:1027E00002EB11225BBA9BB2FF2B2BD892B2B2F54F
:1027F000805F2FD355BB2E4803F04EF804F580546C
:10280000B4F8FC0FC0F305202A49B4F8FA2FC2F33C
:102810000522B4F8F83FC3F30523B4F8F65FC5F317
:1028200005254D5D0095CB5C8A5C095C224803F070
:1028300033F8B4F8FE1F49BA89B2204803F02CF8E7
:1028400003B030BD1E4803F027F8D7E71D4803F05A
:1028500023F8D3E7002DCED002F10043013B34F83A
:1028600013305BBADBB200203F2B0FD80F280DDCF2
:1028700003F03F030F49C95C134B19540130531E39
:102880001B1A34F813305BBADBB2EDE703F03F03F9
:102890000849CB5C0C490B54013000230B540B4806
:1028A00002F0FAFFAAE700BFF4170210081802109E
:1028B000581802104C4E0310B8180210D418021009
:1028C0001C180210381802104461002080180210F1
:1028D00010B501EB810C01F003014900C1F1080EB4
:1028E000FF2303FA01F2C1F106042341CCF38F0C5C
:1028F00010F80C4022400A41604441780B4003FA32
:102900000EF39BB213FA82F080B210BD2DE9F043B2
:1029100083B0074690F8B88201465E4802F0BCFFDB
:10292000791D5D4802F0B8FF97F8B8125B4802F0D5
:10293000B3FF00263AE05A4802F0AEFF05E0B9F1D5
:10294000000F73D1574802F0A7FF04F5805494F8A4
:10295000FD3394F8FE5305F03F052D0105EB1315EB
:1029600005F03F05504994F8FC23920894F8FB03C6
:1029700000F03F0094F8F9C394F8FA339B0003EB9E
:102980009C1303F03F03CB5C00930B5C8A5C495DB6
:10299000464802F081FF94F8FE1394F8FF339B0041
:1029A00003EB9111424802F077FF013646456EDA9B
:1029B00042F6640505FB067505F2D92231463D480D
:1029C00002F06AFF41F21D72AC18637894F802902D
:1029D00009F00F094FEA891909EB9309A95C03F083
:1029E000030301EB0321344802F056FF4946334804
:1029F00002F052FFE3782579AD0005EB9315A2783C
:102A000003F03F031B0103EB1213DAB2120252FA76
:102A100085F5ADB2FF2B8ED8B5F5805F8FD3B9F1B8
:102A2000000F8FD0264802F037FF8EE7691E89B26B
:102A30002046FFF74DFFC0B24FF0000911E000F053
:102A40003F00194B1A5C1F4B03F8092009F10109DB
:102A5000A5EB090189B2013989B22046FFF738FF99
:102A6000C0B23F2802D8B9F10F0FE8DD00F03F00F7
:102A70000D4B1B5C134901F8093009F101090023D2
:102A800001F809302A46104802F006FF5DE703B05E
:102A9000BDE8F083EC18021000190210141902109E
:102AA0001C180210581802104C4E0310B8180210CF
:102AB000D418021028190210F41702100818021076
:102AC00038180210446100203C1902102DE9F0432F
:102AD000C1B081460146384802F0DEFE09F1050129
:102AE000364802F0D9FE99F8B812354802F0D4FE03
:102AF0004FF000084446B8F1000F02DD41B0BDE8D8
:102B0000F08342F6640707FB089707F5B8571D37AF
:102B10002C4802F0C1FE2C4802F0BEFE2B4802F009
:102B2000BBFE39E021463846FFF7D2FE024628496F
:102B300001A8284409F070FF05350134A4B201361C
:102B40000F2EEFDD103CA4B201AB5919214A1088B9
:102B5000927858538A700235002608E01E4901A871
:102B6000284409F059FF01350134A4B201360F2E73
:102B70000BDC21463846FFF7ABFEC2B2A2F12003C0
:102B8000DBB25E2BEAD92E22E8E701A9134802F056
:102B900083FEB4F5805F0CD200214FF0FF300CF0C3
:102BA00031F822460E4901A809F036FF00260A2511
:102BB000C6E708F101089EE7EC18021000190210A0
:102BC00014190210741902108C190210F419021051
:102BD000F0030210681A02108CF901103819021063
:102BE000601A021010B588B00138052806D8DFE851
:102BF00000F003075D9194BA06F082FB08B010BDA7
:102C00000C46084617F012FE0C2803D0584802F074
:102C100043FEF3E703238DF80C302378303BDBB21F
:102C20001B01DBB262781344303B8DF81330A3787C
:102C3000303BDBB21B01DBB2E2781344303B8DF852
:102C400012302379303BDBB21B01DBB262791344D3
:102C5000303B8DF8103000228DF81120A379303BE5
:102C6000DBB21B01DBB2E1790B44303B8DF80F3056
:102C7000237A303BDBB21B01DBB2617A0B44303B81
:102C80008DF80E30A37A303BDBB21B01DBB2E17A68
:102C90000B44303B8DF80D300092082303AA6821C5
:102CA00034480AF0B9FE344802F0F6FD03A806F0F5
:102CB000B1FB9DF812309DF814209DF815102F4897
:102CC00002F0EAFD9DF80F3003F07F039DF810201D
:102CD0009DF811102A4802F0DFFD9DF80E102948DA
:102CE00002F0DAFD9DF80E3013F0040F0AD12648E9
:102CF00002F0D2FD9DF90F30002B07DB234802F0D4
:102D0000CBFD7BE7224802F0C7FDF3E7214802F044
:102D1000C3FD73E706F050FB70E703A806F07AFBEB
:102D20000024132C0ADC04F120036B4413F8142C48
:102D30002146194802F0B0FD0134F2E79DF8123047
:102D40009DF814209DF815100C4802F0A5FD9DF883
:102D50000F3003F07F039DF810209DF811100848F4
:102D600002F09AFD4AE70D4802F096FD46E700BFE3
:102D70006C1A0210E4360020A81A0210B41A0210CD
:102D8000D81A0210FC1A02100C1B0210381B021079
:102D9000201B0210601B0210A01B0210B41B0210AB
:102DA0002DE9F04198B007460C46FDF7D9FC70B309
:102DB000002C51D02046FDF78DFD0546B0F1FF3FB8
:102DC00030D000F1805404F58014584802F064FDBE
:102DD000574802F061FD214611F8012B236A606A11
:102DE00001900095534803F07DFB2378FBB17F2BC6
:102DF00021D0514802F050FD2378032B1FD0013B16
:102E0000DBB2012B20D94D4802F046FD07E04C48CB
:102E100002F042FD4FF470514A4802F03DFD18B0F7
:102E2000BDE8F0812146484802F036FDF7E7474803
:102E300002F032FDF3E7464802F02EFDEFE7454889
:102E40002844FFF7B9FCEAE7424C6019FFF75EFD42
:102E50006019FFF73BFEE2E7344802F01DFD3448FD
:102E600002F01AFD4FF00008454619E0C5F5700460
:102E70004146394802F010FD2946384802F00CFD61
:102E8000A20A4FF47001364802F006FDC7E72F484A
:102E900003F028FB284802F0FFFC022F2AD0656AC5
:102EA000B5F5700FBBD200214FF0FF300BF0AAFE3A
:102EB00005F1805404F580142378FF2BD6D004AE9E
:102EC000626A02920195226A0092621C1949304698
:102ED00009F0A2FD304603F005FB08F1010223785A
:102EE000002BD4D07F2B01D09046D3E7184803F0B5
:102EF000F9FACFE72278531EDBB2012B06D9032A59
:102F0000CDD114482844FFF757FCC8E7114E2E4492
:102F10003146144802F0C0FC711D134802F0BCFC9D
:102F200096F8B812114802F0B7FCB8E7F01B02108F
:102F3000281202107412021078740210AC130210DE
:102F40003C16021078160210D81B02103C1C02100E
:102F5000541C021028001010681C0210A01C021043
:102F6000DC1C0210EC1802100019021014190210D7
:102F70002DE9F04383B006460C4615461F46FFF781
:102F800021F808B3804605EB45034FF0F40C0CFB29
:102F900004FC0CEB031CA34B63441B8913F0010FCF
:102FA0000DD121469F48FEF780FB814678B9731EFC
:102FB000052B09D8DFE803F0103B5C7DCACA2A461E
:102FC0002146994802F068FC03B0BDE8F083214631
:102FD000964802F061FCF7E7924BF42202FB0433BF
:102FE0001B8F13F0010F1DD1914802F055FC8D4C41
:102FF00040F21713A4F8E4360023C4F8DC360125A8
:1030000084F89C578B4BC4F8E0361F228A4B196812
:1030100004F2E66016F02AFF2046FEF799FB874B84
:103020009D80D1E72146864802F036FCCCE77D4BF7
:10303000F42202FB04331B8F13F0010F13D18148DC
:1030400002F02AFC774C804B009340F217130122C8
:1030500006212046FEF786FA2046FEF779FB774BDD
:1030600000221A80B0E72146754802F015FCABE754
:103070006C4BF42202FB04331B8F13F0010F13D1AE
:10308000724802F009FC674C714B009340F2171331
:10309000012206212046FEF765FA2046FEF758FB7E
:1030A000664B01221A808FE72146654802F0F4FB47
:1030B0008AE73846FDF70EFC8046B0F1FF3F27D087
:1030C0002B4622463946634802F0E6FB08F180565B
:1030D00006F58016604802F0DFFB604802F0DCFB7A
:1030E000314611F8012B336A706A0190CDF80080E7
:1030F0005B4802F0D1FB3378032B0ED03378013BD1
:10310000DBB2012B3FF660AF564802F0C5FB5BE730
:103110003946554802F0C0FB56E7544F07EB08000C
:10312000FFF74AFB07EB080208F12801504802F0BC
:10313000B3FB3C4FCDF8008017232A462146384682
:10314000FEF7E4F93846FEF703FBD7E73846FDF70C
:10315000C1FB0446B0F1FF3F1FD000F1805505F5DB
:1031600080153D4802F098FB3C4802F095FB29464B
:1031700011F8012B2B6A686A01900094384802F01C
:103180008BFB2B78032B0DD0013BDBB2012B3FF6E1
:103190001BAF344802F080FB16E73946324802F094
:1031A0007BFB11E7314D2819FFF706FB2A1904F1C3
:1031B0002801304802F070FB082500E001350F2D92
:1031C00012DCB9F1000F0FD1164BF42202FB0533CC
:1031D0001B8F13F0010FF1D129461248FEF765FA53
:1031E0000028EBD1C146EAE7B9F1000F12D03A4608
:1031F0002946214802F050FB062E0FD0094E0094BC
:103200001723012229463046FEF780F93046FEF7A3
:103210009FFAD9E6194802F03FFBD5E6184802F0BC
:103220003BFBD1E62C6200202C1D0210681D021011
:10323000D41D021054A00310C45F0310F8AB00208B
:10324000A01D0210FC1D0210548003102C1E021041
:1032500054600310581E0210F01B021028120210B6
:1032600074120210B01E0210D81B02102800101099
:10327000801E0210D81E0210541F02101C1F0210C4
:10328000701F021070B506460C46FEF79BFE002824
:1032900000F0A780012E44D0022E4FD0314658486E
:1032A000FEF703FA002874D1002C00F08D8004EBA7
:1032B0004402F42306FB03F303EB0213504A1344C6
:1032C0001B8913F0010F00F08D80224631464C48D7
:1032D000FEF794F9224631464A4802F0DDFA79E0D9
:1032E000224629464648FEF789F90134042C13DCAE
:1032F00004EB4402F42305FB03F303EB0213404AFF
:1033000013441B8913F0010FEFD029461046FEF736
:10331000CCF90028E9D1E3E701350F2D03DC344671
:10332000E4E70425F9E7384B00221A809A803448F4
:10333000FEF70EFA354802F0AFFA52E0344802F0D8
:10334000ABFA042516E00134042C12DC04EB440231
:10335000F42305FB03F303EB0213294A13441B89EF
:1033600013F0010FEFD0224629462548FEF746F913
:10337000E9E701350F2D01DC0124E5E7224B0022AE
:103380001A809A801E48FEF7E3F9224802F084FA78
:1033900027E03146204802F07FFA22E00134042C75
:1033A00014DC04EB4402F42306FB03F303EB0213E7
:1033B000134A13441B8913F0010FEFD02246314604
:1033C0000F48FEF71BF9E9E70124E8E73146134807
:1033D00002F062FA062E0BD0072E0DD00848FEF739
:1033E000B7F970BD224631460D4802F055FAF8E7AC
:1033F000054B00221A80F1E7034B00229A80EDE78B
:103400002C62002098200210F8AB00209C1F0210B4
:10341000D01F0210082002103C2002107820021059
:10342000B42002102DE9F041ACB006460F4690469C
:1034300020AC8F4D0FCD0FC40FCD0FC495E80F00FA
:1034400007C4238018AC8B4D0FCD0FC495E80F0037
:1034500084E80F000DF1280C874C0FCCACE80F006E
:103460000FCCACE80F000FCCACE80F0094E80300E1
:103470004CF8040B8CF8001003AC804D0FCD0FC43A
:1034800095E8070003C42270FEF79CFD002846D093
:10349000062E10D07A4BF42202FB07331B8F13F059
:1034A000010F0FD1013E052E00F2DD80DFE806F0AE
:1034B0000F0F3F658BC13B1F0B2BEBD9714802F0FF
:1034C000EBF92CE03946704802F0E6F927E00521D7
:1034D0006B48FEF7EAF828BB694C8023A4F8FC345B
:1034E0000026C4F8F464012384F8B435674BC4F8AB
:1034F000F83404F2FE451F226549284616F0B6FC52
:1035000084F81D651F2218A9284616F0AFFC5C48F8
:10351000FEF71EF9424639465E4802F0BDF92CB06E
:10352000BDE8F08139465C4802F0B6F9D4E70521E0
:103530005348FEF7BAF8D8B9514C8023A4F8F035B7
:103540000026C4F8E865012384F8A8364F4BC4F878
:10355000EC3504F2F2551F224D49284616F086FC40
:1035600084F811661F220AA9284616F07FFCCEE7D0
:1035700039464A4802F090F9DEE707214048FEF755
:1035800094F8D8B93E4C8023A4F8E4360026C4F859
:10359000DC66012384F89C373C4BC4F8E03604F227
:1035A000E6651F223A49284616F060FC84F8056754
:1035B0001F2203A9284616F059FCA8E739463848C7
:1035C00002F06AF9DEE74FB339462D48FEF76DF891
:1035D00050B32B4C012239462046FEF70FF800224B
:1035E00039462046FEF70AF839462E4802F054F9CB
:1035F00095E701340F2C13DC21462148FEF755F8DE
:103600000028F6D01E4D012221462846FDF7F6FF80
:10361000002221462846FDF7F1FFEAE70424E9E706
:10362000214802F039F97AE73946204802F034F9A6
:1036300075E739461248FEF738F878B9104C002380
:1036400000938023012239462046FDF75FFF434661
:10365000012239462046FEF701F858E7394614485A
:1036600002F01AF95BE7134802F016F957E700BFBA
:10367000F0220210202302104023021078230210AF
:103680002C620020D8200210FC200210280010100C
:1036900001001010D42202103021021074210210F7
:1036A000B821021020220210FC2102104422021034
:1036B00070220210B42202102DE9F047D0B0054666
:1036C000E0B10F4601EB4102F42300FB03F303EBEF
:1036D0000213B94A13441B8913F0010F00F06381F0
:1036E0000146B548FEF720F9B44802F0D5F82D039D
:1036F000AEB206F580581FFA88F8B0E1B04802F083
:10370000CBF8B04802F0C8F8AF4802F0C5F82E4632
:103710001FE004EB4403F42206FB02F202EB031267
:10372000A54B13440B449A7A46AB5A5401311F29D6
:10373000EFDD04EB4404F42306FB03F303EB041373
:103740009D4A1A4446AB12893146A04802F0A4F8BB
:1037500001360F2E00F32C810124042CF8DC3146B5
:103760009548FDF7A2FF18B1012C01D12946DEE7EB
:1037700004EB4402F42306FB03F303EB02138E4A2B
:1037800013441B8913F0010F2FD013F4807F2ED028
:1037900040F0A580224631468D4802F07DF8013484
:1037A000DBE704EB4403F42206FB02F202EB031214
:1037B000814B13440B449A7A46AB5A5401311F296A
:1037C000EFDD012CEBD104EB4402F42306FB03F301
:1037D00003EB0213784A13441B8946AA009222463F
:1037E00031467C4802F058F8D9E72946E7E74EAB66
:1037F000224631467048FDF7E3FF012C32D0DFF856
:10380000B881224631464046FDF7BAFF07462246B8
:1038100031464046FEF768F8014604EB4402F423C3
:1038200006FB03F303EB021308EB030210890833D2
:10383000434402330F2E4ED8042C4ED804EB440CD4
:10384000F42206FB02F202EB0C1258F8022003925B
:103850000293019000914EAB3A4621465E4802F039
:103860001BF89CE7DFF85081224631464046FDF7C1
:1038700087FF0746224631464046FEF735F80146A7
:1038800004EB4402F42306FB03F303EB021308EBFF
:10389000030210890833434402330F2E17D8042C37
:1038A00017D804EB440CF42206FB02F202EB0C12D4
:1038B00058F8022004920393029001914EAB0093BA
:1038C0003B4622463146454801F0E6FF67E70022C5
:1038D000F0E70022EEE70022B9E70022B7E74FEA5F
:1038E00006394EAB224631463348FDF769FF012CBD
:1038F0002BD01FFA89F9E3B2DFF8BC801F461A46C5
:10390000494640461BF0B4FE824609F101013A46A1
:1039100089B240461BF0ACFE04EB4402F42306FBE4
:1039200003F303EB021308EB03021189083343444A
:103930000233526803920293019100904EAB5246BB
:103940002146274801F0A8FF29E71FFA89F9E3B2C9
:10395000DFF864801F461A46494640461BF088FE41
:10396000824609F101013A4689B240461BF080FEC9
:1039700004EB4402F42306FB03F303EB021308EB0E
:1039800003021189083343440233526804920393BB
:10399000029101904EAB00935346224631461148A6
:1039A00001F07AFFFBE60A4601460F4801F074FF7A
:1039B00050B0BDE8F08700BF2C62002038380210FC
:1039C00094230210A8230210E023021028240210DE
:1039D0002825021068240210E8240210A8240210EE
:1039E000B425021074250210F42502107119FAB2E0
:1039F00089B21F481BF03CFE02461E4907A820441E
:103A000009F00AF8044401350F2DEFDD07AB191951
:103A1000194A1088927818538A700234002506E0FB
:103A2000164907A8204408F0F7FF013401350F2D8F
:103A30000DDC7119FAB289B20D481BF019FEC2B241
:103A4000A2F12003DBB25E2BEAD92E22E8E7103682
:103A5000B6B207A90A4801F01FFFB045A8D93246FF
:103A6000084907A808F0D8FF00250A24CCE700BFC2
:103A70002C62002018260210681A02108CF901101E
:103A800038190210601A021038B504460D46FEF7C8
:103A900099FA002840D0601E03283AD8DFE800F0E9
:103AA00002304455504801F0F7FE504B9B880BB153
:103AB0004F4900E04F49504801F0EEFE4B4B1B8848
:103AC0000BB14B4900E04B494C4801F0E5FE0424A2
:103AD00000E001340F2C1CDC494BF42202FB0433C0
:103AE0001B8F13F0010FF4D0454B02FB043393F905
:103AF000F030002BEDDA2146424801F0CDFEE8E738
:103B00003A4B9B884BB9394B01229A803E4801F0D1
:103B1000C3FE3648FCF7F6FB38BD344B00229A80D2
:103B20003A4801F0B9FEF4E7304B1B8833B92F4B0C
:103B300001221A80364801F0AFFEEAE72B4B002243
:103B40001A80344801F0A8FEE3E72D4BF42202FB73
:103B500005331B8F13F0010F24D0294BF42202FBF5
:103B6000053393F9F030002B21DB05F0FE01244CE6
:103B7000F42303FB014090F8F02062F07F0280F80C
:103B8000F02001FB0333234493F8F02062F07F021E
:103B900083F8F0204A1C204801F07EFE2046FDF705
:103BA000D7FDB6E729461D4801F076FEB4E705F0DB
:103BB000FE01134C134602FB014090F8F02002F086
:103BC0007F0280F8F02001FB0333234493F8F020B8
:103BD00002F07F0283F8F0204A1C114801F05CFEDD
:103BE0002046FDF7B5FD94E720260210F8AB002033
:103BF000C04002101C27021034260210502602106A
:103C00002C6200206C260210A4260210C02602108E
:103C1000DC26021000270210A82702102827021015
:103C20006427021070B582B00546FCF753FEB0F170
:103C3000FF3F28D00446FEF7C5F948B304F180568B
:103C400006F580162946184801F026FE174801F0AF
:103C500023FE174801F020FE164801F01DFE3146F4
:103C600011F8012B336A706A01900094124801F038
:103C700013FE00212046FCF74DFE78B129460F487F
:103C800001F00AFE08E029460D4801F005FE03E0B8
:103C900029460C4801F000FE02B070BD29460A48D2
:103CA00001F0FAFDF8E700BF1428021034280210D2
:103CB000F01B021028120210741202106828021061
:103CC000D81B0210EC2702108828021038B50546D0
:103CD00009281DD0A14B1B88E3B1013D072D00F23F
:103CE000A080DFE815F01B00B100C900D800E70094
:103CF000F40011012601E0B204F0A0FB0D2004F055
:103D00009DFB0A2004F09AFB0134592CF3DDE1E716
:103D10004124FAE7924801F0BFFDDEE78F4BB3F88C
:103D2000A6306BB18F49904801F0B6FD8B4BB3F8CC
:103D3000A030032B00F28280DFE803F00474787C6B
:103D40008A49F0E78A4801F0A7FD8A4B1B78002BCF
:103D500078D08949894801F09FFD894C218889489C
:103D600001F09AFD2188C90B874801F095FD218853
:103D7000C1F38031854801F08FFD2188C1F34031C6
:103D8000834801F089FD2188C1F30031814801F0A9
:103D900083FD2188C1F3C0217F4801F07DFD21888A
:103DA000C1F380217D4801F077FD2188C1F34021D6
:103DB0007B4801F071FD2188C1F30021794801F0B1
:103DC0006BFD2188C1F3C011774801F065FD2188A2
:103DD000C1F38011754801F05FFD2188C1F34011E6
:103DE000734801F059FD2188C1F30011714801F0B9
:103DF00053FD2188C1F3C0016F4801F04DFD2188BA
:103E0000C1F380016D4801F047FD2188C1F34001F5
:103E10006B4801F041FD218801F00101694801F082
:103E20003BFD38BD684801F037FD8EE7674801F07B
:103E300033FD8AE7664801F02FFD86E7654801F00B
:103E40002BFD82E7644985E7444BB3F8A63063B1A4
:103E5000424B0022A3F8A620404BB3F8A6304BB14A
:103E60004049414801F018FDDBE73C4B0122A3F833
:103E7000A620F1E73D49F4E7414A13886FEA43433E
:103E80006FEA53431380354B0222A3F8A020534816
:103E900001F002FDC5E73A4A1388C3F30D0343F46A
:103EA000804313802D4B0122A3F8A0204C4801F041
:103EB000F3FCB6E7324A1388C3F30D031380274B94
:103EC0000022A3F8A020474801F0E6FCA9E72C4A0D
:103ED000138883F400639BB21380204AB2F8A420B5
:103EE0005AB11E4A0021A2F8A41013F4006F09D0A1
:103EF00021493D4801F0D0FC93E7184A0121A2F87E
:103F0000A410F2E73449F4E7144B1B881BB9374877
:103F100001F0C2FC85E71A4A138843F4005313806A
:103F2000334B02221A6001F0B5FA324801F0B4FCBA
:103F300077E70A4B1B881BB92C4801F0ADFC70E7F2
:103F40000F4A138843F480531380294B02221A60CE
:103F500001F0A0FA284801F09FFC62E7F8AB0020CE
:103F6000B4280210AC28021010290210B028021048
:103F700024290210DAB10020BC3F0210A42902104B
:103F8000AC320020B8290210D0290210042A0210F5
:103F9000542A0210842A0210BC2A0210E82A0210B5
:103FA000142B0210382B0210642B0210942B0210D9
:103FB000D82B0210082C02103C2C02106C2C021082
:103FC0009C2C0210D02C02103C2902105429021003
:103FD0006C2902108829021090F90110042D02109A
:103FE000202D02103C2D0210582D02107C2D0210A5
:103FF00008B10020AC2D0210C82D021000000000F6
:1040000010B584B00446FDF7DDFF80B1601E0B28BB
:104010000DD8DFE800F0060E32560C0C0C0C0C6EBE
:10402000757C414BB3F87810404801F035FC04B082
:1040300010BD3F4801F030FC3B4BB3F878103B48D3
:1040400001F02AFC002400E00134B4F5007FEEDA30
:1040500004F57052082300936B44D20005213548C3
:104060001BF0FEFA029A039B52EA0301ECD004F51E
:104070000071314801F010FCE6E729A3D3E90023E1
:10408000CDE90223002412E0029B13F10133039ACD
:1040900042F101320293039204F570520823009317
:1040A0006B44D200052123481BF0FAFA0134B4F521
:1040B000007FE9DB214801F0EFFB214801F0ECFB38
:1040C000B5E700220023CDE9022300240AE004F52D
:1040D0007052082300936B44D200052115481BF051
:1040E000DFFA0134B4F5007FF1DB164801F0D4FBB0
:1040F0009DE70D480023A0F87830FCF703F996E718
:1041000009480123A0F87830FCF7FCF88FE706484F
:104110000223A0F87830FCF7F5F888E7AFF30080C9
:104120004140414041404140F8AB0020E42D0210A5
:10413000002E021000000840342E0210482E0210FB
:104140007C2E0210982E021038B50C4601380A2831
:1041500055D8DFE810F00B0063008A00AC00BA000D
:10416000CA00DA00EA00FA000A0118018C4DB5F81D
:1041700054102C2404FB01F2920A8A4801F08CFBB3
:10418000B5F8561004FB01F2920A874801F084FB4F
:10419000AB8F002B34D08549854801F07DFB804BE7
:1041A000B3F85030002B2DD08049824801F074FBC9
:1041B0007B4BB3F846303BB37C497F4801F06CFB46
:1041C000774BB3F852300BB378497C4801F064FB6D
:1041D000734BB3F86630DBB17449794801F05CFB8E
:1041E0006F4BB3F86830ABB17049764801F054FBBF
:1041F0006B4BDB8F83B16D49734801F04DFB38BDCC
:104200007249C9E77149D0E77049D6E76F49DCE7E1
:104210006E49E2E76D49E8E76C49EDE7FDF7D2FE4C
:10422000D8B15F4BB3F854102C2201FB02F268485E
:1042300001F032FB002CE2DDA4F57A7242F2283361
:104240009A420ED8564DA5F854402146614801F0D7
:1042500023FB2846FCF756F8D1E75F4801F01CFB2A
:10426000CDE75E4801F018FBC9E7FDF7ABFEB0B142
:104270004B4BB3F856102C2201FB02F2584801F0C8
:104280000BFB002CBBDDA4F12003E02B0BD8444B2F
:10429000A3F856402146534801F0FEFAAFE74E48D6
:1042A00001F0FAFAABE7504801F0F6FAA7E73C4A0A
:1042B000938FB3FA83F35B09938723B13B494B4850
:1042C00001F0EAFA9BE74149F9E7354AB2F8503084
:1042D000B3FA83F35B09A2F8503023B13349444861
:1042E00001F0DAFA8BE73949F9E72D4AB2F846309E
:1042F000B3FA83F35B09A2F8463023B12B493D485A
:1043000001F0CAFA7BE73149F9E7254AB2F85230A1
:10431000B3FA83F35B09A2F8523023B1234936483C
:1043200001F0BAFA6BE72949F9E71D4AB2F866309D
:10433000B3FA83F35B09A2F8663023B11B492F4817
:1043400001F0AAFA5BE72149F9E7154AB2F86830AB
:10435000B3FA83F35B09A2F8683023B11349284804
:1043600001F09AFA4BE71949F9E70D4AD38FB3FAEE
:1043700083F35B09D38723B10C49224801F08CFAFF
:104380003DE71249F9E7FDF71DFE00283FF437AF7E
:104390000348FBF7B7FF1C4801F07EFA2FE700BF88
:1043A000F8AB0020C42E0210F82E0210CC3D0210F3
:1043B0002C2F02104C2F0210902F0210BC2F021035
:1043C000E42F021004300210243002101C270210C7
:1043D00080300210E430021044300210AC30021081
:1043E00038310210A031021068310210C8310210B9
:1043F000E4310210243202104C32021070320210EA
:104400008C320210A8320210C43202102DE9F041A1
:10441000BAB004460D4600201BF04EF906469F2315
:104420001F936022002120A815F024FC06AF4FF056
:10443000640842460021384615F01CFC42463946C5
:104440001FA81BF0E5F89DF81B30012101FA03F7C6
:10445000FDF7B8FD002832D0631E042B2FD8DFE80B
:1044600003F003364D50760038A808F0CBFE9DF8D7
:10447000E3309DF8E4209DF8E5109DF8E6009DF8F6
:10448000E740049403900291019200939DF8E2307A
:104490009DF8E1209DF8E010384801F0FDF9314623
:1044A000374801F0F9F91021364801F0F5F93A469C
:1044B000002F07DB12153946334801F0EDF93AB009
:1044C000BDE8F08107F57F2202F6FF72F2E72F4B7D
:1044D0009D420DD005F580532D4A13602C4B1A6870
:1044E00029462C4801F0D8F92846FCF743F9E6E7BD
:1044F000274B1D6805F580521A60EFE7FCF7F2F8CC
:10450000DDE7254801F0C8F94FF47A7400214FF037
:10451000FF300AF077FB022006F06EF8002003F06F
:1045200074F868B9013CF1D11C4801F0B5F9FCF709
:1045300097F81B4801F0B0F91A4801F0ADF9BEE751
:10454000002003F067F8184801F0A6F9B7E70F4B11
:104550009D420DD005F58053144A1360134B1A6821
:104560002946134801F098F9284601F0F3F8A6E728
:104570000E4B1D6805F580521A60EFE7E432021019
:10458000183302104033021074330210434241408A
:10459000ECAB0020B0330210EC33021048340210B0
:1045A000603402107C34021034340210F0AB00206E
:1045B000C034021030B585B004460D46FDF702FD4B
:1045C000E8B1601E03281AD8DFE800F0021B324B66
:1045D00002A801F011F99DF80B3000939DF80A3004
:1045E0009DF809209DF808102F4801F055F99DF815
:1045F0000A10C1F38201CA012C4801F04DF905B03F
:1046000030BD2B4B9D420DD005F58053294A1360D8
:10461000284B1A682946284801F03EF9284601F03F
:1046200099F8ECE7234B1D6805F580521A60EFE717
:10463000224801F031F9002001F068F801462048D5
:1046400001F02AF9002001F061F844F24103984298
:1046500003D01C48FDF75CF8D1E71B4801F01CF9BA
:10466000CDE71A4801F018F94FF47A7400214FF0A1
:10467000FF300AF0C7FA022005F0BEFF002002F06A
:10468000C4FF50B9013CF1D1114801F005F901F026
:10469000C3F8104801F000F9B1E7002002F0BAFFBA
:1046A0000D4801F0F9F8AAE7FC3402102435021095
:1046B00043424140F0AB0020C034021048350210A4
:1046C0006C3502102C62002084350210B0350210C7
:1046D000043602101C360210EC35021070B5224868
:1046E00008F0D5FB0025B5F5005F10DA002C0EDBD5
:1046F000642008F095FB041EFADB1C4B5C55013569
:1047000015F03F0FEFD12E2008F0B2FBEBE7294662
:10471000174808F0EBFB002307E0164A116831F850
:10472000132052BA21F813200133B3F5805FF4DB74
:1047300000260BE02A190F4B1B6833F812100E48A5
:1047400008F0D4FB01340F2CF4DD01361E2E06DCFC
:1047500035012946094808F0C9FB0024F3E70A207F
:1047600008F086FB70BD00BF2C36021044410020CB
:104770005C3602104C320020F0030210E0030210FD
:1047800038B5314B1C682388304D2B6063886B60D3
:1047900004F58053B3F8FE3F6B61FCF74DF9A86157
:1047A000A079A3881B029BB21844A860A388FF2BA2
:1047B00015D800F10043013B14F8132000233F2AD1
:1047C00016D80F2B14DC02F03F022149895C214AE4
:1047D000D1540133421ED21A14F81220EFE71E4AB8
:1047E0001C4B07CA03C323F8022B120C1A7008E0F3
:1047F00002F03F021649895C164AD1540133002168
:10480000D154114B1A6802F58052B2F8FC3F03F004
:104810003F030F49C85C114B1870B2F8FA0F00F053
:104820003F00085C58702D209870B2F8F80F00F027
:104830003F00085CD870B2F8F62F02F03F028A5CA5
:104840001A7100225A7138BD4C3200205CB1002030
:104850004C4E031044610020883602105461002041
:1048600010B5FFF78DFF104808F011FB0F4C2168C1
:104870000A460F4808F03AFB61680A460D4808F0FE
:1048800035FBA2680C490D4808F030FB0C490D4877
:1048900008F02CFBA26961690B4808F027FB0A208D
:1048A00008F0E6FA10BD00BF943602105CB100209B
:1048B000C0360210DC36021044610020F8360210C7
:1048C00054610020183702102C37021030B583B025
:1048D0002F4808F0DCFA2F4808F008FB00240DE010
:1048E0002D4808F003FB08E0FFF74AFF2B4B2C4A4A
:1048F0002C4909682C4808F0F9FA0134092C1BDC12
:1049000021462A4808F0F2FA294B1A686303D25A62
:104910004FF6FF739A42E3D00023B3F5805FE3DAEA
:1049200003EB0430234A12682149096831F810105A
:1049300022F813100133F0E7002403E0164808F0D2
:10494000D5FA0134092C1DDC21461B4808F0CEFAAB
:10495000184D4FF4005300932B686203052117484C
:104960001AF07EFE2B681A884FF6FF739A42E5D044
:10497000FFF706FF094B0A4A0A4909680A4808F086
:10498000B5FADEE70A2008F073FA03B030BD00BFC5
:104990005437021084370210C437021044610020DB
:1049A000546100205CB10020DC370210AC370210EB
:1049B000A43200204C320020F037021000000840E2
:1049C00010B504460146084808F090FAA4F13003F7
:1049D000092B02D81C46054B1C60044B196804487F
:1049E00008F084FA10BD00BF0838021048320020D9
:1049F00014FF011070B582B004465E4808F076FAE4
:104A00005D4B09221A70032C00F2AF80DFE804F03E
:104A100002182E740026ADF806600DF10605574CFD
:104A20002946204605F0ACFFADF806602946204631
:104A300005F0A6FF00F098FD00F02CFD02B070BD5F
:104A4000E023ADF806300DF106054C4C2946204612
:104A500005F096FF8623ADF806302946204605F07E
:104A60008FFF00F081FD00F015FDE7E7B623ADF8FC
:104A700006300DF10605414C2946204605F080FF21
:104A80001023ADF806302946204605F079FF0123B2
:104A9000ADF806302946204605F072FFC623ADF872
:104AA00006302946204605F06BFF0026ADF806606B
:104AB0002946204605F064FFF223ADF8063029466A
:104AC000204605F05DFFADF806602946204605F05A
:104AD00057FF5A23ADF806302946204605F050FF0F
:104AE0009123ADF806302946204605F049FF00F035
:104AF0003BFD00F0CFFCA1E73E23ADF806300DF101
:104B000006051E4C2946204605F03AFF1123ADF854
:104B100006302946204605F033FF1023ADF8063055
:104B20002946204605F02CFF7523ADF806302946AE
:104B3000204605F025FFC023ADF806302946204663
:104B400005F01EFF0123ADF806302946204605F08A
:104B500017FF2F23ADF806302946204605F010FF39
:104B600000F002FD00F096FC68E700F0FDFC00F0AC
:104B700091FC63E734380210EFB10020D4720020BA
:104B800038B5002008F04CF910F1020F67D0044648
:104B9000394B1B78002B63D01B2807D0043B052B17
:104BA0005DD8DFE803F01F5C2C2E5C21324B002225
:104BB0001A70324808F06BF951E001350C2D4EDCCB
:104BC00005EB45032E4A12F82330A342F5D105EB3D
:104BD00045022B4B03EB82035B689847264B002270
:104BE0001A70EAE70025E9E7A0F13003082B36D870
:104BF0001846FFF7FFFE204B00221A702FE04628D0
:104C000005D0A4F13003092B07D900250DE0FFF7EB
:104C100065FD194B00221A70F3E72046FFF7D0FE1E
:104C2000154B00221A701AE001350E2D17DC05EB2A
:104C30004503144A12F82330A342F5D105EB45028F
:104C4000104B03EB82035B6898470B4B00221A70F2
:104C5000EAE703EB430301EB83035B68984738BD46
:104C60000023122BFBDC03EB4302074911F822203F
:104C7000A242EED00133F4E7EFB100203C3802103D
:104C8000C830002014300020643100200346026840
:104C9000EFF3108172B6D2E8CFCF0120BCF1000F44
:104CA000F9D1C2E84C0FBCF1000FF4D1BFF35F8F14
:104CB00018895A89801A02D5DA89013210440022F3
:104CC0001B68C3E88F2F81F31088704708B53C48F4
:104CD00008F0DDF83B4B3C4A196812683B4808F085
:104CE00005F93B4B3B4A196812683B4808F0FEF84F
:104CF0003A4B3B4A196812683A4808F0F7F83A4BC1
:104D00003A4A196812683A4808F0F0F80A2008F0A0
:104D1000AFF8384B384A19681268384808F0E6F896
:104D2000374B384A19681268374808F0DFF8374BB4
:104D3000374A19681268374808F0D8F8364B374AAE
:104D400019681268364808F0D1F8364808F09FF81C
:104D5000002002F0F4FB28B33349344808F0C6F8C9
:104D6000042002F0ECFB48B32F49314808F0BEF8AC
:104D7000022002F0E4FBF8B12B492E4808F0B6F807
:104D8000012002F0DCFBA8B127492B4808F0AEF85F
:104D9000032002F0D4FB38B1BDE80840224927487F
:104DA00008F0A4B82649D8E725492448BDE80840BA
:104DB00008F09CB82249E8E72149DEE72049D4E71A
:104DC000B44302109432002098320020E8430210CD
:104DD0008C32002090320020104402105C320020FF
:104DE00060320020384402108432002088320020D3
:104DF000604402107C32002080320020884402107F
:104E00007432002078320020B04402106432002056
:104E100068320020D84402106C320020703200202A
:104E200000450210C0550210C80C0210284502109F
:104E300044450210604502107C450210984502105E
:104E4000CC0C021008B51E4800F026FD1D4B1E4A72
:104E5000196812681D4800F01FFD1D4B1D4A196896
:104E600012681D4800F018FD1C4B1D4A1968126895
:104E70001C4800F011FD1C4B1C4A196812681C48A4
:104E800000F00AFD1B4B1C4A196812681B4800F011
:104E900003FD1B4B1B4A196812681B4800F0FCFC01
:104EA0001A4B1B4A196812681A4800F0F5FC1A4B95
:104EB0001A4A196812681A48BDE8084000F0ECBCAC
:104EC000B44502109432002098320020E8450210C8
:104ED0008C320020903200200C4602105C32002000
:104EE00060320020304602108432002088320020D8
:104EF000544602107C320020803200207846021096
:104F000074320020783200209C4602106432002067
:104F100068320020C04602106C320020703200203F
:104F2000E44602102DE9F04FCD4E89B001213068E2
:104F300008F048FA0346CB4FCB4930683B6008F095
:104F40005DFADFF884830121C8F80000306808F0BA
:104F500039FADFF878A3C549CAF80000306808F0CC
:104F60004DFADFF86CB30121CBF80000306808F08F
:104F700029FABF4BBF491860306808F03FFABE4DB0
:104F8000BE4A01211060286808F01CFABC49BD4CDB
:104F90000860BD49286808F031FA012120602868BE
:104FA00008F010FAB94BBA491860286808F026FAD8
:104FB000B84A01211060286808F004FAB64CB749D5
:104FC0002060286808F01AFAB54B0121186028689B
:104FD00008F0F8F9B34AB4491060286808F00EFAEE
:104FE0004FF480330124D8F80090B04A049309F1BB
:104FF000140310601B0309EB040243EAC2133F6869
:1050000023F0C0430094D6F800800593A84AA94B2A
:105010003946CDE90632404602231A2208F022FA28
:1050200008F12F4101F56001090D0631C9B21A20BE
:10503000039104F009FA03991B2004F005FA0DF11D
:10504000100C4A4663463946404608F05AFA4FF477
:1050500000204FF45021D8F800C004FA07F747EABF
:105060000C07DBF80020DAF800B0C8F80070CDE9D2
:1050700006104FF42021131D04911B03111943EA5C
:10508000C113D6F8009023F0F8530DF1100C43F043
:10509000D053594605934846634608F032FAD9F88A
:1050A000003004FA0BFB754F71484BEA0303D7F845
:1050B0000080D0F800A03768C9F800304FF4803382
:1050C0004FF44020002604934FEA083343EAC81304
:1050D0001C225146009406900593384623460796B5
:1050E00008F0C0F91C20744E069B07F12F41334095
:1050F00043F0005343F420230693079B01F560011E
:1051000023F07C7323F01F03090D43F48013063151
:105110000343C9B2079304F097F94FF420210DF12E
:10512000100C6346424604913846514608F0E9F9AE
:105130003B6804FA0AFA534851494AEA0303D0F893
:105140000080D1F800903B604FF480334FF4402052
:105150004FF000570094049308F10B014FEAC81375
:10516000D5F800A043EA013323F0C043CDE9060798
:105170004946059312222346504608F073F9234608
:10518000494600941322504608F06CF94FF4202150
:10519000069A049132400AF12F4101F5600142F470
:1051A0000022464F06924FEA115B079A444B0BF1DF
:1051B000060B3A405FFA8BFB1343594612200793C4
:1051C00004F042F95946132004F03EF90DF1100C99
:1051D000634642464946504608F093F9DAF80030F3
:1051E00004FA09F92B49294849EA0303D0F8008059
:1051F000D1F800B0CAF800304FF480334FF44020AB
:1052000004934FF000530094CDE906030BF1040121
:105210004FEACB13D5F8009043EA013323F0C043A3
:105220004146059314222346484608F01BF92346BD
:10523000414600941522484608F014F94FF4202105
:105240001420079A1F4B3A4013430793059B049180
:1052500023F0F85309F12F4101F560013AE000BF56
:10526000A0320020943200209CB9021088B90210AC
:10527000843200207CB902109C3200208832002049
:105280007C320020803200205CB902107432002091
:1052900048B9021078320020643200201CB9021094
:1052A000683200206C32002034B9021070320020C5
:1052B000006807400000DD01FFFFF5C1E0830FFC3F
:1052C000124C100014541000983200208C32002030
:1052D0009032002043F0D05321FA00FA0593069B48
:1052E0000AF1060A5FFA8AFA334043F42023514652
:1052F000069304F0A9F85146152004F0A5F80DF125
:10530000100C63465A4641464846584F08F0F9F893
:10531000D9F80030D7F800A004FA08F8544F48EA4A
:1053200003033F68C9F800304FF0005307934FF470
:1053300080334FF4402004930AF1060300940AEBF3
:1053400004011B03D5F8008043EAC11323F0C043D6
:105350001D223946069005934046234608F082F800
:10536000444B08F12F410493069B01F56001334043
:1053700043F0705343F400330693079B090D063145
:1053800023F4F84343F4E8431D20C9B2079304F023
:105390005BF80DF1100C634639460AF102024046F3
:1053A00008F0AFF8344B04FA07F7D3F800A0D8F8A8
:1053B000003032491F434FF480334FF440202D68B2
:1053C000D1F80090C8F800700027049309F1040197
:1053D0004FEAC91343EA013316225146069000945E
:1053E000059328462346079708F03CF84FF4202100
:1053F000079B049123F07C7323F01F0343F4801375
:1054000043F016030793059B05F12F4123F0F85352
:1054100043F0D053059301F56001069B090D33401D
:10542000063143F420231620C9B2069304F00CF889
:105430004A46514604AB284608F063F843F2FF732E
:105440000F4A1049108804FA0AF4034028680443FC
:10545000B1F8A000B1F8A41043EA803343EA8123F5
:105460002C60138009B0BDE8F08F00BF68320020C7
:10547000643200200000AC076C3200207032002043
:10548000AC320020F8AB0020014B1868704700BF19
:10549000A0AB0020F8B54FF050435B689B0336D4B7
:1054A00001211B4E1B4C1C4D376820682A6800F1F7
:1054B000050C07EB47030CF01F0C02EBC303C3F80A
:1054C000D8C007F1100399404FEA470C53680B42CC
:1054D000FCD1012108300CEB070300F01F0002EBA8
:1054E000C30340F48050043742F82710C3F8D800B3
:1054F0000021142005F074F933682A68216803EB51
:10550000430301F01F0102EBC303C3F8D810F8BD39
:105510007C320020803200209C32002010B54FF0F9
:105520000103172443EC40400520002105F058F901
:105530004FF0000343EC404010BD00BF012208497A
:10554000084B10B40C68196804F110039A404B68BA
:105550001342FCD1043441F824005DF8044B704739
:10556000643200209C3200200120044A0449136860
:10557000087043F007031360704700BFE0AB0020E2
:10558000EEB100200022034BC3E90022C3E902224E
:10559000704700BF64A400202DE9F0474FF050464B
:1055A0003D4B86B093E8070006AB03E9070073683C
:1055B0003A4C9A0325780BD4736813F4004F14BF48
:1055C000012302239D42237006D106B0BDE8F08777
:1055D00000239D422370F8D005F0FAF803460A46EE
:1055E0002F4F304E3968D7F804C0581AC7E9003237
:1055F00062EB0C013360726000232B4A1AF02CF826
:105600004FF0000919462378284E0DEB8303D3F899
:105610000CA00DEB8503DB680746C6F8009010462A
:1056200001934FF47A7200231AF016F8DFF88C8099
:105630003B460090524640461D4907F0EDF933685D
:105640000344336003EB080015BB1A4B1A491A6870
:1056500007F0E2F9336803441848336007F017FC99
:105660002378002BB1D0164B1A78002AADD0002138
:105670004FF05042197053689B03A6D44FF47464E2
:10568000102205210F4B104800941AF009F89CE7EE
:1056900008F803903368DFE7D0B90210D4B10020D6
:1056A000C03F0020B83F002040420F002862002089
:1056B00038470210A0AB0020704702106061002044
:1056C000D2B100202C6200200000084008B50D492E
:1056D0000D4807F0C3FF0121042003F0B5FE0121AE
:1056E000062003F0B1FE0121072003F0ADFE0520E6
:1056F00003F0C2FF05234FF0010242EC403042ECC0
:10570000443008BD005A62020000084000B585B070
:1057100002460023ADF80E30022300930DF10E0374
:105720000521044819F09CFFBDF80E0005B05DF896
:1057300004FB00BF0000084000B583B00B46009298
:1057400002460521024819F0ABFF03B05DF804FBE7
:1057500000000840F0B5C7B0064600F5805722E0CB
:1057600007AB59191E4A1088927858538A7002352F
:10577000002406E01B4907A8284407F04DF901352D
:1057800001340F2C08DC03AB1A5DA2F12003DBB25D
:105790005E2BEFD92E22EDE7103607A9124800F054
:1057A0007BF8B7421AD93246104907A807F034F9F6
:1057B00005461023009303AB324605210C4819F02F
:1057C0004FFF00240F2CCBDC03AB1A5D094907A85F
:1057D000284407F021F903350134F3E747B0F0BD61
:1057E000681A02108CF90110381902108047021053
:1057F00000000840041B021000B583B003460422D9
:10580000009200220521034819F012FF03B05DF851
:1058100004FB00BF0000084010B5C0B04FF4807218
:105820000021684614F026FA002407E04FF4807245
:1058300069462046FFF780FF04F58074B4F5802F99
:10584000F4D3024800F028F840B010BD8847021099
:1058500008B50846012101F097FB10B1FCF7A2FC46
:1058600008BD0248FCF79EFCFAE700BF1474021062
:1058700008B5002001F085FE002001F05BFE00214C
:105880004FF0FF3009F0BEF908BD0000014B186869
:10589000704700BF94A500200FB400B5FFB080ABE7
:1058A00053F8042B00934FF4FA7101A807F0DEF8C7
:1058B00000280FDB00214FF0FF3009F0A3F9FFF7BC
:1058C000E5FF01A901F0D2FA00207FB05DF804EBFA
:1058D00004B07047054B1B68DB681D22012104489A
:1058E00014F014F84FF0FF30EFE700BFB03C002099
:1058F000A447021070B50C460121204601F044FB7C
:1059000005460221204601F03FFB25B10646002452
:105910004FF0FF300CE02148FFF7BEFFFCF7E4F842
:105920003BE01F4B53F82410284614F08DFD013442
:1059300008B10A2CF5DD60BB013C0A2C29D8DFE850
:1059400004F006090C0F1215181B1E212400FCF789
:10595000CBF822E0FCF746FA1FE0FCF747FA1CE020
:10596000FCF786FA19E0FCF7BDFA16E0FCF7DEFA60
:1059700013E0FCF741FB10E0FCF734FB0DE0FCF713
:1059800049FB0AE0FCF756FB07E03046FCF76EFBEC
:1059900003E029460348FFF77FFF70BDC4470210AC
:1059A000844F0310DC47021038B50C460121204615
:1059B00001F0EAFA05460221204601F0E5FA1DB1A0
:1059C00000244FF0FF300CE01748FFF765FFFCF7AD
:1059D000EDFB28E0154B53F82410284614F034FD55
:1059E000013408B1052CF5DDC8B9013C052C16D8E9
:1059F000DFE804F00306090C0F12FCF7D7FB12E0F6
:105A0000FCF7D8FB0FE0FCF7D9FB0CE0FCF7DAFB66
:105A100009E0FCF7DFFB06E0FCF7D8FB03E02946D2
:105A20000348FFF739FF38BDC44702106C4F03101D
:105A3000F8470210F8B50C460121204601F0A4FAFF
:105A400006460221204601F09FFA05460321204622
:105A500001F09AFA2EB107463DB100244FF0FF3015
:105A600015E02248FFF718FF28E018B100244FF096
:105A7000FF300CE0002211463046FCF769FE1DE0C5
:105A80001B4B53F82410284614F0DEFC013408B1F7
:105A9000002CF5DD08B14FF0FF34002508B1002DD2
:105AA0000DDDAC4213D0012C15D0042C19D0042DDF
:105AB00017D02A4621463046FCF74AFEF8BD0C4B6B
:105AC00053F82510384614F0BFFC0135E6E70948C5
:105AD000FFF7E2FEF2E7042DE7D10748FFF7DCFE0F
