:020000041000EA
:10000000002008205D010010130100105180011034
:100010001101001011010010110100101101001058
:100020001101001011010010110100101701001042
:100030001101001011010010190100101B01001026
:100040001D0100101D0100101D0100101D010010F8
:100050001D0100101D0100101D0100101D010010E8
:100060001D0100101D0100101D0100101D010010D8
:100070001D0100101D0100101D0100101D010010C8
:100080001D0100101D0100101D0100101D010010B8
:100090001D0100101D0100101D0100101D010010A8
:1000A0001D0100101D0100101D0100101D01001098
:1000B0001D0100101D0100101D0100101D01001088
:1000C0001D0100101D0100101D0100101D01001078
:1000D0001D0100101D0100101D0100101D01001068
:1000E0001D0100101D0100101D0100101D01001058
:1000F0001D0100101D0100101D0100101D01001048
:100100001D0100101D0100101D0100101D01001037
:1001100000BE00BE00BE00BE00BE00BEEFF3058004
:10012000103800BEF2EB88713CBF03106CBF0310A7
:10013000A801001090A31AE7D3DEFFFF42012110AF
:10014000FF0100005CFB0300793512AB4FF00000AB
:100150002049086006C881F3088810474FF05040D6
:10016000006810B14FF00000F2E70FA40ECC002998
:1001700002D000F015F8F9E71749184A002000E00E
:1001800001C19142FCD1002080F30A8814498847BC
:10019000144988471449884700BEFDE701C901C2D8
:1001A0009A42FBD3704700BF6CBF03108801002048
:1001B000B03E002094FC031000000820000008203E
:1001C00094FC03100010082000100820000000001C
:1001D0007047000008ED00E0B03E00208CB2002027
:1001E0008DCB00106D03001051CB0010F8B500BF8F
:1001F000064B0749C91A891048BF0131491003D07D
:10020000044B0BB101481847704700BFB03E0020B7
:10021000B03E00200000000008B5054B1BB10549A9
:100220000548AFF30080BDE80840FFF7E1BF00BF1D
:1002300000000000B4B1002008F6011070B584B0D1
:1002400005460C4601AB02AA03A90AF02BFD18B91A
:1002500054B9204604B070BD0646019A029903982D
:100260000AF0EEFC3446F4E72946014809F01CFA8E
:1002700008F60110002203E0002120F812100132DC
:100280005D2AF9DD44F24102A0F8B8200022C283C1
:100290000284428402808280A0F8A020A0F8A220DC
:1002A000A0F8A420A0F8A620A0F8A820A0F8782004
:1002B00001228287C287A0F84620A0F85020A0F82B
:1002C000522041F28832A0F854202022A0F8562073
:1002D0004FF05042526812F4003F01D000207047A6
:1002E00000B583B0FE22009203464FF4E8320521A8
:1002F00003481FF039F9012003B05DF804FB00BF8B
:10030000000008404FF050435B6813F4003F01D0F9
:100310000020704700B583B0FE23009303464FF4DE
:10032000E832052103481FF01FF9012003B05DF8F2
:1003300004FB00BF000008404FF050435B6813F41B
:10034000003F01D00020704700B583B0FE2300932A
:1003500003464FF4E832052103481FF0E5F8012079
:1003600003B05DF804FB00BF0000084000B583B097
:1003700001214348FFF762FF0CF054FD07F046FFF0
:1003800001F034FB07F062FF4FF47A700AF03CF999
:10039000192007F02FFF4FF47A700AF035F9192071
:1003A00007F028FF01231C468DF8043000208DF84B
:1003B000050001A90DF09CFF07F0B2F91C2344ECE5
:1003C000403005F0B9F908F00DFC08F053F901F0E0
:1003D0000DFB2C4C2046FFF7AFFFB4F8B82044F2D9
:1003E00041039A4244D107F0F1F907F0F5FF07F015
:1003F000A9FF24480123C38303848380FFF782FF7E
:1004000006F00CF901F03CFB19234FF0000242EC1E
:10041000403005F0EDF808F095FE0DF0CFFA1A48DF
:100420000DF068FB04F07AFD04F04CFC0DF08EFA40
:10043000164B02221A60A3F500531B6883F4804315
:1004400003F47043124A136001F0D0FA05F0DAF8B1
:1004500000214FF0FF300EF039FB06F0BFF804F03A
:100460008BFB07F021FA07F0C1FF08F079FAEDE7FE
:100470002046FFF7FFFE2046FFF744FFB3E700BF2B
:1004800048E8010090AC00203D06002000200A4012
:1004900000100A4070B504460D4616460023DB8A5C
:1004A000002242E800F212F4800F0BD1102144F236
:1004B0004F10984703460D4AD2F8142842B96FF0FE
:1004C000120070BD042144F24F1098470346F2E732
:1004D000BFF35F8F3246294620469847BFF35F8FB0
:1004E000024B0022C3F81428EBE700BF00000E40C7
:1004F00010B588B004464FF4806220216846FFF7AB
:10050000C9FF41B251B900231F2B13DC03F12002B4
:100510006A4412F8202C2AB90133F5E7214805F086
:10052000F1F9F0E74FF482611F4805F0EBF9002084
:1005300008B010BD002305E003F12001694401F873
:10054000202C01331F2B09DCE25C002AF4D10021AE
:1005500003F120026A4402F8201CF2E74FF4413212
:1005600020216846FFF796FF41B289B921460F481E
:1005700005F0C8F94FF4013220216846FFF78AFFE1
:1005800041B251B969460A4805F0BCF90120CFE7EC
:10059000084805F0B7F90020CAE7074805F0B2F9A6
:1005A0000020C5E73CF601107CF60110F0F60110C2
:1005B00040F70110B8F6011018F7011010B5A0B0FF
:1005C00004464FF4806240210DEB0100FFF762FF0B
:1005D00041B209B9002319E0144805F093F900204D
:1005E00022E05A0020A901EB430111F8400C03F16D
:1005F0008001694401F8800C81326A4412F8400C91
:1006000003F181026A4402F8800C02331E2BE8DDFC
:10061000002306E003F180026A4412F8802CE254C1
:1006200001331F2BF6DD012020B010BD58F701105B
:1006300010B54FF4FA740BE0022009F0E5FF013C1D
:10064000002006F0A1FF00214FF0FF300EF03EFA2F
:10065000002CF1DC10BD000070B5FFF7E9FF0024AD
:100660004FF4801516E02A4621460C4805F04AF959
:10067000FFF7DEFFEFF3108372B6094E33604FF4DD
:10068000801128461EF064FF336883F3108805F557
:1006900080150134022CE6DD70BD00BF90F701101B
:1006A0008473002003460144B1F5401F0ED80A4868
:1006B000006810F803C018461344994202D9BCF1EF
:1006C000FF0FF4D0BCF1FF0F02D07047002070473D
:1006D0004FF0FF30F9E700BFB030002030B5C1B0B7
:1006E000012219490020FFF7DDFFB0F1FF3F25D1BE
:1006F000164805F007F94FF48072FF21684619F09B
:100700001DFA41258DF800501E2211490DF10100FE
:1007100019F010FB00238DF81F30022308934FF4CB
:100720008072099240238DF828308DF8295069464F
:100730004FF480101EF0C8FE41B030BD01460548A0
:1007400005F0E0F8F8E700BF00FF2F00C8F7011040
:10075000F0F7011008F80110034B1B78412B01D072
:10076000002070470120704700001010F0B5C1B0A4
:10077000054600F58057B7F5401F34D94FF44017B0
:1007800031E01E4B1B685A5D1D4901A820440CF046
:100790004BF90334013501360F2EF2DD103D01AB6C
:1007A0001919184A1088927818538A700234002652
:1007B00007E0154901A820440CF036F90134013551
:1007C00001360F2E09DC0D4B1B685A5DA2F1200388
:1007D000DBB25E2BEDD92E22EBE701A90B4805F029
:1007E00091F8BD4207D22A46094901A80CF01CF92C
:1007F00000260A24D0E741B0F0BD00BFB030002091
:10080000CC1902103019021054F80110001802100F
:100810004CF801102DE9F843044601F128074FF088
:100820000008C146B4F5401F19D204F1805505F502
:1008300080152E7800214FF0FF300EF047F97F2E03
:1008400010D0FF2E02D06EB16C6AEBE7C4F54013F6
:10085000BB421CD943451DD3B9F1000F1CD04846FB
:10086000BDE8F8836B6A1A1B974206D8B8F1000FEF
:1008700005D0904507D81C46D4E71C46D2E79046E1
:10088000A1461C46CEE79046A1461C46CAE74FF05B
:10089000FF39E4E7A146E2E7A146E0E700E0586A55
:1008A000B0F5401F0BD200F1805303F580131A7886
:1008B000FF2A04D0412AF2D94FF0FF307047B0F53B
:1008C000401F00D870474FF0FF307047F8B507461B
:1008D000002500E0656AB5F5401F0FD205F1805490
:1008E00004F580142678FF2E0CD03946601C19F0D0
:1008F00073F90028EED1002EECD001E04FF0FF3567
:100900002846F8BD4FF0FF35FAE700002DE9F04723
:10091000C0B004460D46154F396820F0FF094FF46A
:10092000807A52464944684619F06EFEE3B20DF8EB
:100930000350FFF77DFEEFF3108372B6DFF83080CF
:10094000C8F800305246694609F580101EF0BCFD1B
:10095000D8F8003083F310883B68185DA84214BFB4
:100960000020012040B0BDE8F08700BFB03000207B
:10097000847300202DE9F04FADF5005D83B020F0C9
:10098000FF0404F5801421F0FF0505F5801824F418
:100990007F6626F00F0628F47F6727F00F0707F51C
:1009A000805704F47064A7EB080B06F180530193A1
:1009B00005F1805505F580150DF5805A0AF1080AF4
:1009C0004FF48052FF21504619F0B8F80DF1080994
:1009D0004FF48052FF21484619F0B0F822460199A1
:1009E000504619F011FE5A462946484619F00CFEA9
:1009F000FFF71EFEEFF3108372B60C4D2B60B91B90
:100A000030461EF0A5FD2246514630461EF05CFDE4
:100A10005A46494640461EF057FD2B6883F310881E
:100A20000DF5005D03B0BDE8F08F00BF84730020BA
:100A30000022134600E0013240F6FE718A420BDCD0
:100A40000749096831F812100B44B3F5806FF2DBE7
:100A5000C3F309030133EEE75B42C3F309007047B8
:100A6000EC32002008B504F041FD08BD08B5074A86
:100A70001368B3FA83F35B09136023B10449054893
:100A80000CF03CFA08BD0449F9E700BFF832002039
:100A9000843E02105CF8011058F8011008B5074AAE
:100AA0001368B3FA83F35B09136023B10449054863
:100AB0000CF024FA08BD0449F9E700BFF432002025
:100AC000843E02106CF8011058F8011008B5074A6E
:100AD0001368B3FA83F35B09136023B10449054833
:100AE0000CF00CFA08BD0449F9E700BFF032002011
:100AF000843E021084F8011058F8011008B5094A24
:100B0000136803F59C5308331360074A934202DDD0
:100B1000044B00221A60034B196804480CF0EEF9EC
:100B200008BD00BF24B20020A086010098F8011083
:100B300008B503480CF0E2F9024B04221A7008BD14
:100B4000B8F8011087B2002008B5064A137883F080
:100B50000103137023B1044904480CF0CFF908BD18
:100B60000349F9E772B20020843E0210C0F8011078
:100B700058F8011008B5084A138883F400739BB233
:100B8000138013F4007F04D0044905480CF0B6F933
:100B900008BD0449F9E700BF4C330020843E021031
:100BA000E0F8011058F8011008B5084A138883F4DA
:100BB00080739BB2138013F4807F04D004490548EE
:100BC0000CF09CF908BD0449F9E700BF4C33002044
:100BD000843E021000F9011058F8011008B5084AC7
:100BE000138883F480639BB2138013F4806F04D066
:100BF000044905480CF082F908BD0449F9E700BF33
:100C00004C330020843E021028F9011058F80110DE
:100C100008B5084A138883F400639BB2138013F469
:100C2000006F04D0044905480CF068F908BD044978
:100C3000F9E700BF4C330020843E02104CF901104C
:100C400058F8011008B503480CF058F9024B072278
:100C50001A7008BD70F9011087B2002008B5054868
:100C60000CF04CF904480CF049F9044B06221A70B8
:100C700008BD00BF78F90110A4F9011087B2002067
:100C800008B54FF050435B6813F0807F04D00349F0
:100C900003480CF033F908BD0249F9E7843E02101D
:100CA000D0F9011058F8011008B506480CF026F9E3
:100CB0004FF47A7009F0A8FC012108460AF0F0F818
:100CC00008BD00BFFCF9011008B506480CF016F984
:100CD0004FF47A7009F098FC00214FF000700AF090
:100CE00028F900BF1CFA011008B508F0D1F808BDBA
:100CF00008B5044A1388C3F30D03138002480CF0AF
:100D0000CEF808BD4C3300204CFA011008B5054A56
:100D100013886FEA43436FEA5343138002480CF091
:100D2000BEF808BD4C33002068FA011008B5054A2A
:100D30001388C3F30D0343F48043138002480CF07F
:100D4000AEF808BD4C33002088FA011008B5074AF8
:100D5000138843F480531380054B02221A6004F079
:100D6000C5FB04480CF09BF808BD00BF4C330020C5
:100D7000A0B10020A8FA011008B5074A138843F46F
:100D800000531380054B02221A6004F0AFFB0448A5
:100D90000CF085F808BD00BF4C330020A0B1002046
:100DA000C4FA011008B504480CF079F80349044866
:100DB0000CF0A4F808BD00BFE4FA0110310A0010DD
:100DC000FCFA011008B50A480CF069F8094B012239
:100DD0001A7009480CF092F8084B1968002903DBD7
:100DE00007480CF08BF808BD06480CF087F8FAE7C6
:100DF0001CFB011083B2002048FB0110E8320020E8
:100E000094FB01106CFB011008B50A480CF047F880
:100E1000094B02221A7009480CF070F8084B196847
:100E2000002903DB07480CF069F808BD06480CF000
:100E300065F8FAE7B0FB011083B20020DCFB01107B
:100E4000E832002094FB01106CFB011008B5144837
:100E50000CF025F813480CF022F8134B1B7873B1F3
:100E6000124A116800290ADB012B12D0022B0CD187
:100E70000F4B01221A700F480CF040F805E00C4BA4
:100E800000221A700C480CF039F80C480CF007F8E6
:100E900008BD074B01221A7009480CF02FF8F4E73F
:100EA00000FC01102CFC011083B20020E83200206D
:100EB0007FB2002010FD011064FC011060FD0110E4
:100EC000BCFC011010B50B480BF0E9FF0A4C23786D
:100ED00083F001032370094B196809480CF00EF8E0
:100EE000237823B1074908480CF008F810BD0749DA
:100EF000F9E700BFBCFD01107AB20020E832002003
:100F0000DCFD0110843E021000FE011058F80110B3
:100F100010B50B480BF0C3FF0A4C237883F0010394
:100F20002370094B196809480BF0E8FF237823B1B7
:100F3000074908480BF0E2FF10BD0749F9E700BF79
:100F400018FE01107BB20020E8320020DCFD011009
:100F5000883F021038FE0110E425021008B502484F
:100F60000BF09DFF08BD00BF48FE011008B5034807
:100F70000BF095FF04F0FEFA08BD00BF58FE01100B
:100F800010B539480BF08BFF384B1B78002B68D01D
:100F9000374938480BF0B2FF374C218837480BF0FF
:100FA000ADFF2188C90B36480BF0A8FF2188C1F39B
:100FB000803134480BF0A2FF2188C1F34031324820
:100FC0000BF09CFF2188C1F3003130480BF096FFF5
:100FD0002188C1F3C0212E480BF090FF2188C1F376
:100FE00080212C480BF08AFF2188C1F340212A4838
:100FF0000BF084FF2188C1F3002128480BF07EFF0D
:101000002188C1F3C01126480BF078FF2188C1F375
:10101000801124480BF072FF2188C1F3401122484F
:101020000BF06CFF2188C1F3001120480BF066FF24
:101030002188C1F3C0011E480BF060FF2188C1F375
:1010400080011C480BF05AFF2188C1F340011A4867
:101050000BF054FF218801F0010118480BF04EFFFE
:1010600010BD174995E700BFD817021072B20020D3
:10107000843E02108CFE01104C330020A0FE0110B3
:10108000B4FE0110E4FE011030FF01105CFF0110FE
:1010900090FF0110BCFF0110E4FF011008000210D6
:1010A0003400021064000210A8000210D8000210E0
:1010B00008010210380102106401021098010210A8
:1010C00058F8011010B50E480BF0E9FE0D480BF072
:1010D00015FF0D480BF012FF00240AE00B4904EB4A
:1010E00044029300CA189268C95C09480BF006FFD5
:1010F00001340E2CF2DD07480BF0D1FE10BD00BF0D
:10110000CC010210EC01021014020210B4300020D5
:10111000400202104C02021008B503F0D3FD08BDD6
:1011200070B51C480BF0BBFE00260BE02A191A4BC9
:101130001B6833F8121019480BF0E0FE01340F2C35
:10114000F4DD0136072E06DC3501294614480BF084
:10115000D5FE0024F3E70A200BF092FEF8260BE000
:101160002A190D4B1B6833F812100C480BF0C6FE01
:1011700001340F2CF4DD0136FF2E06DC3501294643
:1011800007480BF0BBFE0024F3E70A200BF078FEC3
:1011900070BD00BF94020210EC320020B8020210B1
:1011A000A802021070B50F480BF079FE00260BE084
:1011B0002A190D4B1B6833F812100C480BF09EFED9
:1011C00001340F2CF4DD0136FF2E06DC35012946F3
:1011D00007480BF093FE0024F3E70A200BF050FEC3
:1011E00070BD00BFC0020210EC320020B802021035
:1011F000A802021000B583B01E480BF050FE1E4B33
:101200001B78BBB11D4A1168002913DB012B1AD0D2
:10121000022B12D11A480BF071FE184B1A684FF4CA
:1012200000530093174B1B685203052116481EF00C
:101230007BF902E015480BF032FE0A200BF020FE8D
:1012400003B05DF804FB12480BF058FE00230CE0DD
:101250000A4A126803EB02320A4909680D4800681D
:1012600030F8122021F813200133B3F5805FEFDB53
:10127000E3E700BFDC02021083B20020E832002066
:101280006C030210EC320020000008400003021042
:10129000480302104433002070B5B2B00A200BF0AE
:1012A000EFFD002407E0144B53F824202146134897
:1012B0000BF024FE0134042C1BDC204606F069F9F7
:1012C0000028F0D00C4E56F8242021460C480BF094
:1012D00015FE56F8243022460A4968460BF0A4FB56
:1012E00002466946204606F0C5F9204606F04CF94C
:1012F000E0E732B070BD00BFFC4C0310D803021011
:1013000090030210B403021010B50E480BF0C7FD95
:101310000D480BF0F3FD0D480BF0F0FD00240AE042
:101320000B4904EB44029300CA189268C95C09484F
:101330000BF0E4FD0134122CF2DD0A200BF0A0FDCD
:1013400010BD00BFFC030210080402101C040210B0
:10135000043200204002021010B50E480BF09FFD31
:101360000D480BF0CBFD0D480BF0C8FD00240AE042
:101370000B4904EB44029300CA189268C95C0948FF
:101380000BF0BCFD01340C2CF2DD0A200BF078FDD3
:1013900010BD00BF340402105404021014020210E5
:1013A000683100204002021010B582B028480BF0CE
:1013B00076FD284B1B781BB1274B1B68002B02DAEC
:1013C000264B1B78D3B126480BF098FD214B1B7898
:1013D000012B1AD0022B36D11F4C21684A03214819
:1013E0000BF08CFD22684FF4005300931E4B1B68DA
:1013F000520305211D481EF0B7F824E0174B0022C8
:101400001A701B480BF04BFD1DE0134C21684A037A
:1014100002F1805202F5002216480BF06FFD4FF4E6
:10142000FA6009F0F1F8206840304FF400514003B1
:101430001EF08EF8206840304FF400520A4B1968B5
:1014400040031EF041F80C480BF029FD02B010BD1E
:101450008004021083B20020E83200207FB2002016
:10146000F804021034050210EC320020000008409D
:10147000A40402100C0502105C0502102DE9F041D5
:1014800007464FF47462002118F058FB002623E051
:10149000F42406FB04F407EB04080025A8F83850F0
:1014A000C8F83050C8F83450C8F85C5088F83A5042
:1014B00088F8F05038343C44023420222946204633
:1014C00018F03CFB1F220E4B53F82610204618F054
:1014D00031FC88F8595001360F2ED9DD80233B812D
:1014E000A7F8FC30A7F8F031A7F8E4323B87A7F85B
:1014F0002C31A7F82032A7F81433BDE8F08100BFE3
:101500001C5D0310F8B5044616461A46069B770084
:1015100006EB4600F42501FB05F505EB001021184C
:101520000A81235062194FF0010C82F8F0C0094A79
:101530001A444A60083020441F22074919440230E7
:1015400018F0F8FB374405EB07152C44002384F80A
:101550002930F8BD280010100100101038B5049C87
:1015600002EB420E4FF0F40C0CFB01FC0CEB0E1ED8
:1015700000EB0E052B81002340F80E30844401233C
:101580008CF8F0306C60062902D007291FD038BDD6
:1015900063881B2B11D0192BF7D102EB4202F423E5
:1015A00001FB03F303EB0213083318441F22104B13
:1015B0009968023018F0BEFBE9E773460833184417
:1015C0001F220B4B5968023018F0B4FBDFE702EB27
:1015D0004202F42303FB01F101EB0211083108443C
:1015E0001F22034B1968023018F0A4FBCFE700BF9D
:1015F000105D0310032900D870472DE9F843044615
:10160000164602EB4203F42701FB07F707EB03132F
:1016100000EB03094FF0000840F80380A9F80880A8
:1016200007F1380020441F22094B53F821100230E3
:1016300018F080FB274487F85980C9F82C80C9F836
:101640000480012E01D0BDE8F88387F8F080FAE726
:101650001C5D0310F8B506460C461546B3B1194695
:10166000570002EB4200F42303FB04F404EB0010E8
:10167000083030441F22023018F05CFB2F4404EB8A
:1016800007142644002386F82930F8BD02EB4205F2
:10169000F42303FB04F404EB0512104400238372CB
:1016A000F3E7F42303FB01031B8913F0800F20D120
:1016B000F42303FB01031B8F13F0800F1BD1F423D2
:1016C00003FB0103B3F8683013F0800F15D1F42346
:1016D00003FB0103B3F8983013F0800F0FD1F4230C
:1016E00003FB0100B0F8C83013F0800F09D00120CF
:1016F000704701207047012070470120704701208A
:10170000704700207047000030B585B0044644F2B1
:101710004103ADF80E30FFF7B1FE0A4D4FF474638C
:10172000009323461022052128461DF01DFF0223A9
:1017300000930DF10E030022052128461DF014FF31
:1017400005B030BD000008404FF050435B6813F413
:10175000003F00D0704700B583B04FF4746300932E
:1017600003461022052103481DF0FEFE03B05DF87C
:1017700004FB00BF000008404B1E0E2B16D8531E62
:10178000032B15D802EB420CF42301FB03F303EB0C
:101790000C13C35873B1F42303FB01F101EB0C11DB
:1017A00008444368188840BA80B2704700207047E8
:1017B000002070470020704701F1FF3CBCF10E0F84
:1017C00000F2888002F1FF3CBCF1030F00F284803C
:1017D00030B502EB420E4FF0F40C0CFB01FC0CEBAD
:1017E0000E1C8444BCF8084014F4807F37D0F424E5
:1017F00004FB01F101EB0E1C8444DCF8044004F509
:101800008054B4F8FC5F05F03F05344C655D1D70F5
:10181000DCF8045005F58055B5F8FA5F05F03F0592
:10182000655D5D702D259D70DCF8045005F5805CCC
:10183000BCF8F8CF0CF03F0C14F80C50DD7001EB45
:101840000E1101444A6802F58052B2F8F62F02F0F8
:101850003F02A25C1A7100225A71012030BD02EBD6
:1018600042044FF0F40C0CFB01FC0CEB041101449E
:101870004C6804F58054B4F8FCEFCEF3052E174CF9
:1018800014F80E501D704D6805F5805EBEF8FAEF35
:10189000CEF3052E14F80E505D702D259D7049680D
:1018A00001F58051B1F8F81FC1F30521615CD970D1
:1018B00002EB42020CEB021C6044426802F58052CB
:1018C000B2F8F62FC2F30522A25C1A7100225A71F7
:1018D0000120C3E700207047002070475C5D0310C3
:1018E0004B1E0E2B16D8531E032B15D802EB420CA1
:1018F000F42301FB03F303EB0C13C35873B1F4237C
:1019000003FB01F101EB0C1108444368588840BA0D
:1019100080B2704700207047002070470020704759
:101920000F2900D9704770B582B005460E46F422E3
:1019300001FB02F2383202440232114803F0E2FFA6
:10194000002418E004EB44034FF0F40C0CFB06FCFD
:101950000CEB031C0CF108022A4405EB0C010B896B
:101960004968019155F80C10009102322146054852
:1019700003F0C8FF0134042CE4DD02B070BD00BFE9
:10198000A8050210B40502100148024BC01A7047A6
:10199000000008208CB2002000B58BB0684617F01C
:1019A000BFF8FFF7F1FF079BC01A0BB05DF804FB0F
:1019B00010B500EBD070441000214FF0FF300DF057
:1019C00085F8022008F020FE002005F048FE18B936
:1019D000013CF1D5002006E0002005F045FE02485C
:1019E00003F090FF012010BDF00502102DE9F04733
:1019F000012009F0F7F88246022009F0F3F8814649
:101A0000032009F0EFF88046092009F0EBF80746BB
:101A10000A2009F0E7F806460B2009F0E3F805462E
:101A20000C2009F0DFF8044651460E480BF066FA28
:101A300049460D480BF062FA41460C480BF05EFA3D
:101A400039460B480BF05AFA31460A480BF056FA61
:101A5000294609480BF052FA214608480BF04EFA85
:101A6000BDE8F087100602102406021038060210A6
:101A70004C0602106006021074060210880602105E
:101A800010B5114C20460BF039FA10480BF036FA1D
:101A9000FFF77AFF01460E480BF030FAFFF77CFFA4
:101AA00001460C480BF02AFA052009F095F80A4B7C
:101AB000A3FB0031890909480BF020FA20460BF0FE
:101AC000EEF9FFF793FF10BD9C060210EC06021022
:101AD0003C07021058070210D34D62107407021021
:101AE0002DE9F04F2DED068B95B0FFF77FFF01201C
:101AF00009F078F88246022009F074F88146032044
:101B000009F070F88046092009F06CF807460A20B1
:101B100009F068F806460B2009F064F805460C2029
:101B200009F060F80390864B04221A60854B1B680D
:101B300013F4807FFAD0834B5B689BB207EE903A38
:101B4000F8EE677A9FED807A67EE877A9FED7F7A6D
:101B500077EEC77ADFED7E6A87EEA67AB3EE0BAA40
:101B60003AEE47AA052009F037F87A4BA3FB00307C
:101B7000800C07EE900AB8EE678AFFF705FF800A2F
:101B800007EE900AF8EE679AFFF706FF800A07EE65
:101B9000900AB8EE679A704BB3F854B02C2303FB4D
:101BA0000BF39B0A07EE903AF8EE678A12A80BF047
:101BB00029FB00240BE004F150036B4413F8082CBC
:101BC00066490DA800EB44000AF02EFF0134072CF3
:101BD000F1D9634803F096FE624803F093FE624831
:101BE00003F090FE614803F08DFE614803F08AFE29
:101BF000604803F087FE604B604A6149614803F02A
:101C000081FE05AC20220021204617F097FF2046D8
:101C1000FEF7D4FC002800F08F809DF81430002BD4
:101C200040F08580584803F06DFE584C204603F084
:101C300069FE574803F066FE18EE100A1DF064FCBA
:101C400002460B46534803F05DFE5146524803F0EE
:101C500059FE4946514803F055FE4146504803F0AD
:101C600051FE39464F4803F04DFE31464E4803F0D1
:101C700049FE29464D4803F045FE03994C4803F0C0
:101C800041FEF2EE027A6AEE277AB1EE047A87EE2E
:101C9000878ADFED487A38EE278A1AEE100A1DF09F
:101CA00033FC06460F4618EE100A1DF02DFCCDE958
:101CB000000132463B46404803F024FE0DA93F4850
:101CC00003F020FE204603F01DFE3D4803F01AFEFF
:101CD0004FF402213B4803F015FE19EE900A1DF067
:101CE00013FC02460B46384803F00CFE19EE100AAE
:101CF0001DF00AFC02460B46344803F003FE18EEC2
:101D0000900A1DF001FC02460B462C210191CDF8F2
:101D100000B02F4803F0F6FD204603F0F3FD104815
:101D200003F0F0FD15B0BDEC068BBDE8F08F05A902
:101D3000284803F0E7FD78E7274803F0E3FD74E760
:101D400000200A4000000A403333533A6ABC343F53
:101D50002D93E13A83DE1B4390AC0020E433021064
:101D600090070210E0070210F40702102408021086
:101D700070080210B0080210EC080210F8080210F7
:101D8000040902101009021034090210E8060210BA
:101D90008409021098090210B8090210D40902102F
:101DA000F00902100C0A0210280A0210440A02105C
:101DB000600A0210000000427C0A0210A40A02100D
:101DC000DC0A0210EC0A02100C0B02102C0B0210A1
:101DD0004C0B0210540902106409021008B503F0FC
:101DE0002DF808BD08B5002005F0D3FB20B3174936
:101DF000174803F087FD012005F0CBFBF0B1134934
:101E0000144803F07FFD022005F0C3FBC0B10F4969
:101E1000114803F077FD032005F0BBFB90B10B499F
:101E20000E4803F06FFD042005F0B3FB60B10749D5
:101E30000B4803F067FD08BD0A49D9E70949DFE708
:101E40000849E5E70749EBE70649F1E7900B02107F
:101E5000980B0210C00B0210E80B0210100C0210BD
:101E6000380C0210940B021070B5B2B0164803F093
:101E700049FD002407E0154B53F82420214614485F
:101E800003F040FD0134042C1BDC204605F081FBEF
:101E90000028F0D00D4E56F8242021460D4803F0BE
:101EA00031FD56F8243022460B4968460AF0BCFD45
:101EB00002466946204605F0DDFB204605F064FB3E
:101EC000E0E732B070BD00BF88540210FC4C031034
:101ED000A80C0210600C0210800C021008B50E480D
:101EE00003F010FD01214FF4FA6008F0D9FF002142
:101EF0004FF0FF300CF0EAFD002005F0B0FB0028A9
:101F0000F5D0064B4FF080421A60002005F0ACFB84
:101F1000034803F0F7FC08BDC80C021000B00D40E8
:101F20000C0D021010B50F4803F0ECFC4FF4FA74DE
:101F300000214FF0FF300CF0C9FD022008F064FBD7
:101F4000002005F08CFB30B9013CF1D100214FF0AD
:101F5000007008F0EEFF002005F086FB024803F059
:101F6000D1FC10BD200D02100C0D021010B504465E
:101F7000B8B90F4803F0C6FC192006F03BF916E08B
:101F800021460C4804F0E4FA192006F033F9FA204F
:101F900008F03AFB192006F02DF9FA2008F034FB7E
:101FA000013C631E082BEBD9034803F0ABFC10BDCA
:101FB000740D0210880D02100037021008B54FF0A2
:101FC00050435B6813F4003F01D1012008BD024873
:101FD00003F098FC0020F9E78C0D021008B50348C7
:101FE00003F090FC03F0C6FA08BD00BFD00D02104C
:101FF00008B5FFF7E3FF00B908BD034803F082FC12
:1020000003F074FAF8E700BFF40D021008B5FFF70B
:10201000D5FF00B908BD034803F074FC0248FEF781
:1020200029F9F7E7180E021090AC002010B5FFF761
:10203000C5FF70B910BD084B53F82430074A32F879
:1020400014202146064803F05DFC01345F2CF2DDCC
:10205000F0E70024FAE700BFA0BD031090AC002019
:10206000440E021030B589B00546EC463C4C0FCC0E
:10207000ACE80F0094E80F00ACE807002CF8023B36
:102080001B0C8CF8003000238DF81F307DB12C46DE
:10209000284618F02FFB042820D10022032A26DC32
:1020A000A35C303BDBB2092B1DD80132F6E72D488B
:1020B00003F028FC6846FEF781FA58B19DF800301D
:1020C0001BB9294803F01EFC0BE06946274803F0C2
:1020D00019FC06E0264803F015FC02E0254803F051
:1020E00011FC09B030BD244803F00CFCF9E723498A
:1020F000684617F0CFFF054610B30422214617F0BB
:1021000019FE00232B7169461D4803F0FBFB1D4897
:1021100003F0F8FB41F28830FFF74AFCA0B96846AB
:10212000FEF7E6F9A0B16946174803F0EBFB6846F5
:10213000FEF744FA80B169460C4803F0E3FBD0E7B0
:10214000124803F0DFFBCCE7114803F0DBFBC8E7E4
:10215000104803F0D7FBEAE70F4803F0D3FBC0E7D2
:1021600064B60210640E0210980E0210D00E021017
:10217000E40E02100C0F0210400F0210680F021044
:10218000B40F0210D40F021038100210700F02109A
:1021900010100210581002108410021008B506F03A
:1021A000D5FD08BD08B506F073FE08BD08B506F0FC
:1021B00037FD08BD08B506F09DFD08BD08B506F061
:1021C00015FD08BD08B506F0D3FF08BD08B506F03B
:1021D000D5FF08BD2DE9F041ADF5805D84B08046A6
:1021E0000F46046901F1805505F58015284803F074
:1021F00089FB284803F086FB29466B6A0193009708
:102200002B6A11F8012B244803F07CFB296AA142B8
:102210000CD1224E3E44002203920022002340466D
:1022200011F018FD01204FF480571CE01C4803F00A
:1022300069FB04200DF5805D04B0BDE8F08104A9C0
:102240000B1F3A46404611F09FFA054688B904A98B
:1022500051F8045C2A46304617F0C4FBB0FA80F00F
:102260004009641B2E446CB160B1BC42E7D22746E2
:10227000E5E715F0D9FF01462A460A4803F042FB7C
:102280000020D7E708B90220D4E70120D2E700BF39
:10229000A4100210F01002103C11021028001010BF
:1022A00064110210B01102102DE9F041ADF5955DF9
:1022B00086B006460F46012201460EA811F0BEF870
:1022C00028B93146A6A818F001F9002516E0044601
:1022D00015F0AAFF024623463146A24803F012FB3E
:1022E0000DF5955D06B0BDE8F081AEAC2C4414F858
:1022F000200C16F0D3FE04F8200C0135A6A818F027
:10230000F9F9A842F1D82E21A6A817F045FD0446F8
:10231000129D03462A463146934804F019F92F21AD
:10232000304617F039FD00B1461C9049204617F0A1
:10233000EFFF00284BD04FF000088D49204617F0E2
:10234000E7FF08B94FF003088A49204617F0E0FF7D
:1023500008B94FF004088849204617F0D9FF08B99A
:102360004FF005088549204617F0D2FF08B94FF015
:1023700006088349204617F0CBFF08B94FF007083D
:102380008049204617F0C4FF08B94FF008087E497D
:10239000204617F0BDFF20B3B8F1000F1AD0304629
:1023A000FEF794FA0446B0F1FF3F40D0014677486B
:1023B00003F0A8FA022F33D121460EA8FFF70AFF37
:1023C000042830D8DFE800F017102F251E004FF04A
:1023D0000108B2E76E4803F095FA0EA811F090FBE1
:1023E0007EE74FF00908DAE76A4803F08BFA0EA897
:1023F00011F086FB74E7684803F084FA0EA811F028
:102400007FFB6DE7654803F07DFA0EA811F078FBBD
:1024100066E7634803F076FA0EA811F071FB5FE7F8
:10242000604803F06FFA0EA811F06AFB58E700202D
:10243000FEF734FAB0F1FF3F60D029460020FEF7E6
:10244000E9F90746B0F1FF3F5FD0C0F5401305F54D
:102450008072934260D304AC8DF8108031460DF148
:10246000110018F033F80C9507F1805303F5801331
:102470005A6A1B78FF2B56D00D92012205F12801D4
:102480003846FEF70FF90146B0F1FF3F52D1AEAC2E
:1024900004AE0097336A32780DF11101424803F01F
:1024A00031FA4FF48052FF21204617F047FB0FCE40
:1024B0000FC40FCE0FC496E8030084E8030003ABFB
:1024C00040F6D872B8A90EA811F05EF904460028AB
:1024D0003DD1AEA9A1F52B76336803F2271323F083
:1024E000FF04EFF3108872B6224607F580101CF047
:1024F000EBFF88F310883668AE1B76E02B4803F0BC
:1025000001FA0EA811F0FCFAEAE6294803F0FAF9FC
:102510000EA811F0F5FAE3E6264803F0F3F90EA849
:1025200011F0EEFADCE605F2271323F0FF033B443B
:102530006362A2E7204803F0E5F90D9A39461F4887
:1025400003F0E0F90D993846FEF714FA9FE715F00D
:102550006BFE014622461A4803F0D4F90EA811F08A
:10256000CFFABDE6E8110210041302103412021073
:102570003C120210441202104C12021054120210AB
:102580005C120210641202106C1202103C13021052
:10259000741202106013021088130210C01202108D
:1025A000A4130210E4130210CC140210141402102D
:1025B000301402105814021084140210A4140210D3
:1025C000B0110210FF3424F0FF04EFF3108872B64C
:1025D000AEAD2246294607F580101CF075FF88F342
:1025E0001088A5F52B752B68F61A002E12DDAEADFE
:1025F0004FF48052FF21284617F0A0FA03AB4FF4A6
:10260000805229460EA811F0BFF8274403AD2C686C
:10261000002CD7D10EA811F073FA61E630B5ADF5F4
:10262000337D0546FEF798F868B3FF22002172A8B3
:1026300017F084FA2B7833B9FF2172A811F075FADC
:10264000044648BB72AD2946344803F05BF9582272
:1026500000215CA817F072FA4FF49072002114A8C0
:1026600017F06CFA05B32E4B2A4614A95CA811F09A
:10267000F6FC044640B315F0D7FD01462246294832
:1026800003F040F947E0284803F03CF94FF440617B
:10269000264803F037F93EE015F0C6FD0146224614
:1026A000234803F02FF936E0224B234A40F2A94198
:1026B00022480AF051FA00216846FFF7F5FD14A9F7
:1026C0005CA811F0B5FC044614BB9DF86A30FBB160
:1026D00000214FF0FF300CF0F9F92946684617F059
:1026E000F5FE684618F006F8154B1B882DF80030EB
:1026F0000DF16A01684617F095FA9DF85C3013F009
:10270000100FD8D00DF16A010E4803F0FBF8D6E7A0
:102710005CA811F044FC0DF5337D30BD901502101E
:10272000E8060210201602100415021040150210CF
:102730006C150210B0150210B8150210E015021049
:10274000441602104816021070B506460C4615468F
:10275000FFF734FC88B1012C13D0012D12D0042CCA
:1027600015D0042D13D0022C18D0022D15D0032C17
:1027700014D0032D0FD0002410E00B4803F0C2F852
:1027800010E02C4621463046FFF748FF0AE0074894
:1027900003F0B8F806E02C4600E02C46214630460F
:1027A000FFF782FD70BD00BF641602109C16021078
:1027B00030B583B0044645886DBAADB2018849BAD8
:1027C00089B2374803F09EF82946364803F09AF854
:1027D000E188A38803F47F4202EB11225BBA9BB22B
:1027E000FF2B2BD892B2B2F5805F2FD355BB2E486A
:1027F00003F088F804F58054B4F8FC0FC0F305200A
:102800002A49B4F8FA2FC2F30522B4F8F83FC3F30B
:102810000523B4F8F65FC5F305254D5D0095CB5C47
:102820008A5C095C224803F06DF8B4F8FE1F49BACF
:1028300089B2204803F066F803B030BD1E4803F0AB
:1028400061F8D7E71D4803F05DF8D3E7002DCED03F
:1028500002F10043013B34F813305BBADBB20020D5
:102860003F2B0FD80F280DDC03F03F030F49C95C45
:10287000134B19540130531E1B1A34F813305BBA32
:10288000DBB2EDE703F03F030849CB5C0C490B5486
:10289000013000230B540B4803F034F8AAE700BFC3
:1028A000BC160210D0160210201702109C4B031009
:1028B000801702109C170210E41602100017021075
:1028C000DC6100204817021010B501EB810C01F00B
:1028D00003014900C1F1080EFF2303FA01F2C1F11F
:1028E00006042341CCF38F0C10F80C4022400A411F
:1028F000604441780B4003FA0EF39BB213FA82F066
:1029000080B210BD2DE9F04383B0074690F8B8823D
:1029100001465E4802F0F6FF791D5D4802F0F2FFC5
:1029200097F8B8125B4802F0EDFF00263AE05A48EB
:1029300002F0E8FF05E0B9F1000F73D1574802F04B
:10294000E1FF04F5805494F8FD3394F8FE5305F04C
:102950003F052D0105EB131505F03F05504994F88F
:10296000FC23920894F8FB0300F03F0094F8F9C3AD
:1029700094F8FA339B0003EB9C1303F03F03CB5C0A
:1029800000930B5C8A5C495D464802F0BBFF94F8FB
:10299000FE1394F8FF339B0003EB9111424802F0C1
:1029A000B1FF013646456EDA42F6640505FB067551
:1029B00005F2D92231463D4802F0A4FF41F21D72D2
:1029C000AC18637894F8029009F00F094FEA89195E
:1029D00009EB9309A95C03F0030301EB03213448DD
:1029E00002F090FF4946334802F08CFFE3782579E6
:1029F000AD0005EB9315A27803F03F031B0103EB39
:102A00001213DAB2120252FA85F5ADB2FF2B8ED84C
:102A1000B5F5805F8FD3B9F1000F8FD0264802F053
:102A200071FF8EE7691E89B22046FFF74DFFC0B2E5
:102A30004FF0000911E000F03F00194B1A5C1F4BEA
:102A400003F8092009F10109A5EB090189B201394F
:102A500089B22046FFF738FFC0B23F2802D8B9F14B
:102A60000F0FE8DD00F03F000D4B1B5C134901F830
:102A7000093009F10109002301F809302A461048FC
:102A800002F040FF5DE703B0BDE8F083B417021029
:102A9000C8170210DC170210E416021020170210EB
:102AA0009C4B0310801702109C170210F0170210A5
:102AB000BC160210D016021000170210DC610020B4
:102AC000041802102DE9F043C1B081460146384890
:102AD00002F018FF09F10501364802F013FF99F8DA
:102AE000B812354802F00EFF4FF000084446B8F126
:102AF000000F02DD41B0BDE8F08342F6640707FB3A
:102B0000089707F5B8571D372C4802F0FBFE2C48F4
:102B100002F0F8FE2B4802F0F5FE39E02146384677
:102B2000FFF7D2FE0246284901A8284409F07CFF9D
:102B300005350134A4B201360F2EEFDD103CA4B2EE
:102B400001AB5919214A1088927858538A7002357E
:102B5000002608E01E4901A8284409F065FF013558
:102B60000134A4B201360F2E0BDC21463846FFF7A4
:102B7000ABFEC2B2A2F12003DBB25E2BEAD92E2259
:102B8000E8E701A9134802F0BDFEB4F5805F0CD25E
:102B900000214FF0FF300BF099FF22460E4901A8AB
:102BA00009F042FF00260A25C6E708F101089EE762
:102BB000B4170210C8170210DC1702103C180210DC
:102BC00054180210BC180210B8020210301902107A
:102BD00054F80110001802102819021010B588B01E
:102BE0000138052806D8DFE800F003075D9194BAA4
:102BF00006F08EFB08B010BD0C46084617F07AFDB3
:102C00000C2803D0584802F07DFEF3E703238DF82B
:102C10000C302378303BDBB21B01DBB2627813440B
:102C2000303B8DF81330A378303BDBB21B01DBB2B5
:102C3000E2781344303B8DF812302379303BDBB21D
:102C40001B01DBB262791344303B8DF81030002257
:102C50008DF81120A379303BDBB21B01DBB2E179A7
:102C60000B44303B8DF80F30237A303BDBB21B0135
:102C7000DBB2617A0B44303B8DF80E30A37A303BE7
:102C8000DBB21B01DBB2E17A0B44303B8DF80D3037
:102C90000092082303AA682134480AF020FE344831
:102CA00002F030FE03A806F0BDFB9DF812309DF83F
:102CB00014209DF815102F4802F024FE9DF80F30C7
:102CC00003F07F039DF810209DF811102A4802F0B0
:102CD00019FE9DF80E10294802F014FE9DF80E30E2
:102CE00013F0040F0AD1264802F00CFE9DF90F30B4
:102CF000002B07DB234802F005FE7BE7224802F0A9
:102D000001FEF3E7214802F0FDFD73E706F05CFBEE
:102D100070E703A806F086FB0024132C0ADC04F1FC
:102D200020036B4413F8142C2146194802F0EAFDE5
:102D30000134F2E79DF812309DF814209DF815102B
:102D40000C4802F0DFFD9DF80F3003F07F039DF883
:102D500010209DF81110084802F0D4FD4AE70D48F4
:102D600002F0D0FD46E700BF34190210843700207E
:102D7000701902107C190210A0190210C419021057
:102D8000D4190210001A0210E8190210281A0210B1
:102D9000681A02107C1A02102DE9F04198B007461B
:102DA0000C46FDF7D9FC70B3002C51D02046FDF73E
:102DB0008DFD0546B0F1FF3F30D000F1805404F5A1
:102DC0008014584802F09EFD574802F09BFD2146B2
:102DD00011F8012B236A606A01900095534803F0B3
:102DE000B7FB2378FBB17F2B21D0514802F08AFD3D
:102DF0002378032B1FD0013BDBB2012B20D94D4898
:102E000002F080FD07E04C4802F07CFD4FF4406189
:102E10004A4802F077FD18B0BDE8F08121464848E5
:102E200002F070FDF7E7474802F06CFDF3E7464813
:102E300002F068FDEFE745482844FFF7B9FCEAE7F0
:102E4000424C6019FFF75EFD6019FFF73BFEE2E7B9
:102E5000344802F057FD344802F054FD4FF00008AA
:102E6000454619E0C5F540144146394802F04AFD8F
:102E70002946384802F046FDA20A4FF44011364870
:102E800002F040FDC7E72F4803F062FB284802F03C
:102E900039FD022F2AD0656AB5F5401FBBD200214B
:102EA0004FF0FF300BF012FE05F1805404F5801452
:102EB0002378FF2BD6D004AE626A02920195226A73
:102EC0000092621C1949304609F0AEFD304603F00D
:102ED0003FFB08F101022378002BD4D07F2B01D0D7
:102EE0009046D3E7184803F033FBCFE72278531E10
:102EF000DBB2012B06D9032ACDD114482844FFF7B1
:102F000057FCC8E7114E2E443146144802F0FAFC33
:102F1000711D134802F0F6FC96F8B812114802F041
:102F2000F1FCB8E7B81A0210F01002103C110210C0
:102F30004C72021074120210041502104015021097
:102F4000A01A0210041B02101C1B021028001010F3
:102F5000301B0210681B0210A41B0210B4170210D1
:102F6000C8170210DC1702102DE9F04383B00646A3
:102F70000C4615461F46FFF721F808B3804605EBBF
:102F800045034FF0F40C0CFB04FC0CEB031CA34BAF
:102F900063441B8913F0010F0DD121469F48FEF7B2
:102FA00080FB814678B9731E052B09D8DFE803F052
:102FB000103B5C7DCACA2A462146994802F0A2FC11
:102FC00003B0BDE8F0832146964802F09BFCF7E78A
:102FD000924BF42202FB04331B8F13F0010F1DD11F
:102FE000914802F08FFC8D4C40F21713A4F8E436A0
:102FF0000023C4F8DC36012584F89C578B4BC4F8B9
:10300000E0361F228A4B196804F2E66016F092FE41
:103010002046FEF799FB874B9D80D1E721468648E5
:1030200002F070FCCCE77D4BF42202FB04331B8FD3
:1030300013F0010F13D1814802F064FC774C804BF0
:10304000009340F21713012206212046FEF786FA6C
:103050002046FEF779FB774B00221A80B0E7214625
:10306000754802F04FFCABE76C4BF42202FB0433D3
:103070001B8F13F0010F13D1724802F043FC674C11
:10308000714B009340F21713012206212046FEF7F0
:1030900065FA2046FEF758FB664B01221A808FE73F
:1030A0002146654802F02EFC8AE73846FDF70EFC03
:1030B0008046B0F1FF3F27D02B4622463946634871
:1030C00002F020FC08F1805606F58016604802F0F8
:1030D00019FC604802F016FC314611F8012B336AE6
:1030E000706A0190CDF800805B4802F00BFC3378E9
:1030F000032B0ED03378013BDBB2012B3FF660AFE0
:10310000564802F0FFFB5BE73946554802F0FAFBF0
:1031100056E7544F07EB0800FFF74AFB07EB08029E
:1031200008F12801504802F0EDFB3C4FCDF800803B
:1031300017232A4621463846FEF7E4F93846FEF7BB
:1031400003FBD7E73846FDF7C1FB0446B0F1FF3F6C
:103150001FD000F1805505F580153D4802F0D2FBE7
:103160003C4802F0CFFB294611F8012B2B6A686A14
:1031700001900094384802F0C5FB2B78032B0DD04A
:10318000013BDBB2012B3FF61BAF344802F0BAFB28
:1031900016E73946324802F0B5FB11E7314D2819E0
:1031A000FFF706FB2A1904F12801304802F0AAFBB8
:1031B000082500E001350F2D12DCB9F1000F0FD109
:1031C000164BF42202FB05331B8F13F0010FF1D1D4
:1031D00029461248FEF765FA0028EBD1C146EAE716
:1031E000B9F1000F12D03A462946214802F08AFB75
:1031F000062E0FD0094E009417230122294630468F
:10320000FEF780F93046FEF79FFAD9E6194802F03A
:1032100079FBD5E6184802F075FBD1E6C4620020C0
:10322000F41B0210301C02109C1C0210A09D031005
:10323000105D031090AC0020681C0210C41C02102A
:10324000A07D0310F41C0210A05D0310201D0210CD
:10325000B81A0210F01002103C110210781D021072
:10326000A01A021028001010481D0210A01D021004
:103270001C1E0210E41D0210381E021070B5064616
:103280000C46FEF79BFE002800F0A780012E44D0DC
:10329000022E4FD031465848FEF703FA002874D169
:1032A000002C00F08D8004EB4402F42306FB03F3B2
:1032B00003EB0213504A13441B8913F0010F00F073
:1032C0008D80224631464C48FEF794F9224631461D
:1032D0004A4802F017FB79E0224629464648FEF7A5
:1032E00089F90134042C13DC04EB4402F42305FBBC
:1032F00003F303EB0213404A13441B8913F0010F3D
:10330000EFD029461046FEF7CCF90028E9D1E3E7D3
:1033100001350F2D03DC3446E4E70425F9E7384B8B
:1033200000221A809A803448FEF70EFA354802F0DF
:10333000E9FA52E0344802F0E5FA042516E00134D7
:10334000042C12DC04EB4402F42305FB03F303EB2F
:103350000213294A13441B8913F0010FEFD02246B0
:1033600029462548FEF746F9E9E701350F2D01DC2E
:103370000124E5E7224B00221A809A801E48FEF7BE
:10338000E3F9224802F0BEFA27E03146204802F075
:10339000B9FA22E00134042C14DC04EB4402F423D7
:1033A00006FB03F303EB0213134A13441B8913F0C8
:1033B000010FEFD0224631460F48FEF71BF9E9E72F
:1033C0000124E8E73146134802F09CFA062E0BD0A0
:1033D000072E0DD00848FEF7B7F970BD22463146DA
:1033E0000D4802F08FFAF8E7054B00221A80F1E74A
:1033F000034B00229A80EDE7C4620020601F021098
:1034000090AC0020641E0210981E0210D01E021004
:10341000041F0210401F02107C1F02102DE9F04112
:10342000ACB006460F46904620AC8F4D0FCD0FC472
:103430000FCD0FC495E80F0007C4238018AC8B4D47
:103440000FCD0FC495E80F0084E80F000DF1280C94
:10345000874C0FCCACE80F000FCCACE80F000FCCC2
:10346000ACE80F0094E803004CF8040B8CF8001053
:1034700003AC804D0FCD0FC495E8070003C4227044
:10348000FEF79CFD002846D0062E10D07A4BF42281
:1034900002FB07331B8F13F0010F0FD1013E052EE6
:1034A00000F2DD80DFE806F00F0F3F658BC13B1FA8
:1034B0000B2BEBD9714802F025FA2CE03946704805
:1034C00002F020FA27E005216B48FEF7EAF828BB56
:1034D000694C8023A4F8FC340026C4F8F46401236A
:1034E00084F8B435674BC4F8F83404F2FE451F2263
:1034F0006549284616F01EFC84F81D651F2218A990
:10350000284616F017FC5C48FEF71EF9424639467D
:103510005E4802F0F7F92CB0BDE8F08139465C480E
:1035200002F0F0F9D4E705215348FEF7BAF8D8B90C
:10353000514C8023A4F8F0350026C4F8E865012337
:1035400084F8A8364F4BC4F8EC3504F2F2551F222C
:103550004D49284616F0EEFB84F811661F220AA991
:10356000284616F0E7FBCEE739464A4802F0CAF98A
:10357000DEE707214048FEF794F8D8B93E4C802397
:10358000A4F8E4360026C4F8DC66012384F89C37EE
:103590003C4BC4F8E03604F2E6651F223A4928465F
:1035A00016F0C8FB84F805671F2203A9284616F009
:1035B000C1FBA8E73946384802F0A4F9DEE74FB36B
:1035C00039462D48FEF76DF850B32B4C0122394691
:1035D0002046FEF70FF8002239462046FEF70AF88B
:1035E00039462E4802F08EF995E701340F2C13DC92
:1035F00021462148FEF755F80028F6D01E4D01223D
:1036000021462846FDF7F6FF002221462846FDF711
:10361000F1FFEAE70424E9E7214802F073F97AE7C9
:103620003946204802F06EF975E739461248FEF730
:1036300038F878B9104C00230093802301223946D2
:103640002046FDF75FFF4346012239462046FEF73C
:1036500001F858E73946144802F054F95BE713487B
:1036600002F050F957E700BFB8210210E82102101C
:103670000822021040220210C4620020A01F021083
:10368000C41F021028001010010010109C2102100D
:10369000F81F02103C20021080200210E8200210C7
:1036A000C42002100C210210382102107C210210CB
:1036B0002DE9F047D0B00546E0B10F4601EB4102DD
:1036C000F42300FB03F303EB0213B94A13441B89F1
:1036D00013F0010F00F063810146B548FEF720F9B1
:1036E000B44802F00FF92D03AEB206F580581FFA68
:1036F00088F8B0E1B04802F005F9B04802F002F9EC
:10370000AF4802F0FFF82E461FE004EB4403F4221A
:1037100006FB02F202EB0312A54B13440B449A7A08
:1037200046AB5A5401311F29EFDD04EB4404F42366
:1037300006FB03F303EB04139D4A1A4446AB1289BC
:103740003146A04802F0DEF801360F2E00F32C813E
:103750000124042CF8DC31469548FDF7A2FF18B18E
:10376000012C01D12946DEE704EB4402F42306FBD9
:1037700003F303EB02138E4A13441B8913F0010F6A
:103780002FD013F4807F2ED040F0A5802246314602
:103790008D4802F0B7F80134DBE704EB4403F42270
:1037A00006FB02F202EB0312814B13440B449A7A9C
:1037B00046AB5A5401311F29EFDD012CEBD104EB4C
:1037C0004402F42306FB03F303EB0213784A134489
:1037D0001B8946AA0092224631467C4802F092F8A4
:1037E000D9E72946E7E74EAB224631467048FDF758
:1037F000E3FF012C32D0DFF8B88122463146404643
:10380000FDF7BAFF0746224631464046FEF768F804
:10381000014604EB4402F42306FB03F303EB02131B
:1038200008EB030210890833434402330F2E4ED8AD
:10383000042C4ED804EB440CF42206FB02F202EBFB
:103840000C1258F8022003920293019000914EABA3
:103850003A4621465E4802F055F89CE7DFF8508171
:10386000224631464046FDF787FF0746224631464D
:103870004046FEF735F8014604EB4402F42306FB0C
:1038800003F303EB021308EB0302108908334344EC
:1038900002330F2E17D8042C17D804EB440CF42253
:1038A00006FB02F202EB0C1258F80220049203937A
:1038B000029001914EAB00933B462246314645486B
:1038C00002F020F867E70022F0E70022EEE700228E
:1038D000B9E70022B7E74FEA06394EAB2246314638
:1038E0003348FDF769FF012C2BD01FFA89F9E3B2A9
:1038F000DFF8BC801F461A46494640461BF01CFEB6
:10390000824609F101013A4689B240461BF014FE95
:1039100004EB4402F42306FB03F303EB021308EB6E
:10392000030211890833434402335268039202931D
:10393000019100904EAB52462146274801F0E2FF2C
:1039400029E71FFA89F9E3B2DFF864801F461A46B7
:10395000494640461BF0F0FD824609F101013A4616
:1039600089B240461BF0E8FD04EB4402F42306FB59
:1039700003F303EB021308EB0302118908334344FA
:103980000233526804920393029101904EAB00936C
:10399000534622463146114801F0B4FFFBE60A4681
:1039A00001460F4801F0AEFF50B0BDE8F08700BF00
:1039B000C4620020003702105C2202107022021044
:1039C000A8220210F0220210F0230210302302106D
:1039D000B0230210702302107C2402103C24021039
:1039E000BC2402107119FAB289B21F481BF0A4FD61
:1039F00002461E4907A8204409F016F80444013580
:103A00000F2DEFDD07AB1919194A1088927818535A
:103A10008A700234002506E0164907A8204409F000
:103A200003F8013401350F2D0DDC7119FAB289B29A
:103A30000D481BF081FDC2B2A2F12003DBB25E2B68
:103A4000EAD92E22E8E71036B6B207A90A4801F0F3
:103A500059FFB045A8D93246084907A808F0E4FF45
:103A600000250A24CCE700BFC4620020E024021035
:103A70003019021054F80110001802102819021011
:103A800038B504460D46FEF799FA002840D0601E6E
:103A900003283AD8DFE800F002304455504801F0DE
:103AA00031FF504B9B880BB14F4900E04F495048C4
:103AB00001F028FF4B4B1B880BB14B4900E04B49F1
:103AC0004C4801F01FFF042400E001340F2C1CDCE3
:103AD000494BF42202FB04331B8F13F0010FF4D087
:103AE000454B02FB043393F9F030002BEDDA21460D
:103AF000424801F007FFE8E73A4B9B884BB9394B46
:103B000001229A803E4801F0FDFE3648FCF7FAFBA0
:103B100038BD344B00229A803A4801F0F3FEF4E7B6
:103B2000304B1B8833B92F4B01221A80364801F0E5
:103B3000E9FEEAE72B4B00221A80344801F0E2FE4E
:103B4000E3E72D4BF42202FB05331B8F13F0010F2B
:103B500024D0294BF42202FB053393F9F030002BDB
:103B600021DB05F0FE01244CF42303FB014090F817
:103B7000F02062F07F0280F8F02001FB0333234441
:103B800093F8F02062F07F0283F8F0204A1C20486E
:103B900001F0B8FE2046FDF7D7FDB6E729461D48DF
:103BA00001F0B0FEB4E705F0FE01134C134602FB32
:103BB000014090F8F02002F07F0280F8F02001FB35
:103BC0000333234493F8F02002F07F0283F8F020BF
:103BD0004A1C114801F096FE2046FDF7B5FD94E71A
:103BE000E824021090AC0020883F0210E425021067
:103BF000FC24021018250210C46200203425021093
:103C00006C25021088250210A4250210C825021078
:103C100070260210F02502102C26021070B582B01A
:103C20000546FCF753FEB0F1FF3F28D00446FEF7EF
:103C3000C5F948B304F1805606F5801629461848A0
:103C400001F060FE174801F05DFE174801F05AFED2
:103C5000164801F057FE314611F8012B336A706A9D
:103C600001900094124801F04DFE00212046FCF71F
:103C70004DFE78B129460F4801F044FE08E0294680
:103C80000D4801F03FFE03E029460C4801F03AFEE2
:103C900002B070BD29460A4801F034FEF8E700BFC3
:103CA000DC260210FC260210B81A0210F0100210D6
:103CB0003C11021030270210A01A0210B426021084
:103CC0005027021038B5054609281DD0A14B1B8886
:103CD000E3B1013D072D00F2A080DFE815F01B00E5
:103CE000B100C900D800E700F40011012601E0B2DC
:103CF00004F0C8FB0D2004F0C5FB0A2004F0C2FB51
:103D00000134592CF3DDE1E74124FAE7924801F050
:103D1000F9FDDEE78F4BB3F8A6306BB18F499048C1
:103D200001F0F0FD8B4BB3F8A030032B00F2828042
:103D3000DFE803F00474787C8A49F0E78A4801F0F0
:103D4000E1FD8A4B1B78002B78D08949894801F026
:103D5000D9FD894C2188894801F0D4FD2188C90BFF
:103D6000874801F0CFFD2188C1F38031854801F0FB
:103D7000C9FD2188C1F34031834801F0C3FD21888A
:103D8000C1F30031814801F0BDFD2188C1F3C0219C
:103D90007F4801F0B7FD2188C1F380217D4801F003
:103DA000B1FD2188C1F340217B4801F0ABFD2188A2
:103DB000C1F30021794801F0A5FD2188C1F3C011AC
:103DC000774801F09FFD2188C1F38011754801F00B
:103DD00099FD2188C1F34011734801F093FD2188BA
:103DE000C1F30011714801F08DFD2188C1F3C001BC
:103DF0006F4801F087FD2188C1F380016D4801F013
:103E000081FD2188C1F340016B4801F07BFD2188D1
:103E100001F00101694801F075FD38BD684801F005
:103E200071FD8EE7674801F06DFD8AE7664801F095
:103E300069FD86E7654801F065FD82E7644985E72D
:103E4000444BB3F8A63063B1424B0022A3F8A6203E
:103E5000404BB3F8A6304BB14049414801F052FD08
:103E6000DBE73C4B0122A3F8A620F1E73D49F4E74C
:103E7000414A13886FEA43436FEA53431380354B3B
:103E80000222A3F8A020534801F03CFDC5E73A4ABE
:103E90001388C3F30D0343F4804313802D4B012299
:103EA000A3F8A0204C4801F02DFDB6E7324A138854
:103EB000C3F30D031380274B0022A3F8A02047482B
:103EC00001F020FDA9E72C4A138883F400639BB21C
:103ED0001380204AB2F8A4205AB11E4A0021A2F849
:103EE000A41013F4006F09D021493D4801F00AFDE8
:103EF00093E7184A0121A2F8A410F2E73449F4E745
:103F0000144B1B881BB9374801F0FCFC85E71A4AA3
:103F1000138843F400531380334B02221A6001F0DC
:103F2000E5FA324801F0EEFC77E70A4B1B881BB933
:103F30002C4801F0E7FC70E70F4A138843F48053E4
:103F40001380294B02221A6001F0D0FA284801F0B0
:103F5000D9FC62E790AC00207C2702107427021085
:103F6000D827021078270210EC27021072B2002026
:103F7000843E02106C2802104C330020802802106E
:103F800098280210CC2802101C2902104C2902107B
:103F900084290210B0290210DC290210002A021024
:103FA0002C2A02105C2A0210A02A0210D02A021029
:103FB000042B0210342B0210642B0210982B0210D9
:103FC000042802101C280210342802105028021065
:103FD00058F80110CC2B0210E82B0210042C021010
:103FE000202C0210442C0210A0B10020742C0210CE
:103FF000902C02100000000010B584B00446FDF7BC
:10400000DDFF80B1601E0B280DD8DFE800F0060E42
:1040100032560C0C0C0C0C6E757C414BB3F87810BE
:10402000404801F06FFC04B010BD3F4801F06AFC4D
:104030003B4BB3F878103B4801F064FC002400E0EF
:104040000134B4F5007FEEDA04F5705208230093D2
:104050006B44D200052135481BF066FA029A039B97
:1040600052EA0301ECD004F50071314801F04AFC3A
:10407000E6E729A3D3E90023CDE90223002412E0D7
:10408000029B13F10133039A42F10132029303922E
:1040900004F57052082300936B44D2000521234895
:1040A0001BF062FA0134B4F5007FE9DB214801F02E
:1040B00029FC214801F026FCB5E700220023CDE9C8
:1040C000022300240AE004F57052082300936B4495
:1040D000D200052115481BF047FA0134B4F5007FE2
:1040E000F1DB164801F00EFC9DE70D480023A0F817
:1040F0007830FCF707F996E709480123A0F87830F3
:10410000FCF700F98FE706480223A0F87830FCF7A7
:10411000F9F888E7AFF30080414041404140414019
:1041200090AC0020AC2C0210C82C021000000840FB
:10413000FC2C0210102D0210442D0210602D0210D4
:1041400038B50C4601380A2855D8DFE810F00B00C6
:1041500063008A00AC00BA00CA00DA00EA00FA0084
:104160000A0118018C4DB5F854102C2404FB01F2FF
:10417000920A8A4801F0C6FBB5F8561004FB01F21A
:10418000920A874801F0BEFBAB8F002B34D08549E3
:10419000854801F0B7FB804BB3F85030002B2DD091
:1041A0008049824801F0AEFB7B4BB3F846303BB30D
:1041B0007C497F4801F0A6FB774BB3F852300BB334
:1041C00078497C4801F09EFB734BB3F86630DBB155
:1041D0007449794801F096FB6F4BB3F86830ABB186
:1041E0007049764801F08EFB6B4BDB8F83B16D49D4
:1041F000734801F087FB38BD7249C9E77149D0E7C0
:104200007049D6E76F49DCE76E49E2E76D49E8E7B8
:104210006C49EDE7FDF7D2FED8B15F4BB3F854100F
:104220002C2201FB02F2684801F06CFB002CE2DD5D
:10423000A4F57A7242F228339A420ED8564DA5F868
:1042400054402146614801F05DFB2846FCF75AF8CE
:10425000D1E75F4801F056FBCDE75E4801F052FB25
:10426000C9E7FDF7ABFEB0B14B4BB3F856102C22AB
:1042700001FB02F2584801F045FB002CBBDDA4F124
:104280002003E02B0BD8444BA3F85640214653485B
:1042900001F038FBAFE74E4801F034FBABE7504884
:1042A00001F030FBA7E73C4A938FB3FA83F35B0935
:1042B000938723B13B494B4801F024FB9BE74149DD
:1042C000F9E7354AB2F85030B3FA83F35B09A2F844
:1042D000503023B13349444801F014FB8BE739498E
:1042E000F9E72D4AB2F84630B3FA83F35B09A2F836
:1042F000463023B12B493D4801F004FB7BE73149AF
:10430000F9E7254AB2F85230B3FA83F35B09A2F811
:10431000523023B12349364801F0F4FA6BE72949BA
:10432000F9E71D4AB2F86630B3FA83F35B09A2F8E5
:10433000663023B11B492F4801F0E4FA5BE72149BD
:10434000F9E7154AB2F86830B3FA83F35B09A2F8CB
:10435000683023B11349284801F0D4FA4BE71949D2
:10436000F9E70D4AD38FB3FA83F35B09D38723B1FF
:104370000C49224801F0C6FA3DE71249F9E7FDF77A
:104380001DFE00283FF437AF0348FBF7BBFF1C4876
:1043900001F0B8FA2FE700BF90AC00208C2D02107E
:1043A000C02D0210943C0210F42D0210142E0210A5
:1043B000582E0210842E0210AC2E0210CC2E0210A9
:1043C000EC2E0210E4250210482F0210AC2F021030
:1043D0000C2F0210742F02100030021068300210EF
:1043E0003030021090300210AC300210EC3002106D
:1043F00014310210383102105431021070310210A1
:104400008C3102102DE9F041BAB004460D4600206F
:104410001BF0B6F806469F231F936022002120A8B8
:1044200015F08CFB06AF4FF0640842460021384679
:1044300015F084FB424639461FA81BF04DF89DF845
:104440001B30012101FA03F7FDF7B8FD002832D037
:10445000631E042B2FD8DFE803F003364D5076009F
:1044600038A808F0D7FE9DF8E3309DF8E4209DF8C9
:10447000E5109DF8E6009DF8E74004940390029152
:10448000019200939DF8E2309DF8E1209DF8E01044
:10449000384801F037FA3146374801F033FA042141
:1044A000364801F02FFA3A46002F07DB121539463D
:1044B000334801F027FA3AB0BDE8F08107F57F22D2
:1044C00002F6FF72F2E72F4B9D420DD005F58053A7
:1044D0002D4A13602C4B1A6829462C4801F012FA19
:1044E0002846FCF743F9E6E7274B1D6805F580529F
:1044F0001A60EFE7FCF7F2F8DDE7254801F002FA71
:104500004FF47A7400214FF0FF300AF0DFFA0220F6
:1045100006F07AF8002003F0A2F868B9013CF1D166
:104520001C4801F0EFF9FCF797F81B4801F0EAF995
:104530001A4801F0E7F9BEE7002003F095F81848A3
:1045400001F0E0F9B7E70F4B9D420DD005F5805320
:10455000144A1360134B1A682946134801F0D2F924
:10456000284601F02DF9A6E70E4B1D6805F580528F
:104570001A60EFE7AC310210E0310210083202108D
:104580003C3202104342414084AC00207832021099
:10459000B4320210103302102833021044330210D8
:1045A000FC32021088AC00208833021030B585B090
:1045B00004460D46FDF702FDE8B1601E03281AD837
:1045C000DFE800F0021B324B02A801F04BF99DF826
:1045D0000B3000939DF80A309DF809209DF80810D3
:1045E0002F4801F08FF99DF80A10C1F38201CA012A
:1045F0002C4801F087F905B030BD2B4B9D420DD002
:1046000005F58053294A1360284B1A682946284823
:1046100001F078F9284601F0D3F8ECE7234B1D6848
:1046200005F580521A60EFE7224801F06BF900208F
:1046300001F0A2F80146204801F064F9002001F0E1
:104640009BF844F24103984203D01C48FDF75CF804
:10465000D1E71B4801F056F9CDE71A4801F052F9AD
:104660004FF47A7400214FF0FF300AF02FFA022045
:1046700005F0CAFF002002F0F2FF50B9013CF1D171
:10468000114801F03FF901F0FDF8104801F03AF946
:10469000B1E7002002F0E8FF0D4801F033F9AAE786
:1046A000C4330210EC3302104342414088AC002076
:1046B000883302101034021034340210C462002017
:1046C0004C34021078340210CC340210E43402105E
:1046D000B434021070B5224808F0E1FB0025B5F5AE
:1046E000005F10DA002C0EDB642008F0A1FB041E32
:1046F000FADB1C4B5C55013515F03F0FEFD12E2036
:1047000008F0BEFBEBE72946174808F0F7FB00234B
:1047100007E0164A116831F8132052BA21F8132025
:104720000133B3F5805FF4DB00260BE02A190F4B51
:104730001B6833F812100E4808F0E0FB01340F2C10
:10474000F4DD01361E2E06DC35012946094808F045
:10475000D5FB0024F3E70A2008F092FB70BD00BFF0
:10476000F4340210DC41002024350210EC32002029
:10477000B8020210A802021038B5314B1C68238819
:10478000304D2B6063886B6004F58053B3F8FE3FB7
:104790006B61FCF74DF9A861A079A3881B029BB25D
:1047A0001844A860A388FF2B15D800F10043013BF3
:1047B00014F8132000233F2A16D80F2B14DC02F024
:1047C0003F022149895C214AD1540133421ED21A49
:1047D00014F81220EFE71E4A1C4B07CA03C323F844
:1047E000022B120C1A7008E002F03F021649895C95
:1047F000164AD15401330021D154114B1A6802F5E5
:104800008052B2F8FC3F03F03F030F49C85C114BE4
:104810001870B2F8FA0F00F03F00085C58702D20B5
:104820009870B2F8F80F00F03F00085CD870B2F84A
:10483000F62F02F03F028A5C1A7100225A7138BDCD
:10484000EC320020F4B100209C4B0310DC6100200E
:1048500050350210EC61002010B5FFF78DFF1048B5
:1048600008F01DFB0F4C21680A460F4808F046FB74
:1048700061680A460D4808F041FBA2680C490D48E2
:1048800008F03CFB0C490D4808F038FBA26961694F
:104890000B4808F033FB0A2008F0F2FA10BD00BF05
:1048A0005C350210F4B1002088350210A4350210E6
:1048B000DC610020C0350210EC610020E035021000
:1048C000F435021030B583B02F4808F0E8FA2F48CD
:1048D00008F014FB00240DE02D4808F00FFB08E061
:1048E000FFF74AFF2B4B2C4A2C4909682C4808F04B
:1048F00005FB0134092C1BDC21462A4808F0FEFA8E
:10490000294B1A686303D25A4FF6FF739A42E3D0D9
:104910000023B3F5805FE3DA03EB0430234A126827
:104920002149096831F8101022F813100133F0E71B
:10493000002403E0164808F0E1FA0134092C1DDCDC
:1049400021461B4808F0DAFA184D4FF40053009343
:104950002B686203052117481AF0E6FD2B681A88B8
:104960004FF6FF739A42E5D0FFF706FF094B0A4A5C
:104970000A4909680A4808F0C1FADEE70A2008F087
:104980007FFA03B030BD00BF1C3602104C36021057
:104990008C360210DC610020EC610020F4B10020B4
:1049A000A43602107436021044330020EC3200208A
:1049B000B83602100000084010B504460146084809
:1049C00008F09CFAA4F13003092B02D81C46054BD1
:1049D0001C60044B1968044808F090FA10BD00BF31
:1049E000D0360210E8320020DCFD011070B582B034
:1049F00004465E4808F082FA5D4B09221A70032CC7
:104A000000F2AF80DFE804F002182E740026ADF843
:104A100006600DF10605574C2946204605F0B8FF03
:104A2000ADF806602946204605F0B2FF00F0D2FD41
:104A300000F05CFD02B070BDE023ADF806300DF172
:104A400006054C4C2946204605F0A2FF8623ADF80A
:104A500006302946204605F09BFF00F0BBFD00F024
:104A600045FDE7E7B623ADF806300DF10605414CEC
:104A70002946204605F08CFF1023ADF80630294664
:104A8000204605F085FF0123ADF806302946204673
:104A900005F07EFFC623ADF806302946204605F016
:104AA00077FF0026ADF806602946204605F070FF26
:104AB000F223ADF806302946204605F069FFADF82F
:104AC00006602946204605F063FF5A23ADF80630FC
:104AD0002946204605F05CFF9123ADF806302946B3
:104AE000204605F055FF00F075FD00F0FFFCA1E742
:104AF0003E23ADF806300DF106051E4C2946204632
:104B000005F046FF1123ADF806302946204605F092
:104B10003FFF1023ADF806302946204605F038FF48
:104B20007523ADF806302946204605F031FFC02335
:104B3000ADF806302946204605F02AFF0123ADF8DE
:104B400006302946204605F023FF2F23ADF8063016
:104B50002946204605F01CFF00F03CFD00F0C6FC95
:104B600068E700F037FD00F0C1FC63E7FC36021097
:104B700087B200206C73002038B5002008F058F987
:104B800010F1020F67D00446394B1B78002B63D01D
:104B90001B2807D0043B052B5DD8DFE803F01F5C22
:104BA0002C2E5C21324B00221A70324808F077F923
:104BB00051E001350C2D4EDC05EB45032E4A12F871
:104BC0002330A342F5D105EB45022B4B03EB8203C7
:104BD0005B689847264B00221A70EAE70025E9E750
:104BE000A0F13003082B36D81846FFF7FFFE204B04
:104BF00000221A702FE0462805D0A4F13003092BBB
:104C000007D900250DE0FFF765FD194B00221A704A
:104C1000F3E72046FFF7D0FE154B00221A701AE08A
:104C200001350E2D17DC05EB4503144A12F823302D
:104C3000A342F5D105EB4502104B03EB82035B6801
:104C400098470B4B00221A70EAE703EB430301EB92
:104C500083035B68984738BD0023122BFBDC03EB12
:104C60004302074911F82220A242EED00133F4E7B3
:104C700087B200200437021068310020B4300020D1
:104C80000432002003460268EFF3108172B6D2E8C6
:104C9000CFCF0120BCF1000FF9D1C2E84C0FBCF11D
:104CA000000FF4D1BFF35F8F18895A89801A02D59B
:104CB000DA890132104400221B68C3E88F2F81F388
:104CC0001088704708B53C4808F0E9F83B4B3C4A6F
:104CD000196812683B4808F011F93B4B3B4A1968C8
:104CE00012683B4808F00AF93A4B3B4A19681268C7
:104CF0003A4808F003F93A4B3A4A196812683A48B8
:104D000008F0FCF80A2008F0BBF8384B384A19685C
:104D10001268384808F0F2F8374B384A19681268B8
:104D2000374808F0EBF8374B374A196812683748AC
:104D300008F0E4F8364B374A19681268364808F02C
:104D4000DDF8364808F0ABF8002002F022FC28B36A
:104D50003349344808F0D2F8042002F01AFC48B372
:104D60002F49314808F0CAF8022002F012FCF8B1CD
:104D70002B492E4808F0C2F8012002F00AFCA8B125
:104D800027492B4808F0BAF8032002F002FC38B19A
:104D9000BDE808402249274808F0B0B82649D8E7BE
:104DA00025492448BDE8084008F0A8B82249E8E7AA
:104DB0002149DEE72049D4E77C4202103433002049
:104DC00038330020B04202102C3300203033002052
:104DD000D8420210FC3200200033002000430210B1
:104DE0002433002028330020284302101C330020E5
:104DF00020330020504302101433002018330020C9
:104E0000784302100433002008330020A04302102E
:104E10000C33002010330020C843021088540210C5
:104E2000900B0210F04302100C44021028440210B0
:104E30004444021060440210940B021008B51E484E
:104E400000F060FD1D4B1E4A196812681D4800F0F5
:104E500059FD1D4B1D4A196812681D4800F052FD8E
:104E60001C4B1D4A196812681C4800F04BFD1C4B76
:104E70001C4A196812681C4800F044FD1B4B1C4A70
:104E8000196812681B4800F03DFD1B4B1B4A19684E
:104E900012681B4800F036FD1A4B1B4A196812684D
:104EA0001A4800F02FFD1A4B1A4A196812681A485E
:104EB000BDE8084000F026BD7C44021034330020D9
:104EC00038330020B04402102C330020303300204F
:104ED000D4440210FC32002000330020F8440210B9
:104EE00024330020283300201C4502101C330020EE
:104EF00020330020404502101433002018330020D6
:104F00006445021004330020083300208845021055
:104F10000C33002010330020AC4502102DE9F04F77
:104F2000CC4E89B00121306808F054FA0346CA4FCC
:104F3000CA4930683B6008F069FADFF884830121D0
:104F4000C8F80000306808F045FADFF878B3C449C3
:104F5000CBF80000306808F059FADFF86C930121B3
:104F6000C9F80000306808F035FABE4BD9F80020C7
:104F70001860BD4B012130681A6008F02BFABB4A5B
:104F8000BB491060306808F041FABA4DBA49BB4CD1
:104F900008600121286808F01DFAB94920602868D6
:104FA00008F034FAB74A01211060286808F012FAB4
:104FB000B549B64C0860B649286808F027FA0121BF
:104FC0002060286808F006FAB24AB34910602868E1
:104FD00008F01CFAB149B24C08600121286808F0B9
:104FE000F9F9B0492060286808F010FA4FF48033CE
:104FF0000124D8F800A0AC4A04930AF1140310600D
:105000001B030AEB040243EAC2133F6823F0C043C8
:105010000094D6F800800593A44AA54B3946CDE903
:105020000632404602231A2208F024FA08F12F41E2
:1050300001F56001090D0631C9B21A20039104F08F
:105040000BFA03991B2004F007FA0DF1100C5246DD
:1050500063463946404608F05CFA4FF4502A4FF454
:1050600000234FF42020D8F80010D9F8002004FACB
:1050700007F70F43DBF800B0C8F80070CDE906A3CE
:10508000131D11191B0343EAC113376823F0F853AA
:105090000DF1100C43F0D053594604900593384657
:1050A000634608F036FA396804FA0BFB6D4B4BEA9D
:1050B0000101D9F80020D3F8008039604FF4803125
:1050C0004FF42020131D07911B03111943EAC1134C
:1050D000D6F800B023F0F8530DF1100C43F0D05384
:1050E00041460490059358466346CDF818A0624F98
:1050F00008F00FFAD6F800A05C4ED7F80090376899
:105100000026DBF8003004FA08F848EA03034FF4FD
:105110008031CBF8003007964FF440264FEA093330
:1051200043EAC9131C22009404910593394623468F
:105130005046069608F09EF91C205E4E069B0AF12A
:105140002F41334043F0005343F420230693079B41
:1051500001F5600123F07C7323F01F03090D43F474
:10516000801306310343C9B2079304F075F94FF475
:1051700020200DF1100C63464A46394604905046F3
:1051800008F0C7F93D4B3F48D3F80090DAF80030FB
:1051900004FA07F71F43D0F800804FF48031CAF8B3
:1051A00000704FF440234FF000570094CDE90637CC
:1051B00004914FEAC81308F10B01D5F800A043EAA7
:1051C000013323F0C043494605931222234650463B
:1051D00008F050F92346494600941322504608F03F
:1051E00049F94FF420220492069A0AF12F413240E5
:1051F00001F5600142F400222F4F06924FEA115B45
:10520000079A2E4B0BF1060B3A405FFA8BFB1343C8
:1052100059461220079304F01FF95946132004F051
:105220001BF90DF1100C634642464946504608F002
:1052300070F9164B04FA09F9D3F800B0DAF8003027
:10524000114849EA0303D0F800804FF48031CAF8CE
:1052500000303BE0403300203433002008B7021018
:10526000F4B60210FC32002000330020243300206A
:10527000E8B602103C330020283300201C33002005
:10528000C8B6021020330020143300201833002049
:10529000B4B602100433002088B602100833002090
:1052A0000C330020A0B60210103300200068074025
:1052B0000000DD01FFFFF5C1E0830FFC124C100080
:1052C000383300202C330020303300204FF00050C2
:1052D0004FF440230094CDE9063004914FEACB13FC
:1052E0000BF10401D5F8009043EA013323F0C043E9
:1052F0004146059314222346484608F0BBF823464E
:10530000414600941522484608F0B4F84FF4202294
:1053100014200492079A6A4B3A4013430793059B63
:1053200009F12F4123F0F85301F5600143F0D05308
:1053300021FA00FA0593069B0AF1060A5FFA8AFA37
:10534000334043F420235146069304F085F8514638
:10535000152004F081F80DF1100C63465A464146C1
:105360004846584F08F0D5F8D9F80030D7F800A0D3
:1053700004FA08F8544F48EA03033F68C9F80030BC
:105380004FF440234FF480314FF0005006930AF160
:105390000603009404911B030AEB0401D5F8008076
:1053A00043EAC11323F0C043032239460790059313
:1053B0004046234608F05EF8444B08F12F41049321
:1053C000069B01F56001334043F0705343F4003312
:1053D0000693079B090D063123F4F84343F4406319
:1053E0000320C9B2079304F037F80DF1100C63469F
:1053F00039460AF10202404608F08BF8D8F800302E
:10540000334804FA07F71F434FF480314FF4402329
:10541000D0F800902F482D68D0F800A0C8F8007090
:1054200000270491069309F104014FEAC91343EAE6
:1054300001330094514605931622234628460797C8
:1054400008F018F84FF42022079B05F12F4123F0B4
:105450007C7323F01F0343F4801343F01603079378
:10546000059B01F5600123F0F85343F0D0530593F9
:10547000069B090D3340063113431620C9B204922E
:10548000069303F0E9FF4A46514604AB284608F06C
:1054900040F843F2FF73104A1049108804FA0AF4E6
:1054A000034028680443B1F8A000B1F8A41043EA0F
:1054B000803343EA81232C60138009B0BDE8F08F6C
:1054C0001454100008330020043300200000AC07FF
:1054D000103300200C3300204C33002090AC00200F
:1054E000014B1868704700BF38AC0020F8B54FF08A
:1054F00050435B689B0336D401211B4E1B4C1C4D53
:10550000376820682A6800F1050C07EB47030CF0A8
:105510001F0C02EBC303C3F8D8C007F11003994076
:105520004FEA470C53680B42FCD1012108300CEBC9
:10553000070300F01F0002EBC30340F48050043760
:1055400042F82710C3F8D8000021142005F050F9C4
:1055500033682A68216803EB430301F01F0102EB63
:10556000C303C3F8D810F8BD1C330020203300203B
:105570003C3300204EF220000849094B094A0968D3
:105580001B68126801EB4101053302EBC10203F015
:105590001F03C2F8D800C2F8D83070470433002087
:1055A000083300203C33002001220849084B10B486
:1055B0000C68196804F110039A404B681342FCD13F
:1055C000043441F824005DF8044B70470433002094
:1055D0003C3300200120044A04491368087043F05A
:1055E00007031360704700BF78AC002086B200202C
:1055F0000022034BC3E90022C3E90222704700BF27
:10560000FCA400202DE9F0474FF050463D4B86B0FA
:1056100093E8070006AB03E9070073683A4C9A0366
:1056200025780BD4736813F4004F14BF01230223B1
:105630009D42237006D106B0BDE8F08700239D424D
:105640002370F8D005F0CCF803460A462F4F304EB1
:105650003968D7F804C0581AC7E9003262EB0C0168
:105660003360726000232B4A19F05AFF4FF0000993
:1056700019462378284E0DEB8303D3F80CA00DEBCD
:105680008503DB680746C6F80090104601934FF487
:105690007A72002319F044FFDFF88C803B460090BB
:1056A000524640461D4907F0BFF933680344336052
:1056B00003EB080015BB1A4B1A491A6807F0B4F936
:1056C000336803441848336007F0E9FB2378002B64
:1056D000B1D0164B1A78002AADD000214FF05042BD
:1056E000197053689B03A6D44FF4746410220521EB
:1056F0000F4B1048009419F037FF9CE708F803900F
:105700003368DFE73CB702106CB20020584000203D
:105710005040002040420F00C062002000460210AE
:1057200038AC002038460210F86100206AB2002030
:10573000C46200200000084008B50D490D4807F07C
:1057400095FF0121042003F087FE0121062003F0CC
:1057500083FE0121072003F07FFE052003F094FF64
:1057600005234FF0010242EC403042EC443008BDCA
:10577000005A62020000084000B585B002460023CE
:10578000ADF80E30022300930DF10E0305210448FD
:1057900019F0CAFEBDF80E0005B05DF804FB00BFAD
:1057A0000000084000B583B00B4600920246052178
:1057B000024819F0D9FE03B05DF804FB0000084070
:1057C000F0B5C7B0064600F5805722E007AB59197F
:1057D0001E4A1088927858538A700235002406E0D9
:1057E0001B4907A8284407F01FF9013501340F2C85
:1057F00008DC03AB1A5DA2F12003DBB25E2BEFD90C
:105800002E22EDE7103607A9124800F07BF8B742C8
:105810001AD93246104907A807F006F905461023A1
:10582000009303AB324605210C4819F07DFE00249D
:105830000F2CCBDC03AB1A5D094907A8284407F0FD
:10584000F3F803350134F3E747B0F0BD3019021027
:1058500054F80110001802104846021000000840D9
:10586000CC19021000B583B0034604220092002236
:105870000521034819F040FE03B05DF804FB00BFAA
:105880000000084010B5C0B04FF480720021684697
:1058900014F054F9002407E04FF480726946204662
:1058A000FFF780FF04F58074B4F5802FF4D302482D
:1058B00000F028F840B010BD5046021008B5084668
:1058C000012101F08BFB10B1FCF768FC08BD024818
:1058D000FCF764FCFAE700BFE871021008B500208D
:1058E00001F079FE002001F04FFE00214FF0FF3063
:1058F00009F0ECF808BD0000014B1868704700BFC4
:105900002CA600200FB400B5FFB080AB53F8042BD9
:1059100000934FF4FA7101A807F0B0F800280FDBEC
:1059200000214FF0FF3009F0D1F8FFF7E5FF01A9A2
:1059300001F0C6FA00207FB05DF804EB04B07047B8
:10594000054B1B68DB681D220121044813F042FF50
:105950004FF0FF30EFE700BF483D00206C460210DB
:1059600070B50C460121204601F038FB05460221A6
:10597000204601F033FB25B1064600244FF0FF30EE
:105980000CE02148FFF7BEFFFCF7AAF83BE01F4BF5
:1059900053F82410284614F0BBFC013408B1092C3C
:1059A000F5DD60BB013C0A2C29D8DFE804F00609CC
:1059B0000C0F1215181B1E212400FCF791F822E091
:1059C000FCF70CFA1FE0FCF70DFA1CE0FCF74CFAB0
:1059D00019E0FCF783FA16E0FCF7A4FA13E0FCF7F1
:1059E00007FB10E0FCF7FAFA0DE0FCF70FFB0AE00A
:1059F000FCF71CFB07E03046FCF734FB03E02946CC
:105A00000348FFF77FFF70BD8C460210D44C031093
:105A1000A446021038B50C460121204601F0DEFAFA
:105A200005460221204601F0D9FA1DB100244FF0AD
:105A3000FF300CE01748FFF765FFFCF7B3FB28E0E9
:105A4000154B53F82410284614F062FC013408B1B9
:105A5000052CF5DDC8B9013C052C16D8DFE804F0AB
:105A60000306090C0F12FCF79DFB12E0FCF79EFBEE
:105A70000FE0FCF79FFB0CE0FCF7A0FB09E0FCF754
:105A8000A5FB06E0FCF79EFB03E029460348FFF771
:105A900039FF38BD8C460210BC4C0310C0460210C2
:105AA000F8B50C460121204601F098FA064602217D
:105AB000204601F093FA05460321204601F08EFAB4
:105AC0002EB107463DB100244FF0FF3015E02248CB
:105AD000FFF718FF28E018B100244FF0FF300CE06A
